{
  "_format": "hh-sol-artifact-1",
  "contractName": "Vipsland",
  "sourceName": "contracts/Vipsland.sol",
  "abi": [
    {
      "inputs": [
        {
          "internalType": "address[]",
          "name": "_team",
          "type": "address[]"
        },
        {
          "internalType": "uint256[]",
          "name": "_teamShares",
          "type": "uint256[]"
        },
        {
          "internalType": "string",
          "name": "_notRevealedUri",
          "type": "string"
        },
        {
          "internalType": "string",
          "name": "_revealedUri",
          "type": "string"
        }
      ],
      "stateMutability": "nonpayable",
      "type": "constructor"
    },
    {
      "anonymous": false,
      "inputs": [
        {
          "indexed": true,
          "internalType": "address",
          "name": "account",
          "type": "address"
        },
        {
          "indexed": true,
          "internalType": "address",
          "name": "operator",
          "type": "address"
        },
        {
          "indexed": false,
          "internalType": "bool",
          "name": "approved",
          "type": "bool"
        }
      ],
      "name": "ApprovalForAll",
      "type": "event"
    },
    {
      "anonymous": false,
      "inputs": [
        {
          "indexed": false,
          "internalType": "uint256",
          "name": "tokenMPID",
          "type": "uint256"
        }
      ],
      "name": "DebugMP",
      "type": "event"
    },
    {
      "anonymous": false,
      "inputs": [
        {
          "indexed": true,
          "internalType": "address",
          "name": "acc",
          "type": "address"
        },
        {
          "indexed": false,
          "internalType": "uint256",
          "name": "minted_amount",
          "type": "uint256"
        },
        {
          "indexed": false,
          "internalType": "uint256",
          "name": "last_minted_NONMPID",
          "type": "uint256"
        }
      ],
      "name": "DitributePRTs",
      "type": "event"
    },
    {
      "anonymous": false,
      "inputs": [
        {
          "indexed": true,
          "internalType": "contract IERC20",
          "name": "token",
          "type": "address"
        },
        {
          "indexed": false,
          "internalType": "address",
          "name": "to",
          "type": "address"
        },
        {
          "indexed": false,
          "internalType": "uint256",
          "name": "amount",
          "type": "uint256"
        }
      ],
      "name": "ERC20PaymentReleased",
      "type": "event"
    },
    {
      "anonymous": false,
      "inputs": [
        {
          "indexed": false,
          "internalType": "bool",
          "name": "sendMPAllDone",
          "type": "bool"
        }
      ],
      "name": "MPAllDone",
      "type": "event"
    },
    {
      "anonymous": false,
      "inputs": [
        {
          "indexed": true,
          "internalType": "address",
          "name": "previousOwner",
          "type": "address"
        },
        {
          "indexed": true,
          "internalType": "address",
          "name": "newOwner",
          "type": "address"
        }
      ],
      "name": "OwnershipTransferred",
      "type": "event"
    },
    {
      "anonymous": false,
      "inputs": [
        {
          "indexed": false,
          "internalType": "address",
          "name": "account",
          "type": "address"
        },
        {
          "indexed": false,
          "internalType": "uint256",
          "name": "shares",
          "type": "uint256"
        }
      ],
      "name": "PayeeAdded",
      "type": "event"
    },
    {
      "anonymous": false,
      "inputs": [
        {
          "indexed": false,
          "internalType": "address",
          "name": "from",
          "type": "address"
        },
        {
          "indexed": false,
          "internalType": "uint256",
          "name": "amount",
          "type": "uint256"
        }
      ],
      "name": "PaymentReceived",
      "type": "event"
    },
    {
      "anonymous": false,
      "inputs": [
        {
          "indexed": false,
          "internalType": "address",
          "name": "to",
          "type": "address"
        },
        {
          "indexed": false,
          "internalType": "uint256",
          "name": "amount",
          "type": "uint256"
        }
      ],
      "name": "PaymentReleased",
      "type": "event"
    },
    {
      "anonymous": false,
      "inputs": [
        {
          "indexed": true,
          "internalType": "address",
          "name": "acc",
          "type": "address"
        },
        {
          "indexed": false,
          "internalType": "uint256",
          "name": "qnt",
          "type": "uint256"
        }
      ],
      "name": "RemainMessageNeeds",
      "type": "event"
    },
    {
      "anonymous": false,
      "inputs": [
        {
          "indexed": false,
          "internalType": "uint256",
          "name": "_winnerTokenNONMPID",
          "type": "uint256"
        },
        {
          "indexed": false,
          "internalType": "uint256",
          "name": "max_nonmpid_minus_xrand",
          "type": "uint256"
        }
      ],
      "name": "SelectedNONMPIDTokens",
      "type": "event"
    },
    {
      "anonymous": false,
      "inputs": [
        {
          "indexed": true,
          "internalType": "address",
          "name": "operator",
          "type": "address"
        },
        {
          "indexed": true,
          "internalType": "address",
          "name": "from",
          "type": "address"
        },
        {
          "indexed": true,
          "internalType": "address",
          "name": "to",
          "type": "address"
        },
        {
          "indexed": false,
          "internalType": "uint256[]",
          "name": "ids",
          "type": "uint256[]"
        },
        {
          "indexed": false,
          "internalType": "uint256[]",
          "name": "values",
          "type": "uint256[]"
        }
      ],
      "name": "TransferBatch",
      "type": "event"
    },
    {
      "anonymous": false,
      "inputs": [
        {
          "indexed": true,
          "internalType": "address",
          "name": "operator",
          "type": "address"
        },
        {
          "indexed": true,
          "internalType": "address",
          "name": "from",
          "type": "address"
        },
        {
          "indexed": true,
          "internalType": "address",
          "name": "to",
          "type": "address"
        },
        {
          "indexed": false,
          "internalType": "uint256",
          "name": "id",
          "type": "uint256"
        },
        {
          "indexed": false,
          "internalType": "uint256",
          "name": "value",
          "type": "uint256"
        }
      ],
      "name": "TransferSingle",
      "type": "event"
    },
    {
      "anonymous": false,
      "inputs": [
        {
          "indexed": false,
          "internalType": "string",
          "name": "value",
          "type": "string"
        },
        {
          "indexed": true,
          "internalType": "uint256",
          "name": "id",
          "type": "uint256"
        }
      ],
      "name": "URI",
      "type": "event"
    },
    {
      "anonymous": false,
      "inputs": [
        {
          "indexed": true,
          "internalType": "address",
          "name": "acc",
          "type": "address"
        },
        {
          "indexed": false,
          "internalType": "uint256",
          "name": "winnerTokenPRTID",
          "type": "uint256"
        }
      ],
      "name": "WinnersMP",
      "type": "event"
    },
    {
      "inputs": [],
      "name": "EACH_RAND_SLOT_NUM_TOTAL_FOR_AIRDROP",
      "outputs": [
        {
          "internalType": "uint256",
          "name": "",
          "type": "uint256"
        }
      ],
      "stateMutability": "view",
      "type": "function"
    },
    {
      "inputs": [],
      "name": "EACH_RAND_SLOT_NUM_TOTAL_FOR_INTERNALTEAM",
      "outputs": [
        {
          "internalType": "uint256",
          "name": "",
          "type": "uint256"
        }
      ],
      "stateMutability": "view",
      "type": "function"
    },
    {
      "inputs": [],
      "name": "EACH_RAND_SLOT_NUM_TOTAL_FOR_PRT",
      "outputs": [
        {
          "internalType": "uint256",
          "name": "",
          "type": "uint256"
        }
      ],
      "stateMutability": "view",
      "type": "function"
    },
    {
      "inputs": [],
      "name": "MAX_PRT_AMOUNT_PER_ACC",
      "outputs": [
        {
          "internalType": "uint8",
          "name": "",
          "type": "uint8"
        }
      ],
      "stateMutability": "view",
      "type": "function"
    },
    {
      "inputs": [],
      "name": "MAX_PRT_AMOUNT_PER_ACC_PER_TRANSACTION",
      "outputs": [
        {
          "internalType": "uint8",
          "name": "",
          "type": "uint8"
        }
      ],
      "stateMutability": "view",
      "type": "function"
    },
    {
      "inputs": [],
      "name": "MAX_SUPPLY_FOR_AIRDROP_TOKEN",
      "outputs": [
        {
          "internalType": "uint256",
          "name": "",
          "type": "uint256"
        }
      ],
      "stateMutability": "view",
      "type": "function"
    },
    {
      "inputs": [],
      "name": "MAX_SUPPLY_FOR_INTERNALTEAM_TOKEN",
      "outputs": [
        {
          "internalType": "uint256",
          "name": "",
          "type": "uint256"
        }
      ],
      "stateMutability": "view",
      "type": "function"
    },
    {
      "inputs": [],
      "name": "MAX_SUPPLY_FOR_PRT_TOKEN",
      "outputs": [
        {
          "internalType": "uint256",
          "name": "",
          "type": "uint256"
        }
      ],
      "stateMutability": "view",
      "type": "function"
    },
    {
      "inputs": [],
      "name": "MAX_SUPPLY_MP",
      "outputs": [
        {
          "internalType": "uint256",
          "name": "",
          "type": "uint256"
        }
      ],
      "stateMutability": "view",
      "type": "function"
    },
    {
      "inputs": [],
      "name": "NUM_TOTAL_FOR_MP",
      "outputs": [
        {
          "internalType": "uint8",
          "name": "",
          "type": "uint8"
        }
      ],
      "stateMutability": "view",
      "type": "function"
    },
    {
      "inputs": [],
      "name": "PRICE_PRT",
      "outputs": [
        {
          "internalType": "uint256",
          "name": "",
          "type": "uint256"
        }
      ],
      "stateMutability": "view",
      "type": "function"
    },
    {
      "inputs": [],
      "name": "PRICE_PRT_AIRDROP",
      "outputs": [
        {
          "internalType": "uint256",
          "name": "",
          "type": "uint256"
        }
      ],
      "stateMutability": "view",
      "type": "function"
    },
    {
      "inputs": [],
      "name": "PRICE_PRT_INTERNALTEAM",
      "outputs": [
        {
          "internalType": "uint256",
          "name": "",
          "type": "uint256"
        }
      ],
      "stateMutability": "view",
      "type": "function"
    },
    {
      "inputs": [],
      "name": "PRTID",
      "outputs": [
        {
          "internalType": "uint256",
          "name": "",
          "type": "uint256"
        }
      ],
      "stateMutability": "view",
      "type": "function"
    },
    {
      "inputs": [],
      "name": "STARTINGIDFORAIRDROP",
      "outputs": [
        {
          "internalType": "uint256",
          "name": "",
          "type": "uint256"
        }
      ],
      "stateMutability": "view",
      "type": "function"
    },
    {
      "inputs": [],
      "name": "STARTINGIDFORINTERNALTEAM",
      "outputs": [
        {
          "internalType": "uint256",
          "name": "",
          "type": "uint256"
        }
      ],
      "stateMutability": "view",
      "type": "function"
    },
    {
      "inputs": [],
      "name": "STARTINGIDFORPRT",
      "outputs": [
        {
          "internalType": "uint256",
          "name": "",
          "type": "uint256"
        }
      ],
      "stateMutability": "view",
      "type": "function"
    },
    {
      "inputs": [],
      "name": "_counter_for_generatelucky_mp",
      "outputs": [
        {
          "internalType": "uint256",
          "name": "_value",
          "type": "uint256"
        }
      ],
      "stateMutability": "view",
      "type": "function"
    },
    {
      "inputs": [],
      "name": "_counter_for_generatelucky_mp_airdrop",
      "outputs": [
        {
          "internalType": "uint256",
          "name": "_value",
          "type": "uint256"
        }
      ],
      "stateMutability": "view",
      "type": "function"
    },
    {
      "inputs": [],
      "name": "_counter_for_generatelucky_mp_internalteam",
      "outputs": [
        {
          "internalType": "uint256",
          "name": "_value",
          "type": "uint256"
        }
      ],
      "stateMutability": "view",
      "type": "function"
    },
    {
      "inputs": [
        {
          "internalType": "address",
          "name": "account",
          "type": "address"
        },
        {
          "internalType": "uint256",
          "name": "id",
          "type": "uint256"
        }
      ],
      "name": "balanceOf",
      "outputs": [
        {
          "internalType": "uint256",
          "name": "",
          "type": "uint256"
        }
      ],
      "stateMutability": "view",
      "type": "function"
    },
    {
      "inputs": [],
      "name": "balanceOfAccount",
      "outputs": [
        {
          "internalType": "uint256",
          "name": "",
          "type": "uint256"
        }
      ],
      "stateMutability": "payable",
      "type": "function"
    },
    {
      "inputs": [
        {
          "internalType": "address[]",
          "name": "accounts",
          "type": "address[]"
        },
        {
          "internalType": "uint256[]",
          "name": "ids",
          "type": "uint256[]"
        }
      ],
      "name": "balanceOfBatch",
      "outputs": [
        {
          "internalType": "uint256[]",
          "name": "",
          "type": "uint256[]"
        }
      ],
      "stateMutability": "view",
      "type": "function"
    },
    {
      "inputs": [],
      "name": "contractBalance",
      "outputs": [
        {
          "internalType": "uint256",
          "name": "",
          "type": "uint256"
        }
      ],
      "stateMutability": "view",
      "type": "function"
    },
    {
      "inputs": [
        {
          "internalType": "uint256",
          "name": "id",
          "type": "uint256"
        }
      ],
      "name": "exists",
      "outputs": [
        {
          "internalType": "bool",
          "name": "",
          "type": "bool"
        }
      ],
      "stateMutability": "view",
      "type": "function"
    },
    {
      "inputs": [
        {
          "internalType": "uint256",
          "name": "",
          "type": "uint256"
        }
      ],
      "name": "intArrPRTAIRDROP",
      "outputs": [
        {
          "internalType": "uint256",
          "name": "",
          "type": "uint256"
        }
      ],
      "stateMutability": "view",
      "type": "function"
    },
    {
      "inputs": [
        {
          "internalType": "address",
          "name": "account",
          "type": "address"
        },
        {
          "internalType": "address",
          "name": "operator",
          "type": "address"
        }
      ],
      "name": "isApprovedForAll",
      "outputs": [
        {
          "internalType": "bool",
          "name": "",
          "type": "bool"
        }
      ],
      "stateMutability": "view",
      "type": "function"
    },
    {
      "inputs": [],
      "name": "mintAirdropMPIsOpen",
      "outputs": [
        {
          "internalType": "bool",
          "name": "",
          "type": "bool"
        }
      ],
      "stateMutability": "view",
      "type": "function"
    },
    {
      "inputs": [
        {
          "internalType": "uint256",
          "name": "tokenId",
          "type": "uint256"
        }
      ],
      "name": "mintByOwner",
      "outputs": [],
      "stateMutability": "nonpayable",
      "type": "function"
    },
    {
      "inputs": [],
      "name": "mintInternalTeamMPIsOpen",
      "outputs": [
        {
          "internalType": "bool",
          "name": "",
          "type": "bool"
        }
      ],
      "stateMutability": "view",
      "type": "function"
    },
    {
      "inputs": [],
      "name": "mintMPIsOpen",
      "outputs": [
        {
          "internalType": "bool",
          "name": "",
          "type": "bool"
        }
      ],
      "stateMutability": "view",
      "type": "function"
    },
    {
      "inputs": [
        {
          "internalType": "address",
          "name": "account",
          "type": "address"
        },
        {
          "internalType": "uint8",
          "name": "_amount_wanted_able_to_get",
          "type": "uint8"
        },
        {
          "internalType": "uint8",
          "name": "stage",
          "type": "uint8"
        }
      ],
      "name": "mintNONMP",
      "outputs": [],
      "stateMutability": "payable",
      "type": "function"
    },
    {
      "inputs": [],
      "name": "name",
      "outputs": [
        {
          "internalType": "string",
          "name": "",
          "type": "string"
        }
      ],
      "stateMutability": "view",
      "type": "function"
    },
    {
      "inputs": [],
      "name": "numIssuedForAIRDROP",
      "outputs": [
        {
          "internalType": "uint256",
          "name": "",
          "type": "uint256"
        }
      ],
      "stateMutability": "view",
      "type": "function"
    },
    {
      "inputs": [],
      "name": "numIssuedForInternalTeamIDs",
      "outputs": [
        {
          "internalType": "uint256",
          "name": "",
          "type": "uint256"
        }
      ],
      "stateMutability": "view",
      "type": "function"
    },
    {
      "inputs": [],
      "name": "numIssuedForMP",
      "outputs": [
        {
          "internalType": "uint64",
          "name": "",
          "type": "uint64"
        }
      ],
      "stateMutability": "view",
      "type": "function"
    },
    {
      "inputs": [],
      "name": "numIssuedForNormalUser",
      "outputs": [
        {
          "internalType": "uint256",
          "name": "",
          "type": "uint256"
        }
      ],
      "stateMutability": "view",
      "type": "function"
    },
    {
      "inputs": [],
      "name": "owner",
      "outputs": [
        {
          "internalType": "address",
          "name": "",
          "type": "address"
        }
      ],
      "stateMutability": "view",
      "type": "function"
    },
    {
      "inputs": [
        {
          "internalType": "uint256",
          "name": "index",
          "type": "uint256"
        }
      ],
      "name": "payee",
      "outputs": [
        {
          "internalType": "address",
          "name": "",
          "type": "address"
        }
      ],
      "stateMutability": "view",
      "type": "function"
    },
    {
      "inputs": [
        {
          "internalType": "address",
          "name": "",
          "type": "address"
        }
      ],
      "name": "perAddressMPs",
      "outputs": [
        {
          "internalType": "uint8",
          "name": "",
          "type": "uint8"
        }
      ],
      "stateMutability": "view",
      "type": "function"
    },
    {
      "inputs": [],
      "name": "presalePRT",
      "outputs": [
        {
          "internalType": "uint8",
          "name": "",
          "type": "uint8"
        }
      ],
      "stateMutability": "view",
      "type": "function"
    },
    {
      "inputs": [
        {
          "internalType": "uint256",
          "name": "",
          "type": "uint256"
        }
      ],
      "name": "prtPerAddress",
      "outputs": [
        {
          "internalType": "address",
          "name": "",
          "type": "address"
        }
      ],
      "stateMutability": "view",
      "type": "function"
    },
    {
      "inputs": [],
      "name": "qntmintmpforairdrop",
      "outputs": [
        {
          "internalType": "uint256",
          "name": "",
          "type": "uint256"
        }
      ],
      "stateMutability": "view",
      "type": "function"
    },
    {
      "inputs": [],
      "name": "qntmintmpforinternalteam",
      "outputs": [
        {
          "internalType": "uint256",
          "name": "",
          "type": "uint256"
        }
      ],
      "stateMutability": "view",
      "type": "function"
    },
    {
      "inputs": [],
      "name": "qntmintmpfornormaluser",
      "outputs": [
        {
          "internalType": "uint256",
          "name": "",
          "type": "uint256"
        }
      ],
      "stateMutability": "view",
      "type": "function"
    },
    {
      "inputs": [],
      "name": "qntmintnonmpforairdrop",
      "outputs": [
        {
          "internalType": "uint256",
          "name": "",
          "type": "uint256"
        }
      ],
      "stateMutability": "view",
      "type": "function"
    },
    {
      "inputs": [],
      "name": "qntmintnonmpforinternalteam",
      "outputs": [
        {
          "internalType": "uint256",
          "name": "",
          "type": "uint256"
        }
      ],
      "stateMutability": "view",
      "type": "function"
    },
    {
      "inputs": [],
      "name": "qntmintnonmpfornormaluser",
      "outputs": [
        {
          "internalType": "uint256",
          "name": "",
          "type": "uint256"
        }
      ],
      "stateMutability": "view",
      "type": "function"
    },
    {
      "inputs": [
        {
          "internalType": "address",
          "name": "account",
          "type": "address"
        }
      ],
      "name": "releasable",
      "outputs": [
        {
          "internalType": "uint256",
          "name": "",
          "type": "uint256"
        }
      ],
      "stateMutability": "view",
      "type": "function"
    },
    {
      "inputs": [
        {
          "internalType": "contract IERC20",
          "name": "token",
          "type": "address"
        },
        {
          "internalType": "address",
          "name": "account",
          "type": "address"
        }
      ],
      "name": "releasable",
      "outputs": [
        {
          "internalType": "uint256",
          "name": "",
          "type": "uint256"
        }
      ],
      "stateMutability": "view",
      "type": "function"
    },
    {
      "inputs": [
        {
          "internalType": "address payable",
          "name": "account",
          "type": "address"
        }
      ],
      "name": "release",
      "outputs": [],
      "stateMutability": "nonpayable",
      "type": "function"
    },
    {
      "inputs": [
        {
          "internalType": "contract IERC20",
          "name": "token",
          "type": "address"
        },
        {
          "internalType": "address",
          "name": "account",
          "type": "address"
        }
      ],
      "name": "release",
      "outputs": [],
      "stateMutability": "nonpayable",
      "type": "function"
    },
    {
      "inputs": [
        {
          "internalType": "contract IERC20",
          "name": "token",
          "type": "address"
        },
        {
          "internalType": "address",
          "name": "account",
          "type": "address"
        }
      ],
      "name": "released",
      "outputs": [
        {
          "internalType": "uint256",
          "name": "",
          "type": "uint256"
        }
      ],
      "stateMutability": "view",
      "type": "function"
    },
    {
      "inputs": [
        {
          "internalType": "address",
          "name": "account",
          "type": "address"
        }
      ],
      "name": "released",
      "outputs": [
        {
          "internalType": "uint256",
          "name": "",
          "type": "uint256"
        }
      ],
      "stateMutability": "view",
      "type": "function"
    },
    {
      "inputs": [],
      "name": "renounceOwnership",
      "outputs": [],
      "stateMutability": "nonpayable",
      "type": "function"
    },
    {
      "inputs": [],
      "name": "revealed",
      "outputs": [
        {
          "internalType": "bool",
          "name": "",
          "type": "bool"
        }
      ],
      "stateMutability": "view",
      "type": "function"
    },
    {
      "inputs": [
        {
          "internalType": "address",
          "name": "from",
          "type": "address"
        },
        {
          "internalType": "address",
          "name": "to",
          "type": "address"
        },
        {
          "internalType": "uint256[]",
          "name": "ids",
          "type": "uint256[]"
        },
        {
          "internalType": "uint256[]",
          "name": "amounts",
          "type": "uint256[]"
        },
        {
          "internalType": "bytes",
          "name": "data",
          "type": "bytes"
        }
      ],
      "name": "safeBatchTransferFrom",
      "outputs": [],
      "stateMutability": "nonpayable",
      "type": "function"
    },
    {
      "inputs": [
        {
          "internalType": "address",
          "name": "from",
          "type": "address"
        },
        {
          "internalType": "address",
          "name": "to",
          "type": "address"
        },
        {
          "internalType": "uint256",
          "name": "id",
          "type": "uint256"
        },
        {
          "internalType": "uint256",
          "name": "amount",
          "type": "uint256"
        },
        {
          "internalType": "bytes",
          "name": "data",
          "type": "bytes"
        }
      ],
      "name": "safeTransferFrom",
      "outputs": [],
      "stateMutability": "nonpayable",
      "type": "function"
    },
    {
      "inputs": [
        {
          "internalType": "uint256",
          "name": "tokenId",
          "type": "uint256"
        },
        {
          "internalType": "address",
          "name": "addr",
          "type": "address"
        }
      ],
      "name": "safeTransferFromByOwner",
      "outputs": [],
      "stateMutability": "nonpayable",
      "type": "function"
    },
    {
      "inputs": [],
      "name": "sendMPAirdrop",
      "outputs": [],
      "stateMutability": "nonpayable",
      "type": "function"
    },
    {
      "inputs": [],
      "name": "sendMPAllDoneForAirdrop",
      "outputs": [
        {
          "internalType": "bool",
          "name": "",
          "type": "bool"
        }
      ],
      "stateMutability": "view",
      "type": "function"
    },
    {
      "inputs": [],
      "name": "sendMPAllDoneForInternalTeam",
      "outputs": [
        {
          "internalType": "bool",
          "name": "",
          "type": "bool"
        }
      ],
      "stateMutability": "view",
      "type": "function"
    },
    {
      "inputs": [],
      "name": "sendMPAllDoneForNormalUsers",
      "outputs": [
        {
          "internalType": "bool",
          "name": "",
          "type": "bool"
        }
      ],
      "stateMutability": "view",
      "type": "function"
    },
    {
      "inputs": [],
      "name": "sendMPInternalTeam",
      "outputs": [],
      "stateMutability": "nonpayable",
      "type": "function"
    },
    {
      "inputs": [],
      "name": "sendMPNormalUsers",
      "outputs": [],
      "stateMutability": "nonpayable",
      "type": "function"
    },
    {
      "inputs": [
        {
          "internalType": "address",
          "name": "operator",
          "type": "address"
        },
        {
          "internalType": "bool",
          "name": "approved",
          "type": "bool"
        }
      ],
      "name": "setApprovalForAll",
      "outputs": [],
      "stateMutability": "nonpayable",
      "type": "function"
    },
    {
      "inputs": [
        {
          "internalType": "uint256",
          "name": "price",
          "type": "uint256"
        }
      ],
      "name": "setPRICE_PRT",
      "outputs": [],
      "stateMutability": "nonpayable",
      "type": "function"
    },
    {
      "inputs": [
        {
          "internalType": "uint256",
          "name": "price",
          "type": "uint256"
        }
      ],
      "name": "setPRICE_PRT_AIRDROP",
      "outputs": [],
      "stateMutability": "nonpayable",
      "type": "function"
    },
    {
      "inputs": [
        {
          "internalType": "uint256",
          "name": "price",
          "type": "uint256"
        }
      ],
      "name": "setPRICE_PRT_INTERNALTEAM",
      "outputs": [],
      "stateMutability": "nonpayable",
      "type": "function"
    },
    {
      "inputs": [
        {
          "internalType": "uint8",
          "name": "num",
          "type": "uint8"
        }
      ],
      "name": "setPreSalePRT",
      "outputs": [],
      "stateMutability": "nonpayable",
      "type": "function"
    },
    {
      "inputs": [
        {
          "internalType": "address",
          "name": "account",
          "type": "address"
        }
      ],
      "name": "shares",
      "outputs": [
        {
          "internalType": "uint256",
          "name": "",
          "type": "uint256"
        }
      ],
      "stateMutability": "view",
      "type": "function"
    },
    {
      "inputs": [
        {
          "internalType": "bytes4",
          "name": "interfaceId",
          "type": "bytes4"
        }
      ],
      "name": "supportsInterface",
      "outputs": [
        {
          "internalType": "bool",
          "name": "",
          "type": "bool"
        }
      ],
      "stateMutability": "view",
      "type": "function"
    },
    {
      "inputs": [],
      "name": "symbol",
      "outputs": [
        {
          "internalType": "string",
          "name": "",
          "type": "string"
        }
      ],
      "stateMutability": "view",
      "type": "function"
    },
    {
      "inputs": [],
      "name": "toggleMintAirdropMPIsOpen",
      "outputs": [],
      "stateMutability": "nonpayable",
      "type": "function"
    },
    {
      "inputs": [],
      "name": "toggleMintInternalTeamMPIsOpen",
      "outputs": [],
      "stateMutability": "nonpayable",
      "type": "function"
    },
    {
      "inputs": [],
      "name": "toggleMintMPIsOpen",
      "outputs": [],
      "stateMutability": "nonpayable",
      "type": "function"
    },
    {
      "inputs": [],
      "name": "toggleReveal",
      "outputs": [],
      "stateMutability": "nonpayable",
      "type": "function"
    },
    {
      "inputs": [
        {
          "internalType": "contract IERC20",
          "name": "token",
          "type": "address"
        }
      ],
      "name": "totalReleased",
      "outputs": [
        {
          "internalType": "uint256",
          "name": "",
          "type": "uint256"
        }
      ],
      "stateMutability": "view",
      "type": "function"
    },
    {
      "inputs": [],
      "name": "totalReleased",
      "outputs": [
        {
          "internalType": "uint256",
          "name": "",
          "type": "uint256"
        }
      ],
      "stateMutability": "view",
      "type": "function"
    },
    {
      "inputs": [],
      "name": "totalShares",
      "outputs": [
        {
          "internalType": "uint256",
          "name": "",
          "type": "uint256"
        }
      ],
      "stateMutability": "view",
      "type": "function"
    },
    {
      "inputs": [
        {
          "internalType": "uint256",
          "name": "id",
          "type": "uint256"
        }
      ],
      "name": "totalSupply",
      "outputs": [
        {
          "internalType": "uint256",
          "name": "",
          "type": "uint256"
        }
      ],
      "stateMutability": "view",
      "type": "function"
    },
    {
      "inputs": [
        {
          "internalType": "uint256",
          "name": "id",
          "type": "uint256"
        }
      ],
      "name": "totalSupplyCustom",
      "outputs": [
        {
          "internalType": "uint256",
          "name": "",
          "type": "uint256"
        }
      ],
      "stateMutability": "view",
      "type": "function"
    },
    {
      "inputs": [
        {
          "internalType": "address",
          "name": "newOwner",
          "type": "address"
        }
      ],
      "name": "transferOwnership",
      "outputs": [],
      "stateMutability": "nonpayable",
      "type": "function"
    },
    {
      "inputs": [
        {
          "internalType": "uint256",
          "name": "",
          "type": "uint256"
        }
      ],
      "name": "uri",
      "outputs": [
        {
          "internalType": "string",
          "name": "",
          "type": "string"
        }
      ],
      "stateMutability": "view",
      "type": "function"
    },
    {
      "inputs": [
        {
          "internalType": "address",
          "name": "",
          "type": "address"
        }
      ],
      "name": "userNONMPs",
      "outputs": [
        {
          "internalType": "uint8",
          "name": "",
          "type": "uint8"
        }
      ],
      "stateMutability": "view",
      "type": "function"
    },
    {
      "inputs": [],
      "name": "withdraw",
      "outputs": [],
      "stateMutability": "payable",
      "type": "function"
    },
    {
      "inputs": [],
      "name": "xrand",
      "outputs": [
        {
          "internalType": "uint8",
          "name": "",
          "type": "uint8"
        }
      ],
      "stateMutability": "view",
      "type": "function"
    },
    {
      "stateMutability": "payable",
      "type": "receive"
    }
  ],
  "bytecode": "0x60c0604052601060809081526f564950534c414e442047454e4553495360801b60a052600d90620000319082620007e4565b50604080518082019091526004815263159414d360e21b6020820152600e906200005c9082620007e4565b506011805460ff1990811690915560006013819055601481905560158190556016805483166012179055601a80546001600160401b03191660041790556701b4fbd92b5f8000601f5560208190556021819055602381905560248190556025819055602781905560288190556029819055602b805463ffffffff19169055602c819055602d819055602e819055602f805462ffffff1916905560308190556031556032805490911690553480156200011357600080fd5b506040516200662c3803806200662c833981016040819052620001369162000a09565b838383620001448162000486565b50620001503362000498565b8051825114620001c25760405162461bcd60e51b815260206004820152603260248201527f5061796d656e7453706c69747465723a2070617965657320616e6420736861726044820152710cae640d8cadccee8d040dad2e6dac2e8c6d60731b60648201526084015b60405180910390fd5b6000825111620002155760405162461bcd60e51b815260206004820152601a60248201527f5061796d656e7453706c69747465723a206e6f207061796565730000000000006044820152606401620001b9565b60005b825181101562000281576200026c8382815181106200023b576200023b62000b36565b602002602001015183838151811062000258576200025862000b36565b6020026020010151620004ea60201b60201c565b80620002788162000b62565b91505062000218565b50506001600c5550600f620002978382620007e4565b506010620002a68282620007e4565b50620002b66064614e2062000b7e565b6001600160401b03811115620002d057620002d06200073f565b604051908082528060200260200182016040528015620002fa578160200160208202803683370190505b5080516200031191601b91602090910190620006d8565b506002601b6000815481106200032b576200032b62000b36565b60009182526020909120015562000348612710620222e062000b7e565b6001600160401b038111156200036257620003626200073f565b6040519080825280602002602001820160405280156200038c578160200160208202803683370190505b508051620003a391602291602090910190620006d8565b50620003b46103e8614e2062000b7e565b6001600160401b03811115620003ce57620003ce6200073f565b604051908082528060200260200182016040528015620003f8578160200160208202803683370190505b5080516200040f91602691602090910190620006d8565b50620004206104576122b862000b7e565b6001600160401b038111156200043a576200043a6200073f565b60405190808252806020026020018201604052801562000464578160200160208202803683370190505b5080516200047b91602a91602090910190620006d8565b505050505062000bbd565b6002620004948282620007e4565b5050565b600480546001600160a01b038381166001600160a01b0319831681179093556040519116919082907f8be0079c531659141344cd1fd0a4f28419497f9722a3daafe3b4186f6b6457e090600090a35050565b6001600160a01b038216620005575760405162461bcd60e51b815260206004820152602c60248201527f5061796d656e7453706c69747465723a206163636f756e74206973207468652060448201526b7a65726f206164647265737360a01b6064820152608401620001b9565b60008111620005a95760405162461bcd60e51b815260206004820152601d60248201527f5061796d656e7453706c69747465723a207368617265732061726520300000006044820152606401620001b9565b6001600160a01b03821660009081526007602052604090205415620006255760405162461bcd60e51b815260206004820152602b60248201527f5061796d656e7453706c69747465723a206163636f756e7420616c726561647960448201526a206861732073686172657360a81b6064820152608401620001b9565b60098054600181019091557f6e1540171b6c0c960b71a7020d9f60077f6af931a8bbf590da0223dacf75c7af0180546001600160a01b0319166001600160a01b03841690811790915560009081526007602052604090208190556005546200068f90829062000ba1565b600555604080516001600160a01b0384168152602081018390527f40c340f65e17194d14ddddb073d3c9f888e3cb52b5aae0c6c7706b4fbc905fac910160405180910390a15050565b82805482825590600052602060002090810192821562000716579160200282015b8281111562000716578251825591602001919060010190620006f9565b506200072492915062000728565b5090565b5b8082111562000724576000815560010162000729565b634e487b7160e01b600052604160045260246000fd5b600181811c908216806200076a57607f821691505b6020821081036200078b57634e487b7160e01b600052602260045260246000fd5b50919050565b601f821115620007df57600081815260208120601f850160051c81016020861015620007ba5750805b601f850160051c820191505b81811015620007db57828155600101620007c6565b5050505b505050565b81516001600160401b038111156200080057620008006200073f565b620008188162000811845462000755565b8462000791565b602080601f831160018114620008505760008415620008375750858301515b600019600386901b1c1916600185901b178555620007db565b600085815260208120601f198616915b82811015620008815788860151825594840194600190910190840162000860565b5085821015620008a05787850151600019600388901b60f8161c191681555b5050505050600190811b01905550565b604051601f8201601f191681016001600160401b0381118282101715620008db57620008db6200073f565b604052919050565b60006001600160401b03821115620008ff57620008ff6200073f565b5060051b60200190565b600082601f8301126200091b57600080fd5b81516020620009346200092e83620008e3565b620008b0565b82815260059290921b840181019181810190868411156200095457600080fd5b8286015b8481101562000971578051835291830191830162000958565b509695505050505050565b600082601f8301126200098e57600080fd5b81516001600160401b03811115620009aa57620009aa6200073f565b6020620009c0601f8301601f19168201620008b0565b8281528582848701011115620009d557600080fd5b60005b83811015620009f5578581018301518282018401528201620009d8565b506000928101909101919091529392505050565b6000806000806080858703121562000a2057600080fd5b84516001600160401b038082111562000a3857600080fd5b818701915087601f83011262000a4d57600080fd5b8151602062000a606200092e83620008e3565b82815260059290921b8401810191818101908b84111562000a8057600080fd5b948201945b8386101562000ab75785516001600160a01b038116811462000aa75760008081fd5b8252948201949082019062000a85565b918a015191985090935050508082111562000ad157600080fd5b62000adf8883890162000909565b9450604087015191508082111562000af657600080fd5b62000b04888389016200097c565b9350606087015191508082111562000b1b57600080fd5b5062000b2a878288016200097c565b91505092959194509250565b634e487b7160e01b600052603260045260246000fd5b634e487b7160e01b600052601160045260246000fd5b60006001820162000b775762000b7762000b4c565b5060010190565b60008262000b9c57634e487b7160e01b600052601260045260246000fd5b500490565b8082018082111562000bb75762000bb762000b4c565b92915050565b615a5f8062000bcd6000396000f3fe6080604052600436106103d25760003560e01c806201d05b14610417578062fdd58e14610440578063015532081461046057806301ffc9a71461049057806304bf41d8146104b057806306fdde03146104c65780630e89341c146104e8578063108241181461050857806310dd92471461052a57806311e6fb631461054057806312deb603146105565780631902aa4a1461059857806319165587146105d057806320c6974e146105f05780632a37e4af1461060a5780632a944b19146106215780632d187ef7146106415780632d23bf5a146106565780632eb2c2d61461066c5780632fcf9d4b1461068c5780632fef4579146106a2578063380b5f75146106b85780633919e5ba146106cd578063395dcb64146106e05780633a98ef39146106f65780633ccfd60b1461070b578063406072a914610713578063438d4bc11461073357806344c3c7b91461074957806348b75044146107605780634a098124146107805780634e1273f4146107965780634f558e79146107c357806351830227146107e35780635308ca78146107fd5780635b8ad429146108135780635de701f9146108285780636bfcf578146108495780636c5959e31461085e5780636e27b97214610874578063715018a61461088b57806375d909ef146108a05780637862ed64146108b65780637942ec33146108d65780637a1d48f4146108f65780637d46d870146109165780637de1c2be1461092b57806382a31693146109455780638913fbe01461095b5780638b7afe2e146109715780638b83209b146109865780638da5cb5b146109b357806394a271fd146109c857806395d89b41146109d057806397c662701461068c5780639852595c146109e55780639daf187214610a055780639e26975714610a1a578063a22cb46514610a31578063a3f8eace14610a51578063a57674e714610a71578063a77ebad214610a86578063a882fea414610aa6578063b1feb18d14610abb578063b247796414610ad5578063b861639414610af4578063bd85b03914610b0a578063c45ac05014610b2a578063c6358ecd14610b4a578063c7a3b01314610b6a578063c82190c414610b80578063c9b4f6ef146106b8578063cd0b99cd1461068c578063ce7c2ac214610b97578063cea8f9c014610bcd578063cffbd26f14610bed578063d79779b214610c23578063da8ab07114610c43578063db9a850914610c58578063defb1d4514610c6e578063df8c6cd314610c8d578063e33b7de314610cad578063e67ff55214610cc2578063e985e9c514610cd9578063f242432a14610d22578063f2fde38b14610d42578063fe47d7f214610d6257600080fd5b36610412577f6ef95f06320e7a25a04a175ca677b7052bdd97131872c2192525a629f51be7703334604051610408929190614c22565b60405180910390a1005b600080fd5b34801561042357600080fd5b5061042d60205481565b6040519081526020015b60405180910390f35b34801561044c57600080fd5b5061042d61045b366004614c50565b610d92565b34801561046c57600080fd5b50602b546104809062010000900460ff1681565b6040519015158152602001610437565b34801561049c57600080fd5b506104806104ab366004614c92565b610e2b565b3480156104bc57600080fd5b5061042d614e2181565b3480156104d257600080fd5b506104db610e7b565b6040516104379190614cff565b3480156104f457600080fd5b506104db610503366004614d12565b610f09565b34801561051457600080fd5b50610528610523366004614d41565b610fd5565b005b34801561053657600080fd5b5061042d60145481565b34801561054c57600080fd5b5061042d60135481565b34801561056257600080fd5b50610586610571366004614d5c565b601c6020526000908152604090205460ff1681565b60405160ff9091168152602001610437565b3480156105a457600080fd5b50601a546105b8906001600160401b031681565b6040516001600160401b039091168152602001610437565b3480156105dc57600080fd5b506105286105eb366004614d5c565b611032565b3480156105fc57600080fd5b506016546105869060ff1681565b34801561061657600080fd5b5060185461042d9081565b34801561062d57600080fd5b5061052861063c366004614d12565b611110565b34801561064d57600080fd5b50610528611177565b34801561066257600080fd5b5061042d60155481565b34801561067857600080fd5b50610528610687366004614ec2565b61119e565b34801561069857600080fd5b5061042d614e2081565b3480156106ae57600080fd5b5061042d60215481565b3480156106c457600080fd5b50610586606481565b6105286106db366004614f6f565b6111ea565b3480156106ec57600080fd5b5061042d6103e881565b34801561070257600080fd5b5060055461042d565b61052861134e565b34801561071f57600080fd5b5061042d61072e366004614fb4565b611385565b34801561073f57600080fd5b5061042d60275481565b34801561075557600080fd5b5061042d620222e081565b34801561076c57600080fd5b5061052861077b366004614fb4565b6113b0565b34801561078c57600080fd5b5061042d60245481565b3480156107a257600080fd5b506107b66107b1366004614fed565b6114be565b60405161043791906150f4565b3480156107cf57600080fd5b506104806107de366004614d12565b6115e7565b3480156107ef57600080fd5b506011546104809060ff1681565b34801561080957600080fd5b5061042d61271081565b34801561081f57600080fd5b506105286115fa565b34801561083457600080fd5b50602b54610480906301000000900460ff1681565b34801561085557600080fd5b50610528611616565b34801561086a57600080fd5b5061042d601f5481565b34801561088057600080fd5b5060175461042d9081565b34801561089757600080fd5b5061052861163f565b3480156108ac57600080fd5b5061042d60235481565b3480156108c257600080fd5b506105286108d1366004614d12565b611653565b3480156108e257600080fd5b5061042d6108f1366004614d12565b611660565b34801561090257600080fd5b50610528610911366004614d12565b61166b565b34801561092257600080fd5b50610528611678565b34801561093757600080fd5b50602b546105869060ff1681565b34801561095157600080fd5b5061042d6122b881565b34801561096757600080fd5b5061042d60295481565b34801561097d57600080fd5b5061042d611c65565b34801561099257600080fd5b506109a66109a1366004614d12565b611c75565b6040516104379190615107565b3480156109bf57600080fd5b506109a6611ca5565b61042d611cb4565b3480156109dc57600080fd5b506104db611cc3565b3480156109f157600080fd5b5061042d610a00366004614d5c565b611cd0565b348015610a1157600080fd5b50610586602381565b348015610a2657600080fd5b5060195461042d9081565b348015610a3d57600080fd5b50610528610a4c366004615129565b611ceb565b348015610a5d57600080fd5b5061042d610a6c366004614d5c565b611cf6565b348015610a7d57600080fd5b50610528611d28565b348015610a9257600080fd5b50610528610aa1366004615157565b612273565b348015610ab257600080fd5b506105286122db565b348015610ac757600080fd5b50602f546104809060ff1681565b348015610ae157600080fd5b50602f5461048090610100900460ff1681565b348015610b0057600080fd5b5061042d60255481565b348015610b1657600080fd5b5061042d610b25366004614d12565b6128c0565b348015610b3657600080fd5b5061042d610b45366004614fb4565b6128d2565b348015610b5657600080fd5b50610528610b65366004614d12565b61296e565b348015610b7657600080fd5b5061042d61045781565b348015610b8c57600080fd5b5061042d6202710181565b348015610ba357600080fd5b5061042d610bb2366004614d5c565b6001600160a01b031660009081526007602052604090205490565b348015610bd957600080fd5b50602f546104809062010000900460ff1681565b348015610bf957600080fd5b506109a6610c08366004614d12565b601d602052600090815260409020546001600160a01b031681565b348015610c2f57600080fd5b5061042d610c3e366004614d5c565b61297b565b348015610c4f57600080fd5b50610528612996565b348015610c6457600080fd5b5061042d60285481565b348015610c7a57600080fd5b50602b5461048090610100900460ff1681565b348015610c9957600080fd5b5061042d610ca8366004614d12565b6129bb565b348015610cb957600080fd5b5060065461042d565b348015610cce57600080fd5b5061042d6202bf2181565b348015610ce557600080fd5b50610480610cf4366004614fb4565b6001600160a01b03918216600090815260016020908152604080832093909416825291909152205460ff1690565b348015610d2e57600080fd5b50610528610d3d36600461517c565b6129dc565b348015610d4e57600080fd5b50610528610d5d366004614d5c565b612a21565b348015610d6e57600080fd5b50610586610d7d366004614d5c565b601e6020526000908152604090205460ff1681565b60006001600160a01b038316610e025760405162461bcd60e51b815260206004820152602a60248201527f455243313135353a2061646472657373207a65726f206973206e6f742061207660448201526930b634b21037bbb732b960b11b60648201526084015b60405180910390fd5b506000818152602081815260408083206001600160a01b03861684529091529020545b92915050565b60006001600160e01b03198216636cdb3d1360e11b1480610e5c57506001600160e01b031982166303a24d0760e21b145b80610e2557506301ffc9a760e01b6001600160e01b0319831614610e25565b600d8054610e88906151e4565b80601f0160208091040260200160405190810160405280929190818152602001828054610eb4906151e4565b8015610f015780601f10610ed657610100808354040283529160200191610f01565b820191906000526020600020905b815481529060010190602001808311610ee457829003601f168201915b505050505081565b60115460609060ff161515600003610fad57600f8054610f28906151e4565b80601f0160208091040260200160405190810160405280929190818152602001828054610f54906151e4565b8015610fa15780601f10610f7657610100808354040283529160200191610fa1565b820191906000526020600020905b815481529060010190602001808311610f8457829003601f168201915b50505050509050919050565b6010604051602001610fbf919061521e565b6040516020818303038152906040529050919050565b610fdd612a97565b60ff8116600781111561101b5760405162461bcd60e51b815260206004820152600660248201526532b9392f991960d11b6044820152606401610df9565b50602b805460ff191660ff92909216919091179055565b6001600160a01b0381166000908152600760205260409020546110675760405162461bcd60e51b8152600401610df9906152dd565b600061107282611cf6565b9050806000036110945760405162461bcd60e51b8152600401610df990615323565b80600660008282546110a69190615384565b90915550506001600160a01b03821660009081526008602052604090208054820190556110d38282612af6565b7fdf20fd1e76bc69d672e4814fafb2c449bba3a5369d8359adf9e05e6fde87b0568282604051611104929190614c22565b60405180910390a15050565b611118612a97565b80611122816128c0565b156111575760405162461bcd60e51b81526020600482015260056024820152646572725f3160d81b6044820152606401610df9565b6111733383600160405180602001604052806000815250612c0c565b5050565b61117f612a97565b602b805462ff0000198116620100009182900460ff1615909102179055565b6001600160a01b0385163314806111ba57506111ba8533610cf4565b6111d65760405162461bcd60e51b8152600401610df990615397565b6111e38585858585612ce3565b5050505050565b82336001600160a01b0382161461122b5760405162461bcd60e51b8152602060048201526005602482015264195c9c97cd60da1b6044820152606401610df9565b33321461124a5760405162461bcd60e51b8152600401610df9906153e5565b602b5460ff166000036112885760405162461bcd60e51b8152602060048201526006602482015265195c9c97cc4d60d21b6044820152606401610df9565b611290612e7b565b60008360ff16116112cc5760405162461bcd60e51b81526020600482015260066024820152656572725f313560d01b6044820152606401610df9565b336113025760405162461bcd60e51b815260206004820152600660248201526532b9392f989b60d11b6044820152606401610df9565b8160ff166001036113165761131683612ed4565b8160ff1660020361132a5761132a836133a5565b8160ff1660040361133e5761133e836137fa565b6113486001600c55565b50505050565b611356612a97565b60405133904780156108fc02916000818181858888f19350505050158015611382573d6000803e3d6000fd5b50565b6001600160a01b039182166000908152600b6020908152604080832093909416825291909152205490565b6001600160a01b0381166000908152600760205260409020546113e55760405162461bcd60e51b8152600401610df9906152dd565b60006113f183836128d2565b9050806000036114135760405162461bcd60e51b8152600401610df990615323565b6001600160a01b0383166000908152600a60205260408120805483929061143b908490615384565b90915550506001600160a01b038084166000908152600b60209081526040808320938616835292905220805482019055611476838383613d1c565b826001600160a01b03167f3be5b7a71e84ed12875d241991c70855ac5817d847039e17a9d895c1ceb0f18a83836040516114b1929190614c22565b60405180910390a2505050565b606081518351146115235760405162461bcd60e51b815260206004820152602960248201527f455243313135353a206163636f756e747320616e6420696473206c656e677468604482015268040dad2e6dac2e8c6d60bb1b6064820152608401610df9565b600083516001600160401b0381111561153e5761153e614d79565b604051908082528060200260200182016040528015611567578160200160208202803683370190505b50905060005b84518110156115df576115b285828151811061158b5761158b615404565b60200260200101518583815181106115a5576115a5615404565b6020026020010151610d92565b8282815181106115c4576115c4615404565b60209081029190910101526115d88161541a565b905061156d565b509392505050565b6000806115f3836128c0565b1192915050565b611602612a97565b6011805460ff19811660ff90911615179055565b61161e612a97565b602b805463ff00000019811663010000009182900460ff1615909102179055565b611647612a97565b6116516000613d72565b565b61165b612a97565b602355565b6000610e25826128c0565b611673612a97565b601f55565b3332146116975760405162461bcd60e51b8152600401610df9906153e5565b61169f612a97565b602b546301000000900460ff166116e05760405162461bcd60e51b815260206004820152600560248201526432b9392f9b60d91b6044820152606401610df9565b602f5460ff1615156001146117205760405162461bcd60e51b815260206004820152600660248201526532b9392f989960d11b6044820152606401610df9565b602f54610100900460ff16156117615760405162461bcd60e51b81526020600482015260066024820152656572725f313360d01b6044820152606401610df9565b61176f601980546001019055565b600061177a60195490565b60165490915060009060ff16611795614e20620222e0615384565b6117a0906001615384565b6117aa9190615384565b62ffffff16603054106118025760165460ff166117cc614e20620222e0615384565b6117d7906001615384565b6117e19190615384565b6030546117ee9190615433565b6032805460ff191660011790559050611846565b60305460165460ff1661181a614e20620222e0615384565b611825906001615384565b61182f9190615384565b6118399190615433565b6032805460ff1916905590505b602e545b611856836103e8615456565b811015611c5157603254600090819060ff166001036118dd5761271061187f84620293b8615456565b6118899190615483565b60165462ffffff919091169060ff16614e206118a88762027100615497565b62ffffff166118b79190615384565b6118c2906001615384565b6118cc9190615384565b6118d69190615384565b9050611947565b6127106118ed84620293b8615456565b6118f79190615483565b60165462ffffff919091169060ff16614e206119168762027100615433565b62ffffff166119259190615384565b611930906001615384565b61193a9190615384565b6119449190615384565b90505b60006122b8614e2061195c620222e082615384565b6119669190615384565b6119709190615384565b60325490915060ff166001036119f95761271061199085620293b8615456565b61199b906001615384565b6119a59190615483565b60165462ffffff919091169060ff16614e206119c48862027100615497565b62ffffff166119d39190615384565b6119de906001615384565b6119e89190615384565b6119f29190615384565b9250611a6e565b612710611a0985620293b8615456565b611a14906001615384565b611a1e9190615483565b60165462ffffff919091169060ff16614e20611a3d8862027100615433565b62ffffff16611a4c9190615384565b611a57906001615384565b611a619190615384565b611a6b9190615384565b92505b808362ffffff161180611a855750808262ffffff16115b602f805461ff0019166101009215158302179081905560405160ff929091049190911615158152600080516020615a0a8339815191529060200160405180910390a1602f54610100900460ff1615611adf57505050611c51565b6016546000805160206159aa833981519152908390611b019060ff16846154b3565b604051611b0f9291906154c6565b60405180910390a16000611b278362ffffff16613dc4565b90506001600160a01b03811615611c0c576000611b42613e23565b9050611b603382600160405180602001604052806000815250612c0c565b611b7d3383836001604051806020016040528060008152506129dc565b600160156000828254611b909190615384565b90915550506001600160a01b0382166000908152601c60205260408120805460019290611bc190849060ff166154db565b92506101000a81548160ff021916908360ff160217905550816001600160a01b031660008051602061598a83398151915282604051611c0291815260200190565b60405180910390a2505b602f5460405161010090910460ff1615158152600080516020615a0a8339815191529060200160405180910390a1505050508080611c499061541a565b91505061184a565b50611c5e826103e8615456565b602e555050565b6000611c6f612a97565b50475b90565b600060098281548110611c8a57611c8a615404565b6000918252602090912001546001600160a01b031692915050565b6004546001600160a01b031690565b6000611cbe612a97565b503490565b600e8054610e88906151e4565b6001600160a01b031660009081526008602052604090205490565b61117333838361411a565b600080611d0260065490565b611d0c9047615384565b9050611d218382611d1c86611cd0565b6141fa565b9392505050565b333214611d475760405162461bcd60e51b8152600401610df9906153e5565b611d4f612a97565b602b54610100900460ff16611d8e5760405162461bcd60e51b81526020600482015260056024820152646572725f3560d81b6044820152606401610df9565b602f5460ff1615611dc95760405162461bcd60e51b81526020600482015260056024820152646572725f3960d81b6044820152606401610df9565b60165460ff16601203611df557611de06011614238565b6016805460ff191660ff929092169190911790555b611e03601780546001019055565b6000611e0e60175490565b602c549091506000905b611e24836103e8615456565b81101561225f576000612710611e3d83620293b8615456565b611e479190615483565b60165462ffffff919091169060ff16611e63614e206001615384565b611e6d9190615384565b611e779190615384565b90506000611e8a620222e0614e20615384565b90506000612710611e9e85620293b8615456565b611ea9906001615384565b611eb39190615483565b60165462ffffff919091169060ff16611ecf614e206001615384565b611ed99190615384565b611ee39190615384565b9050818162ffffff161180611efc5750818362ffffff16115b602f805460ff1916911515918217905560405160ff90911615158152600080516020615a0a8339815191529060200160405180910390a1602f5460ff16156120ec5762ffffff811660305560165460009060ff16611f5f614e20620222e0615384565b611f6a906001615384565b611f749190615384565b62ffffff1660305410611fcc5760165460ff16611f96614e20620222e0615384565b611fa1906001615384565b611fab9190615384565b603054611fb89190615433565b6032805460ff191660011790559050612010565b60305460165460ff16611fe4614e20620222e0615384565b611fef906001615384565b611ff99190615384565b6120039190615433565b6032805460ff1916905590505b60325460ff166001036120825761202d61271063bf438041615483565b60165462ffffff919091169060ff16614e2061204c84620222e0615497565b62ffffff1661205b9190615384565b612066906001615384565b6120709190615384565b61207a9190615384565b6031556120e3565b61209261271063bf438041615483565b60165462ffffff919091169060ff16614e206120b184620222e0615433565b62ffffff166120c09190615384565b6120cb906001615384565b6120d59190615384565b6120df9190615384565b6031555b5050505061225f565b6016546000805160206159aa83398151915290849061210e9060ff16856154b3565b60405161211c9291906154c6565b60405180910390a160006121348462ffffff16613dc4565b90506001600160a01b0381161561221957600061214f613e23565b905061216d3382600160405180602001604052806000815250612c0c565b61218a3383836001604051806020016040528060008152506129dc565b60016013600082825461219d9190615384565b90915550506001600160a01b0382166000908152601c602052604081208054600192906121ce90849060ff166154db565b92506101000a81548160ff021916908360ff160217905550816001600160a01b031660008051602061598a8339815191528260405161220f91815260200190565b60405180910390a2505b602f5460405160ff909116151581529395508593600080516020615a0a8339815191529060200160405180910390a15050505080806122579061541a565b915050611e18565b5061226c826103e8615456565b602c555050565b61227b612a97565b81612285816115e7565b6122b95760405162461bcd60e51b815260206004820152600560248201526432b9392f9960d91b6044820152606401610df9565b6122d63383856001604051806020016040528060008152506129dc565b505050565b3332146122fa5760405162461bcd60e51b8152600401610df9906153e5565b612302612a97565b602b5462010000900460ff166123425760405162461bcd60e51b81526020600482015260056024820152646572725f3760d81b6044820152606401610df9565b602f5460ff1615156001146123825760405162461bcd60e51b815260206004820152600660248201526506572725f31360d41b6044820152606401610df9565b602f5462010000900460ff16156123c45760405162461bcd60e51b81526020600482015260066024820152656572725f313160d01b6044820152606401610df9565b6123d2601880546001019055565b60006123dd60185490565b60165490915060009060ff166123f8614e20620222e0615384565b612403906001615384565b61240d9190615384565b62ffffff16603054106124655760165460ff1661242f614e20620222e0615384565b61243a906001615384565b6124449190615384565b6030546124519190615433565b6032805460ff1916600117905590506124a9565b60305460165460ff1661247d614e20620222e0615384565b612488906001615384565b6124929190615384565b61249c9190615433565b6032805460ff1916905590505b602d545b6124b9836103e8615456565b8110156128ac5760325460009060ff1660010361253e576127106124e083620293b8615456565b6124ea9190615483565b60165462ffffff919091169060ff16614e2061250986620222e0615497565b62ffffff166125189190615384565b612523906001615384565b61252d9190615384565b6125379190615384565b90506125a8565b61271061254e83620293b8615456565b6125589190615483565b60165462ffffff919091169060ff16614e2061257786620222e0615433565b62ffffff166125869190615384565b612591906001615384565b61259b9190615384565b6125a59190615384565b90505b6000614e206125ba620222e082615384565b6125c49190615384565b60325490915060009060ff16600103612650576127106125e785620293b8615456565b6125f2906001615384565b6125fc9190615483565b60165462ffffff919091169060ff16614e2061261b88620222e0615497565b62ffffff1661262a9190615384565b612635906001615384565b61263f9190615384565b6126499190615384565b90506126c5565b61271061266085620293b8615456565b61266b906001615384565b6126759190615483565b60165462ffffff919091169060ff16614e2061269488620222e0615433565b62ffffff166126a39190615384565b6126ae906001615384565b6126b89190615384565b6126c29190615384565b90505b818162ffffff1611806126dc5750818362ffffff16115b602f805462ff00001916620100009215158302179081905560405160ff929091049190911615158152600080516020615a0a8339815191529060200160405180910390a1602f5462010000900460ff1615612739575050506128ac565b6016546000805160206159aa83398151915290849061275b9060ff16856154b3565b6040516127699291906154c6565b60405180910390a160006127818462ffffff16613dc4565b90506001600160a01b0381161561286657600061279c613e23565b90506127ba3382600160405180602001604052806000815250612c0c565b6127d73383836001604051806020016040528060008152506129dc565b6001601460008282546127ea9190615384565b90915550506001600160a01b0382166000908152601c6020526040812080546001929061281b90849060ff166154db565b92506101000a81548160ff021916908360ff160217905550816001600160a01b031660008051602061598a8339815191528260405161285c91815260200190565b60405180910390a2505b602f546040516201000090910460ff1615158152600080516020615a0a8339815191529060200160405180910390a15050505080806128a49061541a565b9150506124ad565b506128b9826103e8615456565b602d555050565b60009081526003602052604090205490565b6000806128de8461297b565b6040516370a0823160e01b81526001600160a01b038616906370a082319061290a903090600401615107565b602060405180830381865afa158015612927573d6000803e3d6000fd5b505050506040513d601f19601f8201168201806040525081019061294b91906154f4565b6129559190615384565b90506129668382611d1c8787611385565b949350505050565b612976612a97565b602755565b6001600160a01b03166000908152600a602052604090205490565b61299e612a97565b602b805461ff001981166101009182900460ff1615909102179055565b602a81815481106129cb57600080fd5b600091825260209091200154905081565b6001600160a01b0385163314806129f857506129f88533610cf4565b612a145760405162461bcd60e51b8152600401610df990615397565b6111e38585858585614251565b612a29612a97565b6001600160a01b038116612a8e5760405162461bcd60e51b815260206004820152602660248201527f4f776e61626c653a206e6577206f776e657220697320746865207a65726f206160448201526564647265737360d01b6064820152608401610df9565b61138281613d72565b33612aa0611ca5565b6001600160a01b0316146116515760405162461bcd60e51b815260206004820181905260248201527f4f776e61626c653a2063616c6c6572206973206e6f7420746865206f776e65726044820152606401610df9565b80471015612b465760405162461bcd60e51b815260206004820152601d60248201527f416464726573733a20696e73756666696369656e742062616c616e63650000006044820152606401610df9565b6000826001600160a01b03168260405160006040518083038185875af1925050503d8060008114612b93576040519150601f19603f3d011682016040523d82523d6000602084013e612b98565b606091505b50509050806122d65760405162461bcd60e51b815260206004820152603a60248201527f416464726573733a20756e61626c6520746f2073656e642076616c75652c20726044820152791958da5c1a595b9d081b585e481a185d99481c995d995c9d195960321b6064820152608401610df9565b6001600160a01b038416612c325760405162461bcd60e51b8152600401610df99061550d565b336000612c3e8561436c565b90506000612c4b8561436c565b9050612c5c836000898585896143b7565b6000868152602081815260408083206001600160a01b038b16845290915281208054879290612c8c908490615384565b909155505060408051878152602081018790526001600160a01b03808a16926000929187169160008051602061596a833981519152910160405180910390a4612cda83600089898989614530565b50505050505050565b8151835114612d045760405162461bcd60e51b8152600401610df99061554e565b6001600160a01b038416612d2a5760405162461bcd60e51b8152600401610df990615596565b33612d398187878787876143b7565b60005b8451811015612e1f576000858281518110612d5957612d59615404565b602002602001015190506000858381518110612d7757612d77615404565b602090810291909101810151600084815280835260408082206001600160a01b038e168352909352919091205490915081811015612dc75760405162461bcd60e51b8152600401610df9906155db565b6000838152602081815260408083206001600160a01b038e8116855292528083208585039055908b16825281208054849290612e04908490615384565b9250508190555050505080612e189061541a565b9050612d3c565b50846001600160a01b0316866001600160a01b0316826001600160a01b031660008051602061594a8339815191528787604051612e5d929190615625565b60405180910390a4612e73818787878787614692565b505050505050565b6002600c5403612ecd5760405162461bcd60e51b815260206004820152601f60248201527f5265656e7472616e637947756172643a207265656e7472616e742063616c6c006044820152606401610df9565b6002600c55565b602b54600090600190811614612efc5760405162461bcd60e51b8152600401610df990615653565b336000908152601e6020526040902054606460ff9091161115612f315760405162461bcd60e51b8152600401610df990615673565b602360ff83161115612f555760405162461bcd60e51b8152600401610df990615693565b336000908152601e6020526040902054606490612f7690849060ff166154db565b60ff161115612fa457336000908152601e6020526040902054612f9d9060ff1660646156b3565b9150600190505b600080600080613011866202bf216029546122b8610457602a80548060200260200160405190810160405280929190818152602001828054801561300757602002820191906000526020600020905b815481526020019060010190808311612ff3575b5050505050614754565b93509350935093508560ff168360ff161461302b57600194505b602754349061303e9060ff861690615456565b81101561305d5760405162461bcd60e51b8152600401610df9906156cc565b613065611ca5565b6001600160a01b03166108fc8560ff166027546130829190615456565b6040518115909202916000818181858888f193505050501580156130aa573d6000803e3d6000fd5b5060008460ff166001600160401b038111156130c8576130c8614d79565b6040519080825280602002602001820160405280156130f1578160200160208202803683370190505b50905060008560ff166001600160401b0381111561311157613111614d79565b60405190808252806020026020018201604052801561313a578160200160208202803683370190505b50905060005b8660ff168110156131a4576131558189615384565b83828151811061316757613167615404565b602002602001018181525050600182828151811061318757613187615404565b60209081029190910101528061319c8161541a565b915050613140565b506131c0338383604051806020016040528060008152506148f2565b60005b8660ff168110156132325733601d60008584815181106131e5576131e5615404565b6020026020010151815260200190815260200160002060006101000a8154816001600160a01b0302191690836001600160a01b03160217905550808061322a9061541a565b9150506131c3565b508151336000908152601e6020526040902054613252919060ff16615384565b336000908152601e60205260409020805460ff191660ff9283161790556029869055602a805488831692871690811061328d5761328d615404565b90600052602060002001546132a29190615384565b602a8560ff16815481106132b8576132b8615404565b90600052602060002001819055508560ff16602860008282546132db9190615384565b90915550506028546122b8116132ff57602b805463ff000000191663010000001790555b336000818152601e60205260409020546000805160206159ea8339815191529060ff168461332e60018b6156b3565b60ff168151811061334157613341615404565b602002602001015160405161336592919060ff929092168252602082015260400190565b60405180910390a2871561339a5760405160ff8716815233906000805160206159ca8339815191529060200160405180910390a25b505050505050505050565b602b546000906002908116146133cd5760405162461bcd60e51b8152600401610df990615653565b336000908152601e6020526040902054606460ff90911611156134025760405162461bcd60e51b8152600401610df990615673565b602360ff831611156134265760405162461bcd60e51b8152600401610df990615693565b336000908152601e602052604090205460649061344790849060ff166154db565b60ff16111561347557336000908152601e602052604090205461346e9060ff1660646156b3565b9150600190505b6000806000806134e08662027101602554614e206103e860268054806020026020016040519081016040528092919081815260200182805480156130075760200282019190600052602060002090815481526020019060010190808311612ff3575050505050614754565b93509350935093508560ff168360ff16146134fa57600194505b602354349061350d9060ff861690615456565b81101561352c5760405162461bcd60e51b8152600401610df9906156cc565b613534611ca5565b6001600160a01b03166108fc8560ff166023546135519190615456565b6040518115909202916000818181858888f19350505050158015613579573d6000803e3d6000fd5b5060008460ff166001600160401b0381111561359757613597614d79565b6040519080825280602002602001820160405280156135c0578160200160208202803683370190505b50905060008560ff166001600160401b038111156135e0576135e0614d79565b604051908082528060200260200182016040528015613609578160200160208202803683370190505b50905060005b8660ff16811015613673576136248189615384565b83828151811061363657613636615404565b602002602001018181525050600182828151811061365657613656615404565b60209081029190910101528061366b8161541a565b91505061360f565b5061368f338383604051806020016040528060008152506148f2565b60005b8660ff168110156137015733601d60008584815181106136b4576136b4615404565b6020026020010151815260200190815260200160002060006101000a8154816001600160a01b0302191690836001600160a01b0316021790555080806136f99061541a565b915050613692565b508151336000908152601e6020526040902054613721919060ff16615384565b336000908152601e60205260409020805460ff191660ff92831617905560258690556026805488831692871690811061375c5761375c615404565b90600052602060002001546137719190615384565b60268560ff168154811061378757613787615404565b90600052602060002001819055508560ff16602460008282546137aa9190615384565b9091555050602454614e20116132ff57602b805462ff0000191662010000179055336000818152601e60205260409020546000805160206159ea8339815191529060ff168461332e60018b6156b3565b602b546000906004908116146138225760405162461bcd60e51b8152600401610df990615653565b336000908152601e6020526040902054606460ff90911611156138575760405162461bcd60e51b8152600401610df990615673565b602360ff8316111561387b5760405162461bcd60e51b8152600401610df990615693565b336000908152601e602052604090205460649061389c90849060ff166154db565b60ff1611156138ca57336000908152601e60205260409020546138c39060ff1660646156b3565b9150600190505b60008060008061393586614e21602154620222e061271060228054806020026020016040519081016040528092919081815260200182805480156130075760200282019190600052602060002090815481526020019060010190808311612ff3575050505050614754565b93509350935093508560ff168360ff161461394f57600194505b601f54600560ff8516108015906139695750600a8460ff16105b15613990576005601f54600461397f9190615456565b6139899190615483565b90506139ad565b600a8460ff16106139ad576002601f546139aa9190615483565b90505b346139bb60ff861683615456565b8110156139da5760405162461bcd60e51b8152600401610df9906156cc565b6139e2611ca5565b6001600160a01b03166108fc6139fb60ff881685615456565b6040518115909202916000818181858888f19350505050158015613a23573d6000803e3d6000fd5b5060008560ff166001600160401b03811115613a4157613a41614d79565b604051908082528060200260200182016040528015613a6a578160200160208202803683370190505b50905060008660ff166001600160401b03811115613a8a57613a8a614d79565b604051908082528060200260200182016040528015613ab3578160200160208202803683370190505b50905060005b8760ff16811015613b1d57613ace818a615384565b838281518110613ae057613ae0615404565b6020026020010181815250506001828281518110613b0057613b00615404565b602090810291909101015280613b158161541a565b915050613ab9565b50613b39338383604051806020016040528060008152506148f2565b60005b8760ff16811015613bab5733601d6000858481518110613b5e57613b5e615404565b6020026020010151815260200190815260200160002060006101000a8154816001600160a01b0302191690836001600160a01b031602179055508080613ba39061541a565b915050613b3c565b508151336000908152601e6020526040902054613bcb919060ff16615384565b336000908152601e60205260409020805460ff191660ff928316179055602187905560228054898316928816908110613c0657613c06615404565b9060005260206000200154613c1b9190615384565b60228660ff1681548110613c3157613c31615404565b90600052602060002001819055508660ff1660206000828254613c549190615384565b9091555050602054620222e011613c7557602b805461ff0019166101001790555b336000818152601e60205260409020546000805160206159ea8339815191529060ff1684613ca460018c6156b3565b60ff1681518110613cb757613cb7615404565b6020026020010151604051613cdb92919060ff929092168252602082015260400190565b60405180910390a28815613d105760405160ff8816815233906000805160206159ca8339815191529060200160405180910390a25b50505050505050505050565b6122d68363a9059cbb60e01b8484604051602401613d3b929190614c22565b60408051601f198184030181529190526020810180516001600160e01b03166001600160e01b031990931692909217909152614a3a565b600480546001600160a01b038381166001600160a01b0319831681179093556040519116919082907f8be0079c531659141344cd1fd0a4f28419497f9722a3daafe3b4186f6b6457e090600090a35050565b6000613dcf826115e7565b8015613dfa57506000828152601d6020526040812054613df8906001600160a01b031684610d92565b115b15613e1b57506000908152601d60205260409020546001600160a01b031690565b506000919050565b601a54600090614e206001600160401b0390911610613e6c5760405162461bcd60e51b81526020600482015260056024820152640cae4e4be760db1b6044820152606401610df9565b601b54600090613e7b90614238565b905060005b601b5460ff9081169082161015613f1057601b54613ea090614e20615483565b601b8360ff1681548110613eb657613eb6615404565b906000526020600020015403613ef957601b54613ed5906001906154b3565b8260ff1603613ee75760009150613efe565b81613ef1816156ec565b925050613efe565b613f10565b80613f08816156ec565b915050613e80565b6000613f1e6002606461570b565b60ff16601b8460ff1681548110613f3757613f37615404565b90600052602060002001541015613f9f57613f56606460ff8516615456565b601b8460ff1681548110613f6c57613f6c615404565b90600052602060002001546001613f839190615384565b613f8e906002615456565b613f989190615384565b905061409d565b60ff8316158015613fdd5750613fb76002606461570b565b60ff16601b8460ff1681548110613fd057613fd0615404565b9060005260206000200154145b1561403257601b8360ff1681548110613ff857613ff8615404565b9060005260206000200154600261400f9190615384565b601b8460ff168154811061402557614025615404565b6000918252602090912001555b614040606460ff8516615456565b61404c6002606461570b565b60ff16601b8560ff168154811061406557614065615404565b906000526020600020015461407a91906154b3565b614085906002615456565b614090906001615384565b61409a9190615384565b90505b6001601b8460ff16815481106140b5576140b5615404565b9060005260206000200160008282546140ce9190615384565b9091555050601a80546001600160401b03169060006140ec8361572d565b91906101000a8154816001600160401b0302191690836001600160401b031602179055505080935050505090565b816001600160a01b0316836001600160a01b03160361418d5760405162461bcd60e51b815260206004820152602960248201527f455243313135353a2073657474696e6720617070726f76616c20737461747573604482015268103337b91039b2b63360b91b6064820152608401610df9565b6001600160a01b03838116600081815260016020908152604080832094871680845294825291829020805460ff191686151590811790915591519182527f17307eab39ab6107e8899845ad3d59bd9653f200f220920489ca2b5937696c31910160405180910390a3505050565b6005546001600160a01b038416600090815260076020526040812054909183916142249086615456565b61422e9190615483565b61296691906154b3565b6000816142466001436154b3565b610e2591904061575b565b6001600160a01b0384166142775760405162461bcd60e51b8152600401610df990615596565b3360006142838561436c565b905060006142908561436c565b90506142a08389898585896143b7565b6000868152602081815260408083206001600160a01b038c168452909152902054858110156142e15760405162461bcd60e51b8152600401610df9906155db565b6000878152602081815260408083206001600160a01b038d8116855292528083208985039055908a1682528120805488929061431e908490615384565b909155505060408051888152602081018890526001600160a01b03808b16928c8216929188169160008051602061596a833981519152910160405180910390a461339a848a8a8a8a8a614530565b604080516001808252818301909252606091600091906020808301908036833701905050905082816000815181106143a6576143a6615404565b602090810291909101015292915050565b6001600160a01b03851661443e5760005b835181101561443c578281815181106143e3576143e3615404565b60200260200101516003600086848151811061440157614401615404565b6020026020010151815260200190815260200160002060008282546144269190615384565b9091555061443590508161541a565b90506143c8565b505b6001600160a01b038416612e735760005b8351811015612cda57600084828151811061446c5761446c615404565b60200260200101519050600084838151811061448a5761448a615404565b602002602001015190506000600360008481526020019081526020016000205490508181101561450d5760405162461bcd60e51b815260206004820152602860248201527f455243313135353a206275726e20616d6f756e74206578636565647320746f74604482015267616c537570706c7960c01b6064820152608401610df9565b600092835260036020526040909220910390556145298161541a565b905061444f565b614542846001600160a01b0316614b0c565b15612e735760405163f23a6e6160e01b81526001600160a01b0385169063f23a6e619061457b908990899088908890889060040161576f565b6020604051808303816000875af19250505080156145b6575060408051601f3d908101601f191682019092526145b3918101906157a9565b60015b614662576145c26157c6565b806308c379a0036145fb57506145d66157e1565b806145e157506145fd565b8060405162461bcd60e51b8152600401610df99190614cff565b505b60405162461bcd60e51b815260206004820152603460248201527f455243313135353a207472616e7366657220746f206e6f6e2d455243313135356044820152732932b1b2b4bb32b91034b6b83632b6b2b73a32b960611b6064820152608401610df9565b6001600160e01b0319811663f23a6e6160e01b14612cda5760405162461bcd60e51b8152600401610df99061586a565b6146a4846001600160a01b0316614b0c565b15612e735760405163bc197c8160e01b81526001600160a01b0385169063bc197c81906146dd90899089908890889088906004016158b2565b6020604051808303816000875af1925050508015614718575060408051601f3d908101601f19168201909252614715918101906157a9565b60015b614724576145c26157c6565b6001600160e01b0319811663bc197c8160e01b14612cda5760405162461bcd60e51b8152600401610df99061586a565b6000806000808688106147925760405162461bcd60e51b815260206004820152600660248201526506572725f32360d41b6044820152606401610df9565b60006147a66147a1888a615483565b614238565b905060005b6147b5888a615483565b8160ff16146148325787878360ff16815181106147d4576147d4615404565b60200260200101510361481b5760016147ed898b615483565b6147f791906154b3565b8260ff16036148095760009150614820565b81614813816156ec565b925050614820565b614832565b8061482a816156ec565b9150506147ab565b60006148418960ff8516615456565b888460ff168151811061485657614856615404565b60200260200101516148689190615384565b9050888d60ff16898560ff168151811061488457614884615404565b60200260200101516148969190615384565b11156148c757878360ff16815181106148b1576148b1615404565b6020026020010151896148c491906154b3565b9c505b6148d48b60ff8f16615384565b9a506148e08c82615384565b9d9a9b50919998505050505050505050565b6001600160a01b0384166149185760405162461bcd60e51b8152600401610df99061550d565b81518351146149395760405162461bcd60e51b8152600401610df99061554e565b33614949816000878787876143b7565b60005b84518110156149e45783818151811061496757614967615404565b602002602001015160008087848151811061498457614984615404565b602002602001015181526020019081526020016000206000886001600160a01b03166001600160a01b0316815260200190815260200160002060008282546149cc9190615384565b909155508190506149dc8161541a565b91505061494c565b50846001600160a01b031660006001600160a01b0316826001600160a01b031660008051602061594a8339815191528787604051614a23929190615625565b60405180910390a46111e381600087878787614692565b6000614a8f826040518060400160405280602081526020017f5361666545524332303a206c6f772d6c6576656c2063616c6c206661696c6564815250856001600160a01b0316614b1b9092919063ffffffff16565b8051909150156122d65780806020019051810190614aad9190615910565b6122d65760405162461bcd60e51b815260206004820152602a60248201527f5361666545524332303a204552433230206f7065726174696f6e20646964206e6044820152691bdd081cdd58d8d9595960b21b6064820152608401610df9565b6001600160a01b03163b151590565b6060612966848460008585600080866001600160a01b03168587604051614b42919061592d565b60006040518083038185875af1925050503d8060008114614b7f576040519150601f19603f3d011682016040523d82523d6000602084013e614b84565b606091505b5091509150614b9587838387614ba0565b979650505050505050565b60608315614c0d578251600003614c0657614bba85614b0c565b614c065760405162461bcd60e51b815260206004820152601d60248201527f416464726573733a2063616c6c20746f206e6f6e2d636f6e74726163740000006044820152606401610df9565b5081612966565b61296683838151156145e15781518083602001fd5b6001600160a01b03929092168252602082015260400190565b6001600160a01b038116811461138257600080fd5b60008060408385031215614c6357600080fd5b8235614c6e81614c3b565b946020939093013593505050565b6001600160e01b03198116811461138257600080fd5b600060208284031215614ca457600080fd5b8135611d2181614c7c565b60005b83811015614cca578181015183820152602001614cb2565b50506000910152565b60008151808452614ceb816020860160208601614caf565b601f01601f19169290920160200192915050565b602081526000611d216020830184614cd3565b600060208284031215614d2457600080fd5b5035919050565b803560ff81168114614d3c57600080fd5b919050565b600060208284031215614d5357600080fd5b611d2182614d2b565b600060208284031215614d6e57600080fd5b8135611d2181614c3b565b634e487b7160e01b600052604160045260246000fd5b601f8201601f191681016001600160401b0381118282101715614db457614db4614d79565b6040525050565b60006001600160401b03821115614dd457614dd4614d79565b5060051b60200190565b600082601f830112614def57600080fd5b81356020614dfc82614dbb565b604051614e098282614d8f565b83815260059390931b8501820192828101915086841115614e2957600080fd5b8286015b84811015614e445780358352918301918301614e2d565b509695505050505050565b600082601f830112614e6057600080fd5b81356001600160401b03811115614e7957614e79614d79565b604051614e90601f8301601f191660200182614d8f565b818152846020838601011115614ea557600080fd5b816020850160208301376000918101602001919091529392505050565b600080600080600060a08688031215614eda57600080fd5b8535614ee581614c3b565b94506020860135614ef581614c3b565b935060408601356001600160401b0380821115614f1157600080fd5b614f1d89838a01614dde565b94506060880135915080821115614f3357600080fd5b614f3f89838a01614dde565b93506080880135915080821115614f5557600080fd5b50614f6288828901614e4f565b9150509295509295909350565b600080600060608486031215614f8457600080fd5b8335614f8f81614c3b565b9250614f9d60208501614d2b565b9150614fab60408501614d2b565b90509250925092565b60008060408385031215614fc757600080fd5b8235614fd281614c3b565b91506020830135614fe281614c3b565b809150509250929050565b6000806040838503121561500057600080fd5b82356001600160401b038082111561501757600080fd5b818501915085601f83011261502b57600080fd5b8135602061503882614dbb565b6040516150458282614d8f565b83815260059390931b850182019282810191508984111561506557600080fd5b948201945b8386101561508c57853561507d81614c3b565b8252948201949082019061506a565b965050860135925050808211156150a257600080fd5b506150af85828601614dde565b9150509250929050565b600081518084526020808501945080840160005b838110156150e9578151875295820195908201906001016150cd565b509495945050505050565b602081526000611d2160208301846150b9565b6001600160a01b0391909116815260200190565b801515811461138257600080fd5b6000806040838503121561513c57600080fd5b823561514781614c3b565b91506020830135614fe28161511b565b6000806040838503121561516a57600080fd5b823591506020830135614fe281614c3b565b600080600080600060a0868803121561519457600080fd5b853561519f81614c3b565b945060208601356151af81614c3b565b9350604086013592506060860135915060808601356001600160401b038111156151d857600080fd5b614f6288828901614e4f565b600181811c908216806151f857607f821691505b60208210810361521857634e487b7160e01b600052602260045260246000fd5b50919050565b600080835481600182811c91508083168061523a57607f831692505b6020808410820361525957634e487b7160e01b86526022600452602486fd5b81801561526d5760018114615282576152af565b60ff19861689528415158502890196506152af565b60008a81526020902060005b868110156152a75781548b82015290850190830161528e565b505084890196505b5050505050506129666152cc82637b69647d60e01b815260040190565b64173539b7b760d91b815260050190565b60208082526026908201527f5061796d656e7453706c69747465723a206163636f756e7420686173206e6f2060408201526573686172657360d01b606082015260800190565b6020808252602b908201527f5061796d656e7453706c69747465723a206163636f756e74206973206e6f742060408201526a191d59481c185e5b595b9d60aa1b606082015260800190565b634e487b7160e01b600052601160045260246000fd5b80820180821115610e2557610e2561536e565b6020808252602e908201527f455243313135353a2063616c6c6572206973206e6f7420746f6b656e206f776e60408201526d195c881bdc88185c1c1c9bdd995960921b606082015260800190565b6020808252600590820152646572725f3360d81b604082015260600190565b634e487b7160e01b600052603260045260246000fd5b60006001820161542c5761542c61536e565b5060010190565b62ffffff82811682821603908082111561544f5761544f61536e565b5092915050565b8082028115828204841417610e2557610e2561536e565b634e487b7160e01b600052601260045260246000fd5b6000826154925761549261546d565b500490565b62ffffff81811683821601908082111561544f5761544f61536e565b81810381811115610e2557610e2561536e565b62ffffff929092168252602082015260400190565b60ff8181168382160190811115610e2557610e2561536e565b60006020828403121561550657600080fd5b5051919050565b60208082526021908201527f455243313135353a206d696e7420746f20746865207a65726f206164647265736040820152607360f81b606082015260800190565b60208082526028908201527f455243313135353a2069647320616e6420616d6f756e7473206c656e677468206040820152670dad2e6dac2e8c6d60c31b606082015260800190565b60208082526025908201527f455243313135353a207472616e7366657220746f20746865207a65726f206164604082015264647265737360d81b606082015260800190565b6020808252602a908201527f455243313135353a20696e73756666696369656e742062616c616e636520666f60408201526939103a3930b739b332b960b11b606082015260800190565b60408152600061563860408301856150b9565b828103602084015261564a81856150b9565b95945050505050565b6020808252600690820152656572725f323160d01b604082015260600190565b6020808252600690820152656572725f313760d01b604082015260600190565b6020808252600690820152650cae4e4be62760d31b604082015260600190565b60ff8281168282160390811115610e2557610e2561536e565b6020808252600690820152656572725f313960d01b604082015260600190565b600060ff821660ff81036157025761570261536e565b60010192915050565b600060ff83168061571e5761571e61546d565b8060ff84160491505092915050565b60006001600160401b038281166002600160401b031981016157515761575161536e565b6001019392505050565b60008261576a5761576a61546d565b500690565b6001600160a01b03868116825285166020820152604081018490526060810183905260a060808201819052600090614b9590830184614cd3565b6000602082840312156157bb57600080fd5b8151611d2181614c7c565b600060033d1115611c725760046000803e5060005160e01c90565b600060443d10156157ef5790565b6040516003193d81016004833e81513d6001600160401b03808311602484018310171561581e57505050505090565b82850191508151818111156158365750505050505090565b843d87010160208285010111156158505750505050505090565b61585f60208286010187614d8f565b509095945050505050565b60208082526028908201527f455243313135353a204552433131353552656365697665722072656a656374656040820152676420746f6b656e7360c01b606082015260800190565b6001600160a01b0386811682528516602082015260a0604082018190526000906158de908301866150b9565b82810360608401526158f081866150b9565b905082810360808401526159048185614cd3565b98975050505050505050565b60006020828403121561592257600080fd5b8151611d218161511b565b6000825161593f818460208701614caf565b919091019291505056fe4a39dc06d4c0dbc64b70af90fd698a233a518aa5d07e595d983b8c0526c8f7fbc3d58168c5ae7397731d063d5bbf3d657854427343f4c083240f7aacaa2d0f62fbc825a9dbec6ba579c678650f97fd1adaab5d895472fb72d1be4a0982ed8c19447b8744ce19b4ec182a865f10546affad5cb63bee7fbf1f4733554d3644a8d0af3c443bb05b163e7d42de9f4b11bdbfa307cad571a1ae5013e5e2ee92e66ed2df6bd66365a8c4ede51660159bba6757ea60b0815714ebd8534054d929f3337f7b7d25f8a91d07d734c2f45d6dd20e28016c3648b97f80270c65a2a565e62025a2646970667358221220cd2b809628181a31a78129c685af98a8bbe5b8ff614028cf7c41265523bbbab164736f6c63430008110033",
  "linkReferences": {},
  "deployedLinkReferences": {}
}