{
  "_format": "hh-sol-artifact-1",
  "contractName": "Vipsland",
  "sourceName": "contracts/Vipsland.sol",
  "abi": [
    {
      "inputs": [
        {
          "internalType": "address[]",
          "name": "_team",
          "type": "address[]"
        },
        {
          "internalType": "uint256[]",
          "name": "_teamShares",
          "type": "uint256[]"
        },
        {
          "internalType": "string",
          "name": "_notRevealedUri",
          "type": "string"
        },
        {
          "internalType": "string",
          "name": "_revealedUri",
          "type": "string"
        }
      ],
      "stateMutability": "nonpayable",
      "type": "constructor"
    },
    {
      "anonymous": false,
      "inputs": [
        {
          "indexed": true,
          "internalType": "address",
          "name": "account",
          "type": "address"
        },
        {
          "indexed": true,
          "internalType": "address",
          "name": "operator",
          "type": "address"
        },
        {
          "indexed": false,
          "internalType": "bool",
          "name": "approved",
          "type": "bool"
        }
      ],
      "name": "ApprovalForAll",
      "type": "event"
    },
    {
      "anonymous": false,
      "inputs": [
        {
          "indexed": false,
          "internalType": "uint256",
          "name": "tokenMPID",
          "type": "uint256"
        }
      ],
      "name": "DebugMP",
      "type": "event"
    },
    {
      "anonymous": false,
      "inputs": [
        {
          "indexed": true,
          "internalType": "address",
          "name": "acc",
          "type": "address"
        },
        {
          "indexed": false,
          "internalType": "uint256",
          "name": "minted_amount",
          "type": "uint256"
        },
        {
          "indexed": false,
          "internalType": "uint256",
          "name": "last_minted_NONMPID",
          "type": "uint256"
        }
      ],
      "name": "DitributePRTs",
      "type": "event"
    },
    {
      "anonymous": false,
      "inputs": [
        {
          "indexed": true,
          "internalType": "contract IERC20",
          "name": "token",
          "type": "address"
        },
        {
          "indexed": false,
          "internalType": "address",
          "name": "to",
          "type": "address"
        },
        {
          "indexed": false,
          "internalType": "uint256",
          "name": "amount",
          "type": "uint256"
        }
      ],
      "name": "ERC20PaymentReleased",
      "type": "event"
    },
    {
      "anonymous": false,
      "inputs": [
        {
          "indexed": false,
          "internalType": "bool",
          "name": "sendMPAllDone",
          "type": "bool"
        }
      ],
      "name": "MPAllDone",
      "type": "event"
    },
    {
      "anonymous": false,
      "inputs": [
        {
          "indexed": true,
          "internalType": "address",
          "name": "previousOwner",
          "type": "address"
        },
        {
          "indexed": true,
          "internalType": "address",
          "name": "newOwner",
          "type": "address"
        }
      ],
      "name": "OwnershipTransferred",
      "type": "event"
    },
    {
      "anonymous": false,
      "inputs": [
        {
          "indexed": false,
          "internalType": "address",
          "name": "account",
          "type": "address"
        },
        {
          "indexed": false,
          "internalType": "uint256",
          "name": "shares",
          "type": "uint256"
        }
      ],
      "name": "PayeeAdded",
      "type": "event"
    },
    {
      "anonymous": false,
      "inputs": [
        {
          "indexed": false,
          "internalType": "address",
          "name": "from",
          "type": "address"
        },
        {
          "indexed": false,
          "internalType": "uint256",
          "name": "amount",
          "type": "uint256"
        }
      ],
      "name": "PaymentReceived",
      "type": "event"
    },
    {
      "anonymous": false,
      "inputs": [
        {
          "indexed": false,
          "internalType": "address",
          "name": "to",
          "type": "address"
        },
        {
          "indexed": false,
          "internalType": "uint256",
          "name": "amount",
          "type": "uint256"
        }
      ],
      "name": "PaymentReleased",
      "type": "event"
    },
    {
      "anonymous": false,
      "inputs": [
        {
          "indexed": true,
          "internalType": "address",
          "name": "acc",
          "type": "address"
        },
        {
          "indexed": false,
          "internalType": "uint256",
          "name": "qnt",
          "type": "uint256"
        }
      ],
      "name": "RemainMessageNeeds",
      "type": "event"
    },
    {
      "anonymous": false,
      "inputs": [
        {
          "indexed": false,
          "internalType": "uint256",
          "name": "_winnerTokenNONMPID",
          "type": "uint256"
        },
        {
          "indexed": false,
          "internalType": "uint256",
          "name": "max_nonmpid_minus_xrand",
          "type": "uint256"
        }
      ],
      "name": "SelectedNONMPIDTokens",
      "type": "event"
    },
    {
      "anonymous": false,
      "inputs": [
        {
          "indexed": true,
          "internalType": "address",
          "name": "operator",
          "type": "address"
        },
        {
          "indexed": true,
          "internalType": "address",
          "name": "from",
          "type": "address"
        },
        {
          "indexed": true,
          "internalType": "address",
          "name": "to",
          "type": "address"
        },
        {
          "indexed": false,
          "internalType": "uint256[]",
          "name": "ids",
          "type": "uint256[]"
        },
        {
          "indexed": false,
          "internalType": "uint256[]",
          "name": "values",
          "type": "uint256[]"
        }
      ],
      "name": "TransferBatch",
      "type": "event"
    },
    {
      "anonymous": false,
      "inputs": [
        {
          "indexed": true,
          "internalType": "address",
          "name": "operator",
          "type": "address"
        },
        {
          "indexed": true,
          "internalType": "address",
          "name": "from",
          "type": "address"
        },
        {
          "indexed": true,
          "internalType": "address",
          "name": "to",
          "type": "address"
        },
        {
          "indexed": false,
          "internalType": "uint256",
          "name": "id",
          "type": "uint256"
        },
        {
          "indexed": false,
          "internalType": "uint256",
          "name": "value",
          "type": "uint256"
        }
      ],
      "name": "TransferSingle",
      "type": "event"
    },
    {
      "anonymous": false,
      "inputs": [
        {
          "indexed": false,
          "internalType": "string",
          "name": "value",
          "type": "string"
        },
        {
          "indexed": true,
          "internalType": "uint256",
          "name": "id",
          "type": "uint256"
        }
      ],
      "name": "URI",
      "type": "event"
    },
    {
      "anonymous": false,
      "inputs": [
        {
          "indexed": true,
          "internalType": "address",
          "name": "acc",
          "type": "address"
        },
        {
          "indexed": false,
          "internalType": "uint256",
          "name": "winnerTokenPRTID",
          "type": "uint256"
        }
      ],
      "name": "WinnersMP",
      "type": "event"
    },
    {
      "inputs": [],
      "name": "EACH_RAND_SLOT_NUM_TOTAL_FOR_AIRDROP",
      "outputs": [
        {
          "internalType": "uint256",
          "name": "",
          "type": "uint256"
        }
      ],
      "stateMutability": "view",
      "type": "function"
    },
    {
      "inputs": [],
      "name": "EACH_RAND_SLOT_NUM_TOTAL_FOR_INTERNALTEAM",
      "outputs": [
        {
          "internalType": "uint256",
          "name": "",
          "type": "uint256"
        }
      ],
      "stateMutability": "view",
      "type": "function"
    },
    {
      "inputs": [],
      "name": "EACH_RAND_SLOT_NUM_TOTAL_FOR_PRT",
      "outputs": [
        {
          "internalType": "uint256",
          "name": "",
          "type": "uint256"
        }
      ],
      "stateMutability": "view",
      "type": "function"
    },
    {
      "inputs": [],
      "name": "MAX_PRT_AMOUNT_PER_ACC",
      "outputs": [
        {
          "internalType": "uint8",
          "name": "",
          "type": "uint8"
        }
      ],
      "stateMutability": "view",
      "type": "function"
    },
    {
      "inputs": [],
      "name": "MAX_PRT_AMOUNT_PER_ACC_AIRDROP",
      "outputs": [
        {
          "internalType": "uint8",
          "name": "",
          "type": "uint8"
        }
      ],
      "stateMutability": "view",
      "type": "function"
    },
    {
      "inputs": [],
      "name": "MAX_PRT_AMOUNT_PER_ACC_INTERNAL",
      "outputs": [
        {
          "internalType": "uint8",
          "name": "",
          "type": "uint8"
        }
      ],
      "stateMutability": "view",
      "type": "function"
    },
    {
      "inputs": [],
      "name": "MAX_PRT_AMOUNT_PER_ACC_PER_TRANSACTION",
      "outputs": [
        {
          "internalType": "uint8",
          "name": "",
          "type": "uint8"
        }
      ],
      "stateMutability": "view",
      "type": "function"
    },
    {
      "inputs": [],
      "name": "MAX_PRT_AMOUNT_PER_ACC_PER_TRANSACTION_AIRDROP",
      "outputs": [
        {
          "internalType": "uint8",
          "name": "",
          "type": "uint8"
        }
      ],
      "stateMutability": "view",
      "type": "function"
    },
    {
      "inputs": [],
      "name": "MAX_PRT_AMOUNT_PER_ACC_PER_TRANSACTION_INTERNAL",
      "outputs": [
        {
          "internalType": "uint8",
          "name": "",
          "type": "uint8"
        }
      ],
      "stateMutability": "view",
      "type": "function"
    },
    {
      "inputs": [],
      "name": "MAX_SUPPLY_FOR_AIRDROP_TOKEN",
      "outputs": [
        {
          "internalType": "uint256",
          "name": "",
          "type": "uint256"
        }
      ],
      "stateMutability": "view",
      "type": "function"
    },
    {
      "inputs": [],
      "name": "MAX_SUPPLY_FOR_INTERNALTEAM_TOKEN",
      "outputs": [
        {
          "internalType": "uint256",
          "name": "",
          "type": "uint256"
        }
      ],
      "stateMutability": "view",
      "type": "function"
    },
    {
      "inputs": [],
      "name": "MAX_SUPPLY_FOR_PRT_TOKEN",
      "outputs": [
        {
          "internalType": "uint256",
          "name": "",
          "type": "uint256"
        }
      ],
      "stateMutability": "view",
      "type": "function"
    },
    {
      "inputs": [],
      "name": "MAX_SUPPLY_MP",
      "outputs": [
        {
          "internalType": "uint256",
          "name": "",
          "type": "uint256"
        }
      ],
      "stateMutability": "view",
      "type": "function"
    },
    {
      "inputs": [],
      "name": "NUM_TOTAL_FOR_MP",
      "outputs": [
        {
          "internalType": "uint8",
          "name": "",
          "type": "uint8"
        }
      ],
      "stateMutability": "view",
      "type": "function"
    },
    {
      "inputs": [],
      "name": "PRICE_PRT",
      "outputs": [
        {
          "internalType": "uint256",
          "name": "",
          "type": "uint256"
        }
      ],
      "stateMutability": "view",
      "type": "function"
    },
    {
      "inputs": [],
      "name": "PRICE_PRT_AIRDROP",
      "outputs": [
        {
          "internalType": "uint256",
          "name": "",
          "type": "uint256"
        }
      ],
      "stateMutability": "view",
      "type": "function"
    },
    {
      "inputs": [],
      "name": "PRICE_PRT_INTERNALTEAM",
      "outputs": [
        {
          "internalType": "uint256",
          "name": "",
          "type": "uint256"
        }
      ],
      "stateMutability": "view",
      "type": "function"
    },
    {
      "inputs": [],
      "name": "PRTID",
      "outputs": [
        {
          "internalType": "uint256",
          "name": "",
          "type": "uint256"
        }
      ],
      "stateMutability": "view",
      "type": "function"
    },
    {
      "inputs": [],
      "name": "STARTINGIDFORAIRDROP",
      "outputs": [
        {
          "internalType": "uint256",
          "name": "",
          "type": "uint256"
        }
      ],
      "stateMutability": "view",
      "type": "function"
    },
    {
      "inputs": [],
      "name": "STARTINGIDFORINTERNALTEAM",
      "outputs": [
        {
          "internalType": "uint256",
          "name": "",
          "type": "uint256"
        }
      ],
      "stateMutability": "view",
      "type": "function"
    },
    {
      "inputs": [],
      "name": "STARTINGIDFORPRT",
      "outputs": [
        {
          "internalType": "uint256",
          "name": "",
          "type": "uint256"
        }
      ],
      "stateMutability": "view",
      "type": "function"
    },
    {
      "inputs": [],
      "name": "_counter_for_generatelucky_mp",
      "outputs": [
        {
          "internalType": "uint256",
          "name": "_value",
          "type": "uint256"
        }
      ],
      "stateMutability": "view",
      "type": "function"
    },
    {
      "inputs": [],
      "name": "_counter_for_generatelucky_mp_airdrop",
      "outputs": [
        {
          "internalType": "uint256",
          "name": "_value",
          "type": "uint256"
        }
      ],
      "stateMutability": "view",
      "type": "function"
    },
    {
      "inputs": [],
      "name": "_counter_for_generatelucky_mp_internalteam",
      "outputs": [
        {
          "internalType": "uint256",
          "name": "_value",
          "type": "uint256"
        }
      ],
      "stateMutability": "view",
      "type": "function"
    },
    {
      "inputs": [
        {
          "internalType": "address",
          "name": "account",
          "type": "address"
        },
        {
          "internalType": "uint256",
          "name": "id",
          "type": "uint256"
        }
      ],
      "name": "balanceOf",
      "outputs": [
        {
          "internalType": "uint256",
          "name": "",
          "type": "uint256"
        }
      ],
      "stateMutability": "view",
      "type": "function"
    },
    {
      "inputs": [],
      "name": "balanceOfAccount",
      "outputs": [
        {
          "internalType": "uint256",
          "name": "",
          "type": "uint256"
        }
      ],
      "stateMutability": "payable",
      "type": "function"
    },
    {
      "inputs": [
        {
          "internalType": "address[]",
          "name": "accounts",
          "type": "address[]"
        },
        {
          "internalType": "uint256[]",
          "name": "ids",
          "type": "uint256[]"
        }
      ],
      "name": "balanceOfBatch",
      "outputs": [
        {
          "internalType": "uint256[]",
          "name": "",
          "type": "uint256[]"
        }
      ],
      "stateMutability": "view",
      "type": "function"
    },
    {
      "inputs": [
        {
          "internalType": "string",
          "name": "a",
          "type": "string"
        },
        {
          "internalType": "uint256",
          "name": "b",
          "type": "uint256"
        }
      ],
      "name": "concatenate",
      "outputs": [
        {
          "internalType": "string",
          "name": "",
          "type": "string"
        }
      ],
      "stateMutability": "pure",
      "type": "function"
    },
    {
      "inputs": [],
      "name": "contractBalance",
      "outputs": [
        {
          "internalType": "uint256",
          "name": "",
          "type": "uint256"
        }
      ],
      "stateMutability": "view",
      "type": "function"
    },
    {
      "inputs": [
        {
          "internalType": "uint256",
          "name": "id",
          "type": "uint256"
        }
      ],
      "name": "exists",
      "outputs": [
        {
          "internalType": "bool",
          "name": "",
          "type": "bool"
        }
      ],
      "stateMutability": "view",
      "type": "function"
    },
    {
      "inputs": [
        {
          "internalType": "uint256",
          "name": "",
          "type": "uint256"
        }
      ],
      "name": "intArrPRTAIRDROP",
      "outputs": [
        {
          "internalType": "uint256",
          "name": "",
          "type": "uint256"
        }
      ],
      "stateMutability": "view",
      "type": "function"
    },
    {
      "inputs": [
        {
          "internalType": "address",
          "name": "account",
          "type": "address"
        },
        {
          "internalType": "address",
          "name": "operator",
          "type": "address"
        }
      ],
      "name": "isApprovedForAll",
      "outputs": [
        {
          "internalType": "bool",
          "name": "",
          "type": "bool"
        }
      ],
      "stateMutability": "view",
      "type": "function"
    },
    {
      "inputs": [],
      "name": "mintAirdropMPIsOpen",
      "outputs": [
        {
          "internalType": "bool",
          "name": "",
          "type": "bool"
        }
      ],
      "stateMutability": "view",
      "type": "function"
    },
    {
      "inputs": [
        {
          "internalType": "uint256",
          "name": "tokenID",
          "type": "uint256"
        },
        {
          "internalType": "address",
          "name": "addr",
          "type": "address"
        }
      ],
      "name": "mintDebug",
      "outputs": [],
      "stateMutability": "nonpayable",
      "type": "function"
    },
    {
      "inputs": [],
      "name": "mintInternalTeamMPIsOpen",
      "outputs": [
        {
          "internalType": "bool",
          "name": "",
          "type": "bool"
        }
      ],
      "stateMutability": "view",
      "type": "function"
    },
    {
      "inputs": [],
      "name": "mintMPIsOpen",
      "outputs": [
        {
          "internalType": "bool",
          "name": "",
          "type": "bool"
        }
      ],
      "stateMutability": "view",
      "type": "function"
    },
    {
      "inputs": [
        {
          "internalType": "address",
          "name": "account",
          "type": "address"
        },
        {
          "internalType": "uint8",
          "name": "_amount_wanted_able_to_get",
          "type": "uint8"
        },
        {
          "internalType": "uint8",
          "name": "stage",
          "type": "uint8"
        }
      ],
      "name": "mintNONMP",
      "outputs": [],
      "stateMutability": "payable",
      "type": "function"
    },
    {
      "inputs": [],
      "name": "name",
      "outputs": [
        {
          "internalType": "string",
          "name": "",
          "type": "string"
        }
      ],
      "stateMutability": "view",
      "type": "function"
    },
    {
      "inputs": [],
      "name": "numIssuedForAIRDROP",
      "outputs": [
        {
          "internalType": "uint256",
          "name": "",
          "type": "uint256"
        }
      ],
      "stateMutability": "view",
      "type": "function"
    },
    {
      "inputs": [],
      "name": "numIssuedForInternalTeamIDs",
      "outputs": [
        {
          "internalType": "uint256",
          "name": "",
          "type": "uint256"
        }
      ],
      "stateMutability": "view",
      "type": "function"
    },
    {
      "inputs": [],
      "name": "numIssuedForMP",
      "outputs": [
        {
          "internalType": "uint64",
          "name": "",
          "type": "uint64"
        }
      ],
      "stateMutability": "view",
      "type": "function"
    },
    {
      "inputs": [],
      "name": "numIssuedForNormalUser",
      "outputs": [
        {
          "internalType": "uint256",
          "name": "",
          "type": "uint256"
        }
      ],
      "stateMutability": "view",
      "type": "function"
    },
    {
      "inputs": [],
      "name": "owner",
      "outputs": [
        {
          "internalType": "address",
          "name": "",
          "type": "address"
        }
      ],
      "stateMutability": "view",
      "type": "function"
    },
    {
      "inputs": [
        {
          "internalType": "uint256",
          "name": "index",
          "type": "uint256"
        }
      ],
      "name": "payee",
      "outputs": [
        {
          "internalType": "address",
          "name": "",
          "type": "address"
        }
      ],
      "stateMutability": "view",
      "type": "function"
    },
    {
      "inputs": [
        {
          "internalType": "address",
          "name": "",
          "type": "address"
        }
      ],
      "name": "perAddressMPs",
      "outputs": [
        {
          "internalType": "string",
          "name": "",
          "type": "string"
        }
      ],
      "stateMutability": "view",
      "type": "function"
    },
    {
      "inputs": [],
      "name": "presalePRT",
      "outputs": [
        {
          "internalType": "uint8",
          "name": "",
          "type": "uint8"
        }
      ],
      "stateMutability": "view",
      "type": "function"
    },
    {
      "inputs": [
        {
          "internalType": "uint256",
          "name": "",
          "type": "uint256"
        }
      ],
      "name": "prtPerAddress",
      "outputs": [
        {
          "internalType": "address",
          "name": "",
          "type": "address"
        }
      ],
      "stateMutability": "view",
      "type": "function"
    },
    {
      "inputs": [],
      "name": "qntmintmpforairdrop",
      "outputs": [
        {
          "internalType": "uint256",
          "name": "",
          "type": "uint256"
        }
      ],
      "stateMutability": "view",
      "type": "function"
    },
    {
      "inputs": [],
      "name": "qntmintmpforinternalteam",
      "outputs": [
        {
          "internalType": "uint256",
          "name": "",
          "type": "uint256"
        }
      ],
      "stateMutability": "view",
      "type": "function"
    },
    {
      "inputs": [],
      "name": "qntmintmpfornormaluser",
      "outputs": [
        {
          "internalType": "uint256",
          "name": "",
          "type": "uint256"
        }
      ],
      "stateMutability": "view",
      "type": "function"
    },
    {
      "inputs": [],
      "name": "qntmintnonmpforairdrop",
      "outputs": [
        {
          "internalType": "uint256",
          "name": "",
          "type": "uint256"
        }
      ],
      "stateMutability": "view",
      "type": "function"
    },
    {
      "inputs": [],
      "name": "qntmintnonmpforinternalteam",
      "outputs": [
        {
          "internalType": "uint256",
          "name": "",
          "type": "uint256"
        }
      ],
      "stateMutability": "view",
      "type": "function"
    },
    {
      "inputs": [],
      "name": "qntmintnonmpfornormaluser",
      "outputs": [
        {
          "internalType": "uint256",
          "name": "",
          "type": "uint256"
        }
      ],
      "stateMutability": "view",
      "type": "function"
    },
    {
      "inputs": [
        {
          "internalType": "address",
          "name": "account",
          "type": "address"
        }
      ],
      "name": "releasable",
      "outputs": [
        {
          "internalType": "uint256",
          "name": "",
          "type": "uint256"
        }
      ],
      "stateMutability": "view",
      "type": "function"
    },
    {
      "inputs": [
        {
          "internalType": "contract IERC20",
          "name": "token",
          "type": "address"
        },
        {
          "internalType": "address",
          "name": "account",
          "type": "address"
        }
      ],
      "name": "releasable",
      "outputs": [
        {
          "internalType": "uint256",
          "name": "",
          "type": "uint256"
        }
      ],
      "stateMutability": "view",
      "type": "function"
    },
    {
      "inputs": [
        {
          "internalType": "address payable",
          "name": "account",
          "type": "address"
        }
      ],
      "name": "release",
      "outputs": [],
      "stateMutability": "nonpayable",
      "type": "function"
    },
    {
      "inputs": [
        {
          "internalType": "contract IERC20",
          "name": "token",
          "type": "address"
        },
        {
          "internalType": "address",
          "name": "account",
          "type": "address"
        }
      ],
      "name": "release",
      "outputs": [],
      "stateMutability": "nonpayable",
      "type": "function"
    },
    {
      "inputs": [
        {
          "internalType": "contract IERC20",
          "name": "token",
          "type": "address"
        },
        {
          "internalType": "address",
          "name": "account",
          "type": "address"
        }
      ],
      "name": "released",
      "outputs": [
        {
          "internalType": "uint256",
          "name": "",
          "type": "uint256"
        }
      ],
      "stateMutability": "view",
      "type": "function"
    },
    {
      "inputs": [
        {
          "internalType": "address",
          "name": "account",
          "type": "address"
        }
      ],
      "name": "released",
      "outputs": [
        {
          "internalType": "uint256",
          "name": "",
          "type": "uint256"
        }
      ],
      "stateMutability": "view",
      "type": "function"
    },
    {
      "inputs": [],
      "name": "renounceOwnership",
      "outputs": [],
      "stateMutability": "nonpayable",
      "type": "function"
    },
    {
      "inputs": [],
      "name": "revealed",
      "outputs": [
        {
          "internalType": "bool",
          "name": "",
          "type": "bool"
        }
      ],
      "stateMutability": "view",
      "type": "function"
    },
    {
      "inputs": [
        {
          "internalType": "address",
          "name": "from",
          "type": "address"
        },
        {
          "internalType": "address",
          "name": "to",
          "type": "address"
        },
        {
          "internalType": "uint256[]",
          "name": "ids",
          "type": "uint256[]"
        },
        {
          "internalType": "uint256[]",
          "name": "amounts",
          "type": "uint256[]"
        },
        {
          "internalType": "bytes",
          "name": "data",
          "type": "bytes"
        }
      ],
      "name": "safeBatchTransferFrom",
      "outputs": [],
      "stateMutability": "nonpayable",
      "type": "function"
    },
    {
      "inputs": [
        {
          "internalType": "uint256",
          "name": "tokenID",
          "type": "uint256"
        },
        {
          "internalType": "address",
          "name": "addr",
          "type": "address"
        }
      ],
      "name": "safeTransferDebug",
      "outputs": [],
      "stateMutability": "nonpayable",
      "type": "function"
    },
    {
      "inputs": [
        {
          "internalType": "address",
          "name": "from",
          "type": "address"
        },
        {
          "internalType": "address",
          "name": "to",
          "type": "address"
        },
        {
          "internalType": "uint256",
          "name": "id",
          "type": "uint256"
        },
        {
          "internalType": "uint256",
          "name": "amount",
          "type": "uint256"
        },
        {
          "internalType": "bytes",
          "name": "data",
          "type": "bytes"
        }
      ],
      "name": "safeTransferFrom",
      "outputs": [],
      "stateMutability": "nonpayable",
      "type": "function"
    },
    {
      "inputs": [],
      "name": "sendMPAirdrop",
      "outputs": [],
      "stateMutability": "nonpayable",
      "type": "function"
    },
    {
      "inputs": [],
      "name": "sendMPAllDoneForAirdrop",
      "outputs": [
        {
          "internalType": "bool",
          "name": "",
          "type": "bool"
        }
      ],
      "stateMutability": "view",
      "type": "function"
    },
    {
      "inputs": [],
      "name": "sendMPAllDoneForInternalTeam",
      "outputs": [
        {
          "internalType": "bool",
          "name": "",
          "type": "bool"
        }
      ],
      "stateMutability": "view",
      "type": "function"
    },
    {
      "inputs": [],
      "name": "sendMPAllDoneForNormalUsers",
      "outputs": [
        {
          "internalType": "bool",
          "name": "",
          "type": "bool"
        }
      ],
      "stateMutability": "view",
      "type": "function"
    },
    {
      "inputs": [],
      "name": "sendMPInternalTeam",
      "outputs": [],
      "stateMutability": "nonpayable",
      "type": "function"
    },
    {
      "inputs": [],
      "name": "sendMPNormalUsers",
      "outputs": [],
      "stateMutability": "nonpayable",
      "type": "function"
    },
    {
      "inputs": [
        {
          "internalType": "address",
          "name": "operator",
          "type": "address"
        },
        {
          "internalType": "bool",
          "name": "approved",
          "type": "bool"
        }
      ],
      "name": "setApprovalForAll",
      "outputs": [],
      "stateMutability": "nonpayable",
      "type": "function"
    },
    {
      "inputs": [
        {
          "internalType": "uint256",
          "name": "price",
          "type": "uint256"
        }
      ],
      "name": "setPRICE_PRT",
      "outputs": [],
      "stateMutability": "nonpayable",
      "type": "function"
    },
    {
      "inputs": [
        {
          "internalType": "uint256",
          "name": "price",
          "type": "uint256"
        }
      ],
      "name": "setPRICE_PRT_AIRDROP",
      "outputs": [],
      "stateMutability": "nonpayable",
      "type": "function"
    },
    {
      "inputs": [
        {
          "internalType": "uint256",
          "name": "price",
          "type": "uint256"
        }
      ],
      "name": "setPRICE_PRT_INTERNALTEAM",
      "outputs": [],
      "stateMutability": "nonpayable",
      "type": "function"
    },
    {
      "inputs": [
        {
          "internalType": "uint8",
          "name": "num",
          "type": "uint8"
        }
      ],
      "name": "setPreSalePRT",
      "outputs": [],
      "stateMutability": "nonpayable",
      "type": "function"
    },
    {
      "inputs": [
        {
          "internalType": "uint8",
          "name": "amount",
          "type": "uint8"
        },
        {
          "internalType": "uint8",
          "name": "amount_per_transaction",
          "type": "uint8"
        }
      ],
      "name": "set_MAX_PRT_AMOUNT_PER_ACC_AND_TRANSACTION_INTERNAL",
      "outputs": [],
      "stateMutability": "nonpayable",
      "type": "function"
    },
    {
      "inputs": [
        {
          "internalType": "address",
          "name": "account",
          "type": "address"
        }
      ],
      "name": "shares",
      "outputs": [
        {
          "internalType": "uint256",
          "name": "",
          "type": "uint256"
        }
      ],
      "stateMutability": "view",
      "type": "function"
    },
    {
      "inputs": [
        {
          "internalType": "bytes4",
          "name": "interfaceId",
          "type": "bytes4"
        }
      ],
      "name": "supportsInterface",
      "outputs": [
        {
          "internalType": "bool",
          "name": "",
          "type": "bool"
        }
      ],
      "stateMutability": "view",
      "type": "function"
    },
    {
      "inputs": [],
      "name": "symbol",
      "outputs": [
        {
          "internalType": "string",
          "name": "",
          "type": "string"
        }
      ],
      "stateMutability": "view",
      "type": "function"
    },
    {
      "inputs": [],
      "name": "toggleMintAirdropMPIsOpen",
      "outputs": [],
      "stateMutability": "nonpayable",
      "type": "function"
    },
    {
      "inputs": [],
      "name": "toggleMintInternalTeamMPIsOpen",
      "outputs": [],
      "stateMutability": "nonpayable",
      "type": "function"
    },
    {
      "inputs": [],
      "name": "toggleMintMPIsOpen",
      "outputs": [],
      "stateMutability": "nonpayable",
      "type": "function"
    },
    {
      "inputs": [],
      "name": "toggleReveal",
      "outputs": [],
      "stateMutability": "nonpayable",
      "type": "function"
    },
    {
      "inputs": [
        {
          "internalType": "contract IERC20",
          "name": "token",
          "type": "address"
        }
      ],
      "name": "totalReleased",
      "outputs": [
        {
          "internalType": "uint256",
          "name": "",
          "type": "uint256"
        }
      ],
      "stateMutability": "view",
      "type": "function"
    },
    {
      "inputs": [],
      "name": "totalReleased",
      "outputs": [
        {
          "internalType": "uint256",
          "name": "",
          "type": "uint256"
        }
      ],
      "stateMutability": "view",
      "type": "function"
    },
    {
      "inputs": [],
      "name": "totalShares",
      "outputs": [
        {
          "internalType": "uint256",
          "name": "",
          "type": "uint256"
        }
      ],
      "stateMutability": "view",
      "type": "function"
    },
    {
      "inputs": [
        {
          "internalType": "uint256",
          "name": "id",
          "type": "uint256"
        }
      ],
      "name": "totalSupply",
      "outputs": [
        {
          "internalType": "uint256",
          "name": "",
          "type": "uint256"
        }
      ],
      "stateMutability": "view",
      "type": "function"
    },
    {
      "inputs": [
        {
          "internalType": "address",
          "name": "newOwner",
          "type": "address"
        }
      ],
      "name": "transferOwnership",
      "outputs": [],
      "stateMutability": "nonpayable",
      "type": "function"
    },
    {
      "inputs": [
        {
          "internalType": "uint256",
          "name": "",
          "type": "uint256"
        }
      ],
      "name": "uri",
      "outputs": [
        {
          "internalType": "string",
          "name": "",
          "type": "string"
        }
      ],
      "stateMutability": "view",
      "type": "function"
    },
    {
      "inputs": [
        {
          "internalType": "address",
          "name": "",
          "type": "address"
        }
      ],
      "name": "userNONMPs",
      "outputs": [
        {
          "internalType": "uint8",
          "name": "",
          "type": "uint8"
        }
      ],
      "stateMutability": "view",
      "type": "function"
    },
    {
      "inputs": [],
      "name": "withdraw",
      "outputs": [],
      "stateMutability": "payable",
      "type": "function"
    },
    {
      "inputs": [],
      "name": "xrand",
      "outputs": [
        {
          "internalType": "uint8",
          "name": "",
          "type": "uint8"
        }
      ],
      "stateMutability": "view",
      "type": "function"
    },
    {
      "stateMutability": "payable",
      "type": "receive"
    }
  ],
  "bytecode": "0x60c0604052601060809081526f564950534c414e442047454e4553495360801b60a052600d90620000319082620007f5565b50604080518082019091526004815263159414d360e21b6020820152600e906200005c9082620007f5565b506011805460ff1990811690915560006013819055601481905560158190556016805483166012179055601a80546001600160401b0319166004179055601f805461191961ffff199091161790556701b4fbd92b5f80006020556021819055602281905560248190556025819055602681905560288190556029819055602a819055602c805463ffffffff19169055602d819055602e819055602f8190556030805462ffffff1916905560318190556032556033805490911690553480156200012457600080fd5b50604051620068d0380380620068d0833981016040819052620001479162000a1a565b838383620001558162000497565b506200016133620004a9565b8051825114620001d35760405162461bcd60e51b815260206004820152603260248201527f5061796d656e7453706c69747465723a2070617965657320616e6420736861726044820152710cae640d8cadccee8d040dad2e6dac2e8c6d60731b60648201526084015b60405180910390fd5b6000825111620002265760405162461bcd60e51b815260206004820152601a60248201527f5061796d656e7453706c69747465723a206e6f207061796565730000000000006044820152606401620001ca565b60005b825181101562000292576200027d8382815181106200024c576200024c62000b47565b602002602001015183838151811062000269576200026962000b47565b6020026020010151620004fb60201b60201c565b80620002898162000b73565b91505062000229565b50506001600c5550600f620002a88382620007f5565b506010620002b78282620007f5565b50620002c76064614e2062000b8f565b6001600160401b03811115620002e157620002e162000750565b6040519080825280602002602001820160405280156200030b578160200160208202803683370190505b5080516200032291601b91602090910190620006e9565b506002601b6000815481106200033c576200033c62000b47565b60009182526020909120015562000359612710620222e062000b8f565b6001600160401b0381111562000373576200037362000750565b6040519080825280602002602001820160405280156200039d578160200160208202803683370190505b508051620003b491602391602090910190620006e9565b50620003c56103e8614e2062000b8f565b6001600160401b03811115620003df57620003df62000750565b60405190808252806020026020018201604052801562000409578160200160208202803683370190505b5080516200042091602791602090910190620006e9565b50620004316104576122b862000b8f565b6001600160401b038111156200044b576200044b62000750565b60405190808252806020026020018201604052801562000475578160200160208202803683370190505b5080516200048c91602b91602090910190620006e9565b505050505062000bce565b6002620004a58282620007f5565b5050565b600480546001600160a01b038381166001600160a01b0319831681179093556040519116919082907f8be0079c531659141344cd1fd0a4f28419497f9722a3daafe3b4186f6b6457e090600090a35050565b6001600160a01b038216620005685760405162461bcd60e51b815260206004820152602c60248201527f5061796d656e7453706c69747465723a206163636f756e74206973207468652060448201526b7a65726f206164647265737360a01b6064820152608401620001ca565b60008111620005ba5760405162461bcd60e51b815260206004820152601d60248201527f5061796d656e7453706c69747465723a207368617265732061726520300000006044820152606401620001ca565b6001600160a01b03821660009081526007602052604090205415620006365760405162461bcd60e51b815260206004820152602b60248201527f5061796d656e7453706c69747465723a206163636f756e7420616c726561647960448201526a206861732073686172657360a81b6064820152608401620001ca565b60098054600181019091557f6e1540171b6c0c960b71a7020d9f60077f6af931a8bbf590da0223dacf75c7af0180546001600160a01b0319166001600160a01b0384169081179091556000908152600760205260409020819055600554620006a090829062000bb2565b600555604080516001600160a01b0384168152602081018390527f40c340f65e17194d14ddddb073d3c9f888e3cb52b5aae0c6c7706b4fbc905fac910160405180910390a15050565b82805482825590600052602060002090810192821562000727579160200282015b82811115620007275782518255916020019190600101906200070a565b506200073592915062000739565b5090565b5b808211156200073557600081556001016200073a565b634e487b7160e01b600052604160045260246000fd5b600181811c908216806200077b57607f821691505b6020821081036200079c57634e487b7160e01b600052602260045260246000fd5b50919050565b601f821115620007f057600081815260208120601f850160051c81016020861015620007cb5750805b601f850160051c820191505b81811015620007ec57828155600101620007d7565b5050505b505050565b81516001600160401b0381111562000811576200081162000750565b620008298162000822845462000766565b84620007a2565b602080601f831160018114620008615760008415620008485750858301515b600019600386901b1c1916600185901b178555620007ec565b600085815260208120601f198616915b82811015620008925788860151825594840194600190910190840162000871565b5085821015620008b15787850151600019600388901b60f8161c191681555b5050505050600190811b01905550565b604051601f8201601f191681016001600160401b0381118282101715620008ec57620008ec62000750565b604052919050565b60006001600160401b0382111562000910576200091062000750565b5060051b60200190565b600082601f8301126200092c57600080fd5b81516020620009456200093f83620008f4565b620008c1565b82815260059290921b840181019181810190868411156200096557600080fd5b8286015b8481101562000982578051835291830191830162000969565b509695505050505050565b600082601f8301126200099f57600080fd5b81516001600160401b03811115620009bb57620009bb62000750565b6020620009d1601f8301601f19168201620008c1565b8281528582848701011115620009e657600080fd5b60005b8381101562000a06578581018301518282018401528201620009e9565b506000928101909101919091529392505050565b6000806000806080858703121562000a3157600080fd5b84516001600160401b038082111562000a4957600080fd5b818701915087601f83011262000a5e57600080fd5b8151602062000a716200093f83620008f4565b82815260059290921b8401810191818101908b84111562000a9157600080fd5b948201945b8386101562000ac85785516001600160a01b038116811462000ab85760008081fd5b8252948201949082019062000a96565b918a015191985090935050508082111562000ae257600080fd5b62000af0888389016200091a565b9450604087015191508082111562000b0757600080fd5b62000b15888389016200098d565b9350606087015191508082111562000b2c57600080fd5b5062000b3b878288016200098d565b91505092959194509250565b634e487b7160e01b600052603260045260246000fd5b634e487b7160e01b600052601160045260246000fd5b60006001820162000b885762000b8862000b5d565b5060010190565b60008262000bad57634e487b7160e01b600052601260045260246000fd5b500490565b8082018082111562000bc85762000bc862000b5d565b92915050565b615cf28062000bde6000396000f3fe6080604052600436106104f95760003560e01c80637a1d48f41161028c578063bca66b851161015a578063d79779b2116100cc578063e33b7de311610085578063e33b7de314610ebd578063e67ff55214610ed2578063e985e9c514610ee9578063f242432a14610f32578063f2fde38b14610f52578063fe47d7f214610f7257600080fd5b8063d79779b214610e1d578063d7abf186146106fe578063da8ab07114610e53578063db9a850914610e68578063defb1d4514610e7e578063df8c6cd314610e9d57600080fd5b8063c82190c41161011e578063c82190c414610d7a578063c9b4f6ef14610806578063cd0b99cd146107da578063ce7c2ac214610d91578063cea8f9c014610dc7578063cffbd26f14610de757600080fd5b8063bca66b8514610cd7578063bd85b03914610cf7578063c45ac05014610d24578063c6358ecd14610d44578063c7a3b01314610d6457600080fd5b806395d89b41116101fe578063a3f8eace116101b7578063a3f8eace14610c3e578063a57674e714610c5e578063a882fea414610c73578063b1feb18d14610c88578063b247796414610ca2578063b861639414610cc157600080fd5b806395d89b4114610ba757806397c66270146107da5780639852595c14610bbc5780639daf187214610bf25780639e26975714610c07578063a22cb46514610c1e57600080fd5b80638515c7ac116102505780638515c7ac14610afe5780638913fbe014610b1e5780638b7afe2e14610b345780638b83209b14610b495780638da5cb5b14610b8157806394a271fd14610b9f57600080fd5b80637a1d48f414610a795780637d46d87014610a995780637de1c2be14610aae57806382a3169314610ac8578063833bc78814610ade57600080fd5b8063380b5f75116103c95780634f558e791161033b5780636bfcf578116102f45780636bfcf578146109ec5780636c5959e314610a015780636e27b97214610a17578063715018a614610a2e57806375d909ef14610a435780637862ed6414610a5957600080fd5b80634f558e791461093757806351830227146109665780635308ca78146109805780635b8ad429146109965780635de701f9146109ab5780635ef198bd146109cc57600080fd5b8063406072a91161038d578063406072a914610861578063438d4bc1146108a757806344c3c7b9146108bd57806348b75044146108d45780634a098124146108f45780634e1273f41461090a57600080fd5b8063380b5f75146108065780633919e5ba1461081b578063395dcb641461082e5780633a98ef39146108445780633ccfd60b1461085957600080fd5b80631902aa4a1161046d5780632b2be7f5116104265780632b2be7f5146107705780632d187ef71461078f5780632d23bf5a146107a45780632eb2c2d6146107ba5780632fcf9d4b146107da5780632fef4579146107f057600080fd5b80631902aa4a146106a657806319165587146106de57806319f32a50146106fe57806320c6974e1461072557806328b33aae1461073f5780632a37e4af1461075957600080fd5b806306fdde03116104bf57806306fdde03146105f65780630e89341c14610618578063108241181461063857806310dd92471461065a57806311e6fb631461067057806312deb6031461068657600080fd5b806201d05b14610547578062fdd58e14610570578063015532081461059057806301ffc9a7146105c057806304bf41d8146105e057600080fd5b36610542577f6ef95f06320e7a25a04a175ca677b7052bdd97131872c2192525a629f51be77033604080516001600160a01b0390921682523460208301520160405180910390a1005b600080fd5b34801561055357600080fd5b5061055d60215481565b6040519081526020015b60405180910390f35b34801561057c57600080fd5b5061055d61058b366004614e3c565b610fa2565b34801561059c57600080fd5b50602c546105b09062010000900460ff1681565b6040519015158152602001610567565b3480156105cc57600080fd5b506105b06105db366004614e7e565b61103b565b3480156105ec57600080fd5b5061055d614e2181565b34801561060257600080fd5b5061060b61108b565b6040516105679190614eeb565b34801561062457600080fd5b5061060b610633366004614efe565b611119565b34801561064457600080fd5b50610658610653366004614f2d565b6111e5565b005b34801561066657600080fd5b5061055d60145481565b34801561067c57600080fd5b5061055d60135481565b34801561069257600080fd5b5061060b6106a1366004614f48565b61123f565b3480156106b257600080fd5b50601a546106c6906001600160401b031681565b6040516001600160401b039091168152602001610567565b3480156106ea57600080fd5b506106586106f9366004614f48565b611258565b34801561070a57600080fd5b50610713600381565b60405160ff9091168152602001610567565b34801561073157600080fd5b506016546107139060ff1681565b34801561074b57600080fd5b50601f546107139060ff1681565b34801561076557600080fd5b5060185461055d9081565b34801561077c57600080fd5b50601f5461071390610100900460ff1681565b34801561079b57600080fd5b5061065861133f565b3480156107b057600080fd5b5061055d60155481565b3480156107c657600080fd5b506106586107d53660046150b8565b611366565b3480156107e657600080fd5b5061055d614e2081565b3480156107fc57600080fd5b5061055d60225481565b34801561081257600080fd5b50610713606481565b610658610829366004615165565b6113b2565b34801561083a57600080fd5b5061055d6103e881565b34801561085057600080fd5b5060055461055d565b61065861150a565b34801561086d57600080fd5b5061055d61087c3660046151aa565b6001600160a01b039182166000908152600b6020908152604080832093909416825291909152205490565b3480156108b357600080fd5b5061055d60285481565b3480156108c957600080fd5b5061055d620222e081565b3480156108e057600080fd5b506106586108ef3660046151aa565b611541565b34801561090057600080fd5b5061055d60255481565b34801561091657600080fd5b5061092a6109253660046151e3565b611652565b60405161056791906152ea565b34801561094357600080fd5b506105b0610952366004614efe565b600090815260036020526040902054151590565b34801561097257600080fd5b506011546105b09060ff1681565b34801561098c57600080fd5b5061055d61271081565b3480156109a257600080fd5b5061065861177b565b3480156109b757600080fd5b50602c546105b0906301000000900460ff1681565b3480156109d857600080fd5b506106586109e73660046152fd565b611797565b3480156109f857600080fd5b506106586117bf565b348015610a0d57600080fd5b5061055d60205481565b348015610a2357600080fd5b5060175461055d9081565b348015610a3a57600080fd5b506106586117e8565b348015610a4f57600080fd5b5061055d60245481565b348015610a6557600080fd5b50610658610a74366004614efe565b6117fc565b348015610a8557600080fd5b50610658610a94366004614efe565b611809565b348015610aa557600080fd5b50610658611816565b348015610aba57600080fd5b50602c546107139060ff1681565b348015610ad457600080fd5b5061055d6122b881565b348015610aea57600080fd5b5061060b610af9366004615322565b611c2d565b348015610b0a57600080fd5b50610658610b1936600461537a565b611c61565b348015610b2a57600080fd5b5061055d602a5481565b348015610b4057600080fd5b5061055d611cc9565b348015610b5557600080fd5b50610b69610b64366004614efe565b611cd9565b6040516001600160a01b039091168152602001610567565b348015610b8d57600080fd5b506004546001600160a01b0316610b69565b61055d611d09565b348015610bb357600080fd5b5061060b611d18565b348015610bc857600080fd5b5061055d610bd7366004614f48565b6001600160a01b031660009081526008602052604090205490565b348015610bfe57600080fd5b50610713602381565b348015610c1357600080fd5b5060195461055d9081565b348015610c2a57600080fd5b50610658610c393660046153bb565b611d25565b348015610c4a57600080fd5b5061055d610c59366004614f48565b611d30565b348015610c6a57600080fd5b50610658611d78565b348015610c7f57600080fd5b506106586120fa565b348015610c9457600080fd5b506030546105b09060ff1681565b348015610cae57600080fd5b506030546105b090610100900460ff1681565b348015610ccd57600080fd5b5061055d60265481565b348015610ce357600080fd5b50610658610cf23660046152fd565b612508565b348015610d0357600080fd5b5061055d610d12366004614efe565b60009081526003602052604090205490565b348015610d3057600080fd5b5061055d610d3f3660046151aa565b612641565b348015610d5057600080fd5b50610658610d5f366004614efe565b61270c565b348015610d7057600080fd5b5061055d61045781565b348015610d8657600080fd5b5061055d6202710181565b348015610d9d57600080fd5b5061055d610dac366004614f48565b6001600160a01b031660009081526007602052604090205490565b348015610dd357600080fd5b506030546105b09062010000900460ff1681565b348015610df357600080fd5b50610b69610e02366004614efe565b601d602052600090815260409020546001600160a01b031681565b348015610e2957600080fd5b5061055d610e38366004614f48565b6001600160a01b03166000908152600a602052604090205490565b348015610e5f57600080fd5b50610658612719565b348015610e7457600080fd5b5061055d60295481565b348015610e8a57600080fd5b50602c546105b090610100900460ff1681565b348015610ea957600080fd5b5061055d610eb8366004614efe565b61273e565b348015610ec957600080fd5b5060065461055d565b348015610ede57600080fd5b5061055d6202bf2181565b348015610ef557600080fd5b506105b0610f043660046151aa565b6001600160a01b03918216600090815260016020908152604080832093909416825291909152205460ff1690565b348015610f3e57600080fd5b50610658610f4d3660046153e9565b61275f565b348015610f5e57600080fd5b50610658610f6d366004614f48565b6127a4565b348015610f7e57600080fd5b50610713610f8d366004614f48565b601e6020526000908152604090205460ff1681565b60006001600160a01b0383166110125760405162461bcd60e51b815260206004820152602a60248201527f455243313135353a2061646472657373207a65726f206973206e6f742061207660448201526930b634b21037bbb732b960b11b60648201526084015b60405180910390fd5b506000818152602081815260408083206001600160a01b03861684529091529020545b92915050565b60006001600160e01b03198216636cdb3d1360e11b148061106c57506001600160e01b031982166303a24d0760e21b145b8061103557506301ffc9a760e01b6001600160e01b0319831614611035565b600d805461109890615451565b80601f01602080910402602001604051908101604052809291908181526020018280546110c490615451565b80156111115780601f106110e657610100808354040283529160200191611111565b820191906000526020600020905b8154815290600101906020018083116110f457829003601f168201915b505050505081565b60115460609060ff1615156000036111bd57600f805461113890615451565b80601f016020809104026020016040519081016040528092919081815260200182805461116490615451565b80156111b15780601f10611186576101008083540402835291602001916111b1565b820191906000526020600020905b81548152906001019060200180831161119457829003601f168201915b50505050509050919050565b60106040516020016111cf919061548b565b6040516020818303038152906040529050919050565b6111ed61281a565b60ff811660078111156112285760405162461bcd60e51b815260206004820152600360248201526232991960e91b6044820152606401611009565b50602c805460ff191660ff92909216919091179055565b601c602052600090815260409020805461109890615451565b6001600160a01b03811660009081526007602052604090205461128d5760405162461bcd60e51b81526004016110099061551b565b600061129882611d30565b9050806000036112ba5760405162461bcd60e51b815260040161100990615561565b80600660008282546112cc91906155c2565b90915550506001600160a01b03821660009081526008602052604090208054820190556112f98282612874565b604080516001600160a01b0384168152602081018390527fdf20fd1e76bc69d672e4814fafb2c449bba3a5369d8359adf9e05e6fde87b056910160405180910390a15050565b61134761281a565b602c805462ff0000198116620100009182900460ff1615909102179055565b6001600160a01b03851633148061138257506113828533610f04565b61139e5760405162461bcd60e51b8152600401611009906155d5565b6113ab858585858561298d565b5050505050565b82336001600160a01b038216146113f05760405162461bcd60e51b8152602060048201526002602482015261194d60f21b6044820152606401611009565b33321461140f5760405162461bcd60e51b815260040161100990615623565b602c5460ff1660000361144a5760405162461bcd60e51b8152602060048201526003602482015262194c4d60ea1b6044820152606401611009565b611452612b37565b60008360ff161161148b5760405162461bcd60e51b815260206004820152600360248201526265313560e81b6044820152606401611009565b336114be5760405162461bcd60e51b815260206004820152600360248201526232989b60e91b6044820152606401611009565b8160ff166001036114d2576114d283612b90565b8160ff166002036114e6576114e683613089565b8160ff166004036114fa576114fa836134f4565b6115046001600c55565b50505050565b61151261281a565b60405133904780156108fc02916000818181858888f1935050505015801561153e573d6000803e3d6000fd5b50565b6001600160a01b0381166000908152600760205260409020546115765760405162461bcd60e51b81526004016110099061551b565b60006115828383612641565b9050806000036115a45760405162461bcd60e51b815260040161100990615561565b6001600160a01b0383166000908152600a6020526040812080548392906115cc9084906155c2565b90915550506001600160a01b038084166000908152600b60209081526040808320938616835292905220805482019055611607838383613a35565b604080516001600160a01b038481168252602082018490528516917f3be5b7a71e84ed12875d241991c70855ac5817d847039e17a9d895c1ceb0f18a910160405180910390a2505050565b606081518351146116b75760405162461bcd60e51b815260206004820152602960248201527f455243313135353a206163636f756e747320616e6420696473206c656e677468604482015268040dad2e6dac2e8c6d60bb1b6064820152608401611009565b600083516001600160401b038111156116d2576116d2614f65565b6040519080825280602002602001820160405280156116fb578160200160208202803683370190505b50905060005b84518110156117735761174685828151811061171f5761171f61563f565b60200260200101518583815181106117395761173961563f565b6020026020010151610fa2565b8282815181106117585761175861563f565b602090810291909101015261176c81615655565b9050611701565b509392505050565b61178361281a565b6011805460ff19811660ff90911615179055565b61179f61281a565b6117bb3383600160405180602001604052806000815250613a87565b5050565b6117c761281a565b602c805463ff00000019811663010000009182900460ff1615909102179055565b6117f061281a565b6117fa6000613b70565b565b61180461281a565b602455565b61181161281a565b602055565b3332146118355760405162461bcd60e51b815260040161100990615623565b61183d61281a565b602c546301000000900460ff1661187b5760405162461bcd60e51b8152602060048201526002602482015261329b60f11b6044820152606401611009565b60305460ff1615156001146118b85760405162461bcd60e51b815260206004820152600360248201526232989960e91b6044820152606401611009565b603054610100900460ff16156118f65760405162461bcd60e51b815260206004820152600360248201526265313360e81b6044820152606401611009565b611904601980546001019055565b600061190f60195490565b9050600061191e603154613bc2565b6033805460ff191660ff9390931692909217909155602f549091505b611946836103e861566e565b811015611c1957603354600090819060ff16600103611a415761271061196f84620293b861566e565b611979919061569b565b60165462ffffff919091169060ff16614e2061199887620271006156af565b62ffffff166119a791906155c2565b6119b29060016155c2565b6119bc91906155c2565b6119c691906155c2565b90506127106119d884620293b861566e565b6119e39060016155c2565b6119ed919061569b565b60165462ffffff919091169060ff16614e20611a0c87620271006156af565b62ffffff16611a1b91906155c2565b611a269060016155c2565b611a3091906155c2565b611a3a91906155c2565b9150611b1f565b612710611a5184620293b861566e565b611a5b919061569b565b60165462ffffff919091169060ff16614e20611a7a87620271006156d2565b62ffffff16611a8991906155c2565b611a949060016155c2565b611a9e91906155c2565b611aa891906155c2565b9050612710611aba84620293b861566e565b611ac59060016155c2565b611acf919061569b565b60165462ffffff919091169060ff16614e20611aee87620271006156d2565b62ffffff16611afd91906155c2565b611b089060016155c2565b611b1291906155c2565b611b1c91906155c2565b91505b60006122b8614e20611b34620222e0826155c2565b611b3e91906155c2565b611b4891906155c2565b9050808362ffffff161180611b615750808262ffffff16115b6030805461ff0019166101009215158302179081905560405160ff929091049190911615158152600080516020615c9d8339815191529060200160405180910390a1603054610100900460ff1615611bbb57505050611c19565b601654601554611bd2918491849160ff1690613c75565b60155560305460405161010090910460ff1615158152600080516020615c9d8339815191529060200160405180910390a15050508080611c1190615655565b91505061193a565b50611c26826103e861566e565b602f555050565b606082611c3983613e56565b604051602001611c4a9291906156ee565b604051602081830303815290604052905092915050565b611c6961281a565b8160ff168160ff161115611ca55760405162461bcd60e51b815260206004820152600360248201526265323360e81b6044820152606401611009565b601f805460ff9283166101000261ffff199091169290931691909117919091179055565b6000611cd361281a565b50475b90565b600060098281548110611cee57611cee61563f565b6000918252602090912001546001600160a01b031692915050565b6000611d1361281a565b503490565b600e805461109890615451565b6117bb338383613ee8565b600080611d3c60065490565b611d4690476155c2565b9050611d718382611d6c866001600160a01b031660009081526008602052604090205490565b613fc8565b9392505050565b333214611d975760405162461bcd60e51b815260040161100990615623565b611d9f61281a565b602c54610100900460ff16611ddb5760405162461bcd60e51b8152602060048201526002602482015261653560f01b6044820152606401611009565b60305460ff1615611e135760405162461bcd60e51b8152602060048201526002602482015261653960f01b6044820152606401611009565b60165460ff16601203611e3f57611e2a6011614006565b6016805460ff191660ff929092169190911790555b611e4d601780546001019055565b6000611e5860175490565b602d549091506000905b611e6e836103e861566e565b8110156120e6576000612710611e8783620293b861566e565b611e91919061569b565b60165462ffffff919091169060ff16611ead614e2060016155c2565b611eb791906155c2565b611ec191906155c2565b90506000611ed4620222e0614e206155c2565b90506000612710611ee885620293b861566e565b611ef39060016155c2565b611efd919061569b565b60165462ffffff919091169060ff16611f19614e2060016155c2565b611f2391906155c2565b611f2d91906155c2565b9050818162ffffff161180611f465750818362ffffff16115b6030805460ff1916911515918217905560405160ff90911615158152600080516020615c9d8339815191529060200160405180910390a160305460ff161561208a5762ffffff81166031819055600090611f9f90613bc2565b6033805460ff90931660ff1990931683179055915060010361202057611fcb61271063bf43804161569b565b60165462ffffff919091169060ff16614e20611fea84620222e06156af565b62ffffff16611ff991906155c2565b6120049060016155c2565b61200e91906155c2565b61201891906155c2565b603255612081565b61203061271063bf43804161569b565b60165462ffffff919091169060ff16614e2061204f84620222e06156d2565b62ffffff1661205e91906155c2565b6120699060016155c2565b61207391906155c2565b61207d91906155c2565b6032555b505050506120e6565b6016546013546120a1918591859160ff1690613c75565b60135560305460405160ff90911615158152600080516020615c9d8339815191529060200160405180910390a1509092508190506120de81615655565b915050611e62565b506120f3826103e861566e565b602d555050565b3332146121195760405162461bcd60e51b815260040161100990615623565b61212161281a565b602c5462010000900460ff1661215e5760405162461bcd60e51b8152602060048201526002602482015261653760f01b6044820152606401611009565b60305460ff16151560011461219b5760405162461bcd60e51b815260206004820152600360248201526206531360ec1b6044820152606401611009565b60305462010000900460ff16156121da5760405162461bcd60e51b815260206004820152600360248201526265313160e81b6044820152606401611009565b6121e8601880546001019055565b60006121f360185490565b90506000612202603154613bc2565b6033805460ff191660ff9390931692909217909155602e549091505b61222a836103e861566e565b8110156124f457603354600090819060ff166001036123255761271061225384620293b861566e565b61225d919061569b565b60165462ffffff919091169060ff16614e2061227c87620222e06156af565b62ffffff1661228b91906155c2565b6122969060016155c2565b6122a091906155c2565b6122aa91906155c2565b91506127106122bc84620293b861566e565b6122c79060016155c2565b6122d1919061569b565b60165462ffffff919091169060ff16614e206122f087620222e06156af565b62ffffff166122ff91906155c2565b61230a9060016155c2565b61231491906155c2565b61231e91906155c2565b9050612403565b61271061233584620293b861566e565b61233f919061569b565b60165462ffffff919091169060ff16614e2061235e87620222e06156d2565b62ffffff1661236d91906155c2565b6123789060016155c2565b61238291906155c2565b61238c91906155c2565b915061271061239e84620293b861566e565b6123a99060016155c2565b6123b3919061569b565b60165462ffffff919091169060ff16614e206123d287620222e06156d2565b62ffffff166123e191906155c2565b6123ec9060016155c2565b6123f691906155c2565b61240091906155c2565b90505b6000614e20612415620222e0826155c2565b61241f91906155c2565b9050808262ffffff1611806124385750808362ffffff16115b6030805462ff00001916620100009215158302179081905560405160ff929091049190911615158152600080516020615c9d8339815191529060200160405180910390a160305462010000900460ff1615612495575050506124f4565b6016546014546124ac918591849160ff1690613c75565b6014556030546040516201000090910460ff1615158152600080516020615c9d8339815191529060200160405180910390a150505080806124ec90615655565b91505061221e565b50612501826103e861566e565b602e555050565b61251061281a565b6000828152600360205260409020546125505760405162461bcd60e51b8152602060048201526002602482015261329960f11b6044820152606401611009565b61256d33828460016040518060200160405280600081525061275f565b6001600160a01b0381166000908152601c602052604090208054612619919061259590615451565b80601f01602080910402602001604051908101604052809291908181526020018280546125c190615451565b801561260e5780601f106125e35761010080835404028352916020019161260e565b820191906000526020600020905b8154815290600101906020018083116125f157829003601f168201915b505050505083611c2d565b6001600160a01b0382166000908152601c602052604090209061263c9082615770565b505050565b6001600160a01b0382166000908152600a602052604081205481906040516370a0823160e01b81523060048201526001600160a01b038616906370a0823190602401602060405180830381865afa1580156126a0573d6000803e3d6000fd5b505050506040513d601f19601f820116820180604052508101906126c4919061582f565b6126ce91906155c2565b6001600160a01b038086166000908152600b60209081526040808320938816835292905220549091506127049084908390613fc8565b949350505050565b61271461281a565b602855565b61272161281a565b602c805461ff001981166101009182900460ff1615909102179055565b602b818154811061274e57600080fd5b600091825260209091200154905081565b6001600160a01b03851633148061277b575061277b8533610f04565b6127975760405162461bcd60e51b8152600401611009906155d5565b6113ab858585858561401f565b6127ac61281a565b6001600160a01b0381166128115760405162461bcd60e51b815260206004820152602660248201527f4f776e61626c653a206e6577206f776e657220697320746865207a65726f206160448201526564647265737360d01b6064820152608401611009565b61153e81613b70565b6004546001600160a01b031633146117fa5760405162461bcd60e51b815260206004820181905260248201527f4f776e61626c653a2063616c6c6572206973206e6f7420746865206f776e65726044820152606401611009565b804710156128c45760405162461bcd60e51b815260206004820152601d60248201527f416464726573733a20696e73756666696369656e742062616c616e63650000006044820152606401611009565b6000826001600160a01b03168260405160006040518083038185875af1925050503d8060008114612911576040519150601f19603f3d011682016040523d82523d6000602084013e612916565b606091505b505090508061263c5760405162461bcd60e51b815260206004820152603a60248201527f416464726573733a20756e61626c6520746f2073656e642076616c75652c207260448201527f6563697069656e74206d617920686176652072657665727465640000000000006064820152608401611009565b81518351146129ae5760405162461bcd60e51b815260040161100990615848565b6001600160a01b0384166129d45760405162461bcd60e51b815260040161100990615890565b336129e381878787878761414c565b60005b8451811015612ac9576000858281518110612a0357612a0361563f565b602002602001015190506000858381518110612a2157612a2161563f565b602090810291909101810151600084815280835260408082206001600160a01b038e168352909352919091205490915081811015612a715760405162461bcd60e51b8152600401611009906158d5565b6000838152602081815260408083206001600160a01b038e8116855292528083208585039055908b16825281208054849290612aae9084906155c2565b9250508190555050505080612ac290615655565b90506129e6565b50846001600160a01b0316866001600160a01b0316826001600160a01b03167f4a39dc06d4c0dbc64b70af90fd698a233a518aa5d07e595d983b8c0526c8f7fb8787604051612b1992919061591f565b60405180910390a4612b2f8187878787876142c5565b505050505050565b6002600c5403612b895760405162461bcd60e51b815260206004820152601f60248201527f5265656e7472616e637947756172643a207265656e7472616e742063616c6c006044820152606401611009565b6002600c55565b602c54600090600190811614612bb85760405162461bcd60e51b81526004016110099061594d565b336000908152601e6020526040902054606460ff9091161115612bed5760405162461bcd60e51b81526004016110099061596a565b602360ff83161115612c115760405162461bcd60e51b815260040161100990615987565b336000908152601e6020526040902054606490612c3290849060ff166159a4565b60ff161115612c6057336000908152601e6020526040902054612c599060ff1660646159bd565b9150600190505b600080600080612ccd866202bf21602a546122b8610457602b805480602002602001604051908101604052809291908181526020018280548015612cc357602002820191906000526020600020905b815481526020019060010190808311612caf575b5050505050614420565b93509350935093508560ff168360ff1614612ce757600194505b6028543490612cfa9060ff86169061566e565b811015612d195760405162461bcd60e51b8152600401611009906159d6565b6004546001600160a01b03166001600160a01b03166108fc8560ff16602854612d42919061566e565b6040518115909202916000818181858888f19350505050158015612d6a573d6000803e3d6000fd5b5060008460ff166001600160401b03811115612d8857612d88614f65565b604051908082528060200260200182016040528015612db1578160200160208202803683370190505b50905060008560ff166001600160401b03811115612dd157612dd1614f65565b604051908082528060200260200182016040528015612dfa578160200160208202803683370190505b50905060005b8660ff16811015612e6457612e1581896155c2565b838281518110612e2757612e2761563f565b6020026020010181815250506001828281518110612e4757612e4761563f565b602090810291909101015280612e5c81615655565b915050612e00565b50612e80338383604051806020016040528060008152506145bb565b60005b8660ff16811015612ef25733601d6000858481518110612ea557612ea561563f565b6020026020010151815260200190815260200160002060006101000a8154816001600160a01b0302191690836001600160a01b031602179055508080612eea90615655565b915050612e83565b508151336000908152601e6020526040902054612f12919060ff166155c2565b336000908152601e60205260409020805460ff191660ff928316179055602a869055602b8054888316928716908110612f4d57612f4d61563f565b9060005260206000200154612f6291906155c2565b602b8560ff1681548110612f7857612f7861563f565b90600052602060002001819055508560ff1660296000828254612f9b91906155c2565b90915550506029546122b811612fbf57602c805463ff000000191663010000001790555b336000818152601e60205260409020547fdf6bd66365a8c4ede51660159bba6757ea60b0815714ebd8534054d929f3337f9060ff168461300060018b6159bd565b60ff16815181106130135761301361563f565b602002602001015160405161303792919060ff929092168252602082015260400190565b60405180910390a2871561307e5760405160ff8716815233907faf3c443bb05b163e7d42de9f4b11bdbfa307cad571a1ae5013e5e2ee92e66ed29060200160405180910390a25b505050505050505050565b602c546000906002908116146130b15760405162461bcd60e51b81526004016110099061594d565b336000908152601e6020526040902054606460ff90911611156130e65760405162461bcd60e51b81526004016110099061596a565b602360ff8316111561310a5760405162461bcd60e51b815260040161100990615987565b336000908152601e602052604090205460649061312b90849060ff166159a4565b60ff16111561315957336000908152601e60205260409020546131529060ff1660646159bd565b9150600190505b6000806000806131c48662027101602654614e206103e86027805480602002602001604051908101604052809291908181526020018280548015612cc35760200282019190600052602060002090815481526020019060010190808311612caf575050505050614420565b93509350935093508560ff168360ff16146131de57600194505b60245434906131f19060ff86169061566e565b8110156132105760405162461bcd60e51b8152600401611009906159d6565b6004546001600160a01b03166001600160a01b03166108fc8560ff16602454613239919061566e565b6040518115909202916000818181858888f19350505050158015613261573d6000803e3d6000fd5b5060008460ff166001600160401b0381111561327f5761327f614f65565b6040519080825280602002602001820160405280156132a8578160200160208202803683370190505b50905060008560ff166001600160401b038111156132c8576132c8614f65565b6040519080825280602002602001820160405280156132f1578160200160208202803683370190505b50905060005b8660ff1681101561335b5761330c81896155c2565b83828151811061331e5761331e61563f565b602002602001018181525050600182828151811061333e5761333e61563f565b60209081029190910101528061335381615655565b9150506132f7565b50613377338383604051806020016040528060008152506145bb565b60005b8660ff168110156133e95733601d600085848151811061339c5761339c61563f565b6020026020010151815260200190815260200160002060006101000a8154816001600160a01b0302191690836001600160a01b0316021790555080806133e190615655565b91505061337a565b508151336000908152601e6020526040902054613409919060ff166155c2565b336000908152601e60205260409020805460ff191660ff9283161790556026869055602780548883169287169081106134445761344461563f565b906000526020600020015461345991906155c2565b60278560ff168154811061346f5761346f61563f565b90600052602060002001819055508560ff166025600082825461349291906155c2565b9091555050602554614e2011612fbf57602c805462ff0000191662010000179055336000818152601e60205260409020547fdf6bd66365a8c4ede51660159bba6757ea60b0815714ebd8534054d929f3337f9060ff168461300060018b6159bd565b602c5460009060049081161461351c5760405162461bcd60e51b81526004016110099061594d565b336000908152601e6020526040902054606460ff90911611156135515760405162461bcd60e51b81526004016110099061596a565b602360ff831611156135755760405162461bcd60e51b815260040161100990615987565b336000908152601e602052604090205460649061359690849060ff166159a4565b60ff1611156135c457336000908152601e60205260409020546135bd9060ff1660646159bd565b9150600190505b60008060008061362f86614e21602254620222e06127106023805480602002602001604051908101604052809291908181526020018280548015612cc35760200282019190600052602060002090815481526020019060010190808311612caf575050505050614420565b93509350935093508560ff168360ff161461364957600194505b602054600560ff8516108015906136635750600a8460ff16105b1561368a5760056020546004613679919061566e565b613683919061569b565b90506136a7565b600a8460ff16106136a75760026020546136a4919061569b565b90505b346136b560ff86168361566e565b8110156136d45760405162461bcd60e51b8152600401611009906159d6565b6004546001600160a01b03166108fc6136f060ff88168561566e565b6040518115909202916000818181858888f19350505050158015613718573d6000803e3d6000fd5b5060008560ff166001600160401b0381111561373657613736614f65565b60405190808252806020026020018201604052801561375f578160200160208202803683370190505b50905060008660ff166001600160401b0381111561377f5761377f614f65565b6040519080825280602002602001820160405280156137a8578160200160208202803683370190505b50905060005b8760ff16811015613812576137c3818a6155c2565b8382815181106137d5576137d561563f565b60200260200101818152505060018282815181106137f5576137f561563f565b60209081029190910101528061380a81615655565b9150506137ae565b5061382e338383604051806020016040528060008152506145bb565b60005b8760ff168110156138a05733601d60008584815181106138535761385361563f565b6020026020010151815260200190815260200160002060006101000a8154816001600160a01b0302191690836001600160a01b03160217905550808061389890615655565b915050613831565b508151336000908152601e60205260409020546138c0919060ff166155c2565b336000908152601e60205260409020805460ff191660ff9283161790556022879055602380548983169288169081106138fb576138fb61563f565b906000526020600020015461391091906155c2565b60238660ff16815481106139265761392661563f565b90600052602060002001819055508660ff166021600082825461394991906155c2565b9091555050602154620222e01161396a57602c805461ff0019166101001790555b336000818152601e60205260409020547fdf6bd66365a8c4ede51660159bba6757ea60b0815714ebd8534054d929f3337f9060ff16846139ab60018c6159bd565b60ff16815181106139be576139be61563f565b60200260200101516040516139e292919060ff929092168252602082015260400190565b60405180910390a28815613a295760405160ff8816815233907faf3c443bb05b163e7d42de9f4b11bdbfa307cad571a1ae5013e5e2ee92e66ed29060200160405180910390a25b50505050505050505050565b604080516001600160a01b038416602482015260448082018490528251808303909101815260649091019091526020810180516001600160e01b031663a9059cbb60e01b17905261263c908490614715565b6001600160a01b038416613aad5760405162461bcd60e51b8152600401611009906159f3565b336000613ab9856147e7565b90506000613ac6856147e7565b9050613ad78360008985858961414c565b6000868152602081815260408083206001600160a01b038b16845290915281208054879290613b079084906155c2565b909155505060408051878152602081018790526001600160a01b03808a1692600092918716917fc3d58168c5ae7397731d063d5bbf3d657854427343f4c083240f7aacaa2d0f62910160405180910390a4613b6783600089898989614832565b50505050505050565b600480546001600160a01b038381166001600160a01b0319831681179093556040519116919082907f8be0079c531659141344cd1fd0a4f28419497f9722a3daafe3b4186f6b6457e090600090a35050565b601654600090819060ff16613bdc614e20620222e06155c2565b613be79060016155c2565b613bf191906155c2565b62ffffff168310613c3c5760165460019060ff16613c14614e20620222e06155c2565b613c1f9060016155c2565b613c2991906155c2565b613c3390856156d2565b91509150915091565b601654600090849060ff16613c56614e20620222e06155c2565b613c619060016155c2565b613c6b91906155c2565b613c3391906156d2565b60007f447b8744ce19b4ec182a865f10546affad5cb63bee7fbf1f4733554d3644a8d085613ca660ff861687615a34565b6040805162ffffff909316835260208301919091520160405180910390a16000613cd48662ffffff166148ed565b90506001600160a01b03811615613e4c576000613cef614952565b9050613d0d3382600160405180602001604052806000815250613a87565b613d2a33838360016040518060200160405280600081525061275f565b613d356001856155c2565b6001600160a01b0383166000908152601c602052604090208054919550613de391613d5f90615451565b80601f0160208091040260200160405190810160405280929190818152602001828054613d8b90615451565b8015613dd85780601f10613dad57610100808354040283529160200191613dd8565b820191906000526020600020905b815481529060010190602001808311613dbb57829003601f168201915b505050505082611c2d565b6001600160a01b0383166000908152601c6020526040902090613e069082615770565b50816001600160a01b03167ffbc825a9dbec6ba579c678650f97fd1adaab5d895472fb72d1be4a0982ed8c1982604051613e4291815260200190565b60405180910390a2505b5090949350505050565b60606000613e6383614c46565b60010190506000816001600160401b03811115613e8257613e82614f65565b6040519080825280601f01601f191660200182016040528015613eac576020820181803683370190505b5090508181016020015b600019016f181899199a1a9b1b9c1cb0b131b232b360811b600a86061a8153600a8504945084613eb657509392505050565b816001600160a01b0316836001600160a01b031603613f5b5760405162461bcd60e51b815260206004820152602960248201527f455243313135353a2073657474696e6720617070726f76616c20737461747573604482015268103337b91039b2b63360b91b6064820152608401611009565b6001600160a01b03838116600081815260016020908152604080832094871680845294825291829020805460ff191686151590811790915591519182527f17307eab39ab6107e8899845ad3d59bd9653f200f220920489ca2b5937696c31910160405180910390a3505050565b6005546001600160a01b03841660009081526007602052604081205490918391613ff2908661566e565b613ffc919061569b565b6127049190615a34565b600081614014600143615a34565b611035919040615a47565b6001600160a01b0384166140455760405162461bcd60e51b815260040161100990615890565b336000614051856147e7565b9050600061405e856147e7565b905061406e83898985858961414c565b6000868152602081815260408083206001600160a01b038c168452909152902054858110156140af5760405162461bcd60e51b8152600401611009906158d5565b6000878152602081815260408083206001600160a01b038d8116855292528083208985039055908a168252812080548892906140ec9084906155c2565b909155505060408051888152602081018890526001600160a01b03808b16928c821692918816917fc3d58168c5ae7397731d063d5bbf3d657854427343f4c083240f7aacaa2d0f62910160405180910390a461307e848a8a8a8a8a614832565b6001600160a01b0385166141d35760005b83518110156141d1578281815181106141785761417861563f565b6020026020010151600360008684815181106141965761419661563f565b6020026020010151815260200190815260200160002060008282546141bb91906155c2565b909155506141ca905081615655565b905061415d565b505b6001600160a01b038416612b2f5760005b8351811015613b675760008482815181106142015761420161563f565b60200260200101519050600084838151811061421f5761421f61563f565b60200260200101519050600060036000848152602001908152602001600020549050818110156142a25760405162461bcd60e51b815260206004820152602860248201527f455243313135353a206275726e20616d6f756e74206578636565647320746f74604482015267616c537570706c7960c01b6064820152608401611009565b600092835260036020526040909220910390556142be81615655565b90506141e4565b6001600160a01b0384163b15612b2f5760405163bc197c8160e01b81526001600160a01b0385169063bc197c81906143099089908990889088908890600401615a5b565b6020604051808303816000875af1925050508015614344575060408051601f3d908101601f1916820190925261434191810190615ab9565b60015b6143f057614350615ad6565b806308c379a0036143895750614364615af1565b8061436f575061438b565b8060405162461bcd60e51b81526004016110099190614eeb565b505b60405162461bcd60e51b815260206004820152603460248201527f455243313135353a207472616e7366657220746f206e6f6e2d455243313135356044820152732932b1b2b4bb32b91034b6b83632b6b2b73a32b960611b6064820152608401611009565b6001600160e01b0319811663bc197c8160e01b14613b675760405162461bcd60e51b815260040161100990615b7a565b60008060008086881061445b5760405162461bcd60e51b815260206004820152600360248201526206532360ec1b6044820152606401611009565b600061446f61446a888a61569b565b614006565b905060005b61447e888a61569b565b8160ff16146144fb5787878360ff168151811061449d5761449d61563f565b6020026020010151036144e45760016144b6898b61569b565b6144c09190615a34565b8260ff16036144d257600091506144e9565b816144dc81615bc2565b9250506144e9565b6144fb565b806144f381615bc2565b915050614474565b600061450a8960ff851661566e565b888460ff168151811061451f5761451f61563f565b602002602001015161453191906155c2565b9050888d60ff16898560ff168151811061454d5761454d61563f565b602002602001015161455f91906155c2565b111561459057878360ff168151811061457a5761457a61563f565b60200260200101518961458d9190615a34565b9c505b61459d8b60ff8f166155c2565b9a506145a98c826155c2565b9d9a9b50919998505050505050505050565b6001600160a01b0384166145e15760405162461bcd60e51b8152600401611009906159f3565b81518351146146025760405162461bcd60e51b815260040161100990615848565b336146128160008787878761414c565b60005b84518110156146ad578381815181106146305761463061563f565b602002602001015160008087848151811061464d5761464d61563f565b602002602001015181526020019081526020016000206000886001600160a01b03166001600160a01b03168152602001908152602001600020600082825461469591906155c2565b909155508190506146a581615655565b915050614615565b50846001600160a01b031660006001600160a01b0316826001600160a01b03167f4a39dc06d4c0dbc64b70af90fd698a233a518aa5d07e595d983b8c0526c8f7fb87876040516146fe92919061591f565b60405180910390a46113ab816000878787876142c5565b600061476a826040518060400160405280602081526020017f5361666545524332303a206c6f772d6c6576656c2063616c6c206661696c6564815250856001600160a01b0316614d1e9092919063ffffffff16565b80519091501561263c57808060200190518101906147889190615be1565b61263c5760405162461bcd60e51b815260206004820152602a60248201527f5361666545524332303a204552433230206f7065726174696f6e20646964206e6044820152691bdd081cdd58d8d9595960b21b6064820152608401611009565b604080516001808252818301909252606091600091906020808301908036833701905050905082816000815181106148215761482161563f565b602090810291909101015292915050565b6001600160a01b0384163b15612b2f5760405163f23a6e6160e01b81526001600160a01b0385169063f23a6e61906148769089908990889088908890600401615bfe565b6020604051808303816000875af19250505080156148b1575060408051601f3d908101601f191682019092526148ae91810190615ab9565b60015b6148bd57614350615ad6565b6001600160e01b0319811663f23a6e6160e01b14613b675760405162461bcd60e51b815260040161100990615b7a565b6000818152600360205260408120541515801561492957506000828152601d6020526040812054614927906001600160a01b031684610fa2565b115b1561494a57506000908152601d60205260409020546001600160a01b031690565b506000919050565b601a54600090614e206001600160401b03909116106149985760405162461bcd60e51b81526020600482015260026024820152610ca760f31b6044820152606401611009565b601b546000906149a790614006565b905060005b601b5460ff9081169082161015614a3c57601b546149cc90614e2061569b565b601b8360ff16815481106149e2576149e261563f565b906000526020600020015403614a2557601b54614a0190600190615a34565b8260ff1603614a135760009150614a2a565b81614a1d81615bc2565b925050614a2a565b614a3c565b80614a3481615bc2565b9150506149ac565b6000614a4a60026064615c38565b60ff16601b8460ff1681548110614a6357614a6361563f565b90600052602060002001541015614acb57614a82606460ff851661566e565b601b8460ff1681548110614a9857614a9861563f565b90600052602060002001546001614aaf91906155c2565b614aba90600261566e565b614ac491906155c2565b9050614bc9565b60ff8316158015614b095750614ae360026064615c38565b60ff16601b8460ff1681548110614afc57614afc61563f565b9060005260206000200154145b15614b5e57601b8360ff1681548110614b2457614b2461563f565b90600052602060002001546002614b3b91906155c2565b601b8460ff1681548110614b5157614b5161563f565b6000918252602090912001555b614b6c606460ff851661566e565b614b7860026064615c38565b60ff16601b8560ff1681548110614b9157614b9161563f565b9060005260206000200154614ba69190615a34565b614bb190600261566e565b614bbc9060016155c2565b614bc691906155c2565b90505b6001601b8460ff1681548110614be157614be161563f565b906000526020600020016000828254614bfa91906155c2565b9091555050601a80546001600160401b0316906000614c1883615c5a565b91906101000a8154816001600160401b0302191690836001600160401b031602179055505080935050505090565b60008072184f03e93ff9f4daa797ed6e38ed64bf6a1f0160401b8310614c855772184f03e93ff9f4daa797ed6e38ed64bf6a1f0160401b830492506040015b6d04ee2d6d415b85acef81000000008310614cb1576d04ee2d6d415b85acef8100000000830492506020015b662386f26fc100008310614ccf57662386f26fc10000830492506010015b6305f5e1008310614ce7576305f5e100830492506008015b6127108310614cfb57612710830492506004015b60648310614d0d576064830492506002015b600a83106110355760010192915050565b6060612704848460008585600080866001600160a01b03168587604051614d459190615c80565b60006040518083038185875af1925050503d8060008114614d82576040519150601f19603f3d011682016040523d82523d6000602084013e614d87565b606091505b5091509150614d9887838387614da3565b979650505050505050565b60608315614e12578251600003614e0b576001600160a01b0385163b614e0b5760405162461bcd60e51b815260206004820152601d60248201527f416464726573733a2063616c6c20746f206e6f6e2d636f6e74726163740000006044820152606401611009565b5081612704565b612704838381511561436f5781518083602001fd5b6001600160a01b038116811461153e57600080fd5b60008060408385031215614e4f57600080fd5b8235614e5a81614e27565b946020939093013593505050565b6001600160e01b03198116811461153e57600080fd5b600060208284031215614e9057600080fd5b8135611d7181614e68565b60005b83811015614eb6578181015183820152602001614e9e565b50506000910152565b60008151808452614ed7816020860160208601614e9b565b601f01601f19169290920160200192915050565b602081526000611d716020830184614ebf565b600060208284031215614f1057600080fd5b5035919050565b803560ff81168114614f2857600080fd5b919050565b600060208284031215614f3f57600080fd5b611d7182614f17565b600060208284031215614f5a57600080fd5b8135611d7181614e27565b634e487b7160e01b600052604160045260246000fd5b601f8201601f191681016001600160401b0381118282101715614fa057614fa0614f65565b6040525050565b60006001600160401b03821115614fc057614fc0614f65565b5060051b60200190565b600082601f830112614fdb57600080fd5b81356020614fe882614fa7565b604051614ff58282614f7b565b83815260059390931b850182019282810191508684111561501557600080fd5b8286015b848110156150305780358352918301918301615019565b509695505050505050565b60006001600160401b0383111561505457615054614f65565b60405161506b601f8501601f191660200182614f7b565b80915083815284848401111561508057600080fd5b83836020830137600060208583010152509392505050565b600082601f8301126150a957600080fd5b611d718383356020850161503b565b600080600080600060a086880312156150d057600080fd5b85356150db81614e27565b945060208601356150eb81614e27565b935060408601356001600160401b038082111561510757600080fd5b61511389838a01614fca565b9450606088013591508082111561512957600080fd5b61513589838a01614fca565b9350608088013591508082111561514b57600080fd5b5061515888828901615098565b9150509295509295909350565b60008060006060848603121561517a57600080fd5b833561518581614e27565b925061519360208501614f17565b91506151a160408501614f17565b90509250925092565b600080604083850312156151bd57600080fd5b82356151c881614e27565b915060208301356151d881614e27565b809150509250929050565b600080604083850312156151f657600080fd5b82356001600160401b038082111561520d57600080fd5b818501915085601f83011261522157600080fd5b8135602061522e82614fa7565b60405161523b8282614f7b565b83815260059390931b850182019282810191508984111561525b57600080fd5b948201945b8386101561528257853561527381614e27565b82529482019490820190615260565b9650508601359250508082111561529857600080fd5b506152a585828601614fca565b9150509250929050565b600081518084526020808501945080840160005b838110156152df578151875295820195908201906001016152c3565b509495945050505050565b602081526000611d7160208301846152af565b6000806040838503121561531057600080fd5b8235915060208301356151d881614e27565b6000806040838503121561533557600080fd5b82356001600160401b0381111561534b57600080fd5b8301601f8101851361535c57600080fd5b61536b8582356020840161503b565b95602094909401359450505050565b6000806040838503121561538d57600080fd5b61539683614f17565b91506153a460208401614f17565b90509250929050565b801515811461153e57600080fd5b600080604083850312156153ce57600080fd5b82356153d981614e27565b915060208301356151d8816153ad565b600080600080600060a0868803121561540157600080fd5b853561540c81614e27565b9450602086013561541c81614e27565b9350604086013592506060860135915060808601356001600160401b0381111561544557600080fd5b61515888828901615098565b600181811c9082168061546557607f821691505b60208210810361548557634e487b7160e01b600052602260045260246000fd5b50919050565b600080835461549981615451565b600182811680156154b157600181146154c6576154f5565b60ff19841687528215158302870194506154f5565b8760005260208060002060005b858110156154ec5781548a8201529084019082016154d3565b50505082870194505b5050637b69647d60e01b8352505064173539b7b760d91b60048201526009019392505050565b60208082526026908201527f5061796d656e7453706c69747465723a206163636f756e7420686173206e6f2060408201526573686172657360d01b606082015260800190565b6020808252602b908201527f5061796d656e7453706c69747465723a206163636f756e74206973206e6f742060408201526a191d59481c185e5b595b9d60aa1b606082015260800190565b634e487b7160e01b600052601160045260246000fd5b80820180821115611035576110356155ac565b6020808252602e908201527f455243313135353a2063616c6c6572206973206e6f7420746f6b656e206f776e60408201526d195c881bdc88185c1c1c9bdd995960921b606082015260800190565b602080825260029082015261653360f01b604082015260600190565b634e487b7160e01b600052603260045260246000fd5b600060018201615667576156676155ac565b5060010190565b8082028115828204841417611035576110356155ac565b634e487b7160e01b600052601260045260246000fd5b6000826156aa576156aa615685565b500490565b62ffffff8181168382160190808211156156cb576156cb6155ac565b5092915050565b62ffffff8281168282160390808211156156cb576156cb6155ac565b60008351615700818460208801614e9b565b600b60fa1b908301908152835161571e816001840160208801614e9b565b01600101949350505050565b601f82111561263c57600081815260208120601f850160051c810160208610156157515750805b601f850160051c820191505b81811015612b2f5782815560010161575d565b81516001600160401b0381111561578957615789614f65565b61579d816157978454615451565b8461572a565b602080601f8311600181146157d257600084156157ba5750858301515b600019600386901b1c1916600185901b178555612b2f565b600085815260208120601f198616915b82811015615801578886015182559484019460019091019084016157e2565b508582101561581f5787850151600019600388901b60f8161c191681555b5050505050600190811b01905550565b60006020828403121561584157600080fd5b5051919050565b60208082526028908201527f455243313135353a2069647320616e6420616d6f756e7473206c656e677468206040820152670dad2e6dac2e8c6d60c31b606082015260800190565b60208082526025908201527f455243313135353a207472616e7366657220746f20746865207a65726f206164604082015264647265737360d81b606082015260800190565b6020808252602a908201527f455243313135353a20696e73756666696369656e742062616c616e636520666f60408201526939103a3930b739b332b960b11b606082015260800190565b60408152600061593260408301856152af565b828103602084015261594481856152af565b95945050505050565b60208082526003908201526265323160e81b604082015260600190565b60208082526003908201526265313760e81b604082015260600190565b6020808252600390820152620ca62760eb1b604082015260600190565b60ff8181168382160190811115611035576110356155ac565b60ff8281168282160390811115611035576110356155ac565b60208082526003908201526265313960e81b604082015260600190565b60208082526021908201527f455243313135353a206d696e7420746f20746865207a65726f206164647265736040820152607360f81b606082015260800190565b81810381811115611035576110356155ac565b600082615a5657615a56615685565b500690565b6001600160a01b0386811682528516602082015260a060408201819052600090615a87908301866152af565b8281036060840152615a9981866152af565b90508281036080840152615aad8185614ebf565b98975050505050505050565b600060208284031215615acb57600080fd5b8151611d7181614e68565b600060033d1115611cd65760046000803e5060005160e01c90565b600060443d1015615aff5790565b6040516003193d81016004833e81513d6001600160401b038160248401118184111715615b2e57505050505090565b8285019150815181811115615b465750505050505090565b843d8701016020828501011115615b605750505050505090565b615b6f60208286010187614f7b565b509095945050505050565b60208082526028908201527f455243313135353a204552433131353552656365697665722072656a656374656040820152676420746f6b656e7360c01b606082015260800190565b600060ff821660ff8103615bd857615bd86155ac565b60010192915050565b600060208284031215615bf357600080fd5b8151611d71816153ad565b6001600160a01b03868116825285166020820152604081018490526060810183905260a060808201819052600090614d9890830184614ebf565b600060ff831680615c4b57615c4b615685565b8060ff84160491505092915050565b60006001600160401b03808316818103615c7657615c766155ac565b6001019392505050565b60008251615c92818460208701614e9b565b919091019291505056fe7b7d25f8a91d07d734c2f45d6dd20e28016c3648b97f80270c65a2a565e62025a26469706673582212203bb5b8a7910ee21cf63aad6c327978b6b7986b0744650bf98980e1d6a6c5e2c864736f6c63430008110033",
  "linkReferences": {},
  "deployedLinkReferences": {}
}