{
  "_format": "hh-sol-artifact-1",
  "contractName": "Vipsland",
  "sourceName": "contracts/Vipsland.sol",
  "abi": [
    {
      "inputs": [
        {
          "internalType": "address[]",
          "name": "_team",
          "type": "address[]"
        },
        {
          "internalType": "uint256[]",
          "name": "_teamShares",
          "type": "uint256[]"
        },
        {
          "internalType": "string",
          "name": "_notRevealedUri",
          "type": "string"
        },
        {
          "internalType": "string",
          "name": "_revealedUri",
          "type": "string"
        },
        {
          "internalType": "bytes32",
          "name": "merkleroot",
          "type": "bytes32"
        }
      ],
      "stateMutability": "nonpayable",
      "type": "constructor"
    },
    {
      "anonymous": false,
      "inputs": [
        {
          "indexed": true,
          "internalType": "address",
          "name": "account",
          "type": "address"
        },
        {
          "indexed": true,
          "internalType": "address",
          "name": "operator",
          "type": "address"
        },
        {
          "indexed": false,
          "internalType": "bool",
          "name": "approved",
          "type": "bool"
        }
      ],
      "name": "ApprovalForAll",
      "type": "event"
    },
    {
      "anonymous": false,
      "inputs": [
        {
          "indexed": false,
          "internalType": "uint256",
          "name": "tokenMPID",
          "type": "uint256"
        }
      ],
      "name": "DebugMP",
      "type": "event"
    },
    {
      "anonymous": false,
      "inputs": [
        {
          "indexed": true,
          "internalType": "address",
          "name": "acc",
          "type": "address"
        },
        {
          "indexed": false,
          "internalType": "uint256",
          "name": "minted_amount",
          "type": "uint256"
        },
        {
          "indexed": false,
          "internalType": "uint256",
          "name": "last_minted_NONMPID",
          "type": "uint256"
        }
      ],
      "name": "DitributePRTs",
      "type": "event"
    },
    {
      "anonymous": false,
      "inputs": [
        {
          "indexed": true,
          "internalType": "contract IERC20",
          "name": "token",
          "type": "address"
        },
        {
          "indexed": false,
          "internalType": "address",
          "name": "to",
          "type": "address"
        },
        {
          "indexed": false,
          "internalType": "uint256",
          "name": "amount",
          "type": "uint256"
        }
      ],
      "name": "ERC20PaymentReleased",
      "type": "event"
    },
    {
      "anonymous": false,
      "inputs": [
        {
          "indexed": false,
          "internalType": "bool",
          "name": "sendMPAllDone",
          "type": "bool"
        }
      ],
      "name": "MPAllDone",
      "type": "event"
    },
    {
      "anonymous": false,
      "inputs": [
        {
          "indexed": true,
          "internalType": "address",
          "name": "previousOwner",
          "type": "address"
        },
        {
          "indexed": true,
          "internalType": "address",
          "name": "newOwner",
          "type": "address"
        }
      ],
      "name": "OwnershipTransferred",
      "type": "event"
    },
    {
      "anonymous": false,
      "inputs": [
        {
          "indexed": false,
          "internalType": "address",
          "name": "account",
          "type": "address"
        },
        {
          "indexed": false,
          "internalType": "uint256",
          "name": "shares",
          "type": "uint256"
        }
      ],
      "name": "PayeeAdded",
      "type": "event"
    },
    {
      "anonymous": false,
      "inputs": [
        {
          "indexed": false,
          "internalType": "address",
          "name": "from",
          "type": "address"
        },
        {
          "indexed": false,
          "internalType": "uint256",
          "name": "amount",
          "type": "uint256"
        }
      ],
      "name": "PaymentReceived",
      "type": "event"
    },
    {
      "anonymous": false,
      "inputs": [
        {
          "indexed": false,
          "internalType": "address",
          "name": "to",
          "type": "address"
        },
        {
          "indexed": false,
          "internalType": "uint256",
          "name": "amount",
          "type": "uint256"
        }
      ],
      "name": "PaymentReleased",
      "type": "event"
    },
    {
      "anonymous": false,
      "inputs": [
        {
          "indexed": true,
          "internalType": "address",
          "name": "acc",
          "type": "address"
        },
        {
          "indexed": false,
          "internalType": "uint256",
          "name": "qnt",
          "type": "uint256"
        }
      ],
      "name": "RemainMessageNeeds",
      "type": "event"
    },
    {
      "anonymous": false,
      "inputs": [
        {
          "indexed": false,
          "internalType": "uint256",
          "name": "_winnerTokenNONMPID",
          "type": "uint256"
        },
        {
          "indexed": false,
          "internalType": "uint256",
          "name": "max_nonmpid_minus_xrand",
          "type": "uint256"
        }
      ],
      "name": "SelectedNONMPIDTokens",
      "type": "event"
    },
    {
      "anonymous": false,
      "inputs": [
        {
          "indexed": true,
          "internalType": "address",
          "name": "operator",
          "type": "address"
        },
        {
          "indexed": true,
          "internalType": "address",
          "name": "from",
          "type": "address"
        },
        {
          "indexed": true,
          "internalType": "address",
          "name": "to",
          "type": "address"
        },
        {
          "indexed": false,
          "internalType": "uint256[]",
          "name": "ids",
          "type": "uint256[]"
        },
        {
          "indexed": false,
          "internalType": "uint256[]",
          "name": "values",
          "type": "uint256[]"
        }
      ],
      "name": "TransferBatch",
      "type": "event"
    },
    {
      "anonymous": false,
      "inputs": [
        {
          "indexed": true,
          "internalType": "address",
          "name": "operator",
          "type": "address"
        },
        {
          "indexed": true,
          "internalType": "address",
          "name": "from",
          "type": "address"
        },
        {
          "indexed": true,
          "internalType": "address",
          "name": "to",
          "type": "address"
        },
        {
          "indexed": false,
          "internalType": "uint256",
          "name": "id",
          "type": "uint256"
        },
        {
          "indexed": false,
          "internalType": "uint256",
          "name": "value",
          "type": "uint256"
        }
      ],
      "name": "TransferSingle",
      "type": "event"
    },
    {
      "anonymous": false,
      "inputs": [
        {
          "indexed": false,
          "internalType": "string",
          "name": "value",
          "type": "string"
        },
        {
          "indexed": true,
          "internalType": "uint256",
          "name": "id",
          "type": "uint256"
        }
      ],
      "name": "URI",
      "type": "event"
    },
    {
      "anonymous": false,
      "inputs": [
        {
          "indexed": true,
          "internalType": "address",
          "name": "acc",
          "type": "address"
        },
        {
          "indexed": false,
          "internalType": "uint256",
          "name": "winnerTokenPRTID",
          "type": "uint256"
        }
      ],
      "name": "WinnersMP",
      "type": "event"
    },
    {
      "inputs": [],
      "name": "EACH_RAND_SLOT_NUM_TOTAL_FOR_AIRDROP",
      "outputs": [
        {
          "internalType": "uint256",
          "name": "",
          "type": "uint256"
        }
      ],
      "stateMutability": "view",
      "type": "function"
    },
    {
      "inputs": [],
      "name": "EACH_RAND_SLOT_NUM_TOTAL_FOR_INTERNALTEAM",
      "outputs": [
        {
          "internalType": "uint256",
          "name": "",
          "type": "uint256"
        }
      ],
      "stateMutability": "view",
      "type": "function"
    },
    {
      "inputs": [],
      "name": "EACH_RAND_SLOT_NUM_TOTAL_FOR_PRT",
      "outputs": [
        {
          "internalType": "uint256",
          "name": "",
          "type": "uint256"
        }
      ],
      "stateMutability": "view",
      "type": "function"
    },
    {
      "inputs": [],
      "name": "MAX_PRT_AMOUNT_PER_ACC",
      "outputs": [
        {
          "internalType": "uint8",
          "name": "",
          "type": "uint8"
        }
      ],
      "stateMutability": "view",
      "type": "function"
    },
    {
      "inputs": [],
      "name": "MAX_PRT_AMOUNT_PER_ACC_AIRDROP",
      "outputs": [
        {
          "internalType": "uint8",
          "name": "",
          "type": "uint8"
        }
      ],
      "stateMutability": "view",
      "type": "function"
    },
    {
      "inputs": [],
      "name": "MAX_PRT_AMOUNT_PER_ACC_INTERNAL",
      "outputs": [
        {
          "internalType": "uint8",
          "name": "",
          "type": "uint8"
        }
      ],
      "stateMutability": "view",
      "type": "function"
    },
    {
      "inputs": [],
      "name": "MAX_PRT_AMOUNT_PER_ACC_PER_TRANSACTION",
      "outputs": [
        {
          "internalType": "uint8",
          "name": "",
          "type": "uint8"
        }
      ],
      "stateMutability": "view",
      "type": "function"
    },
    {
      "inputs": [],
      "name": "MAX_PRT_AMOUNT_PER_ACC_PER_TRANSACTION_AIRDROP",
      "outputs": [
        {
          "internalType": "uint8",
          "name": "",
          "type": "uint8"
        }
      ],
      "stateMutability": "view",
      "type": "function"
    },
    {
      "inputs": [],
      "name": "MAX_PRT_AMOUNT_PER_ACC_PER_TRANSACTION_INTERNAL",
      "outputs": [
        {
          "internalType": "uint8",
          "name": "",
          "type": "uint8"
        }
      ],
      "stateMutability": "view",
      "type": "function"
    },
    {
      "inputs": [],
      "name": "MAX_SUPPLY_FOR_AIRDROP_TOKEN",
      "outputs": [
        {
          "internalType": "uint256",
          "name": "",
          "type": "uint256"
        }
      ],
      "stateMutability": "view",
      "type": "function"
    },
    {
      "inputs": [],
      "name": "MAX_SUPPLY_FOR_INTERNALTEAM_TOKEN",
      "outputs": [
        {
          "internalType": "uint256",
          "name": "",
          "type": "uint256"
        }
      ],
      "stateMutability": "view",
      "type": "function"
    },
    {
      "inputs": [],
      "name": "MAX_SUPPLY_FOR_PRT_TOKEN",
      "outputs": [
        {
          "internalType": "uint256",
          "name": "",
          "type": "uint256"
        }
      ],
      "stateMutability": "view",
      "type": "function"
    },
    {
      "inputs": [],
      "name": "MAX_SUPPLY_MP",
      "outputs": [
        {
          "internalType": "uint256",
          "name": "",
          "type": "uint256"
        }
      ],
      "stateMutability": "view",
      "type": "function"
    },
    {
      "inputs": [],
      "name": "NUM_TOTAL_FOR_MP",
      "outputs": [
        {
          "internalType": "uint8",
          "name": "",
          "type": "uint8"
        }
      ],
      "stateMutability": "view",
      "type": "function"
    },
    {
      "inputs": [],
      "name": "PRICE_PRT",
      "outputs": [
        {
          "internalType": "uint256",
          "name": "",
          "type": "uint256"
        }
      ],
      "stateMutability": "view",
      "type": "function"
    },
    {
      "inputs": [],
      "name": "PRICE_PRT_AIRDROP",
      "outputs": [
        {
          "internalType": "uint256",
          "name": "",
          "type": "uint256"
        }
      ],
      "stateMutability": "view",
      "type": "function"
    },
    {
      "inputs": [],
      "name": "PRICE_PRT_INTERNALTEAM",
      "outputs": [
        {
          "internalType": "uint256",
          "name": "",
          "type": "uint256"
        }
      ],
      "stateMutability": "view",
      "type": "function"
    },
    {
      "inputs": [],
      "name": "PRTID",
      "outputs": [
        {
          "internalType": "uint256",
          "name": "",
          "type": "uint256"
        }
      ],
      "stateMutability": "view",
      "type": "function"
    },
    {
      "inputs": [],
      "name": "STARTINGIDFORAIRDROP",
      "outputs": [
        {
          "internalType": "uint256",
          "name": "",
          "type": "uint256"
        }
      ],
      "stateMutability": "view",
      "type": "function"
    },
    {
      "inputs": [],
      "name": "STARTINGIDFORINTERNALTEAM",
      "outputs": [
        {
          "internalType": "uint256",
          "name": "",
          "type": "uint256"
        }
      ],
      "stateMutability": "view",
      "type": "function"
    },
    {
      "inputs": [],
      "name": "STARTINGIDFORPRT",
      "outputs": [
        {
          "internalType": "uint256",
          "name": "",
          "type": "uint256"
        }
      ],
      "stateMutability": "view",
      "type": "function"
    },
    {
      "inputs": [],
      "name": "_counter_for_generatelucky_mp",
      "outputs": [
        {
          "internalType": "uint256",
          "name": "_value",
          "type": "uint256"
        }
      ],
      "stateMutability": "view",
      "type": "function"
    },
    {
      "inputs": [],
      "name": "_counter_for_generatelucky_mp_airdrop",
      "outputs": [
        {
          "internalType": "uint256",
          "name": "_value",
          "type": "uint256"
        }
      ],
      "stateMutability": "view",
      "type": "function"
    },
    {
      "inputs": [],
      "name": "_counter_for_generatelucky_mp_internalteam",
      "outputs": [
        {
          "internalType": "uint256",
          "name": "_value",
          "type": "uint256"
        }
      ],
      "stateMutability": "view",
      "type": "function"
    },
    {
      "inputs": [
        {
          "internalType": "address",
          "name": "account",
          "type": "address"
        },
        {
          "internalType": "uint256",
          "name": "id",
          "type": "uint256"
        }
      ],
      "name": "balanceOf",
      "outputs": [
        {
          "internalType": "uint256",
          "name": "",
          "type": "uint256"
        }
      ],
      "stateMutability": "view",
      "type": "function"
    },
    {
      "inputs": [],
      "name": "balanceOfAccount",
      "outputs": [
        {
          "internalType": "uint256",
          "name": "",
          "type": "uint256"
        }
      ],
      "stateMutability": "payable",
      "type": "function"
    },
    {
      "inputs": [
        {
          "internalType": "address[]",
          "name": "accounts",
          "type": "address[]"
        },
        {
          "internalType": "uint256[]",
          "name": "ids",
          "type": "uint256[]"
        }
      ],
      "name": "balanceOfBatch",
      "outputs": [
        {
          "internalType": "uint256[]",
          "name": "",
          "type": "uint256[]"
        }
      ],
      "stateMutability": "view",
      "type": "function"
    },
    {
      "inputs": [
        {
          "internalType": "string",
          "name": "a",
          "type": "string"
        },
        {
          "internalType": "uint256",
          "name": "b",
          "type": "uint256"
        }
      ],
      "name": "concatenate",
      "outputs": [
        {
          "internalType": "string",
          "name": "",
          "type": "string"
        }
      ],
      "stateMutability": "pure",
      "type": "function"
    },
    {
      "inputs": [],
      "name": "contractBalance",
      "outputs": [
        {
          "internalType": "uint256",
          "name": "",
          "type": "uint256"
        }
      ],
      "stateMutability": "view",
      "type": "function"
    },
    {
      "inputs": [
        {
          "internalType": "uint256",
          "name": "id",
          "type": "uint256"
        }
      ],
      "name": "exists",
      "outputs": [
        {
          "internalType": "bool",
          "name": "",
          "type": "bool"
        }
      ],
      "stateMutability": "view",
      "type": "function"
    },
    {
      "inputs": [
        {
          "internalType": "uint256",
          "name": "",
          "type": "uint256"
        }
      ],
      "name": "intArrPRTAIRDROP",
      "outputs": [
        {
          "internalType": "uint256",
          "name": "",
          "type": "uint256"
        }
      ],
      "stateMutability": "view",
      "type": "function"
    },
    {
      "inputs": [
        {
          "internalType": "address",
          "name": "account",
          "type": "address"
        },
        {
          "internalType": "address",
          "name": "operator",
          "type": "address"
        }
      ],
      "name": "isApprovedForAll",
      "outputs": [
        {
          "internalType": "bool",
          "name": "",
          "type": "bool"
        }
      ],
      "stateMutability": "view",
      "type": "function"
    },
    {
      "inputs": [],
      "name": "mintAirdropMPIsOpen",
      "outputs": [
        {
          "internalType": "bool",
          "name": "",
          "type": "bool"
        }
      ],
      "stateMutability": "view",
      "type": "function"
    },
    {
      "inputs": [
        {
          "internalType": "uint256",
          "name": "tokenID",
          "type": "uint256"
        }
      ],
      "name": "mintDebug",
      "outputs": [],
      "stateMutability": "nonpayable",
      "type": "function"
    },
    {
      "inputs": [],
      "name": "mintInternalTeamMPIsOpen",
      "outputs": [
        {
          "internalType": "bool",
          "name": "",
          "type": "bool"
        }
      ],
      "stateMutability": "view",
      "type": "function"
    },
    {
      "inputs": [],
      "name": "mintMPIsOpen",
      "outputs": [
        {
          "internalType": "bool",
          "name": "",
          "type": "bool"
        }
      ],
      "stateMutability": "view",
      "type": "function"
    },
    {
      "inputs": [
        {
          "internalType": "address",
          "name": "account",
          "type": "address"
        },
        {
          "internalType": "uint8",
          "name": "_amount_wanted_able_to_get",
          "type": "uint8"
        },
        {
          "internalType": "uint8",
          "name": "stage",
          "type": "uint8"
        }
      ],
      "name": "mintNONMP",
      "outputs": [],
      "stateMutability": "payable",
      "type": "function"
    },
    {
      "inputs": [
        {
          "internalType": "address",
          "name": "account",
          "type": "address"
        },
        {
          "internalType": "uint8",
          "name": "_amount_wanted_able_to_get",
          "type": "uint8"
        },
        {
          "internalType": "uint8",
          "name": "stage",
          "type": "uint8"
        },
        {
          "internalType": "bytes32[]",
          "name": "_proof",
          "type": "bytes32[]"
        }
      ],
      "name": "mintNONMPForAIRDROP",
      "outputs": [],
      "stateMutability": "payable",
      "type": "function"
    },
    {
      "inputs": [],
      "name": "name",
      "outputs": [
        {
          "internalType": "string",
          "name": "",
          "type": "string"
        }
      ],
      "stateMutability": "view",
      "type": "function"
    },
    {
      "inputs": [],
      "name": "numIssuedForAIRDROP",
      "outputs": [
        {
          "internalType": "uint256",
          "name": "",
          "type": "uint256"
        }
      ],
      "stateMutability": "view",
      "type": "function"
    },
    {
      "inputs": [],
      "name": "numIssuedForInternalTeamIDs",
      "outputs": [
        {
          "internalType": "uint256",
          "name": "",
          "type": "uint256"
        }
      ],
      "stateMutability": "view",
      "type": "function"
    },
    {
      "inputs": [],
      "name": "numIssuedForMP",
      "outputs": [
        {
          "internalType": "uint64",
          "name": "",
          "type": "uint64"
        }
      ],
      "stateMutability": "view",
      "type": "function"
    },
    {
      "inputs": [],
      "name": "numIssuedForNormalUser",
      "outputs": [
        {
          "internalType": "uint256",
          "name": "",
          "type": "uint256"
        }
      ],
      "stateMutability": "view",
      "type": "function"
    },
    {
      "inputs": [],
      "name": "owner",
      "outputs": [
        {
          "internalType": "address",
          "name": "",
          "type": "address"
        }
      ],
      "stateMutability": "view",
      "type": "function"
    },
    {
      "inputs": [
        {
          "internalType": "uint256",
          "name": "index",
          "type": "uint256"
        }
      ],
      "name": "payee",
      "outputs": [
        {
          "internalType": "address",
          "name": "",
          "type": "address"
        }
      ],
      "stateMutability": "view",
      "type": "function"
    },
    {
      "inputs": [],
      "name": "presalePRT",
      "outputs": [
        {
          "internalType": "uint8",
          "name": "",
          "type": "uint8"
        }
      ],
      "stateMutability": "view",
      "type": "function"
    },
    {
      "inputs": [
        {
          "internalType": "uint256",
          "name": "",
          "type": "uint256"
        }
      ],
      "name": "prtPerAddress",
      "outputs": [
        {
          "internalType": "address",
          "name": "",
          "type": "address"
        }
      ],
      "stateMutability": "view",
      "type": "function"
    },
    {
      "inputs": [],
      "name": "qntmintmpforairdrop",
      "outputs": [
        {
          "internalType": "uint256",
          "name": "",
          "type": "uint256"
        }
      ],
      "stateMutability": "view",
      "type": "function"
    },
    {
      "inputs": [],
      "name": "qntmintmpforinternalteam",
      "outputs": [
        {
          "internalType": "uint256",
          "name": "",
          "type": "uint256"
        }
      ],
      "stateMutability": "view",
      "type": "function"
    },
    {
      "inputs": [],
      "name": "qntmintmpfornormaluser",
      "outputs": [
        {
          "internalType": "uint256",
          "name": "",
          "type": "uint256"
        }
      ],
      "stateMutability": "view",
      "type": "function"
    },
    {
      "inputs": [],
      "name": "qntmintnonmpforairdrop",
      "outputs": [
        {
          "internalType": "uint256",
          "name": "",
          "type": "uint256"
        }
      ],
      "stateMutability": "view",
      "type": "function"
    },
    {
      "inputs": [],
      "name": "qntmintnonmpforinternalteam",
      "outputs": [
        {
          "internalType": "uint256",
          "name": "",
          "type": "uint256"
        }
      ],
      "stateMutability": "view",
      "type": "function"
    },
    {
      "inputs": [],
      "name": "qntmintnonmpfornormaluser",
      "outputs": [
        {
          "internalType": "uint256",
          "name": "",
          "type": "uint256"
        }
      ],
      "stateMutability": "view",
      "type": "function"
    },
    {
      "inputs": [
        {
          "internalType": "address",
          "name": "account",
          "type": "address"
        }
      ],
      "name": "releasable",
      "outputs": [
        {
          "internalType": "uint256",
          "name": "",
          "type": "uint256"
        }
      ],
      "stateMutability": "view",
      "type": "function"
    },
    {
      "inputs": [
        {
          "internalType": "contract IERC20",
          "name": "token",
          "type": "address"
        },
        {
          "internalType": "address",
          "name": "account",
          "type": "address"
        }
      ],
      "name": "releasable",
      "outputs": [
        {
          "internalType": "uint256",
          "name": "",
          "type": "uint256"
        }
      ],
      "stateMutability": "view",
      "type": "function"
    },
    {
      "inputs": [
        {
          "internalType": "address payable",
          "name": "account",
          "type": "address"
        }
      ],
      "name": "release",
      "outputs": [],
      "stateMutability": "nonpayable",
      "type": "function"
    },
    {
      "inputs": [
        {
          "internalType": "contract IERC20",
          "name": "token",
          "type": "address"
        },
        {
          "internalType": "address",
          "name": "account",
          "type": "address"
        }
      ],
      "name": "release",
      "outputs": [],
      "stateMutability": "nonpayable",
      "type": "function"
    },
    {
      "inputs": [
        {
          "internalType": "contract IERC20",
          "name": "token",
          "type": "address"
        },
        {
          "internalType": "address",
          "name": "account",
          "type": "address"
        }
      ],
      "name": "released",
      "outputs": [
        {
          "internalType": "uint256",
          "name": "",
          "type": "uint256"
        }
      ],
      "stateMutability": "view",
      "type": "function"
    },
    {
      "inputs": [
        {
          "internalType": "address",
          "name": "account",
          "type": "address"
        }
      ],
      "name": "released",
      "outputs": [
        {
          "internalType": "uint256",
          "name": "",
          "type": "uint256"
        }
      ],
      "stateMutability": "view",
      "type": "function"
    },
    {
      "inputs": [],
      "name": "renounceOwnership",
      "outputs": [],
      "stateMutability": "nonpayable",
      "type": "function"
    },
    {
      "inputs": [],
      "name": "revealed",
      "outputs": [
        {
          "internalType": "bool",
          "name": "",
          "type": "bool"
        }
      ],
      "stateMutability": "view",
      "type": "function"
    },
    {
      "inputs": [],
      "name": "root",
      "outputs": [
        {
          "internalType": "bytes32",
          "name": "",
          "type": "bytes32"
        }
      ],
      "stateMutability": "view",
      "type": "function"
    },
    {
      "inputs": [
        {
          "internalType": "address",
          "name": "from",
          "type": "address"
        },
        {
          "internalType": "address",
          "name": "to",
          "type": "address"
        },
        {
          "internalType": "uint256[]",
          "name": "ids",
          "type": "uint256[]"
        },
        {
          "internalType": "uint256[]",
          "name": "amounts",
          "type": "uint256[]"
        },
        {
          "internalType": "bytes",
          "name": "data",
          "type": "bytes"
        }
      ],
      "name": "safeBatchTransferFrom",
      "outputs": [],
      "stateMutability": "nonpayable",
      "type": "function"
    },
    {
      "inputs": [
        {
          "internalType": "uint256",
          "name": "tokenID",
          "type": "uint256"
        },
        {
          "internalType": "address",
          "name": "addr",
          "type": "address"
        }
      ],
      "name": "safeTransferDebug",
      "outputs": [],
      "stateMutability": "nonpayable",
      "type": "function"
    },
    {
      "inputs": [
        {
          "internalType": "address",
          "name": "from",
          "type": "address"
        },
        {
          "internalType": "address",
          "name": "to",
          "type": "address"
        },
        {
          "internalType": "uint256",
          "name": "id",
          "type": "uint256"
        },
        {
          "internalType": "uint256",
          "name": "amount",
          "type": "uint256"
        },
        {
          "internalType": "bytes",
          "name": "data",
          "type": "bytes"
        }
      ],
      "name": "safeTransferFrom",
      "outputs": [],
      "stateMutability": "nonpayable",
      "type": "function"
    },
    {
      "inputs": [],
      "name": "sendMPAirdrop",
      "outputs": [],
      "stateMutability": "nonpayable",
      "type": "function"
    },
    {
      "inputs": [],
      "name": "sendMPAllDoneForAirdrop",
      "outputs": [
        {
          "internalType": "bool",
          "name": "",
          "type": "bool"
        }
      ],
      "stateMutability": "view",
      "type": "function"
    },
    {
      "inputs": [],
      "name": "sendMPAllDoneForInternalTeam",
      "outputs": [
        {
          "internalType": "bool",
          "name": "",
          "type": "bool"
        }
      ],
      "stateMutability": "view",
      "type": "function"
    },
    {
      "inputs": [],
      "name": "sendMPAllDoneForNormalUsers",
      "outputs": [
        {
          "internalType": "bool",
          "name": "",
          "type": "bool"
        }
      ],
      "stateMutability": "view",
      "type": "function"
    },
    {
      "inputs": [],
      "name": "sendMPInternalTeam",
      "outputs": [],
      "stateMutability": "nonpayable",
      "type": "function"
    },
    {
      "inputs": [],
      "name": "sendMPNormalUsers",
      "outputs": [],
      "stateMutability": "nonpayable",
      "type": "function"
    },
    {
      "inputs": [
        {
          "internalType": "address",
          "name": "operator",
          "type": "address"
        },
        {
          "internalType": "bool",
          "name": "approved",
          "type": "bool"
        }
      ],
      "name": "setApprovalForAll",
      "outputs": [],
      "stateMutability": "nonpayable",
      "type": "function"
    },
    {
      "inputs": [
        {
          "internalType": "bytes32",
          "name": "merkleroot",
          "type": "bytes32"
        }
      ],
      "name": "setMerkleRoot",
      "outputs": [],
      "stateMutability": "nonpayable",
      "type": "function"
    },
    {
      "inputs": [
        {
          "internalType": "uint256",
          "name": "price",
          "type": "uint256"
        }
      ],
      "name": "setPRICE_PRT",
      "outputs": [],
      "stateMutability": "nonpayable",
      "type": "function"
    },
    {
      "inputs": [
        {
          "internalType": "uint256",
          "name": "price",
          "type": "uint256"
        }
      ],
      "name": "setPRICE_PRT_AIRDROP",
      "outputs": [],
      "stateMutability": "nonpayable",
      "type": "function"
    },
    {
      "inputs": [
        {
          "internalType": "uint256",
          "name": "price",
          "type": "uint256"
        }
      ],
      "name": "setPRICE_PRT_INTERNALTEAM",
      "outputs": [],
      "stateMutability": "nonpayable",
      "type": "function"
    },
    {
      "inputs": [
        {
          "internalType": "uint8",
          "name": "num",
          "type": "uint8"
        }
      ],
      "name": "setPreSalePRT",
      "outputs": [],
      "stateMutability": "nonpayable",
      "type": "function"
    },
    {
      "inputs": [
        {
          "internalType": "uint8",
          "name": "amount",
          "type": "uint8"
        },
        {
          "internalType": "uint8",
          "name": "amount_per_transaction",
          "type": "uint8"
        }
      ],
      "name": "set_MAX_PRT_AMOUNT_PER_ACC_AND_TRANSACTION_INTERNAL",
      "outputs": [],
      "stateMutability": "nonpayable",
      "type": "function"
    },
    {
      "inputs": [
        {
          "internalType": "address",
          "name": "account",
          "type": "address"
        }
      ],
      "name": "shares",
      "outputs": [
        {
          "internalType": "uint256",
          "name": "",
          "type": "uint256"
        }
      ],
      "stateMutability": "view",
      "type": "function"
    },
    {
      "inputs": [
        {
          "internalType": "bytes4",
          "name": "interfaceId",
          "type": "bytes4"
        }
      ],
      "name": "supportsInterface",
      "outputs": [
        {
          "internalType": "bool",
          "name": "",
          "type": "bool"
        }
      ],
      "stateMutability": "view",
      "type": "function"
    },
    {
      "inputs": [],
      "name": "symbol",
      "outputs": [
        {
          "internalType": "string",
          "name": "",
          "type": "string"
        }
      ],
      "stateMutability": "view",
      "type": "function"
    },
    {
      "inputs": [],
      "name": "toggleMintAirdropMPIsOpen",
      "outputs": [],
      "stateMutability": "nonpayable",
      "type": "function"
    },
    {
      "inputs": [],
      "name": "toggleMintInternalTeamMPIsOpen",
      "outputs": [],
      "stateMutability": "nonpayable",
      "type": "function"
    },
    {
      "inputs": [],
      "name": "toggleMintMPIsOpen",
      "outputs": [],
      "stateMutability": "nonpayable",
      "type": "function"
    },
    {
      "inputs": [],
      "name": "toggleReveal",
      "outputs": [],
      "stateMutability": "nonpayable",
      "type": "function"
    },
    {
      "inputs": [
        {
          "internalType": "contract IERC20",
          "name": "token",
          "type": "address"
        }
      ],
      "name": "totalReleased",
      "outputs": [
        {
          "internalType": "uint256",
          "name": "",
          "type": "uint256"
        }
      ],
      "stateMutability": "view",
      "type": "function"
    },
    {
      "inputs": [],
      "name": "totalReleased",
      "outputs": [
        {
          "internalType": "uint256",
          "name": "",
          "type": "uint256"
        }
      ],
      "stateMutability": "view",
      "type": "function"
    },
    {
      "inputs": [],
      "name": "totalShares",
      "outputs": [
        {
          "internalType": "uint256",
          "name": "",
          "type": "uint256"
        }
      ],
      "stateMutability": "view",
      "type": "function"
    },
    {
      "inputs": [
        {
          "internalType": "uint256",
          "name": "id",
          "type": "uint256"
        }
      ],
      "name": "totalSupply",
      "outputs": [
        {
          "internalType": "uint256",
          "name": "",
          "type": "uint256"
        }
      ],
      "stateMutability": "view",
      "type": "function"
    },
    {
      "inputs": [
        {
          "internalType": "address",
          "name": "newOwner",
          "type": "address"
        }
      ],
      "name": "transferOwnership",
      "outputs": [],
      "stateMutability": "nonpayable",
      "type": "function"
    },
    {
      "inputs": [
        {
          "internalType": "uint256",
          "name": "",
          "type": "uint256"
        }
      ],
      "name": "uri",
      "outputs": [
        {
          "internalType": "string",
          "name": "",
          "type": "string"
        }
      ],
      "stateMutability": "view",
      "type": "function"
    },
    {
      "inputs": [
        {
          "internalType": "address",
          "name": "",
          "type": "address"
        }
      ],
      "name": "userNONMPs",
      "outputs": [
        {
          "internalType": "uint8",
          "name": "",
          "type": "uint8"
        }
      ],
      "stateMutability": "view",
      "type": "function"
    },
    {
      "inputs": [],
      "name": "withdraw",
      "outputs": [],
      "stateMutability": "payable",
      "type": "function"
    },
    {
      "inputs": [],
      "name": "xrand",
      "outputs": [
        {
          "internalType": "uint8",
          "name": "",
          "type": "uint8"
        }
      ],
      "stateMutability": "view",
      "type": "function"
    },
    {
      "stateMutability": "payable",
      "type": "receive"
    }
  ],
  "bytecode": "0x60c0604052601060809081526f564950534c414e442047454e4553495360801b60a052600d90620000319082620007fb565b50604080518082019091526004815263159414d360e21b6020820152600e906200005c9082620007fb565b506011805460ff1990811690915560006013819055601481905560158190556016805483166012179055601a80546001600160401b0319166004179055601e805461191961ffff199091161790556701b4fbd92b5f8000601f5560208190556021819055602381905560248190556025819055602781905560288190556029819055602b805463ffffffff19169055602d819055602e819055602f8190556030805462ffffff1916905560318190556032556033805490911690553480156200012457600080fd5b50604051620069f6380380620069f6833981016040819052620001479162000a20565b84848462000155816200049d565b506200016133620004af565b8051825114620001d35760405162461bcd60e51b815260206004820152603260248201527f5061796d656e7453706c69747465723a2070617965657320616e6420736861726044820152710cae640d8cadccee8d040dad2e6dac2e8c6d60731b60648201526084015b60405180910390fd5b6000825111620002265760405162461bcd60e51b815260206004820152601a60248201527f5061796d656e7453706c69747465723a206e6f207061796565730000000000006044820152606401620001ca565b60005b825181101562000292576200027d8382815181106200024c576200024c62000b57565b602002602001015183838151811062000269576200026962000b57565b60200260200101516200050160201b60201c565b80620002898162000b83565b91505062000229565b50506001600c5550602c819055600f620002ad8482620007fb565b506010620002bc8382620007fb565b50620002cc6064614e2062000b9f565b6001600160401b03811115620002e657620002e662000756565b60405190808252806020026020018201604052801562000310578160200160208202803683370190505b5080516200032791601b91602090910190620006ef565b506002601b60008154811062000341576200034162000b57565b6000918252602090912001556200035e612710620222e062000b9f565b6001600160401b0381111562000378576200037862000756565b604051908082528060200260200182016040528015620003a2578160200160208202803683370190505b508051620003b991602291602090910190620006ef565b50620003ca6103e8614e2062000b9f565b6001600160401b03811115620003e457620003e462000756565b6040519080825280602002602001820160405280156200040e578160200160208202803683370190505b5080516200042591602691602090910190620006ef565b50620004366104576122b862000b9f565b6001600160401b0381111562000450576200045062000756565b6040519080825280602002602001820160405280156200047a578160200160208202803683370190505b5080516200049191602a91602090910190620006ef565b50505050505062000bde565b6002620004ab8282620007fb565b5050565b600480546001600160a01b038381166001600160a01b0319831681179093556040519116919082907f8be0079c531659141344cd1fd0a4f28419497f9722a3daafe3b4186f6b6457e090600090a35050565b6001600160a01b0382166200056e5760405162461bcd60e51b815260206004820152602c60248201527f5061796d656e7453706c69747465723a206163636f756e74206973207468652060448201526b7a65726f206164647265737360a01b6064820152608401620001ca565b60008111620005c05760405162461bcd60e51b815260206004820152601d60248201527f5061796d656e7453706c69747465723a207368617265732061726520300000006044820152606401620001ca565b6001600160a01b038216600090815260076020526040902054156200063c5760405162461bcd60e51b815260206004820152602b60248201527f5061796d656e7453706c69747465723a206163636f756e7420616c726561647960448201526a206861732073686172657360a81b6064820152608401620001ca565b60098054600181019091557f6e1540171b6c0c960b71a7020d9f60077f6af931a8bbf590da0223dacf75c7af0180546001600160a01b0319166001600160a01b0384169081179091556000908152600760205260409020819055600554620006a690829062000bc2565b600555604080516001600160a01b0384168152602081018390527f40c340f65e17194d14ddddb073d3c9f888e3cb52b5aae0c6c7706b4fbc905fac910160405180910390a15050565b8280548282559060005260206000209081019282156200072d579160200282015b828111156200072d57825182559160200191906001019062000710565b506200073b9291506200073f565b5090565b5b808211156200073b576000815560010162000740565b634e487b7160e01b600052604160045260246000fd5b600181811c908216806200078157607f821691505b602082108103620007a257634e487b7160e01b600052602260045260246000fd5b50919050565b601f821115620007f657600081815260208120601f850160051c81016020861015620007d15750805b601f850160051c820191505b81811015620007f257828155600101620007dd565b5050505b505050565b81516001600160401b0381111562000817576200081762000756565b6200082f816200082884546200076c565b84620007a8565b602080601f8311600181146200086757600084156200084e5750858301515b600019600386901b1c1916600185901b178555620007f2565b600085815260208120601f198616915b82811015620008985788860151825594840194600190910190840162000877565b5085821015620008b75787850151600019600388901b60f8161c191681555b5050505050600190811b01905550565b604051601f8201601f191681016001600160401b0381118282101715620008f257620008f262000756565b604052919050565b60006001600160401b0382111562000916576200091662000756565b5060051b60200190565b600082601f8301126200093257600080fd5b815160206200094b6200094583620008fa565b620008c7565b82815260059290921b840181019181810190868411156200096b57600080fd5b8286015b848110156200098857805183529183019183016200096f565b509695505050505050565b600082601f830112620009a557600080fd5b81516001600160401b03811115620009c157620009c162000756565b6020620009d7601f8301601f19168201620008c7565b8281528582848701011115620009ec57600080fd5b60005b8381101562000a0c578581018301518282018401528201620009ef565b506000928101909101919091529392505050565b600080600080600060a0868803121562000a3957600080fd5b85516001600160401b038082111562000a5157600080fd5b818801915088601f83011262000a6657600080fd5b8151602062000a796200094583620008fa565b82815260059290921b8401810191818101908c84111562000a9957600080fd5b948201945b8386101562000ad05785516001600160a01b038116811462000ac05760008081fd5b8252948201949082019062000a9e565b918b015191995090935050508082111562000aea57600080fd5b62000af889838a0162000920565b9550604088015191508082111562000b0f57600080fd5b62000b1d89838a0162000993565b9450606088015191508082111562000b3457600080fd5b5062000b438882890162000993565b925050608086015190509295509295909350565b634e487b7160e01b600052603260045260246000fd5b634e487b7160e01b600052601160045260246000fd5b60006001820162000b985762000b9862000b6d565b5060010190565b60008262000bbd57634e487b7160e01b600052601260045260246000fd5b500490565b8082018082111562000bd85762000bd862000b6d565b92915050565b615e088062000bee6000396000f3fe60806040526004361061050f5760003560e01c80637de1c2be11610297578063bd85b03911610165578063d7abf186116100cc578063e67ff55211610085578063e67ff55214610efb578063e985e9c514610f12578063ebf0c71714610f5b578063f242432a14610f71578063f2fde38b14610f91578063fe47d7f214610fb157600080fd5b8063d7abf186146106f4578063da8ab07114610e7c578063db9a850914610e91578063defb1d4514610ea7578063df8c6cd314610ec6578063e33b7de314610ee657600080fd5b8063c9b4f6ef1161011e578063c9b4f6ef146107fc578063cd0b99cd146107d0578063ce7c2ac214610dba578063cea8f9c014610df0578063cffbd26f14610e10578063d79779b214610e4657600080fd5b8063bd85b03914610d00578063c0fd97ff14610d2d578063c45ac05014610d4d578063c6358ecd14610d6d578063c7a3b01314610d8d578063c82190c414610da357600080fd5b806397c6627011610209578063a57674e7116101c2578063a57674e714610c67578063a882fea414610c7c578063b1feb18d14610c91578063b247796414610cab578063b861639414610cca578063bca66b8514610ce057600080fd5b806397c66270146107d05780639852595c14610bc55780639daf187214610bfb5780639e26975714610c10578063a22cb46514610c27578063a3f8eace14610c4757600080fd5b80638b7afe2e1161025b5780638b7afe2e14610b2a5780638b83209b14610b3f5780638da5cb5b14610b7757806394a271fd14610b955780639554567e14610b9d57806395d89b4114610bb057600080fd5b80637de1c2be14610aa457806382a3169314610abe578063833bc78814610ad45780638515c7ac14610af45780638913fbe014610b1457600080fd5b80633919e5ba116103df5780635308ca7811610346578063715018a6116102ff578063715018a614610a0457806375d909ef14610a195780637862ed6414610a2f5780637a1d48f414610a4f5780637cb6475914610a6f5780637d46d87014610a8f57600080fd5b80635308ca78146109765780635b8ad4291461098c5780635de701f9146109a15780636bfcf578146109c25780636c5959e3146109d75780636e27b972146109ed57600080fd5b806344c3c7b91161039857806344c3c7b9146108b357806348b75044146108ca5780634a098124146108ea5780634e1273f4146109005780634f558e791461092d578063518302271461095c57600080fd5b80633919e5ba14610811578063395dcb64146108245780633a98ef391461083a5780633ccfd60b1461084f578063406072a914610857578063438d4bc11461089d57600080fd5b806319165587116104835780632d187ef71161043c5780632d187ef7146107855780632d23bf5a1461079a5780632eb2c2d6146107b05780632fcf9d4b146107d05780632fef4579146107e6578063380b5f75146107fc57600080fd5b806319165587146106d457806319f32a50146106f457806320c6974e1461071b57806328b33aae146107355780632a37e4af1461074f5780632b2be7f51461076657600080fd5b806306fdde03116104d557806306fdde031461060c5780630e89341c1461062e578063108241181461064e57806310dd92471461067057806311e6fb63146106865780631902aa4a1461069c57600080fd5b806201d05b1461055d578062fdd58e1461058657806301553208146105a657806301ffc9a7146105d657806304bf41d8146105f657600080fd5b36610558577f6ef95f06320e7a25a04a175ca677b7052bdd97131872c2192525a629f51be77033604080516001600160a01b0390921682523460208301520160405180910390a1005b600080fd5b34801561056957600080fd5b5061057360205481565b6040519081526020015b60405180910390f35b34801561059257600080fd5b506105736105a1366004614f82565b610fe1565b3480156105b257600080fd5b50602b546105c69062010000900460ff1681565b604051901515815260200161057d565b3480156105e257600080fd5b506105c66105f1366004614fc4565b61107a565b34801561060257600080fd5b50610573614e2181565b34801561061857600080fd5b506106216110ca565b60405161057d9190615031565b34801561063a57600080fd5b50610621610649366004615044565b611158565b34801561065a57600080fd5b5061066e610669366004615073565b611224565b005b34801561067c57600080fd5b5061057360145481565b34801561069257600080fd5b5061057360135481565b3480156106a857600080fd5b50601a546106bc906001600160401b031681565b6040516001600160401b03909116815260200161057d565b3480156106e057600080fd5b5061066e6106ef36600461508e565b61127e565b34801561070057600080fd5b50610709600381565b60405160ff909116815260200161057d565b34801561072757600080fd5b506016546107099060ff1681565b34801561074157600080fd5b50601e546107099060ff1681565b34801561075b57600080fd5b506018546105739081565b34801561077257600080fd5b50601e5461070990610100900460ff1681565b34801561079157600080fd5b5061066e611365565b3480156107a657600080fd5b5061057360155481565b3480156107bc57600080fd5b5061066e6107cb3660046151fe565b61138c565b3480156107dc57600080fd5b50610573614e2081565b3480156107f257600080fd5b5061057360215481565b34801561080857600080fd5b50610709606481565b61066e61081f3660046152ab565b6113d8565b34801561083057600080fd5b506105736103e881565b34801561084657600080fd5b50600554610573565b61066e61151c565b34801561086357600080fd5b506105736108723660046152f0565b6001600160a01b039182166000908152600b6020908152604080832093909416825291909152205490565b3480156108a957600080fd5b5061057360275481565b3480156108bf57600080fd5b50610573620222e081565b3480156108d657600080fd5b5061066e6108e53660046152f0565b611553565b3480156108f657600080fd5b5061057360245481565b34801561090c57600080fd5b5061092061091b366004615329565b611664565b60405161057d9190615430565b34801561093957600080fd5b506105c6610948366004615044565b600090815260036020526040902054151590565b34801561096857600080fd5b506011546105c69060ff1681565b34801561098257600080fd5b5061057361271081565b34801561099857600080fd5b5061066e61178d565b3480156109ad57600080fd5b50602b546105c6906301000000900460ff1681565b3480156109ce57600080fd5b5061066e6117a9565b3480156109e357600080fd5b50610573601f5481565b3480156109f957600080fd5b506017546105739081565b348015610a1057600080fd5b5061066e6117d2565b348015610a2557600080fd5b5061057360235481565b348015610a3b57600080fd5b5061066e610a4a366004615044565b6117e6565b348015610a5b57600080fd5b5061066e610a6a366004615044565b6117f3565b348015610a7b57600080fd5b5061066e610a8a366004615044565b611800565b348015610a9b57600080fd5b5061066e61180d565b348015610ab057600080fd5b50602b546107099060ff1681565b348015610aca57600080fd5b506105736122b881565b348015610ae057600080fd5b50610621610aef366004615443565b611c24565b348015610b0057600080fd5b5061066e610b0f36600461549b565b611c58565b348015610b2057600080fd5b5061057360295481565b348015610b3657600080fd5b50610573611cc0565b348015610b4b57600080fd5b50610b5f610b5a366004615044565b611cd0565b6040516001600160a01b03909116815260200161057d565b348015610b8357600080fd5b506004546001600160a01b0316610b5f565b610573611d00565b61066e610bab3660046154ce565b611d0f565b348015610bbc57600080fd5b50610621611ef1565b348015610bd157600080fd5b50610573610be036600461508e565b6001600160a01b031660009081526008602052604090205490565b348015610c0757600080fd5b50610709602381565b348015610c1c57600080fd5b506019546105739081565b348015610c3357600080fd5b5061066e610c42366004615582565b611efe565b348015610c5357600080fd5b50610573610c6236600461508e565b611f0d565b348015610c7357600080fd5b5061066e611f55565b348015610c8857600080fd5b5061066e6122d7565b348015610c9d57600080fd5b506030546105c69060ff1681565b348015610cb757600080fd5b506030546105c690610100900460ff1681565b348015610cd657600080fd5b5061057360255481565b348015610cec57600080fd5b5061066e610cfb3660046155b0565b6126e5565b348015610d0c57600080fd5b50610573610d1b366004615044565b60009081526003602052604090205490565b348015610d3957600080fd5b5061066e610d48366004615044565b61274a565b348015610d5957600080fd5b50610573610d683660046152f0565b61276e565b348015610d7957600080fd5b5061066e610d88366004615044565b612839565b348015610d9957600080fd5b5061057361045781565b348015610daf57600080fd5b506105736202710181565b348015610dc657600080fd5b50610573610dd536600461508e565b6001600160a01b031660009081526007602052604090205490565b348015610dfc57600080fd5b506030546105c69062010000900460ff1681565b348015610e1c57600080fd5b50610b5f610e2b366004615044565b601c602052600090815260409020546001600160a01b031681565b348015610e5257600080fd5b50610573610e6136600461508e565b6001600160a01b03166000908152600a602052604090205490565b348015610e8857600080fd5b5061066e612846565b348015610e9d57600080fd5b5061057360285481565b348015610eb357600080fd5b50602b546105c690610100900460ff1681565b348015610ed257600080fd5b50610573610ee1366004615044565b61286b565b348015610ef257600080fd5b50600654610573565b348015610f0757600080fd5b506105736202bf2181565b348015610f1e57600080fd5b506105c6610f2d3660046152f0565b6001600160a01b03918216600090815260016020908152604080832093909416825291909152205460ff1690565b348015610f6757600080fd5b50610573602c5481565b348015610f7d57600080fd5b5061066e610f8c3660046155d5565b61288c565b348015610f9d57600080fd5b5061066e610fac36600461508e565b6128d1565b348015610fbd57600080fd5b50610709610fcc36600461508e565b601d6020526000908152604090205460ff1681565b60006001600160a01b0383166110515760405162461bcd60e51b815260206004820152602a60248201527f455243313135353a2061646472657373207a65726f206973206e6f742061207660448201526930b634b21037bbb732b960b11b60648201526084015b60405180910390fd5b506000818152602081815260408083206001600160a01b03861684529091529020545b92915050565b60006001600160e01b03198216636cdb3d1360e11b14806110ab57506001600160e01b031982166303a24d0760e21b145b8061107457506301ffc9a760e01b6001600160e01b0319831614611074565b600d80546110d79061563d565b80601f01602080910402602001604051908101604052809291908181526020018280546111039061563d565b80156111505780601f1061112557610100808354040283529160200191611150565b820191906000526020600020905b81548152906001019060200180831161113357829003601f168201915b505050505081565b60115460609060ff1615156000036111fc57600f80546111779061563d565b80601f01602080910402602001604051908101604052809291908181526020018280546111a39061563d565b80156111f05780601f106111c5576101008083540402835291602001916111f0565b820191906000526020600020905b8154815290600101906020018083116111d357829003601f168201915b50505050509050919050565b601060405160200161120e9190615677565b6040516020818303038152906040529050919050565b61122c612947565b60ff811660078111156112675760405162461bcd60e51b815260206004820152600360248201526232991960e91b6044820152606401611048565b50602b805460ff191660ff92909216919091179055565b6001600160a01b0381166000908152600760205260409020546112b35760405162461bcd60e51b815260040161104890615736565b60006112be82611f0d565b9050806000036112e05760405162461bcd60e51b81526004016110489061577c565b80600660008282546112f291906157dd565b90915550506001600160a01b038216600090815260086020526040902080548201905561131f82826129a1565b604080516001600160a01b0384168152602081018390527fdf20fd1e76bc69d672e4814fafb2c449bba3a5369d8359adf9e05e6fde87b056910160405180910390a15050565b61136d612947565b602b805462ff0000198116620100009182900460ff1615909102179055565b6001600160a01b0385163314806113a857506113a88533610f2d565b6113c45760405162461bcd60e51b8152600401611048906157f0565b6113d18585858585612abf565b5050505050565b82336001600160a01b038216146114165760405162461bcd60e51b8152602060048201526002602482015261194d60f21b6044820152606401611048565b3332146114355760405162461bcd60e51b81526004016110489061583e565b602b5460ff166000036114705760405162461bcd60e51b8152602060048201526003602482015262194c4d60ea1b6044820152606401611048565b611478612c61565b60008360ff16116114b15760405162461bcd60e51b815260206004820152600360248201526265313560e81b6044820152606401611048565b336114e45760405162461bcd60e51b815260206004820152600360248201526232989b60e91b6044820152606401611048565b8160ff166002036114f8576114f883612cba565b8160ff1660040361150c5761150c836131b1565b6115166001600c55565b50505050565b611524612947565b60405133904780156108fc02916000818181858888f19350505050158015611550573d6000803e3d6000fd5b50565b6001600160a01b0381166000908152600760205260409020546115885760405162461bcd60e51b815260040161104890615736565b6000611594838361276e565b9050806000036115b65760405162461bcd60e51b81526004016110489061577c565b6001600160a01b0383166000908152600a6020526040812080548392906115de9084906157dd565b90915550506001600160a01b038084166000908152600b602090815260408083209386168352929052208054820190556116198383836136f2565b604080516001600160a01b038481168252602082018490528516917f3be5b7a71e84ed12875d241991c70855ac5817d847039e17a9d895c1ceb0f18a910160405180910390a2505050565b606081518351146116c95760405162461bcd60e51b815260206004820152602960248201527f455243313135353a206163636f756e747320616e6420696473206c656e677468604482015268040dad2e6dac2e8c6d60bb1b6064820152608401611048565b600083516001600160401b038111156116e4576116e46150ab565b60405190808252806020026020018201604052801561170d578160200160208202803683370190505b50905060005b8451811015611785576117588582815181106117315761173161585a565b602002602001015185838151811061174b5761174b61585a565b6020026020010151610fe1565b82828151811061176a5761176a61585a565b602090810291909101015261177e81615870565b9050611713565b509392505050565b611795612947565b6011805460ff19811660ff90911615179055565b6117b1612947565b602b805463ff00000019811663010000009182900460ff1615909102179055565b6117da612947565b6117e46000613744565b565b6117ee612947565b602355565b6117fb612947565b601f55565b611808612947565b602c55565b33321461182c5760405162461bcd60e51b81526004016110489061583e565b611834612947565b602b546301000000900460ff166118725760405162461bcd60e51b8152602060048201526002602482015261329b60f11b6044820152606401611048565b60305460ff1615156001146118af5760405162461bcd60e51b815260206004820152600360248201526232989960e91b6044820152606401611048565b603054610100900460ff16156118ed5760405162461bcd60e51b815260206004820152600360248201526265313360e81b6044820152606401611048565b6118fb601980546001019055565b600061190660195490565b90506000611915603154613796565b6033805460ff191660ff9390931692909217909155602f549091505b61193d836103e8615889565b811015611c1057603354600090819060ff16600103611a385761271061196684620293b8615889565b61197091906158b6565b60165462ffffff919091169060ff16614e2061198f87620271006158ca565b62ffffff1661199e91906157dd565b6119a99060016157dd565b6119b391906157dd565b6119bd91906157dd565b90506127106119cf84620293b8615889565b6119da9060016157dd565b6119e491906158b6565b60165462ffffff919091169060ff16614e20611a0387620271006158ca565b62ffffff16611a1291906157dd565b611a1d9060016157dd565b611a2791906157dd565b611a3191906157dd565b9150611b16565b612710611a4884620293b8615889565b611a5291906158b6565b60165462ffffff919091169060ff16614e20611a7187620271006158ed565b62ffffff16611a8091906157dd565b611a8b9060016157dd565b611a9591906157dd565b611a9f91906157dd565b9050612710611ab184620293b8615889565b611abc9060016157dd565b611ac691906158b6565b60165462ffffff919091169060ff16614e20611ae587620271006158ed565b62ffffff16611af491906157dd565b611aff9060016157dd565b611b0991906157dd565b611b1391906157dd565b91505b60006122b8614e20611b2b620222e0826157dd565b611b3591906157dd565b611b3f91906157dd565b9050808362ffffff161180611b585750808262ffffff16115b6030805461ff0019166101009215158302179081905560405160ff929091049190911615158152600080516020615db38339815191529060200160405180910390a1603054610100900460ff1615611bb257505050611c10565b601654601554611bc9918491849160ff1690613849565b60155560305460405161010090910460ff1615158152600080516020615db38339815191529060200160405180910390a15050508080611c0890615870565b915050611931565b50611c1d826103e8615889565b602f555050565b606082611c308361395a565b604051602001611c41929190615909565b604051602081830303815290604052905092915050565b611c60612947565b8160ff168160ff161115611c9c5760405162461bcd60e51b815260206004820152600360248201526265323360e81b6044820152606401611048565b601e805460ff9283166101000261ffff199091169290931691909117919091179055565b6000611cca612947565b50475b90565b600060098281548110611ce557611ce561585a565b6000918252602090912001546001600160a01b031692915050565b6000611d0a612947565b503490565b84336001600160a01b03821614611d4d5760405162461bcd60e51b8152602060048201526002602482015261194d60f21b6044820152606401611048565b333214611d6c5760405162461bcd60e51b81526004016110489061583e565b602b5460ff16600003611da75760405162461bcd60e51b8152602060048201526003602482015262194c4d60ea1b6044820152606401611048565b611daf612c61565b8282611e2682828080602002602001604051908101604052809392919081815260200183836020028082843760009201919091525050602c546040516bffffffffffffffffffffffff193360601b1660208201529092506034019050604051602081830303815290604052805190602001206139ec565b1515600114611e5d5760405162461bcd60e51b8152602060048201526003602482015262194c8d60ea1b6044820152606401611048565b60008760ff1611611e965760405162461bcd60e51b815260206004820152600360248201526265313560e81b6044820152606401611048565b33611ec95760405162461bcd60e51b815260206004820152600360248201526232989b60e91b6044820152606401611048565b8560ff16600103611edd57611edd87613a02565b5050611ee96001600c55565b505050505050565b600e80546110d79061563d565b611f09338383613e6f565b5050565b600080611f1960065490565b611f2390476157dd565b9050611f4e8382611f49866001600160a01b031660009081526008602052604090205490565b613f4f565b9392505050565b333214611f745760405162461bcd60e51b81526004016110489061583e565b611f7c612947565b602b54610100900460ff16611fb85760405162461bcd60e51b8152602060048201526002602482015261653560f01b6044820152606401611048565b60305460ff1615611ff05760405162461bcd60e51b8152602060048201526002602482015261653960f01b6044820152606401611048565b60165460ff1660120361201c576120076011613f8d565b6016805460ff191660ff929092169190911790555b61202a601780546001019055565b600061203560175490565b602d549091506000905b61204b836103e8615889565b8110156122c357600061271061206483620293b8615889565b61206e91906158b6565b60165462ffffff919091169060ff1661208a614e2060016157dd565b61209491906157dd565b61209e91906157dd565b905060006120b1620222e0614e206157dd565b905060006127106120c585620293b8615889565b6120d09060016157dd565b6120da91906158b6565b60165462ffffff919091169060ff166120f6614e2060016157dd565b61210091906157dd565b61210a91906157dd565b9050818162ffffff1611806121235750818362ffffff16115b6030805460ff1916911515918217905560405160ff90911615158152600080516020615db38339815191529060200160405180910390a160305460ff16156122675762ffffff8116603181905560009061217c90613796565b6033805460ff90931660ff199093168317905591506001036121fd576121a861271063bf4380416158b6565b60165462ffffff919091169060ff16614e206121c784620222e06158ca565b62ffffff166121d691906157dd565b6121e19060016157dd565b6121eb91906157dd565b6121f591906157dd565b60325561225e565b61220d61271063bf4380416158b6565b60165462ffffff919091169060ff16614e2061222c84620222e06158ed565b62ffffff1661223b91906157dd565b6122469060016157dd565b61225091906157dd565b61225a91906157dd565b6032555b505050506122c3565b60165460135461227e918591859160ff1690613849565b60135560305460405160ff90911615158152600080516020615db38339815191529060200160405180910390a1509092508190506122bb81615870565b91505061203f565b506122d0826103e8615889565b602d555050565b3332146122f65760405162461bcd60e51b81526004016110489061583e565b6122fe612947565b602b5462010000900460ff1661233b5760405162461bcd60e51b8152602060048201526002602482015261653760f01b6044820152606401611048565b60305460ff1615156001146123785760405162461bcd60e51b815260206004820152600360248201526206531360ec1b6044820152606401611048565b60305462010000900460ff16156123b75760405162461bcd60e51b815260206004820152600360248201526265313160e81b6044820152606401611048565b6123c5601880546001019055565b60006123d060185490565b905060006123df603154613796565b6033805460ff191660ff9390931692909217909155602e549091505b612407836103e8615889565b8110156126d157603354600090819060ff166001036125025761271061243084620293b8615889565b61243a91906158b6565b60165462ffffff919091169060ff16614e2061245987620222e06158ca565b62ffffff1661246891906157dd565b6124739060016157dd565b61247d91906157dd565b61248791906157dd565b915061271061249984620293b8615889565b6124a49060016157dd565b6124ae91906158b6565b60165462ffffff919091169060ff16614e206124cd87620222e06158ca565b62ffffff166124dc91906157dd565b6124e79060016157dd565b6124f191906157dd565b6124fb91906157dd565b90506125e0565b61271061251284620293b8615889565b61251c91906158b6565b60165462ffffff919091169060ff16614e2061253b87620222e06158ed565b62ffffff1661254a91906157dd565b6125559060016157dd565b61255f91906157dd565b61256991906157dd565b915061271061257b84620293b8615889565b6125869060016157dd565b61259091906158b6565b60165462ffffff919091169060ff16614e206125af87620222e06158ed565b62ffffff166125be91906157dd565b6125c99060016157dd565b6125d391906157dd565b6125dd91906157dd565b90505b6000614e206125f2620222e0826157dd565b6125fc91906157dd565b9050808262ffffff1611806126155750808362ffffff16115b6030805462ff00001916620100009215158302179081905560405160ff929091049190911615158152600080516020615db38339815191529060200160405180910390a160305462010000900460ff1615612672575050506126d1565b601654601454612689918591849160ff1690613849565b6014556030546040516201000090910460ff1615158152600080516020615db38339815191529060200160405180910390a150505080806126c990615870565b9150506123fb565b506126de826103e8615889565b602e555050565b6126ed612947565b60008281526003602052604090205461272d5760405162461bcd60e51b8152602060048201526002602482015261329960f11b6044820152606401611048565b611f0933828460016040518060200160405280600081525061288c565b612752612947565b6115503382600160405180602001604052806000815250613fa6565b6001600160a01b0382166000908152600a602052604081205481906040516370a0823160e01b81523060048201526001600160a01b038616906370a0823190602401602060405180830381865afa1580156127cd573d6000803e3d6000fd5b505050506040513d601f19601f820116820180604052508101906127f19190615945565b6127fb91906157dd565b6001600160a01b038086166000908152600b60209081526040808320938816835292905220549091506128319084908390613f4f565b949350505050565b612841612947565b602755565b61284e612947565b602b805461ff001981166101009182900460ff1615909102179055565b602a818154811061287b57600080fd5b600091825260209091200154905081565b6001600160a01b0385163314806128a857506128a88533610f2d565b6128c45760405162461bcd60e51b8152600401611048906157f0565b6113d1858585858561408f565b6128d9612947565b6001600160a01b03811661293e5760405162461bcd60e51b815260206004820152602660248201527f4f776e61626c653a206e6577206f776e657220697320746865207a65726f206160448201526564647265737360d01b6064820152608401611048565b61155081613744565b6004546001600160a01b031633146117e45760405162461bcd60e51b815260206004820181905260248201527f4f776e61626c653a2063616c6c6572206973206e6f7420746865206f776e65726044820152606401611048565b804710156129f15760405162461bcd60e51b815260206004820152601d60248201527f416464726573733a20696e73756666696369656e742062616c616e63650000006044820152606401611048565b6000826001600160a01b03168260405160006040518083038185875af1925050503d8060008114612a3e576040519150601f19603f3d011682016040523d82523d6000602084013e612a43565b606091505b5050905080612aba5760405162461bcd60e51b815260206004820152603a60248201527f416464726573733a20756e61626c6520746f2073656e642076616c75652c207260448201527f6563697069656e74206d617920686176652072657665727465640000000000006064820152608401611048565b505050565b8151835114612ae05760405162461bcd60e51b81526004016110489061595e565b6001600160a01b038416612b065760405162461bcd60e51b8152600401611048906159a6565b33612b158187878787876141bc565b60005b8451811015612bfb576000858281518110612b3557612b3561585a565b602002602001015190506000858381518110612b5357612b5361585a565b602090810291909101810151600084815280835260408082206001600160a01b038e168352909352919091205490915081811015612ba35760405162461bcd60e51b8152600401611048906159eb565b6000838152602081815260408083206001600160a01b038e8116855292528083208585039055908b16825281208054849290612be09084906157dd565b9250508190555050505080612bf490615870565b9050612b18565b50846001600160a01b0316866001600160a01b0316826001600160a01b03167f4a39dc06d4c0dbc64b70af90fd698a233a518aa5d07e595d983b8c0526c8f7fb8787604051612c4b929190615a35565b60405180910390a4611ee9818787878787614335565b6002600c5403612cb35760405162461bcd60e51b815260206004820152601f60248201527f5265656e7472616e637947756172643a207265656e7472616e742063616c6c006044820152606401611048565b6002600c55565b602b54600090600290811614612ce25760405162461bcd60e51b815260040161104890615a63565b336000908152601d6020526040902054606460ff9091161115612d175760405162461bcd60e51b815260040161104890615a80565b602360ff83161115612d3b5760405162461bcd60e51b815260040161104890615a9d565b336000908152601d6020526040902054606490612d5c90849060ff16615aba565b60ff161115612d8a57336000908152601d6020526040902054612d839060ff166064615ad3565b9150600190505b600080600080612df78662027101602554614e206103e86026805480602002602001604051908101604052809291908181526020018280548015612ded57602002820191906000526020600020905b815481526020019060010190808311612dd9575b5050505050614490565b93509350935093508560ff168360ff1614612e1157600194505b6023543490612e249060ff861690615889565b811015612e435760405162461bcd60e51b815260040161104890615aec565b6004546001600160a01b03166001600160a01b03166108fc8560ff16602354612e6c9190615889565b6040518115909202916000818181858888f19350505050158015612e94573d6000803e3d6000fd5b5060008460ff166001600160401b03811115612eb257612eb26150ab565b604051908082528060200260200182016040528015612edb578160200160208202803683370190505b50905060008560ff166001600160401b03811115612efb57612efb6150ab565b604051908082528060200260200182016040528015612f24578160200160208202803683370190505b50905060005b8660ff16811015612f8e57612f3f81896157dd565b838281518110612f5157612f5161585a565b6020026020010181815250506001828281518110612f7157612f7161585a565b602090810291909101015280612f8681615870565b915050612f2a565b50612faa3383836040518060200160405280600081525061462b565b60005b8660ff1681101561301c5733601c6000858481518110612fcf57612fcf61585a565b6020026020010151815260200190815260200160002060006101000a8154816001600160a01b0302191690836001600160a01b03160217905550808061301490615870565b915050612fad565b508151336000908152601d602052604090205461303c919060ff166157dd565b336000908152601d60205260409020805460ff191660ff9283161790556025869055602680548883169287169081106130775761307761585a565b906000526020600020015461308c91906157dd565b60268560ff16815481106130a2576130a261585a565b90600052602060002001819055508560ff16602460008282546130c591906157dd565b9091555050602454614e20116130e757602b805462ff00001916620100001790555b336000818152601d60205260409020547fdf6bd66365a8c4ede51660159bba6757ea60b0815714ebd8534054d929f3337f9060ff168461312860018b615ad3565b60ff168151811061313b5761313b61585a565b602002602001015160405161315f92919060ff929092168252602082015260400190565b60405180910390a287156131a65760405160ff8716815233907faf3c443bb05b163e7d42de9f4b11bdbfa307cad571a1ae5013e5e2ee92e66ed29060200160405180910390a25b505050505050505050565b602b546000906004908116146131d95760405162461bcd60e51b815260040161104890615a63565b336000908152601d6020526040902054606460ff909116111561320e5760405162461bcd60e51b815260040161104890615a80565b602360ff831611156132325760405162461bcd60e51b815260040161104890615a9d565b336000908152601d602052604090205460649061325390849060ff16615aba565b60ff16111561328157336000908152601d602052604090205461327a9060ff166064615ad3565b9150600190505b6000806000806132ec86614e21602154620222e06127106022805480602002602001604051908101604052809291908181526020018280548015612ded5760200282019190600052602060002090815481526020019060010190808311612dd9575050505050614490565b93509350935093508560ff168360ff161461330657600194505b601f54600560ff8516108015906133205750600a8460ff16105b15613347576005601f5460046133369190615889565b61334091906158b6565b9050613364565b600a8460ff1610613364576002601f5461336191906158b6565b90505b3461337260ff861683615889565b8110156133915760405162461bcd60e51b815260040161104890615aec565b6004546001600160a01b03166108fc6133ad60ff881685615889565b6040518115909202916000818181858888f193505050501580156133d5573d6000803e3d6000fd5b5060008560ff166001600160401b038111156133f3576133f36150ab565b60405190808252806020026020018201604052801561341c578160200160208202803683370190505b50905060008660ff166001600160401b0381111561343c5761343c6150ab565b604051908082528060200260200182016040528015613465578160200160208202803683370190505b50905060005b8760ff168110156134cf57613480818a6157dd565b8382815181106134925761349261585a565b60200260200101818152505060018282815181106134b2576134b261585a565b6020908102919091010152806134c781615870565b91505061346b565b506134eb3383836040518060200160405280600081525061462b565b60005b8760ff1681101561355d5733601c60008584815181106135105761351061585a565b6020026020010151815260200190815260200160002060006101000a8154816001600160a01b0302191690836001600160a01b03160217905550808061355590615870565b9150506134ee565b508151336000908152601d602052604090205461357d919060ff166157dd565b336000908152601d60205260409020805460ff191660ff9283161790556021879055602280548983169288169081106135b8576135b861585a565b90600052602060002001546135cd91906157dd565b60228660ff16815481106135e3576135e361585a565b90600052602060002001819055508660ff166020600082825461360691906157dd565b9091555050602054620222e01161362757602b805461ff0019166101001790555b336000818152601d60205260409020547fdf6bd66365a8c4ede51660159bba6757ea60b0815714ebd8534054d929f3337f9060ff168461366860018c615ad3565b60ff168151811061367b5761367b61585a565b602002602001015160405161369f92919060ff929092168252602082015260400190565b60405180910390a288156136e65760405160ff8816815233907faf3c443bb05b163e7d42de9f4b11bdbfa307cad571a1ae5013e5e2ee92e66ed29060200160405180910390a25b50505050505050505050565b604080516001600160a01b038416602482015260448082018490528251808303909101815260649091019091526020810180516001600160e01b031663a9059cbb60e01b179052612aba908490614785565b600480546001600160a01b038381166001600160a01b0319831681179093556040519116919082907f8be0079c531659141344cd1fd0a4f28419497f9722a3daafe3b4186f6b6457e090600090a35050565b601654600090819060ff166137b0614e20620222e06157dd565b6137bb9060016157dd565b6137c591906157dd565b62ffffff1683106138105760165460019060ff166137e8614e20620222e06157dd565b6137f39060016157dd565b6137fd91906157dd565b61380790856158ed565b91509150915091565b601654600090849060ff1661382a614e20620222e06157dd565b6138359060016157dd565b61383f91906157dd565b61380791906158ed565b60007f447b8744ce19b4ec182a865f10546affad5cb63bee7fbf1f4733554d3644a8d08561387a60ff861687615b09565b6040805162ffffff909316835260208301919091520160405180910390a160006138a88662ffffff16614857565b90506001600160a01b038116156139505760006138c36148bc565b90506138e13382600160405180602001604052806000815250613fa6565b6138fe33838360016040518060200160405280600081525061288c565b6139096001856157dd565b9350816001600160a01b03167ffbc825a9dbec6ba579c678650f97fd1adaab5d895472fb72d1be4a0982ed8c198260405161394691815260200190565b60405180910390a2505b5090949350505050565b6060600061396783614bb0565b60010190506000816001600160401b03811115613986576139866150ab565b6040519080825280601f01601f1916602001820160405280156139b0576020820181803683370190505b5090508181016020015b600019016f181899199a1a9b1b9c1cb0b131b232b360811b600a86061a8153600a85049450846139ba57509392505050565b6000826139f98584614c88565b14949350505050565b602b54600090600190811614613a2a5760405162461bcd60e51b815260040161104890615a63565b336000908152601d6020526040902054600360ff9091161115613a5f5760405162461bcd60e51b815260040161104890615a80565b600360ff83161115613a835760405162461bcd60e51b815260040161104890615a9d565b336000908152601d6020526040902054600390613aa490849060ff16615aba565b60ff161115613ad257336000908152601d6020526040902054613acb9060ff166003615ad3565b9150600190505b600080600080613b3d866202bf216029546122b8610457602a805480602002602001604051908101604052809291908181526020018280548015612ded5760200282019190600052602060002090815481526020019060010190808311612dd9575050505050614490565b93509350935093508560ff168360ff1614613b5757600194505b6027543490613b6a9060ff861690615889565b811015613b895760405162461bcd60e51b815260040161104890615aec565b6004546001600160a01b03166001600160a01b03166108fc8560ff16602754613bb29190615889565b6040518115909202916000818181858888f19350505050158015613bda573d6000803e3d6000fd5b5060008460ff166001600160401b03811115613bf857613bf86150ab565b604051908082528060200260200182016040528015613c21578160200160208202803683370190505b50905060008560ff166001600160401b03811115613c4157613c416150ab565b604051908082528060200260200182016040528015613c6a578160200160208202803683370190505b50905060005b8660ff16811015613cd457613c8581896157dd565b838281518110613c9757613c9761585a565b6020026020010181815250506001828281518110613cb757613cb761585a565b602090810291909101015280613ccc81615870565b915050613c70565b50613cf03383836040518060200160405280600081525061462b565b60005b8660ff16811015613d625733601c6000858481518110613d1557613d1561585a565b6020026020010151815260200190815260200160002060006101000a8154816001600160a01b0302191690836001600160a01b031602179055508080613d5a90615870565b915050613cf3565b508151336000908152601d6020526040902054613d82919060ff166157dd565b336000908152601d60205260409020805460ff191660ff9283161790556029869055602a8054888316928716908110613dbd57613dbd61585a565b9060005260206000200154613dd291906157dd565b602a8560ff1681548110613de857613de861585a565b90600052602060002001819055508560ff1660286000828254613e0b91906157dd565b90915550506028546122b8116130e757602b805463ff00000019166301000000179055336000818152601d60205260409020547fdf6bd66365a8c4ede51660159bba6757ea60b0815714ebd8534054d929f3337f9060ff168461312860018b615ad3565b816001600160a01b0316836001600160a01b031603613ee25760405162461bcd60e51b815260206004820152602960248201527f455243313135353a2073657474696e6720617070726f76616c20737461747573604482015268103337b91039b2b63360b91b6064820152608401611048565b6001600160a01b03838116600081815260016020908152604080832094871680845294825291829020805460ff191686151590811790915591519182527f17307eab39ab6107e8899845ad3d59bd9653f200f220920489ca2b5937696c31910160405180910390a3505050565b6005546001600160a01b03841660009081526007602052604081205490918391613f799086615889565b613f8391906158b6565b6128319190615b09565b600081613f9b600143615b09565b611074919040615b1c565b6001600160a01b038416613fcc5760405162461bcd60e51b815260040161104890615b30565b336000613fd885614ccd565b90506000613fe585614ccd565b9050613ff6836000898585896141bc565b6000868152602081815260408083206001600160a01b038b168452909152812080548792906140269084906157dd565b909155505060408051878152602081018790526001600160a01b03808a1692600092918716917fc3d58168c5ae7397731d063d5bbf3d657854427343f4c083240f7aacaa2d0f62910160405180910390a461408683600089898989614d18565b50505050505050565b6001600160a01b0384166140b55760405162461bcd60e51b8152600401611048906159a6565b3360006140c185614ccd565b905060006140ce85614ccd565b90506140de8389898585896141bc565b6000868152602081815260408083206001600160a01b038c1684529091529020548581101561411f5760405162461bcd60e51b8152600401611048906159eb565b6000878152602081815260408083206001600160a01b038d8116855292528083208985039055908a1682528120805488929061415c9084906157dd565b909155505060408051888152602081018890526001600160a01b03808b16928c821692918816917fc3d58168c5ae7397731d063d5bbf3d657854427343f4c083240f7aacaa2d0f62910160405180910390a46131a6848a8a8a8a8a614d18565b6001600160a01b0385166142435760005b8351811015614241578281815181106141e8576141e861585a565b6020026020010151600360008684815181106142065761420661585a565b60200260200101518152602001908152602001600020600082825461422b91906157dd565b9091555061423a905081615870565b90506141cd565b505b6001600160a01b038416611ee95760005b83518110156140865760008482815181106142715761427161585a565b60200260200101519050600084838151811061428f5761428f61585a565b60200260200101519050600060036000848152602001908152602001600020549050818110156143125760405162461bcd60e51b815260206004820152602860248201527f455243313135353a206275726e20616d6f756e74206578636565647320746f74604482015267616c537570706c7960c01b6064820152608401611048565b6000928352600360205260409092209103905561432e81615870565b9050614254565b6001600160a01b0384163b15611ee95760405163bc197c8160e01b81526001600160a01b0385169063bc197c81906143799089908990889088908890600401615b71565b6020604051808303816000875af19250505080156143b4575060408051601f3d908101601f191682019092526143b191810190615bcf565b60015b614460576143c0615bec565b806308c379a0036143f957506143d4615c07565b806143df57506143fb565b8060405162461bcd60e51b81526004016110489190615031565b505b60405162461bcd60e51b815260206004820152603460248201527f455243313135353a207472616e7366657220746f206e6f6e2d455243313135356044820152732932b1b2b4bb32b91034b6b83632b6b2b73a32b960611b6064820152608401611048565b6001600160e01b0319811663bc197c8160e01b146140865760405162461bcd60e51b815260040161104890615c90565b6000806000808688106144cb5760405162461bcd60e51b815260206004820152600360248201526206532360ec1b6044820152606401611048565b60006144df6144da888a6158b6565b613f8d565b905060005b6144ee888a6158b6565b8160ff161461456b5787878360ff168151811061450d5761450d61585a565b602002602001015103614554576001614526898b6158b6565b6145309190615b09565b8260ff16036145425760009150614559565b8161454c81615cd8565b925050614559565b61456b565b8061456381615cd8565b9150506144e4565b600061457a8960ff8516615889565b888460ff168151811061458f5761458f61585a565b60200260200101516145a191906157dd565b9050888d60ff16898560ff16815181106145bd576145bd61585a565b60200260200101516145cf91906157dd565b111561460057878360ff16815181106145ea576145ea61585a565b6020026020010151896145fd9190615b09565b9c505b61460d8b60ff8f166157dd565b9a506146198c826157dd565b9d9a9b50919998505050505050505050565b6001600160a01b0384166146515760405162461bcd60e51b815260040161104890615b30565b81518351146146725760405162461bcd60e51b81526004016110489061595e565b33614682816000878787876141bc565b60005b845181101561471d578381815181106146a0576146a061585a565b60200260200101516000808784815181106146bd576146bd61585a565b602002602001015181526020019081526020016000206000886001600160a01b03166001600160a01b03168152602001908152602001600020600082825461470591906157dd565b9091555081905061471581615870565b915050614685565b50846001600160a01b031660006001600160a01b0316826001600160a01b03167f4a39dc06d4c0dbc64b70af90fd698a233a518aa5d07e595d983b8c0526c8f7fb878760405161476e929190615a35565b60405180910390a46113d181600087878787614335565b60006147da826040518060400160405280602081526020017f5361666545524332303a206c6f772d6c6576656c2063616c6c206661696c6564815250856001600160a01b0316614dd39092919063ffffffff16565b805190915015612aba57808060200190518101906147f89190615cf7565b612aba5760405162461bcd60e51b815260206004820152602a60248201527f5361666545524332303a204552433230206f7065726174696f6e20646964206e6044820152691bdd081cdd58d8d9595960b21b6064820152608401611048565b6000818152600360205260408120541515801561489357506000828152601c6020526040812054614891906001600160a01b031684610fe1565b115b156148b457506000908152601c60205260409020546001600160a01b031690565b506000919050565b601a54600090614e206001600160401b03909116106149025760405162461bcd60e51b81526020600482015260026024820152610ca760f31b6044820152606401611048565b601b5460009061491190613f8d565b905060005b601b5460ff90811690821610156149a657601b5461493690614e206158b6565b601b8360ff168154811061494c5761494c61585a565b90600052602060002001540361498f57601b5461496b90600190615b09565b8260ff160361497d5760009150614994565b8161498781615cd8565b925050614994565b6149a6565b8061499e81615cd8565b915050614916565b60006149b460026064615d14565b60ff16601b8460ff16815481106149cd576149cd61585a565b90600052602060002001541015614a35576149ec606460ff8516615889565b601b8460ff1681548110614a0257614a0261585a565b90600052602060002001546001614a1991906157dd565b614a24906002615889565b614a2e91906157dd565b9050614b33565b60ff8316158015614a735750614a4d60026064615d14565b60ff16601b8460ff1681548110614a6657614a6661585a565b9060005260206000200154145b15614ac857601b8360ff1681548110614a8e57614a8e61585a565b90600052602060002001546002614aa591906157dd565b601b8460ff1681548110614abb57614abb61585a565b6000918252602090912001555b614ad6606460ff8516615889565b614ae260026064615d14565b60ff16601b8560ff1681548110614afb57614afb61585a565b9060005260206000200154614b109190615b09565b614b1b906002615889565b614b269060016157dd565b614b3091906157dd565b90505b6001601b8460ff1681548110614b4b57614b4b61585a565b906000526020600020016000828254614b6491906157dd565b9091555050601a80546001600160401b0316906000614b8283615d36565b91906101000a8154816001600160401b0302191690836001600160401b031602179055505080935050505090565b60008072184f03e93ff9f4daa797ed6e38ed64bf6a1f0160401b8310614bef5772184f03e93ff9f4daa797ed6e38ed64bf6a1f0160401b830492506040015b6d04ee2d6d415b85acef81000000008310614c1b576d04ee2d6d415b85acef8100000000830492506020015b662386f26fc100008310614c3957662386f26fc10000830492506010015b6305f5e1008310614c51576305f5e100830492506008015b6127108310614c6557612710830492506004015b60648310614c77576064830492506002015b600a83106110745760010192915050565b600081815b845181101561178557614cb982868381518110614cac57614cac61585a565b6020026020010151614de2565b915080614cc581615870565b915050614c8d565b60408051600180825281830190925260609160009190602080830190803683370190505090508281600081518110614d0757614d0761585a565b602090810291909101015292915050565b6001600160a01b0384163b15611ee95760405163f23a6e6160e01b81526001600160a01b0385169063f23a6e6190614d5c9089908990889088908890600401615d5c565b6020604051808303816000875af1925050508015614d97575060408051601f3d908101601f19168201909252614d9491810190615bcf565b60015b614da3576143c0615bec565b6001600160e01b0319811663f23a6e6160e01b146140865760405162461bcd60e51b815260040161104890615c90565b60606128318484600085614e0e565b6000818310614dfe576000828152602084905260409020611f4e565b5060009182526020526040902090565b606082471015614e6f5760405162461bcd60e51b815260206004820152602660248201527f416464726573733a20696e73756666696369656e742062616c616e636520666f6044820152651c8818d85b1b60d21b6064820152608401611048565b600080866001600160a01b03168587604051614e8b9190615d96565b60006040518083038185875af1925050503d8060008114614ec8576040519150601f19603f3d011682016040523d82523d6000602084013e614ecd565b606091505b5091509150614ede87838387614ee9565b979650505050505050565b60608315614f58578251600003614f51576001600160a01b0385163b614f515760405162461bcd60e51b815260206004820152601d60248201527f416464726573733a2063616c6c20746f206e6f6e2d636f6e74726163740000006044820152606401611048565b5081612831565b61283183838151156143df5781518083602001fd5b6001600160a01b038116811461155057600080fd5b60008060408385031215614f9557600080fd5b8235614fa081614f6d565b946020939093013593505050565b6001600160e01b03198116811461155057600080fd5b600060208284031215614fd657600080fd5b8135611f4e81614fae565b60005b83811015614ffc578181015183820152602001614fe4565b50506000910152565b6000815180845261501d816020860160208601614fe1565b601f01601f19169290920160200192915050565b602081526000611f4e6020830184615005565b60006020828403121561505657600080fd5b5035919050565b803560ff8116811461506e57600080fd5b919050565b60006020828403121561508557600080fd5b611f4e8261505d565b6000602082840312156150a057600080fd5b8135611f4e81614f6d565b634e487b7160e01b600052604160045260246000fd5b601f8201601f191681016001600160401b03811182821017156150e6576150e66150ab565b6040525050565b60006001600160401b03821115615106576151066150ab565b5060051b60200190565b600082601f83011261512157600080fd5b8135602061512e826150ed565b60405161513b82826150c1565b83815260059390931b850182019282810191508684111561515b57600080fd5b8286015b84811015615176578035835291830191830161515f565b509695505050505050565b60006001600160401b0383111561519a5761519a6150ab565b6040516151b1601f8501601f1916602001826150c1565b8091508381528484840111156151c657600080fd5b83836020830137600060208583010152509392505050565b600082601f8301126151ef57600080fd5b611f4e83833560208501615181565b600080600080600060a0868803121561521657600080fd5b853561522181614f6d565b9450602086013561523181614f6d565b935060408601356001600160401b038082111561524d57600080fd5b61525989838a01615110565b9450606088013591508082111561526f57600080fd5b61527b89838a01615110565b9350608088013591508082111561529157600080fd5b5061529e888289016151de565b9150509295509295909350565b6000806000606084860312156152c057600080fd5b83356152cb81614f6d565b92506152d96020850161505d565b91506152e76040850161505d565b90509250925092565b6000806040838503121561530357600080fd5b823561530e81614f6d565b9150602083013561531e81614f6d565b809150509250929050565b6000806040838503121561533c57600080fd5b82356001600160401b038082111561535357600080fd5b818501915085601f83011261536757600080fd5b81356020615374826150ed565b60405161538182826150c1565b83815260059390931b85018201928281019150898411156153a157600080fd5b948201945b838610156153c85785356153b981614f6d565b825294820194908201906153a6565b965050860135925050808211156153de57600080fd5b506153eb85828601615110565b9150509250929050565b600081518084526020808501945080840160005b8381101561542557815187529582019590820190600101615409565b509495945050505050565b602081526000611f4e60208301846153f5565b6000806040838503121561545657600080fd5b82356001600160401b0381111561546c57600080fd5b8301601f8101851361547d57600080fd5b61548c85823560208401615181565b95602094909401359450505050565b600080604083850312156154ae57600080fd5b6154b78361505d565b91506154c56020840161505d565b90509250929050565b6000806000806000608086880312156154e657600080fd5b85356154f181614f6d565b94506154ff6020870161505d565b935061550d6040870161505d565b925060608601356001600160401b038082111561552957600080fd5b818801915088601f83011261553d57600080fd5b81358181111561554c57600080fd5b8960208260051b850101111561556157600080fd5b9699959850939650602001949392505050565b801515811461155057600080fd5b6000806040838503121561559557600080fd5b82356155a081614f6d565b9150602083013561531e81615574565b600080604083850312156155c357600080fd5b82359150602083013561531e81614f6d565b600080600080600060a086880312156155ed57600080fd5b85356155f881614f6d565b9450602086013561560881614f6d565b9350604086013592506060860135915060808601356001600160401b0381111561563157600080fd5b61529e888289016151de565b600181811c9082168061565157607f821691505b60208210810361567157634e487b7160e01b600052602260045260246000fd5b50919050565b600080835481600182811c91508083168061569357607f831692505b602080841082036156b257634e487b7160e01b86526022600452602486fd5b8180156156c657600181146156db57615708565b60ff1986168952841515850289019650615708565b60008a81526020902060005b868110156157005781548b8201529085019083016156e7565b505084890196505b50505050505061283161572582637b69647d60e01b815260040190565b64173539b7b760d91b815260050190565b60208082526026908201527f5061796d656e7453706c69747465723a206163636f756e7420686173206e6f2060408201526573686172657360d01b606082015260800190565b6020808252602b908201527f5061796d656e7453706c69747465723a206163636f756e74206973206e6f742060408201526a191d59481c185e5b595b9d60aa1b606082015260800190565b634e487b7160e01b600052601160045260246000fd5b80820180821115611074576110746157c7565b6020808252602e908201527f455243313135353a2063616c6c6572206973206e6f7420746f6b656e206f776e60408201526d195c881bdc88185c1c1c9bdd995960921b606082015260800190565b602080825260029082015261653360f01b604082015260600190565b634e487b7160e01b600052603260045260246000fd5b600060018201615882576158826157c7565b5060010190565b8082028115828204841417611074576110746157c7565b634e487b7160e01b600052601260045260246000fd5b6000826158c5576158c56158a0565b500490565b62ffffff8181168382160190808211156158e6576158e66157c7565b5092915050565b62ffffff8281168282160390808211156158e6576158e66157c7565b6000835161591b818460208801614fe1565b600b60fa1b9083019081528351615939816001840160208801614fe1565b01600101949350505050565b60006020828403121561595757600080fd5b5051919050565b60208082526028908201527f455243313135353a2069647320616e6420616d6f756e7473206c656e677468206040820152670dad2e6dac2e8c6d60c31b606082015260800190565b60208082526025908201527f455243313135353a207472616e7366657220746f20746865207a65726f206164604082015264647265737360d81b606082015260800190565b6020808252602a908201527f455243313135353a20696e73756666696369656e742062616c616e636520666f60408201526939103a3930b739b332b960b11b606082015260800190565b604081526000615a4860408301856153f5565b8281036020840152615a5a81856153f5565b95945050505050565b60208082526003908201526265323160e81b604082015260600190565b60208082526003908201526265313760e81b604082015260600190565b6020808252600390820152620ca62760eb1b604082015260600190565b60ff8181168382160190811115611074576110746157c7565b60ff8281168282160390811115611074576110746157c7565b60208082526003908201526265313960e81b604082015260600190565b81810381811115611074576110746157c7565b600082615b2b57615b2b6158a0565b500690565b60208082526021908201527f455243313135353a206d696e7420746f20746865207a65726f206164647265736040820152607360f81b606082015260800190565b6001600160a01b0386811682528516602082015260a060408201819052600090615b9d908301866153f5565b8281036060840152615baf81866153f5565b90508281036080840152615bc38185615005565b98975050505050505050565b600060208284031215615be157600080fd5b8151611f4e81614fae565b600060033d1115611ccd5760046000803e5060005160e01c90565b600060443d1015615c155790565b6040516003193d81016004833e81513d6001600160401b038160248401118184111715615c4457505050505090565b8285019150815181811115615c5c5750505050505090565b843d8701016020828501011115615c765750505050505090565b615c85602082860101876150c1565b509095945050505050565b60208082526028908201527f455243313135353a204552433131353552656365697665722072656a656374656040820152676420746f6b656e7360c01b606082015260800190565b600060ff821660ff8103615cee57615cee6157c7565b60010192915050565b600060208284031215615d0957600080fd5b8151611f4e81615574565b600060ff831680615d2757615d276158a0565b8060ff84160491505092915050565b60006001600160401b03808316818103615d5257615d526157c7565b6001019392505050565b6001600160a01b03868116825285166020820152604081018490526060810183905260a060808201819052600090614ede90830184615005565b60008251615da8818460208701614fe1565b919091019291505056fe7b7d25f8a91d07d734c2f45d6dd20e28016c3648b97f80270c65a2a565e62025a264697066735822122052e5df703fadafaf17cc28c71cfd9836f2a20b50a40e9117be35e20972db708864736f6c63430008110033",
  "linkReferences": {},
  "deployedLinkReferences": {}
}