{
  "_format": "hh-sol-artifact-1",
  "contractName": "Vipsland",
  "sourceName": "contracts/Vipsland.sol",
  "abi": [
    {
      "inputs": [
        {
          "internalType": "address[]",
          "name": "_team",
          "type": "address[]"
        },
        {
          "internalType": "uint256[]",
          "name": "_teamShares",
          "type": "uint256[]"
        },
        {
          "internalType": "string",
          "name": "_notRevealedUri",
          "type": "string"
        },
        {
          "internalType": "string",
          "name": "_revealedUri",
          "type": "string"
        }
      ],
      "stateMutability": "nonpayable",
      "type": "constructor"
    },
    {
      "anonymous": false,
      "inputs": [
        {
          "indexed": true,
          "internalType": "address",
          "name": "account",
          "type": "address"
        },
        {
          "indexed": true,
          "internalType": "address",
          "name": "operator",
          "type": "address"
        },
        {
          "indexed": false,
          "internalType": "bool",
          "name": "approved",
          "type": "bool"
        }
      ],
      "name": "ApprovalForAll",
      "type": "event"
    },
    {
      "anonymous": false,
      "inputs": [
        {
          "indexed": false,
          "internalType": "uint256",
          "name": "tokenMPID",
          "type": "uint256"
        }
      ],
      "name": "DebugMP",
      "type": "event"
    },
    {
      "anonymous": false,
      "inputs": [
        {
          "indexed": true,
          "internalType": "address",
          "name": "acc",
          "type": "address"
        },
        {
          "indexed": false,
          "internalType": "uint256",
          "name": "minted_amount",
          "type": "uint256"
        },
        {
          "indexed": false,
          "internalType": "uint256",
          "name": "last_minted_NONMPID",
          "type": "uint256"
        }
      ],
      "name": "DitributePRTs",
      "type": "event"
    },
    {
      "anonymous": false,
      "inputs": [
        {
          "indexed": true,
          "internalType": "contract IERC20",
          "name": "token",
          "type": "address"
        },
        {
          "indexed": false,
          "internalType": "address",
          "name": "to",
          "type": "address"
        },
        {
          "indexed": false,
          "internalType": "uint256",
          "name": "amount",
          "type": "uint256"
        }
      ],
      "name": "ERC20PaymentReleased",
      "type": "event"
    },
    {
      "anonymous": false,
      "inputs": [
        {
          "indexed": false,
          "internalType": "bool",
          "name": "sendMPAllDone",
          "type": "bool"
        }
      ],
      "name": "MPAllDone",
      "type": "event"
    },
    {
      "anonymous": false,
      "inputs": [
        {
          "indexed": true,
          "internalType": "address",
          "name": "previousOwner",
          "type": "address"
        },
        {
          "indexed": true,
          "internalType": "address",
          "name": "newOwner",
          "type": "address"
        }
      ],
      "name": "OwnershipTransferred",
      "type": "event"
    },
    {
      "anonymous": false,
      "inputs": [
        {
          "indexed": false,
          "internalType": "address",
          "name": "account",
          "type": "address"
        },
        {
          "indexed": false,
          "internalType": "uint256",
          "name": "shares",
          "type": "uint256"
        }
      ],
      "name": "PayeeAdded",
      "type": "event"
    },
    {
      "anonymous": false,
      "inputs": [
        {
          "indexed": false,
          "internalType": "address",
          "name": "from",
          "type": "address"
        },
        {
          "indexed": false,
          "internalType": "uint256",
          "name": "amount",
          "type": "uint256"
        }
      ],
      "name": "PaymentReceived",
      "type": "event"
    },
    {
      "anonymous": false,
      "inputs": [
        {
          "indexed": false,
          "internalType": "address",
          "name": "to",
          "type": "address"
        },
        {
          "indexed": false,
          "internalType": "uint256",
          "name": "amount",
          "type": "uint256"
        }
      ],
      "name": "PaymentReleased",
      "type": "event"
    },
    {
      "anonymous": false,
      "inputs": [
        {
          "indexed": true,
          "internalType": "address",
          "name": "acc",
          "type": "address"
        },
        {
          "indexed": false,
          "internalType": "uint256",
          "name": "qnt",
          "type": "uint256"
        }
      ],
      "name": "RemainMessageNeeds",
      "type": "event"
    },
    {
      "anonymous": false,
      "inputs": [
        {
          "indexed": false,
          "internalType": "uint256",
          "name": "_winnerTokenNONMPID",
          "type": "uint256"
        },
        {
          "indexed": false,
          "internalType": "uint256",
          "name": "max_nonmpid_minus_xrand",
          "type": "uint256"
        }
      ],
      "name": "SelectedNONMPIDTokens",
      "type": "event"
    },
    {
      "anonymous": false,
      "inputs": [
        {
          "indexed": true,
          "internalType": "address",
          "name": "operator",
          "type": "address"
        },
        {
          "indexed": true,
          "internalType": "address",
          "name": "from",
          "type": "address"
        },
        {
          "indexed": true,
          "internalType": "address",
          "name": "to",
          "type": "address"
        },
        {
          "indexed": false,
          "internalType": "uint256[]",
          "name": "ids",
          "type": "uint256[]"
        },
        {
          "indexed": false,
          "internalType": "uint256[]",
          "name": "values",
          "type": "uint256[]"
        }
      ],
      "name": "TransferBatch",
      "type": "event"
    },
    {
      "anonymous": false,
      "inputs": [
        {
          "indexed": true,
          "internalType": "address",
          "name": "operator",
          "type": "address"
        },
        {
          "indexed": true,
          "internalType": "address",
          "name": "from",
          "type": "address"
        },
        {
          "indexed": true,
          "internalType": "address",
          "name": "to",
          "type": "address"
        },
        {
          "indexed": false,
          "internalType": "uint256",
          "name": "id",
          "type": "uint256"
        },
        {
          "indexed": false,
          "internalType": "uint256",
          "name": "value",
          "type": "uint256"
        }
      ],
      "name": "TransferSingle",
      "type": "event"
    },
    {
      "anonymous": false,
      "inputs": [
        {
          "indexed": false,
          "internalType": "string",
          "name": "value",
          "type": "string"
        },
        {
          "indexed": true,
          "internalType": "uint256",
          "name": "id",
          "type": "uint256"
        }
      ],
      "name": "URI",
      "type": "event"
    },
    {
      "anonymous": false,
      "inputs": [
        {
          "indexed": true,
          "internalType": "address",
          "name": "acc",
          "type": "address"
        },
        {
          "indexed": false,
          "internalType": "uint256",
          "name": "winnerTokenPRTID",
          "type": "uint256"
        }
      ],
      "name": "WinnersMP",
      "type": "event"
    },
    {
      "inputs": [],
      "name": "EACH_RAND_SLOT_NUM_TOTAL_FOR_AIRDROP",
      "outputs": [
        {
          "internalType": "uint256",
          "name": "",
          "type": "uint256"
        }
      ],
      "stateMutability": "view",
      "type": "function"
    },
    {
      "inputs": [],
      "name": "EACH_RAND_SLOT_NUM_TOTAL_FOR_INTERNALTEAM",
      "outputs": [
        {
          "internalType": "uint256",
          "name": "",
          "type": "uint256"
        }
      ],
      "stateMutability": "view",
      "type": "function"
    },
    {
      "inputs": [],
      "name": "EACH_RAND_SLOT_NUM_TOTAL_FOR_PRT",
      "outputs": [
        {
          "internalType": "uint256",
          "name": "",
          "type": "uint256"
        }
      ],
      "stateMutability": "view",
      "type": "function"
    },
    {
      "inputs": [],
      "name": "MAX_PRT_AMOUNT_PER_ACC",
      "outputs": [
        {
          "internalType": "uint8",
          "name": "",
          "type": "uint8"
        }
      ],
      "stateMutability": "view",
      "type": "function"
    },
    {
      "inputs": [],
      "name": "MAX_PRT_AMOUNT_PER_ACC_AIRDROP",
      "outputs": [
        {
          "internalType": "uint8",
          "name": "",
          "type": "uint8"
        }
      ],
      "stateMutability": "view",
      "type": "function"
    },
    {
      "inputs": [],
      "name": "MAX_PRT_AMOUNT_PER_ACC_INTERNAL",
      "outputs": [
        {
          "internalType": "uint8",
          "name": "",
          "type": "uint8"
        }
      ],
      "stateMutability": "view",
      "type": "function"
    },
    {
      "inputs": [],
      "name": "MAX_PRT_AMOUNT_PER_ACC_PER_TRANSACTION",
      "outputs": [
        {
          "internalType": "uint8",
          "name": "",
          "type": "uint8"
        }
      ],
      "stateMutability": "view",
      "type": "function"
    },
    {
      "inputs": [],
      "name": "MAX_PRT_AMOUNT_PER_ACC_PER_TRANSACTION_AIRDROP",
      "outputs": [
        {
          "internalType": "uint8",
          "name": "",
          "type": "uint8"
        }
      ],
      "stateMutability": "view",
      "type": "function"
    },
    {
      "inputs": [],
      "name": "MAX_PRT_AMOUNT_PER_ACC_PER_TRANSACTION_INTERNAL",
      "outputs": [
        {
          "internalType": "uint8",
          "name": "",
          "type": "uint8"
        }
      ],
      "stateMutability": "view",
      "type": "function"
    },
    {
      "inputs": [],
      "name": "MAX_SUPPLY_FOR_AIRDROP_TOKEN",
      "outputs": [
        {
          "internalType": "uint256",
          "name": "",
          "type": "uint256"
        }
      ],
      "stateMutability": "view",
      "type": "function"
    },
    {
      "inputs": [],
      "name": "MAX_SUPPLY_FOR_INTERNALTEAM_TOKEN",
      "outputs": [
        {
          "internalType": "uint256",
          "name": "",
          "type": "uint256"
        }
      ],
      "stateMutability": "view",
      "type": "function"
    },
    {
      "inputs": [],
      "name": "MAX_SUPPLY_FOR_PRT_TOKEN",
      "outputs": [
        {
          "internalType": "uint256",
          "name": "",
          "type": "uint256"
        }
      ],
      "stateMutability": "view",
      "type": "function"
    },
    {
      "inputs": [],
      "name": "MAX_SUPPLY_MP",
      "outputs": [
        {
          "internalType": "uint256",
          "name": "",
          "type": "uint256"
        }
      ],
      "stateMutability": "view",
      "type": "function"
    },
    {
      "inputs": [],
      "name": "NUM_TOTAL_FOR_MP",
      "outputs": [
        {
          "internalType": "uint8",
          "name": "",
          "type": "uint8"
        }
      ],
      "stateMutability": "view",
      "type": "function"
    },
    {
      "inputs": [],
      "name": "PRICE_PRT",
      "outputs": [
        {
          "internalType": "uint256",
          "name": "",
          "type": "uint256"
        }
      ],
      "stateMutability": "view",
      "type": "function"
    },
    {
      "inputs": [],
      "name": "PRICE_PRT_AIRDROP",
      "outputs": [
        {
          "internalType": "uint256",
          "name": "",
          "type": "uint256"
        }
      ],
      "stateMutability": "view",
      "type": "function"
    },
    {
      "inputs": [],
      "name": "PRICE_PRT_INTERNALTEAM",
      "outputs": [
        {
          "internalType": "uint256",
          "name": "",
          "type": "uint256"
        }
      ],
      "stateMutability": "view",
      "type": "function"
    },
    {
      "inputs": [],
      "name": "PRTID",
      "outputs": [
        {
          "internalType": "uint256",
          "name": "",
          "type": "uint256"
        }
      ],
      "stateMutability": "view",
      "type": "function"
    },
    {
      "inputs": [],
      "name": "STARTINGIDFORAIRDROP",
      "outputs": [
        {
          "internalType": "uint256",
          "name": "",
          "type": "uint256"
        }
      ],
      "stateMutability": "view",
      "type": "function"
    },
    {
      "inputs": [],
      "name": "STARTINGIDFORINTERNALTEAM",
      "outputs": [
        {
          "internalType": "uint256",
          "name": "",
          "type": "uint256"
        }
      ],
      "stateMutability": "view",
      "type": "function"
    },
    {
      "inputs": [],
      "name": "STARTINGIDFORPRT",
      "outputs": [
        {
          "internalType": "uint256",
          "name": "",
          "type": "uint256"
        }
      ],
      "stateMutability": "view",
      "type": "function"
    },
    {
      "inputs": [],
      "name": "_counter_for_generatelucky_mp",
      "outputs": [
        {
          "internalType": "uint256",
          "name": "_value",
          "type": "uint256"
        }
      ],
      "stateMutability": "view",
      "type": "function"
    },
    {
      "inputs": [],
      "name": "_counter_for_generatelucky_mp_airdrop",
      "outputs": [
        {
          "internalType": "uint256",
          "name": "_value",
          "type": "uint256"
        }
      ],
      "stateMutability": "view",
      "type": "function"
    },
    {
      "inputs": [],
      "name": "_counter_for_generatelucky_mp_internalteam",
      "outputs": [
        {
          "internalType": "uint256",
          "name": "_value",
          "type": "uint256"
        }
      ],
      "stateMutability": "view",
      "type": "function"
    },
    {
      "inputs": [
        {
          "internalType": "address",
          "name": "account",
          "type": "address"
        },
        {
          "internalType": "uint256",
          "name": "id",
          "type": "uint256"
        }
      ],
      "name": "balanceOf",
      "outputs": [
        {
          "internalType": "uint256",
          "name": "",
          "type": "uint256"
        }
      ],
      "stateMutability": "view",
      "type": "function"
    },
    {
      "inputs": [],
      "name": "balanceOfAccount",
      "outputs": [
        {
          "internalType": "uint256",
          "name": "",
          "type": "uint256"
        }
      ],
      "stateMutability": "payable",
      "type": "function"
    },
    {
      "inputs": [
        {
          "internalType": "address[]",
          "name": "accounts",
          "type": "address[]"
        },
        {
          "internalType": "uint256[]",
          "name": "ids",
          "type": "uint256[]"
        }
      ],
      "name": "balanceOfBatch",
      "outputs": [
        {
          "internalType": "uint256[]",
          "name": "",
          "type": "uint256[]"
        }
      ],
      "stateMutability": "view",
      "type": "function"
    },
    {
      "inputs": [
        {
          "internalType": "string",
          "name": "a",
          "type": "string"
        },
        {
          "internalType": "uint256",
          "name": "b",
          "type": "uint256"
        }
      ],
      "name": "concatenate",
      "outputs": [
        {
          "internalType": "string",
          "name": "",
          "type": "string"
        }
      ],
      "stateMutability": "pure",
      "type": "function"
    },
    {
      "inputs": [],
      "name": "contractBalance",
      "outputs": [
        {
          "internalType": "uint256",
          "name": "",
          "type": "uint256"
        }
      ],
      "stateMutability": "view",
      "type": "function"
    },
    {
      "inputs": [
        {
          "internalType": "uint256",
          "name": "id",
          "type": "uint256"
        }
      ],
      "name": "exists",
      "outputs": [
        {
          "internalType": "bool",
          "name": "",
          "type": "bool"
        }
      ],
      "stateMutability": "view",
      "type": "function"
    },
    {
      "inputs": [
        {
          "internalType": "uint256",
          "name": "",
          "type": "uint256"
        }
      ],
      "name": "intArrPRTAIRDROP",
      "outputs": [
        {
          "internalType": "uint256",
          "name": "",
          "type": "uint256"
        }
      ],
      "stateMutability": "view",
      "type": "function"
    },
    {
      "inputs": [
        {
          "internalType": "address",
          "name": "account",
          "type": "address"
        },
        {
          "internalType": "address",
          "name": "operator",
          "type": "address"
        }
      ],
      "name": "isApprovedForAll",
      "outputs": [
        {
          "internalType": "bool",
          "name": "",
          "type": "bool"
        }
      ],
      "stateMutability": "view",
      "type": "function"
    },
    {
      "inputs": [],
      "name": "mintAirdropMPIsOpen",
      "outputs": [
        {
          "internalType": "bool",
          "name": "",
          "type": "bool"
        }
      ],
      "stateMutability": "view",
      "type": "function"
    },
    {
      "inputs": [
        {
          "internalType": "uint256",
          "name": "tokenID",
          "type": "uint256"
        },
        {
          "internalType": "address",
          "name": "addr",
          "type": "address"
        }
      ],
      "name": "mintAndSafeTransferFromByOwner",
      "outputs": [],
      "stateMutability": "nonpayable",
      "type": "function"
    },
    {
      "inputs": [],
      "name": "mintInternalTeamMPIsOpen",
      "outputs": [
        {
          "internalType": "bool",
          "name": "",
          "type": "bool"
        }
      ],
      "stateMutability": "view",
      "type": "function"
    },
    {
      "inputs": [],
      "name": "mintMPIsOpen",
      "outputs": [
        {
          "internalType": "bool",
          "name": "",
          "type": "bool"
        }
      ],
      "stateMutability": "view",
      "type": "function"
    },
    {
      "inputs": [
        {
          "internalType": "address",
          "name": "account",
          "type": "address"
        },
        {
          "internalType": "uint8",
          "name": "_amount_wanted_able_to_get",
          "type": "uint8"
        },
        {
          "internalType": "uint8",
          "name": "stage",
          "type": "uint8"
        }
      ],
      "name": "mintNONMP",
      "outputs": [],
      "stateMutability": "payable",
      "type": "function"
    },
    {
      "inputs": [],
      "name": "name",
      "outputs": [
        {
          "internalType": "string",
          "name": "",
          "type": "string"
        }
      ],
      "stateMutability": "view",
      "type": "function"
    },
    {
      "inputs": [],
      "name": "numIssuedForAIRDROP",
      "outputs": [
        {
          "internalType": "uint256",
          "name": "",
          "type": "uint256"
        }
      ],
      "stateMutability": "view",
      "type": "function"
    },
    {
      "inputs": [],
      "name": "numIssuedForInternalTeamIDs",
      "outputs": [
        {
          "internalType": "uint256",
          "name": "",
          "type": "uint256"
        }
      ],
      "stateMutability": "view",
      "type": "function"
    },
    {
      "inputs": [],
      "name": "numIssuedForMP",
      "outputs": [
        {
          "internalType": "uint64",
          "name": "",
          "type": "uint64"
        }
      ],
      "stateMutability": "view",
      "type": "function"
    },
    {
      "inputs": [],
      "name": "numIssuedForNormalUser",
      "outputs": [
        {
          "internalType": "uint256",
          "name": "",
          "type": "uint256"
        }
      ],
      "stateMutability": "view",
      "type": "function"
    },
    {
      "inputs": [],
      "name": "owner",
      "outputs": [
        {
          "internalType": "address",
          "name": "",
          "type": "address"
        }
      ],
      "stateMutability": "view",
      "type": "function"
    },
    {
      "inputs": [
        {
          "internalType": "uint256",
          "name": "index",
          "type": "uint256"
        }
      ],
      "name": "payee",
      "outputs": [
        {
          "internalType": "address",
          "name": "",
          "type": "address"
        }
      ],
      "stateMutability": "view",
      "type": "function"
    },
    {
      "inputs": [
        {
          "internalType": "address",
          "name": "",
          "type": "address"
        }
      ],
      "name": "perAddressMPs",
      "outputs": [
        {
          "internalType": "string",
          "name": "",
          "type": "string"
        }
      ],
      "stateMutability": "view",
      "type": "function"
    },
    {
      "inputs": [],
      "name": "presalePRT",
      "outputs": [
        {
          "internalType": "uint8",
          "name": "",
          "type": "uint8"
        }
      ],
      "stateMutability": "view",
      "type": "function"
    },
    {
      "inputs": [
        {
          "internalType": "uint256",
          "name": "",
          "type": "uint256"
        }
      ],
      "name": "prtPerAddress",
      "outputs": [
        {
          "internalType": "address",
          "name": "",
          "type": "address"
        }
      ],
      "stateMutability": "view",
      "type": "function"
    },
    {
      "inputs": [],
      "name": "qntmintmpforairdrop",
      "outputs": [
        {
          "internalType": "uint256",
          "name": "",
          "type": "uint256"
        }
      ],
      "stateMutability": "view",
      "type": "function"
    },
    {
      "inputs": [],
      "name": "qntmintmpforinternalteam",
      "outputs": [
        {
          "internalType": "uint256",
          "name": "",
          "type": "uint256"
        }
      ],
      "stateMutability": "view",
      "type": "function"
    },
    {
      "inputs": [],
      "name": "qntmintmpfornormaluser",
      "outputs": [
        {
          "internalType": "uint256",
          "name": "",
          "type": "uint256"
        }
      ],
      "stateMutability": "view",
      "type": "function"
    },
    {
      "inputs": [],
      "name": "qntmintnonmpforairdrop",
      "outputs": [
        {
          "internalType": "uint256",
          "name": "",
          "type": "uint256"
        }
      ],
      "stateMutability": "view",
      "type": "function"
    },
    {
      "inputs": [],
      "name": "qntmintnonmpforinternalteam",
      "outputs": [
        {
          "internalType": "uint256",
          "name": "",
          "type": "uint256"
        }
      ],
      "stateMutability": "view",
      "type": "function"
    },
    {
      "inputs": [],
      "name": "qntmintnonmpfornormaluser",
      "outputs": [
        {
          "internalType": "uint256",
          "name": "",
          "type": "uint256"
        }
      ],
      "stateMutability": "view",
      "type": "function"
    },
    {
      "inputs": [
        {
          "internalType": "address",
          "name": "account",
          "type": "address"
        }
      ],
      "name": "releasable",
      "outputs": [
        {
          "internalType": "uint256",
          "name": "",
          "type": "uint256"
        }
      ],
      "stateMutability": "view",
      "type": "function"
    },
    {
      "inputs": [
        {
          "internalType": "contract IERC20",
          "name": "token",
          "type": "address"
        },
        {
          "internalType": "address",
          "name": "account",
          "type": "address"
        }
      ],
      "name": "releasable",
      "outputs": [
        {
          "internalType": "uint256",
          "name": "",
          "type": "uint256"
        }
      ],
      "stateMutability": "view",
      "type": "function"
    },
    {
      "inputs": [
        {
          "internalType": "address payable",
          "name": "account",
          "type": "address"
        }
      ],
      "name": "release",
      "outputs": [],
      "stateMutability": "nonpayable",
      "type": "function"
    },
    {
      "inputs": [
        {
          "internalType": "contract IERC20",
          "name": "token",
          "type": "address"
        },
        {
          "internalType": "address",
          "name": "account",
          "type": "address"
        }
      ],
      "name": "release",
      "outputs": [],
      "stateMutability": "nonpayable",
      "type": "function"
    },
    {
      "inputs": [
        {
          "internalType": "contract IERC20",
          "name": "token",
          "type": "address"
        },
        {
          "internalType": "address",
          "name": "account",
          "type": "address"
        }
      ],
      "name": "released",
      "outputs": [
        {
          "internalType": "uint256",
          "name": "",
          "type": "uint256"
        }
      ],
      "stateMutability": "view",
      "type": "function"
    },
    {
      "inputs": [
        {
          "internalType": "address",
          "name": "account",
          "type": "address"
        }
      ],
      "name": "released",
      "outputs": [
        {
          "internalType": "uint256",
          "name": "",
          "type": "uint256"
        }
      ],
      "stateMutability": "view",
      "type": "function"
    },
    {
      "inputs": [],
      "name": "renounceOwnership",
      "outputs": [],
      "stateMutability": "nonpayable",
      "type": "function"
    },
    {
      "inputs": [],
      "name": "revealed",
      "outputs": [
        {
          "internalType": "bool",
          "name": "",
          "type": "bool"
        }
      ],
      "stateMutability": "view",
      "type": "function"
    },
    {
      "inputs": [
        {
          "internalType": "address",
          "name": "from",
          "type": "address"
        },
        {
          "internalType": "address",
          "name": "to",
          "type": "address"
        },
        {
          "internalType": "uint256[]",
          "name": "ids",
          "type": "uint256[]"
        },
        {
          "internalType": "uint256[]",
          "name": "amounts",
          "type": "uint256[]"
        },
        {
          "internalType": "bytes",
          "name": "data",
          "type": "bytes"
        }
      ],
      "name": "safeBatchTransferFrom",
      "outputs": [],
      "stateMutability": "nonpayable",
      "type": "function"
    },
    {
      "inputs": [
        {
          "internalType": "address",
          "name": "from",
          "type": "address"
        },
        {
          "internalType": "address",
          "name": "to",
          "type": "address"
        },
        {
          "internalType": "uint256",
          "name": "id",
          "type": "uint256"
        },
        {
          "internalType": "uint256",
          "name": "amount",
          "type": "uint256"
        },
        {
          "internalType": "bytes",
          "name": "data",
          "type": "bytes"
        }
      ],
      "name": "safeTransferFrom",
      "outputs": [],
      "stateMutability": "nonpayable",
      "type": "function"
    },
    {
      "inputs": [],
      "name": "sendMPAirdrop",
      "outputs": [],
      "stateMutability": "nonpayable",
      "type": "function"
    },
    {
      "inputs": [],
      "name": "sendMPAllDoneForAirdrop",
      "outputs": [
        {
          "internalType": "bool",
          "name": "",
          "type": "bool"
        }
      ],
      "stateMutability": "view",
      "type": "function"
    },
    {
      "inputs": [],
      "name": "sendMPAllDoneForInternalTeam",
      "outputs": [
        {
          "internalType": "bool",
          "name": "",
          "type": "bool"
        }
      ],
      "stateMutability": "view",
      "type": "function"
    },
    {
      "inputs": [],
      "name": "sendMPAllDoneForNormalUsers",
      "outputs": [
        {
          "internalType": "bool",
          "name": "",
          "type": "bool"
        }
      ],
      "stateMutability": "view",
      "type": "function"
    },
    {
      "inputs": [],
      "name": "sendMPInternalTeam",
      "outputs": [],
      "stateMutability": "nonpayable",
      "type": "function"
    },
    {
      "inputs": [],
      "name": "sendMPNormalUsers",
      "outputs": [],
      "stateMutability": "nonpayable",
      "type": "function"
    },
    {
      "inputs": [
        {
          "internalType": "address",
          "name": "operator",
          "type": "address"
        },
        {
          "internalType": "bool",
          "name": "approved",
          "type": "bool"
        }
      ],
      "name": "setApprovalForAll",
      "outputs": [],
      "stateMutability": "nonpayable",
      "type": "function"
    },
    {
      "inputs": [
        {
          "internalType": "uint256",
          "name": "price",
          "type": "uint256"
        }
      ],
      "name": "setPRICE_PRT",
      "outputs": [],
      "stateMutability": "nonpayable",
      "type": "function"
    },
    {
      "inputs": [
        {
          "internalType": "uint256",
          "name": "price",
          "type": "uint256"
        }
      ],
      "name": "setPRICE_PRT_AIRDROP",
      "outputs": [],
      "stateMutability": "nonpayable",
      "type": "function"
    },
    {
      "inputs": [
        {
          "internalType": "uint256",
          "name": "price",
          "type": "uint256"
        }
      ],
      "name": "setPRICE_PRT_INTERNALTEAM",
      "outputs": [],
      "stateMutability": "nonpayable",
      "type": "function"
    },
    {
      "inputs": [
        {
          "internalType": "uint8",
          "name": "num",
          "type": "uint8"
        }
      ],
      "name": "setPreSalePRT",
      "outputs": [],
      "stateMutability": "nonpayable",
      "type": "function"
    },
    {
      "inputs": [
        {
          "internalType": "uint8",
          "name": "amount",
          "type": "uint8"
        },
        {
          "internalType": "uint8",
          "name": "amount_per_transaction",
          "type": "uint8"
        }
      ],
      "name": "set_MAX_PRT_AMOUNT_PER_ACC_AND_TRANSACTION_INTERNAL",
      "outputs": [],
      "stateMutability": "nonpayable",
      "type": "function"
    },
    {
      "inputs": [
        {
          "internalType": "address",
          "name": "account",
          "type": "address"
        }
      ],
      "name": "shares",
      "outputs": [
        {
          "internalType": "uint256",
          "name": "",
          "type": "uint256"
        }
      ],
      "stateMutability": "view",
      "type": "function"
    },
    {
      "inputs": [
        {
          "internalType": "bytes4",
          "name": "interfaceId",
          "type": "bytes4"
        }
      ],
      "name": "supportsInterface",
      "outputs": [
        {
          "internalType": "bool",
          "name": "",
          "type": "bool"
        }
      ],
      "stateMutability": "view",
      "type": "function"
    },
    {
      "inputs": [],
      "name": "symbol",
      "outputs": [
        {
          "internalType": "string",
          "name": "",
          "type": "string"
        }
      ],
      "stateMutability": "view",
      "type": "function"
    },
    {
      "inputs": [],
      "name": "toggleMintAirdropMPIsOpen",
      "outputs": [],
      "stateMutability": "nonpayable",
      "type": "function"
    },
    {
      "inputs": [],
      "name": "toggleMintInternalTeamMPIsOpen",
      "outputs": [],
      "stateMutability": "nonpayable",
      "type": "function"
    },
    {
      "inputs": [],
      "name": "toggleMintMPIsOpen",
      "outputs": [],
      "stateMutability": "nonpayable",
      "type": "function"
    },
    {
      "inputs": [],
      "name": "toggleReveal",
      "outputs": [],
      "stateMutability": "nonpayable",
      "type": "function"
    },
    {
      "inputs": [
        {
          "internalType": "contract IERC20",
          "name": "token",
          "type": "address"
        }
      ],
      "name": "totalReleased",
      "outputs": [
        {
          "internalType": "uint256",
          "name": "",
          "type": "uint256"
        }
      ],
      "stateMutability": "view",
      "type": "function"
    },
    {
      "inputs": [],
      "name": "totalReleased",
      "outputs": [
        {
          "internalType": "uint256",
          "name": "",
          "type": "uint256"
        }
      ],
      "stateMutability": "view",
      "type": "function"
    },
    {
      "inputs": [],
      "name": "totalShares",
      "outputs": [
        {
          "internalType": "uint256",
          "name": "",
          "type": "uint256"
        }
      ],
      "stateMutability": "view",
      "type": "function"
    },
    {
      "inputs": [
        {
          "internalType": "uint256",
          "name": "id",
          "type": "uint256"
        }
      ],
      "name": "totalSupply",
      "outputs": [
        {
          "internalType": "uint256",
          "name": "",
          "type": "uint256"
        }
      ],
      "stateMutability": "view",
      "type": "function"
    },
    {
      "inputs": [
        {
          "internalType": "address",
          "name": "newOwner",
          "type": "address"
        }
      ],
      "name": "transferOwnership",
      "outputs": [],
      "stateMutability": "nonpayable",
      "type": "function"
    },
    {
      "inputs": [
        {
          "internalType": "uint256",
          "name": "",
          "type": "uint256"
        }
      ],
      "name": "uri",
      "outputs": [
        {
          "internalType": "string",
          "name": "",
          "type": "string"
        }
      ],
      "stateMutability": "view",
      "type": "function"
    },
    {
      "inputs": [
        {
          "internalType": "address",
          "name": "",
          "type": "address"
        }
      ],
      "name": "userNONMPs",
      "outputs": [
        {
          "internalType": "uint8",
          "name": "",
          "type": "uint8"
        }
      ],
      "stateMutability": "view",
      "type": "function"
    },
    {
      "inputs": [],
      "name": "withdraw",
      "outputs": [],
      "stateMutability": "payable",
      "type": "function"
    },
    {
      "inputs": [],
      "name": "xrand",
      "outputs": [
        {
          "internalType": "uint8",
          "name": "",
          "type": "uint8"
        }
      ],
      "stateMutability": "view",
      "type": "function"
    },
    {
      "stateMutability": "payable",
      "type": "receive"
    }
  ],
  "bytecode": "0x60c0604052601060809081526f564950534c414e442047454e4553495360801b60a052600d90620000319082620007f5565b50604080518082019091526004815263159414d360e21b6020820152600e906200005c9082620007f5565b506011805460ff1990811690915560006013819055601481905560158190556016805483166012179055601a80546001600160401b0319166004179055601f805461191961ffff199091161790556701b4fbd92b5f80006020556021819055602281905560248190556025819055602681905560288190556029819055602a819055602c805463ffffffff19169055602d819055602e819055602f8190556030805462ffffff1916905560318190556032556033805490911690553480156200012457600080fd5b506040516200689d3803806200689d833981016040819052620001479162000a1a565b838383620001558162000497565b506200016133620004a9565b8051825114620001d35760405162461bcd60e51b815260206004820152603260248201527f5061796d656e7453706c69747465723a2070617965657320616e6420736861726044820152710cae640d8cadccee8d040dad2e6dac2e8c6d60731b60648201526084015b60405180910390fd5b6000825111620002265760405162461bcd60e51b815260206004820152601a60248201527f5061796d656e7453706c69747465723a206e6f207061796565730000000000006044820152606401620001ca565b60005b825181101562000292576200027d8382815181106200024c576200024c62000b47565b602002602001015183838151811062000269576200026962000b47565b6020026020010151620004fb60201b60201c565b80620002898162000b73565b91505062000229565b50506001600c5550600f620002a88382620007f5565b506010620002b78282620007f5565b50620002c76064614e2062000b8f565b6001600160401b03811115620002e157620002e162000750565b6040519080825280602002602001820160405280156200030b578160200160208202803683370190505b5080516200032291601b91602090910190620006e9565b506002601b6000815481106200033c576200033c62000b47565b60009182526020909120015562000359612710620222e062000b8f565b6001600160401b0381111562000373576200037362000750565b6040519080825280602002602001820160405280156200039d578160200160208202803683370190505b508051620003b491602391602090910190620006e9565b50620003c56103e8614e2062000b8f565b6001600160401b03811115620003df57620003df62000750565b60405190808252806020026020018201604052801562000409578160200160208202803683370190505b5080516200042091602791602090910190620006e9565b50620004316104576122b862000b8f565b6001600160401b038111156200044b576200044b62000750565b60405190808252806020026020018201604052801562000475578160200160208202803683370190505b5080516200048c91602b91602090910190620006e9565b505050505062000bce565b6002620004a58282620007f5565b5050565b600480546001600160a01b038381166001600160a01b0319831681179093556040519116919082907f8be0079c531659141344cd1fd0a4f28419497f9722a3daafe3b4186f6b6457e090600090a35050565b6001600160a01b038216620005685760405162461bcd60e51b815260206004820152602c60248201527f5061796d656e7453706c69747465723a206163636f756e74206973207468652060448201526b7a65726f206164647265737360a01b6064820152608401620001ca565b60008111620005ba5760405162461bcd60e51b815260206004820152601d60248201527f5061796d656e7453706c69747465723a207368617265732061726520300000006044820152606401620001ca565b6001600160a01b03821660009081526007602052604090205415620006365760405162461bcd60e51b815260206004820152602b60248201527f5061796d656e7453706c69747465723a206163636f756e7420616c726561647960448201526a206861732073686172657360a81b6064820152608401620001ca565b60098054600181019091557f6e1540171b6c0c960b71a7020d9f60077f6af931a8bbf590da0223dacf75c7af0180546001600160a01b0319166001600160a01b0384169081179091556000908152600760205260409020819055600554620006a090829062000bb2565b600555604080516001600160a01b0384168152602081018390527f40c340f65e17194d14ddddb073d3c9f888e3cb52b5aae0c6c7706b4fbc905fac910160405180910390a15050565b82805482825590600052602060002090810192821562000727579160200282015b82811115620007275782518255916020019190600101906200070a565b506200073592915062000739565b5090565b5b808211156200073557600081556001016200073a565b634e487b7160e01b600052604160045260246000fd5b600181811c908216806200077b57607f821691505b6020821081036200079c57634e487b7160e01b600052602260045260246000fd5b50919050565b601f821115620007f057600081815260208120601f850160051c81016020861015620007cb5750805b601f850160051c820191505b81811015620007ec57828155600101620007d7565b5050505b505050565b81516001600160401b0381111562000811576200081162000750565b620008298162000822845462000766565b84620007a2565b602080601f831160018114620008615760008415620008485750858301515b600019600386901b1c1916600185901b178555620007ec565b600085815260208120601f198616915b82811015620008925788860151825594840194600190910190840162000871565b5085821015620008b15787850151600019600388901b60f8161c191681555b5050505050600190811b01905550565b604051601f8201601f191681016001600160401b0381118282101715620008ec57620008ec62000750565b604052919050565b60006001600160401b0382111562000910576200091062000750565b5060051b60200190565b600082601f8301126200092c57600080fd5b81516020620009456200093f83620008f4565b620008c1565b82815260059290921b840181019181810190868411156200096557600080fd5b8286015b8481101562000982578051835291830191830162000969565b509695505050505050565b600082601f8301126200099f57600080fd5b81516001600160401b03811115620009bb57620009bb62000750565b6020620009d1601f8301601f19168201620008c1565b8281528582848701011115620009e657600080fd5b60005b8381101562000a06578581018301518282018401528201620009e9565b506000928101909101919091529392505050565b6000806000806080858703121562000a3157600080fd5b84516001600160401b038082111562000a4957600080fd5b818701915087601f83011262000a5e57600080fd5b8151602062000a716200093f83620008f4565b82815260059290921b8401810191818101908b84111562000a9157600080fd5b948201945b8386101562000ac85785516001600160a01b038116811462000ab85760008081fd5b8252948201949082019062000a96565b918a015191985090935050508082111562000ae257600080fd5b62000af0888389016200091a565b9450604087015191508082111562000b0757600080fd5b62000b15888389016200098d565b9350606087015191508082111562000b2c57600080fd5b5062000b3b878288016200098d565b91505092959194509250565b634e487b7160e01b600052603260045260246000fd5b634e487b7160e01b600052601160045260246000fd5b60006001820162000b885762000b8862000b5d565b5060010190565b60008262000bad57634e487b7160e01b600052601260045260246000fd5b500490565b8082018082111562000bc85762000bc862000b5d565b92915050565b615cbf8062000bde6000396000f3fe6080604052600436106104ee5760003560e01c80637a1d48f41161028c578063bd85b0391161015a578063d79779b2116100cc578063e33b7de311610085578063e33b7de314610e92578063e67ff55214610ea7578063e985e9c514610ebe578063f242432a14610f07578063f2fde38b14610f27578063fe47d7f214610f4757600080fd5b8063d79779b214610df2578063d7abf186146106f3578063da8ab07114610e28578063db9a850914610e3d578063defb1d4514610e53578063df8c6cd314610e7257600080fd5b8063c82190c41161011e578063c82190c414610d4f578063c9b4f6ef146107fb578063cd0b99cd146107cf578063ce7c2ac214610d66578063cea8f9c014610d9c578063cffbd26f14610dbc57600080fd5b8063bd85b03914610cac578063c03438ef14610cd9578063c45ac05014610cf9578063c6358ecd14610d19578063c7a3b01314610d3957600080fd5b806395d89b41116101fe578063a3f8eace116101b7578063a3f8eace14610c13578063a57674e714610c33578063a882fea414610c48578063b1feb18d14610c5d578063b247796414610c77578063b861639414610c9657600080fd5b806395d89b4114610b7c57806397c66270146107cf5780639852595c14610b915780639daf187214610bc75780639e26975714610bdc578063a22cb46514610bf357600080fd5b80638515c7ac116102505780638515c7ac14610ad35780638913fbe014610af35780638b7afe2e14610b095780638b83209b14610b1e5780638da5cb5b14610b5657806394a271fd14610b7457600080fd5b80637a1d48f414610a4e5780637d46d87014610a6e5780637de1c2be14610a8357806382a3169314610a9d578063833bc78814610ab357600080fd5b80632fef4579116103c95780634e1273f41161033b5780636bfcf578116102f45780636bfcf578146109c15780636c5959e3146109d65780636e27b972146109ec578063715018a614610a0357806375d909ef14610a185780637862ed6414610a2e57600080fd5b80634e1273f4146108ff5780634f558e791461092c578063518302271461095b5780635308ca78146109755780635b8ad4291461098b5780635de701f9146109a057600080fd5b80633ccfd60b1161038d5780633ccfd60b1461084e578063406072a914610856578063438d4bc11461089c57806344c3c7b9146108b257806348b75044146108c95780634a098124146108e957600080fd5b80632fef4579146107e5578063380b5f75146107fb5780633919e5ba14610810578063395dcb64146108235780633a98ef391461083957600080fd5b80631902aa4a116104625780632a37e4af116104265780632a37e4af1461074e5780632b2be7f5146107655780632d187ef7146107845780632d23bf5a146107995780632eb2c2d6146107af5780632fcf9d4b146107cf57600080fd5b80631902aa4a1461069b57806319165587146106d357806319f32a50146106f357806320c6974e1461071a57806328b33aae1461073457600080fd5b806306fdde03116104b457806306fdde03146105eb5780630e89341c1461060d578063108241181461062d57806310dd92471461064f57806311e6fb631461066557806312deb6031461067b57600080fd5b806201d05b1461053c578062fdd58e14610565578063015532081461058557806301ffc9a7146105b557806304bf41d8146105d557600080fd5b36610537577f6ef95f06320e7a25a04a175ca677b7052bdd97131872c2192525a629f51be77033604080516001600160a01b0390921682523460208301520160405180910390a1005b600080fd5b34801561054857600080fd5b5061055260215481565b6040519081526020015b60405180910390f35b34801561057157600080fd5b50610552610580366004614e09565b610f77565b34801561059157600080fd5b50602c546105a59062010000900460ff1681565b604051901515815260200161055c565b3480156105c157600080fd5b506105a56105d0366004614e4b565b611010565b3480156105e157600080fd5b50610552614e2181565b3480156105f757600080fd5b50610600611060565b60405161055c9190614eb8565b34801561061957600080fd5b50610600610628366004614ecb565b6110ee565b34801561063957600080fd5b5061064d610648366004614efa565b6111ba565b005b34801561065b57600080fd5b5061055260145481565b34801561067157600080fd5b5061055260135481565b34801561068757600080fd5b50610600610696366004614f15565b611214565b3480156106a757600080fd5b50601a546106bb906001600160401b031681565b6040516001600160401b03909116815260200161055c565b3480156106df57600080fd5b5061064d6106ee366004614f15565b61122d565b3480156106ff57600080fd5b50610708600381565b60405160ff909116815260200161055c565b34801561072657600080fd5b506016546107089060ff1681565b34801561074057600080fd5b50601f546107089060ff1681565b34801561075a57600080fd5b506018546105529081565b34801561077157600080fd5b50601f5461070890610100900460ff1681565b34801561079057600080fd5b5061064d611314565b3480156107a557600080fd5b5061055260155481565b3480156107bb57600080fd5b5061064d6107ca366004615085565b61133b565b3480156107db57600080fd5b50610552614e2081565b3480156107f157600080fd5b5061055260225481565b34801561080757600080fd5b50610708606481565b61064d61081e366004615132565b611387565b34801561082f57600080fd5b506105526103e881565b34801561084557600080fd5b50600554610552565b61064d6114df565b34801561086257600080fd5b50610552610871366004615177565b6001600160a01b039182166000908152600b6020908152604080832093909416825291909152205490565b3480156108a857600080fd5b5061055260285481565b3480156108be57600080fd5b50610552620222e081565b3480156108d557600080fd5b5061064d6108e4366004615177565b611516565b3480156108f557600080fd5b5061055260255481565b34801561090b57600080fd5b5061091f61091a3660046151b0565b611627565b60405161055c91906152b7565b34801561093857600080fd5b506105a5610947366004614ecb565b600090815260036020526040902054151590565b34801561096757600080fd5b506011546105a59060ff1681565b34801561098157600080fd5b5061055261271081565b34801561099757600080fd5b5061064d611750565b3480156109ac57600080fd5b50602c546105a5906301000000900460ff1681565b3480156109cd57600080fd5b5061064d61176c565b3480156109e257600080fd5b5061055260205481565b3480156109f857600080fd5b506017546105529081565b348015610a0f57600080fd5b5061064d611795565b348015610a2457600080fd5b5061055260245481565b348015610a3a57600080fd5b5061064d610a49366004614ecb565b6117a9565b348015610a5a57600080fd5b5061064d610a69366004614ecb565b6117b6565b348015610a7a57600080fd5b5061064d6117c3565b348015610a8f57600080fd5b50602c546107089060ff1681565b348015610aa957600080fd5b506105526122b881565b348015610abf57600080fd5b50610600610ace3660046152ca565b611bda565b348015610adf57600080fd5b5061064d610aee366004615322565b611c0e565b348015610aff57600080fd5b50610552602a5481565b348015610b1557600080fd5b50610552611c76565b348015610b2a57600080fd5b50610b3e610b39366004614ecb565b611c86565b6040516001600160a01b03909116815260200161055c565b348015610b6257600080fd5b506004546001600160a01b0316610b3e565b610552611cb6565b348015610b8857600080fd5b50610600611cc5565b348015610b9d57600080fd5b50610552610bac366004614f15565b6001600160a01b031660009081526008602052604090205490565b348015610bd357600080fd5b50610708602381565b348015610be857600080fd5b506019546105529081565b348015610bff57600080fd5b5061064d610c0e366004615363565b611cd2565b348015610c1f57600080fd5b50610552610c2e366004614f15565b611ce1565b348015610c3f57600080fd5b5061064d611d29565b348015610c5457600080fd5b5061064d6120ab565b348015610c6957600080fd5b506030546105a59060ff1681565b348015610c8357600080fd5b506030546105a590610100900460ff1681565b348015610ca257600080fd5b5061055260265481565b348015610cb857600080fd5b50610552610cc7366004614ecb565b60009081526003602052604090205490565b348015610ce557600080fd5b5061064d610cf4366004615391565b6124b9565b348015610d0557600080fd5b50610552610d14366004615177565b61260e565b348015610d2557600080fd5b5061064d610d34366004614ecb565b6126d9565b348015610d4557600080fd5b5061055261045781565b348015610d5b57600080fd5b506105526202710181565b348015610d7257600080fd5b50610552610d81366004614f15565b6001600160a01b031660009081526007602052604090205490565b348015610da857600080fd5b506030546105a59062010000900460ff1681565b348015610dc857600080fd5b50610b3e610dd7366004614ecb565b601d602052600090815260409020546001600160a01b031681565b348015610dfe57600080fd5b50610552610e0d366004614f15565b6001600160a01b03166000908152600a602052604090205490565b348015610e3457600080fd5b5061064d6126e6565b348015610e4957600080fd5b5061055260295481565b348015610e5f57600080fd5b50602c546105a590610100900460ff1681565b348015610e7e57600080fd5b50610552610e8d366004614ecb565b61270b565b348015610e9e57600080fd5b50600654610552565b348015610eb357600080fd5b506105526202bf2181565b348015610eca57600080fd5b506105a5610ed9366004615177565b6001600160a01b03918216600090815260016020908152604080832093909416825291909152205460ff1690565b348015610f1357600080fd5b5061064d610f223660046153b6565b61272c565b348015610f3357600080fd5b5061064d610f42366004614f15565b612771565b348015610f5357600080fd5b50610708610f62366004614f15565b601e6020526000908152604090205460ff1681565b60006001600160a01b038316610fe75760405162461bcd60e51b815260206004820152602a60248201527f455243313135353a2061646472657373207a65726f206973206e6f742061207660448201526930b634b21037bbb732b960b11b60648201526084015b60405180910390fd5b506000818152602081815260408083206001600160a01b03861684529091529020545b92915050565b60006001600160e01b03198216636cdb3d1360e11b148061104157506001600160e01b031982166303a24d0760e21b145b8061100a57506301ffc9a760e01b6001600160e01b031983161461100a565b600d805461106d9061541e565b80601f01602080910402602001604051908101604052809291908181526020018280546110999061541e565b80156110e65780601f106110bb576101008083540402835291602001916110e6565b820191906000526020600020905b8154815290600101906020018083116110c957829003601f168201915b505050505081565b60115460609060ff16151560000361119257600f805461110d9061541e565b80601f01602080910402602001604051908101604052809291908181526020018280546111399061541e565b80156111865780601f1061115b57610100808354040283529160200191611186565b820191906000526020600020905b81548152906001019060200180831161116957829003601f168201915b50505050509050919050565b60106040516020016111a49190615458565b6040516020818303038152906040529050919050565b6111c26127e7565b60ff811660078111156111fd5760405162461bcd60e51b815260206004820152600360248201526232991960e91b6044820152606401610fde565b50602c805460ff191660ff92909216919091179055565b601c602052600090815260409020805461106d9061541e565b6001600160a01b0381166000908152600760205260409020546112625760405162461bcd60e51b8152600401610fde906154e8565b600061126d82611ce1565b90508060000361128f5760405162461bcd60e51b8152600401610fde9061552e565b80600660008282546112a1919061558f565b90915550506001600160a01b03821660009081526008602052604090208054820190556112ce8282612841565b604080516001600160a01b0384168152602081018390527fdf20fd1e76bc69d672e4814fafb2c449bba3a5369d8359adf9e05e6fde87b056910160405180910390a15050565b61131c6127e7565b602c805462ff0000198116620100009182900460ff1615909102179055565b6001600160a01b03851633148061135757506113578533610ed9565b6113735760405162461bcd60e51b8152600401610fde906155a2565b611380858585858561295a565b5050505050565b82336001600160a01b038216146113c55760405162461bcd60e51b8152602060048201526002602482015261194d60f21b6044820152606401610fde565b3332146113e45760405162461bcd60e51b8152600401610fde906155f0565b602c5460ff1660000361141f5760405162461bcd60e51b8152602060048201526003602482015262194c4d60ea1b6044820152606401610fde565b611427612b04565b60008360ff16116114605760405162461bcd60e51b815260206004820152600360248201526265313560e81b6044820152606401610fde565b336114935760405162461bcd60e51b815260206004820152600360248201526232989b60e91b6044820152606401610fde565b8160ff166001036114a7576114a783612b5d565b8160ff166002036114bb576114bb83613056565b8160ff166004036114cf576114cf836134c1565b6114d96001600c55565b50505050565b6114e76127e7565b60405133904780156108fc02916000818181858888f19350505050158015611513573d6000803e3d6000fd5b50565b6001600160a01b03811660009081526007602052604090205461154b5760405162461bcd60e51b8152600401610fde906154e8565b6000611557838361260e565b9050806000036115795760405162461bcd60e51b8152600401610fde9061552e565b6001600160a01b0383166000908152600a6020526040812080548392906115a190849061558f565b90915550506001600160a01b038084166000908152600b602090815260408083209386168352929052208054820190556115dc838383613a02565b604080516001600160a01b038481168252602082018490528516917f3be5b7a71e84ed12875d241991c70855ac5817d847039e17a9d895c1ceb0f18a910160405180910390a2505050565b6060815183511461168c5760405162461bcd60e51b815260206004820152602960248201527f455243313135353a206163636f756e747320616e6420696473206c656e677468604482015268040dad2e6dac2e8c6d60bb1b6064820152608401610fde565b600083516001600160401b038111156116a7576116a7614f32565b6040519080825280602002602001820160405280156116d0578160200160208202803683370190505b50905060005b84518110156117485761171b8582815181106116f4576116f461560c565b602002602001015185838151811061170e5761170e61560c565b6020026020010151610f77565b82828151811061172d5761172d61560c565b602090810291909101015261174181615622565b90506116d6565b509392505050565b6117586127e7565b6011805460ff19811660ff90911615179055565b6117746127e7565b602c805463ff00000019811663010000009182900460ff1615909102179055565b61179d6127e7565b6117a76000613a54565b565b6117b16127e7565b602455565b6117be6127e7565b602055565b3332146117e25760405162461bcd60e51b8152600401610fde906155f0565b6117ea6127e7565b602c546301000000900460ff166118285760405162461bcd60e51b8152602060048201526002602482015261329b60f11b6044820152606401610fde565b60305460ff1615156001146118655760405162461bcd60e51b815260206004820152600360248201526232989960e91b6044820152606401610fde565b603054610100900460ff16156118a35760405162461bcd60e51b815260206004820152600360248201526265313360e81b6044820152606401610fde565b6118b1601980546001019055565b60006118bc60195490565b905060006118cb603154613aa6565b6033805460ff191660ff9390931692909217909155602f549091505b6118f3836103e861563b565b811015611bc657603354600090819060ff166001036119ee5761271061191c84620293b861563b565b6119269190615668565b60165462ffffff919091169060ff16614e20611945876202710061567c565b62ffffff16611954919061558f565b61195f90600161558f565b611969919061558f565b611973919061558f565b905061271061198584620293b861563b565b61199090600161558f565b61199a9190615668565b60165462ffffff919091169060ff16614e206119b9876202710061567c565b62ffffff166119c8919061558f565b6119d390600161558f565b6119dd919061558f565b6119e7919061558f565b9150611acc565b6127106119fe84620293b861563b565b611a089190615668565b60165462ffffff919091169060ff16614e20611a27876202710061569f565b62ffffff16611a36919061558f565b611a4190600161558f565b611a4b919061558f565b611a55919061558f565b9050612710611a6784620293b861563b565b611a7290600161558f565b611a7c9190615668565b60165462ffffff919091169060ff16614e20611a9b876202710061569f565b62ffffff16611aaa919061558f565b611ab590600161558f565b611abf919061558f565b611ac9919061558f565b91505b60006122b8614e20611ae1620222e08261558f565b611aeb919061558f565b611af5919061558f565b9050808362ffffff161180611b0e5750808262ffffff16115b6030805461ff0019166101009215158302179081905560405160ff929091049190911615158152600080516020615c6a8339815191529060200160405180910390a1603054610100900460ff1615611b6857505050611bc6565b601654601554611b7f918491849160ff1690613b59565b60155560305460405161010090910460ff1615158152600080516020615c6a8339815191529060200160405180910390a15050508080611bbe90615622565b9150506118e7565b50611bd3826103e861563b565b602f555050565b606082611be683613d3a565b604051602001611bf79291906156bb565b604051602081830303815290604052905092915050565b611c166127e7565b8160ff168160ff161115611c525760405162461bcd60e51b815260206004820152600360248201526265323360e81b6044820152606401610fde565b601f805460ff9283166101000261ffff199091169290931691909117919091179055565b6000611c806127e7565b50475b90565b600060098281548110611c9b57611c9b61560c565b6000918252602090912001546001600160a01b031692915050565b6000611cc06127e7565b503490565b600e805461106d9061541e565b611cdd338383613dcc565b5050565b600080611ced60065490565b611cf7904761558f565b9050611d228382611d1d866001600160a01b031660009081526008602052604090205490565b613eac565b9392505050565b333214611d485760405162461bcd60e51b8152600401610fde906155f0565b611d506127e7565b602c54610100900460ff16611d8c5760405162461bcd60e51b8152602060048201526002602482015261653560f01b6044820152606401610fde565b60305460ff1615611dc45760405162461bcd60e51b8152602060048201526002602482015261653960f01b6044820152606401610fde565b60165460ff16601203611df057611ddb6011613eea565b6016805460ff191660ff929092169190911790555b611dfe601780546001019055565b6000611e0960175490565b602d549091506000905b611e1f836103e861563b565b811015612097576000612710611e3883620293b861563b565b611e429190615668565b60165462ffffff919091169060ff16611e5e614e20600161558f565b611e68919061558f565b611e72919061558f565b90506000611e85620222e0614e2061558f565b90506000612710611e9985620293b861563b565b611ea490600161558f565b611eae9190615668565b60165462ffffff919091169060ff16611eca614e20600161558f565b611ed4919061558f565b611ede919061558f565b9050818162ffffff161180611ef75750818362ffffff16115b6030805460ff1916911515918217905560405160ff90911615158152600080516020615c6a8339815191529060200160405180910390a160305460ff161561203b5762ffffff81166031819055600090611f5090613aa6565b6033805460ff90931660ff19909316831790559150600103611fd157611f7c61271063bf438041615668565b60165462ffffff919091169060ff16614e20611f9b84620222e061567c565b62ffffff16611faa919061558f565b611fb590600161558f565b611fbf919061558f565b611fc9919061558f565b603255612032565b611fe161271063bf438041615668565b60165462ffffff919091169060ff16614e2061200084620222e061569f565b62ffffff1661200f919061558f565b61201a90600161558f565b612024919061558f565b61202e919061558f565b6032555b50505050612097565b601654601354612052918591859160ff1690613b59565b60135560305460405160ff90911615158152600080516020615c6a8339815191529060200160405180910390a15090925081905061208f81615622565b915050611e13565b506120a4826103e861563b565b602d555050565b3332146120ca5760405162461bcd60e51b8152600401610fde906155f0565b6120d26127e7565b602c5462010000900460ff1661210f5760405162461bcd60e51b8152602060048201526002602482015261653760f01b6044820152606401610fde565b60305460ff16151560011461214c5760405162461bcd60e51b815260206004820152600360248201526206531360ec1b6044820152606401610fde565b60305462010000900460ff161561218b5760405162461bcd60e51b815260206004820152600360248201526265313160e81b6044820152606401610fde565b612199601880546001019055565b60006121a460185490565b905060006121b3603154613aa6565b6033805460ff191660ff9390931692909217909155602e549091505b6121db836103e861563b565b8110156124a557603354600090819060ff166001036122d65761271061220484620293b861563b565b61220e9190615668565b60165462ffffff919091169060ff16614e2061222d87620222e061567c565b62ffffff1661223c919061558f565b61224790600161558f565b612251919061558f565b61225b919061558f565b915061271061226d84620293b861563b565b61227890600161558f565b6122829190615668565b60165462ffffff919091169060ff16614e206122a187620222e061567c565b62ffffff166122b0919061558f565b6122bb90600161558f565b6122c5919061558f565b6122cf919061558f565b90506123b4565b6127106122e684620293b861563b565b6122f09190615668565b60165462ffffff919091169060ff16614e2061230f87620222e061569f565b62ffffff1661231e919061558f565b61232990600161558f565b612333919061558f565b61233d919061558f565b915061271061234f84620293b861563b565b61235a90600161558f565b6123649190615668565b60165462ffffff919091169060ff16614e2061238387620222e061569f565b62ffffff16612392919061558f565b61239d90600161558f565b6123a7919061558f565b6123b1919061558f565b90505b6000614e206123c6620222e08261558f565b6123d0919061558f565b9050808262ffffff1611806123e95750808362ffffff16115b6030805462ff00001916620100009215158302179081905560405160ff929091049190911615158152600080516020615c6a8339815191529060200160405180910390a160305462010000900460ff1615612446575050506124a5565b60165460145461245d918591849160ff1690613b59565b6014556030546040516201000090910460ff1615158152600080516020615c6a8339815191529060200160405180910390a1505050808061249d90615622565b9150506121cf565b506124b2826103e861563b565b602e555050565b6124c16127e7565b6000828152600360205260409020546125015760405162461bcd60e51b8152602060048201526002602482015261329960f11b6044820152606401610fde565b61251d3383600160405180602001604052806000815250613f03565b61253a33828460016040518060200160405280600081525061272c565b6001600160a01b0381166000908152601c6020526040902080546125e691906125629061541e565b80601f016020809104026020016040519081016040528092919081815260200182805461258e9061541e565b80156125db5780601f106125b0576101008083540402835291602001916125db565b820191906000526020600020905b8154815290600101906020018083116125be57829003601f168201915b505050505083611bda565b6001600160a01b0382166000908152601c6020526040902090612609908261573d565b505050565b6001600160a01b0382166000908152600a602052604081205481906040516370a0823160e01b81523060048201526001600160a01b038616906370a0823190602401602060405180830381865afa15801561266d573d6000803e3d6000fd5b505050506040513d601f19601f8201168201806040525081019061269191906157fc565b61269b919061558f565b6001600160a01b038086166000908152600b60209081526040808320938816835292905220549091506126d19084908390613eac565b949350505050565b6126e16127e7565b602855565b6126ee6127e7565b602c805461ff001981166101009182900460ff1615909102179055565b602b818154811061271b57600080fd5b600091825260209091200154905081565b6001600160a01b03851633148061274857506127488533610ed9565b6127645760405162461bcd60e51b8152600401610fde906155a2565b6113808585858585613fec565b6127796127e7565b6001600160a01b0381166127de5760405162461bcd60e51b815260206004820152602660248201527f4f776e61626c653a206e6577206f776e657220697320746865207a65726f206160448201526564647265737360d01b6064820152608401610fde565b61151381613a54565b6004546001600160a01b031633146117a75760405162461bcd60e51b815260206004820181905260248201527f4f776e61626c653a2063616c6c6572206973206e6f7420746865206f776e65726044820152606401610fde565b804710156128915760405162461bcd60e51b815260206004820152601d60248201527f416464726573733a20696e73756666696369656e742062616c616e63650000006044820152606401610fde565b6000826001600160a01b03168260405160006040518083038185875af1925050503d80600081146128de576040519150601f19603f3d011682016040523d82523d6000602084013e6128e3565b606091505b50509050806126095760405162461bcd60e51b815260206004820152603a60248201527f416464726573733a20756e61626c6520746f2073656e642076616c75652c207260448201527f6563697069656e74206d617920686176652072657665727465640000000000006064820152608401610fde565b815183511461297b5760405162461bcd60e51b8152600401610fde90615815565b6001600160a01b0384166129a15760405162461bcd60e51b8152600401610fde9061585d565b336129b0818787878787614119565b60005b8451811015612a965760008582815181106129d0576129d061560c565b6020026020010151905060008583815181106129ee576129ee61560c565b602090810291909101810151600084815280835260408082206001600160a01b038e168352909352919091205490915081811015612a3e5760405162461bcd60e51b8152600401610fde906158a2565b6000838152602081815260408083206001600160a01b038e8116855292528083208585039055908b16825281208054849290612a7b90849061558f565b9250508190555050505080612a8f90615622565b90506129b3565b50846001600160a01b0316866001600160a01b0316826001600160a01b03167f4a39dc06d4c0dbc64b70af90fd698a233a518aa5d07e595d983b8c0526c8f7fb8787604051612ae69291906158ec565b60405180910390a4612afc818787878787614292565b505050505050565b6002600c5403612b565760405162461bcd60e51b815260206004820152601f60248201527f5265656e7472616e637947756172643a207265656e7472616e742063616c6c006044820152606401610fde565b6002600c55565b602c54600090600190811614612b855760405162461bcd60e51b8152600401610fde9061591a565b336000908152601e6020526040902054606460ff9091161115612bba5760405162461bcd60e51b8152600401610fde90615937565b602360ff83161115612bde5760405162461bcd60e51b8152600401610fde90615954565b336000908152601e6020526040902054606490612bff90849060ff16615971565b60ff161115612c2d57336000908152601e6020526040902054612c269060ff16606461598a565b9150600190505b600080600080612c9a866202bf21602a546122b8610457602b805480602002602001604051908101604052809291908181526020018280548015612c9057602002820191906000526020600020905b815481526020019060010190808311612c7c575b50505050506143ed565b93509350935093508560ff168360ff1614612cb457600194505b6028543490612cc79060ff86169061563b565b811015612ce65760405162461bcd60e51b8152600401610fde906159a3565b6004546001600160a01b03166001600160a01b03166108fc8560ff16602854612d0f919061563b565b6040518115909202916000818181858888f19350505050158015612d37573d6000803e3d6000fd5b5060008460ff166001600160401b03811115612d5557612d55614f32565b604051908082528060200260200182016040528015612d7e578160200160208202803683370190505b50905060008560ff166001600160401b03811115612d9e57612d9e614f32565b604051908082528060200260200182016040528015612dc7578160200160208202803683370190505b50905060005b8660ff16811015612e3157612de2818961558f565b838281518110612df457612df461560c565b6020026020010181815250506001828281518110612e1457612e1461560c565b602090810291909101015280612e2981615622565b915050612dcd565b50612e4d33838360405180602001604052806000815250614588565b60005b8660ff16811015612ebf5733601d6000858481518110612e7257612e7261560c565b6020026020010151815260200190815260200160002060006101000a8154816001600160a01b0302191690836001600160a01b031602179055508080612eb790615622565b915050612e50565b508151336000908152601e6020526040902054612edf919060ff1661558f565b336000908152601e60205260409020805460ff191660ff928316179055602a869055602b8054888316928716908110612f1a57612f1a61560c565b9060005260206000200154612f2f919061558f565b602b8560ff1681548110612f4557612f4561560c565b90600052602060002001819055508560ff1660296000828254612f68919061558f565b90915550506029546122b811612f8c57602c805463ff000000191663010000001790555b336000818152601e60205260409020547fdf6bd66365a8c4ede51660159bba6757ea60b0815714ebd8534054d929f3337f9060ff1684612fcd60018b61598a565b60ff1681518110612fe057612fe061560c565b602002602001015160405161300492919060ff929092168252602082015260400190565b60405180910390a2871561304b5760405160ff8716815233907faf3c443bb05b163e7d42de9f4b11bdbfa307cad571a1ae5013e5e2ee92e66ed29060200160405180910390a25b505050505050505050565b602c5460009060029081161461307e5760405162461bcd60e51b8152600401610fde9061591a565b336000908152601e6020526040902054606460ff90911611156130b35760405162461bcd60e51b8152600401610fde90615937565b602360ff831611156130d75760405162461bcd60e51b8152600401610fde90615954565b336000908152601e60205260409020546064906130f890849060ff16615971565b60ff16111561312657336000908152601e602052604090205461311f9060ff16606461598a565b9150600190505b6000806000806131918662027101602654614e206103e86027805480602002602001604051908101604052809291908181526020018280548015612c905760200282019190600052602060002090815481526020019060010190808311612c7c5750505050506143ed565b93509350935093508560ff168360ff16146131ab57600194505b60245434906131be9060ff86169061563b565b8110156131dd5760405162461bcd60e51b8152600401610fde906159a3565b6004546001600160a01b03166001600160a01b03166108fc8560ff16602454613206919061563b565b6040518115909202916000818181858888f1935050505015801561322e573d6000803e3d6000fd5b5060008460ff166001600160401b0381111561324c5761324c614f32565b604051908082528060200260200182016040528015613275578160200160208202803683370190505b50905060008560ff166001600160401b0381111561329557613295614f32565b6040519080825280602002602001820160405280156132be578160200160208202803683370190505b50905060005b8660ff16811015613328576132d9818961558f565b8382815181106132eb576132eb61560c565b602002602001018181525050600182828151811061330b5761330b61560c565b60209081029190910101528061332081615622565b9150506132c4565b5061334433838360405180602001604052806000815250614588565b60005b8660ff168110156133b65733601d60008584815181106133695761336961560c565b6020026020010151815260200190815260200160002060006101000a8154816001600160a01b0302191690836001600160a01b0316021790555080806133ae90615622565b915050613347565b508151336000908152601e60205260409020546133d6919060ff1661558f565b336000908152601e60205260409020805460ff191660ff9283161790556026869055602780548883169287169081106134115761341161560c565b9060005260206000200154613426919061558f565b60278560ff168154811061343c5761343c61560c565b90600052602060002001819055508560ff166025600082825461345f919061558f565b9091555050602554614e2011612f8c57602c805462ff0000191662010000179055336000818152601e60205260409020547fdf6bd66365a8c4ede51660159bba6757ea60b0815714ebd8534054d929f3337f9060ff1684612fcd60018b61598a565b602c546000906004908116146134e95760405162461bcd60e51b8152600401610fde9061591a565b336000908152601e6020526040902054606460ff909116111561351e5760405162461bcd60e51b8152600401610fde90615937565b602360ff831611156135425760405162461bcd60e51b8152600401610fde90615954565b336000908152601e602052604090205460649061356390849060ff16615971565b60ff16111561359157336000908152601e602052604090205461358a9060ff16606461598a565b9150600190505b6000806000806135fc86614e21602254620222e06127106023805480602002602001604051908101604052809291908181526020018280548015612c905760200282019190600052602060002090815481526020019060010190808311612c7c5750505050506143ed565b93509350935093508560ff168360ff161461361657600194505b602054600560ff8516108015906136305750600a8460ff16105b156136575760056020546004613646919061563b565b6136509190615668565b9050613674565b600a8460ff16106136745760026020546136719190615668565b90505b3461368260ff86168361563b565b8110156136a15760405162461bcd60e51b8152600401610fde906159a3565b6004546001600160a01b03166108fc6136bd60ff88168561563b565b6040518115909202916000818181858888f193505050501580156136e5573d6000803e3d6000fd5b5060008560ff166001600160401b0381111561370357613703614f32565b60405190808252806020026020018201604052801561372c578160200160208202803683370190505b50905060008660ff166001600160401b0381111561374c5761374c614f32565b604051908082528060200260200182016040528015613775578160200160208202803683370190505b50905060005b8760ff168110156137df57613790818a61558f565b8382815181106137a2576137a261560c565b60200260200101818152505060018282815181106137c2576137c261560c565b6020908102919091010152806137d781615622565b91505061377b565b506137fb33838360405180602001604052806000815250614588565b60005b8760ff1681101561386d5733601d60008584815181106138205761382061560c565b6020026020010151815260200190815260200160002060006101000a8154816001600160a01b0302191690836001600160a01b03160217905550808061386590615622565b9150506137fe565b508151336000908152601e602052604090205461388d919060ff1661558f565b336000908152601e60205260409020805460ff191660ff9283161790556022879055602380548983169288169081106138c8576138c861560c565b90600052602060002001546138dd919061558f565b60238660ff16815481106138f3576138f361560c565b90600052602060002001819055508660ff1660216000828254613916919061558f565b9091555050602154620222e01161393757602c805461ff0019166101001790555b336000818152601e60205260409020547fdf6bd66365a8c4ede51660159bba6757ea60b0815714ebd8534054d929f3337f9060ff168461397860018c61598a565b60ff168151811061398b5761398b61560c565b60200260200101516040516139af92919060ff929092168252602082015260400190565b60405180910390a288156139f65760405160ff8816815233907faf3c443bb05b163e7d42de9f4b11bdbfa307cad571a1ae5013e5e2ee92e66ed29060200160405180910390a25b50505050505050505050565b604080516001600160a01b038416602482015260448082018490528251808303909101815260649091019091526020810180516001600160e01b031663a9059cbb60e01b1790526126099084906146e2565b600480546001600160a01b038381166001600160a01b0319831681179093556040519116919082907f8be0079c531659141344cd1fd0a4f28419497f9722a3daafe3b4186f6b6457e090600090a35050565b601654600090819060ff16613ac0614e20620222e061558f565b613acb90600161558f565b613ad5919061558f565b62ffffff168310613b205760165460019060ff16613af8614e20620222e061558f565b613b0390600161558f565b613b0d919061558f565b613b17908561569f565b91509150915091565b601654600090849060ff16613b3a614e20620222e061558f565b613b4590600161558f565b613b4f919061558f565b613b17919061569f565b60007f447b8744ce19b4ec182a865f10546affad5cb63bee7fbf1f4733554d3644a8d085613b8a60ff8616876159c0565b6040805162ffffff909316835260208301919091520160405180910390a16000613bb88662ffffff166147b4565b90506001600160a01b03811615613d30576000613bd3614819565b9050613bf13382600160405180602001604052806000815250613f03565b613c0e33838360016040518060200160405280600081525061272c565b613c1960018561558f565b6001600160a01b0383166000908152601c602052604090208054919550613cc791613c439061541e565b80601f0160208091040260200160405190810160405280929190818152602001828054613c6f9061541e565b8015613cbc5780601f10613c9157610100808354040283529160200191613cbc565b820191906000526020600020905b815481529060010190602001808311613c9f57829003601f168201915b505050505082611bda565b6001600160a01b0383166000908152601c6020526040902090613cea908261573d565b50816001600160a01b03167ffbc825a9dbec6ba579c678650f97fd1adaab5d895472fb72d1be4a0982ed8c1982604051613d2691815260200190565b60405180910390a2505b5090949350505050565b60606000613d4783614b0d565b60010190506000816001600160401b03811115613d6657613d66614f32565b6040519080825280601f01601f191660200182016040528015613d90576020820181803683370190505b5090508181016020015b600019016f181899199a1a9b1b9c1cb0b131b232b360811b600a86061a8153600a8504945084613d9a57509392505050565b816001600160a01b0316836001600160a01b031603613e3f5760405162461bcd60e51b815260206004820152602960248201527f455243313135353a2073657474696e6720617070726f76616c20737461747573604482015268103337b91039b2b63360b91b6064820152608401610fde565b6001600160a01b03838116600081815260016020908152604080832094871680845294825291829020805460ff191686151590811790915591519182527f17307eab39ab6107e8899845ad3d59bd9653f200f220920489ca2b5937696c31910160405180910390a3505050565b6005546001600160a01b03841660009081526007602052604081205490918391613ed6908661563b565b613ee09190615668565b6126d191906159c0565b600081613ef86001436159c0565b61100a9190406159d3565b6001600160a01b038416613f295760405162461bcd60e51b8152600401610fde906159e7565b336000613f3585614be5565b90506000613f4285614be5565b9050613f5383600089858589614119565b6000868152602081815260408083206001600160a01b038b16845290915281208054879290613f8390849061558f565b909155505060408051878152602081018790526001600160a01b03808a1692600092918716917fc3d58168c5ae7397731d063d5bbf3d657854427343f4c083240f7aacaa2d0f62910160405180910390a4613fe383600089898989614c30565b50505050505050565b6001600160a01b0384166140125760405162461bcd60e51b8152600401610fde9061585d565b33600061401e85614be5565b9050600061402b85614be5565b905061403b838989858589614119565b6000868152602081815260408083206001600160a01b038c1684529091529020548581101561407c5760405162461bcd60e51b8152600401610fde906158a2565b6000878152602081815260408083206001600160a01b038d8116855292528083208985039055908a168252812080548892906140b990849061558f565b909155505060408051888152602081018890526001600160a01b03808b16928c821692918816917fc3d58168c5ae7397731d063d5bbf3d657854427343f4c083240f7aacaa2d0f62910160405180910390a461304b848a8a8a8a8a614c30565b6001600160a01b0385166141a05760005b835181101561419e578281815181106141455761414561560c565b6020026020010151600360008684815181106141635761416361560c565b602002602001015181526020019081526020016000206000828254614188919061558f565b90915550614197905081615622565b905061412a565b505b6001600160a01b038416612afc5760005b8351811015613fe35760008482815181106141ce576141ce61560c565b6020026020010151905060008483815181106141ec576141ec61560c565b602002602001015190506000600360008481526020019081526020016000205490508181101561426f5760405162461bcd60e51b815260206004820152602860248201527f455243313135353a206275726e20616d6f756e74206578636565647320746f74604482015267616c537570706c7960c01b6064820152608401610fde565b6000928352600360205260409092209103905561428b81615622565b90506141b1565b6001600160a01b0384163b15612afc5760405163bc197c8160e01b81526001600160a01b0385169063bc197c81906142d69089908990889088908890600401615a28565b6020604051808303816000875af1925050508015614311575060408051601f3d908101601f1916820190925261430e91810190615a86565b60015b6143bd5761431d615aa3565b806308c379a0036143565750614331615abe565b8061433c5750614358565b8060405162461bcd60e51b8152600401610fde9190614eb8565b505b60405162461bcd60e51b815260206004820152603460248201527f455243313135353a207472616e7366657220746f206e6f6e2d455243313135356044820152732932b1b2b4bb32b91034b6b83632b6b2b73a32b960611b6064820152608401610fde565b6001600160e01b0319811663bc197c8160e01b14613fe35760405162461bcd60e51b8152600401610fde90615b47565b6000806000808688106144285760405162461bcd60e51b815260206004820152600360248201526206532360ec1b6044820152606401610fde565b600061443c614437888a615668565b613eea565b905060005b61444b888a615668565b8160ff16146144c85787878360ff168151811061446a5761446a61560c565b6020026020010151036144b1576001614483898b615668565b61448d91906159c0565b8260ff160361449f57600091506144b6565b816144a981615b8f565b9250506144b6565b6144c8565b806144c081615b8f565b915050614441565b60006144d78960ff851661563b565b888460ff16815181106144ec576144ec61560c565b60200260200101516144fe919061558f565b9050888d60ff16898560ff168151811061451a5761451a61560c565b602002602001015161452c919061558f565b111561455d57878360ff16815181106145475761454761560c565b60200260200101518961455a91906159c0565b9c505b61456a8b60ff8f1661558f565b9a506145768c8261558f565b9d9a9b50919998505050505050505050565b6001600160a01b0384166145ae5760405162461bcd60e51b8152600401610fde906159e7565b81518351146145cf5760405162461bcd60e51b8152600401610fde90615815565b336145df81600087878787614119565b60005b845181101561467a578381815181106145fd576145fd61560c565b602002602001015160008087848151811061461a5761461a61560c565b602002602001015181526020019081526020016000206000886001600160a01b03166001600160a01b031681526020019081526020016000206000828254614662919061558f565b9091555081905061467281615622565b9150506145e2565b50846001600160a01b031660006001600160a01b0316826001600160a01b03167f4a39dc06d4c0dbc64b70af90fd698a233a518aa5d07e595d983b8c0526c8f7fb87876040516146cb9291906158ec565b60405180910390a461138081600087878787614292565b6000614737826040518060400160405280602081526020017f5361666545524332303a206c6f772d6c6576656c2063616c6c206661696c6564815250856001600160a01b0316614ceb9092919063ffffffff16565b80519091501561260957808060200190518101906147559190615bae565b6126095760405162461bcd60e51b815260206004820152602a60248201527f5361666545524332303a204552433230206f7065726174696f6e20646964206e6044820152691bdd081cdd58d8d9595960b21b6064820152608401610fde565b600081815260036020526040812054151580156147f057506000828152601d60205260408120546147ee906001600160a01b031684610f77565b115b1561481157506000908152601d60205260409020546001600160a01b031690565b506000919050565b601a54600090614e206001600160401b039091161061485f5760405162461bcd60e51b81526020600482015260026024820152610ca760f31b6044820152606401610fde565b601b5460009061486e90613eea565b905060005b601b5460ff908116908216101561490357601b5461489390614e20615668565b601b8360ff16815481106148a9576148a961560c565b9060005260206000200154036148ec57601b546148c8906001906159c0565b8260ff16036148da57600091506148f1565b816148e481615b8f565b9250506148f1565b614903565b806148fb81615b8f565b915050614873565b600061491160026064615bcb565b60ff16601b8460ff168154811061492a5761492a61560c565b9060005260206000200154101561499257614949606460ff851661563b565b601b8460ff168154811061495f5761495f61560c565b90600052602060002001546001614976919061558f565b61498190600261563b565b61498b919061558f565b9050614a90565b60ff83161580156149d057506149aa60026064615bcb565b60ff16601b8460ff16815481106149c3576149c361560c565b9060005260206000200154145b15614a2557601b8360ff16815481106149eb576149eb61560c565b90600052602060002001546002614a02919061558f565b601b8460ff1681548110614a1857614a1861560c565b6000918252602090912001555b614a33606460ff851661563b565b614a3f60026064615bcb565b60ff16601b8560ff1681548110614a5857614a5861560c565b9060005260206000200154614a6d91906159c0565b614a7890600261563b565b614a8390600161558f565b614a8d919061558f565b90505b6001601b8460ff1681548110614aa857614aa861560c565b906000526020600020016000828254614ac1919061558f565b9091555050601a80546001600160401b0316906000614adf83615bed565b91906101000a8154816001600160401b0302191690836001600160401b031602179055505080935050505090565b60008072184f03e93ff9f4daa797ed6e38ed64bf6a1f0160401b8310614b4c5772184f03e93ff9f4daa797ed6e38ed64bf6a1f0160401b830492506040015b6d04ee2d6d415b85acef81000000008310614b78576d04ee2d6d415b85acef8100000000830492506020015b662386f26fc100008310614b9657662386f26fc10000830492506010015b6305f5e1008310614bae576305f5e100830492506008015b6127108310614bc257612710830492506004015b60648310614bd4576064830492506002015b600a831061100a5760010192915050565b60408051600180825281830190925260609160009190602080830190803683370190505090508281600081518110614c1f57614c1f61560c565b602090810291909101015292915050565b6001600160a01b0384163b15612afc5760405163f23a6e6160e01b81526001600160a01b0385169063f23a6e6190614c749089908990889088908890600401615c13565b6020604051808303816000875af1925050508015614caf575060408051601f3d908101601f19168201909252614cac91810190615a86565b60015b614cbb5761431d615aa3565b6001600160e01b0319811663f23a6e6160e01b14613fe35760405162461bcd60e51b8152600401610fde90615b47565b60606126d1848460008585600080866001600160a01b03168587604051614d129190615c4d565b60006040518083038185875af1925050503d8060008114614d4f576040519150601f19603f3d011682016040523d82523d6000602084013e614d54565b606091505b5091509150614d6587838387614d70565b979650505050505050565b60608315614ddf578251600003614dd8576001600160a01b0385163b614dd85760405162461bcd60e51b815260206004820152601d60248201527f416464726573733a2063616c6c20746f206e6f6e2d636f6e74726163740000006044820152606401610fde565b50816126d1565b6126d1838381511561433c5781518083602001fd5b6001600160a01b038116811461151357600080fd5b60008060408385031215614e1c57600080fd5b8235614e2781614df4565b946020939093013593505050565b6001600160e01b03198116811461151357600080fd5b600060208284031215614e5d57600080fd5b8135611d2281614e35565b60005b83811015614e83578181015183820152602001614e6b565b50506000910152565b60008151808452614ea4816020860160208601614e68565b601f01601f19169290920160200192915050565b602081526000611d226020830184614e8c565b600060208284031215614edd57600080fd5b5035919050565b803560ff81168114614ef557600080fd5b919050565b600060208284031215614f0c57600080fd5b611d2282614ee4565b600060208284031215614f2757600080fd5b8135611d2281614df4565b634e487b7160e01b600052604160045260246000fd5b601f8201601f191681016001600160401b0381118282101715614f6d57614f6d614f32565b6040525050565b60006001600160401b03821115614f8d57614f8d614f32565b5060051b60200190565b600082601f830112614fa857600080fd5b81356020614fb582614f74565b604051614fc28282614f48565b83815260059390931b8501820192828101915086841115614fe257600080fd5b8286015b84811015614ffd5780358352918301918301614fe6565b509695505050505050565b60006001600160401b0383111561502157615021614f32565b604051615038601f8501601f191660200182614f48565b80915083815284848401111561504d57600080fd5b83836020830137600060208583010152509392505050565b600082601f83011261507657600080fd5b611d2283833560208501615008565b600080600080600060a0868803121561509d57600080fd5b85356150a881614df4565b945060208601356150b881614df4565b935060408601356001600160401b03808211156150d457600080fd5b6150e089838a01614f97565b945060608801359150808211156150f657600080fd5b61510289838a01614f97565b9350608088013591508082111561511857600080fd5b5061512588828901615065565b9150509295509295909350565b60008060006060848603121561514757600080fd5b833561515281614df4565b925061516060208501614ee4565b915061516e60408501614ee4565b90509250925092565b6000806040838503121561518a57600080fd5b823561519581614df4565b915060208301356151a581614df4565b809150509250929050565b600080604083850312156151c357600080fd5b82356001600160401b03808211156151da57600080fd5b818501915085601f8301126151ee57600080fd5b813560206151fb82614f74565b6040516152088282614f48565b83815260059390931b850182019282810191508984111561522857600080fd5b948201945b8386101561524f57853561524081614df4565b8252948201949082019061522d565b9650508601359250508082111561526557600080fd5b5061527285828601614f97565b9150509250929050565b600081518084526020808501945080840160005b838110156152ac57815187529582019590820190600101615290565b509495945050505050565b602081526000611d22602083018461527c565b600080604083850312156152dd57600080fd5b82356001600160401b038111156152f357600080fd5b8301601f8101851361530457600080fd5b61531385823560208401615008565b95602094909401359450505050565b6000806040838503121561533557600080fd5b61533e83614ee4565b915061534c60208401614ee4565b90509250929050565b801515811461151357600080fd5b6000806040838503121561537657600080fd5b823561538181614df4565b915060208301356151a581615355565b600080604083850312156153a457600080fd5b8235915060208301356151a581614df4565b600080600080600060a086880312156153ce57600080fd5b85356153d981614df4565b945060208601356153e981614df4565b9350604086013592506060860135915060808601356001600160401b0381111561541257600080fd5b61512588828901615065565b600181811c9082168061543257607f821691505b60208210810361545257634e487b7160e01b600052602260045260246000fd5b50919050565b60008083546154668161541e565b6001828116801561547e5760018114615493576154c2565b60ff19841687528215158302870194506154c2565b8760005260208060002060005b858110156154b95781548a8201529084019082016154a0565b50505082870194505b5050637b69647d60e01b8352505064173539b7b760d91b60048201526009019392505050565b60208082526026908201527f5061796d656e7453706c69747465723a206163636f756e7420686173206e6f2060408201526573686172657360d01b606082015260800190565b6020808252602b908201527f5061796d656e7453706c69747465723a206163636f756e74206973206e6f742060408201526a191d59481c185e5b595b9d60aa1b606082015260800190565b634e487b7160e01b600052601160045260246000fd5b8082018082111561100a5761100a615579565b6020808252602e908201527f455243313135353a2063616c6c6572206973206e6f7420746f6b656e206f776e60408201526d195c881bdc88185c1c1c9bdd995960921b606082015260800190565b602080825260029082015261653360f01b604082015260600190565b634e487b7160e01b600052603260045260246000fd5b60006001820161563457615634615579565b5060010190565b808202811582820484141761100a5761100a615579565b634e487b7160e01b600052601260045260246000fd5b60008261567757615677615652565b500490565b62ffffff81811683821601908082111561569857615698615579565b5092915050565b62ffffff82811682821603908082111561569857615698615579565b600083516156cd818460208801614e68565b600b60fa1b90830190815283516156eb816001840160208801614e68565b01600101949350505050565b601f82111561260957600081815260208120601f850160051c8101602086101561571e5750805b601f850160051c820191505b81811015612afc5782815560010161572a565b81516001600160401b0381111561575657615756614f32565b61576a81615764845461541e565b846156f7565b602080601f83116001811461579f57600084156157875750858301515b600019600386901b1c1916600185901b178555612afc565b600085815260208120601f198616915b828110156157ce578886015182559484019460019091019084016157af565b50858210156157ec5787850151600019600388901b60f8161c191681555b5050505050600190811b01905550565b60006020828403121561580e57600080fd5b5051919050565b60208082526028908201527f455243313135353a2069647320616e6420616d6f756e7473206c656e677468206040820152670dad2e6dac2e8c6d60c31b606082015260800190565b60208082526025908201527f455243313135353a207472616e7366657220746f20746865207a65726f206164604082015264647265737360d81b606082015260800190565b6020808252602a908201527f455243313135353a20696e73756666696369656e742062616c616e636520666f60408201526939103a3930b739b332b960b11b606082015260800190565b6040815260006158ff604083018561527c565b8281036020840152615911818561527c565b95945050505050565b60208082526003908201526265323160e81b604082015260600190565b60208082526003908201526265313760e81b604082015260600190565b6020808252600390820152620ca62760eb1b604082015260600190565b60ff818116838216019081111561100a5761100a615579565b60ff828116828216039081111561100a5761100a615579565b60208082526003908201526265313960e81b604082015260600190565b8181038181111561100a5761100a615579565b6000826159e2576159e2615652565b500690565b60208082526021908201527f455243313135353a206d696e7420746f20746865207a65726f206164647265736040820152607360f81b606082015260800190565b6001600160a01b0386811682528516602082015260a060408201819052600090615a549083018661527c565b8281036060840152615a66818661527c565b90508281036080840152615a7a8185614e8c565b98975050505050505050565b600060208284031215615a9857600080fd5b8151611d2281614e35565b600060033d1115611c835760046000803e5060005160e01c90565b600060443d1015615acc5790565b6040516003193d81016004833e81513d6001600160401b038160248401118184111715615afb57505050505090565b8285019150815181811115615b135750505050505090565b843d8701016020828501011115615b2d5750505050505090565b615b3c60208286010187614f48565b509095945050505050565b60208082526028908201527f455243313135353a204552433131353552656365697665722072656a656374656040820152676420746f6b656e7360c01b606082015260800190565b600060ff821660ff8103615ba557615ba5615579565b60010192915050565b600060208284031215615bc057600080fd5b8151611d2281615355565b600060ff831680615bde57615bde615652565b8060ff84160491505092915050565b60006001600160401b03808316818103615c0957615c09615579565b6001019392505050565b6001600160a01b03868116825285166020820152604081018490526060810183905260a060808201819052600090614d6590830184614e8c565b60008251615c5f818460208701614e68565b919091019291505056fe7b7d25f8a91d07d734c2f45d6dd20e28016c3648b97f80270c65a2a565e62025a26469706673582212200bd9a9812b86a63676d248f56023bb94295313b7b77e93de8d8f742690fee6ea64736f6c63430008110033",
  "linkReferences": {},
  "deployedLinkReferences": {}
}