{
  "_format": "hh-sol-artifact-1",
  "contractName": "Vipsland",
  "sourceName": "contracts/Vipsland.sol",
  "abi": [
    {
      "inputs": [
        {
          "internalType": "address[]",
          "name": "_team",
          "type": "address[]"
        },
        {
          "internalType": "uint256[]",
          "name": "_teamShares",
          "type": "uint256[]"
        },
        {
          "internalType": "string",
          "name": "_notRevealedUri",
          "type": "string"
        },
        {
          "internalType": "string",
          "name": "_revealedUri",
          "type": "string"
        },
        {
          "internalType": "bytes32",
          "name": "merklerootair",
          "type": "bytes32"
        },
        {
          "internalType": "bytes32",
          "name": "merklerootint",
          "type": "bytes32"
        }
      ],
      "stateMutability": "nonpayable",
      "type": "constructor"
    },
    {
      "anonymous": false,
      "inputs": [
        {
          "indexed": true,
          "internalType": "address",
          "name": "account",
          "type": "address"
        },
        {
          "indexed": true,
          "internalType": "address",
          "name": "operator",
          "type": "address"
        },
        {
          "indexed": false,
          "internalType": "bool",
          "name": "approved",
          "type": "bool"
        }
      ],
      "name": "ApprovalForAll",
      "type": "event"
    },
    {
      "anonymous": false,
      "inputs": [
        {
          "indexed": true,
          "internalType": "address",
          "name": "acc",
          "type": "address"
        },
        {
          "indexed": false,
          "internalType": "uint256",
          "name": "minted_amount",
          "type": "uint256"
        },
        {
          "indexed": false,
          "internalType": "uint256",
          "name": "last_minted_NONMPID",
          "type": "uint256"
        }
      ],
      "name": "DistributePRTs",
      "type": "event"
    },
    {
      "anonymous": false,
      "inputs": [
        {
          "indexed": true,
          "internalType": "contract IERC20",
          "name": "token",
          "type": "address"
        },
        {
          "indexed": false,
          "internalType": "address",
          "name": "to",
          "type": "address"
        },
        {
          "indexed": false,
          "internalType": "uint256",
          "name": "amount",
          "type": "uint256"
        }
      ],
      "name": "ERC20PaymentReleased",
      "type": "event"
    },
    {
      "anonymous": false,
      "inputs": [
        {
          "indexed": false,
          "internalType": "bool",
          "name": "sendMPAllDone",
          "type": "bool"
        }
      ],
      "name": "MPAllDone",
      "type": "event"
    },
    {
      "anonymous": false,
      "inputs": [
        {
          "indexed": true,
          "internalType": "address",
          "name": "previousOwner",
          "type": "address"
        },
        {
          "indexed": true,
          "internalType": "address",
          "name": "newOwner",
          "type": "address"
        }
      ],
      "name": "OwnershipTransferred",
      "type": "event"
    },
    {
      "anonymous": false,
      "inputs": [
        {
          "indexed": false,
          "internalType": "address",
          "name": "account",
          "type": "address"
        },
        {
          "indexed": false,
          "internalType": "uint256",
          "name": "shares",
          "type": "uint256"
        }
      ],
      "name": "PayeeAdded",
      "type": "event"
    },
    {
      "anonymous": false,
      "inputs": [
        {
          "indexed": false,
          "internalType": "address",
          "name": "from",
          "type": "address"
        },
        {
          "indexed": false,
          "internalType": "uint256",
          "name": "amount",
          "type": "uint256"
        }
      ],
      "name": "PaymentReceived",
      "type": "event"
    },
    {
      "anonymous": false,
      "inputs": [
        {
          "indexed": false,
          "internalType": "address",
          "name": "to",
          "type": "address"
        },
        {
          "indexed": false,
          "internalType": "uint256",
          "name": "amount",
          "type": "uint256"
        }
      ],
      "name": "PaymentReleased",
      "type": "event"
    },
    {
      "anonymous": false,
      "inputs": [
        {
          "indexed": true,
          "internalType": "address",
          "name": "acc",
          "type": "address"
        },
        {
          "indexed": false,
          "internalType": "uint256",
          "name": "qnt",
          "type": "uint256"
        }
      ],
      "name": "RemainMessageNeeds",
      "type": "event"
    },
    {
      "anonymous": false,
      "inputs": [
        {
          "indexed": false,
          "internalType": "uint256",
          "name": "_winnerTokenNONMPID",
          "type": "uint256"
        },
        {
          "indexed": false,
          "internalType": "uint256",
          "name": "max_nonmpid_minus_xrand",
          "type": "uint256"
        }
      ],
      "name": "SelectedNONMPIDTokens",
      "type": "event"
    },
    {
      "anonymous": false,
      "inputs": [
        {
          "indexed": true,
          "internalType": "address",
          "name": "operator",
          "type": "address"
        },
        {
          "indexed": true,
          "internalType": "address",
          "name": "from",
          "type": "address"
        },
        {
          "indexed": true,
          "internalType": "address",
          "name": "to",
          "type": "address"
        },
        {
          "indexed": false,
          "internalType": "uint256[]",
          "name": "ids",
          "type": "uint256[]"
        },
        {
          "indexed": false,
          "internalType": "uint256[]",
          "name": "values",
          "type": "uint256[]"
        }
      ],
      "name": "TransferBatch",
      "type": "event"
    },
    {
      "anonymous": false,
      "inputs": [
        {
          "indexed": true,
          "internalType": "address",
          "name": "operator",
          "type": "address"
        },
        {
          "indexed": true,
          "internalType": "address",
          "name": "from",
          "type": "address"
        },
        {
          "indexed": true,
          "internalType": "address",
          "name": "to",
          "type": "address"
        },
        {
          "indexed": false,
          "internalType": "uint256",
          "name": "id",
          "type": "uint256"
        },
        {
          "indexed": false,
          "internalType": "uint256",
          "name": "value",
          "type": "uint256"
        }
      ],
      "name": "TransferSingle",
      "type": "event"
    },
    {
      "anonymous": false,
      "inputs": [
        {
          "indexed": false,
          "internalType": "string",
          "name": "value",
          "type": "string"
        },
        {
          "indexed": true,
          "internalType": "uint256",
          "name": "id",
          "type": "uint256"
        }
      ],
      "name": "URI",
      "type": "event"
    },
    {
      "anonymous": false,
      "inputs": [
        {
          "indexed": true,
          "internalType": "address",
          "name": "acc",
          "type": "address"
        },
        {
          "indexed": false,
          "internalType": "uint256",
          "name": "winnerTokenPRTID",
          "type": "uint256"
        }
      ],
      "name": "WinnersMP",
      "type": "event"
    },
    {
      "inputs": [],
      "name": "EACH_RAND_SLOT_NUM_TOTAL_FOR_AIRDROP",
      "outputs": [
        {
          "internalType": "uint256",
          "name": "",
          "type": "uint256"
        }
      ],
      "stateMutability": "view",
      "type": "function"
    },
    {
      "inputs": [],
      "name": "EACH_RAND_SLOT_NUM_TOTAL_FOR_INTERNALTEAM",
      "outputs": [
        {
          "internalType": "uint256",
          "name": "",
          "type": "uint256"
        }
      ],
      "stateMutability": "view",
      "type": "function"
    },
    {
      "inputs": [],
      "name": "EACH_RAND_SLOT_NUM_TOTAL_FOR_PRT",
      "outputs": [
        {
          "internalType": "uint256",
          "name": "",
          "type": "uint256"
        }
      ],
      "stateMutability": "view",
      "type": "function"
    },
    {
      "inputs": [],
      "name": "MAX_PRT_AMOUNT_PER_ACC",
      "outputs": [
        {
          "internalType": "uint8",
          "name": "",
          "type": "uint8"
        }
      ],
      "stateMutability": "view",
      "type": "function"
    },
    {
      "inputs": [],
      "name": "MAX_PRT_AMOUNT_PER_ACC_AIRDROP",
      "outputs": [
        {
          "internalType": "uint8",
          "name": "",
          "type": "uint8"
        }
      ],
      "stateMutability": "view",
      "type": "function"
    },
    {
      "inputs": [],
      "name": "MAX_PRT_AMOUNT_PER_ACC_INTERNAL",
      "outputs": [
        {
          "internalType": "uint8",
          "name": "",
          "type": "uint8"
        }
      ],
      "stateMutability": "view",
      "type": "function"
    },
    {
      "inputs": [],
      "name": "MAX_PRT_AMOUNT_PER_ACC_PER_TRANSACTION",
      "outputs": [
        {
          "internalType": "uint8",
          "name": "",
          "type": "uint8"
        }
      ],
      "stateMutability": "view",
      "type": "function"
    },
    {
      "inputs": [],
      "name": "MAX_PRT_AMOUNT_PER_ACC_PER_TRANSACTION_AIRDROP",
      "outputs": [
        {
          "internalType": "uint8",
          "name": "",
          "type": "uint8"
        }
      ],
      "stateMutability": "view",
      "type": "function"
    },
    {
      "inputs": [],
      "name": "MAX_PRT_AMOUNT_PER_ACC_PER_TRANSACTION_INTERNAL",
      "outputs": [
        {
          "internalType": "uint8",
          "name": "",
          "type": "uint8"
        }
      ],
      "stateMutability": "view",
      "type": "function"
    },
    {
      "inputs": [],
      "name": "MAX_SUPPLY_FOR_AIRDROP_TOKEN",
      "outputs": [
        {
          "internalType": "uint256",
          "name": "",
          "type": "uint256"
        }
      ],
      "stateMutability": "view",
      "type": "function"
    },
    {
      "inputs": [],
      "name": "MAX_SUPPLY_FOR_INTERNALTEAM_TOKEN",
      "outputs": [
        {
          "internalType": "uint256",
          "name": "",
          "type": "uint256"
        }
      ],
      "stateMutability": "view",
      "type": "function"
    },
    {
      "inputs": [],
      "name": "MAX_SUPPLY_FOR_PRT_TOKEN",
      "outputs": [
        {
          "internalType": "uint256",
          "name": "",
          "type": "uint256"
        }
      ],
      "stateMutability": "view",
      "type": "function"
    },
    {
      "inputs": [],
      "name": "MAX_SUPPLY_MP",
      "outputs": [
        {
          "internalType": "uint256",
          "name": "",
          "type": "uint256"
        }
      ],
      "stateMutability": "view",
      "type": "function"
    },
    {
      "inputs": [],
      "name": "NUM_TOTAL_FOR_MP",
      "outputs": [
        {
          "internalType": "uint8",
          "name": "",
          "type": "uint8"
        }
      ],
      "stateMutability": "view",
      "type": "function"
    },
    {
      "inputs": [],
      "name": "PRICE_PRT",
      "outputs": [
        {
          "internalType": "uint256",
          "name": "",
          "type": "uint256"
        }
      ],
      "stateMutability": "view",
      "type": "function"
    },
    {
      "inputs": [],
      "name": "PRICE_PRT_AIRDROP",
      "outputs": [
        {
          "internalType": "uint256",
          "name": "",
          "type": "uint256"
        }
      ],
      "stateMutability": "view",
      "type": "function"
    },
    {
      "inputs": [],
      "name": "PRICE_PRT_INTERNALTEAM",
      "outputs": [
        {
          "internalType": "uint256",
          "name": "",
          "type": "uint256"
        }
      ],
      "stateMutability": "view",
      "type": "function"
    },
    {
      "inputs": [],
      "name": "PRTID",
      "outputs": [
        {
          "internalType": "uint256",
          "name": "",
          "type": "uint256"
        }
      ],
      "stateMutability": "view",
      "type": "function"
    },
    {
      "inputs": [],
      "name": "STARTINGIDFORAIRDROP",
      "outputs": [
        {
          "internalType": "uint256",
          "name": "",
          "type": "uint256"
        }
      ],
      "stateMutability": "view",
      "type": "function"
    },
    {
      "inputs": [],
      "name": "STARTINGIDFORINTERNALTEAM",
      "outputs": [
        {
          "internalType": "uint256",
          "name": "",
          "type": "uint256"
        }
      ],
      "stateMutability": "view",
      "type": "function"
    },
    {
      "inputs": [],
      "name": "STARTINGIDFORPRT",
      "outputs": [
        {
          "internalType": "uint256",
          "name": "",
          "type": "uint256"
        }
      ],
      "stateMutability": "view",
      "type": "function"
    },
    {
      "inputs": [],
      "name": "_counter_for_generatelucky_mp",
      "outputs": [
        {
          "internalType": "uint256",
          "name": "_value",
          "type": "uint256"
        }
      ],
      "stateMutability": "view",
      "type": "function"
    },
    {
      "inputs": [],
      "name": "_counter_for_generatelucky_mp_airdrop",
      "outputs": [
        {
          "internalType": "uint256",
          "name": "_value",
          "type": "uint256"
        }
      ],
      "stateMutability": "view",
      "type": "function"
    },
    {
      "inputs": [],
      "name": "_counter_for_generatelucky_mp_internalteam",
      "outputs": [
        {
          "internalType": "uint256",
          "name": "_value",
          "type": "uint256"
        }
      ],
      "stateMutability": "view",
      "type": "function"
    },
    {
      "inputs": [
        {
          "internalType": "address",
          "name": "account",
          "type": "address"
        },
        {
          "internalType": "uint256",
          "name": "id",
          "type": "uint256"
        }
      ],
      "name": "balanceOf",
      "outputs": [
        {
          "internalType": "uint256",
          "name": "",
          "type": "uint256"
        }
      ],
      "stateMutability": "view",
      "type": "function"
    },
    {
      "inputs": [],
      "name": "balanceOfAccount",
      "outputs": [
        {
          "internalType": "uint256",
          "name": "",
          "type": "uint256"
        }
      ],
      "stateMutability": "payable",
      "type": "function"
    },
    {
      "inputs": [
        {
          "internalType": "address[]",
          "name": "accounts",
          "type": "address[]"
        },
        {
          "internalType": "uint256[]",
          "name": "ids",
          "type": "uint256[]"
        }
      ],
      "name": "balanceOfBatch",
      "outputs": [
        {
          "internalType": "uint256[]",
          "name": "",
          "type": "uint256[]"
        }
      ],
      "stateMutability": "view",
      "type": "function"
    },
    {
      "inputs": [
        {
          "internalType": "string",
          "name": "a",
          "type": "string"
        },
        {
          "internalType": "uint256",
          "name": "b",
          "type": "uint256"
        }
      ],
      "name": "concatenate",
      "outputs": [
        {
          "internalType": "string",
          "name": "",
          "type": "string"
        }
      ],
      "stateMutability": "pure",
      "type": "function"
    },
    {
      "inputs": [],
      "name": "contractBalance",
      "outputs": [
        {
          "internalType": "uint256",
          "name": "",
          "type": "uint256"
        }
      ],
      "stateMutability": "view",
      "type": "function"
    },
    {
      "inputs": [
        {
          "internalType": "uint256",
          "name": "id",
          "type": "uint256"
        }
      ],
      "name": "exists",
      "outputs": [
        {
          "internalType": "bool",
          "name": "",
          "type": "bool"
        }
      ],
      "stateMutability": "view",
      "type": "function"
    },
    {
      "inputs": [
        {
          "internalType": "uint256",
          "name": "",
          "type": "uint256"
        }
      ],
      "name": "intArrPRTAIRDROP",
      "outputs": [
        {
          "internalType": "uint256",
          "name": "",
          "type": "uint256"
        }
      ],
      "stateMutability": "view",
      "type": "function"
    },
    {
      "inputs": [
        {
          "internalType": "address",
          "name": "account",
          "type": "address"
        },
        {
          "internalType": "address",
          "name": "operator",
          "type": "address"
        }
      ],
      "name": "isApprovedForAll",
      "outputs": [
        {
          "internalType": "bool",
          "name": "",
          "type": "bool"
        }
      ],
      "stateMutability": "view",
      "type": "function"
    },
    {
      "inputs": [],
      "name": "mintAirdropMPIsOpen",
      "outputs": [
        {
          "internalType": "bool",
          "name": "",
          "type": "bool"
        }
      ],
      "stateMutability": "view",
      "type": "function"
    },
    {
      "inputs": [],
      "name": "mintInternalTeamMPIsOpen",
      "outputs": [
        {
          "internalType": "bool",
          "name": "",
          "type": "bool"
        }
      ],
      "stateMutability": "view",
      "type": "function"
    },
    {
      "inputs": [],
      "name": "mintMPIsOpen",
      "outputs": [
        {
          "internalType": "bool",
          "name": "",
          "type": "bool"
        }
      ],
      "stateMutability": "view",
      "type": "function"
    },
    {
      "inputs": [
        {
          "internalType": "address",
          "name": "account",
          "type": "address"
        },
        {
          "internalType": "uint8",
          "name": "_amount_wanted_able_to_get",
          "type": "uint8"
        },
        {
          "internalType": "bytes32[]",
          "name": "_proof",
          "type": "bytes32[]"
        }
      ],
      "name": "mintNONMPForAIRDROP",
      "outputs": [],
      "stateMutability": "payable",
      "type": "function"
    },
    {
      "inputs": [
        {
          "internalType": "address",
          "name": "account",
          "type": "address"
        },
        {
          "internalType": "uint8",
          "name": "_amount_wanted_able_to_get",
          "type": "uint8"
        },
        {
          "internalType": "bytes32[]",
          "name": "_proof",
          "type": "bytes32[]"
        }
      ],
      "name": "mintNONMPForInternalTeam",
      "outputs": [],
      "stateMutability": "payable",
      "type": "function"
    },
    {
      "inputs": [
        {
          "internalType": "address",
          "name": "account",
          "type": "address"
        },
        {
          "internalType": "uint8",
          "name": "_amount_wanted_able_to_get",
          "type": "uint8"
        }
      ],
      "name": "mintNONMPForNormalUser",
      "outputs": [],
      "stateMutability": "payable",
      "type": "function"
    },
    {
      "inputs": [],
      "name": "name",
      "outputs": [
        {
          "internalType": "string",
          "name": "",
          "type": "string"
        }
      ],
      "stateMutability": "view",
      "type": "function"
    },
    {
      "inputs": [],
      "name": "numIssuedForAIRDROP",
      "outputs": [
        {
          "internalType": "uint256",
          "name": "",
          "type": "uint256"
        }
      ],
      "stateMutability": "view",
      "type": "function"
    },
    {
      "inputs": [],
      "name": "numIssuedForInternalTeamIDs",
      "outputs": [
        {
          "internalType": "uint256",
          "name": "",
          "type": "uint256"
        }
      ],
      "stateMutability": "view",
      "type": "function"
    },
    {
      "inputs": [],
      "name": "numIssuedForMP",
      "outputs": [
        {
          "internalType": "uint64",
          "name": "",
          "type": "uint64"
        }
      ],
      "stateMutability": "view",
      "type": "function"
    },
    {
      "inputs": [],
      "name": "numIssuedForNormalUser",
      "outputs": [
        {
          "internalType": "uint256",
          "name": "",
          "type": "uint256"
        }
      ],
      "stateMutability": "view",
      "type": "function"
    },
    {
      "inputs": [],
      "name": "owner",
      "outputs": [
        {
          "internalType": "address",
          "name": "",
          "type": "address"
        }
      ],
      "stateMutability": "view",
      "type": "function"
    },
    {
      "inputs": [
        {
          "internalType": "uint256",
          "name": "index",
          "type": "uint256"
        }
      ],
      "name": "payee",
      "outputs": [
        {
          "internalType": "address",
          "name": "",
          "type": "address"
        }
      ],
      "stateMutability": "view",
      "type": "function"
    },
    {
      "inputs": [],
      "name": "presalePRT",
      "outputs": [
        {
          "internalType": "uint8",
          "name": "",
          "type": "uint8"
        }
      ],
      "stateMutability": "view",
      "type": "function"
    },
    {
      "inputs": [
        {
          "internalType": "uint256",
          "name": "",
          "type": "uint256"
        }
      ],
      "name": "prtPerAddress",
      "outputs": [
        {
          "internalType": "address",
          "name": "",
          "type": "address"
        }
      ],
      "stateMutability": "view",
      "type": "function"
    },
    {
      "inputs": [],
      "name": "qntmintmpforairdrop",
      "outputs": [
        {
          "internalType": "uint256",
          "name": "",
          "type": "uint256"
        }
      ],
      "stateMutability": "view",
      "type": "function"
    },
    {
      "inputs": [],
      "name": "qntmintmpforinternalteam",
      "outputs": [
        {
          "internalType": "uint256",
          "name": "",
          "type": "uint256"
        }
      ],
      "stateMutability": "view",
      "type": "function"
    },
    {
      "inputs": [],
      "name": "qntmintmpfornormaluser",
      "outputs": [
        {
          "internalType": "uint256",
          "name": "",
          "type": "uint256"
        }
      ],
      "stateMutability": "view",
      "type": "function"
    },
    {
      "inputs": [],
      "name": "qntmintnonmpforairdrop",
      "outputs": [
        {
          "internalType": "uint256",
          "name": "",
          "type": "uint256"
        }
      ],
      "stateMutability": "view",
      "type": "function"
    },
    {
      "inputs": [],
      "name": "qntmintnonmpforinternalteam",
      "outputs": [
        {
          "internalType": "uint256",
          "name": "",
          "type": "uint256"
        }
      ],
      "stateMutability": "view",
      "type": "function"
    },
    {
      "inputs": [],
      "name": "qntmintnonmpfornormaluser",
      "outputs": [
        {
          "internalType": "uint256",
          "name": "",
          "type": "uint256"
        }
      ],
      "stateMutability": "view",
      "type": "function"
    },
    {
      "inputs": [
        {
          "internalType": "address",
          "name": "account",
          "type": "address"
        }
      ],
      "name": "releasable",
      "outputs": [
        {
          "internalType": "uint256",
          "name": "",
          "type": "uint256"
        }
      ],
      "stateMutability": "view",
      "type": "function"
    },
    {
      "inputs": [
        {
          "internalType": "contract IERC20",
          "name": "token",
          "type": "address"
        },
        {
          "internalType": "address",
          "name": "account",
          "type": "address"
        }
      ],
      "name": "releasable",
      "outputs": [
        {
          "internalType": "uint256",
          "name": "",
          "type": "uint256"
        }
      ],
      "stateMutability": "view",
      "type": "function"
    },
    {
      "inputs": [
        {
          "internalType": "address payable",
          "name": "account",
          "type": "address"
        }
      ],
      "name": "release",
      "outputs": [],
      "stateMutability": "nonpayable",
      "type": "function"
    },
    {
      "inputs": [
        {
          "internalType": "contract IERC20",
          "name": "token",
          "type": "address"
        },
        {
          "internalType": "address",
          "name": "account",
          "type": "address"
        }
      ],
      "name": "release",
      "outputs": [],
      "stateMutability": "nonpayable",
      "type": "function"
    },
    {
      "inputs": [
        {
          "internalType": "contract IERC20",
          "name": "token",
          "type": "address"
        },
        {
          "internalType": "address",
          "name": "account",
          "type": "address"
        }
      ],
      "name": "released",
      "outputs": [
        {
          "internalType": "uint256",
          "name": "",
          "type": "uint256"
        }
      ],
      "stateMutability": "view",
      "type": "function"
    },
    {
      "inputs": [
        {
          "internalType": "address",
          "name": "account",
          "type": "address"
        }
      ],
      "name": "released",
      "outputs": [
        {
          "internalType": "uint256",
          "name": "",
          "type": "uint256"
        }
      ],
      "stateMutability": "view",
      "type": "function"
    },
    {
      "inputs": [],
      "name": "renounceOwnership",
      "outputs": [],
      "stateMutability": "nonpayable",
      "type": "function"
    },
    {
      "inputs": [],
      "name": "revealed",
      "outputs": [
        {
          "internalType": "bool",
          "name": "",
          "type": "bool"
        }
      ],
      "stateMutability": "view",
      "type": "function"
    },
    {
      "inputs": [],
      "name": "rootair",
      "outputs": [
        {
          "internalType": "bytes32",
          "name": "",
          "type": "bytes32"
        }
      ],
      "stateMutability": "view",
      "type": "function"
    },
    {
      "inputs": [],
      "name": "rootint",
      "outputs": [
        {
          "internalType": "bytes32",
          "name": "",
          "type": "bytes32"
        }
      ],
      "stateMutability": "view",
      "type": "function"
    },
    {
      "inputs": [
        {
          "internalType": "address",
          "name": "from",
          "type": "address"
        },
        {
          "internalType": "address",
          "name": "to",
          "type": "address"
        },
        {
          "internalType": "uint256[]",
          "name": "ids",
          "type": "uint256[]"
        },
        {
          "internalType": "uint256[]",
          "name": "amounts",
          "type": "uint256[]"
        },
        {
          "internalType": "bytes",
          "name": "data",
          "type": "bytes"
        }
      ],
      "name": "safeBatchTransferFrom",
      "outputs": [],
      "stateMutability": "nonpayable",
      "type": "function"
    },
    {
      "inputs": [
        {
          "internalType": "address",
          "name": "from",
          "type": "address"
        },
        {
          "internalType": "address",
          "name": "to",
          "type": "address"
        },
        {
          "internalType": "uint256",
          "name": "id",
          "type": "uint256"
        },
        {
          "internalType": "uint256",
          "name": "amount",
          "type": "uint256"
        },
        {
          "internalType": "bytes",
          "name": "data",
          "type": "bytes"
        }
      ],
      "name": "safeTransferFrom",
      "outputs": [],
      "stateMutability": "nonpayable",
      "type": "function"
    },
    {
      "inputs": [],
      "name": "sendMPAirdrop",
      "outputs": [],
      "stateMutability": "nonpayable",
      "type": "function"
    },
    {
      "inputs": [],
      "name": "sendMPAllDoneForAirdrop",
      "outputs": [
        {
          "internalType": "bool",
          "name": "",
          "type": "bool"
        }
      ],
      "stateMutability": "view",
      "type": "function"
    },
    {
      "inputs": [],
      "name": "sendMPAllDoneForInternalTeam",
      "outputs": [
        {
          "internalType": "bool",
          "name": "",
          "type": "bool"
        }
      ],
      "stateMutability": "view",
      "type": "function"
    },
    {
      "inputs": [],
      "name": "sendMPAllDoneForNormalUsers",
      "outputs": [
        {
          "internalType": "bool",
          "name": "",
          "type": "bool"
        }
      ],
      "stateMutability": "view",
      "type": "function"
    },
    {
      "inputs": [],
      "name": "sendMPInternalTeam",
      "outputs": [],
      "stateMutability": "nonpayable",
      "type": "function"
    },
    {
      "inputs": [],
      "name": "sendMPNormalUsers",
      "outputs": [],
      "stateMutability": "nonpayable",
      "type": "function"
    },
    {
      "inputs": [
        {
          "internalType": "address",
          "name": "operator",
          "type": "address"
        },
        {
          "internalType": "bool",
          "name": "approved",
          "type": "bool"
        }
      ],
      "name": "setApprovalForAll",
      "outputs": [],
      "stateMutability": "nonpayable",
      "type": "function"
    },
    {
      "inputs": [
        {
          "internalType": "bytes32",
          "name": "merkleroot",
          "type": "bytes32"
        },
        {
          "internalType": "uint8",
          "name": "stage",
          "type": "uint8"
        }
      ],
      "name": "setMerkleRoot",
      "outputs": [],
      "stateMutability": "nonpayable",
      "type": "function"
    },
    {
      "inputs": [
        {
          "internalType": "uint256",
          "name": "price",
          "type": "uint256"
        }
      ],
      "name": "setPRICE_PRT",
      "outputs": [],
      "stateMutability": "nonpayable",
      "type": "function"
    },
    {
      "inputs": [
        {
          "internalType": "uint256",
          "name": "price",
          "type": "uint256"
        }
      ],
      "name": "setPRICE_PRT_AIRDROP",
      "outputs": [],
      "stateMutability": "nonpayable",
      "type": "function"
    },
    {
      "inputs": [
        {
          "internalType": "uint256",
          "name": "price",
          "type": "uint256"
        }
      ],
      "name": "setPRICE_PRT_INTERNALTEAM",
      "outputs": [],
      "stateMutability": "nonpayable",
      "type": "function"
    },
    {
      "inputs": [
        {
          "internalType": "uint8",
          "name": "num",
          "type": "uint8"
        }
      ],
      "name": "setPreSalePRT",
      "outputs": [],
      "stateMutability": "nonpayable",
      "type": "function"
    },
    {
      "inputs": [
        {
          "internalType": "uint8",
          "name": "amount",
          "type": "uint8"
        },
        {
          "internalType": "uint8",
          "name": "amount_per_transaction",
          "type": "uint8"
        }
      ],
      "name": "set_MAX_PRT_AMOUNT_PER_ACC_AND_TRANSACTION_INTERNAL",
      "outputs": [],
      "stateMutability": "nonpayable",
      "type": "function"
    },
    {
      "inputs": [
        {
          "internalType": "address",
          "name": "account",
          "type": "address"
        }
      ],
      "name": "shares",
      "outputs": [
        {
          "internalType": "uint256",
          "name": "",
          "type": "uint256"
        }
      ],
      "stateMutability": "view",
      "type": "function"
    },
    {
      "inputs": [
        {
          "internalType": "bytes4",
          "name": "interfaceId",
          "type": "bytes4"
        }
      ],
      "name": "supportsInterface",
      "outputs": [
        {
          "internalType": "bool",
          "name": "",
          "type": "bool"
        }
      ],
      "stateMutability": "view",
      "type": "function"
    },
    {
      "inputs": [],
      "name": "symbol",
      "outputs": [
        {
          "internalType": "string",
          "name": "",
          "type": "string"
        }
      ],
      "stateMutability": "view",
      "type": "function"
    },
    {
      "inputs": [],
      "name": "toggleMintAirdropMPIsOpen",
      "outputs": [],
      "stateMutability": "nonpayable",
      "type": "function"
    },
    {
      "inputs": [],
      "name": "toggleMintInternalTeamMPIsOpen",
      "outputs": [],
      "stateMutability": "nonpayable",
      "type": "function"
    },
    {
      "inputs": [],
      "name": "toggleMintMPIsOpen",
      "outputs": [],
      "stateMutability": "nonpayable",
      "type": "function"
    },
    {
      "inputs": [],
      "name": "toggleReveal",
      "outputs": [],
      "stateMutability": "nonpayable",
      "type": "function"
    },
    {
      "inputs": [
        {
          "internalType": "contract IERC20",
          "name": "token",
          "type": "address"
        }
      ],
      "name": "totalReleased",
      "outputs": [
        {
          "internalType": "uint256",
          "name": "",
          "type": "uint256"
        }
      ],
      "stateMutability": "view",
      "type": "function"
    },
    {
      "inputs": [],
      "name": "totalReleased",
      "outputs": [
        {
          "internalType": "uint256",
          "name": "",
          "type": "uint256"
        }
      ],
      "stateMutability": "view",
      "type": "function"
    },
    {
      "inputs": [],
      "name": "totalShares",
      "outputs": [
        {
          "internalType": "uint256",
          "name": "",
          "type": "uint256"
        }
      ],
      "stateMutability": "view",
      "type": "function"
    },
    {
      "inputs": [
        {
          "internalType": "uint256",
          "name": "id",
          "type": "uint256"
        }
      ],
      "name": "totalSupply",
      "outputs": [
        {
          "internalType": "uint256",
          "name": "",
          "type": "uint256"
        }
      ],
      "stateMutability": "view",
      "type": "function"
    },
    {
      "inputs": [
        {
          "internalType": "address",
          "name": "newOwner",
          "type": "address"
        }
      ],
      "name": "transferOwnership",
      "outputs": [],
      "stateMutability": "nonpayable",
      "type": "function"
    },
    {
      "inputs": [
        {
          "internalType": "uint256",
          "name": "",
          "type": "uint256"
        }
      ],
      "name": "uri",
      "outputs": [
        {
          "internalType": "string",
          "name": "",
          "type": "string"
        }
      ],
      "stateMutability": "view",
      "type": "function"
    },
    {
      "inputs": [
        {
          "internalType": "address",
          "name": "",
          "type": "address"
        }
      ],
      "name": "userNONMPs",
      "outputs": [
        {
          "internalType": "uint8",
          "name": "",
          "type": "uint8"
        }
      ],
      "stateMutability": "view",
      "type": "function"
    },
    {
      "inputs": [],
      "name": "withdraw",
      "outputs": [],
      "stateMutability": "payable",
      "type": "function"
    },
    {
      "inputs": [],
      "name": "xrand",
      "outputs": [
        {
          "internalType": "uint8",
          "name": "",
          "type": "uint8"
        }
      ],
      "stateMutability": "view",
      "type": "function"
    },
    {
      "stateMutability": "payable",
      "type": "receive"
    }
  ],
  "bytecode": "0x60c0604052601060809081526f564950534c414e442047454e4553495360801b60a052600d9062000031908262000801565b50604080518082019091526004815263159414d360e21b6020820152600e906200005c908262000801565b506011805460ff1990811690915560006013819055601481905560158190556016805483166012179055601a80546001600160401b0319166004179055601e805461191961ffff199091161790556701b4fbd92b5f8000601f5560208190556021819055602381905560248190556025819055602781905560288190556029819055602b805463ffffffff19169055602e819055602f81905560308190556031805462ffffff1916905560328190556033556034805490911690553480156200012457600080fd5b5060405162006a5838038062006a58833981016040819052620001479162000a9f565b8585856200015581620004a3565b506200016133620004b5565b8051825114620001d35760405162461bcd60e51b815260206004820152603260248201527f5061796d656e7453706c69747465723a2070617965657320616e6420736861726044820152710cae640d8cadccee8d040dad2e6dac2e8c6d60731b60648201526084015b60405180910390fd5b6000825111620002265760405162461bcd60e51b815260206004820152601a60248201527f5061796d656e7453706c69747465723a206e6f207061796565730000000000006044820152606401620001ca565b60005b825181101562000292576200027d8382815181106200024c576200024c62000b6a565b602002602001015183838151811062000269576200026962000b6a565b60200260200101516200050760201b60201c565b80620002898162000b96565b91505062000229565b50506001600c5550602c829055602d819055600f620002b2858262000801565b506010620002c1848262000801565b50620002d16064614e2062000bb2565b6001600160401b03811115620002eb57620002eb6200075c565b60405190808252806020026020018201604052801562000315578160200160208202803683370190505b5080516200032c91601b91602090910190620006f5565b506002601b60008154811062000346576200034662000b6a565b60009182526020909120015562000363612710620222e062000bb2565b6001600160401b038111156200037d576200037d6200075c565b604051908082528060200260200182016040528015620003a7578160200160208202803683370190505b508051620003be91602291602090910190620006f5565b50620003cf6103e8614e2062000bb2565b6001600160401b03811115620003e957620003e96200075c565b60405190808252806020026020018201604052801562000413578160200160208202803683370190505b5080516200042a91602691602090910190620006f5565b506200043b6104576122b862000bb2565b6001600160401b038111156200045557620004556200075c565b6040519080825280602002602001820160405280156200047f578160200160208202803683370190505b5080516200049691602a91602090910190620006f5565b5050505050505062000bf1565b6002620004b1828262000801565b5050565b600480546001600160a01b038381166001600160a01b0319831681179093556040519116919082907f8be0079c531659141344cd1fd0a4f28419497f9722a3daafe3b4186f6b6457e090600090a35050565b6001600160a01b038216620005745760405162461bcd60e51b815260206004820152602c60248201527f5061796d656e7453706c69747465723a206163636f756e74206973207468652060448201526b7a65726f206164647265737360a01b6064820152608401620001ca565b60008111620005c65760405162461bcd60e51b815260206004820152601d60248201527f5061796d656e7453706c69747465723a207368617265732061726520300000006044820152606401620001ca565b6001600160a01b03821660009081526007602052604090205415620006425760405162461bcd60e51b815260206004820152602b60248201527f5061796d656e7453706c69747465723a206163636f756e7420616c726561647960448201526a206861732073686172657360a81b6064820152608401620001ca565b60098054600181019091557f6e1540171b6c0c960b71a7020d9f60077f6af931a8bbf590da0223dacf75c7af0180546001600160a01b0319166001600160a01b0384169081179091556000908152600760205260409020819055600554620006ac90829062000bd5565b600555604080516001600160a01b0384168152602081018390527f40c340f65e17194d14ddddb073d3c9f888e3cb52b5aae0c6c7706b4fbc905fac910160405180910390a15050565b82805482825590600052602060002090810192821562000733579160200282015b828111156200073357825182559160200191906001019062000716565b506200074192915062000745565b5090565b5b8082111562000741576000815560010162000746565b634e487b7160e01b600052604160045260246000fd5b600181811c908216806200078757607f821691505b602082108103620007a857634e487b7160e01b600052602260045260246000fd5b50919050565b601f821115620007fc57600081815260208120601f850160051c81016020861015620007d75750805b601f850160051c820191505b81811015620007f857828155600101620007e3565b5050505b505050565b81516001600160401b038111156200081d576200081d6200075c565b62000835816200082e845462000772565b84620007ae565b602080601f8311600181146200086d5760008415620008545750858301515b600019600386901b1c1916600185901b178555620007f8565b600085815260208120601f198616915b828110156200089e578886015182559484019460019091019084016200087d565b5085821015620008bd5787850151600019600388901b60f8161c191681555b5050505050600190811b01905550565b604051601f8201601f191681016001600160401b0381118282101715620008f857620008f86200075c565b604052919050565b60006001600160401b038211156200091c576200091c6200075c565b5060051b60200190565b600082601f8301126200093857600080fd5b81516020620009516200094b8362000900565b620008cd565b82815260059290921b840181019181810190868411156200097157600080fd5b8286015b84811015620009a55780516001600160a01b0381168114620009975760008081fd5b835291830191830162000975565b509695505050505050565b600082601f830112620009c257600080fd5b81516020620009d56200094b8362000900565b82815260059290921b84018101918181019086841115620009f557600080fd5b8286015b84811015620009a55780518352918301918301620009f9565b600082601f83011262000a2457600080fd5b81516001600160401b0381111562000a405762000a406200075c565b602062000a56601f8301601f19168201620008cd565b828152858284870101111562000a6b57600080fd5b60005b8381101562000a8b57858101830151828201840152820162000a6e565b506000928101909101919091529392505050565b60008060008060008060c0878903121562000ab957600080fd5b86516001600160401b038082111562000ad157600080fd5b62000adf8a838b0162000926565b9750602089015191508082111562000af657600080fd5b62000b048a838b01620009b0565b9650604089015191508082111562000b1b57600080fd5b62000b298a838b0162000a12565b9550606089015191508082111562000b4057600080fd5b5062000b4f89828a0162000a12565b9350506080870151915060a087015190509295509295509295565b634e487b7160e01b600052603260045260246000fd5b634e487b7160e01b600052601160045260246000fd5b60006001820162000bab5762000bab62000b80565b5060010190565b60008262000bd057634e487b7160e01b600052601260045260246000fd5b500490565b8082018082111562000beb5762000beb62000b80565b92915050565b615e578062000c016000396000f3fe60806040526004361061050f5760003560e01c80637de1c2be11610297578063bd85b03911610165578063da8ab071116100cc578063e67ff55211610085578063e67ff55214610ee7578063e985e9c514610efe578063f242432a14610f47578063f2fde38b14610f67578063fd30116514610f87578063fe47d7f214610f9a57600080fd5b8063da8ab07114610e55578063db9a850914610e6a578063defb1d4514610e80578063df8c6cd314610e9f578063e33b7de314610ebf578063e3b96cae14610ed457600080fd5b8063cd0b99cd1161011e578063cd0b99cd146107e6578063ce7c2ac214610d93578063cea8f9c014610dc9578063cffbd26f14610de9578063d79779b214610e1f578063d7abf1861461070a57600080fd5b8063bd85b03914610cf9578063c45ac05014610d26578063c6358ecd14610d46578063c7a3b01314610d66578063c82190c414610d7c578063c9b4f6ef1461081257600080fd5b806397c6627011610209578063a57674e7116101c2578063a57674e714610c6a578063a882fea414610c7f578063b0bd6fe114610c94578063b1feb18d14610caa578063b247796414610cc4578063b861639414610ce357600080fd5b806397c66270146107e65780639852595c14610bc85780639daf187214610bfe5780639e26975714610c13578063a22cb46514610c2a578063a3f8eace14610c4a57600080fd5b80638b7afe2e1161025b5780638b7afe2e14610b2d5780638b83209b14610b425780638da5cb5b14610b7a57806394a271fd14610b9857806395d89b4114610ba057806395f7d64114610bb557600080fd5b80637de1c2be14610aa757806382a3169314610ac1578063833bc78814610ad75780638515c7ac14610af75780638913fbe014610b1757600080fd5b8063380b5f75116103df5780635308ca78116103465780636e27b972116102ff5780636e27b97214610a10578063715018a614610a2757806375d909ef14610a3c5780637862ed6414610a525780637a1d48f414610a725780637d46d87014610a9257600080fd5b80635308ca78146109795780635b8ad4291461098f5780635de701f9146109a45780636797fdda146109c55780636bfcf578146109e55780636c5959e3146109fa57600080fd5b806344c3c7b91161039857806344c3c7b9146108b657806348b75044146108cd5780634a098124146108ed5780634e1273f4146109035780634f558e7914610930578063518302271461095f57600080fd5b8063380b5f7514610812578063395dcb64146108275780633a98ef391461083d5780633ccfd60b14610852578063406072a91461085a578063438d4bc1146108a057600080fd5b80631902aa4a116104835780632b2be7f51161043c5780632b2be7f51461077c5780632d187ef71461079b5780632d23bf5a146107b05780632eb2c2d6146107c65780632fcf9d4b146107e65780632fef4579146107fc57600080fd5b80631902aa4a146106b257806319165587146106ea57806319f32a501461070a57806320c6974e1461073157806328b33aae1461074b5780632a37e4af1461076557600080fd5b806306fdde03116104d557806306fdde031461060c578063070ccbde1461062e5780630e89341c14610644578063108241181461066457806310dd92471461068657806311e6fb631461069c57600080fd5b806201d05b1461055d578062fdd58e1461058657806301553208146105a657806301ffc9a7146105d657806304bf41d8146105f657600080fd5b36610558577f6ef95f06320e7a25a04a175ca677b7052bdd97131872c2192525a629f51be77033604080516001600160a01b0390921682523460208301520160405180910390a1005b600080fd5b34801561056957600080fd5b5061057360205481565b6040519081526020015b60405180910390f35b34801561059257600080fd5b506105736105a1366004614f9b565b610fca565b3480156105b257600080fd5b50602b546105c69062010000900460ff1681565b604051901515815260200161057d565b3480156105e257600080fd5b506105c66105f1366004614fdd565b611063565b34801561060257600080fd5b50610573614e2181565b34801561061857600080fd5b506106216110b3565b60405161057d919061504a565b34801561063a57600080fd5b50610573602c5481565b34801561065057600080fd5b5061062161065f36600461505d565b611141565b34801561067057600080fd5b5061068461067f36600461508c565b61120d565b005b34801561069257600080fd5b5061057360145481565b3480156106a857600080fd5b5061057360135481565b3480156106be57600080fd5b50601a546106d2906001600160401b031681565b6040516001600160401b03909116815260200161057d565b3480156106f657600080fd5b506106846107053660046150a7565b611267565b34801561071657600080fd5b5061071f600381565b60405160ff909116815260200161057d565b34801561073d57600080fd5b5060165461071f9060ff1681565b34801561075757600080fd5b50601e5461071f9060ff1681565b34801561077157600080fd5b506018546105739081565b34801561078857600080fd5b50601e5461071f90610100900460ff1681565b3480156107a757600080fd5b5061068461134e565b3480156107bc57600080fd5b5061057360155481565b3480156107d257600080fd5b506106846107e1366004615217565b611375565b3480156107f257600080fd5b50610573614e2081565b34801561080857600080fd5b5061057360215481565b34801561081e57600080fd5b5061071f606481565b34801561083357600080fd5b506105736103e881565b34801561084957600080fd5b50600554610573565b6106846113c1565b34801561086657600080fd5b506105736108753660046152c4565b6001600160a01b039182166000908152600b6020908152604080832093909416825291909152205490565b3480156108ac57600080fd5b5061057360275481565b3480156108c257600080fd5b50610573620222e081565b3480156108d957600080fd5b506106846108e83660046152c4565b6113f8565b3480156108f957600080fd5b5061057360245481565b34801561090f57600080fd5b5061092361091e3660046152fd565b611509565b60405161057d9190615404565b34801561093c57600080fd5b506105c661094b36600461505d565b600090815260036020526040902054151590565b34801561096b57600080fd5b506011546105c69060ff1681565b34801561098557600080fd5b5061057361271081565b34801561099b57600080fd5b50610684611632565b3480156109b057600080fd5b50602b546105c6906301000000900460ff1681565b3480156109d157600080fd5b506106846109e0366004615417565b61164e565b3480156109f157600080fd5b5061068461167c565b348015610a0657600080fd5b50610573601f5481565b348015610a1c57600080fd5b506017546105739081565b348015610a3357600080fd5b506106846116a5565b348015610a4857600080fd5b5061057360235481565b348015610a5e57600080fd5b50610684610a6d36600461505d565b6116b9565b348015610a7e57600080fd5b50610684610a8d36600461505d565b6116c6565b348015610a9e57600080fd5b506106846116d3565b348015610ab357600080fd5b50602b5461071f9060ff1681565b348015610acd57600080fd5b506105736122b881565b348015610ae357600080fd5b50610621610af2366004615443565b611aea565b348015610b0357600080fd5b50610684610b1236600461549b565b611b1e565b348015610b2357600080fd5b5061057360295481565b348015610b3957600080fd5b50610573611b86565b348015610b4e57600080fd5b50610b62610b5d36600461505d565b611b96565b6040516001600160a01b03909116815260200161057d565b348015610b8657600080fd5b506004546001600160a01b0316610b62565b610573611bc6565b348015610bac57600080fd5b50610621611bd5565b610684610bc33660046154c5565b611be2565b348015610bd457600080fd5b50610573610be33660046150a7565b6001600160a01b031660009081526008602052604090205490565b348015610c0a57600080fd5b5061071f602381565b348015610c1f57600080fd5b506019546105739081565b348015610c3657600080fd5b50610684610c453660046154f1565b611caf565b348015610c5657600080fd5b50610573610c653660046150a7565b611cba565b348015610c7657600080fd5b50610684611d02565b348015610c8b57600080fd5b50610684612084565b348015610ca057600080fd5b50610573602d5481565b348015610cb657600080fd5b506031546105c69060ff1681565b348015610cd057600080fd5b506031546105c690610100900460ff1681565b348015610cef57600080fd5b5061057360255481565b348015610d0557600080fd5b50610573610d1436600461505d565b60009081526003602052604090205490565b348015610d3257600080fd5b50610573610d413660046152c4565b612492565b348015610d5257600080fd5b50610684610d6136600461505d565b61255d565b348015610d7257600080fd5b5061057361045781565b348015610d8857600080fd5b506105736202710181565b348015610d9f57600080fd5b50610573610dae3660046150a7565b6001600160a01b031660009081526007602052604090205490565b348015610dd557600080fd5b506031546105c69062010000900460ff1681565b348015610df557600080fd5b50610b62610e0436600461505d565b601c602052600090815260409020546001600160a01b031681565b348015610e2b57600080fd5b50610573610e3a3660046150a7565b6001600160a01b03166000908152600a602052604090205490565b348015610e6157600080fd5b5061068461256a565b348015610e7657600080fd5b5061057360285481565b348015610e8c57600080fd5b50602b546105c690610100900460ff1681565b348015610eab57600080fd5b50610573610eba36600461505d565b61258f565b348015610ecb57600080fd5b50600654610573565b610684610ee236600461551f565b6125b0565b348015610ef357600080fd5b506105736202bf2181565b348015610f0a57600080fd5b506105c6610f193660046152c4565b6001600160a01b03918216600090815260016020908152604080832093909416825291909152205460ff1690565b348015610f5357600080fd5b50610684610f623660046155b1565b61273c565b348015610f7357600080fd5b50610684610f823660046150a7565b612781565b610684610f9536600461551f565b6127f7565b348015610fa657600080fd5b5061071f610fb53660046150a7565b601d6020526000908152604090205460ff1681565b60006001600160a01b03831661103a5760405162461bcd60e51b815260206004820152602a60248201527f455243313135353a2061646472657373207a65726f206973206e6f742061207660448201526930b634b21037bbb732b960b11b60648201526084015b60405180910390fd5b506000818152602081815260408083206001600160a01b03861684529091529020545b92915050565b60006001600160e01b03198216636cdb3d1360e11b148061109457506001600160e01b031982166303a24d0760e21b145b8061105d57506301ffc9a760e01b6001600160e01b031983161461105d565b600d80546110c090615619565b80601f01602080910402602001604051908101604052809291908181526020018280546110ec90615619565b80156111395780601f1061110e57610100808354040283529160200191611139565b820191906000526020600020905b81548152906001019060200180831161111c57829003601f168201915b505050505081565b60115460609060ff1615156000036111e557600f805461116090615619565b80601f016020809104026020016040519081016040528092919081815260200182805461118c90615619565b80156111d95780601f106111ae576101008083540402835291602001916111d9565b820191906000526020600020905b8154815290600101906020018083116111bc57829003601f168201915b50505050509050919050565b60106040516020016111f79190615653565b6040516020818303038152906040529050919050565b611215612939565b60ff811660078111156112505760405162461bcd60e51b815260206004820152600360248201526232991960e91b6044820152606401611031565b50602b805460ff191660ff92909216919091179055565b6001600160a01b03811660009081526007602052604090205461129c5760405162461bcd60e51b815260040161103190615712565b60006112a782611cba565b9050806000036112c95760405162461bcd60e51b815260040161103190615758565b80600660008282546112db91906157b9565b90915550506001600160a01b03821660009081526008602052604090208054820190556113088282612993565b604080516001600160a01b0384168152602081018390527fdf20fd1e76bc69d672e4814fafb2c449bba3a5369d8359adf9e05e6fde87b056910160405180910390a15050565b611356612939565b602b805462ff0000198116620100009182900460ff1615909102179055565b6001600160a01b03851633148061139157506113918533610f19565b6113ad5760405162461bcd60e51b8152600401611031906157cc565b6113ba8585858585612aac565b5050505050565b6113c9612939565b60405133904780156108fc02916000818181858888f193505050501580156113f5573d6000803e3d6000fd5b50565b6001600160a01b03811660009081526007602052604090205461142d5760405162461bcd60e51b815260040161103190615712565b60006114398383612492565b90508060000361145b5760405162461bcd60e51b815260040161103190615758565b6001600160a01b0383166000908152600a6020526040812080548392906114839084906157b9565b90915550506001600160a01b038084166000908152600b602090815260408083209386168352929052208054820190556114be838383612c56565b604080516001600160a01b038481168252602082018490528516917f3be5b7a71e84ed12875d241991c70855ac5817d847039e17a9d895c1ceb0f18a910160405180910390a2505050565b6060815183511461156e5760405162461bcd60e51b815260206004820152602960248201527f455243313135353a206163636f756e747320616e6420696473206c656e677468604482015268040dad2e6dac2e8c6d60bb1b6064820152608401611031565b600083516001600160401b03811115611589576115896150c4565b6040519080825280602002602001820160405280156115b2578160200160208202803683370190505b50905060005b845181101561162a576115fd8582815181106115d6576115d661581a565b60200260200101518583815181106115f0576115f061581a565b6020026020010151610fca565b82828151811061160f5761160f61581a565b602090810291909101015261162381615830565b90506115b8565b509392505050565b61163a612939565b6011805460ff19811660ff90911615179055565b611656612939565b8060ff1660020361166757602d8290555b8060ff1660010361167857602c8290555b5050565b611684612939565b602b805463ff00000019811663010000009182900460ff1615909102179055565b6116ad612939565b6116b76000612ca8565b565b6116c1612939565b602355565b6116ce612939565b601f55565b3332146116f25760405162461bcd60e51b815260040161103190615849565b6116fa612939565b602b546301000000900460ff166117385760405162461bcd60e51b8152602060048201526002602482015261329b60f11b6044820152606401611031565b60315460ff1615156001146117755760405162461bcd60e51b815260206004820152600360248201526232989960e91b6044820152606401611031565b603154610100900460ff16156117b35760405162461bcd60e51b815260206004820152600360248201526265313360e81b6044820152606401611031565b6117c1601980546001019055565b60006117cc60195490565b905060006117db603254612cfa565b6034805460ff191660ff93909316929092179091556030549091505b611803836103e8615865565b811015611ad657603454600090819060ff166001036118fe5761271061182c84620293b8615865565b6118369190615892565b60165462ffffff919091169060ff16614e2061185587620271006158a6565b62ffffff1661186491906157b9565b61186f9060016157b9565b61187991906157b9565b61188391906157b9565b905061271061189584620293b8615865565b6118a09060016157b9565b6118aa9190615892565b60165462ffffff919091169060ff16614e206118c987620271006158a6565b62ffffff166118d891906157b9565b6118e39060016157b9565b6118ed91906157b9565b6118f791906157b9565b91506119dc565b61271061190e84620293b8615865565b6119189190615892565b60165462ffffff919091169060ff16614e2061193787620271006158c9565b62ffffff1661194691906157b9565b6119519060016157b9565b61195b91906157b9565b61196591906157b9565b905061271061197784620293b8615865565b6119829060016157b9565b61198c9190615892565b60165462ffffff919091169060ff16614e206119ab87620271006158c9565b62ffffff166119ba91906157b9565b6119c59060016157b9565b6119cf91906157b9565b6119d991906157b9565b91505b60006122b8614e206119f1620222e0826157b9565b6119fb91906157b9565b611a0591906157b9565b9050808362ffffff161180611a1e5750808262ffffff16115b6031805461ff0019166101009215158302179081905560405160ff929091049190911615158152600080516020615e028339815191529060200160405180910390a1603154610100900460ff1615611a7857505050611ad6565b601654601554611a8f918491849160ff1690612dad565b60155560315460405161010090910460ff1615158152600080516020615e028339815191529060200160405180910390a15050508080611ace90615830565b9150506117f7565b50611ae3826103e8615865565b6030555050565b606082611af683612ebe565b604051602001611b079291906158e5565b604051602081830303815290604052905092915050565b611b26612939565b8160ff168160ff161115611b625760405162461bcd60e51b815260206004820152600360248201526265323360e81b6044820152606401611031565b601e805460ff9283166101000261ffff199091169290931691909117919091179055565b6000611b90612939565b50475b90565b600060098281548110611bab57611bab61581a565b6000918252602090912001546001600160a01b031692915050565b6000611bd0612939565b503490565b600e80546110c090615619565b81336001600160a01b03821614611c0b5760405162461bcd60e51b815260040161103190615921565b333214611c2a5760405162461bcd60e51b815260040161103190615849565b602b5460ff16600003611c4f5760405162461bcd60e51b81526004016110319061593d565b611c57612f50565b60008260ff1611611c7a5760405162461bcd60e51b81526004016110319061595a565b33611c975760405162461bcd60e51b815260040161103190615977565b611ca082612fa9565b611caa6001600c55565b505050565b6116783383836134fa565b600080611cc660065490565b611cd090476157b9565b9050611cfb8382611cf6866001600160a01b031660009081526008602052604090205490565b6135da565b9392505050565b333214611d215760405162461bcd60e51b815260040161103190615849565b611d29612939565b602b54610100900460ff16611d655760405162461bcd60e51b8152602060048201526002602482015261653560f01b6044820152606401611031565b60315460ff1615611d9d5760405162461bcd60e51b8152602060048201526002602482015261653960f01b6044820152606401611031565b60165460ff16601203611dc957611db46011613618565b6016805460ff191660ff929092169190911790555b611dd7601780546001019055565b6000611de260175490565b602e549091506000905b611df8836103e8615865565b811015612070576000612710611e1183620293b8615865565b611e1b9190615892565b60165462ffffff919091169060ff16611e37614e2060016157b9565b611e4191906157b9565b611e4b91906157b9565b90506000611e5e620222e0614e206157b9565b90506000612710611e7285620293b8615865565b611e7d9060016157b9565b611e879190615892565b60165462ffffff919091169060ff16611ea3614e2060016157b9565b611ead91906157b9565b611eb791906157b9565b9050818162ffffff161180611ed05750818362ffffff16115b6031805460ff1916911515918217905560405160ff90911615158152600080516020615e028339815191529060200160405180910390a160315460ff16156120145762ffffff81166032819055600090611f2990612cfa565b6034805460ff90931660ff19909316831790559150600103611faa57611f5561271063bf438041615892565b60165462ffffff919091169060ff16614e20611f7484620222e06158a6565b62ffffff16611f8391906157b9565b611f8e9060016157b9565b611f9891906157b9565b611fa291906157b9565b60335561200b565b611fba61271063bf438041615892565b60165462ffffff919091169060ff16614e20611fd984620222e06158c9565b62ffffff16611fe891906157b9565b611ff39060016157b9565b611ffd91906157b9565b61200791906157b9565b6033555b50505050612070565b60165460135461202b918591859160ff1690612dad565b60135560315460405160ff90911615158152600080516020615e028339815191529060200160405180910390a15090925081905061206881615830565b915050611dec565b5061207d826103e8615865565b602e555050565b3332146120a35760405162461bcd60e51b815260040161103190615849565b6120ab612939565b602b5462010000900460ff166120e85760405162461bcd60e51b8152602060048201526002602482015261653760f01b6044820152606401611031565b60315460ff1615156001146121255760405162461bcd60e51b815260206004820152600360248201526206531360ec1b6044820152606401611031565b60315462010000900460ff16156121645760405162461bcd60e51b815260206004820152600360248201526265313160e81b6044820152606401611031565b612172601880546001019055565b600061217d60185490565b9050600061218c603254612cfa565b6034805460ff191660ff9390931692909217909155602f549091505b6121b4836103e8615865565b81101561247e57603454600090819060ff166001036122af576127106121dd84620293b8615865565b6121e79190615892565b60165462ffffff919091169060ff16614e2061220687620222e06158a6565b62ffffff1661221591906157b9565b6122209060016157b9565b61222a91906157b9565b61223491906157b9565b915061271061224684620293b8615865565b6122519060016157b9565b61225b9190615892565b60165462ffffff919091169060ff16614e2061227a87620222e06158a6565b62ffffff1661228991906157b9565b6122949060016157b9565b61229e91906157b9565b6122a891906157b9565b905061238d565b6127106122bf84620293b8615865565b6122c99190615892565b60165462ffffff919091169060ff16614e206122e887620222e06158c9565b62ffffff166122f791906157b9565b6123029060016157b9565b61230c91906157b9565b61231691906157b9565b915061271061232884620293b8615865565b6123339060016157b9565b61233d9190615892565b60165462ffffff919091169060ff16614e2061235c87620222e06158c9565b62ffffff1661236b91906157b9565b6123769060016157b9565b61238091906157b9565b61238a91906157b9565b90505b6000614e2061239f620222e0826157b9565b6123a991906157b9565b9050808262ffffff1611806123c25750808362ffffff16115b6031805462ff00001916620100009215158302179081905560405160ff929091049190911615158152600080516020615e028339815191529060200160405180910390a160315462010000900460ff161561241f5750505061247e565b601654601454612436918591849160ff1690612dad565b6014556031546040516201000090910460ff1615158152600080516020615e028339815191529060200160405180910390a1505050808061247690615830565b9150506121a8565b5061248b826103e8615865565b602f555050565b6001600160a01b0382166000908152600a602052604081205481906040516370a0823160e01b81523060048201526001600160a01b038616906370a0823190602401602060405180830381865afa1580156124f1573d6000803e3d6000fd5b505050506040513d601f19601f820116820180604052508101906125159190615994565b61251f91906157b9565b6001600160a01b038086166000908152600b602090815260408083209388168352929052205490915061255590849083906135da565b949350505050565b612565612939565b602755565b612572612939565b602b805461ff001981166101009182900460ff1615909102179055565b602a818154811061259f57600080fd5b600091825260209091200154905081565b83336001600160a01b038216146125d95760405162461bcd60e51b815260040161103190615921565b3332146125f85760405162461bcd60e51b815260040161103190615849565b602b5460ff1660000361261d5760405162461bcd60e51b81526004016110319061593d565b612625612f50565b828260026126af83838080602002602001604051908101604052809392919081815260200183836020028082843760009201919091525050505060ff831660011461267257602d54612676565b602c545b6040516bffffffffffffffffffffffff193360601b16602082015260340160405160208183030381529060405280519060200120613631565b15156001146126e65760405162461bcd60e51b8152602060048201526003602482015262194c8d60ea1b6044820152606401611031565b60008760ff16116127095760405162461bcd60e51b81526004016110319061595a565b336127265760405162461bcd60e51b815260040161103190615977565b61272f87613647565b5050506113ba6001600c55565b6001600160a01b03851633148061275857506127588533610f19565b6127745760405162461bcd60e51b8152600401611031906157cc565b6113ba8585858585613b52565b612789612939565b6001600160a01b0381166127ee5760405162461bcd60e51b815260206004820152602660248201527f4f776e61626c653a206e6577206f776e657220697320746865207a65726f206160448201526564647265737360d01b6064820152608401611031565b6113f581612ca8565b83336001600160a01b038216146128205760405162461bcd60e51b815260040161103190615921565b33321461283f5760405162461bcd60e51b815260040161103190615849565b602b5460ff166000036128645760405162461bcd60e51b81526004016110319061593d565b61286c612f50565b828260016128b983838080602002602001604051908101604052809392919081815260200183836020028082843760009201919091525050505060ff831660011461267257602d54612676565b15156001146128f05760405162461bcd60e51b8152602060048201526003602482015262194c8d60ea1b6044820152606401611031565b60008760ff16116129135760405162461bcd60e51b81526004016110319061595a565b336129305760405162461bcd60e51b815260040161103190615977565b61272f87613c7f565b6004546001600160a01b031633146116b75760405162461bcd60e51b815260206004820181905260248201527f4f776e61626c653a2063616c6c6572206973206e6f7420746865206f776e65726044820152606401611031565b804710156129e35760405162461bcd60e51b815260206004820152601d60248201527f416464726573733a20696e73756666696369656e742062616c616e63650000006044820152606401611031565b6000826001600160a01b03168260405160006040518083038185875af1925050503d8060008114612a30576040519150601f19603f3d011682016040523d82523d6000602084013e612a35565b606091505b5050905080611caa5760405162461bcd60e51b815260206004820152603a60248201527f416464726573733a20756e61626c6520746f2073656e642076616c75652c207260448201527f6563697069656e74206d617920686176652072657665727465640000000000006064820152608401611031565b8151835114612acd5760405162461bcd60e51b8152600401611031906159ad565b6001600160a01b038416612af35760405162461bcd60e51b8152600401611031906159f5565b33612b028187878787876140ec565b60005b8451811015612be8576000858281518110612b2257612b2261581a565b602002602001015190506000858381518110612b4057612b4061581a565b602090810291909101810151600084815280835260408082206001600160a01b038e168352909352919091205490915081811015612b905760405162461bcd60e51b815260040161103190615a3a565b6000838152602081815260408083206001600160a01b038e8116855292528083208585039055908b16825281208054849290612bcd9084906157b9565b9250508190555050505080612be190615830565b9050612b05565b50846001600160a01b0316866001600160a01b0316826001600160a01b03167f4a39dc06d4c0dbc64b70af90fd698a233a518aa5d07e595d983b8c0526c8f7fb8787604051612c38929190615a84565b60405180910390a4612c4e81878787878761426e565b505050505050565b604080516001600160a01b038416602482015260448082018490528251808303909101815260649091019091526020810180516001600160e01b031663a9059cbb60e01b179052611caa9084906143c9565b600480546001600160a01b038381166001600160a01b0319831681179093556040519116919082907f8be0079c531659141344cd1fd0a4f28419497f9722a3daafe3b4186f6b6457e090600090a35050565b601654600090819060ff16612d14614e20620222e06157b9565b612d1f9060016157b9565b612d2991906157b9565b62ffffff168310612d745760165460019060ff16612d4c614e20620222e06157b9565b612d579060016157b9565b612d6191906157b9565b612d6b90856158c9565b91509150915091565b601654600090849060ff16612d8e614e20620222e06157b9565b612d999060016157b9565b612da391906157b9565b612d6b91906158c9565b60007f447b8744ce19b4ec182a865f10546affad5cb63bee7fbf1f4733554d3644a8d085612dde60ff861687615ab2565b6040805162ffffff909316835260208301919091520160405180910390a16000612e0c8662ffffff1661449b565b90506001600160a01b03811615612eb4576000612e27614500565b9050612e4533826001604051806020016040528060008152506147f4565b612e6233838360016040518060200160405280600081525061273c565b612e6d6001856157b9565b9350816001600160a01b03167ffbc825a9dbec6ba579c678650f97fd1adaab5d895472fb72d1be4a0982ed8c1982604051612eaa91815260200190565b60405180910390a2505b5090949350505050565b60606000612ecb836148d4565b60010190506000816001600160401b03811115612eea57612eea6150c4565b6040519080825280601f01601f191660200182016040528015612f14576020820181803683370190505b5090508181016020015b600019016f181899199a1a9b1b9c1cb0b131b232b360811b600a86061a8153600a8504945084612f1e57509392505050565b6002600c5403612fa25760405162461bcd60e51b815260206004820152601f60248201527f5265656e7472616e637947756172643a207265656e7472616e742063616c6c006044820152606401611031565b6002600c55565b602b54600090600490811614612fd15760405162461bcd60e51b815260040161103190615ac5565b336000908152601d6020526040902054606460ff90911611156130065760405162461bcd60e51b815260040161103190615ae2565b602360ff8316111561302a5760405162461bcd60e51b815260040161103190615aff565b336000908152601d602052604090205460649061304b90849060ff16615b1c565b60ff16111561307957336000908152601d60205260409020546130729060ff166064615b35565b9150600190505b6000806000806130e686614e21602154620222e061271060228054806020026020016040519081016040528092919081815260200182805480156130dc57602002820191906000526020600020905b8154815260200190600101908083116130c8575b50505050506149ac565b93509350935093508560ff168360ff161461310057600194505b601f54600560ff85161080159061311b5750600a8460ff1611155b15613142576005601f5460046131319190615865565b61313b9190615892565b905061316c565b600a8460ff16111561316c576005601f54600361315f9190615865565b6131699190615892565b90505b3461317a60ff861683615865565b8110156131995760405162461bcd60e51b815260040161103190615b4e565b6004546001600160a01b03166108fc6131b560ff881685615865565b6040518115909202916000818181858888f193505050501580156131dd573d6000803e3d6000fd5b5060008560ff166001600160401b038111156131fb576131fb6150c4565b604051908082528060200260200182016040528015613224578160200160208202803683370190505b50905060008660ff166001600160401b03811115613244576132446150c4565b60405190808252806020026020018201604052801561326d578160200160208202803683370190505b50905060005b8760ff168110156132d757613288818a6157b9565b83828151811061329a5761329a61581a565b60200260200101818152505060018282815181106132ba576132ba61581a565b6020908102919091010152806132cf81615830565b915050613273565b506132f333838360405180602001604052806000815250614b47565b60005b8760ff168110156133655733601c60008584815181106133185761331861581a565b6020026020010151815260200190815260200160002060006101000a8154816001600160a01b0302191690836001600160a01b03160217905550808061335d90615830565b9150506132f6565b508151336000908152601d6020526040902054613385919060ff166157b9565b336000908152601d60205260409020805460ff191660ff9283161790556021879055602280548983169288169081106133c0576133c061581a565b90600052602060002001546133d591906157b9565b60228660ff16815481106133eb576133eb61581a565b90600052602060002001819055508660ff166020600082825461340e91906157b9565b9091555050602054620222e01161342f57602b805461ff0019166101001790555b336000818152601d60205260409020547f5502323c6df68df1e53322521611e413013778452d1941cdf6224365a013eee29060ff168461347060018c615b35565b60ff16815181106134835761348361581a565b60200260200101516040516134a792919060ff929092168252602082015260400190565b60405180910390a288156134ee5760405160ff8816815233907faf3c443bb05b163e7d42de9f4b11bdbfa307cad571a1ae5013e5e2ee92e66ed29060200160405180910390a25b50505050505050505050565b816001600160a01b0316836001600160a01b03160361356d5760405162461bcd60e51b815260206004820152602960248201527f455243313135353a2073657474696e6720617070726f76616c20737461747573604482015268103337b91039b2b63360b91b6064820152608401611031565b6001600160a01b03838116600081815260016020908152604080832094871680845294825291829020805460ff191686151590811790915591519182527f17307eab39ab6107e8899845ad3d59bd9653f200f220920489ca2b5937696c31910160405180910390a3505050565b6005546001600160a01b038416600090815260076020526040812054909183916136049086615865565b61360e9190615892565b6125559190615ab2565b600081613626600143615ab2565b61105d919040615b6b565b60008261363e8584614ca1565b14949350505050565b602b5460009060029081161461366f5760405162461bcd60e51b815260040161103190615ac5565b601e54336000908152601d602052604090205460ff918216911611156136a75760405162461bcd60e51b815260040161103190615ae2565b601e5460ff610100909104811690831611156136d55760405162461bcd60e51b815260040161103190615aff565b601e54336000908152601d602052604090205460ff918216916136fa91859116615b1c565b60ff16111561372d57336000908152601d6020526040902054601e546137269160ff9081169116615b35565b9150600190505b6000806000806137988662027101602554614e206103e860268054806020026020016040519081016040528092919081815260200182805480156130dc57602002820191906000526020600020908154815260200190600101908083116130c85750505050506149ac565b93509350935093508560ff168360ff16146137b257600194505b60235434906137c59060ff861690615865565b8110156137e45760405162461bcd60e51b815260040161103190615b4e565b6004546001600160a01b03166001600160a01b03166108fc8560ff1660235461380d9190615865565b6040518115909202916000818181858888f19350505050158015613835573d6000803e3d6000fd5b5060008460ff166001600160401b03811115613853576138536150c4565b60405190808252806020026020018201604052801561387c578160200160208202803683370190505b50905060008560ff166001600160401b0381111561389c5761389c6150c4565b6040519080825280602002602001820160405280156138c5578160200160208202803683370190505b50905060005b8660ff1681101561392f576138e081896157b9565b8382815181106138f2576138f261581a565b60200260200101818152505060018282815181106139125761391261581a565b60209081029190910101528061392781615830565b9150506138cb565b5061394b33838360405180602001604052806000815250614b47565b60005b8660ff168110156139bd5733601c60008584815181106139705761397061581a565b6020026020010151815260200190815260200160002060006101000a8154816001600160a01b0302191690836001600160a01b0316021790555080806139b590615830565b91505061394e565b508151336000908152601d60205260409020546139dd919060ff166157b9565b336000908152601d60205260409020805460ff191660ff928316179055602586905560268054888316928716908110613a1857613a1861581a565b9060005260206000200154613a2d91906157b9565b60268560ff1681548110613a4357613a4361581a565b90600052602060002001819055508560ff1660246000828254613a6691906157b9565b9091555050602454614e2011613a8857602b805462ff00001916620100001790555b336000818152601d60205260409020547f5502323c6df68df1e53322521611e413013778452d1941cdf6224365a013eee29060ff1684613ac960018b615b35565b60ff1681518110613adc57613adc61581a565b6020026020010151604051613b0092919060ff929092168252602082015260400190565b60405180910390a28715613b475760405160ff8716815233907faf3c443bb05b163e7d42de9f4b11bdbfa307cad571a1ae5013e5e2ee92e66ed29060200160405180910390a25b505050505050505050565b6001600160a01b038416613b785760405162461bcd60e51b8152600401611031906159f5565b336000613b8485614ce6565b90506000613b9185614ce6565b9050613ba18389898585896140ec565b6000868152602081815260408083206001600160a01b038c16845290915290205485811015613be25760405162461bcd60e51b815260040161103190615a3a565b6000878152602081815260408083206001600160a01b038d8116855292528083208985039055908a16825281208054889290613c1f9084906157b9565b909155505060408051888152602081018890526001600160a01b03808b16928c821692918816917fc3d58168c5ae7397731d063d5bbf3d657854427343f4c083240f7aacaa2d0f62910160405180910390a4613b47848a8a8a8a8a614d31565b602b54600090600190811614613ca75760405162461bcd60e51b815260040161103190615ac5565b336000908152601d6020526040902054600360ff9091161115613cdc5760405162461bcd60e51b815260040161103190615ae2565b600360ff83161115613d005760405162461bcd60e51b815260040161103190615aff565b336000908152601d6020526040902054600390613d2190849060ff16615b1c565b60ff161115613d4f57336000908152601d6020526040902054613d489060ff166003615b35565b9150600190505b600080600080613dba866202bf216029546122b8610457602a8054806020026020016040519081016040528092919081815260200182805480156130dc57602002820191906000526020600020908154815260200190600101908083116130c85750505050506149ac565b93509350935093508560ff168360ff1614613dd457600194505b6027543490613de79060ff861690615865565b811015613e065760405162461bcd60e51b815260040161103190615b4e565b6004546001600160a01b03166001600160a01b03166108fc8560ff16602754613e2f9190615865565b6040518115909202916000818181858888f19350505050158015613e57573d6000803e3d6000fd5b5060008460ff166001600160401b03811115613e7557613e756150c4565b604051908082528060200260200182016040528015613e9e578160200160208202803683370190505b50905060008560ff166001600160401b03811115613ebe57613ebe6150c4565b604051908082528060200260200182016040528015613ee7578160200160208202803683370190505b50905060005b8660ff16811015613f5157613f0281896157b9565b838281518110613f1457613f1461581a565b6020026020010181815250506001828281518110613f3457613f3461581a565b602090810291909101015280613f4981615830565b915050613eed565b50613f6d33838360405180602001604052806000815250614b47565b60005b8660ff16811015613fdf5733601c6000858481518110613f9257613f9261581a565b6020026020010151815260200190815260200160002060006101000a8154816001600160a01b0302191690836001600160a01b031602179055508080613fd790615830565b915050613f70565b508151336000908152601d6020526040902054613fff919060ff166157b9565b336000908152601d60205260409020805460ff191660ff9283161790556029869055602a805488831692871690811061403a5761403a61581a565b906000526020600020015461404f91906157b9565b602a8560ff16815481106140655761406561581a565b90600052602060002001819055508560ff166028600082825461408891906157b9565b90915550506028546122b811613a8857602b805463ff00000019166301000000179055336000818152601d60205260409020547f5502323c6df68df1e53322521611e413013778452d1941cdf6224365a013eee29060ff1684613ac960018b615b35565b6001600160a01b0385166141735760005b8351811015614171578281815181106141185761411861581a565b6020026020010151600360008684815181106141365761413661581a565b60200260200101518152602001908152602001600020600082825461415b91906157b9565b9091555061416a905081615830565b90506140fd565b505b6001600160a01b038416612c4e5760005b83518110156142655760008482815181106141a1576141a161581a565b6020026020010151905060008483815181106141bf576141bf61581a565b60200260200101519050600060036000848152602001908152602001600020549050818110156142425760405162461bcd60e51b815260206004820152602860248201527f455243313135353a206275726e20616d6f756e74206578636565647320746f74604482015267616c537570706c7960c01b6064820152608401611031565b6000928352600360205260409092209103905561425e81615830565b9050614184565b50505050505050565b6001600160a01b0384163b15612c4e5760405163bc197c8160e01b81526001600160a01b0385169063bc197c81906142b29089908990889088908890600401615b7f565b6020604051808303816000875af19250505080156142ed575060408051601f3d908101601f191682019092526142ea91810190615bdd565b60015b614399576142f9615bfa565b806308c379a003614332575061430d615c15565b806143185750614334565b8060405162461bcd60e51b8152600401611031919061504a565b505b60405162461bcd60e51b815260206004820152603460248201527f455243313135353a207472616e7366657220746f206e6f6e2d455243313135356044820152732932b1b2b4bb32b91034b6b83632b6b2b73a32b960611b6064820152608401611031565b6001600160e01b0319811663bc197c8160e01b146142655760405162461bcd60e51b815260040161103190615c9e565b600061441e826040518060400160405280602081526020017f5361666545524332303a206c6f772d6c6576656c2063616c6c206661696c6564815250856001600160a01b0316614dec9092919063ffffffff16565b805190915015611caa578080602001905181019061443c9190615ce6565b611caa5760405162461bcd60e51b815260206004820152602a60248201527f5361666545524332303a204552433230206f7065726174696f6e20646964206e6044820152691bdd081cdd58d8d9595960b21b6064820152608401611031565b600081815260036020526040812054151580156144d757506000828152601c60205260408120546144d5906001600160a01b031684610fca565b115b156144f857506000908152601c60205260409020546001600160a01b031690565b506000919050565b601a54600090614e206001600160401b03909116106145465760405162461bcd60e51b81526020600482015260026024820152610ca760f31b6044820152606401611031565b601b5460009061455590613618565b905060005b601b5460ff90811690821610156145ea57601b5461457a90614e20615892565b601b8360ff16815481106145905761459061581a565b9060005260206000200154036145d357601b546145af90600190615ab2565b8260ff16036145c157600091506145d8565b816145cb81615d03565b9250506145d8565b6145ea565b806145e281615d03565b91505061455a565b60006145f860026064615d22565b60ff16601b8460ff16815481106146115761461161581a565b9060005260206000200154101561467957614630606460ff8516615865565b601b8460ff16815481106146465761464661581a565b9060005260206000200154600161465d91906157b9565b614668906002615865565b61467291906157b9565b9050614777565b60ff83161580156146b7575061469160026064615d22565b60ff16601b8460ff16815481106146aa576146aa61581a565b9060005260206000200154145b1561470c57601b8360ff16815481106146d2576146d261581a565b906000526020600020015460026146e991906157b9565b601b8460ff16815481106146ff576146ff61581a565b6000918252602090912001555b61471a606460ff8516615865565b61472660026064615d22565b60ff16601b8560ff168154811061473f5761473f61581a565b90600052602060002001546147549190615ab2565b61475f906002615865565b61476a9060016157b9565b61477491906157b9565b90505b6001601b8460ff168154811061478f5761478f61581a565b9060005260206000200160008282546147a891906157b9565b9091555050601a80546001600160401b03169060006147c683615d44565b91906101000a8154816001600160401b0302191690836001600160401b031602179055505080935050505090565b6001600160a01b03841661481a5760405162461bcd60e51b815260040161103190615d6a565b33600061482685614ce6565b9050600061483385614ce6565b9050614844836000898585896140ec565b6000868152602081815260408083206001600160a01b038b168452909152812080548792906148749084906157b9565b909155505060408051878152602081018790526001600160a01b03808a1692600092918716917fc3d58168c5ae7397731d063d5bbf3d657854427343f4c083240f7aacaa2d0f62910160405180910390a461426583600089898989614d31565b60008072184f03e93ff9f4daa797ed6e38ed64bf6a1f0160401b83106149135772184f03e93ff9f4daa797ed6e38ed64bf6a1f0160401b830492506040015b6d04ee2d6d415b85acef8100000000831061493f576d04ee2d6d415b85acef8100000000830492506020015b662386f26fc10000831061495d57662386f26fc10000830492506010015b6305f5e1008310614975576305f5e100830492506008015b612710831061498957612710830492506004015b6064831061499b576064830492506002015b600a831061105d5760010192915050565b6000806000808688106149e75760405162461bcd60e51b815260206004820152600360248201526206532360ec1b6044820152606401611031565b60006149fb6149f6888a615892565b613618565b905060005b614a0a888a615892565b8160ff1614614a875787878360ff1681518110614a2957614a2961581a565b602002602001015103614a70576001614a42898b615892565b614a4c9190615ab2565b8260ff1603614a5e5760009150614a75565b81614a6881615d03565b925050614a75565b614a87565b80614a7f81615d03565b915050614a00565b6000614a968960ff8516615865565b888460ff1681518110614aab57614aab61581a565b6020026020010151614abd91906157b9565b9050888d60ff16898560ff1681518110614ad957614ad961581a565b6020026020010151614aeb91906157b9565b1115614b1c57878360ff1681518110614b0657614b0661581a565b602002602001015189614b199190615ab2565b9c505b614b298b60ff8f166157b9565b9a50614b358c826157b9565b9d9a9b50919998505050505050505050565b6001600160a01b038416614b6d5760405162461bcd60e51b815260040161103190615d6a565b8151835114614b8e5760405162461bcd60e51b8152600401611031906159ad565b33614b9e816000878787876140ec565b60005b8451811015614c3957838181518110614bbc57614bbc61581a565b6020026020010151600080878481518110614bd957614bd961581a565b602002602001015181526020019081526020016000206000886001600160a01b03166001600160a01b031681526020019081526020016000206000828254614c2191906157b9565b90915550819050614c3181615830565b915050614ba1565b50846001600160a01b031660006001600160a01b0316826001600160a01b03167f4a39dc06d4c0dbc64b70af90fd698a233a518aa5d07e595d983b8c0526c8f7fb8787604051614c8a929190615a84565b60405180910390a46113ba8160008787878761426e565b600081815b845181101561162a57614cd282868381518110614cc557614cc561581a565b6020026020010151614dfb565b915080614cde81615830565b915050614ca6565b60408051600180825281830190925260609160009190602080830190803683370190505090508281600081518110614d2057614d2061581a565b602090810291909101015292915050565b6001600160a01b0384163b15612c4e5760405163f23a6e6160e01b81526001600160a01b0385169063f23a6e6190614d759089908990889088908890600401615dab565b6020604051808303816000875af1925050508015614db0575060408051601f3d908101601f19168201909252614dad91810190615bdd565b60015b614dbc576142f9615bfa565b6001600160e01b0319811663f23a6e6160e01b146142655760405162461bcd60e51b815260040161103190615c9e565b60606125558484600085614e27565b6000818310614e17576000828152602084905260409020611cfb565b5060009182526020526040902090565b606082471015614e885760405162461bcd60e51b815260206004820152602660248201527f416464726573733a20696e73756666696369656e742062616c616e636520666f6044820152651c8818d85b1b60d21b6064820152608401611031565b600080866001600160a01b03168587604051614ea49190615de5565b60006040518083038185875af1925050503d8060008114614ee1576040519150601f19603f3d011682016040523d82523d6000602084013e614ee6565b606091505b5091509150614ef787838387614f02565b979650505050505050565b60608315614f71578251600003614f6a576001600160a01b0385163b614f6a5760405162461bcd60e51b815260206004820152601d60248201527f416464726573733a2063616c6c20746f206e6f6e2d636f6e74726163740000006044820152606401611031565b5081612555565b61255583838151156143185781518083602001fd5b6001600160a01b03811681146113f557600080fd5b60008060408385031215614fae57600080fd5b8235614fb981614f86565b946020939093013593505050565b6001600160e01b0319811681146113f557600080fd5b600060208284031215614fef57600080fd5b8135611cfb81614fc7565b60005b83811015615015578181015183820152602001614ffd565b50506000910152565b60008151808452615036816020860160208601614ffa565b601f01601f19169290920160200192915050565b602081526000611cfb602083018461501e565b60006020828403121561506f57600080fd5b5035919050565b803560ff8116811461508757600080fd5b919050565b60006020828403121561509e57600080fd5b611cfb82615076565b6000602082840312156150b957600080fd5b8135611cfb81614f86565b634e487b7160e01b600052604160045260246000fd5b601f8201601f191681016001600160401b03811182821017156150ff576150ff6150c4565b6040525050565b60006001600160401b0382111561511f5761511f6150c4565b5060051b60200190565b600082601f83011261513a57600080fd5b8135602061514782615106565b60405161515482826150da565b83815260059390931b850182019282810191508684111561517457600080fd5b8286015b8481101561518f5780358352918301918301615178565b509695505050505050565b60006001600160401b038311156151b3576151b36150c4565b6040516151ca601f8501601f1916602001826150da565b8091508381528484840111156151df57600080fd5b83836020830137600060208583010152509392505050565b600082601f83011261520857600080fd5b611cfb8383356020850161519a565b600080600080600060a0868803121561522f57600080fd5b853561523a81614f86565b9450602086013561524a81614f86565b935060408601356001600160401b038082111561526657600080fd5b61527289838a01615129565b9450606088013591508082111561528857600080fd5b61529489838a01615129565b935060808801359150808211156152aa57600080fd5b506152b7888289016151f7565b9150509295509295909350565b600080604083850312156152d757600080fd5b82356152e281614f86565b915060208301356152f281614f86565b809150509250929050565b6000806040838503121561531057600080fd5b82356001600160401b038082111561532757600080fd5b818501915085601f83011261533b57600080fd5b8135602061534882615106565b60405161535582826150da565b83815260059390931b850182019282810191508984111561537557600080fd5b948201945b8386101561539c57853561538d81614f86565b8252948201949082019061537a565b965050860135925050808211156153b257600080fd5b506153bf85828601615129565b9150509250929050565b600081518084526020808501945080840160005b838110156153f9578151875295820195908201906001016153dd565b509495945050505050565b602081526000611cfb60208301846153c9565b6000806040838503121561542a57600080fd5b8235915061543a60208401615076565b90509250929050565b6000806040838503121561545657600080fd5b82356001600160401b0381111561546c57600080fd5b8301601f8101851361547d57600080fd5b61548c8582356020840161519a565b95602094909401359450505050565b600080604083850312156154ae57600080fd5b6154b783615076565b915061543a60208401615076565b600080604083850312156154d857600080fd5b82356154b781614f86565b80151581146113f557600080fd5b6000806040838503121561550457600080fd5b823561550f81614f86565b915060208301356152f2816154e3565b6000806000806060858703121561553557600080fd5b843561554081614f86565b935061554e60208601615076565b925060408501356001600160401b038082111561556a57600080fd5b818701915087601f83011261557e57600080fd5b81358181111561558d57600080fd5b8860208260051b85010111156155a257600080fd5b95989497505060200194505050565b600080600080600060a086880312156155c957600080fd5b85356155d481614f86565b945060208601356155e481614f86565b9350604086013592506060860135915060808601356001600160401b0381111561560d57600080fd5b6152b7888289016151f7565b600181811c9082168061562d57607f821691505b60208210810361564d57634e487b7160e01b600052602260045260246000fd5b50919050565b600080835481600182811c91508083168061566f57607f831692505b6020808410820361568e57634e487b7160e01b86526022600452602486fd5b8180156156a257600181146156b7576156e4565b60ff19861689528415158502890196506156e4565b60008a81526020902060005b868110156156dc5781548b8201529085019083016156c3565b505084890196505b50505050505061255561570182637b69647d60e01b815260040190565b64173539b7b760d91b815260050190565b60208082526026908201527f5061796d656e7453706c69747465723a206163636f756e7420686173206e6f2060408201526573686172657360d01b606082015260800190565b6020808252602b908201527f5061796d656e7453706c69747465723a206163636f756e74206973206e6f742060408201526a191d59481c185e5b595b9d60aa1b606082015260800190565b634e487b7160e01b600052601160045260246000fd5b8082018082111561105d5761105d6157a3565b6020808252602e908201527f455243313135353a2063616c6c6572206973206e6f7420746f6b656e206f776e60408201526d195c881bdc88185c1c1c9bdd995960921b606082015260800190565b634e487b7160e01b600052603260045260246000fd5b600060018201615842576158426157a3565b5060010190565b602080825260029082015261653360f01b604082015260600190565b808202811582820484141761105d5761105d6157a3565b634e487b7160e01b600052601260045260246000fd5b6000826158a1576158a161587c565b500490565b62ffffff8181168382160190808211156158c2576158c26157a3565b5092915050565b62ffffff8281168282160390808211156158c2576158c26157a3565b600083516158f7818460208801614ffa565b600b60fa1b9083019081528351615915816001840160208801614ffa565b01600101949350505050565b602080825260029082015261194d60f21b604082015260600190565b602080825260039082015262194c4d60ea1b604082015260600190565b60208082526003908201526265313560e81b604082015260600190565b60208082526003908201526232989b60e91b604082015260600190565b6000602082840312156159a657600080fd5b5051919050565b60208082526028908201527f455243313135353a2069647320616e6420616d6f756e7473206c656e677468206040820152670dad2e6dac2e8c6d60c31b606082015260800190565b60208082526025908201527f455243313135353a207472616e7366657220746f20746865207a65726f206164604082015264647265737360d81b606082015260800190565b6020808252602a908201527f455243313135353a20696e73756666696369656e742062616c616e636520666f60408201526939103a3930b739b332b960b11b606082015260800190565b604081526000615a9760408301856153c9565b8281036020840152615aa981856153c9565b95945050505050565b8181038181111561105d5761105d6157a3565b60208082526003908201526265323160e81b604082015260600190565b60208082526003908201526265313760e81b604082015260600190565b6020808252600390820152620ca62760eb1b604082015260600190565b60ff818116838216019081111561105d5761105d6157a3565b60ff828116828216039081111561105d5761105d6157a3565b60208082526003908201526265313960e81b604082015260600190565b600082615b7a57615b7a61587c565b500690565b6001600160a01b0386811682528516602082015260a060408201819052600090615bab908301866153c9565b8281036060840152615bbd81866153c9565b90508281036080840152615bd1818561501e565b98975050505050505050565b600060208284031215615bef57600080fd5b8151611cfb81614fc7565b600060033d1115611b935760046000803e5060005160e01c90565b600060443d1015615c235790565b6040516003193d81016004833e81513d6001600160401b038160248401118184111715615c5257505050505090565b8285019150815181811115615c6a5750505050505090565b843d8701016020828501011115615c845750505050505090565b615c93602082860101876150da565b509095945050505050565b60208082526028908201527f455243313135353a204552433131353552656365697665722072656a656374656040820152676420746f6b656e7360c01b606082015260800190565b600060208284031215615cf857600080fd5b8151611cfb816154e3565b600060ff821660ff8103615d1957615d196157a3565b60010192915050565b600060ff831680615d3557615d3561587c565b8060ff84160491505092915050565b60006001600160401b03808316818103615d6057615d606157a3565b6001019392505050565b60208082526021908201527f455243313135353a206d696e7420746f20746865207a65726f206164647265736040820152607360f81b606082015260800190565b6001600160a01b03868116825285166020820152604081018490526060810183905260a060808201819052600090614ef79083018461501e565b60008251615df7818460208701614ffa565b919091019291505056fe7b7d25f8a91d07d734c2f45d6dd20e28016c3648b97f80270c65a2a565e62025a2646970667358221220c36d7f19582f4ea2f8dd23f6347c66098b68b337ea54bc39792236c3eb1515f764736f6c63430008110033",
  "linkReferences": {},
  "deployedLinkReferences": {}
}