{
  "_format": "hh-sol-artifact-1",
  "contractName": "Vipsland",
  "sourceName": "contracts/Vipsland.sol",
  "abi": [
    {
      "inputs": [
        {
          "internalType": "address[]",
          "name": "_team",
          "type": "address[]"
        },
        {
          "internalType": "uint256[]",
          "name": "_teamShares",
          "type": "uint256[]"
        },
        {
          "internalType": "string",
          "name": "_notRevealedUri",
          "type": "string"
        },
        {
          "internalType": "string",
          "name": "_revealedUri",
          "type": "string"
        },
        {
          "internalType": "bytes32",
          "name": "merklerootair",
          "type": "bytes32"
        },
        {
          "internalType": "bytes32",
          "name": "merklerootint",
          "type": "bytes32"
        }
      ],
      "stateMutability": "nonpayable",
      "type": "constructor"
    },
    {
      "anonymous": false,
      "inputs": [
        {
          "indexed": true,
          "internalType": "address",
          "name": "account",
          "type": "address"
        },
        {
          "indexed": true,
          "internalType": "address",
          "name": "operator",
          "type": "address"
        },
        {
          "indexed": false,
          "internalType": "bool",
          "name": "approved",
          "type": "bool"
        }
      ],
      "name": "ApprovalForAll",
      "type": "event"
    },
    {
      "anonymous": false,
      "inputs": [
        {
          "indexed": false,
          "internalType": "uint256",
          "name": "tokenMPID",
          "type": "uint256"
        }
      ],
      "name": "DebugMP",
      "type": "event"
    },
    {
      "anonymous": false,
      "inputs": [
        {
          "indexed": true,
          "internalType": "address",
          "name": "acc",
          "type": "address"
        },
        {
          "indexed": false,
          "internalType": "uint256",
          "name": "minted_amount",
          "type": "uint256"
        },
        {
          "indexed": false,
          "internalType": "uint256",
          "name": "last_minted_NONMPID",
          "type": "uint256"
        }
      ],
      "name": "DitributePRTs",
      "type": "event"
    },
    {
      "anonymous": false,
      "inputs": [
        {
          "indexed": true,
          "internalType": "contract IERC20",
          "name": "token",
          "type": "address"
        },
        {
          "indexed": false,
          "internalType": "address",
          "name": "to",
          "type": "address"
        },
        {
          "indexed": false,
          "internalType": "uint256",
          "name": "amount",
          "type": "uint256"
        }
      ],
      "name": "ERC20PaymentReleased",
      "type": "event"
    },
    {
      "anonymous": false,
      "inputs": [
        {
          "indexed": false,
          "internalType": "bool",
          "name": "sendMPAllDone",
          "type": "bool"
        }
      ],
      "name": "MPAllDone",
      "type": "event"
    },
    {
      "anonymous": false,
      "inputs": [
        {
          "indexed": true,
          "internalType": "address",
          "name": "previousOwner",
          "type": "address"
        },
        {
          "indexed": true,
          "internalType": "address",
          "name": "newOwner",
          "type": "address"
        }
      ],
      "name": "OwnershipTransferred",
      "type": "event"
    },
    {
      "anonymous": false,
      "inputs": [
        {
          "indexed": false,
          "internalType": "address",
          "name": "account",
          "type": "address"
        },
        {
          "indexed": false,
          "internalType": "uint256",
          "name": "shares",
          "type": "uint256"
        }
      ],
      "name": "PayeeAdded",
      "type": "event"
    },
    {
      "anonymous": false,
      "inputs": [
        {
          "indexed": false,
          "internalType": "address",
          "name": "from",
          "type": "address"
        },
        {
          "indexed": false,
          "internalType": "uint256",
          "name": "amount",
          "type": "uint256"
        }
      ],
      "name": "PaymentReceived",
      "type": "event"
    },
    {
      "anonymous": false,
      "inputs": [
        {
          "indexed": false,
          "internalType": "address",
          "name": "to",
          "type": "address"
        },
        {
          "indexed": false,
          "internalType": "uint256",
          "name": "amount",
          "type": "uint256"
        }
      ],
      "name": "PaymentReleased",
      "type": "event"
    },
    {
      "anonymous": false,
      "inputs": [
        {
          "indexed": true,
          "internalType": "address",
          "name": "acc",
          "type": "address"
        },
        {
          "indexed": false,
          "internalType": "uint256",
          "name": "qnt",
          "type": "uint256"
        }
      ],
      "name": "RemainMessageNeeds",
      "type": "event"
    },
    {
      "anonymous": false,
      "inputs": [
        {
          "indexed": false,
          "internalType": "uint256",
          "name": "_winnerTokenNONMPID",
          "type": "uint256"
        },
        {
          "indexed": false,
          "internalType": "uint256",
          "name": "max_nonmpid_minus_xrand",
          "type": "uint256"
        }
      ],
      "name": "SelectedNONMPIDTokens",
      "type": "event"
    },
    {
      "anonymous": false,
      "inputs": [
        {
          "indexed": true,
          "internalType": "address",
          "name": "operator",
          "type": "address"
        },
        {
          "indexed": true,
          "internalType": "address",
          "name": "from",
          "type": "address"
        },
        {
          "indexed": true,
          "internalType": "address",
          "name": "to",
          "type": "address"
        },
        {
          "indexed": false,
          "internalType": "uint256[]",
          "name": "ids",
          "type": "uint256[]"
        },
        {
          "indexed": false,
          "internalType": "uint256[]",
          "name": "values",
          "type": "uint256[]"
        }
      ],
      "name": "TransferBatch",
      "type": "event"
    },
    {
      "anonymous": false,
      "inputs": [
        {
          "indexed": true,
          "internalType": "address",
          "name": "operator",
          "type": "address"
        },
        {
          "indexed": true,
          "internalType": "address",
          "name": "from",
          "type": "address"
        },
        {
          "indexed": true,
          "internalType": "address",
          "name": "to",
          "type": "address"
        },
        {
          "indexed": false,
          "internalType": "uint256",
          "name": "id",
          "type": "uint256"
        },
        {
          "indexed": false,
          "internalType": "uint256",
          "name": "value",
          "type": "uint256"
        }
      ],
      "name": "TransferSingle",
      "type": "event"
    },
    {
      "anonymous": false,
      "inputs": [
        {
          "indexed": false,
          "internalType": "string",
          "name": "value",
          "type": "string"
        },
        {
          "indexed": true,
          "internalType": "uint256",
          "name": "id",
          "type": "uint256"
        }
      ],
      "name": "URI",
      "type": "event"
    },
    {
      "anonymous": false,
      "inputs": [
        {
          "indexed": true,
          "internalType": "address",
          "name": "acc",
          "type": "address"
        },
        {
          "indexed": false,
          "internalType": "uint256",
          "name": "winnerTokenPRTID",
          "type": "uint256"
        }
      ],
      "name": "WinnersMP",
      "type": "event"
    },
    {
      "inputs": [],
      "name": "EACH_RAND_SLOT_NUM_TOTAL_FOR_AIRDROP",
      "outputs": [
        {
          "internalType": "uint256",
          "name": "",
          "type": "uint256"
        }
      ],
      "stateMutability": "view",
      "type": "function"
    },
    {
      "inputs": [],
      "name": "EACH_RAND_SLOT_NUM_TOTAL_FOR_INTERNALTEAM",
      "outputs": [
        {
          "internalType": "uint256",
          "name": "",
          "type": "uint256"
        }
      ],
      "stateMutability": "view",
      "type": "function"
    },
    {
      "inputs": [],
      "name": "EACH_RAND_SLOT_NUM_TOTAL_FOR_PRT",
      "outputs": [
        {
          "internalType": "uint256",
          "name": "",
          "type": "uint256"
        }
      ],
      "stateMutability": "view",
      "type": "function"
    },
    {
      "inputs": [],
      "name": "MAX_PRT_AMOUNT_PER_ACC",
      "outputs": [
        {
          "internalType": "uint8",
          "name": "",
          "type": "uint8"
        }
      ],
      "stateMutability": "view",
      "type": "function"
    },
    {
      "inputs": [],
      "name": "MAX_PRT_AMOUNT_PER_ACC_AIRDROP",
      "outputs": [
        {
          "internalType": "uint8",
          "name": "",
          "type": "uint8"
        }
      ],
      "stateMutability": "view",
      "type": "function"
    },
    {
      "inputs": [],
      "name": "MAX_PRT_AMOUNT_PER_ACC_INTERNAL",
      "outputs": [
        {
          "internalType": "uint8",
          "name": "",
          "type": "uint8"
        }
      ],
      "stateMutability": "view",
      "type": "function"
    },
    {
      "inputs": [],
      "name": "MAX_PRT_AMOUNT_PER_ACC_PER_TRANSACTION",
      "outputs": [
        {
          "internalType": "uint8",
          "name": "",
          "type": "uint8"
        }
      ],
      "stateMutability": "view",
      "type": "function"
    },
    {
      "inputs": [],
      "name": "MAX_PRT_AMOUNT_PER_ACC_PER_TRANSACTION_AIRDROP",
      "outputs": [
        {
          "internalType": "uint8",
          "name": "",
          "type": "uint8"
        }
      ],
      "stateMutability": "view",
      "type": "function"
    },
    {
      "inputs": [],
      "name": "MAX_PRT_AMOUNT_PER_ACC_PER_TRANSACTION_INTERNAL",
      "outputs": [
        {
          "internalType": "uint8",
          "name": "",
          "type": "uint8"
        }
      ],
      "stateMutability": "view",
      "type": "function"
    },
    {
      "inputs": [],
      "name": "MAX_SUPPLY_FOR_AIRDROP_TOKEN",
      "outputs": [
        {
          "internalType": "uint256",
          "name": "",
          "type": "uint256"
        }
      ],
      "stateMutability": "view",
      "type": "function"
    },
    {
      "inputs": [],
      "name": "MAX_SUPPLY_FOR_INTERNALTEAM_TOKEN",
      "outputs": [
        {
          "internalType": "uint256",
          "name": "",
          "type": "uint256"
        }
      ],
      "stateMutability": "view",
      "type": "function"
    },
    {
      "inputs": [],
      "name": "MAX_SUPPLY_FOR_PRT_TOKEN",
      "outputs": [
        {
          "internalType": "uint256",
          "name": "",
          "type": "uint256"
        }
      ],
      "stateMutability": "view",
      "type": "function"
    },
    {
      "inputs": [],
      "name": "MAX_SUPPLY_MP",
      "outputs": [
        {
          "internalType": "uint256",
          "name": "",
          "type": "uint256"
        }
      ],
      "stateMutability": "view",
      "type": "function"
    },
    {
      "inputs": [],
      "name": "NUM_TOTAL_FOR_MP",
      "outputs": [
        {
          "internalType": "uint8",
          "name": "",
          "type": "uint8"
        }
      ],
      "stateMutability": "view",
      "type": "function"
    },
    {
      "inputs": [],
      "name": "PRICE_PRT",
      "outputs": [
        {
          "internalType": "uint256",
          "name": "",
          "type": "uint256"
        }
      ],
      "stateMutability": "view",
      "type": "function"
    },
    {
      "inputs": [],
      "name": "PRICE_PRT_AIRDROP",
      "outputs": [
        {
          "internalType": "uint256",
          "name": "",
          "type": "uint256"
        }
      ],
      "stateMutability": "view",
      "type": "function"
    },
    {
      "inputs": [],
      "name": "PRICE_PRT_INTERNALTEAM",
      "outputs": [
        {
          "internalType": "uint256",
          "name": "",
          "type": "uint256"
        }
      ],
      "stateMutability": "view",
      "type": "function"
    },
    {
      "inputs": [],
      "name": "PRTID",
      "outputs": [
        {
          "internalType": "uint256",
          "name": "",
          "type": "uint256"
        }
      ],
      "stateMutability": "view",
      "type": "function"
    },
    {
      "inputs": [],
      "name": "STARTINGIDFORAIRDROP",
      "outputs": [
        {
          "internalType": "uint256",
          "name": "",
          "type": "uint256"
        }
      ],
      "stateMutability": "view",
      "type": "function"
    },
    {
      "inputs": [],
      "name": "STARTINGIDFORINTERNALTEAM",
      "outputs": [
        {
          "internalType": "uint256",
          "name": "",
          "type": "uint256"
        }
      ],
      "stateMutability": "view",
      "type": "function"
    },
    {
      "inputs": [],
      "name": "STARTINGIDFORPRT",
      "outputs": [
        {
          "internalType": "uint256",
          "name": "",
          "type": "uint256"
        }
      ],
      "stateMutability": "view",
      "type": "function"
    },
    {
      "inputs": [],
      "name": "_counter_for_generatelucky_mp",
      "outputs": [
        {
          "internalType": "uint256",
          "name": "_value",
          "type": "uint256"
        }
      ],
      "stateMutability": "view",
      "type": "function"
    },
    {
      "inputs": [],
      "name": "_counter_for_generatelucky_mp_airdrop",
      "outputs": [
        {
          "internalType": "uint256",
          "name": "_value",
          "type": "uint256"
        }
      ],
      "stateMutability": "view",
      "type": "function"
    },
    {
      "inputs": [],
      "name": "_counter_for_generatelucky_mp_internalteam",
      "outputs": [
        {
          "internalType": "uint256",
          "name": "_value",
          "type": "uint256"
        }
      ],
      "stateMutability": "view",
      "type": "function"
    },
    {
      "inputs": [
        {
          "internalType": "address",
          "name": "account",
          "type": "address"
        },
        {
          "internalType": "uint256",
          "name": "id",
          "type": "uint256"
        }
      ],
      "name": "balanceOf",
      "outputs": [
        {
          "internalType": "uint256",
          "name": "",
          "type": "uint256"
        }
      ],
      "stateMutability": "view",
      "type": "function"
    },
    {
      "inputs": [],
      "name": "balanceOfAccount",
      "outputs": [
        {
          "internalType": "uint256",
          "name": "",
          "type": "uint256"
        }
      ],
      "stateMutability": "payable",
      "type": "function"
    },
    {
      "inputs": [
        {
          "internalType": "address[]",
          "name": "accounts",
          "type": "address[]"
        },
        {
          "internalType": "uint256[]",
          "name": "ids",
          "type": "uint256[]"
        }
      ],
      "name": "balanceOfBatch",
      "outputs": [
        {
          "internalType": "uint256[]",
          "name": "",
          "type": "uint256[]"
        }
      ],
      "stateMutability": "view",
      "type": "function"
    },
    {
      "inputs": [
        {
          "internalType": "string",
          "name": "a",
          "type": "string"
        },
        {
          "internalType": "uint256",
          "name": "b",
          "type": "uint256"
        }
      ],
      "name": "concatenate",
      "outputs": [
        {
          "internalType": "string",
          "name": "",
          "type": "string"
        }
      ],
      "stateMutability": "pure",
      "type": "function"
    },
    {
      "inputs": [],
      "name": "contractBalance",
      "outputs": [
        {
          "internalType": "uint256",
          "name": "",
          "type": "uint256"
        }
      ],
      "stateMutability": "view",
      "type": "function"
    },
    {
      "inputs": [
        {
          "internalType": "uint256",
          "name": "id",
          "type": "uint256"
        }
      ],
      "name": "exists",
      "outputs": [
        {
          "internalType": "bool",
          "name": "",
          "type": "bool"
        }
      ],
      "stateMutability": "view",
      "type": "function"
    },
    {
      "inputs": [
        {
          "internalType": "uint256",
          "name": "",
          "type": "uint256"
        }
      ],
      "name": "intArrPRTAIRDROP",
      "outputs": [
        {
          "internalType": "uint256",
          "name": "",
          "type": "uint256"
        }
      ],
      "stateMutability": "view",
      "type": "function"
    },
    {
      "inputs": [
        {
          "internalType": "address",
          "name": "account",
          "type": "address"
        },
        {
          "internalType": "address",
          "name": "operator",
          "type": "address"
        }
      ],
      "name": "isApprovedForAll",
      "outputs": [
        {
          "internalType": "bool",
          "name": "",
          "type": "bool"
        }
      ],
      "stateMutability": "view",
      "type": "function"
    },
    {
      "inputs": [],
      "name": "mintAirdropMPIsOpen",
      "outputs": [
        {
          "internalType": "bool",
          "name": "",
          "type": "bool"
        }
      ],
      "stateMutability": "view",
      "type": "function"
    },
    {
      "inputs": [
        {
          "internalType": "uint256",
          "name": "tokenID",
          "type": "uint256"
        }
      ],
      "name": "mintDebug",
      "outputs": [],
      "stateMutability": "nonpayable",
      "type": "function"
    },
    {
      "inputs": [],
      "name": "mintInternalTeamMPIsOpen",
      "outputs": [
        {
          "internalType": "bool",
          "name": "",
          "type": "bool"
        }
      ],
      "stateMutability": "view",
      "type": "function"
    },
    {
      "inputs": [],
      "name": "mintMPIsOpen",
      "outputs": [
        {
          "internalType": "bool",
          "name": "",
          "type": "bool"
        }
      ],
      "stateMutability": "view",
      "type": "function"
    },
    {
      "inputs": [
        {
          "internalType": "address",
          "name": "account",
          "type": "address"
        },
        {
          "internalType": "uint8",
          "name": "_amount_wanted_able_to_get",
          "type": "uint8"
        },
        {
          "internalType": "bytes32[]",
          "name": "_proof",
          "type": "bytes32[]"
        }
      ],
      "name": "mintNONMPForAIRDROP",
      "outputs": [],
      "stateMutability": "payable",
      "type": "function"
    },
    {
      "inputs": [
        {
          "internalType": "address",
          "name": "account",
          "type": "address"
        },
        {
          "internalType": "uint8",
          "name": "_amount_wanted_able_to_get",
          "type": "uint8"
        },
        {
          "internalType": "bytes32[]",
          "name": "_proof",
          "type": "bytes32[]"
        }
      ],
      "name": "mintNONMPForInternalTeam",
      "outputs": [],
      "stateMutability": "payable",
      "type": "function"
    },
    {
      "inputs": [
        {
          "internalType": "address",
          "name": "account",
          "type": "address"
        },
        {
          "internalType": "uint8",
          "name": "_amount_wanted_able_to_get",
          "type": "uint8"
        }
      ],
      "name": "mintNONMPForNormalUser",
      "outputs": [],
      "stateMutability": "payable",
      "type": "function"
    },
    {
      "inputs": [],
      "name": "name",
      "outputs": [
        {
          "internalType": "string",
          "name": "",
          "type": "string"
        }
      ],
      "stateMutability": "view",
      "type": "function"
    },
    {
      "inputs": [],
      "name": "numIssuedForAIRDROP",
      "outputs": [
        {
          "internalType": "uint256",
          "name": "",
          "type": "uint256"
        }
      ],
      "stateMutability": "view",
      "type": "function"
    },
    {
      "inputs": [],
      "name": "numIssuedForInternalTeamIDs",
      "outputs": [
        {
          "internalType": "uint256",
          "name": "",
          "type": "uint256"
        }
      ],
      "stateMutability": "view",
      "type": "function"
    },
    {
      "inputs": [],
      "name": "numIssuedForMP",
      "outputs": [
        {
          "internalType": "uint64",
          "name": "",
          "type": "uint64"
        }
      ],
      "stateMutability": "view",
      "type": "function"
    },
    {
      "inputs": [],
      "name": "numIssuedForNormalUser",
      "outputs": [
        {
          "internalType": "uint256",
          "name": "",
          "type": "uint256"
        }
      ],
      "stateMutability": "view",
      "type": "function"
    },
    {
      "inputs": [],
      "name": "owner",
      "outputs": [
        {
          "internalType": "address",
          "name": "",
          "type": "address"
        }
      ],
      "stateMutability": "view",
      "type": "function"
    },
    {
      "inputs": [
        {
          "internalType": "uint256",
          "name": "index",
          "type": "uint256"
        }
      ],
      "name": "payee",
      "outputs": [
        {
          "internalType": "address",
          "name": "",
          "type": "address"
        }
      ],
      "stateMutability": "view",
      "type": "function"
    },
    {
      "inputs": [],
      "name": "presalePRT",
      "outputs": [
        {
          "internalType": "uint8",
          "name": "",
          "type": "uint8"
        }
      ],
      "stateMutability": "view",
      "type": "function"
    },
    {
      "inputs": [
        {
          "internalType": "uint256",
          "name": "",
          "type": "uint256"
        }
      ],
      "name": "prtPerAddress",
      "outputs": [
        {
          "internalType": "address",
          "name": "",
          "type": "address"
        }
      ],
      "stateMutability": "view",
      "type": "function"
    },
    {
      "inputs": [],
      "name": "qntmintmpforairdrop",
      "outputs": [
        {
          "internalType": "uint256",
          "name": "",
          "type": "uint256"
        }
      ],
      "stateMutability": "view",
      "type": "function"
    },
    {
      "inputs": [],
      "name": "qntmintmpforinternalteam",
      "outputs": [
        {
          "internalType": "uint256",
          "name": "",
          "type": "uint256"
        }
      ],
      "stateMutability": "view",
      "type": "function"
    },
    {
      "inputs": [],
      "name": "qntmintmpfornormaluser",
      "outputs": [
        {
          "internalType": "uint256",
          "name": "",
          "type": "uint256"
        }
      ],
      "stateMutability": "view",
      "type": "function"
    },
    {
      "inputs": [],
      "name": "qntmintnonmpforairdrop",
      "outputs": [
        {
          "internalType": "uint256",
          "name": "",
          "type": "uint256"
        }
      ],
      "stateMutability": "view",
      "type": "function"
    },
    {
      "inputs": [],
      "name": "qntmintnonmpforinternalteam",
      "outputs": [
        {
          "internalType": "uint256",
          "name": "",
          "type": "uint256"
        }
      ],
      "stateMutability": "view",
      "type": "function"
    },
    {
      "inputs": [],
      "name": "qntmintnonmpfornormaluser",
      "outputs": [
        {
          "internalType": "uint256",
          "name": "",
          "type": "uint256"
        }
      ],
      "stateMutability": "view",
      "type": "function"
    },
    {
      "inputs": [
        {
          "internalType": "address",
          "name": "account",
          "type": "address"
        }
      ],
      "name": "releasable",
      "outputs": [
        {
          "internalType": "uint256",
          "name": "",
          "type": "uint256"
        }
      ],
      "stateMutability": "view",
      "type": "function"
    },
    {
      "inputs": [
        {
          "internalType": "contract IERC20",
          "name": "token",
          "type": "address"
        },
        {
          "internalType": "address",
          "name": "account",
          "type": "address"
        }
      ],
      "name": "releasable",
      "outputs": [
        {
          "internalType": "uint256",
          "name": "",
          "type": "uint256"
        }
      ],
      "stateMutability": "view",
      "type": "function"
    },
    {
      "inputs": [
        {
          "internalType": "address payable",
          "name": "account",
          "type": "address"
        }
      ],
      "name": "release",
      "outputs": [],
      "stateMutability": "nonpayable",
      "type": "function"
    },
    {
      "inputs": [
        {
          "internalType": "contract IERC20",
          "name": "token",
          "type": "address"
        },
        {
          "internalType": "address",
          "name": "account",
          "type": "address"
        }
      ],
      "name": "release",
      "outputs": [],
      "stateMutability": "nonpayable",
      "type": "function"
    },
    {
      "inputs": [
        {
          "internalType": "contract IERC20",
          "name": "token",
          "type": "address"
        },
        {
          "internalType": "address",
          "name": "account",
          "type": "address"
        }
      ],
      "name": "released",
      "outputs": [
        {
          "internalType": "uint256",
          "name": "",
          "type": "uint256"
        }
      ],
      "stateMutability": "view",
      "type": "function"
    },
    {
      "inputs": [
        {
          "internalType": "address",
          "name": "account",
          "type": "address"
        }
      ],
      "name": "released",
      "outputs": [
        {
          "internalType": "uint256",
          "name": "",
          "type": "uint256"
        }
      ],
      "stateMutability": "view",
      "type": "function"
    },
    {
      "inputs": [],
      "name": "renounceOwnership",
      "outputs": [],
      "stateMutability": "nonpayable",
      "type": "function"
    },
    {
      "inputs": [],
      "name": "revealed",
      "outputs": [
        {
          "internalType": "bool",
          "name": "",
          "type": "bool"
        }
      ],
      "stateMutability": "view",
      "type": "function"
    },
    {
      "inputs": [],
      "name": "rootair",
      "outputs": [
        {
          "internalType": "bytes32",
          "name": "",
          "type": "bytes32"
        }
      ],
      "stateMutability": "view",
      "type": "function"
    },
    {
      "inputs": [],
      "name": "rootint",
      "outputs": [
        {
          "internalType": "bytes32",
          "name": "",
          "type": "bytes32"
        }
      ],
      "stateMutability": "view",
      "type": "function"
    },
    {
      "inputs": [
        {
          "internalType": "address",
          "name": "from",
          "type": "address"
        },
        {
          "internalType": "address",
          "name": "to",
          "type": "address"
        },
        {
          "internalType": "uint256[]",
          "name": "ids",
          "type": "uint256[]"
        },
        {
          "internalType": "uint256[]",
          "name": "amounts",
          "type": "uint256[]"
        },
        {
          "internalType": "bytes",
          "name": "data",
          "type": "bytes"
        }
      ],
      "name": "safeBatchTransferFrom",
      "outputs": [],
      "stateMutability": "nonpayable",
      "type": "function"
    },
    {
      "inputs": [
        {
          "internalType": "uint256",
          "name": "tokenID",
          "type": "uint256"
        },
        {
          "internalType": "address",
          "name": "addr",
          "type": "address"
        }
      ],
      "name": "safeTransferDebug",
      "outputs": [],
      "stateMutability": "nonpayable",
      "type": "function"
    },
    {
      "inputs": [
        {
          "internalType": "address",
          "name": "from",
          "type": "address"
        },
        {
          "internalType": "address",
          "name": "to",
          "type": "address"
        },
        {
          "internalType": "uint256",
          "name": "id",
          "type": "uint256"
        },
        {
          "internalType": "uint256",
          "name": "amount",
          "type": "uint256"
        },
        {
          "internalType": "bytes",
          "name": "data",
          "type": "bytes"
        }
      ],
      "name": "safeTransferFrom",
      "outputs": [],
      "stateMutability": "nonpayable",
      "type": "function"
    },
    {
      "inputs": [],
      "name": "sendMPAirdrop",
      "outputs": [],
      "stateMutability": "nonpayable",
      "type": "function"
    },
    {
      "inputs": [],
      "name": "sendMPAllDoneForAirdrop",
      "outputs": [
        {
          "internalType": "bool",
          "name": "",
          "type": "bool"
        }
      ],
      "stateMutability": "view",
      "type": "function"
    },
    {
      "inputs": [],
      "name": "sendMPAllDoneForInternalTeam",
      "outputs": [
        {
          "internalType": "bool",
          "name": "",
          "type": "bool"
        }
      ],
      "stateMutability": "view",
      "type": "function"
    },
    {
      "inputs": [],
      "name": "sendMPAllDoneForNormalUsers",
      "outputs": [
        {
          "internalType": "bool",
          "name": "",
          "type": "bool"
        }
      ],
      "stateMutability": "view",
      "type": "function"
    },
    {
      "inputs": [],
      "name": "sendMPInternalTeam",
      "outputs": [],
      "stateMutability": "nonpayable",
      "type": "function"
    },
    {
      "inputs": [],
      "name": "sendMPNormalUsers",
      "outputs": [],
      "stateMutability": "nonpayable",
      "type": "function"
    },
    {
      "inputs": [
        {
          "internalType": "address",
          "name": "operator",
          "type": "address"
        },
        {
          "internalType": "bool",
          "name": "approved",
          "type": "bool"
        }
      ],
      "name": "setApprovalForAll",
      "outputs": [],
      "stateMutability": "nonpayable",
      "type": "function"
    },
    {
      "inputs": [
        {
          "internalType": "bytes32",
          "name": "merkleroot",
          "type": "bytes32"
        },
        {
          "internalType": "uint8",
          "name": "stage",
          "type": "uint8"
        }
      ],
      "name": "setMerkleRoot",
      "outputs": [],
      "stateMutability": "nonpayable",
      "type": "function"
    },
    {
      "inputs": [
        {
          "internalType": "uint256",
          "name": "price",
          "type": "uint256"
        }
      ],
      "name": "setPRICE_PRT",
      "outputs": [],
      "stateMutability": "nonpayable",
      "type": "function"
    },
    {
      "inputs": [
        {
          "internalType": "uint256",
          "name": "price",
          "type": "uint256"
        }
      ],
      "name": "setPRICE_PRT_AIRDROP",
      "outputs": [],
      "stateMutability": "nonpayable",
      "type": "function"
    },
    {
      "inputs": [
        {
          "internalType": "uint256",
          "name": "price",
          "type": "uint256"
        }
      ],
      "name": "setPRICE_PRT_INTERNALTEAM",
      "outputs": [],
      "stateMutability": "nonpayable",
      "type": "function"
    },
    {
      "inputs": [
        {
          "internalType": "uint8",
          "name": "num",
          "type": "uint8"
        }
      ],
      "name": "setPreSalePRT",
      "outputs": [],
      "stateMutability": "nonpayable",
      "type": "function"
    },
    {
      "inputs": [
        {
          "internalType": "uint8",
          "name": "amount",
          "type": "uint8"
        },
        {
          "internalType": "uint8",
          "name": "amount_per_transaction",
          "type": "uint8"
        }
      ],
      "name": "set_MAX_PRT_AMOUNT_PER_ACC_AND_TRANSACTION_INTERNAL",
      "outputs": [],
      "stateMutability": "nonpayable",
      "type": "function"
    },
    {
      "inputs": [
        {
          "internalType": "address",
          "name": "account",
          "type": "address"
        }
      ],
      "name": "shares",
      "outputs": [
        {
          "internalType": "uint256",
          "name": "",
          "type": "uint256"
        }
      ],
      "stateMutability": "view",
      "type": "function"
    },
    {
      "inputs": [
        {
          "internalType": "bytes4",
          "name": "interfaceId",
          "type": "bytes4"
        }
      ],
      "name": "supportsInterface",
      "outputs": [
        {
          "internalType": "bool",
          "name": "",
          "type": "bool"
        }
      ],
      "stateMutability": "view",
      "type": "function"
    },
    {
      "inputs": [],
      "name": "symbol",
      "outputs": [
        {
          "internalType": "string",
          "name": "",
          "type": "string"
        }
      ],
      "stateMutability": "view",
      "type": "function"
    },
    {
      "inputs": [],
      "name": "toggleMintAirdropMPIsOpen",
      "outputs": [],
      "stateMutability": "nonpayable",
      "type": "function"
    },
    {
      "inputs": [],
      "name": "toggleMintInternalTeamMPIsOpen",
      "outputs": [],
      "stateMutability": "nonpayable",
      "type": "function"
    },
    {
      "inputs": [],
      "name": "toggleMintMPIsOpen",
      "outputs": [],
      "stateMutability": "nonpayable",
      "type": "function"
    },
    {
      "inputs": [],
      "name": "toggleReveal",
      "outputs": [],
      "stateMutability": "nonpayable",
      "type": "function"
    },
    {
      "inputs": [
        {
          "internalType": "contract IERC20",
          "name": "token",
          "type": "address"
        }
      ],
      "name": "totalReleased",
      "outputs": [
        {
          "internalType": "uint256",
          "name": "",
          "type": "uint256"
        }
      ],
      "stateMutability": "view",
      "type": "function"
    },
    {
      "inputs": [],
      "name": "totalReleased",
      "outputs": [
        {
          "internalType": "uint256",
          "name": "",
          "type": "uint256"
        }
      ],
      "stateMutability": "view",
      "type": "function"
    },
    {
      "inputs": [],
      "name": "totalShares",
      "outputs": [
        {
          "internalType": "uint256",
          "name": "",
          "type": "uint256"
        }
      ],
      "stateMutability": "view",
      "type": "function"
    },
    {
      "inputs": [
        {
          "internalType": "uint256",
          "name": "id",
          "type": "uint256"
        }
      ],
      "name": "totalSupply",
      "outputs": [
        {
          "internalType": "uint256",
          "name": "",
          "type": "uint256"
        }
      ],
      "stateMutability": "view",
      "type": "function"
    },
    {
      "inputs": [
        {
          "internalType": "address",
          "name": "newOwner",
          "type": "address"
        }
      ],
      "name": "transferOwnership",
      "outputs": [],
      "stateMutability": "nonpayable",
      "type": "function"
    },
    {
      "inputs": [
        {
          "internalType": "uint256",
          "name": "",
          "type": "uint256"
        }
      ],
      "name": "uri",
      "outputs": [
        {
          "internalType": "string",
          "name": "",
          "type": "string"
        }
      ],
      "stateMutability": "view",
      "type": "function"
    },
    {
      "inputs": [
        {
          "internalType": "address",
          "name": "",
          "type": "address"
        }
      ],
      "name": "userNONMPs",
      "outputs": [
        {
          "internalType": "uint8",
          "name": "",
          "type": "uint8"
        }
      ],
      "stateMutability": "view",
      "type": "function"
    },
    {
      "inputs": [],
      "name": "withdraw",
      "outputs": [],
      "stateMutability": "payable",
      "type": "function"
    },
    {
      "inputs": [],
      "name": "xrand",
      "outputs": [
        {
          "internalType": "uint8",
          "name": "",
          "type": "uint8"
        }
      ],
      "stateMutability": "view",
      "type": "function"
    },
    {
      "stateMutability": "payable",
      "type": "receive"
    }
  ],
  "bytecode": "0x60c0604052601060809081526f564950534c414e442047454e4553495360801b60a052600d9062000031908262000801565b50604080518082019091526004815263159414d360e21b6020820152600e906200005c908262000801565b506011805460ff1990811690915560006013819055601481905560158190556016805483166012179055601a80546001600160401b0319166004179055601e805461191961ffff199091161790556701b4fbd92b5f8000601f5560208190556021819055602381905560248190556025819055602781905560288190556029819055602b805463ffffffff19169055602e819055602f81905560308190556031805462ffffff1916905560328190556033556034805490911690553480156200012457600080fd5b5060405162006b5c38038062006b5c833981016040819052620001479162000a9f565b8585856200015581620004a3565b506200016133620004b5565b8051825114620001d35760405162461bcd60e51b815260206004820152603260248201527f5061796d656e7453706c69747465723a2070617965657320616e6420736861726044820152710cae640d8cadccee8d040dad2e6dac2e8c6d60731b60648201526084015b60405180910390fd5b6000825111620002265760405162461bcd60e51b815260206004820152601a60248201527f5061796d656e7453706c69747465723a206e6f207061796565730000000000006044820152606401620001ca565b60005b825181101562000292576200027d8382815181106200024c576200024c62000b6a565b602002602001015183838151811062000269576200026962000b6a565b60200260200101516200050760201b60201c565b80620002898162000b96565b91505062000229565b50506001600c5550602c829055602d819055600f620002b2858262000801565b506010620002c1848262000801565b50620002d16064614e2062000bb2565b6001600160401b03811115620002eb57620002eb6200075c565b60405190808252806020026020018201604052801562000315578160200160208202803683370190505b5080516200032c91601b91602090910190620006f5565b506002601b60008154811062000346576200034662000b6a565b60009182526020909120015562000363612710620222e062000bb2565b6001600160401b038111156200037d576200037d6200075c565b604051908082528060200260200182016040528015620003a7578160200160208202803683370190505b508051620003be91602291602090910190620006f5565b50620003cf6103e8614e2062000bb2565b6001600160401b03811115620003e957620003e96200075c565b60405190808252806020026020018201604052801562000413578160200160208202803683370190505b5080516200042a91602691602090910190620006f5565b506200043b6104576122b862000bb2565b6001600160401b038111156200045557620004556200075c565b6040519080825280602002602001820160405280156200047f578160200160208202803683370190505b5080516200049691602a91602090910190620006f5565b5050505050505062000bf1565b6002620004b1828262000801565b5050565b600480546001600160a01b038381166001600160a01b0319831681179093556040519116919082907f8be0079c531659141344cd1fd0a4f28419497f9722a3daafe3b4186f6b6457e090600090a35050565b6001600160a01b038216620005745760405162461bcd60e51b815260206004820152602c60248201527f5061796d656e7453706c69747465723a206163636f756e74206973207468652060448201526b7a65726f206164647265737360a01b6064820152608401620001ca565b60008111620005c65760405162461bcd60e51b815260206004820152601d60248201527f5061796d656e7453706c69747465723a207368617265732061726520300000006044820152606401620001ca565b6001600160a01b03821660009081526007602052604090205415620006425760405162461bcd60e51b815260206004820152602b60248201527f5061796d656e7453706c69747465723a206163636f756e7420616c726561647960448201526a206861732073686172657360a81b6064820152608401620001ca565b60098054600181019091557f6e1540171b6c0c960b71a7020d9f60077f6af931a8bbf590da0223dacf75c7af0180546001600160a01b0319166001600160a01b0384169081179091556000908152600760205260409020819055600554620006ac90829062000bd5565b600555604080516001600160a01b0384168152602081018390527f40c340f65e17194d14ddddb073d3c9f888e3cb52b5aae0c6c7706b4fbc905fac910160405180910390a15050565b82805482825590600052602060002090810192821562000733579160200282015b828111156200073357825182559160200191906001019062000716565b506200074192915062000745565b5090565b5b8082111562000741576000815560010162000746565b634e487b7160e01b600052604160045260246000fd5b600181811c908216806200078757607f821691505b602082108103620007a857634e487b7160e01b600052602260045260246000fd5b50919050565b601f821115620007fc57600081815260208120601f850160051c81016020861015620007d75750805b601f850160051c820191505b81811015620007f857828155600101620007e3565b5050505b505050565b81516001600160401b038111156200081d576200081d6200075c565b62000835816200082e845462000772565b84620007ae565b602080601f8311600181146200086d5760008415620008545750858301515b600019600386901b1c1916600185901b178555620007f8565b600085815260208120601f198616915b828110156200089e578886015182559484019460019091019084016200087d565b5085821015620008bd5787850151600019600388901b60f8161c191681555b5050505050600190811b01905550565b604051601f8201601f191681016001600160401b0381118282101715620008f857620008f86200075c565b604052919050565b60006001600160401b038211156200091c576200091c6200075c565b5060051b60200190565b600082601f8301126200093857600080fd5b81516020620009516200094b8362000900565b620008cd565b82815260059290921b840181019181810190868411156200097157600080fd5b8286015b84811015620009a55780516001600160a01b0381168114620009975760008081fd5b835291830191830162000975565b509695505050505050565b600082601f830112620009c257600080fd5b81516020620009d56200094b8362000900565b82815260059290921b84018101918181019086841115620009f557600080fd5b8286015b84811015620009a55780518352918301918301620009f9565b600082601f83011262000a2457600080fd5b81516001600160401b0381111562000a405762000a406200075c565b602062000a56601f8301601f19168201620008cd565b828152858284870101111562000a6b57600080fd5b60005b8381101562000a8b57858101830151828201840152820162000a6e565b506000928101909101919091529392505050565b60008060008060008060c0878903121562000ab957600080fd5b86516001600160401b038082111562000ad157600080fd5b62000adf8a838b0162000926565b9750602089015191508082111562000af657600080fd5b62000b048a838b01620009b0565b9650604089015191508082111562000b1b57600080fd5b62000b298a838b0162000a12565b9550606089015191508082111562000b4057600080fd5b5062000b4f89828a0162000a12565b9350506080870151915060a087015190509295509295509295565b634e487b7160e01b600052603260045260246000fd5b634e487b7160e01b600052601160045260246000fd5b60006001820162000bab5762000bab62000b80565b5060010190565b60008262000bd057634e487b7160e01b600052601260045260246000fd5b500490565b8082018082111562000beb5762000beb62000b80565b92915050565b615f5b8062000c016000396000f3fe6080604052600436106105255760003560e01c806382a31693116102a2578063c0fd97ff11610165578063da8ab071116100cc578063e67ff55211610085578063e67ff55214610f3d578063e985e9c514610f54578063f242432a14610f9d578063f2fde38b14610fbd578063fd30116514610fdd578063fe47d7f214610ff057600080fd5b8063da8ab07114610eab578063db9a850914610ec0578063defb1d4514610ed6578063df8c6cd314610ef5578063e33b7de314610f15578063e3b96cae14610f2a57600080fd5b8063cd0b99cd1161011e578063cd0b99cd146107fc578063ce7c2ac214610de9578063cea8f9c014610e1f578063cffbd26f14610e3f578063d79779b214610e75578063d7abf1861461072057600080fd5b8063c0fd97ff14610d5c578063c45ac05014610d7c578063c6358ecd14610d9c578063c7a3b01314610dbc578063c82190c414610dd2578063c9b4f6ef1461082857600080fd5b80639daf187211610209578063b0bd6fe1116101c2578063b0bd6fe114610caa578063b1feb18d14610cc0578063b247796414610cda578063b861639414610cf9578063bca66b8514610d0f578063bd85b03914610d2f57600080fd5b80639daf187214610c145780639e26975714610c29578063a22cb46514610c40578063a3f8eace14610c60578063a57674e714610c80578063a882fea414610c9557600080fd5b80638da5cb5b1161025b5780638da5cb5b14610b9057806394a271fd14610bae57806395d89b4114610bb657806395f7d64114610bcb57806397c66270146107fc5780639852595c14610bde57600080fd5b806382a3169314610ad7578063833bc78814610aed5780638515c7ac14610b0d5780638913fbe014610b2d5780638b7afe2e14610b435780638b83209b14610b5857600080fd5b8063395dcb64116103ea5780635b8ad42911610351578063715018a61161030a578063715018a614610a3d57806375d909ef14610a525780637862ed6414610a685780637a1d48f414610a885780637d46d87014610aa85780637de1c2be14610abd57600080fd5b80635b8ad429146109a55780635de701f9146109ba5780636797fdda146109db5780636bfcf578146109fb5780636c5959e314610a105780636e27b97214610a2657600080fd5b806348b75044116103a357806348b75044146108e35780634a098124146109035780634e1273f4146109195780634f558e791461094657806351830227146109755780635308ca781461098f57600080fd5b8063395dcb641461083d5780633a98ef39146108535780633ccfd60b14610868578063406072a914610870578063438d4bc1146108b657806344c3c7b9146108cc57600080fd5b8063191655871161048e5780632d187ef7116104475780632d187ef7146107b15780632d23bf5a146107c65780632eb2c2d6146107dc5780632fcf9d4b146107fc5780632fef457914610812578063380b5f751461082857600080fd5b8063191655871461070057806319f32a501461072057806320c6974e1461074757806328b33aae146107615780632a37e4af1461077b5780632b2be7f51461079257600080fd5b8063070ccbde116104e0578063070ccbde146106445780630e89341c1461065a578063108241181461067a57806310dd92471461069c57806311e6fb63146106b25780631902aa4a146106c857600080fd5b806201d05b14610573578062fdd58e1461059c57806301553208146105bc57806301ffc9a7146105ec57806304bf41d81461060c57806306fdde031461062257600080fd5b3661056e577f6ef95f06320e7a25a04a175ca677b7052bdd97131872c2192525a629f51be77033604080516001600160a01b0390921682523460208301520160405180910390a1005b600080fd5b34801561057f57600080fd5b5061058960205481565b6040519081526020015b60405180910390f35b3480156105a857600080fd5b506105896105b736600461507a565b611020565b3480156105c857600080fd5b50602b546105dc9062010000900460ff1681565b6040519015158152602001610593565b3480156105f857600080fd5b506105dc6106073660046150bc565b6110b9565b34801561061857600080fd5b50610589614e2181565b34801561062e57600080fd5b50610637611109565b6040516105939190615129565b34801561065057600080fd5b50610589602c5481565b34801561066657600080fd5b5061063761067536600461513c565b611197565b34801561068657600080fd5b5061069a61069536600461516b565b611263565b005b3480156106a857600080fd5b5061058960145481565b3480156106be57600080fd5b5061058960135481565b3480156106d457600080fd5b50601a546106e8906001600160401b031681565b6040516001600160401b039091168152602001610593565b34801561070c57600080fd5b5061069a61071b366004615186565b6112bd565b34801561072c57600080fd5b50610735600381565b60405160ff9091168152602001610593565b34801561075357600080fd5b506016546107359060ff1681565b34801561076d57600080fd5b50601e546107359060ff1681565b34801561078757600080fd5b506018546105899081565b34801561079e57600080fd5b50601e5461073590610100900460ff1681565b3480156107bd57600080fd5b5061069a6113a4565b3480156107d257600080fd5b5061058960155481565b3480156107e857600080fd5b5061069a6107f73660046152f6565b6113cb565b34801561080857600080fd5b50610589614e2081565b34801561081e57600080fd5b5061058960215481565b34801561083457600080fd5b50610735606481565b34801561084957600080fd5b506105896103e881565b34801561085f57600080fd5b50600554610589565b61069a611417565b34801561087c57600080fd5b5061058961088b3660046153a3565b6001600160a01b039182166000908152600b6020908152604080832093909416825291909152205490565b3480156108c257600080fd5b5061058960275481565b3480156108d857600080fd5b50610589620222e081565b3480156108ef57600080fd5b5061069a6108fe3660046153a3565b61144e565b34801561090f57600080fd5b5061058960245481565b34801561092557600080fd5b506109396109343660046153dc565b61155f565b60405161059391906154e3565b34801561095257600080fd5b506105dc61096136600461513c565b600090815260036020526040902054151590565b34801561098157600080fd5b506011546105dc9060ff1681565b34801561099b57600080fd5b5061058961271081565b3480156109b157600080fd5b5061069a611688565b3480156109c657600080fd5b50602b546105dc906301000000900460ff1681565b3480156109e757600080fd5b5061069a6109f63660046154f6565b6116a4565b348015610a0757600080fd5b5061069a6116d2565b348015610a1c57600080fd5b50610589601f5481565b348015610a3257600080fd5b506017546105899081565b348015610a4957600080fd5b5061069a6116fb565b348015610a5e57600080fd5b5061058960235481565b348015610a7457600080fd5b5061069a610a8336600461513c565b61170f565b348015610a9457600080fd5b5061069a610aa336600461513c565b61171c565b348015610ab457600080fd5b5061069a611729565b348015610ac957600080fd5b50602b546107359060ff1681565b348015610ae357600080fd5b506105896122b881565b348015610af957600080fd5b50610637610b08366004615522565b611b40565b348015610b1957600080fd5b5061069a610b2836600461557a565b611b74565b348015610b3957600080fd5b5061058960295481565b348015610b4f57600080fd5b50610589611bdc565b348015610b6457600080fd5b50610b78610b7336600461513c565b611bec565b6040516001600160a01b039091168152602001610593565b348015610b9c57600080fd5b506004546001600160a01b0316610b78565b610589611c1c565b348015610bc257600080fd5b50610637611c2b565b61069a610bd93660046155a4565b611c38565b348015610bea57600080fd5b50610589610bf9366004615186565b6001600160a01b031660009081526008602052604090205490565b348015610c2057600080fd5b50610735602381565b348015610c3557600080fd5b506019546105899081565b348015610c4c57600080fd5b5061069a610c5b3660046155d0565b611d05565b348015610c6c57600080fd5b50610589610c7b366004615186565b611d10565b348015610c8c57600080fd5b5061069a611d58565b348015610ca157600080fd5b5061069a6120da565b348015610cb657600080fd5b50610589602d5481565b348015610ccc57600080fd5b506031546105dc9060ff1681565b348015610ce657600080fd5b506031546105dc90610100900460ff1681565b348015610d0557600080fd5b5061058960255481565b348015610d1b57600080fd5b5061069a610d2a3660046155fe565b6124e8565b348015610d3b57600080fd5b50610589610d4a36600461513c565b60009081526003602052604090205490565b348015610d6857600080fd5b5061069a610d7736600461513c565b61254d565b348015610d8857600080fd5b50610589610d973660046153a3565b612571565b348015610da857600080fd5b5061069a610db736600461513c565b61263c565b348015610dc857600080fd5b5061058961045781565b348015610dde57600080fd5b506105896202710181565b348015610df557600080fd5b50610589610e04366004615186565b6001600160a01b031660009081526007602052604090205490565b348015610e2b57600080fd5b506031546105dc9062010000900460ff1681565b348015610e4b57600080fd5b50610b78610e5a36600461513c565b601c602052600090815260409020546001600160a01b031681565b348015610e8157600080fd5b50610589610e90366004615186565b6001600160a01b03166000908152600a602052604090205490565b348015610eb757600080fd5b5061069a612649565b348015610ecc57600080fd5b5061058960285481565b348015610ee257600080fd5b50602b546105dc90610100900460ff1681565b348015610f0157600080fd5b50610589610f1036600461513c565b61266e565b348015610f2157600080fd5b50600654610589565b61069a610f38366004615623565b61268f565b348015610f4957600080fd5b506105896202bf2181565b348015610f6057600080fd5b506105dc610f6f3660046153a3565b6001600160a01b03918216600090815260016020908152604080832093909416825291909152205460ff1690565b348015610fa957600080fd5b5061069a610fb83660046156b5565b61281b565b348015610fc957600080fd5b5061069a610fd8366004615186565b612860565b61069a610feb366004615623565b6128d6565b348015610ffc57600080fd5b5061073561100b366004615186565b601d6020526000908152604090205460ff1681565b60006001600160a01b0383166110905760405162461bcd60e51b815260206004820152602a60248201527f455243313135353a2061646472657373207a65726f206973206e6f742061207660448201526930b634b21037bbb732b960b11b60648201526084015b60405180910390fd5b506000818152602081815260408083206001600160a01b03861684529091529020545b92915050565b60006001600160e01b03198216636cdb3d1360e11b14806110ea57506001600160e01b031982166303a24d0760e21b145b806110b357506301ffc9a760e01b6001600160e01b03198316146110b3565b600d80546111169061571d565b80601f01602080910402602001604051908101604052809291908181526020018280546111429061571d565b801561118f5780601f106111645761010080835404028352916020019161118f565b820191906000526020600020905b81548152906001019060200180831161117257829003601f168201915b505050505081565b60115460609060ff16151560000361123b57600f80546111b69061571d565b80601f01602080910402602001604051908101604052809291908181526020018280546111e29061571d565b801561122f5780601f106112045761010080835404028352916020019161122f565b820191906000526020600020905b81548152906001019060200180831161121257829003601f168201915b50505050509050919050565b601060405160200161124d9190615757565b6040516020818303038152906040529050919050565b61126b612a18565b60ff811660078111156112a65760405162461bcd60e51b815260206004820152600360248201526232991960e91b6044820152606401611087565b50602b805460ff191660ff92909216919091179055565b6001600160a01b0381166000908152600760205260409020546112f25760405162461bcd60e51b815260040161108790615816565b60006112fd82611d10565b90508060000361131f5760405162461bcd60e51b81526004016110879061585c565b806006600082825461133191906158bd565b90915550506001600160a01b038216600090815260086020526040902080548201905561135e8282612a72565b604080516001600160a01b0384168152602081018390527fdf20fd1e76bc69d672e4814fafb2c449bba3a5369d8359adf9e05e6fde87b056910160405180910390a15050565b6113ac612a18565b602b805462ff0000198116620100009182900460ff1615909102179055565b6001600160a01b0385163314806113e757506113e78533610f6f565b6114035760405162461bcd60e51b8152600401611087906158d0565b6114108585858585612b8b565b5050505050565b61141f612a18565b60405133904780156108fc02916000818181858888f1935050505015801561144b573d6000803e3d6000fd5b50565b6001600160a01b0381166000908152600760205260409020546114835760405162461bcd60e51b815260040161108790615816565b600061148f8383612571565b9050806000036114b15760405162461bcd60e51b81526004016110879061585c565b6001600160a01b0383166000908152600a6020526040812080548392906114d99084906158bd565b90915550506001600160a01b038084166000908152600b60209081526040808320938616835292905220805482019055611514838383612d35565b604080516001600160a01b038481168252602082018490528516917f3be5b7a71e84ed12875d241991c70855ac5817d847039e17a9d895c1ceb0f18a910160405180910390a2505050565b606081518351146115c45760405162461bcd60e51b815260206004820152602960248201527f455243313135353a206163636f756e747320616e6420696473206c656e677468604482015268040dad2e6dac2e8c6d60bb1b6064820152608401611087565b600083516001600160401b038111156115df576115df6151a3565b604051908082528060200260200182016040528015611608578160200160208202803683370190505b50905060005b84518110156116805761165385828151811061162c5761162c61591e565b60200260200101518583815181106116465761164661591e565b6020026020010151611020565b8282815181106116655761166561591e565b602090810291909101015261167981615934565b905061160e565b509392505050565b611690612a18565b6011805460ff19811660ff90911615179055565b6116ac612a18565b8060ff166002036116bd57602d8290555b8060ff166001036116ce57602c8290555b5050565b6116da612a18565b602b805463ff00000019811663010000009182900460ff1615909102179055565b611703612a18565b61170d6000612d87565b565b611717612a18565b602355565b611724612a18565b601f55565b3332146117485760405162461bcd60e51b81526004016110879061594d565b611750612a18565b602b546301000000900460ff1661178e5760405162461bcd60e51b8152602060048201526002602482015261329b60f11b6044820152606401611087565b60315460ff1615156001146117cb5760405162461bcd60e51b815260206004820152600360248201526232989960e91b6044820152606401611087565b603154610100900460ff16156118095760405162461bcd60e51b815260206004820152600360248201526265313360e81b6044820152606401611087565b611817601980546001019055565b600061182260195490565b90506000611831603254612dd9565b6034805460ff191660ff93909316929092179091556030549091505b611859836103e8615969565b811015611b2c57603454600090819060ff166001036119545761271061188284620293b8615969565b61188c9190615996565b60165462ffffff919091169060ff16614e206118ab87620271006159aa565b62ffffff166118ba91906158bd565b6118c59060016158bd565b6118cf91906158bd565b6118d991906158bd565b90506127106118eb84620293b8615969565b6118f69060016158bd565b6119009190615996565b60165462ffffff919091169060ff16614e2061191f87620271006159aa565b62ffffff1661192e91906158bd565b6119399060016158bd565b61194391906158bd565b61194d91906158bd565b9150611a32565b61271061196484620293b8615969565b61196e9190615996565b60165462ffffff919091169060ff16614e2061198d87620271006159cd565b62ffffff1661199c91906158bd565b6119a79060016158bd565b6119b191906158bd565b6119bb91906158bd565b90506127106119cd84620293b8615969565b6119d89060016158bd565b6119e29190615996565b60165462ffffff919091169060ff16614e20611a0187620271006159cd565b62ffffff16611a1091906158bd565b611a1b9060016158bd565b611a2591906158bd565b611a2f91906158bd565b91505b60006122b8614e20611a47620222e0826158bd565b611a5191906158bd565b611a5b91906158bd565b9050808362ffffff161180611a745750808262ffffff16115b6031805461ff0019166101009215158302179081905560405160ff929091049190911615158152600080516020615f068339815191529060200160405180910390a1603154610100900460ff1615611ace57505050611b2c565b601654601554611ae5918491849160ff1690612e8c565b60155560315460405161010090910460ff1615158152600080516020615f068339815191529060200160405180910390a15050508080611b2490615934565b91505061184d565b50611b39826103e8615969565b6030555050565b606082611b4c83612f9d565b604051602001611b5d9291906159e9565b604051602081830303815290604052905092915050565b611b7c612a18565b8160ff168160ff161115611bb85760405162461bcd60e51b815260206004820152600360248201526265323360e81b6044820152606401611087565b601e805460ff9283166101000261ffff199091169290931691909117919091179055565b6000611be6612a18565b50475b90565b600060098281548110611c0157611c0161591e565b6000918252602090912001546001600160a01b031692915050565b6000611c26612a18565b503490565b600e80546111169061571d565b81336001600160a01b03821614611c615760405162461bcd60e51b815260040161108790615a25565b333214611c805760405162461bcd60e51b81526004016110879061594d565b602b5460ff16600003611ca55760405162461bcd60e51b815260040161108790615a41565b611cad61302f565b60008260ff1611611cd05760405162461bcd60e51b815260040161108790615a5e565b33611ced5760405162461bcd60e51b815260040161108790615a7b565b611cf682613088565b611d006001600c55565b505050565b6116ce3383836135d9565b600080611d1c60065490565b611d2690476158bd565b9050611d518382611d4c866001600160a01b031660009081526008602052604090205490565b6136b9565b9392505050565b333214611d775760405162461bcd60e51b81526004016110879061594d565b611d7f612a18565b602b54610100900460ff16611dbb5760405162461bcd60e51b8152602060048201526002602482015261653560f01b6044820152606401611087565b60315460ff1615611df35760405162461bcd60e51b8152602060048201526002602482015261653960f01b6044820152606401611087565b60165460ff16601203611e1f57611e0a60116136f7565b6016805460ff191660ff929092169190911790555b611e2d601780546001019055565b6000611e3860175490565b602e549091506000905b611e4e836103e8615969565b8110156120c6576000612710611e6783620293b8615969565b611e719190615996565b60165462ffffff919091169060ff16611e8d614e2060016158bd565b611e9791906158bd565b611ea191906158bd565b90506000611eb4620222e0614e206158bd565b90506000612710611ec885620293b8615969565b611ed39060016158bd565b611edd9190615996565b60165462ffffff919091169060ff16611ef9614e2060016158bd565b611f0391906158bd565b611f0d91906158bd565b9050818162ffffff161180611f265750818362ffffff16115b6031805460ff1916911515918217905560405160ff90911615158152600080516020615f068339815191529060200160405180910390a160315460ff161561206a5762ffffff81166032819055600090611f7f90612dd9565b6034805460ff90931660ff1990931683179055915060010361200057611fab61271063bf438041615996565b60165462ffffff919091169060ff16614e20611fca84620222e06159aa565b62ffffff16611fd991906158bd565b611fe49060016158bd565b611fee91906158bd565b611ff891906158bd565b603355612061565b61201061271063bf438041615996565b60165462ffffff919091169060ff16614e2061202f84620222e06159cd565b62ffffff1661203e91906158bd565b6120499060016158bd565b61205391906158bd565b61205d91906158bd565b6033555b505050506120c6565b601654601354612081918591859160ff1690612e8c565b60135560315460405160ff90911615158152600080516020615f068339815191529060200160405180910390a1509092508190506120be81615934565b915050611e42565b506120d3826103e8615969565b602e555050565b3332146120f95760405162461bcd60e51b81526004016110879061594d565b612101612a18565b602b5462010000900460ff1661213e5760405162461bcd60e51b8152602060048201526002602482015261653760f01b6044820152606401611087565b60315460ff16151560011461217b5760405162461bcd60e51b815260206004820152600360248201526206531360ec1b6044820152606401611087565b60315462010000900460ff16156121ba5760405162461bcd60e51b815260206004820152600360248201526265313160e81b6044820152606401611087565b6121c8601880546001019055565b60006121d360185490565b905060006121e2603254612dd9565b6034805460ff191660ff9390931692909217909155602f549091505b61220a836103e8615969565b8110156124d457603454600090819060ff166001036123055761271061223384620293b8615969565b61223d9190615996565b60165462ffffff919091169060ff16614e2061225c87620222e06159aa565b62ffffff1661226b91906158bd565b6122769060016158bd565b61228091906158bd565b61228a91906158bd565b915061271061229c84620293b8615969565b6122a79060016158bd565b6122b19190615996565b60165462ffffff919091169060ff16614e206122d087620222e06159aa565b62ffffff166122df91906158bd565b6122ea9060016158bd565b6122f491906158bd565b6122fe91906158bd565b90506123e3565b61271061231584620293b8615969565b61231f9190615996565b60165462ffffff919091169060ff16614e2061233e87620222e06159cd565b62ffffff1661234d91906158bd565b6123589060016158bd565b61236291906158bd565b61236c91906158bd565b915061271061237e84620293b8615969565b6123899060016158bd565b6123939190615996565b60165462ffffff919091169060ff16614e206123b287620222e06159cd565b62ffffff166123c191906158bd565b6123cc9060016158bd565b6123d691906158bd565b6123e091906158bd565b90505b6000614e206123f5620222e0826158bd565b6123ff91906158bd565b9050808262ffffff1611806124185750808362ffffff16115b6031805462ff00001916620100009215158302179081905560405160ff929091049190911615158152600080516020615f068339815191529060200160405180910390a160315462010000900460ff1615612475575050506124d4565b60165460145461248c918591849160ff1690612e8c565b6014556031546040516201000090910460ff1615158152600080516020615f068339815191529060200160405180910390a150505080806124cc90615934565b9150506121fe565b506124e1826103e8615969565b602f555050565b6124f0612a18565b6000828152600360205260409020546125305760405162461bcd60e51b8152602060048201526002602482015261329960f11b6044820152606401611087565b6116ce33828460016040518060200160405280600081525061281b565b612555612a18565b61144b3382600160405180602001604052806000815250613710565b6001600160a01b0382166000908152600a602052604081205481906040516370a0823160e01b81523060048201526001600160a01b038616906370a0823190602401602060405180830381865afa1580156125d0573d6000803e3d6000fd5b505050506040513d601f19601f820116820180604052508101906125f49190615a98565b6125fe91906158bd565b6001600160a01b038086166000908152600b602090815260408083209388168352929052205490915061263490849083906136b9565b949350505050565b612644612a18565b602755565b612651612a18565b602b805461ff001981166101009182900460ff1615909102179055565b602a818154811061267e57600080fd5b600091825260209091200154905081565b83336001600160a01b038216146126b85760405162461bcd60e51b815260040161108790615a25565b3332146126d75760405162461bcd60e51b81526004016110879061594d565b602b5460ff166000036126fc5760405162461bcd60e51b815260040161108790615a41565b61270461302f565b8282600261278e83838080602002602001604051908101604052809392919081815260200183836020028082843760009201919091525050505060ff831660011461275157602d54612755565b602c545b6040516bffffffffffffffffffffffff193360601b166020820152603401604051602081830303815290604052805190602001206137f9565b15156001146127c55760405162461bcd60e51b8152602060048201526003602482015262194c8d60ea1b6044820152606401611087565b60008760ff16116127e85760405162461bcd60e51b815260040161108790615a5e565b336128055760405162461bcd60e51b815260040161108790615a7b565b61280e8761380f565b5050506114106001600c55565b6001600160a01b03851633148061283757506128378533610f6f565b6128535760405162461bcd60e51b8152600401611087906158d0565b6114108585858585613d1a565b612868612a18565b6001600160a01b0381166128cd5760405162461bcd60e51b815260206004820152602660248201527f4f776e61626c653a206e6577206f776e657220697320746865207a65726f206160448201526564647265737360d01b6064820152608401611087565b61144b81612d87565b83336001600160a01b038216146128ff5760405162461bcd60e51b815260040161108790615a25565b33321461291e5760405162461bcd60e51b81526004016110879061594d565b602b5460ff166000036129435760405162461bcd60e51b815260040161108790615a41565b61294b61302f565b8282600161299883838080602002602001604051908101604052809392919081815260200183836020028082843760009201919091525050505060ff831660011461275157602d54612755565b15156001146129cf5760405162461bcd60e51b8152602060048201526003602482015262194c8d60ea1b6044820152606401611087565b60008760ff16116129f25760405162461bcd60e51b815260040161108790615a5e565b33612a0f5760405162461bcd60e51b815260040161108790615a7b565b61280e87613e47565b6004546001600160a01b0316331461170d5760405162461bcd60e51b815260206004820181905260248201527f4f776e61626c653a2063616c6c6572206973206e6f7420746865206f776e65726044820152606401611087565b80471015612ac25760405162461bcd60e51b815260206004820152601d60248201527f416464726573733a20696e73756666696369656e742062616c616e63650000006044820152606401611087565b6000826001600160a01b03168260405160006040518083038185875af1925050503d8060008114612b0f576040519150601f19603f3d011682016040523d82523d6000602084013e612b14565b606091505b5050905080611d005760405162461bcd60e51b815260206004820152603a60248201527f416464726573733a20756e61626c6520746f2073656e642076616c75652c207260448201527f6563697069656e74206d617920686176652072657665727465640000000000006064820152608401611087565b8151835114612bac5760405162461bcd60e51b815260040161108790615ab1565b6001600160a01b038416612bd25760405162461bcd60e51b815260040161108790615af9565b33612be18187878787876142b4565b60005b8451811015612cc7576000858281518110612c0157612c0161591e565b602002602001015190506000858381518110612c1f57612c1f61591e565b602090810291909101810151600084815280835260408082206001600160a01b038e168352909352919091205490915081811015612c6f5760405162461bcd60e51b815260040161108790615b3e565b6000838152602081815260408083206001600160a01b038e8116855292528083208585039055908b16825281208054849290612cac9084906158bd565b9250508190555050505080612cc090615934565b9050612be4565b50846001600160a01b0316866001600160a01b0316826001600160a01b03167f4a39dc06d4c0dbc64b70af90fd698a233a518aa5d07e595d983b8c0526c8f7fb8787604051612d17929190615b88565b60405180910390a4612d2d81878787878761442d565b505050505050565b604080516001600160a01b038416602482015260448082018490528251808303909101815260649091019091526020810180516001600160e01b031663a9059cbb60e01b179052611d00908490614588565b600480546001600160a01b038381166001600160a01b0319831681179093556040519116919082907f8be0079c531659141344cd1fd0a4f28419497f9722a3daafe3b4186f6b6457e090600090a35050565b601654600090819060ff16612df3614e20620222e06158bd565b612dfe9060016158bd565b612e0891906158bd565b62ffffff168310612e535760165460019060ff16612e2b614e20620222e06158bd565b612e369060016158bd565b612e4091906158bd565b612e4a90856159cd565b91509150915091565b601654600090849060ff16612e6d614e20620222e06158bd565b612e789060016158bd565b612e8291906158bd565b612e4a91906159cd565b60007f447b8744ce19b4ec182a865f10546affad5cb63bee7fbf1f4733554d3644a8d085612ebd60ff861687615bb6565b6040805162ffffff909316835260208301919091520160405180910390a16000612eeb8662ffffff1661465a565b90506001600160a01b03811615612f93576000612f066146bf565b9050612f243382600160405180602001604052806000815250613710565b612f4133838360016040518060200160405280600081525061281b565b612f4c6001856158bd565b9350816001600160a01b03167ffbc825a9dbec6ba579c678650f97fd1adaab5d895472fb72d1be4a0982ed8c1982604051612f8991815260200190565b60405180910390a2505b5090949350505050565b60606000612faa836149b3565b60010190506000816001600160401b03811115612fc957612fc96151a3565b6040519080825280601f01601f191660200182016040528015612ff3576020820181803683370190505b5090508181016020015b600019016f181899199a1a9b1b9c1cb0b131b232b360811b600a86061a8153600a8504945084612ffd57509392505050565b6002600c54036130815760405162461bcd60e51b815260206004820152601f60248201527f5265656e7472616e637947756172643a207265656e7472616e742063616c6c006044820152606401611087565b6002600c55565b602b546000906004908116146130b05760405162461bcd60e51b815260040161108790615bc9565b336000908152601d6020526040902054606460ff90911611156130e55760405162461bcd60e51b815260040161108790615be6565b602360ff831611156131095760405162461bcd60e51b815260040161108790615c03565b336000908152601d602052604090205460649061312a90849060ff16615c20565b60ff16111561315857336000908152601d60205260409020546131519060ff166064615c39565b9150600190505b6000806000806131c586614e21602154620222e061271060228054806020026020016040519081016040528092919081815260200182805480156131bb57602002820191906000526020600020905b8154815260200190600101908083116131a7575b5050505050614a8b565b93509350935093508560ff168360ff16146131df57600194505b601f54600560ff8516108015906131fa5750600a8460ff1611155b15613221576005601f5460046132109190615969565b61321a9190615996565b905061324b565b600a8460ff16111561324b576005601f54600361323e9190615969565b6132489190615996565b90505b3461325960ff861683615969565b8110156132785760405162461bcd60e51b815260040161108790615c52565b6004546001600160a01b03166108fc61329460ff881685615969565b6040518115909202916000818181858888f193505050501580156132bc573d6000803e3d6000fd5b5060008560ff166001600160401b038111156132da576132da6151a3565b604051908082528060200260200182016040528015613303578160200160208202803683370190505b50905060008660ff166001600160401b03811115613323576133236151a3565b60405190808252806020026020018201604052801561334c578160200160208202803683370190505b50905060005b8760ff168110156133b657613367818a6158bd565b8382815181106133795761337961591e565b60200260200101818152505060018282815181106133995761339961591e565b6020908102919091010152806133ae81615934565b915050613352565b506133d233838360405180602001604052806000815250614c26565b60005b8760ff168110156134445733601c60008584815181106133f7576133f761591e565b6020026020010151815260200190815260200160002060006101000a8154816001600160a01b0302191690836001600160a01b03160217905550808061343c90615934565b9150506133d5565b508151336000908152601d6020526040902054613464919060ff166158bd565b336000908152601d60205260409020805460ff191660ff92831617905560218790556022805489831692881690811061349f5761349f61591e565b90600052602060002001546134b491906158bd565b60228660ff16815481106134ca576134ca61591e565b90600052602060002001819055508660ff16602060008282546134ed91906158bd565b9091555050602054620222e01161350e57602b805461ff0019166101001790555b336000818152601d60205260409020547fdf6bd66365a8c4ede51660159bba6757ea60b0815714ebd8534054d929f3337f9060ff168461354f60018c615c39565b60ff16815181106135625761356261591e565b602002602001015160405161358692919060ff929092168252602082015260400190565b60405180910390a288156135cd5760405160ff8816815233907faf3c443bb05b163e7d42de9f4b11bdbfa307cad571a1ae5013e5e2ee92e66ed29060200160405180910390a25b50505050505050505050565b816001600160a01b0316836001600160a01b03160361364c5760405162461bcd60e51b815260206004820152602960248201527f455243313135353a2073657474696e6720617070726f76616c20737461747573604482015268103337b91039b2b63360b91b6064820152608401611087565b6001600160a01b03838116600081815260016020908152604080832094871680845294825291829020805460ff191686151590811790915591519182527f17307eab39ab6107e8899845ad3d59bd9653f200f220920489ca2b5937696c31910160405180910390a3505050565b6005546001600160a01b038416600090815260076020526040812054909183916136e39086615969565b6136ed9190615996565b6126349190615bb6565b600081613705600143615bb6565b6110b3919040615c6f565b6001600160a01b0384166137365760405162461bcd60e51b815260040161108790615c83565b33600061374285614d80565b9050600061374f85614d80565b9050613760836000898585896142b4565b6000868152602081815260408083206001600160a01b038b168452909152812080548792906137909084906158bd565b909155505060408051878152602081018790526001600160a01b03808a1692600092918716917fc3d58168c5ae7397731d063d5bbf3d657854427343f4c083240f7aacaa2d0f62910160405180910390a46137f083600089898989614dcb565b50505050505050565b6000826138068584614e86565b14949350505050565b602b546000906002908116146138375760405162461bcd60e51b815260040161108790615bc9565b601e54336000908152601d602052604090205460ff9182169116111561386f5760405162461bcd60e51b815260040161108790615be6565b601e5460ff6101009091048116908316111561389d5760405162461bcd60e51b815260040161108790615c03565b601e54336000908152601d602052604090205460ff918216916138c291859116615c20565b60ff1611156138f557336000908152601d6020526040902054601e546138ee9160ff9081169116615c39565b9150600190505b6000806000806139608662027101602554614e206103e860268054806020026020016040519081016040528092919081815260200182805480156131bb57602002820191906000526020600020908154815260200190600101908083116131a7575050505050614a8b565b93509350935093508560ff168360ff161461397a57600194505b602354349061398d9060ff861690615969565b8110156139ac5760405162461bcd60e51b815260040161108790615c52565b6004546001600160a01b03166001600160a01b03166108fc8560ff166023546139d59190615969565b6040518115909202916000818181858888f193505050501580156139fd573d6000803e3d6000fd5b5060008460ff166001600160401b03811115613a1b57613a1b6151a3565b604051908082528060200260200182016040528015613a44578160200160208202803683370190505b50905060008560ff166001600160401b03811115613a6457613a646151a3565b604051908082528060200260200182016040528015613a8d578160200160208202803683370190505b50905060005b8660ff16811015613af757613aa881896158bd565b838281518110613aba57613aba61591e565b6020026020010181815250506001828281518110613ada57613ada61591e565b602090810291909101015280613aef81615934565b915050613a93565b50613b1333838360405180602001604052806000815250614c26565b60005b8660ff16811015613b855733601c6000858481518110613b3857613b3861591e565b6020026020010151815260200190815260200160002060006101000a8154816001600160a01b0302191690836001600160a01b031602179055508080613b7d90615934565b915050613b16565b508151336000908152601d6020526040902054613ba5919060ff166158bd565b336000908152601d60205260409020805460ff191660ff928316179055602586905560268054888316928716908110613be057613be061591e565b9060005260206000200154613bf591906158bd565b60268560ff1681548110613c0b57613c0b61591e565b90600052602060002001819055508560ff1660246000828254613c2e91906158bd565b9091555050602454614e2011613c5057602b805462ff00001916620100001790555b336000818152601d60205260409020547fdf6bd66365a8c4ede51660159bba6757ea60b0815714ebd8534054d929f3337f9060ff1684613c9160018b615c39565b60ff1681518110613ca457613ca461591e565b6020026020010151604051613cc892919060ff929092168252602082015260400190565b60405180910390a28715613d0f5760405160ff8716815233907faf3c443bb05b163e7d42de9f4b11bdbfa307cad571a1ae5013e5e2ee92e66ed29060200160405180910390a25b505050505050505050565b6001600160a01b038416613d405760405162461bcd60e51b815260040161108790615af9565b336000613d4c85614d80565b90506000613d5985614d80565b9050613d698389898585896142b4565b6000868152602081815260408083206001600160a01b038c16845290915290205485811015613daa5760405162461bcd60e51b815260040161108790615b3e565b6000878152602081815260408083206001600160a01b038d8116855292528083208985039055908a16825281208054889290613de79084906158bd565b909155505060408051888152602081018890526001600160a01b03808b16928c821692918816917fc3d58168c5ae7397731d063d5bbf3d657854427343f4c083240f7aacaa2d0f62910160405180910390a4613d0f848a8a8a8a8a614dcb565b602b54600090600190811614613e6f5760405162461bcd60e51b815260040161108790615bc9565b336000908152601d6020526040902054600360ff9091161115613ea45760405162461bcd60e51b815260040161108790615be6565b600360ff83161115613ec85760405162461bcd60e51b815260040161108790615c03565b336000908152601d6020526040902054600390613ee990849060ff16615c20565b60ff161115613f1757336000908152601d6020526040902054613f109060ff166003615c39565b9150600190505b600080600080613f82866202bf216029546122b8610457602a8054806020026020016040519081016040528092919081815260200182805480156131bb57602002820191906000526020600020908154815260200190600101908083116131a7575050505050614a8b565b93509350935093508560ff168360ff1614613f9c57600194505b6027543490613faf9060ff861690615969565b811015613fce5760405162461bcd60e51b815260040161108790615c52565b6004546001600160a01b03166001600160a01b03166108fc8560ff16602754613ff79190615969565b6040518115909202916000818181858888f1935050505015801561401f573d6000803e3d6000fd5b5060008460ff166001600160401b0381111561403d5761403d6151a3565b604051908082528060200260200182016040528015614066578160200160208202803683370190505b50905060008560ff166001600160401b03811115614086576140866151a3565b6040519080825280602002602001820160405280156140af578160200160208202803683370190505b50905060005b8660ff16811015614119576140ca81896158bd565b8382815181106140dc576140dc61591e565b60200260200101818152505060018282815181106140fc576140fc61591e565b60209081029190910101528061411181615934565b9150506140b5565b5061413533838360405180602001604052806000815250614c26565b60005b8660ff168110156141a75733601c600085848151811061415a5761415a61591e565b6020026020010151815260200190815260200160002060006101000a8154816001600160a01b0302191690836001600160a01b03160217905550808061419f90615934565b915050614138565b508151336000908152601d60205260409020546141c7919060ff166158bd565b336000908152601d60205260409020805460ff191660ff9283161790556029869055602a80548883169287169081106142025761420261591e565b906000526020600020015461421791906158bd565b602a8560ff168154811061422d5761422d61591e565b90600052602060002001819055508560ff166028600082825461425091906158bd565b90915550506028546122b811613c5057602b805463ff00000019166301000000179055336000818152601d60205260409020547fdf6bd66365a8c4ede51660159bba6757ea60b0815714ebd8534054d929f3337f9060ff1684613c9160018b615c39565b6001600160a01b03851661433b5760005b8351811015614339578281815181106142e0576142e061591e565b6020026020010151600360008684815181106142fe576142fe61591e565b60200260200101518152602001908152602001600020600082825461432391906158bd565b90915550614332905081615934565b90506142c5565b505b6001600160a01b038416612d2d5760005b83518110156137f05760008482815181106143695761436961591e565b6020026020010151905060008483815181106143875761438761591e565b602002602001015190506000600360008481526020019081526020016000205490508181101561440a5760405162461bcd60e51b815260206004820152602860248201527f455243313135353a206275726e20616d6f756e74206578636565647320746f74604482015267616c537570706c7960c01b6064820152608401611087565b6000928352600360205260409092209103905561442681615934565b905061434c565b6001600160a01b0384163b15612d2d5760405163bc197c8160e01b81526001600160a01b0385169063bc197c81906144719089908990889088908890600401615cc4565b6020604051808303816000875af19250505080156144ac575060408051601f3d908101601f191682019092526144a991810190615d22565b60015b614558576144b8615d3f565b806308c379a0036144f157506144cc615d5a565b806144d757506144f3565b8060405162461bcd60e51b81526004016110879190615129565b505b60405162461bcd60e51b815260206004820152603460248201527f455243313135353a207472616e7366657220746f206e6f6e2d455243313135356044820152732932b1b2b4bb32b91034b6b83632b6b2b73a32b960611b6064820152608401611087565b6001600160e01b0319811663bc197c8160e01b146137f05760405162461bcd60e51b815260040161108790615de3565b60006145dd826040518060400160405280602081526020017f5361666545524332303a206c6f772d6c6576656c2063616c6c206661696c6564815250856001600160a01b0316614ecb9092919063ffffffff16565b805190915015611d0057808060200190518101906145fb9190615e2b565b611d005760405162461bcd60e51b815260206004820152602a60248201527f5361666545524332303a204552433230206f7065726174696f6e20646964206e6044820152691bdd081cdd58d8d9595960b21b6064820152608401611087565b6000818152600360205260408120541515801561469657506000828152601c6020526040812054614694906001600160a01b031684611020565b115b156146b757506000908152601c60205260409020546001600160a01b031690565b506000919050565b601a54600090614e206001600160401b03909116106147055760405162461bcd60e51b81526020600482015260026024820152610ca760f31b6044820152606401611087565b601b54600090614714906136f7565b905060005b601b5460ff90811690821610156147a957601b5461473990614e20615996565b601b8360ff168154811061474f5761474f61591e565b90600052602060002001540361479257601b5461476e90600190615bb6565b8260ff16036147805760009150614797565b8161478a81615e48565b925050614797565b6147a9565b806147a181615e48565b915050614719565b60006147b760026064615e67565b60ff16601b8460ff16815481106147d0576147d061591e565b90600052602060002001541015614838576147ef606460ff8516615969565b601b8460ff16815481106148055761480561591e565b9060005260206000200154600161481c91906158bd565b614827906002615969565b61483191906158bd565b9050614936565b60ff8316158015614876575061485060026064615e67565b60ff16601b8460ff16815481106148695761486961591e565b9060005260206000200154145b156148cb57601b8360ff16815481106148915761489161591e565b906000526020600020015460026148a891906158bd565b601b8460ff16815481106148be576148be61591e565b6000918252602090912001555b6148d9606460ff8516615969565b6148e560026064615e67565b60ff16601b8560ff16815481106148fe576148fe61591e565b90600052602060002001546149139190615bb6565b61491e906002615969565b6149299060016158bd565b61493391906158bd565b90505b6001601b8460ff168154811061494e5761494e61591e565b90600052602060002001600082825461496791906158bd565b9091555050601a80546001600160401b031690600061498583615e89565b91906101000a8154816001600160401b0302191690836001600160401b031602179055505080935050505090565b60008072184f03e93ff9f4daa797ed6e38ed64bf6a1f0160401b83106149f25772184f03e93ff9f4daa797ed6e38ed64bf6a1f0160401b830492506040015b6d04ee2d6d415b85acef81000000008310614a1e576d04ee2d6d415b85acef8100000000830492506020015b662386f26fc100008310614a3c57662386f26fc10000830492506010015b6305f5e1008310614a54576305f5e100830492506008015b6127108310614a6857612710830492506004015b60648310614a7a576064830492506002015b600a83106110b35760010192915050565b600080600080868810614ac65760405162461bcd60e51b815260206004820152600360248201526206532360ec1b6044820152606401611087565b6000614ada614ad5888a615996565b6136f7565b905060005b614ae9888a615996565b8160ff1614614b665787878360ff1681518110614b0857614b0861591e565b602002602001015103614b4f576001614b21898b615996565b614b2b9190615bb6565b8260ff1603614b3d5760009150614b54565b81614b4781615e48565b925050614b54565b614b66565b80614b5e81615e48565b915050614adf565b6000614b758960ff8516615969565b888460ff1681518110614b8a57614b8a61591e565b6020026020010151614b9c91906158bd565b9050888d60ff16898560ff1681518110614bb857614bb861591e565b6020026020010151614bca91906158bd565b1115614bfb57878360ff1681518110614be557614be561591e565b602002602001015189614bf89190615bb6565b9c505b614c088b60ff8f166158bd565b9a50614c148c826158bd565b9d9a9b50919998505050505050505050565b6001600160a01b038416614c4c5760405162461bcd60e51b815260040161108790615c83565b8151835114614c6d5760405162461bcd60e51b815260040161108790615ab1565b33614c7d816000878787876142b4565b60005b8451811015614d1857838181518110614c9b57614c9b61591e565b6020026020010151600080878481518110614cb857614cb861591e565b602002602001015181526020019081526020016000206000886001600160a01b03166001600160a01b031681526020019081526020016000206000828254614d0091906158bd565b90915550819050614d1081615934565b915050614c80565b50846001600160a01b031660006001600160a01b0316826001600160a01b03167f4a39dc06d4c0dbc64b70af90fd698a233a518aa5d07e595d983b8c0526c8f7fb8787604051614d69929190615b88565b60405180910390a46114108160008787878761442d565b60408051600180825281830190925260609160009190602080830190803683370190505090508281600081518110614dba57614dba61591e565b602090810291909101015292915050565b6001600160a01b0384163b15612d2d5760405163f23a6e6160e01b81526001600160a01b0385169063f23a6e6190614e0f9089908990889088908890600401615eaf565b6020604051808303816000875af1925050508015614e4a575060408051601f3d908101601f19168201909252614e4791810190615d22565b60015b614e56576144b8615d3f565b6001600160e01b0319811663f23a6e6160e01b146137f05760405162461bcd60e51b815260040161108790615de3565b600081815b845181101561168057614eb782868381518110614eaa57614eaa61591e565b6020026020010151614eda565b915080614ec381615934565b915050614e8b565b60606126348484600085614f06565b6000818310614ef6576000828152602084905260409020611d51565b5060009182526020526040902090565b606082471015614f675760405162461bcd60e51b815260206004820152602660248201527f416464726573733a20696e73756666696369656e742062616c616e636520666f6044820152651c8818d85b1b60d21b6064820152608401611087565b600080866001600160a01b03168587604051614f839190615ee9565b60006040518083038185875af1925050503d8060008114614fc0576040519150601f19603f3d011682016040523d82523d6000602084013e614fc5565b606091505b5091509150614fd687838387614fe1565b979650505050505050565b60608315615050578251600003615049576001600160a01b0385163b6150495760405162461bcd60e51b815260206004820152601d60248201527f416464726573733a2063616c6c20746f206e6f6e2d636f6e74726163740000006044820152606401611087565b5081612634565b61263483838151156144d75781518083602001fd5b6001600160a01b038116811461144b57600080fd5b6000806040838503121561508d57600080fd5b823561509881615065565b946020939093013593505050565b6001600160e01b03198116811461144b57600080fd5b6000602082840312156150ce57600080fd5b8135611d51816150a6565b60005b838110156150f45781810151838201526020016150dc565b50506000910152565b600081518084526151158160208601602086016150d9565b601f01601f19169290920160200192915050565b602081526000611d5160208301846150fd565b60006020828403121561514e57600080fd5b5035919050565b803560ff8116811461516657600080fd5b919050565b60006020828403121561517d57600080fd5b611d5182615155565b60006020828403121561519857600080fd5b8135611d5181615065565b634e487b7160e01b600052604160045260246000fd5b601f8201601f191681016001600160401b03811182821017156151de576151de6151a3565b6040525050565b60006001600160401b038211156151fe576151fe6151a3565b5060051b60200190565b600082601f83011261521957600080fd5b81356020615226826151e5565b60405161523382826151b9565b83815260059390931b850182019282810191508684111561525357600080fd5b8286015b8481101561526e5780358352918301918301615257565b509695505050505050565b60006001600160401b03831115615292576152926151a3565b6040516152a9601f8501601f1916602001826151b9565b8091508381528484840111156152be57600080fd5b83836020830137600060208583010152509392505050565b600082601f8301126152e757600080fd5b611d5183833560208501615279565b600080600080600060a0868803121561530e57600080fd5b853561531981615065565b9450602086013561532981615065565b935060408601356001600160401b038082111561534557600080fd5b61535189838a01615208565b9450606088013591508082111561536757600080fd5b61537389838a01615208565b9350608088013591508082111561538957600080fd5b50615396888289016152d6565b9150509295509295909350565b600080604083850312156153b657600080fd5b82356153c181615065565b915060208301356153d181615065565b809150509250929050565b600080604083850312156153ef57600080fd5b82356001600160401b038082111561540657600080fd5b818501915085601f83011261541a57600080fd5b81356020615427826151e5565b60405161543482826151b9565b83815260059390931b850182019282810191508984111561545457600080fd5b948201945b8386101561547b57853561546c81615065565b82529482019490820190615459565b9650508601359250508082111561549157600080fd5b5061549e85828601615208565b9150509250929050565b600081518084526020808501945080840160005b838110156154d8578151875295820195908201906001016154bc565b509495945050505050565b602081526000611d5160208301846154a8565b6000806040838503121561550957600080fd5b8235915061551960208401615155565b90509250929050565b6000806040838503121561553557600080fd5b82356001600160401b0381111561554b57600080fd5b8301601f8101851361555c57600080fd5b61556b85823560208401615279565b95602094909401359450505050565b6000806040838503121561558d57600080fd5b61559683615155565b915061551960208401615155565b600080604083850312156155b757600080fd5b823561559681615065565b801515811461144b57600080fd5b600080604083850312156155e357600080fd5b82356155ee81615065565b915060208301356153d1816155c2565b6000806040838503121561561157600080fd5b8235915060208301356153d181615065565b6000806000806060858703121561563957600080fd5b843561564481615065565b935061565260208601615155565b925060408501356001600160401b038082111561566e57600080fd5b818701915087601f83011261568257600080fd5b81358181111561569157600080fd5b8860208260051b85010111156156a657600080fd5b95989497505060200194505050565b600080600080600060a086880312156156cd57600080fd5b85356156d881615065565b945060208601356156e881615065565b9350604086013592506060860135915060808601356001600160401b0381111561571157600080fd5b615396888289016152d6565b600181811c9082168061573157607f821691505b60208210810361575157634e487b7160e01b600052602260045260246000fd5b50919050565b600080835481600182811c91508083168061577357607f831692505b6020808410820361579257634e487b7160e01b86526022600452602486fd5b8180156157a657600181146157bb576157e8565b60ff19861689528415158502890196506157e8565b60008a81526020902060005b868110156157e05781548b8201529085019083016157c7565b505084890196505b50505050505061263461580582637b69647d60e01b815260040190565b64173539b7b760d91b815260050190565b60208082526026908201527f5061796d656e7453706c69747465723a206163636f756e7420686173206e6f2060408201526573686172657360d01b606082015260800190565b6020808252602b908201527f5061796d656e7453706c69747465723a206163636f756e74206973206e6f742060408201526a191d59481c185e5b595b9d60aa1b606082015260800190565b634e487b7160e01b600052601160045260246000fd5b808201808211156110b3576110b36158a7565b6020808252602e908201527f455243313135353a2063616c6c6572206973206e6f7420746f6b656e206f776e60408201526d195c881bdc88185c1c1c9bdd995960921b606082015260800190565b634e487b7160e01b600052603260045260246000fd5b600060018201615946576159466158a7565b5060010190565b602080825260029082015261653360f01b604082015260600190565b80820281158282048414176110b3576110b36158a7565b634e487b7160e01b600052601260045260246000fd5b6000826159a5576159a5615980565b500490565b62ffffff8181168382160190808211156159c6576159c66158a7565b5092915050565b62ffffff8281168282160390808211156159c6576159c66158a7565b600083516159fb8184602088016150d9565b600b60fa1b9083019081528351615a198160018401602088016150d9565b01600101949350505050565b602080825260029082015261194d60f21b604082015260600190565b602080825260039082015262194c4d60ea1b604082015260600190565b60208082526003908201526265313560e81b604082015260600190565b60208082526003908201526232989b60e91b604082015260600190565b600060208284031215615aaa57600080fd5b5051919050565b60208082526028908201527f455243313135353a2069647320616e6420616d6f756e7473206c656e677468206040820152670dad2e6dac2e8c6d60c31b606082015260800190565b60208082526025908201527f455243313135353a207472616e7366657220746f20746865207a65726f206164604082015264647265737360d81b606082015260800190565b6020808252602a908201527f455243313135353a20696e73756666696369656e742062616c616e636520666f60408201526939103a3930b739b332b960b11b606082015260800190565b604081526000615b9b60408301856154a8565b8281036020840152615bad81856154a8565b95945050505050565b818103818111156110b3576110b36158a7565b60208082526003908201526265323160e81b604082015260600190565b60208082526003908201526265313760e81b604082015260600190565b6020808252600390820152620ca62760eb1b604082015260600190565b60ff81811683821601908111156110b3576110b36158a7565b60ff82811682821603908111156110b3576110b36158a7565b60208082526003908201526265313960e81b604082015260600190565b600082615c7e57615c7e615980565b500690565b60208082526021908201527f455243313135353a206d696e7420746f20746865207a65726f206164647265736040820152607360f81b606082015260800190565b6001600160a01b0386811682528516602082015260a060408201819052600090615cf0908301866154a8565b8281036060840152615d0281866154a8565b90508281036080840152615d1681856150fd565b98975050505050505050565b600060208284031215615d3457600080fd5b8151611d51816150a6565b600060033d1115611be95760046000803e5060005160e01c90565b600060443d1015615d685790565b6040516003193d81016004833e81513d6001600160401b038160248401118184111715615d9757505050505090565b8285019150815181811115615daf5750505050505090565b843d8701016020828501011115615dc95750505050505090565b615dd8602082860101876151b9565b509095945050505050565b60208082526028908201527f455243313135353a204552433131353552656365697665722072656a656374656040820152676420746f6b656e7360c01b606082015260800190565b600060208284031215615e3d57600080fd5b8151611d51816155c2565b600060ff821660ff8103615e5e57615e5e6158a7565b60010192915050565b600060ff831680615e7a57615e7a615980565b8060ff84160491505092915050565b60006001600160401b03808316818103615ea557615ea56158a7565b6001019392505050565b6001600160a01b03868116825285166020820152604081018490526060810183905260a060808201819052600090614fd6908301846150fd565b60008251615efb8184602087016150d9565b919091019291505056fe7b7d25f8a91d07d734c2f45d6dd20e28016c3648b97f80270c65a2a565e62025a2646970667358221220572b97a840c15e54dd9d0e3c40371514c3d58a012b20aaef6b1c4facc1c419c664736f6c63430008110033",
  "linkReferences": {},
  "deployedLinkReferences": {}
}