{
  "_format": "hh-sol-artifact-1",
  "contractName": "Vipsland",
  "sourceName": "contracts/Vipsland.sol",
  "abi": [
    {
      "inputs": [
        {
          "internalType": "address[]",
          "name": "_team",
          "type": "address[]"
        },
        {
          "internalType": "uint256[]",
          "name": "_teamShares",
          "type": "uint256[]"
        },
        {
          "internalType": "string",
          "name": "_notRevealedUri",
          "type": "string"
        },
        {
          "internalType": "string",
          "name": "_revealedUri",
          "type": "string"
        },
        {
          "internalType": "bytes32",
          "name": "merklerootair",
          "type": "bytes32"
        },
        {
          "internalType": "bytes32",
          "name": "merklerootint",
          "type": "bytes32"
        }
      ],
      "stateMutability": "nonpayable",
      "type": "constructor"
    },
    {
      "anonymous": false,
      "inputs": [
        {
          "indexed": true,
          "internalType": "address",
          "name": "account",
          "type": "address"
        },
        {
          "indexed": true,
          "internalType": "address",
          "name": "operator",
          "type": "address"
        },
        {
          "indexed": false,
          "internalType": "bool",
          "name": "approved",
          "type": "bool"
        }
      ],
      "name": "ApprovalForAll",
      "type": "event"
    },
    {
      "anonymous": false,
      "inputs": [
        {
          "indexed": false,
          "internalType": "uint256",
          "name": "tokenMPID",
          "type": "uint256"
        }
      ],
      "name": "DebugMP",
      "type": "event"
    },
    {
      "anonymous": false,
      "inputs": [
        {
          "indexed": true,
          "internalType": "address",
          "name": "acc",
          "type": "address"
        },
        {
          "indexed": false,
          "internalType": "uint256",
          "name": "minted_amount",
          "type": "uint256"
        },
        {
          "indexed": false,
          "internalType": "uint256",
          "name": "last_minted_NONMPID",
          "type": "uint256"
        }
      ],
      "name": "DitributePRTs",
      "type": "event"
    },
    {
      "anonymous": false,
      "inputs": [
        {
          "indexed": true,
          "internalType": "contract IERC20",
          "name": "token",
          "type": "address"
        },
        {
          "indexed": false,
          "internalType": "address",
          "name": "to",
          "type": "address"
        },
        {
          "indexed": false,
          "internalType": "uint256",
          "name": "amount",
          "type": "uint256"
        }
      ],
      "name": "ERC20PaymentReleased",
      "type": "event"
    },
    {
      "anonymous": false,
      "inputs": [
        {
          "indexed": false,
          "internalType": "bool",
          "name": "sendMPAllDone",
          "type": "bool"
        }
      ],
      "name": "MPAllDone",
      "type": "event"
    },
    {
      "anonymous": false,
      "inputs": [
        {
          "indexed": true,
          "internalType": "address",
          "name": "previousOwner",
          "type": "address"
        },
        {
          "indexed": true,
          "internalType": "address",
          "name": "newOwner",
          "type": "address"
        }
      ],
      "name": "OwnershipTransferred",
      "type": "event"
    },
    {
      "anonymous": false,
      "inputs": [
        {
          "indexed": false,
          "internalType": "address",
          "name": "account",
          "type": "address"
        },
        {
          "indexed": false,
          "internalType": "uint256",
          "name": "shares",
          "type": "uint256"
        }
      ],
      "name": "PayeeAdded",
      "type": "event"
    },
    {
      "anonymous": false,
      "inputs": [
        {
          "indexed": false,
          "internalType": "address",
          "name": "from",
          "type": "address"
        },
        {
          "indexed": false,
          "internalType": "uint256",
          "name": "amount",
          "type": "uint256"
        }
      ],
      "name": "PaymentReceived",
      "type": "event"
    },
    {
      "anonymous": false,
      "inputs": [
        {
          "indexed": false,
          "internalType": "address",
          "name": "to",
          "type": "address"
        },
        {
          "indexed": false,
          "internalType": "uint256",
          "name": "amount",
          "type": "uint256"
        }
      ],
      "name": "PaymentReleased",
      "type": "event"
    },
    {
      "anonymous": false,
      "inputs": [
        {
          "indexed": true,
          "internalType": "address",
          "name": "acc",
          "type": "address"
        },
        {
          "indexed": false,
          "internalType": "uint256",
          "name": "qnt",
          "type": "uint256"
        }
      ],
      "name": "RemainMessageNeeds",
      "type": "event"
    },
    {
      "anonymous": false,
      "inputs": [
        {
          "indexed": false,
          "internalType": "uint256",
          "name": "_winnerTokenNONMPID",
          "type": "uint256"
        },
        {
          "indexed": false,
          "internalType": "uint256",
          "name": "max_nonmpid_minus_xrand",
          "type": "uint256"
        }
      ],
      "name": "SelectedNONMPIDTokens",
      "type": "event"
    },
    {
      "anonymous": false,
      "inputs": [
        {
          "indexed": true,
          "internalType": "address",
          "name": "operator",
          "type": "address"
        },
        {
          "indexed": true,
          "internalType": "address",
          "name": "from",
          "type": "address"
        },
        {
          "indexed": true,
          "internalType": "address",
          "name": "to",
          "type": "address"
        },
        {
          "indexed": false,
          "internalType": "uint256[]",
          "name": "ids",
          "type": "uint256[]"
        },
        {
          "indexed": false,
          "internalType": "uint256[]",
          "name": "values",
          "type": "uint256[]"
        }
      ],
      "name": "TransferBatch",
      "type": "event"
    },
    {
      "anonymous": false,
      "inputs": [
        {
          "indexed": true,
          "internalType": "address",
          "name": "operator",
          "type": "address"
        },
        {
          "indexed": true,
          "internalType": "address",
          "name": "from",
          "type": "address"
        },
        {
          "indexed": true,
          "internalType": "address",
          "name": "to",
          "type": "address"
        },
        {
          "indexed": false,
          "internalType": "uint256",
          "name": "id",
          "type": "uint256"
        },
        {
          "indexed": false,
          "internalType": "uint256",
          "name": "value",
          "type": "uint256"
        }
      ],
      "name": "TransferSingle",
      "type": "event"
    },
    {
      "anonymous": false,
      "inputs": [
        {
          "indexed": false,
          "internalType": "string",
          "name": "value",
          "type": "string"
        },
        {
          "indexed": true,
          "internalType": "uint256",
          "name": "id",
          "type": "uint256"
        }
      ],
      "name": "URI",
      "type": "event"
    },
    {
      "anonymous": false,
      "inputs": [
        {
          "indexed": true,
          "internalType": "address",
          "name": "acc",
          "type": "address"
        },
        {
          "indexed": false,
          "internalType": "uint256",
          "name": "winnerTokenPRTID",
          "type": "uint256"
        }
      ],
      "name": "WinnersMP",
      "type": "event"
    },
    {
      "inputs": [],
      "name": "EACH_RAND_SLOT_NUM_TOTAL_FOR_AIRDROP",
      "outputs": [
        {
          "internalType": "uint256",
          "name": "",
          "type": "uint256"
        }
      ],
      "stateMutability": "view",
      "type": "function"
    },
    {
      "inputs": [],
      "name": "EACH_RAND_SLOT_NUM_TOTAL_FOR_INTERNALTEAM",
      "outputs": [
        {
          "internalType": "uint256",
          "name": "",
          "type": "uint256"
        }
      ],
      "stateMutability": "view",
      "type": "function"
    },
    {
      "inputs": [],
      "name": "EACH_RAND_SLOT_NUM_TOTAL_FOR_PRT",
      "outputs": [
        {
          "internalType": "uint256",
          "name": "",
          "type": "uint256"
        }
      ],
      "stateMutability": "view",
      "type": "function"
    },
    {
      "inputs": [],
      "name": "MAX_PRT_AMOUNT_PER_ACC",
      "outputs": [
        {
          "internalType": "uint8",
          "name": "",
          "type": "uint8"
        }
      ],
      "stateMutability": "view",
      "type": "function"
    },
    {
      "inputs": [],
      "name": "MAX_PRT_AMOUNT_PER_ACC_AIRDROP",
      "outputs": [
        {
          "internalType": "uint8",
          "name": "",
          "type": "uint8"
        }
      ],
      "stateMutability": "view",
      "type": "function"
    },
    {
      "inputs": [],
      "name": "MAX_PRT_AMOUNT_PER_ACC_INTERNAL",
      "outputs": [
        {
          "internalType": "uint8",
          "name": "",
          "type": "uint8"
        }
      ],
      "stateMutability": "view",
      "type": "function"
    },
    {
      "inputs": [],
      "name": "MAX_PRT_AMOUNT_PER_ACC_PER_TRANSACTION",
      "outputs": [
        {
          "internalType": "uint8",
          "name": "",
          "type": "uint8"
        }
      ],
      "stateMutability": "view",
      "type": "function"
    },
    {
      "inputs": [],
      "name": "MAX_PRT_AMOUNT_PER_ACC_PER_TRANSACTION_AIRDROP",
      "outputs": [
        {
          "internalType": "uint8",
          "name": "",
          "type": "uint8"
        }
      ],
      "stateMutability": "view",
      "type": "function"
    },
    {
      "inputs": [],
      "name": "MAX_PRT_AMOUNT_PER_ACC_PER_TRANSACTION_INTERNAL",
      "outputs": [
        {
          "internalType": "uint8",
          "name": "",
          "type": "uint8"
        }
      ],
      "stateMutability": "view",
      "type": "function"
    },
    {
      "inputs": [],
      "name": "MAX_SUPPLY_FOR_AIRDROP_TOKEN",
      "outputs": [
        {
          "internalType": "uint256",
          "name": "",
          "type": "uint256"
        }
      ],
      "stateMutability": "view",
      "type": "function"
    },
    {
      "inputs": [],
      "name": "MAX_SUPPLY_FOR_INTERNALTEAM_TOKEN",
      "outputs": [
        {
          "internalType": "uint256",
          "name": "",
          "type": "uint256"
        }
      ],
      "stateMutability": "view",
      "type": "function"
    },
    {
      "inputs": [],
      "name": "MAX_SUPPLY_FOR_PRT_TOKEN",
      "outputs": [
        {
          "internalType": "uint256",
          "name": "",
          "type": "uint256"
        }
      ],
      "stateMutability": "view",
      "type": "function"
    },
    {
      "inputs": [],
      "name": "MAX_SUPPLY_MP",
      "outputs": [
        {
          "internalType": "uint256",
          "name": "",
          "type": "uint256"
        }
      ],
      "stateMutability": "view",
      "type": "function"
    },
    {
      "inputs": [],
      "name": "NUM_TOTAL_FOR_MP",
      "outputs": [
        {
          "internalType": "uint8",
          "name": "",
          "type": "uint8"
        }
      ],
      "stateMutability": "view",
      "type": "function"
    },
    {
      "inputs": [],
      "name": "PRICE_PRT",
      "outputs": [
        {
          "internalType": "uint256",
          "name": "",
          "type": "uint256"
        }
      ],
      "stateMutability": "view",
      "type": "function"
    },
    {
      "inputs": [],
      "name": "PRICE_PRT_AIRDROP",
      "outputs": [
        {
          "internalType": "uint256",
          "name": "",
          "type": "uint256"
        }
      ],
      "stateMutability": "view",
      "type": "function"
    },
    {
      "inputs": [],
      "name": "PRICE_PRT_INTERNALTEAM",
      "outputs": [
        {
          "internalType": "uint256",
          "name": "",
          "type": "uint256"
        }
      ],
      "stateMutability": "view",
      "type": "function"
    },
    {
      "inputs": [],
      "name": "PRTID",
      "outputs": [
        {
          "internalType": "uint256",
          "name": "",
          "type": "uint256"
        }
      ],
      "stateMutability": "view",
      "type": "function"
    },
    {
      "inputs": [],
      "name": "STARTINGIDFORAIRDROP",
      "outputs": [
        {
          "internalType": "uint256",
          "name": "",
          "type": "uint256"
        }
      ],
      "stateMutability": "view",
      "type": "function"
    },
    {
      "inputs": [],
      "name": "STARTINGIDFORINTERNALTEAM",
      "outputs": [
        {
          "internalType": "uint256",
          "name": "",
          "type": "uint256"
        }
      ],
      "stateMutability": "view",
      "type": "function"
    },
    {
      "inputs": [],
      "name": "STARTINGIDFORPRT",
      "outputs": [
        {
          "internalType": "uint256",
          "name": "",
          "type": "uint256"
        }
      ],
      "stateMutability": "view",
      "type": "function"
    },
    {
      "inputs": [],
      "name": "_counter_for_generatelucky_mp",
      "outputs": [
        {
          "internalType": "uint256",
          "name": "_value",
          "type": "uint256"
        }
      ],
      "stateMutability": "view",
      "type": "function"
    },
    {
      "inputs": [],
      "name": "_counter_for_generatelucky_mp_airdrop",
      "outputs": [
        {
          "internalType": "uint256",
          "name": "_value",
          "type": "uint256"
        }
      ],
      "stateMutability": "view",
      "type": "function"
    },
    {
      "inputs": [],
      "name": "_counter_for_generatelucky_mp_internalteam",
      "outputs": [
        {
          "internalType": "uint256",
          "name": "_value",
          "type": "uint256"
        }
      ],
      "stateMutability": "view",
      "type": "function"
    },
    {
      "inputs": [
        {
          "internalType": "address",
          "name": "account",
          "type": "address"
        },
        {
          "internalType": "uint256",
          "name": "id",
          "type": "uint256"
        }
      ],
      "name": "balanceOf",
      "outputs": [
        {
          "internalType": "uint256",
          "name": "",
          "type": "uint256"
        }
      ],
      "stateMutability": "view",
      "type": "function"
    },
    {
      "inputs": [],
      "name": "balanceOfAccount",
      "outputs": [
        {
          "internalType": "uint256",
          "name": "",
          "type": "uint256"
        }
      ],
      "stateMutability": "payable",
      "type": "function"
    },
    {
      "inputs": [
        {
          "internalType": "address[]",
          "name": "accounts",
          "type": "address[]"
        },
        {
          "internalType": "uint256[]",
          "name": "ids",
          "type": "uint256[]"
        }
      ],
      "name": "balanceOfBatch",
      "outputs": [
        {
          "internalType": "uint256[]",
          "name": "",
          "type": "uint256[]"
        }
      ],
      "stateMutability": "view",
      "type": "function"
    },
    {
      "inputs": [
        {
          "internalType": "string",
          "name": "a",
          "type": "string"
        },
        {
          "internalType": "uint256",
          "name": "b",
          "type": "uint256"
        }
      ],
      "name": "concatenate",
      "outputs": [
        {
          "internalType": "string",
          "name": "",
          "type": "string"
        }
      ],
      "stateMutability": "pure",
      "type": "function"
    },
    {
      "inputs": [],
      "name": "contractBalance",
      "outputs": [
        {
          "internalType": "uint256",
          "name": "",
          "type": "uint256"
        }
      ],
      "stateMutability": "view",
      "type": "function"
    },
    {
      "inputs": [
        {
          "internalType": "uint256",
          "name": "id",
          "type": "uint256"
        }
      ],
      "name": "exists",
      "outputs": [
        {
          "internalType": "bool",
          "name": "",
          "type": "bool"
        }
      ],
      "stateMutability": "view",
      "type": "function"
    },
    {
      "inputs": [
        {
          "internalType": "uint256",
          "name": "",
          "type": "uint256"
        }
      ],
      "name": "intArrPRTAIRDROP",
      "outputs": [
        {
          "internalType": "uint256",
          "name": "",
          "type": "uint256"
        }
      ],
      "stateMutability": "view",
      "type": "function"
    },
    {
      "inputs": [
        {
          "internalType": "address",
          "name": "account",
          "type": "address"
        },
        {
          "internalType": "address",
          "name": "operator",
          "type": "address"
        }
      ],
      "name": "isApprovedForAll",
      "outputs": [
        {
          "internalType": "bool",
          "name": "",
          "type": "bool"
        }
      ],
      "stateMutability": "view",
      "type": "function"
    },
    {
      "inputs": [],
      "name": "mintAirdropMPIsOpen",
      "outputs": [
        {
          "internalType": "bool",
          "name": "",
          "type": "bool"
        }
      ],
      "stateMutability": "view",
      "type": "function"
    },
    {
      "inputs": [
        {
          "internalType": "uint256",
          "name": "tokenID",
          "type": "uint256"
        }
      ],
      "name": "mintDebug",
      "outputs": [],
      "stateMutability": "nonpayable",
      "type": "function"
    },
    {
      "inputs": [],
      "name": "mintInternalTeamMPIsOpen",
      "outputs": [
        {
          "internalType": "bool",
          "name": "",
          "type": "bool"
        }
      ],
      "stateMutability": "view",
      "type": "function"
    },
    {
      "inputs": [],
      "name": "mintMPIsOpen",
      "outputs": [
        {
          "internalType": "bool",
          "name": "",
          "type": "bool"
        }
      ],
      "stateMutability": "view",
      "type": "function"
    },
    {
      "inputs": [
        {
          "internalType": "address",
          "name": "account",
          "type": "address"
        },
        {
          "internalType": "uint8",
          "name": "_amount_wanted_able_to_get",
          "type": "uint8"
        },
        {
          "internalType": "uint8",
          "name": "stage",
          "type": "uint8"
        },
        {
          "internalType": "bytes32[]",
          "name": "_proof",
          "type": "bytes32[]"
        }
      ],
      "name": "mintNONMPForAIRDROP",
      "outputs": [],
      "stateMutability": "payable",
      "type": "function"
    },
    {
      "inputs": [
        {
          "internalType": "address",
          "name": "account",
          "type": "address"
        },
        {
          "internalType": "uint8",
          "name": "_amount_wanted_able_to_get",
          "type": "uint8"
        },
        {
          "internalType": "uint8",
          "name": "stage",
          "type": "uint8"
        },
        {
          "internalType": "bytes32[]",
          "name": "_proof",
          "type": "bytes32[]"
        }
      ],
      "name": "mintNONMPForInternalTeam",
      "outputs": [],
      "stateMutability": "payable",
      "type": "function"
    },
    {
      "inputs": [
        {
          "internalType": "address",
          "name": "account",
          "type": "address"
        },
        {
          "internalType": "uint8",
          "name": "_amount_wanted_able_to_get",
          "type": "uint8"
        },
        {
          "internalType": "uint8",
          "name": "stage",
          "type": "uint8"
        }
      ],
      "name": "mintNONMPForNormalUser",
      "outputs": [],
      "stateMutability": "payable",
      "type": "function"
    },
    {
      "inputs": [],
      "name": "name",
      "outputs": [
        {
          "internalType": "string",
          "name": "",
          "type": "string"
        }
      ],
      "stateMutability": "view",
      "type": "function"
    },
    {
      "inputs": [],
      "name": "numIssuedForAIRDROP",
      "outputs": [
        {
          "internalType": "uint256",
          "name": "",
          "type": "uint256"
        }
      ],
      "stateMutability": "view",
      "type": "function"
    },
    {
      "inputs": [],
      "name": "numIssuedForInternalTeamIDs",
      "outputs": [
        {
          "internalType": "uint256",
          "name": "",
          "type": "uint256"
        }
      ],
      "stateMutability": "view",
      "type": "function"
    },
    {
      "inputs": [],
      "name": "numIssuedForMP",
      "outputs": [
        {
          "internalType": "uint64",
          "name": "",
          "type": "uint64"
        }
      ],
      "stateMutability": "view",
      "type": "function"
    },
    {
      "inputs": [],
      "name": "numIssuedForNormalUser",
      "outputs": [
        {
          "internalType": "uint256",
          "name": "",
          "type": "uint256"
        }
      ],
      "stateMutability": "view",
      "type": "function"
    },
    {
      "inputs": [],
      "name": "owner",
      "outputs": [
        {
          "internalType": "address",
          "name": "",
          "type": "address"
        }
      ],
      "stateMutability": "view",
      "type": "function"
    },
    {
      "inputs": [
        {
          "internalType": "uint256",
          "name": "index",
          "type": "uint256"
        }
      ],
      "name": "payee",
      "outputs": [
        {
          "internalType": "address",
          "name": "",
          "type": "address"
        }
      ],
      "stateMutability": "view",
      "type": "function"
    },
    {
      "inputs": [],
      "name": "presalePRT",
      "outputs": [
        {
          "internalType": "uint8",
          "name": "",
          "type": "uint8"
        }
      ],
      "stateMutability": "view",
      "type": "function"
    },
    {
      "inputs": [
        {
          "internalType": "uint256",
          "name": "",
          "type": "uint256"
        }
      ],
      "name": "prtPerAddress",
      "outputs": [
        {
          "internalType": "address",
          "name": "",
          "type": "address"
        }
      ],
      "stateMutability": "view",
      "type": "function"
    },
    {
      "inputs": [],
      "name": "qntmintmpforairdrop",
      "outputs": [
        {
          "internalType": "uint256",
          "name": "",
          "type": "uint256"
        }
      ],
      "stateMutability": "view",
      "type": "function"
    },
    {
      "inputs": [],
      "name": "qntmintmpforinternalteam",
      "outputs": [
        {
          "internalType": "uint256",
          "name": "",
          "type": "uint256"
        }
      ],
      "stateMutability": "view",
      "type": "function"
    },
    {
      "inputs": [],
      "name": "qntmintmpfornormaluser",
      "outputs": [
        {
          "internalType": "uint256",
          "name": "",
          "type": "uint256"
        }
      ],
      "stateMutability": "view",
      "type": "function"
    },
    {
      "inputs": [],
      "name": "qntmintnonmpforairdrop",
      "outputs": [
        {
          "internalType": "uint256",
          "name": "",
          "type": "uint256"
        }
      ],
      "stateMutability": "view",
      "type": "function"
    },
    {
      "inputs": [],
      "name": "qntmintnonmpforinternalteam",
      "outputs": [
        {
          "internalType": "uint256",
          "name": "",
          "type": "uint256"
        }
      ],
      "stateMutability": "view",
      "type": "function"
    },
    {
      "inputs": [],
      "name": "qntmintnonmpfornormaluser",
      "outputs": [
        {
          "internalType": "uint256",
          "name": "",
          "type": "uint256"
        }
      ],
      "stateMutability": "view",
      "type": "function"
    },
    {
      "inputs": [
        {
          "internalType": "address",
          "name": "account",
          "type": "address"
        }
      ],
      "name": "releasable",
      "outputs": [
        {
          "internalType": "uint256",
          "name": "",
          "type": "uint256"
        }
      ],
      "stateMutability": "view",
      "type": "function"
    },
    {
      "inputs": [
        {
          "internalType": "contract IERC20",
          "name": "token",
          "type": "address"
        },
        {
          "internalType": "address",
          "name": "account",
          "type": "address"
        }
      ],
      "name": "releasable",
      "outputs": [
        {
          "internalType": "uint256",
          "name": "",
          "type": "uint256"
        }
      ],
      "stateMutability": "view",
      "type": "function"
    },
    {
      "inputs": [
        {
          "internalType": "address payable",
          "name": "account",
          "type": "address"
        }
      ],
      "name": "release",
      "outputs": [],
      "stateMutability": "nonpayable",
      "type": "function"
    },
    {
      "inputs": [
        {
          "internalType": "contract IERC20",
          "name": "token",
          "type": "address"
        },
        {
          "internalType": "address",
          "name": "account",
          "type": "address"
        }
      ],
      "name": "release",
      "outputs": [],
      "stateMutability": "nonpayable",
      "type": "function"
    },
    {
      "inputs": [
        {
          "internalType": "contract IERC20",
          "name": "token",
          "type": "address"
        },
        {
          "internalType": "address",
          "name": "account",
          "type": "address"
        }
      ],
      "name": "released",
      "outputs": [
        {
          "internalType": "uint256",
          "name": "",
          "type": "uint256"
        }
      ],
      "stateMutability": "view",
      "type": "function"
    },
    {
      "inputs": [
        {
          "internalType": "address",
          "name": "account",
          "type": "address"
        }
      ],
      "name": "released",
      "outputs": [
        {
          "internalType": "uint256",
          "name": "",
          "type": "uint256"
        }
      ],
      "stateMutability": "view",
      "type": "function"
    },
    {
      "inputs": [],
      "name": "renounceOwnership",
      "outputs": [],
      "stateMutability": "nonpayable",
      "type": "function"
    },
    {
      "inputs": [],
      "name": "revealed",
      "outputs": [
        {
          "internalType": "bool",
          "name": "",
          "type": "bool"
        }
      ],
      "stateMutability": "view",
      "type": "function"
    },
    {
      "inputs": [],
      "name": "rootair",
      "outputs": [
        {
          "internalType": "bytes32",
          "name": "",
          "type": "bytes32"
        }
      ],
      "stateMutability": "view",
      "type": "function"
    },
    {
      "inputs": [],
      "name": "rootint",
      "outputs": [
        {
          "internalType": "bytes32",
          "name": "",
          "type": "bytes32"
        }
      ],
      "stateMutability": "view",
      "type": "function"
    },
    {
      "inputs": [
        {
          "internalType": "address",
          "name": "from",
          "type": "address"
        },
        {
          "internalType": "address",
          "name": "to",
          "type": "address"
        },
        {
          "internalType": "uint256[]",
          "name": "ids",
          "type": "uint256[]"
        },
        {
          "internalType": "uint256[]",
          "name": "amounts",
          "type": "uint256[]"
        },
        {
          "internalType": "bytes",
          "name": "data",
          "type": "bytes"
        }
      ],
      "name": "safeBatchTransferFrom",
      "outputs": [],
      "stateMutability": "nonpayable",
      "type": "function"
    },
    {
      "inputs": [
        {
          "internalType": "uint256",
          "name": "tokenID",
          "type": "uint256"
        },
        {
          "internalType": "address",
          "name": "addr",
          "type": "address"
        }
      ],
      "name": "safeTransferDebug",
      "outputs": [],
      "stateMutability": "nonpayable",
      "type": "function"
    },
    {
      "inputs": [
        {
          "internalType": "address",
          "name": "from",
          "type": "address"
        },
        {
          "internalType": "address",
          "name": "to",
          "type": "address"
        },
        {
          "internalType": "uint256",
          "name": "id",
          "type": "uint256"
        },
        {
          "internalType": "uint256",
          "name": "amount",
          "type": "uint256"
        },
        {
          "internalType": "bytes",
          "name": "data",
          "type": "bytes"
        }
      ],
      "name": "safeTransferFrom",
      "outputs": [],
      "stateMutability": "nonpayable",
      "type": "function"
    },
    {
      "inputs": [],
      "name": "sendMPAirdrop",
      "outputs": [],
      "stateMutability": "nonpayable",
      "type": "function"
    },
    {
      "inputs": [],
      "name": "sendMPAllDoneForAirdrop",
      "outputs": [
        {
          "internalType": "bool",
          "name": "",
          "type": "bool"
        }
      ],
      "stateMutability": "view",
      "type": "function"
    },
    {
      "inputs": [],
      "name": "sendMPAllDoneForInternalTeam",
      "outputs": [
        {
          "internalType": "bool",
          "name": "",
          "type": "bool"
        }
      ],
      "stateMutability": "view",
      "type": "function"
    },
    {
      "inputs": [],
      "name": "sendMPAllDoneForNormalUsers",
      "outputs": [
        {
          "internalType": "bool",
          "name": "",
          "type": "bool"
        }
      ],
      "stateMutability": "view",
      "type": "function"
    },
    {
      "inputs": [],
      "name": "sendMPInternalTeam",
      "outputs": [],
      "stateMutability": "nonpayable",
      "type": "function"
    },
    {
      "inputs": [],
      "name": "sendMPNormalUsers",
      "outputs": [],
      "stateMutability": "nonpayable",
      "type": "function"
    },
    {
      "inputs": [
        {
          "internalType": "address",
          "name": "operator",
          "type": "address"
        },
        {
          "internalType": "bool",
          "name": "approved",
          "type": "bool"
        }
      ],
      "name": "setApprovalForAll",
      "outputs": [],
      "stateMutability": "nonpayable",
      "type": "function"
    },
    {
      "inputs": [
        {
          "internalType": "bytes32",
          "name": "merkleroot",
          "type": "bytes32"
        },
        {
          "internalType": "uint8",
          "name": "stage",
          "type": "uint8"
        }
      ],
      "name": "setMerkleRoot",
      "outputs": [],
      "stateMutability": "nonpayable",
      "type": "function"
    },
    {
      "inputs": [
        {
          "internalType": "uint256",
          "name": "price",
          "type": "uint256"
        }
      ],
      "name": "setPRICE_PRT",
      "outputs": [],
      "stateMutability": "nonpayable",
      "type": "function"
    },
    {
      "inputs": [
        {
          "internalType": "uint256",
          "name": "price",
          "type": "uint256"
        }
      ],
      "name": "setPRICE_PRT_AIRDROP",
      "outputs": [],
      "stateMutability": "nonpayable",
      "type": "function"
    },
    {
      "inputs": [
        {
          "internalType": "uint256",
          "name": "price",
          "type": "uint256"
        }
      ],
      "name": "setPRICE_PRT_INTERNALTEAM",
      "outputs": [],
      "stateMutability": "nonpayable",
      "type": "function"
    },
    {
      "inputs": [
        {
          "internalType": "uint8",
          "name": "num",
          "type": "uint8"
        }
      ],
      "name": "setPreSalePRT",
      "outputs": [],
      "stateMutability": "nonpayable",
      "type": "function"
    },
    {
      "inputs": [
        {
          "internalType": "uint8",
          "name": "amount",
          "type": "uint8"
        },
        {
          "internalType": "uint8",
          "name": "amount_per_transaction",
          "type": "uint8"
        }
      ],
      "name": "set_MAX_PRT_AMOUNT_PER_ACC_AND_TRANSACTION_INTERNAL",
      "outputs": [],
      "stateMutability": "nonpayable",
      "type": "function"
    },
    {
      "inputs": [
        {
          "internalType": "address",
          "name": "account",
          "type": "address"
        }
      ],
      "name": "shares",
      "outputs": [
        {
          "internalType": "uint256",
          "name": "",
          "type": "uint256"
        }
      ],
      "stateMutability": "view",
      "type": "function"
    },
    {
      "inputs": [
        {
          "internalType": "bytes4",
          "name": "interfaceId",
          "type": "bytes4"
        }
      ],
      "name": "supportsInterface",
      "outputs": [
        {
          "internalType": "bool",
          "name": "",
          "type": "bool"
        }
      ],
      "stateMutability": "view",
      "type": "function"
    },
    {
      "inputs": [],
      "name": "symbol",
      "outputs": [
        {
          "internalType": "string",
          "name": "",
          "type": "string"
        }
      ],
      "stateMutability": "view",
      "type": "function"
    },
    {
      "inputs": [],
      "name": "toggleMintAirdropMPIsOpen",
      "outputs": [],
      "stateMutability": "nonpayable",
      "type": "function"
    },
    {
      "inputs": [],
      "name": "toggleMintInternalTeamMPIsOpen",
      "outputs": [],
      "stateMutability": "nonpayable",
      "type": "function"
    },
    {
      "inputs": [],
      "name": "toggleMintMPIsOpen",
      "outputs": [],
      "stateMutability": "nonpayable",
      "type": "function"
    },
    {
      "inputs": [],
      "name": "toggleReveal",
      "outputs": [],
      "stateMutability": "nonpayable",
      "type": "function"
    },
    {
      "inputs": [
        {
          "internalType": "contract IERC20",
          "name": "token",
          "type": "address"
        }
      ],
      "name": "totalReleased",
      "outputs": [
        {
          "internalType": "uint256",
          "name": "",
          "type": "uint256"
        }
      ],
      "stateMutability": "view",
      "type": "function"
    },
    {
      "inputs": [],
      "name": "totalReleased",
      "outputs": [
        {
          "internalType": "uint256",
          "name": "",
          "type": "uint256"
        }
      ],
      "stateMutability": "view",
      "type": "function"
    },
    {
      "inputs": [],
      "name": "totalShares",
      "outputs": [
        {
          "internalType": "uint256",
          "name": "",
          "type": "uint256"
        }
      ],
      "stateMutability": "view",
      "type": "function"
    },
    {
      "inputs": [
        {
          "internalType": "uint256",
          "name": "id",
          "type": "uint256"
        }
      ],
      "name": "totalSupply",
      "outputs": [
        {
          "internalType": "uint256",
          "name": "",
          "type": "uint256"
        }
      ],
      "stateMutability": "view",
      "type": "function"
    },
    {
      "inputs": [
        {
          "internalType": "address",
          "name": "newOwner",
          "type": "address"
        }
      ],
      "name": "transferOwnership",
      "outputs": [],
      "stateMutability": "nonpayable",
      "type": "function"
    },
    {
      "inputs": [
        {
          "internalType": "uint256",
          "name": "",
          "type": "uint256"
        }
      ],
      "name": "uri",
      "outputs": [
        {
          "internalType": "string",
          "name": "",
          "type": "string"
        }
      ],
      "stateMutability": "view",
      "type": "function"
    },
    {
      "inputs": [
        {
          "internalType": "address",
          "name": "",
          "type": "address"
        }
      ],
      "name": "userNONMPs",
      "outputs": [
        {
          "internalType": "uint8",
          "name": "",
          "type": "uint8"
        }
      ],
      "stateMutability": "view",
      "type": "function"
    },
    {
      "inputs": [],
      "name": "withdraw",
      "outputs": [],
      "stateMutability": "payable",
      "type": "function"
    },
    {
      "inputs": [],
      "name": "xrand",
      "outputs": [
        {
          "internalType": "uint8",
          "name": "",
          "type": "uint8"
        }
      ],
      "stateMutability": "view",
      "type": "function"
    },
    {
      "stateMutability": "payable",
      "type": "receive"
    }
  ],
  "bytecode": "0x60c0604052601060809081526f564950534c414e442047454e4553495360801b60a052600d9062000031908262000801565b50604080518082019091526004815263159414d360e21b6020820152600e906200005c908262000801565b506011805460ff1990811690915560006013819055601481905560158190556016805483166012179055601a80546001600160401b0319166004179055601e805461191961ffff199091161790556701b4fbd92b5f8000601f5560208190556021819055602381905560248190556025819055602781905560288190556029819055602b805463ffffffff19169055602e819055602f81905560308190556031805462ffffff1916905560328190556033556034805490911690553480156200012457600080fd5b5060405162006bb038038062006bb0833981016040819052620001479162000a9f565b8585856200015581620004a3565b506200016133620004b5565b8051825114620001d35760405162461bcd60e51b815260206004820152603260248201527f5061796d656e7453706c69747465723a2070617965657320616e6420736861726044820152710cae640d8cadccee8d040dad2e6dac2e8c6d60731b60648201526084015b60405180910390fd5b6000825111620002265760405162461bcd60e51b815260206004820152601a60248201527f5061796d656e7453706c69747465723a206e6f207061796565730000000000006044820152606401620001ca565b60005b825181101562000292576200027d8382815181106200024c576200024c62000b6a565b602002602001015183838151811062000269576200026962000b6a565b60200260200101516200050760201b60201c565b80620002898162000b96565b91505062000229565b50506001600c5550602c829055602d819055600f620002b2858262000801565b506010620002c1848262000801565b50620002d16064614e2062000bb2565b6001600160401b03811115620002eb57620002eb6200075c565b60405190808252806020026020018201604052801562000315578160200160208202803683370190505b5080516200032c91601b91602090910190620006f5565b506002601b60008154811062000346576200034662000b6a565b60009182526020909120015562000363612710620222e062000bb2565b6001600160401b038111156200037d576200037d6200075c565b604051908082528060200260200182016040528015620003a7578160200160208202803683370190505b508051620003be91602291602090910190620006f5565b50620003cf6103e8614e2062000bb2565b6001600160401b03811115620003e957620003e96200075c565b60405190808252806020026020018201604052801562000413578160200160208202803683370190505b5080516200042a91602691602090910190620006f5565b506200043b6104576122b862000bb2565b6001600160401b038111156200045557620004556200075c565b6040519080825280602002602001820160405280156200047f578160200160208202803683370190505b5080516200049691602a91602090910190620006f5565b5050505050505062000bf1565b6002620004b1828262000801565b5050565b600480546001600160a01b038381166001600160a01b0319831681179093556040519116919082907f8be0079c531659141344cd1fd0a4f28419497f9722a3daafe3b4186f6b6457e090600090a35050565b6001600160a01b038216620005745760405162461bcd60e51b815260206004820152602c60248201527f5061796d656e7453706c69747465723a206163636f756e74206973207468652060448201526b7a65726f206164647265737360a01b6064820152608401620001ca565b60008111620005c65760405162461bcd60e51b815260206004820152601d60248201527f5061796d656e7453706c69747465723a207368617265732061726520300000006044820152606401620001ca565b6001600160a01b03821660009081526007602052604090205415620006425760405162461bcd60e51b815260206004820152602b60248201527f5061796d656e7453706c69747465723a206163636f756e7420616c726561647960448201526a206861732073686172657360a81b6064820152608401620001ca565b60098054600181019091557f6e1540171b6c0c960b71a7020d9f60077f6af931a8bbf590da0223dacf75c7af0180546001600160a01b0319166001600160a01b0384169081179091556000908152600760205260409020819055600554620006ac90829062000bd5565b600555604080516001600160a01b0384168152602081018390527f40c340f65e17194d14ddddb073d3c9f888e3cb52b5aae0c6c7706b4fbc905fac910160405180910390a15050565b82805482825590600052602060002090810192821562000733579160200282015b828111156200073357825182559160200191906001019062000716565b506200074192915062000745565b5090565b5b8082111562000741576000815560010162000746565b634e487b7160e01b600052604160045260246000fd5b600181811c908216806200078757607f821691505b602082108103620007a857634e487b7160e01b600052602260045260246000fd5b50919050565b601f821115620007fc57600081815260208120601f850160051c81016020861015620007d75750805b601f850160051c820191505b81811015620007f857828155600101620007e3565b5050505b505050565b81516001600160401b038111156200081d576200081d6200075c565b62000835816200082e845462000772565b84620007ae565b602080601f8311600181146200086d5760008415620008545750858301515b600019600386901b1c1916600185901b178555620007f8565b600085815260208120601f198616915b828110156200089e578886015182559484019460019091019084016200087d565b5085821015620008bd5787850151600019600388901b60f8161c191681555b5050505050600190811b01905550565b604051601f8201601f191681016001600160401b0381118282101715620008f857620008f86200075c565b604052919050565b60006001600160401b038211156200091c576200091c6200075c565b5060051b60200190565b600082601f8301126200093857600080fd5b81516020620009516200094b8362000900565b620008cd565b82815260059290921b840181019181810190868411156200097157600080fd5b8286015b84811015620009a55780516001600160a01b0381168114620009975760008081fd5b835291830191830162000975565b509695505050505050565b600082601f830112620009c257600080fd5b81516020620009d56200094b8362000900565b82815260059290921b84018101918181019086841115620009f557600080fd5b8286015b84811015620009a55780518352918301918301620009f9565b600082601f83011262000a2457600080fd5b81516001600160401b0381111562000a405762000a406200075c565b602062000a56601f8301601f19168201620008cd565b828152858284870101111562000a6b57600080fd5b60005b8381101562000a8b57858101830151828201840152820162000a6e565b506000928101909101919091529392505050565b60008060008060008060c0878903121562000ab957600080fd5b86516001600160401b038082111562000ad157600080fd5b62000adf8a838b0162000926565b9750602089015191508082111562000af657600080fd5b62000b048a838b01620009b0565b9650604089015191508082111562000b1b57600080fd5b62000b298a838b0162000a12565b9550606089015191508082111562000b4057600080fd5b5062000b4f89828a0162000a12565b9350506080870151915060a087015190509295509295509295565b634e487b7160e01b600052603260045260246000fd5b634e487b7160e01b600052601160045260246000fd5b60006001820162000bab5762000bab62000b80565b5060010190565b60008262000bd057634e487b7160e01b600052601260045260246000fd5b500490565b8082018082111562000beb5762000beb62000b80565b92915050565b615faf8062000c016000396000f3fe6080604052600436106105255760003560e01c806382a31693116102a2578063c0fd97ff11610165578063da8ab071116100cc578063e67ff55211610085578063e67ff55214610f3d578063e985e9c514610f54578063f242432a14610f9d578063f2fde38b14610fbd578063fb891dc514610fdd578063fe47d7f214610ff057600080fd5b8063da8ab07114610eab578063db9a850914610ec0578063defb1d4514610ed6578063df81b1dc14610ef5578063df8c6cd314610f08578063e33b7de314610f2857600080fd5b8063cd0b99cd1161011e578063cd0b99cd146107fc578063ce7c2ac214610de9578063cea8f9c014610e1f578063cffbd26f14610e3f578063d79779b214610e75578063d7abf1861461072057600080fd5b8063c0fd97ff14610d5c578063c45ac05014610d7c578063c6358ecd14610d9c578063c7a3b01314610dbc578063c82190c414610dd2578063c9b4f6ef1461082857600080fd5b80639daf187211610209578063b0bd6fe1116101c2578063b0bd6fe114610caa578063b1feb18d14610cc0578063b247796414610cda578063b861639414610cf9578063bca66b8514610d0f578063bd85b03914610d2f57600080fd5b80639daf187214610c145780639e26975714610c29578063a22cb46514610c40578063a3f8eace14610c60578063a57674e714610c80578063a882fea414610c9557600080fd5b80638da5cb5b1161025b5780638da5cb5b14610b9057806394a271fd14610bae5780639554567e14610bb657806395d89b4114610bc957806397c66270146107fc5780639852595c14610bde57600080fd5b806382a3169314610ad7578063833bc78814610aed5780638515c7ac14610b0d5780638913fbe014610b2d5780638b7afe2e14610b435780638b83209b14610b5857600080fd5b8063395dcb64116103ea5780635b8ad42911610351578063715018a61161030a578063715018a614610a3d57806375d909ef14610a525780637862ed6414610a685780637a1d48f414610a885780637d46d87014610aa85780637de1c2be14610abd57600080fd5b80635b8ad429146109a55780635de701f9146109ba5780636797fdda146109db5780636bfcf578146109fb5780636c5959e314610a105780636e27b97214610a2657600080fd5b806348b75044116103a357806348b75044146108e35780634a098124146109035780634e1273f4146109195780634f558e791461094657806351830227146109755780635308ca781461098f57600080fd5b8063395dcb641461083d5780633a98ef39146108535780633ccfd60b14610868578063406072a914610870578063438d4bc1146108b657806344c3c7b9146108cc57600080fd5b8063191655871161048e5780632d187ef7116104475780632d187ef7146107b15780632d23bf5a146107c65780632eb2c2d6146107dc5780632fcf9d4b146107fc5780632fef457914610812578063380b5f751461082857600080fd5b8063191655871461070057806319f32a501461072057806320c6974e1461074757806328b33aae146107615780632a37e4af1461077b5780632b2be7f51461079257600080fd5b8063070ccbde116104e0578063070ccbde146106445780630e89341c1461065a578063108241181461067a57806310dd92471461069c57806311e6fb63146106b25780631902aa4a146106c857600080fd5b806201d05b14610573578062fdd58e1461059c57806301553208146105bc57806301ffc9a7146105ec57806304bf41d81461060c57806306fdde031461062257600080fd5b3661056e577f6ef95f06320e7a25a04a175ca677b7052bdd97131872c2192525a629f51be77033604080516001600160a01b0390921682523460208301520160405180910390a1005b600080fd5b34801561057f57600080fd5b5061058960205481565b6040519081526020015b60405180910390f35b3480156105a857600080fd5b506105896105b7366004615093565b611020565b3480156105c857600080fd5b50602b546105dc9062010000900460ff1681565b6040519015158152602001610593565b3480156105f857600080fd5b506105dc6106073660046150d5565b6110b9565b34801561061857600080fd5b50610589614e2181565b34801561062e57600080fd5b50610637611109565b6040516105939190615142565b34801561065057600080fd5b50610589602c5481565b34801561066657600080fd5b50610637610675366004615155565b611197565b34801561068657600080fd5b5061069a610695366004615184565b611263565b005b3480156106a857600080fd5b5061058960145481565b3480156106be57600080fd5b5061058960135481565b3480156106d457600080fd5b50601a546106e8906001600160401b031681565b6040516001600160401b039091168152602001610593565b34801561070c57600080fd5b5061069a61071b36600461519f565b6112bd565b34801561072c57600080fd5b50610735600381565b60405160ff9091168152602001610593565b34801561075357600080fd5b506016546107359060ff1681565b34801561076d57600080fd5b50601e546107359060ff1681565b34801561078757600080fd5b506018546105899081565b34801561079e57600080fd5b50601e5461073590610100900460ff1681565b3480156107bd57600080fd5b5061069a6113a4565b3480156107d257600080fd5b5061058960155481565b3480156107e857600080fd5b5061069a6107f736600461530f565b6113cb565b34801561080857600080fd5b50610589614e2081565b34801561081e57600080fd5b5061058960215481565b34801561083457600080fd5b50610735606481565b34801561084957600080fd5b506105896103e881565b34801561085f57600080fd5b50600554610589565b61069a611417565b34801561087c57600080fd5b5061058961088b3660046153bc565b6001600160a01b039182166000908152600b6020908152604080832093909416825291909152205490565b3480156108c257600080fd5b5061058960275481565b3480156108d857600080fd5b50610589620222e081565b3480156108ef57600080fd5b5061069a6108fe3660046153bc565b61144e565b34801561090f57600080fd5b5061058960245481565b34801561092557600080fd5b506109396109343660046153f5565b61155f565b60405161059391906154fc565b34801561095257600080fd5b506105dc610961366004615155565b600090815260036020526040902054151590565b34801561098157600080fd5b506011546105dc9060ff1681565b34801561099b57600080fd5b5061058961271081565b3480156109b157600080fd5b5061069a611688565b3480156109c657600080fd5b50602b546105dc906301000000900460ff1681565b3480156109e757600080fd5b5061069a6109f636600461550f565b6116a4565b348015610a0757600080fd5b5061069a6116d2565b348015610a1c57600080fd5b50610589601f5481565b348015610a3257600080fd5b506017546105899081565b348015610a4957600080fd5b5061069a6116fb565b348015610a5e57600080fd5b5061058960235481565b348015610a7457600080fd5b5061069a610a83366004615155565b61170f565b348015610a9457600080fd5b5061069a610aa3366004615155565b61171c565b348015610ab457600080fd5b5061069a611729565b348015610ac957600080fd5b50602b546107359060ff1681565b348015610ae357600080fd5b506105896122b881565b348015610af957600080fd5b50610637610b0836600461553b565b611b40565b348015610b1957600080fd5b5061069a610b28366004615593565b611b74565b348015610b3957600080fd5b5061058960295481565b348015610b4f57600080fd5b50610589611bdc565b348015610b6457600080fd5b50610b78610b73366004615155565b611bec565b6040516001600160a01b039091168152602001610593565b348015610b9c57600080fd5b506004546001600160a01b0316610b78565b610589611c1c565b61069a610bc43660046155bd565b611c2b565b348015610bd557600080fd5b50610637611dca565b348015610bea57600080fd5b50610589610bf936600461519f565b6001600160a01b031660009081526008602052604090205490565b348015610c2057600080fd5b50610735602381565b348015610c3557600080fd5b506019546105899081565b348015610c4c57600080fd5b5061069a610c5b366004615671565b611dd7565b348015610c6c57600080fd5b50610589610c7b36600461519f565b611de2565b348015610c8c57600080fd5b5061069a611e2a565b348015610ca157600080fd5b5061069a6121ac565b348015610cb657600080fd5b50610589602d5481565b348015610ccc57600080fd5b506031546105dc9060ff1681565b348015610ce657600080fd5b506031546105dc90610100900460ff1681565b348015610d0557600080fd5b5061058960255481565b348015610d1b57600080fd5b5061069a610d2a36600461569f565b6125ba565b348015610d3b57600080fd5b50610589610d4a366004615155565b60009081526003602052604090205490565b348015610d6857600080fd5b5061069a610d77366004615155565b61261f565b348015610d8857600080fd5b50610589610d973660046153bc565b612643565b348015610da857600080fd5b5061069a610db7366004615155565b61270e565b348015610dc857600080fd5b5061058961045781565b348015610dde57600080fd5b506105896202710181565b348015610df557600080fd5b50610589610e0436600461519f565b6001600160a01b031660009081526007602052604090205490565b348015610e2b57600080fd5b506031546105dc9062010000900460ff1681565b348015610e4b57600080fd5b50610b78610e5a366004615155565b601c602052600090815260409020546001600160a01b031681565b348015610e8157600080fd5b50610589610e9036600461519f565b6001600160a01b03166000908152600a602052604090205490565b348015610eb757600080fd5b5061069a61271b565b348015610ecc57600080fd5b5061058960285481565b348015610ee257600080fd5b50602b546105dc90610100900460ff1681565b61069a610f033660046156c4565b612740565b348015610f1457600080fd5b50610589610f23366004615155565b612819565b348015610f3457600080fd5b50600654610589565b348015610f4957600080fd5b506105896202bf2181565b348015610f6057600080fd5b506105dc610f6f3660046153bc565b6001600160a01b03918216600090815260016020908152604080832093909416825291909152205460ff1690565b348015610fa957600080fd5b5061069a610fb8366004615709565b61283a565b348015610fc957600080fd5b5061069a610fd836600461519f565b61287f565b61069a610feb3660046155bd565b6128f5565b348015610ffc57600080fd5b5061073561100b36600461519f565b601d6020526000908152604090205460ff1681565b60006001600160a01b0383166110905760405162461bcd60e51b815260206004820152602a60248201527f455243313135353a2061646472657373207a65726f206973206e6f742061207660448201526930b634b21037bbb732b960b11b60648201526084015b60405180910390fd5b506000818152602081815260408083206001600160a01b03861684529091529020545b92915050565b60006001600160e01b03198216636cdb3d1360e11b14806110ea57506001600160e01b031982166303a24d0760e21b145b806110b357506301ffc9a760e01b6001600160e01b03198316146110b3565b600d805461111690615771565b80601f016020809104026020016040519081016040528092919081815260200182805461114290615771565b801561118f5780601f106111645761010080835404028352916020019161118f565b820191906000526020600020905b81548152906001019060200180831161117257829003601f168201915b505050505081565b60115460609060ff16151560000361123b57600f80546111b690615771565b80601f01602080910402602001604051908101604052809291908181526020018280546111e290615771565b801561122f5780601f106112045761010080835404028352916020019161122f565b820191906000526020600020905b81548152906001019060200180831161121257829003601f168201915b50505050509050919050565b601060405160200161124d91906157ab565b6040516020818303038152906040529050919050565b61126b612a42565b60ff811660078111156112a65760405162461bcd60e51b815260206004820152600360248201526232991960e91b6044820152606401611087565b50602b805460ff191660ff92909216919091179055565b6001600160a01b0381166000908152600760205260409020546112f25760405162461bcd60e51b81526004016110879061586a565b60006112fd82611de2565b90508060000361131f5760405162461bcd60e51b8152600401611087906158b0565b80600660008282546113319190615911565b90915550506001600160a01b038216600090815260086020526040902080548201905561135e8282612a9c565b604080516001600160a01b0384168152602081018390527fdf20fd1e76bc69d672e4814fafb2c449bba3a5369d8359adf9e05e6fde87b056910160405180910390a15050565b6113ac612a42565b602b805462ff0000198116620100009182900460ff1615909102179055565b6001600160a01b0385163314806113e757506113e78533610f6f565b6114035760405162461bcd60e51b815260040161108790615924565b6114108585858585612bba565b5050505050565b61141f612a42565b60405133904780156108fc02916000818181858888f1935050505015801561144b573d6000803e3d6000fd5b50565b6001600160a01b0381166000908152600760205260409020546114835760405162461bcd60e51b81526004016110879061586a565b600061148f8383612643565b9050806000036114b15760405162461bcd60e51b8152600401611087906158b0565b6001600160a01b0383166000908152600a6020526040812080548392906114d9908490615911565b90915550506001600160a01b038084166000908152600b60209081526040808320938616835292905220805482019055611514838383612d5c565b604080516001600160a01b038481168252602082018490528516917f3be5b7a71e84ed12875d241991c70855ac5817d847039e17a9d895c1ceb0f18a910160405180910390a2505050565b606081518351146115c45760405162461bcd60e51b815260206004820152602960248201527f455243313135353a206163636f756e747320616e6420696473206c656e677468604482015268040dad2e6dac2e8c6d60bb1b6064820152608401611087565b600083516001600160401b038111156115df576115df6151bc565b604051908082528060200260200182016040528015611608578160200160208202803683370190505b50905060005b84518110156116805761165385828151811061162c5761162c615972565b602002602001015185838151811061164657611646615972565b6020026020010151611020565b82828151811061166557611665615972565b602090810291909101015261167981615988565b905061160e565b509392505050565b611690612a42565b6011805460ff19811660ff90911615179055565b6116ac612a42565b8060ff166002036116bd57602d8290555b8060ff166001036116ce57602c8290555b5050565b6116da612a42565b602b805463ff00000019811663010000009182900460ff1615909102179055565b611703612a42565b61170d6000612dae565b565b611717612a42565b602355565b611724612a42565b601f55565b3332146117485760405162461bcd60e51b8152600401611087906159a1565b611750612a42565b602b546301000000900460ff1661178e5760405162461bcd60e51b8152602060048201526002602482015261329b60f11b6044820152606401611087565b60315460ff1615156001146117cb5760405162461bcd60e51b815260206004820152600360248201526232989960e91b6044820152606401611087565b603154610100900460ff16156118095760405162461bcd60e51b815260206004820152600360248201526265313360e81b6044820152606401611087565b611817601980546001019055565b600061182260195490565b90506000611831603254612e00565b6034805460ff191660ff93909316929092179091556030549091505b611859836103e86159bd565b811015611b2c57603454600090819060ff166001036119545761271061188284620293b86159bd565b61188c91906159ea565b60165462ffffff919091169060ff16614e206118ab87620271006159fe565b62ffffff166118ba9190615911565b6118c5906001615911565b6118cf9190615911565b6118d99190615911565b90506127106118eb84620293b86159bd565b6118f6906001615911565b61190091906159ea565b60165462ffffff919091169060ff16614e2061191f87620271006159fe565b62ffffff1661192e9190615911565b611939906001615911565b6119439190615911565b61194d9190615911565b9150611a32565b61271061196484620293b86159bd565b61196e91906159ea565b60165462ffffff919091169060ff16614e2061198d8762027100615a21565b62ffffff1661199c9190615911565b6119a7906001615911565b6119b19190615911565b6119bb9190615911565b90506127106119cd84620293b86159bd565b6119d8906001615911565b6119e291906159ea565b60165462ffffff919091169060ff16614e20611a018762027100615a21565b62ffffff16611a109190615911565b611a1b906001615911565b611a259190615911565b611a2f9190615911565b91505b60006122b8614e20611a47620222e082615911565b611a519190615911565b611a5b9190615911565b9050808362ffffff161180611a745750808262ffffff16115b6031805461ff0019166101009215158302179081905560405160ff929091049190911615158152600080516020615f5a8339815191529060200160405180910390a1603154610100900460ff1615611ace57505050611b2c565b601654601554611ae5918491849160ff1690612eb3565b60155560315460405161010090910460ff1615158152600080516020615f5a8339815191529060200160405180910390a15050508080611b2490615988565b91505061184d565b50611b39826103e86159bd565b6030555050565b606082611b4c83612fc4565b604051602001611b5d929190615a3d565b604051602081830303815290604052905092915050565b611b7c612a42565b8160ff168160ff161115611bb85760405162461bcd60e51b815260206004820152600360248201526265323360e81b6044820152606401611087565b601e805460ff9283166101000261ffff199091169290931691909117919091179055565b6000611be6612a42565b50475b90565b600060098281548110611c0157611c01615972565b6000918252602090912001546001600160a01b031692915050565b6000611c26612a42565b503490565b84336001600160a01b03821614611c545760405162461bcd60e51b815260040161108790615a79565b333214611c735760405162461bcd60e51b8152600401611087906159a1565b602b5460ff16600003611c985760405162461bcd60e51b815260040161108790615a95565b611ca0613056565b82826001611d2a83838080602002602001604051908101604052809392919081815260200183836020028082843760009201919091525050505060ff8316600114611ced57602d54611cf1565b602c545b6040516bffffffffffffffffffffffff193360601b166020820152603401604051602081830303815290604052805190602001206130af565b1515600114611d615760405162461bcd60e51b8152602060048201526003602482015262194c8d60ea1b6044820152606401611087565b60008860ff1611611d845760405162461bcd60e51b815260040161108790615ab2565b33611da15760405162461bcd60e51b815260040161108790615acf565b8660ff16600103611db557611db5886130c5565b505050611dc26001600c55565b505050505050565b600e805461111690615771565b6116ce3383836135be565b600080611dee60065490565b611df89047615911565b9050611e238382611e1e866001600160a01b031660009081526008602052604090205490565b61369e565b9392505050565b333214611e495760405162461bcd60e51b8152600401611087906159a1565b611e51612a42565b602b54610100900460ff16611e8d5760405162461bcd60e51b8152602060048201526002602482015261653560f01b6044820152606401611087565b60315460ff1615611ec55760405162461bcd60e51b8152602060048201526002602482015261653960f01b6044820152606401611087565b60165460ff16601203611ef157611edc60116136dc565b6016805460ff191660ff929092169190911790555b611eff601780546001019055565b6000611f0a60175490565b602e549091506000905b611f20836103e86159bd565b811015612198576000612710611f3983620293b86159bd565b611f4391906159ea565b60165462ffffff919091169060ff16611f5f614e206001615911565b611f699190615911565b611f739190615911565b90506000611f86620222e0614e20615911565b90506000612710611f9a85620293b86159bd565b611fa5906001615911565b611faf91906159ea565b60165462ffffff919091169060ff16611fcb614e206001615911565b611fd59190615911565b611fdf9190615911565b9050818162ffffff161180611ff85750818362ffffff16115b6031805460ff1916911515918217905560405160ff90911615158152600080516020615f5a8339815191529060200160405180910390a160315460ff161561213c5762ffffff8116603281905560009061205190612e00565b6034805460ff90931660ff199093168317905591506001036120d25761207d61271063bf4380416159ea565b60165462ffffff919091169060ff16614e2061209c84620222e06159fe565b62ffffff166120ab9190615911565b6120b6906001615911565b6120c09190615911565b6120ca9190615911565b603355612133565b6120e261271063bf4380416159ea565b60165462ffffff919091169060ff16614e2061210184620222e0615a21565b62ffffff166121109190615911565b61211b906001615911565b6121259190615911565b61212f9190615911565b6033555b50505050612198565b601654601354612153918591859160ff1690612eb3565b60135560315460405160ff90911615158152600080516020615f5a8339815191529060200160405180910390a15090925081905061219081615988565b915050611f14565b506121a5826103e86159bd565b602e555050565b3332146121cb5760405162461bcd60e51b8152600401611087906159a1565b6121d3612a42565b602b5462010000900460ff166122105760405162461bcd60e51b8152602060048201526002602482015261653760f01b6044820152606401611087565b60315460ff16151560011461224d5760405162461bcd60e51b815260206004820152600360248201526206531360ec1b6044820152606401611087565b60315462010000900460ff161561228c5760405162461bcd60e51b815260206004820152600360248201526265313160e81b6044820152606401611087565b61229a601880546001019055565b60006122a560185490565b905060006122b4603254612e00565b6034805460ff191660ff9390931692909217909155602f549091505b6122dc836103e86159bd565b8110156125a657603454600090819060ff166001036123d75761271061230584620293b86159bd565b61230f91906159ea565b60165462ffffff919091169060ff16614e2061232e87620222e06159fe565b62ffffff1661233d9190615911565b612348906001615911565b6123529190615911565b61235c9190615911565b915061271061236e84620293b86159bd565b612379906001615911565b61238391906159ea565b60165462ffffff919091169060ff16614e206123a287620222e06159fe565b62ffffff166123b19190615911565b6123bc906001615911565b6123c69190615911565b6123d09190615911565b90506124b5565b6127106123e784620293b86159bd565b6123f191906159ea565b60165462ffffff919091169060ff16614e2061241087620222e0615a21565b62ffffff1661241f9190615911565b61242a906001615911565b6124349190615911565b61243e9190615911565b915061271061245084620293b86159bd565b61245b906001615911565b61246591906159ea565b60165462ffffff919091169060ff16614e2061248487620222e0615a21565b62ffffff166124939190615911565b61249e906001615911565b6124a89190615911565b6124b29190615911565b90505b6000614e206124c7620222e082615911565b6124d19190615911565b9050808262ffffff1611806124ea5750808362ffffff16115b6031805462ff00001916620100009215158302179081905560405160ff929091049190911615158152600080516020615f5a8339815191529060200160405180910390a160315462010000900460ff1615612547575050506125a6565b60165460145461255e918591849160ff1690612eb3565b6014556031546040516201000090910460ff1615158152600080516020615f5a8339815191529060200160405180910390a1505050808061259e90615988565b9150506122d0565b506125b3826103e86159bd565b602f555050565b6125c2612a42565b6000828152600360205260409020546126025760405162461bcd60e51b8152602060048201526002602482015261329960f11b6044820152606401611087565b6116ce33828460016040518060200160405280600081525061283a565b612627612a42565b61144b33826001604051806020016040528060008152506136f5565b6001600160a01b0382166000908152600a602052604081205481906040516370a0823160e01b81523060048201526001600160a01b038616906370a0823190602401602060405180830381865afa1580156126a2573d6000803e3d6000fd5b505050506040513d601f19601f820116820180604052508101906126c69190615aec565b6126d09190615911565b6001600160a01b038086166000908152600b6020908152604080832093881683529290522054909150612706908490839061369e565b949350505050565b612716612a42565b602755565b612723612a42565b602b805461ff001981166101009182900460ff1615909102179055565b82336001600160a01b038216146127695760405162461bcd60e51b815260040161108790615a79565b3332146127885760405162461bcd60e51b8152600401611087906159a1565b602b5460ff166000036127ad5760405162461bcd60e51b815260040161108790615a95565b6127b5613056565b60008360ff16116127d85760405162461bcd60e51b815260040161108790615ab2565b336127f55760405162461bcd60e51b815260040161108790615acf565b8160ff1660040361280957612809836137de565b6128136001600c55565b50505050565b602a818154811061282957600080fd5b600091825260209091200154905081565b6001600160a01b03851633148061285657506128568533610f6f565b6128725760405162461bcd60e51b815260040161108790615924565b6114108585858585613d1f565b612887612a42565b6001600160a01b0381166128ec5760405162461bcd60e51b815260206004820152602660248201527f4f776e61626c653a206e6577206f776e657220697320746865207a65726f206160448201526564647265737360d01b6064820152608401611087565b61144b81612dae565b84336001600160a01b0382161461291e5760405162461bcd60e51b815260040161108790615a79565b33321461293d5760405162461bcd60e51b8152600401611087906159a1565b602b5460ff166000036129625760405162461bcd60e51b815260040161108790615a95565b61296a613056565b828260026129b783838080602002602001604051908101604052809392919081815260200183836020028082843760009201919091525050505060ff8316600114611ced57602d54611cf1565b15156001146129ee5760405162461bcd60e51b8152602060048201526003602482015262194c8d60ea1b6044820152606401611087565b60008860ff1611612a115760405162461bcd60e51b815260040161108790615ab2565b33612a2e5760405162461bcd60e51b815260040161108790615acf565b8660ff16600203611db557611db588613e4c565b6004546001600160a01b0316331461170d5760405162461bcd60e51b815260206004820181905260248201527f4f776e61626c653a2063616c6c6572206973206e6f7420746865206f776e65726044820152606401611087565b80471015612aec5760405162461bcd60e51b815260206004820152601d60248201527f416464726573733a20696e73756666696369656e742062616c616e63650000006044820152606401611087565b6000826001600160a01b03168260405160006040518083038185875af1925050503d8060008114612b39576040519150601f19603f3d011682016040523d82523d6000602084013e612b3e565b606091505b5050905080612bb55760405162461bcd60e51b815260206004820152603a60248201527f416464726573733a20756e61626c6520746f2073656e642076616c75652c207260448201527f6563697069656e74206d617920686176652072657665727465640000000000006064820152608401611087565b505050565b8151835114612bdb5760405162461bcd60e51b815260040161108790615b05565b6001600160a01b038416612c015760405162461bcd60e51b815260040161108790615b4d565b33612c108187878787876142cd565b60005b8451811015612cf6576000858281518110612c3057612c30615972565b602002602001015190506000858381518110612c4e57612c4e615972565b602090810291909101810151600084815280835260408082206001600160a01b038e168352909352919091205490915081811015612c9e5760405162461bcd60e51b815260040161108790615b92565b6000838152602081815260408083206001600160a01b038e8116855292528083208585039055908b16825281208054849290612cdb908490615911565b9250508190555050505080612cef90615988565b9050612c13565b50846001600160a01b0316866001600160a01b0316826001600160a01b03167f4a39dc06d4c0dbc64b70af90fd698a233a518aa5d07e595d983b8c0526c8f7fb8787604051612d46929190615bdc565b60405180910390a4611dc2818787878787614446565b604080516001600160a01b038416602482015260448082018490528251808303909101815260649091019091526020810180516001600160e01b031663a9059cbb60e01b179052612bb59084906145a1565b600480546001600160a01b038381166001600160a01b0319831681179093556040519116919082907f8be0079c531659141344cd1fd0a4f28419497f9722a3daafe3b4186f6b6457e090600090a35050565b601654600090819060ff16612e1a614e20620222e0615911565b612e25906001615911565b612e2f9190615911565b62ffffff168310612e7a5760165460019060ff16612e52614e20620222e0615911565b612e5d906001615911565b612e679190615911565b612e719085615a21565b91509150915091565b601654600090849060ff16612e94614e20620222e0615911565b612e9f906001615911565b612ea99190615911565b612e719190615a21565b60007f447b8744ce19b4ec182a865f10546affad5cb63bee7fbf1f4733554d3644a8d085612ee460ff861687615c0a565b6040805162ffffff909316835260208301919091520160405180910390a16000612f128662ffffff16614673565b90506001600160a01b03811615612fba576000612f2d6146d8565b9050612f4b33826001604051806020016040528060008152506136f5565b612f6833838360016040518060200160405280600081525061283a565b612f73600185615911565b9350816001600160a01b03167ffbc825a9dbec6ba579c678650f97fd1adaab5d895472fb72d1be4a0982ed8c1982604051612fb091815260200190565b60405180910390a2505b5090949350505050565b60606000612fd1836149cc565b60010190506000816001600160401b03811115612ff057612ff06151bc565b6040519080825280601f01601f19166020018201604052801561301a576020820181803683370190505b5090508181016020015b600019016f181899199a1a9b1b9c1cb0b131b232b360811b600a86061a8153600a850494508461302457509392505050565b6002600c54036130a85760405162461bcd60e51b815260206004820152601f60248201527f5265656e7472616e637947756172643a207265656e7472616e742063616c6c006044820152606401611087565b6002600c55565b6000826130bc8584614aa4565b14949350505050565b602b546000906001908116146130ed5760405162461bcd60e51b815260040161108790615c1d565b336000908152601d6020526040902054600360ff90911611156131225760405162461bcd60e51b815260040161108790615c3a565b600360ff831611156131465760405162461bcd60e51b815260040161108790615c57565b336000908152601d602052604090205460039061316790849060ff16615c74565b60ff16111561319557336000908152601d602052604090205461318e9060ff166003615c8d565b9150600190505b600080600080613202866202bf216029546122b8610457602a8054806020026020016040519081016040528092919081815260200182805480156131f857602002820191906000526020600020905b8154815260200190600101908083116131e4575b5050505050614ae9565b93509350935093508560ff168360ff161461321c57600194505b602754349061322f9060ff8616906159bd565b81101561324e5760405162461bcd60e51b815260040161108790615ca6565b6004546001600160a01b03166001600160a01b03166108fc8560ff1660275461327791906159bd565b6040518115909202916000818181858888f1935050505015801561329f573d6000803e3d6000fd5b5060008460ff166001600160401b038111156132bd576132bd6151bc565b6040519080825280602002602001820160405280156132e6578160200160208202803683370190505b50905060008560ff166001600160401b03811115613306576133066151bc565b60405190808252806020026020018201604052801561332f578160200160208202803683370190505b50905060005b8660ff168110156133995761334a8189615911565b83828151811061335c5761335c615972565b602002602001018181525050600182828151811061337c5761337c615972565b60209081029190910101528061339181615988565b915050613335565b506133b533838360405180602001604052806000815250614c84565b60005b8660ff168110156134275733601c60008584815181106133da576133da615972565b6020026020010151815260200190815260200160002060006101000a8154816001600160a01b0302191690836001600160a01b03160217905550808061341f90615988565b9150506133b8565b508151336000908152601d6020526040902054613447919060ff16615911565b336000908152601d60205260409020805460ff191660ff9283161790556029869055602a805488831692871690811061348257613482615972565b90600052602060002001546134979190615911565b602a8560ff16815481106134ad576134ad615972565b90600052602060002001819055508560ff16602860008282546134d09190615911565b90915550506028546122b8116134f457602b805463ff000000191663010000001790555b336000818152601d60205260409020547fdf6bd66365a8c4ede51660159bba6757ea60b0815714ebd8534054d929f3337f9060ff168461353560018b615c8d565b60ff168151811061354857613548615972565b602002602001015160405161356c92919060ff929092168252602082015260400190565b60405180910390a287156135b35760405160ff8716815233907faf3c443bb05b163e7d42de9f4b11bdbfa307cad571a1ae5013e5e2ee92e66ed29060200160405180910390a25b505050505050505050565b816001600160a01b0316836001600160a01b0316036136315760405162461bcd60e51b815260206004820152602960248201527f455243313135353a2073657474696e6720617070726f76616c20737461747573604482015268103337b91039b2b63360b91b6064820152608401611087565b6001600160a01b03838116600081815260016020908152604080832094871680845294825291829020805460ff191686151590811790915591519182527f17307eab39ab6107e8899845ad3d59bd9653f200f220920489ca2b5937696c31910160405180910390a3505050565b6005546001600160a01b038416600090815260076020526040812054909183916136c890866159bd565b6136d291906159ea565b6127069190615c0a565b6000816136ea600143615c0a565b6110b3919040615cc3565b6001600160a01b03841661371b5760405162461bcd60e51b815260040161108790615cd7565b33600061372785614dde565b9050600061373485614dde565b9050613745836000898585896142cd565b6000868152602081815260408083206001600160a01b038b16845290915281208054879290613775908490615911565b909155505060408051878152602081018790526001600160a01b03808a1692600092918716917fc3d58168c5ae7397731d063d5bbf3d657854427343f4c083240f7aacaa2d0f62910160405180910390a46137d583600089898989614e29565b50505050505050565b602b546000906004908116146138065760405162461bcd60e51b815260040161108790615c1d565b336000908152601d6020526040902054606460ff909116111561383b5760405162461bcd60e51b815260040161108790615c3a565b602360ff8316111561385f5760405162461bcd60e51b815260040161108790615c57565b336000908152601d602052604090205460649061388090849060ff16615c74565b60ff1611156138ae57336000908152601d60205260409020546138a79060ff166064615c8d565b9150600190505b60008060008061391986614e21602154620222e061271060228054806020026020016040519081016040528092919081815260200182805480156131f857602002820191906000526020600020908154815260200190600101908083116131e4575050505050614ae9565b93509350935093508560ff168360ff161461393357600194505b601f54600560ff85161080159061394d5750600a8460ff16105b15613974576005601f54600461396391906159bd565b61396d91906159ea565b9050613991565b600a8460ff1610613991576002601f5461398e91906159ea565b90505b3461399f60ff8616836159bd565b8110156139be5760405162461bcd60e51b815260040161108790615ca6565b6004546001600160a01b03166108fc6139da60ff8816856159bd565b6040518115909202916000818181858888f19350505050158015613a02573d6000803e3d6000fd5b5060008560ff166001600160401b03811115613a2057613a206151bc565b604051908082528060200260200182016040528015613a49578160200160208202803683370190505b50905060008660ff166001600160401b03811115613a6957613a696151bc565b604051908082528060200260200182016040528015613a92578160200160208202803683370190505b50905060005b8760ff16811015613afc57613aad818a615911565b838281518110613abf57613abf615972565b6020026020010181815250506001828281518110613adf57613adf615972565b602090810291909101015280613af481615988565b915050613a98565b50613b1833838360405180602001604052806000815250614c84565b60005b8760ff16811015613b8a5733601c6000858481518110613b3d57613b3d615972565b6020026020010151815260200190815260200160002060006101000a8154816001600160a01b0302191690836001600160a01b031602179055508080613b8290615988565b915050613b1b565b508151336000908152601d6020526040902054613baa919060ff16615911565b336000908152601d60205260409020805460ff191660ff928316179055602187905560228054898316928816908110613be557613be5615972565b9060005260206000200154613bfa9190615911565b60228660ff1681548110613c1057613c10615972565b90600052602060002001819055508660ff1660206000828254613c339190615911565b9091555050602054620222e011613c5457602b805461ff0019166101001790555b336000818152601d60205260409020547fdf6bd66365a8c4ede51660159bba6757ea60b0815714ebd8534054d929f3337f9060ff1684613c9560018c615c8d565b60ff1681518110613ca857613ca8615972565b6020026020010151604051613ccc92919060ff929092168252602082015260400190565b60405180910390a28815613d135760405160ff8816815233907faf3c443bb05b163e7d42de9f4b11bdbfa307cad571a1ae5013e5e2ee92e66ed29060200160405180910390a25b50505050505050505050565b6001600160a01b038416613d455760405162461bcd60e51b815260040161108790615b4d565b336000613d5185614dde565b90506000613d5e85614dde565b9050613d6e8389898585896142cd565b6000868152602081815260408083206001600160a01b038c16845290915290205485811015613daf5760405162461bcd60e51b815260040161108790615b92565b6000878152602081815260408083206001600160a01b038d8116855292528083208985039055908a16825281208054889290613dec908490615911565b909155505060408051888152602081018890526001600160a01b03808b16928c821692918816917fc3d58168c5ae7397731d063d5bbf3d657854427343f4c083240f7aacaa2d0f62910160405180910390a46135b3848a8a8a8a8a614e29565b602b54600090600290811614613e745760405162461bcd60e51b815260040161108790615c1d565b601e54336000908152601d602052604090205460ff91821691161115613eac5760405162461bcd60e51b815260040161108790615c3a565b601e5460ff61010090910481169083161115613eda5760405162461bcd60e51b815260040161108790615c57565b601e54336000908152601d602052604090205460ff91821691613eff91859116615c74565b60ff161115613f3257336000908152601d6020526040902054601e54613f2b9160ff9081169116615c8d565b9150600190505b600080600080613f9d8662027101602554614e206103e860268054806020026020016040519081016040528092919081815260200182805480156131f857602002820191906000526020600020908154815260200190600101908083116131e4575050505050614ae9565b93509350935093508560ff168360ff1614613fb757600194505b6023543490613fca9060ff8616906159bd565b811015613fe95760405162461bcd60e51b815260040161108790615ca6565b6004546001600160a01b03166001600160a01b03166108fc8560ff1660235461401291906159bd565b6040518115909202916000818181858888f1935050505015801561403a573d6000803e3d6000fd5b5060008460ff166001600160401b03811115614058576140586151bc565b604051908082528060200260200182016040528015614081578160200160208202803683370190505b50905060008560ff166001600160401b038111156140a1576140a16151bc565b6040519080825280602002602001820160405280156140ca578160200160208202803683370190505b50905060005b8660ff16811015614134576140e58189615911565b8382815181106140f7576140f7615972565b602002602001018181525050600182828151811061411757614117615972565b60209081029190910101528061412c81615988565b9150506140d0565b5061415033838360405180602001604052806000815250614c84565b60005b8660ff168110156141c25733601c600085848151811061417557614175615972565b6020026020010151815260200190815260200160002060006101000a8154816001600160a01b0302191690836001600160a01b0316021790555080806141ba90615988565b915050614153565b508151336000908152601d60205260409020546141e2919060ff16615911565b336000908152601d60205260409020805460ff191660ff92831617905560258690556026805488831692871690811061421d5761421d615972565b90600052602060002001546142329190615911565b60268560ff168154811061424857614248615972565b90600052602060002001819055508560ff166024600082825461426b9190615911565b9091555050602454614e20116134f457602b805462ff0000191662010000179055336000818152601d60205260409020547fdf6bd66365a8c4ede51660159bba6757ea60b0815714ebd8534054d929f3337f9060ff168461353560018b615c8d565b6001600160a01b0385166143545760005b8351811015614352578281815181106142f9576142f9615972565b60200260200101516003600086848151811061431757614317615972565b60200260200101518152602001908152602001600020600082825461433c9190615911565b9091555061434b905081615988565b90506142de565b505b6001600160a01b038416611dc25760005b83518110156137d557600084828151811061438257614382615972565b6020026020010151905060008483815181106143a0576143a0615972565b60200260200101519050600060036000848152602001908152602001600020549050818110156144235760405162461bcd60e51b815260206004820152602860248201527f455243313135353a206275726e20616d6f756e74206578636565647320746f74604482015267616c537570706c7960c01b6064820152608401611087565b6000928352600360205260409092209103905561443f81615988565b9050614365565b6001600160a01b0384163b15611dc25760405163bc197c8160e01b81526001600160a01b0385169063bc197c819061448a9089908990889088908890600401615d18565b6020604051808303816000875af19250505080156144c5575060408051601f3d908101601f191682019092526144c291810190615d76565b60015b614571576144d1615d93565b806308c379a00361450a57506144e5615dae565b806144f0575061450c565b8060405162461bcd60e51b81526004016110879190615142565b505b60405162461bcd60e51b815260206004820152603460248201527f455243313135353a207472616e7366657220746f206e6f6e2d455243313135356044820152732932b1b2b4bb32b91034b6b83632b6b2b73a32b960611b6064820152608401611087565b6001600160e01b0319811663bc197c8160e01b146137d55760405162461bcd60e51b815260040161108790615e37565b60006145f6826040518060400160405280602081526020017f5361666545524332303a206c6f772d6c6576656c2063616c6c206661696c6564815250856001600160a01b0316614ee49092919063ffffffff16565b805190915015612bb557808060200190518101906146149190615e7f565b612bb55760405162461bcd60e51b815260206004820152602a60248201527f5361666545524332303a204552433230206f7065726174696f6e20646964206e6044820152691bdd081cdd58d8d9595960b21b6064820152608401611087565b600081815260036020526040812054151580156146af57506000828152601c60205260408120546146ad906001600160a01b031684611020565b115b156146d057506000908152601c60205260409020546001600160a01b031690565b506000919050565b601a54600090614e206001600160401b039091161061471e5760405162461bcd60e51b81526020600482015260026024820152610ca760f31b6044820152606401611087565b601b5460009061472d906136dc565b905060005b601b5460ff90811690821610156147c257601b5461475290614e206159ea565b601b8360ff168154811061476857614768615972565b9060005260206000200154036147ab57601b5461478790600190615c0a565b8260ff160361479957600091506147b0565b816147a381615e9c565b9250506147b0565b6147c2565b806147ba81615e9c565b915050614732565b60006147d060026064615ebb565b60ff16601b8460ff16815481106147e9576147e9615972565b9060005260206000200154101561485157614808606460ff85166159bd565b601b8460ff168154811061481e5761481e615972565b906000526020600020015460016148359190615911565b6148409060026159bd565b61484a9190615911565b905061494f565b60ff831615801561488f575061486960026064615ebb565b60ff16601b8460ff168154811061488257614882615972565b9060005260206000200154145b156148e457601b8360ff16815481106148aa576148aa615972565b906000526020600020015460026148c19190615911565b601b8460ff16815481106148d7576148d7615972565b6000918252602090912001555b6148f2606460ff85166159bd565b6148fe60026064615ebb565b60ff16601b8560ff168154811061491757614917615972565b906000526020600020015461492c9190615c0a565b6149379060026159bd565b614942906001615911565b61494c9190615911565b90505b6001601b8460ff168154811061496757614967615972565b9060005260206000200160008282546149809190615911565b9091555050601a80546001600160401b031690600061499e83615edd565b91906101000a8154816001600160401b0302191690836001600160401b031602179055505080935050505090565b60008072184f03e93ff9f4daa797ed6e38ed64bf6a1f0160401b8310614a0b5772184f03e93ff9f4daa797ed6e38ed64bf6a1f0160401b830492506040015b6d04ee2d6d415b85acef81000000008310614a37576d04ee2d6d415b85acef8100000000830492506020015b662386f26fc100008310614a5557662386f26fc10000830492506010015b6305f5e1008310614a6d576305f5e100830492506008015b6127108310614a8157612710830492506004015b60648310614a93576064830492506002015b600a83106110b35760010192915050565b600081815b845181101561168057614ad582868381518110614ac857614ac8615972565b6020026020010151614ef3565b915080614ae181615988565b915050614aa9565b600080600080868810614b245760405162461bcd60e51b815260206004820152600360248201526206532360ec1b6044820152606401611087565b6000614b38614b33888a6159ea565b6136dc565b905060005b614b47888a6159ea565b8160ff1614614bc45787878360ff1681518110614b6657614b66615972565b602002602001015103614bad576001614b7f898b6159ea565b614b899190615c0a565b8260ff1603614b9b5760009150614bb2565b81614ba581615e9c565b925050614bb2565b614bc4565b80614bbc81615e9c565b915050614b3d565b6000614bd38960ff85166159bd565b888460ff1681518110614be857614be8615972565b6020026020010151614bfa9190615911565b9050888d60ff16898560ff1681518110614c1657614c16615972565b6020026020010151614c289190615911565b1115614c5957878360ff1681518110614c4357614c43615972565b602002602001015189614c569190615c0a565b9c505b614c668b60ff8f16615911565b9a50614c728c82615911565b9d9a9b50919998505050505050505050565b6001600160a01b038416614caa5760405162461bcd60e51b815260040161108790615cd7565b8151835114614ccb5760405162461bcd60e51b815260040161108790615b05565b33614cdb816000878787876142cd565b60005b8451811015614d7657838181518110614cf957614cf9615972565b6020026020010151600080878481518110614d1657614d16615972565b602002602001015181526020019081526020016000206000886001600160a01b03166001600160a01b031681526020019081526020016000206000828254614d5e9190615911565b90915550819050614d6e81615988565b915050614cde565b50846001600160a01b031660006001600160a01b0316826001600160a01b03167f4a39dc06d4c0dbc64b70af90fd698a233a518aa5d07e595d983b8c0526c8f7fb8787604051614dc7929190615bdc565b60405180910390a461141081600087878787614446565b60408051600180825281830190925260609160009190602080830190803683370190505090508281600081518110614e1857614e18615972565b602090810291909101015292915050565b6001600160a01b0384163b15611dc25760405163f23a6e6160e01b81526001600160a01b0385169063f23a6e6190614e6d9089908990889088908890600401615f03565b6020604051808303816000875af1925050508015614ea8575060408051601f3d908101601f19168201909252614ea591810190615d76565b60015b614eb4576144d1615d93565b6001600160e01b0319811663f23a6e6160e01b146137d55760405162461bcd60e51b815260040161108790615e37565b60606127068484600085614f1f565b6000818310614f0f576000828152602084905260409020611e23565b5060009182526020526040902090565b606082471015614f805760405162461bcd60e51b815260206004820152602660248201527f416464726573733a20696e73756666696369656e742062616c616e636520666f6044820152651c8818d85b1b60d21b6064820152608401611087565b600080866001600160a01b03168587604051614f9c9190615f3d565b60006040518083038185875af1925050503d8060008114614fd9576040519150601f19603f3d011682016040523d82523d6000602084013e614fde565b606091505b5091509150614fef87838387614ffa565b979650505050505050565b60608315615069578251600003615062576001600160a01b0385163b6150625760405162461bcd60e51b815260206004820152601d60248201527f416464726573733a2063616c6c20746f206e6f6e2d636f6e74726163740000006044820152606401611087565b5081612706565b61270683838151156144f05781518083602001fd5b6001600160a01b038116811461144b57600080fd5b600080604083850312156150a657600080fd5b82356150b18161507e565b946020939093013593505050565b6001600160e01b03198116811461144b57600080fd5b6000602082840312156150e757600080fd5b8135611e23816150bf565b60005b8381101561510d5781810151838201526020016150f5565b50506000910152565b6000815180845261512e8160208601602086016150f2565b601f01601f19169290920160200192915050565b602081526000611e236020830184615116565b60006020828403121561516757600080fd5b5035919050565b803560ff8116811461517f57600080fd5b919050565b60006020828403121561519657600080fd5b611e238261516e565b6000602082840312156151b157600080fd5b8135611e238161507e565b634e487b7160e01b600052604160045260246000fd5b601f8201601f191681016001600160401b03811182821017156151f7576151f76151bc565b6040525050565b60006001600160401b03821115615217576152176151bc565b5060051b60200190565b600082601f83011261523257600080fd5b8135602061523f826151fe565b60405161524c82826151d2565b83815260059390931b850182019282810191508684111561526c57600080fd5b8286015b848110156152875780358352918301918301615270565b509695505050505050565b60006001600160401b038311156152ab576152ab6151bc565b6040516152c2601f8501601f1916602001826151d2565b8091508381528484840111156152d757600080fd5b83836020830137600060208583010152509392505050565b600082601f83011261530057600080fd5b611e2383833560208501615292565b600080600080600060a0868803121561532757600080fd5b85356153328161507e565b945060208601356153428161507e565b935060408601356001600160401b038082111561535e57600080fd5b61536a89838a01615221565b9450606088013591508082111561538057600080fd5b61538c89838a01615221565b935060808801359150808211156153a257600080fd5b506153af888289016152ef565b9150509295509295909350565b600080604083850312156153cf57600080fd5b82356153da8161507e565b915060208301356153ea8161507e565b809150509250929050565b6000806040838503121561540857600080fd5b82356001600160401b038082111561541f57600080fd5b818501915085601f83011261543357600080fd5b81356020615440826151fe565b60405161544d82826151d2565b83815260059390931b850182019282810191508984111561546d57600080fd5b948201945b838610156154945785356154858161507e565b82529482019490820190615472565b965050860135925050808211156154aa57600080fd5b506154b785828601615221565b9150509250929050565b600081518084526020808501945080840160005b838110156154f1578151875295820195908201906001016154d5565b509495945050505050565b602081526000611e2360208301846154c1565b6000806040838503121561552257600080fd5b823591506155326020840161516e565b90509250929050565b6000806040838503121561554e57600080fd5b82356001600160401b0381111561556457600080fd5b8301601f8101851361557557600080fd5b61558485823560208401615292565b95602094909401359450505050565b600080604083850312156155a657600080fd5b6155af8361516e565b91506155326020840161516e565b6000806000806000608086880312156155d557600080fd5b85356155e08161507e565b94506155ee6020870161516e565b93506155fc6040870161516e565b925060608601356001600160401b038082111561561857600080fd5b818801915088601f83011261562c57600080fd5b81358181111561563b57600080fd5b8960208260051b850101111561565057600080fd5b9699959850939650602001949392505050565b801515811461144b57600080fd5b6000806040838503121561568457600080fd5b823561568f8161507e565b915060208301356153ea81615663565b600080604083850312156156b257600080fd5b8235915060208301356153ea8161507e565b6000806000606084860312156156d957600080fd5b83356156e48161507e565b92506156f26020850161516e565b91506157006040850161516e565b90509250925092565b600080600080600060a0868803121561572157600080fd5b853561572c8161507e565b9450602086013561573c8161507e565b9350604086013592506060860135915060808601356001600160401b0381111561576557600080fd5b6153af888289016152ef565b600181811c9082168061578557607f821691505b6020821081036157a557634e487b7160e01b600052602260045260246000fd5b50919050565b600080835481600182811c9150808316806157c757607f831692505b602080841082036157e657634e487b7160e01b86526022600452602486fd5b8180156157fa576001811461580f5761583c565b60ff198616895284151585028901965061583c565b60008a81526020902060005b868110156158345781548b82015290850190830161581b565b505084890196505b50505050505061270661585982637b69647d60e01b815260040190565b64173539b7b760d91b815260050190565b60208082526026908201527f5061796d656e7453706c69747465723a206163636f756e7420686173206e6f2060408201526573686172657360d01b606082015260800190565b6020808252602b908201527f5061796d656e7453706c69747465723a206163636f756e74206973206e6f742060408201526a191d59481c185e5b595b9d60aa1b606082015260800190565b634e487b7160e01b600052601160045260246000fd5b808201808211156110b3576110b36158fb565b6020808252602e908201527f455243313135353a2063616c6c6572206973206e6f7420746f6b656e206f776e60408201526d195c881bdc88185c1c1c9bdd995960921b606082015260800190565b634e487b7160e01b600052603260045260246000fd5b60006001820161599a5761599a6158fb565b5060010190565b602080825260029082015261653360f01b604082015260600190565b80820281158282048414176110b3576110b36158fb565b634e487b7160e01b600052601260045260246000fd5b6000826159f9576159f96159d4565b500490565b62ffffff818116838216019080821115615a1a57615a1a6158fb565b5092915050565b62ffffff828116828216039080821115615a1a57615a1a6158fb565b60008351615a4f8184602088016150f2565b600b60fa1b9083019081528351615a6d8160018401602088016150f2565b01600101949350505050565b602080825260029082015261194d60f21b604082015260600190565b602080825260039082015262194c4d60ea1b604082015260600190565b60208082526003908201526265313560e81b604082015260600190565b60208082526003908201526232989b60e91b604082015260600190565b600060208284031215615afe57600080fd5b5051919050565b60208082526028908201527f455243313135353a2069647320616e6420616d6f756e7473206c656e677468206040820152670dad2e6dac2e8c6d60c31b606082015260800190565b60208082526025908201527f455243313135353a207472616e7366657220746f20746865207a65726f206164604082015264647265737360d81b606082015260800190565b6020808252602a908201527f455243313135353a20696e73756666696369656e742062616c616e636520666f60408201526939103a3930b739b332b960b11b606082015260800190565b604081526000615bef60408301856154c1565b8281036020840152615c0181856154c1565b95945050505050565b818103818111156110b3576110b36158fb565b60208082526003908201526265323160e81b604082015260600190565b60208082526003908201526265313760e81b604082015260600190565b6020808252600390820152620ca62760eb1b604082015260600190565b60ff81811683821601908111156110b3576110b36158fb565b60ff82811682821603908111156110b3576110b36158fb565b60208082526003908201526265313960e81b604082015260600190565b600082615cd257615cd26159d4565b500690565b60208082526021908201527f455243313135353a206d696e7420746f20746865207a65726f206164647265736040820152607360f81b606082015260800190565b6001600160a01b0386811682528516602082015260a060408201819052600090615d44908301866154c1565b8281036060840152615d5681866154c1565b90508281036080840152615d6a8185615116565b98975050505050505050565b600060208284031215615d8857600080fd5b8151611e23816150bf565b600060033d1115611be95760046000803e5060005160e01c90565b600060443d1015615dbc5790565b6040516003193d81016004833e81513d6001600160401b038160248401118184111715615deb57505050505090565b8285019150815181811115615e035750505050505090565b843d8701016020828501011115615e1d5750505050505090565b615e2c602082860101876151d2565b509095945050505050565b60208082526028908201527f455243313135353a204552433131353552656365697665722072656a656374656040820152676420746f6b656e7360c01b606082015260800190565b600060208284031215615e9157600080fd5b8151611e2381615663565b600060ff821660ff8103615eb257615eb26158fb565b60010192915050565b600060ff831680615ece57615ece6159d4565b8060ff84160491505092915050565b60006001600160401b03808316818103615ef957615ef96158fb565b6001019392505050565b6001600160a01b03868116825285166020820152604081018490526060810183905260a060808201819052600090614fef90830184615116565b60008251615f4f8184602087016150f2565b919091019291505056fe7b7d25f8a91d07d734c2f45d6dd20e28016c3648b97f80270c65a2a565e62025a2646970667358221220ab0e9debf2a20347ed5c6c3ef16f152afbd5aade81f46ee607a16600810991fe64736f6c63430008110033",
  "linkReferences": {},
  "deployedLinkReferences": {}
}