{
  "_format": "hh-sol-artifact-1",
  "contractName": "Vipsland",
  "sourceName": "contracts/Vipsland.sol",
  "abi": [
    {
      "inputs": [
        {
          "internalType": "address[]",
          "name": "_team",
          "type": "address[]"
        },
        {
          "internalType": "uint256[]",
          "name": "_teamShares",
          "type": "uint256[]"
        },
        {
          "internalType": "string",
          "name": "_notRevealedUri",
          "type": "string"
        },
        {
          "internalType": "string",
          "name": "_revealedUri",
          "type": "string"
        },
        {
          "internalType": "bytes32",
          "name": "merklerootair",
          "type": "bytes32"
        },
        {
          "internalType": "bytes32",
          "name": "merklerootint",
          "type": "bytes32"
        }
      ],
      "stateMutability": "nonpayable",
      "type": "constructor"
    },
    {
      "anonymous": false,
      "inputs": [
        {
          "indexed": true,
          "internalType": "address",
          "name": "account",
          "type": "address"
        },
        {
          "indexed": true,
          "internalType": "address",
          "name": "operator",
          "type": "address"
        },
        {
          "indexed": false,
          "internalType": "bool",
          "name": "approved",
          "type": "bool"
        }
      ],
      "name": "ApprovalForAll",
      "type": "event"
    },
    {
      "anonymous": false,
      "inputs": [
        {
          "indexed": true,
          "internalType": "contract IERC20",
          "name": "token",
          "type": "address"
        },
        {
          "indexed": false,
          "internalType": "address",
          "name": "to",
          "type": "address"
        },
        {
          "indexed": false,
          "internalType": "uint256",
          "name": "amount",
          "type": "uint256"
        }
      ],
      "name": "ERC20PaymentReleased",
      "type": "event"
    },
    {
      "anonymous": false,
      "inputs": [
        {
          "indexed": true,
          "internalType": "address",
          "name": "previousOwner",
          "type": "address"
        },
        {
          "indexed": true,
          "internalType": "address",
          "name": "newOwner",
          "type": "address"
        }
      ],
      "name": "OwnershipTransferred",
      "type": "event"
    },
    {
      "anonymous": false,
      "inputs": [
        {
          "indexed": false,
          "internalType": "address",
          "name": "account",
          "type": "address"
        },
        {
          "indexed": false,
          "internalType": "uint256",
          "name": "shares",
          "type": "uint256"
        }
      ],
      "name": "PayeeAdded",
      "type": "event"
    },
    {
      "anonymous": false,
      "inputs": [
        {
          "indexed": false,
          "internalType": "address",
          "name": "from",
          "type": "address"
        },
        {
          "indexed": false,
          "internalType": "uint256",
          "name": "amount",
          "type": "uint256"
        }
      ],
      "name": "PaymentReceived",
      "type": "event"
    },
    {
      "anonymous": false,
      "inputs": [
        {
          "indexed": false,
          "internalType": "address",
          "name": "to",
          "type": "address"
        },
        {
          "indexed": false,
          "internalType": "uint256",
          "name": "amount",
          "type": "uint256"
        }
      ],
      "name": "PaymentReleased",
      "type": "event"
    },
    {
      "anonymous": false,
      "inputs": [
        {
          "indexed": true,
          "internalType": "address",
          "name": "acc",
          "type": "address"
        },
        {
          "indexed": false,
          "internalType": "uint256",
          "name": "qnt",
          "type": "uint256"
        }
      ],
      "name": "RemainMessageNeeds",
      "type": "event"
    },
    {
      "anonymous": false,
      "inputs": [
        {
          "indexed": true,
          "internalType": "address",
          "name": "operator",
          "type": "address"
        },
        {
          "indexed": true,
          "internalType": "address",
          "name": "from",
          "type": "address"
        },
        {
          "indexed": true,
          "internalType": "address",
          "name": "to",
          "type": "address"
        },
        {
          "indexed": false,
          "internalType": "uint256[]",
          "name": "ids",
          "type": "uint256[]"
        },
        {
          "indexed": false,
          "internalType": "uint256[]",
          "name": "values",
          "type": "uint256[]"
        }
      ],
      "name": "TransferBatch",
      "type": "event"
    },
    {
      "anonymous": false,
      "inputs": [
        {
          "indexed": true,
          "internalType": "address",
          "name": "operator",
          "type": "address"
        },
        {
          "indexed": true,
          "internalType": "address",
          "name": "from",
          "type": "address"
        },
        {
          "indexed": true,
          "internalType": "address",
          "name": "to",
          "type": "address"
        },
        {
          "indexed": false,
          "internalType": "uint256",
          "name": "id",
          "type": "uint256"
        },
        {
          "indexed": false,
          "internalType": "uint256",
          "name": "value",
          "type": "uint256"
        }
      ],
      "name": "TransferSingle",
      "type": "event"
    },
    {
      "anonymous": false,
      "inputs": [
        {
          "indexed": false,
          "internalType": "string",
          "name": "value",
          "type": "string"
        },
        {
          "indexed": true,
          "internalType": "uint256",
          "name": "id",
          "type": "uint256"
        }
      ],
      "name": "URI",
      "type": "event"
    },
    {
      "inputs": [],
      "name": "EACH_RAND_SLOT_NUM_TOTAL_FOR_AIRDROP",
      "outputs": [
        {
          "internalType": "uint256",
          "name": "",
          "type": "uint256"
        }
      ],
      "stateMutability": "view",
      "type": "function"
    },
    {
      "inputs": [],
      "name": "EACH_RAND_SLOT_NUM_TOTAL_FOR_INTERNALTEAM",
      "outputs": [
        {
          "internalType": "uint256",
          "name": "",
          "type": "uint256"
        }
      ],
      "stateMutability": "view",
      "type": "function"
    },
    {
      "inputs": [],
      "name": "EACH_RAND_SLOT_NUM_TOTAL_FOR_PRT",
      "outputs": [
        {
          "internalType": "uint256",
          "name": "",
          "type": "uint256"
        }
      ],
      "stateMutability": "view",
      "type": "function"
    },
    {
      "inputs": [],
      "name": "MAX_PRT_AMOUNT_PER_ACC",
      "outputs": [
        {
          "internalType": "uint8",
          "name": "",
          "type": "uint8"
        }
      ],
      "stateMutability": "view",
      "type": "function"
    },
    {
      "inputs": [],
      "name": "MAX_PRT_AMOUNT_PER_ACC_AIRDROP",
      "outputs": [
        {
          "internalType": "uint8",
          "name": "",
          "type": "uint8"
        }
      ],
      "stateMutability": "view",
      "type": "function"
    },
    {
      "inputs": [],
      "name": "MAX_PRT_AMOUNT_PER_ACC_INTERNAL",
      "outputs": [
        {
          "internalType": "uint8",
          "name": "",
          "type": "uint8"
        }
      ],
      "stateMutability": "view",
      "type": "function"
    },
    {
      "inputs": [],
      "name": "MAX_PRT_AMOUNT_PER_ACC_PER_TRANSACTION",
      "outputs": [
        {
          "internalType": "uint8",
          "name": "",
          "type": "uint8"
        }
      ],
      "stateMutability": "view",
      "type": "function"
    },
    {
      "inputs": [],
      "name": "MAX_PRT_AMOUNT_PER_ACC_PER_TRANSACTION_AIRDROP",
      "outputs": [
        {
          "internalType": "uint8",
          "name": "",
          "type": "uint8"
        }
      ],
      "stateMutability": "view",
      "type": "function"
    },
    {
      "inputs": [],
      "name": "MAX_PRT_AMOUNT_PER_ACC_PER_TRANSACTION_INTERNAL",
      "outputs": [
        {
          "internalType": "uint8",
          "name": "",
          "type": "uint8"
        }
      ],
      "stateMutability": "view",
      "type": "function"
    },
    {
      "inputs": [],
      "name": "MAX_SUPPLY_FOR_AIRDROP_TOKEN",
      "outputs": [
        {
          "internalType": "uint256",
          "name": "",
          "type": "uint256"
        }
      ],
      "stateMutability": "view",
      "type": "function"
    },
    {
      "inputs": [],
      "name": "MAX_SUPPLY_FOR_INTERNALTEAM_TOKEN",
      "outputs": [
        {
          "internalType": "uint256",
          "name": "",
          "type": "uint256"
        }
      ],
      "stateMutability": "view",
      "type": "function"
    },
    {
      "inputs": [],
      "name": "MAX_SUPPLY_FOR_PRT_TOKEN",
      "outputs": [
        {
          "internalType": "uint256",
          "name": "",
          "type": "uint256"
        }
      ],
      "stateMutability": "view",
      "type": "function"
    },
    {
      "inputs": [],
      "name": "MAX_SUPPLY_MP",
      "outputs": [
        {
          "internalType": "uint256",
          "name": "",
          "type": "uint256"
        }
      ],
      "stateMutability": "view",
      "type": "function"
    },
    {
      "inputs": [],
      "name": "NUM_TOTAL_FOR_MP",
      "outputs": [
        {
          "internalType": "uint8",
          "name": "",
          "type": "uint8"
        }
      ],
      "stateMutability": "view",
      "type": "function"
    },
    {
      "inputs": [],
      "name": "PRICE_PRT",
      "outputs": [
        {
          "internalType": "uint256",
          "name": "",
          "type": "uint256"
        }
      ],
      "stateMutability": "view",
      "type": "function"
    },
    {
      "inputs": [],
      "name": "PRICE_PRT_AIRDROP",
      "outputs": [
        {
          "internalType": "uint256",
          "name": "",
          "type": "uint256"
        }
      ],
      "stateMutability": "view",
      "type": "function"
    },
    {
      "inputs": [],
      "name": "PRICE_PRT_INTERNALTEAM",
      "outputs": [
        {
          "internalType": "uint256",
          "name": "",
          "type": "uint256"
        }
      ],
      "stateMutability": "view",
      "type": "function"
    },
    {
      "inputs": [],
      "name": "PRTID",
      "outputs": [
        {
          "internalType": "uint256",
          "name": "",
          "type": "uint256"
        }
      ],
      "stateMutability": "view",
      "type": "function"
    },
    {
      "inputs": [],
      "name": "STARTINGIDFORAIRDROP",
      "outputs": [
        {
          "internalType": "uint256",
          "name": "",
          "type": "uint256"
        }
      ],
      "stateMutability": "view",
      "type": "function"
    },
    {
      "inputs": [],
      "name": "STARTINGIDFORINTERNALTEAM",
      "outputs": [
        {
          "internalType": "uint256",
          "name": "",
          "type": "uint256"
        }
      ],
      "stateMutability": "view",
      "type": "function"
    },
    {
      "inputs": [],
      "name": "STARTINGIDFORPRT",
      "outputs": [
        {
          "internalType": "uint256",
          "name": "",
          "type": "uint256"
        }
      ],
      "stateMutability": "view",
      "type": "function"
    },
    {
      "inputs": [],
      "name": "_counter_for_generatelucky_mp",
      "outputs": [
        {
          "internalType": "uint256",
          "name": "_value",
          "type": "uint256"
        }
      ],
      "stateMutability": "view",
      "type": "function"
    },
    {
      "inputs": [],
      "name": "_counter_for_generatelucky_mp_airdrop",
      "outputs": [
        {
          "internalType": "uint256",
          "name": "_value",
          "type": "uint256"
        }
      ],
      "stateMutability": "view",
      "type": "function"
    },
    {
      "inputs": [],
      "name": "_counter_for_generatelucky_mp_internalteam",
      "outputs": [
        {
          "internalType": "uint256",
          "name": "_value",
          "type": "uint256"
        }
      ],
      "stateMutability": "view",
      "type": "function"
    },
    {
      "inputs": [
        {
          "internalType": "address",
          "name": "account",
          "type": "address"
        },
        {
          "internalType": "uint256",
          "name": "id",
          "type": "uint256"
        }
      ],
      "name": "balanceOf",
      "outputs": [
        {
          "internalType": "uint256",
          "name": "",
          "type": "uint256"
        }
      ],
      "stateMutability": "view",
      "type": "function"
    },
    {
      "inputs": [
        {
          "internalType": "address[]",
          "name": "accounts",
          "type": "address[]"
        },
        {
          "internalType": "uint256[]",
          "name": "ids",
          "type": "uint256[]"
        }
      ],
      "name": "balanceOfBatch",
      "outputs": [
        {
          "internalType": "uint256[]",
          "name": "",
          "type": "uint256[]"
        }
      ],
      "stateMutability": "view",
      "type": "function"
    },
    {
      "inputs": [
        {
          "internalType": "uint256",
          "name": "id",
          "type": "uint256"
        }
      ],
      "name": "exists",
      "outputs": [
        {
          "internalType": "bool",
          "name": "",
          "type": "bool"
        }
      ],
      "stateMutability": "view",
      "type": "function"
    },
    {
      "inputs": [
        {
          "internalType": "uint256",
          "name": "",
          "type": "uint256"
        }
      ],
      "name": "intArrPRTAIRDROP",
      "outputs": [
        {
          "internalType": "uint256",
          "name": "",
          "type": "uint256"
        }
      ],
      "stateMutability": "view",
      "type": "function"
    },
    {
      "inputs": [
        {
          "internalType": "address",
          "name": "account",
          "type": "address"
        },
        {
          "internalType": "address",
          "name": "operator",
          "type": "address"
        }
      ],
      "name": "isApprovedForAll",
      "outputs": [
        {
          "internalType": "bool",
          "name": "",
          "type": "bool"
        }
      ],
      "stateMutability": "view",
      "type": "function"
    },
    {
      "inputs": [],
      "name": "mintAirdropMPIsOpen",
      "outputs": [
        {
          "internalType": "bool",
          "name": "",
          "type": "bool"
        }
      ],
      "stateMutability": "view",
      "type": "function"
    },
    {
      "inputs": [],
      "name": "mintInternalTeamMPIsOpen",
      "outputs": [
        {
          "internalType": "bool",
          "name": "",
          "type": "bool"
        }
      ],
      "stateMutability": "view",
      "type": "function"
    },
    {
      "inputs": [],
      "name": "mintMPIsOpen",
      "outputs": [
        {
          "internalType": "bool",
          "name": "",
          "type": "bool"
        }
      ],
      "stateMutability": "view",
      "type": "function"
    },
    {
      "inputs": [
        {
          "internalType": "address",
          "name": "account",
          "type": "address"
        },
        {
          "internalType": "uint8",
          "name": "qnt",
          "type": "uint8"
        },
        {
          "internalType": "bytes32[]",
          "name": "_proof",
          "type": "bytes32[]"
        }
      ],
      "name": "mintNONMPForAIRDROP",
      "outputs": [],
      "stateMutability": "payable",
      "type": "function"
    },
    {
      "inputs": [
        {
          "internalType": "address",
          "name": "account",
          "type": "address"
        },
        {
          "internalType": "uint8",
          "name": "qnt",
          "type": "uint8"
        },
        {
          "internalType": "bytes32[]",
          "name": "_proof",
          "type": "bytes32[]"
        }
      ],
      "name": "mintNONMPForInternalTeam",
      "outputs": [],
      "stateMutability": "payable",
      "type": "function"
    },
    {
      "inputs": [
        {
          "internalType": "address",
          "name": "account",
          "type": "address"
        },
        {
          "internalType": "uint8",
          "name": "qnt",
          "type": "uint8"
        }
      ],
      "name": "mintNONMPForNormalUser",
      "outputs": [],
      "stateMutability": "payable",
      "type": "function"
    },
    {
      "inputs": [],
      "name": "name",
      "outputs": [
        {
          "internalType": "string",
          "name": "",
          "type": "string"
        }
      ],
      "stateMutability": "view",
      "type": "function"
    },
    {
      "inputs": [],
      "name": "numIssuedForAIRDROP",
      "outputs": [
        {
          "internalType": "uint256",
          "name": "",
          "type": "uint256"
        }
      ],
      "stateMutability": "view",
      "type": "function"
    },
    {
      "inputs": [],
      "name": "numIssuedForInternalTeamIDs",
      "outputs": [
        {
          "internalType": "uint256",
          "name": "",
          "type": "uint256"
        }
      ],
      "stateMutability": "view",
      "type": "function"
    },
    {
      "inputs": [],
      "name": "numIssuedForMP",
      "outputs": [
        {
          "internalType": "uint64",
          "name": "",
          "type": "uint64"
        }
      ],
      "stateMutability": "view",
      "type": "function"
    },
    {
      "inputs": [],
      "name": "numIssuedForNormalUser",
      "outputs": [
        {
          "internalType": "uint256",
          "name": "",
          "type": "uint256"
        }
      ],
      "stateMutability": "view",
      "type": "function"
    },
    {
      "inputs": [],
      "name": "owner",
      "outputs": [
        {
          "internalType": "address",
          "name": "",
          "type": "address"
        }
      ],
      "stateMutability": "view",
      "type": "function"
    },
    {
      "inputs": [
        {
          "internalType": "uint256",
          "name": "index",
          "type": "uint256"
        }
      ],
      "name": "payee",
      "outputs": [
        {
          "internalType": "address",
          "name": "",
          "type": "address"
        }
      ],
      "stateMutability": "view",
      "type": "function"
    },
    {
      "inputs": [],
      "name": "presalePRT",
      "outputs": [
        {
          "internalType": "uint8",
          "name": "",
          "type": "uint8"
        }
      ],
      "stateMutability": "view",
      "type": "function"
    },
    {
      "inputs": [
        {
          "internalType": "uint256",
          "name": "",
          "type": "uint256"
        }
      ],
      "name": "prtPerAddress",
      "outputs": [
        {
          "internalType": "address",
          "name": "",
          "type": "address"
        }
      ],
      "stateMutability": "view",
      "type": "function"
    },
    {
      "inputs": [],
      "name": "qntmintmpforairdrop",
      "outputs": [
        {
          "internalType": "uint256",
          "name": "",
          "type": "uint256"
        }
      ],
      "stateMutability": "view",
      "type": "function"
    },
    {
      "inputs": [],
      "name": "qntmintmpforinternalteam",
      "outputs": [
        {
          "internalType": "uint256",
          "name": "",
          "type": "uint256"
        }
      ],
      "stateMutability": "view",
      "type": "function"
    },
    {
      "inputs": [],
      "name": "qntmintmpfornormaluser",
      "outputs": [
        {
          "internalType": "uint256",
          "name": "",
          "type": "uint256"
        }
      ],
      "stateMutability": "view",
      "type": "function"
    },
    {
      "inputs": [],
      "name": "qntmintnonmpforairdrop",
      "outputs": [
        {
          "internalType": "uint256",
          "name": "",
          "type": "uint256"
        }
      ],
      "stateMutability": "view",
      "type": "function"
    },
    {
      "inputs": [],
      "name": "qntmintnonmpforinternalteam",
      "outputs": [
        {
          "internalType": "uint256",
          "name": "",
          "type": "uint256"
        }
      ],
      "stateMutability": "view",
      "type": "function"
    },
    {
      "inputs": [],
      "name": "qntmintnonmpfornormaluser",
      "outputs": [
        {
          "internalType": "uint256",
          "name": "",
          "type": "uint256"
        }
      ],
      "stateMutability": "view",
      "type": "function"
    },
    {
      "inputs": [
        {
          "internalType": "address",
          "name": "account",
          "type": "address"
        }
      ],
      "name": "releasable",
      "outputs": [
        {
          "internalType": "uint256",
          "name": "",
          "type": "uint256"
        }
      ],
      "stateMutability": "view",
      "type": "function"
    },
    {
      "inputs": [
        {
          "internalType": "contract IERC20",
          "name": "token",
          "type": "address"
        },
        {
          "internalType": "address",
          "name": "account",
          "type": "address"
        }
      ],
      "name": "releasable",
      "outputs": [
        {
          "internalType": "uint256",
          "name": "",
          "type": "uint256"
        }
      ],
      "stateMutability": "view",
      "type": "function"
    },
    {
      "inputs": [
        {
          "internalType": "address payable",
          "name": "account",
          "type": "address"
        }
      ],
      "name": "release",
      "outputs": [],
      "stateMutability": "nonpayable",
      "type": "function"
    },
    {
      "inputs": [
        {
          "internalType": "contract IERC20",
          "name": "token",
          "type": "address"
        },
        {
          "internalType": "address",
          "name": "account",
          "type": "address"
        }
      ],
      "name": "release",
      "outputs": [],
      "stateMutability": "nonpayable",
      "type": "function"
    },
    {
      "inputs": [
        {
          "internalType": "contract IERC20",
          "name": "token",
          "type": "address"
        },
        {
          "internalType": "address",
          "name": "account",
          "type": "address"
        }
      ],
      "name": "released",
      "outputs": [
        {
          "internalType": "uint256",
          "name": "",
          "type": "uint256"
        }
      ],
      "stateMutability": "view",
      "type": "function"
    },
    {
      "inputs": [
        {
          "internalType": "address",
          "name": "account",
          "type": "address"
        }
      ],
      "name": "released",
      "outputs": [
        {
          "internalType": "uint256",
          "name": "",
          "type": "uint256"
        }
      ],
      "stateMutability": "view",
      "type": "function"
    },
    {
      "inputs": [],
      "name": "renounceOwnership",
      "outputs": [],
      "stateMutability": "nonpayable",
      "type": "function"
    },
    {
      "inputs": [],
      "name": "revealed",
      "outputs": [
        {
          "internalType": "bool",
          "name": "",
          "type": "bool"
        }
      ],
      "stateMutability": "view",
      "type": "function"
    },
    {
      "inputs": [],
      "name": "rootair",
      "outputs": [
        {
          "internalType": "bytes32",
          "name": "",
          "type": "bytes32"
        }
      ],
      "stateMutability": "view",
      "type": "function"
    },
    {
      "inputs": [],
      "name": "rootint",
      "outputs": [
        {
          "internalType": "bytes32",
          "name": "",
          "type": "bytes32"
        }
      ],
      "stateMutability": "view",
      "type": "function"
    },
    {
      "inputs": [
        {
          "internalType": "address",
          "name": "from",
          "type": "address"
        },
        {
          "internalType": "address",
          "name": "to",
          "type": "address"
        },
        {
          "internalType": "uint256[]",
          "name": "ids",
          "type": "uint256[]"
        },
        {
          "internalType": "uint256[]",
          "name": "amounts",
          "type": "uint256[]"
        },
        {
          "internalType": "bytes",
          "name": "data",
          "type": "bytes"
        }
      ],
      "name": "safeBatchTransferFrom",
      "outputs": [],
      "stateMutability": "nonpayable",
      "type": "function"
    },
    {
      "inputs": [
        {
          "internalType": "address",
          "name": "from",
          "type": "address"
        },
        {
          "internalType": "address",
          "name": "to",
          "type": "address"
        },
        {
          "internalType": "uint256",
          "name": "id",
          "type": "uint256"
        },
        {
          "internalType": "uint256",
          "name": "amount",
          "type": "uint256"
        },
        {
          "internalType": "bytes",
          "name": "data",
          "type": "bytes"
        }
      ],
      "name": "safeTransferFrom",
      "outputs": [],
      "stateMutability": "nonpayable",
      "type": "function"
    },
    {
      "inputs": [],
      "name": "sendMPAirdrop",
      "outputs": [],
      "stateMutability": "nonpayable",
      "type": "function"
    },
    {
      "inputs": [],
      "name": "sendMPAllDoneForAirdrop",
      "outputs": [
        {
          "internalType": "bool",
          "name": "",
          "type": "bool"
        }
      ],
      "stateMutability": "view",
      "type": "function"
    },
    {
      "inputs": [],
      "name": "sendMPAllDoneForInternalTeam",
      "outputs": [
        {
          "internalType": "bool",
          "name": "",
          "type": "bool"
        }
      ],
      "stateMutability": "view",
      "type": "function"
    },
    {
      "inputs": [],
      "name": "sendMPAllDoneForNormalUsers",
      "outputs": [
        {
          "internalType": "bool",
          "name": "",
          "type": "bool"
        }
      ],
      "stateMutability": "view",
      "type": "function"
    },
    {
      "inputs": [],
      "name": "sendMPInternalTeam",
      "outputs": [],
      "stateMutability": "nonpayable",
      "type": "function"
    },
    {
      "inputs": [],
      "name": "sendMPNormalUsers",
      "outputs": [],
      "stateMutability": "nonpayable",
      "type": "function"
    },
    {
      "inputs": [
        {
          "internalType": "address",
          "name": "operator",
          "type": "address"
        },
        {
          "internalType": "bool",
          "name": "approved",
          "type": "bool"
        }
      ],
      "name": "setApprovalForAll",
      "outputs": [],
      "stateMutability": "nonpayable",
      "type": "function"
    },
    {
      "inputs": [
        {
          "internalType": "bytes32",
          "name": "merkleroot",
          "type": "bytes32"
        },
        {
          "internalType": "uint8",
          "name": "stage",
          "type": "uint8"
        }
      ],
      "name": "setMerkleRoot",
      "outputs": [],
      "stateMutability": "nonpayable",
      "type": "function"
    },
    {
      "inputs": [
        {
          "internalType": "uint256",
          "name": "price",
          "type": "uint256"
        }
      ],
      "name": "setPRICE_PRT",
      "outputs": [],
      "stateMutability": "nonpayable",
      "type": "function"
    },
    {
      "inputs": [
        {
          "internalType": "uint256",
          "name": "price",
          "type": "uint256"
        }
      ],
      "name": "setPRICE_PRT_INTERNALTEAM",
      "outputs": [],
      "stateMutability": "nonpayable",
      "type": "function"
    },
    {
      "inputs": [
        {
          "internalType": "uint8",
          "name": "num",
          "type": "uint8"
        }
      ],
      "name": "setPreSalePRT",
      "outputs": [],
      "stateMutability": "nonpayable",
      "type": "function"
    },
    {
      "inputs": [
        {
          "internalType": "uint8",
          "name": "amount",
          "type": "uint8"
        },
        {
          "internalType": "uint8",
          "name": "amount_per_transaction",
          "type": "uint8"
        }
      ],
      "name": "set_MAX_PRT_AMOUNT_PER_ACC_AND_TRANSACTION_INTERNAL",
      "outputs": [],
      "stateMutability": "nonpayable",
      "type": "function"
    },
    {
      "inputs": [
        {
          "internalType": "address",
          "name": "account",
          "type": "address"
        }
      ],
      "name": "shares",
      "outputs": [
        {
          "internalType": "uint256",
          "name": "",
          "type": "uint256"
        }
      ],
      "stateMutability": "view",
      "type": "function"
    },
    {
      "inputs": [
        {
          "internalType": "bytes4",
          "name": "interfaceId",
          "type": "bytes4"
        }
      ],
      "name": "supportsInterface",
      "outputs": [
        {
          "internalType": "bool",
          "name": "",
          "type": "bool"
        }
      ],
      "stateMutability": "view",
      "type": "function"
    },
    {
      "inputs": [],
      "name": "symbol",
      "outputs": [
        {
          "internalType": "string",
          "name": "",
          "type": "string"
        }
      ],
      "stateMutability": "view",
      "type": "function"
    },
    {
      "inputs": [],
      "name": "toggleMintAirdropMPIsOpen",
      "outputs": [],
      "stateMutability": "nonpayable",
      "type": "function"
    },
    {
      "inputs": [],
      "name": "toggleMintInternalTeamMPIsOpen",
      "outputs": [],
      "stateMutability": "nonpayable",
      "type": "function"
    },
    {
      "inputs": [],
      "name": "toggleMintMPIsOpen",
      "outputs": [],
      "stateMutability": "nonpayable",
      "type": "function"
    },
    {
      "inputs": [],
      "name": "toggleReveal",
      "outputs": [],
      "stateMutability": "nonpayable",
      "type": "function"
    },
    {
      "inputs": [
        {
          "internalType": "contract IERC20",
          "name": "token",
          "type": "address"
        }
      ],
      "name": "totalReleased",
      "outputs": [
        {
          "internalType": "uint256",
          "name": "",
          "type": "uint256"
        }
      ],
      "stateMutability": "view",
      "type": "function"
    },
    {
      "inputs": [],
      "name": "totalReleased",
      "outputs": [
        {
          "internalType": "uint256",
          "name": "",
          "type": "uint256"
        }
      ],
      "stateMutability": "view",
      "type": "function"
    },
    {
      "inputs": [],
      "name": "totalShares",
      "outputs": [
        {
          "internalType": "uint256",
          "name": "",
          "type": "uint256"
        }
      ],
      "stateMutability": "view",
      "type": "function"
    },
    {
      "inputs": [
        {
          "internalType": "uint256",
          "name": "id",
          "type": "uint256"
        }
      ],
      "name": "totalSupply",
      "outputs": [
        {
          "internalType": "uint256",
          "name": "",
          "type": "uint256"
        }
      ],
      "stateMutability": "view",
      "type": "function"
    },
    {
      "inputs": [
        {
          "internalType": "address",
          "name": "newOwner",
          "type": "address"
        }
      ],
      "name": "transferOwnership",
      "outputs": [],
      "stateMutability": "nonpayable",
      "type": "function"
    },
    {
      "inputs": [
        {
          "internalType": "uint256",
          "name": "",
          "type": "uint256"
        }
      ],
      "name": "uri",
      "outputs": [
        {
          "internalType": "string",
          "name": "",
          "type": "string"
        }
      ],
      "stateMutability": "view",
      "type": "function"
    },
    {
      "inputs": [
        {
          "internalType": "address",
          "name": "",
          "type": "address"
        }
      ],
      "name": "userNONMPs",
      "outputs": [
        {
          "internalType": "uint8",
          "name": "",
          "type": "uint8"
        }
      ],
      "stateMutability": "view",
      "type": "function"
    },
    {
      "inputs": [],
      "name": "xrand",
      "outputs": [
        {
          "internalType": "uint8",
          "name": "",
          "type": "uint8"
        }
      ],
      "stateMutability": "view",
      "type": "function"
    },
    {
      "stateMutability": "payable",
      "type": "receive"
    }
  ],
  "bytecode": "0x60c0604052601060809081526f564950534c414e442047454e4553495360801b60a052600d9062000031908262000873565b50604080518082019091526004815263159414d360e21b6020820152600e906200005c908262000873565b506011805460ff1990811690915560006013819055601481905560158190556016805483166012179055601a80546001600160401b0319166004179055601e805461191961ffff199091161790556701b4fbd92b5f8000601f5560208190556021819055602381905560248190556025819055602781905560288190556029819055602b805463ffffffff19169055602f819055603081905560318190556032805462ffffff1916905560338190556034556035805490911690553480156200012457600080fd5b506040516200649d3803806200649d833981016040819052620001479162000b11565b8386868051825114620001bc5760405162461bcd60e51b815260206004820152603260248201527f5061796d656e7453706c69747465723a2070617965657320616e6420736861726044820152710cae640d8cadccee8d040dad2e6dac2e8c6d60731b60648201526084015b60405180910390fd5b60008251116200020f5760405162461bcd60e51b815260206004820152601a60248201527f5061796d656e7453706c69747465723a206e6f207061796565730000000000006044820152606401620001b3565b60005b82518110156200027b576200026683828151811062000235576200023562000bdc565b602002602001015183838151811062000252576200025262000bdc565b6020026020010151620004bf60201b60201c565b80620002728162000c08565b91505062000212565b5050506200028f81620006ab60201b60201c565b506200029b33620006bd565b6001600c558551620002b590602e9060208901906200070f565b50602c829055602d819055600f620002ce858262000873565b506010620002dd848262000873565b50620002ed6064614e2062000c24565b6001600160401b03811115620003075762000307620007ce565b60405190808252806020026020018201604052801562000331578160200160208202803683370190505b5080516200034891601b9160209091019062000779565b506002601b60008154811062000362576200036262000bdc565b6000918252602090912001556200037f612710620222e062000c24565b6001600160401b03811115620003995762000399620007ce565b604051908082528060200260200182016040528015620003c3578160200160208202803683370190505b508051620003da9160229160209091019062000779565b50620003eb6103e8614e2062000c24565b6001600160401b03811115620004055762000405620007ce565b6040519080825280602002602001820160405280156200042f578160200160208202803683370190505b508051620004469160269160209091019062000779565b50620004576104576122b862000c24565b6001600160401b03811115620004715762000471620007ce565b6040519080825280602002602001820160405280156200049b578160200160208202803683370190505b508051620004b291602a9160209091019062000779565b5050505050505062000c63565b6001600160a01b0382166200052c5760405162461bcd60e51b815260206004820152602c60248201527f5061796d656e7453706c69747465723a206163636f756e74206973207468652060448201526b7a65726f206164647265737360a01b6064820152608401620001b3565b600081116200057e5760405162461bcd60e51b815260206004820152601d60248201527f5061796d656e7453706c69747465723a207368617265732061726520300000006044820152606401620001b3565b6001600160a01b03821660009081526002602052604090205415620005fa5760405162461bcd60e51b815260206004820152602b60248201527f5061796d656e7453706c69747465723a206163636f756e7420616c726561647960448201526a206861732073686172657360a81b6064820152608401620001b3565b60048054600181019091557f8a35acfbc15ff81a39ae7d344fd709f28e8600b4aa8c65c6b64bfe7fe36bd19b0180546001600160a01b0319166001600160a01b0384169081179091556000908152600260205260408120829055546200066290829062000c47565b600055604080516001600160a01b0384168152602081018390527f40c340f65e17194d14ddddb073d3c9f888e3cb52b5aae0c6c7706b4fbc905fac910160405180910390a15050565b6009620006b9828262000873565b5050565b600b80546001600160a01b038381166001600160a01b0319831681179093556040519116919082907f8be0079c531659141344cd1fd0a4f28419497f9722a3daafe3b4186f6b6457e090600090a35050565b82805482825590600052602060002090810192821562000767579160200282015b828111156200076757825182546001600160a01b0319166001600160a01b0390911617825560209092019160019091019062000730565b5062000775929150620007b7565b5090565b82805482825590600052602060002090810192821562000767579160200282015b82811115620007675782518255916020019190600101906200079a565b5b80821115620007755760008155600101620007b8565b634e487b7160e01b600052604160045260246000fd5b600181811c90821680620007f957607f821691505b6020821081036200081a57634e487b7160e01b600052602260045260246000fd5b50919050565b601f8211156200086e57600081815260208120601f850160051c81016020861015620008495750805b601f850160051c820191505b818110156200086a5782815560010162000855565b5050505b505050565b81516001600160401b038111156200088f576200088f620007ce565b620008a781620008a08454620007e4565b8462000820565b602080601f831160018114620008df5760008415620008c65750858301515b600019600386901b1c1916600185901b1785556200086a565b600085815260208120601f198616915b828110156200091057888601518255948401946001909101908401620008ef565b50858210156200092f5787850151600019600388901b60f8161c191681555b5050505050600190811b01905550565b604051601f8201601f191681016001600160401b03811182821017156200096a576200096a620007ce565b604052919050565b60006001600160401b038211156200098e576200098e620007ce565b5060051b60200190565b600082601f830112620009aa57600080fd5b81516020620009c3620009bd8362000972565b6200093f565b82815260059290921b84018101918181019086841115620009e357600080fd5b8286015b8481101562000a175780516001600160a01b038116811462000a095760008081fd5b8352918301918301620009e7565b509695505050505050565b600082601f83011262000a3457600080fd5b8151602062000a47620009bd8362000972565b82815260059290921b8401810191818101908684111562000a6757600080fd5b8286015b8481101562000a17578051835291830191830162000a6b565b600082601f83011262000a9657600080fd5b81516001600160401b0381111562000ab25762000ab2620007ce565b602062000ac8601f8301601f191682016200093f565b828152858284870101111562000add57600080fd5b60005b8381101562000afd57858101830151828201840152820162000ae0565b506000928101909101919091529392505050565b60008060008060008060c0878903121562000b2b57600080fd5b86516001600160401b038082111562000b4357600080fd5b62000b518a838b0162000998565b9750602089015191508082111562000b6857600080fd5b62000b768a838b0162000a22565b9650604089015191508082111562000b8d57600080fd5b62000b9b8a838b0162000a84565b9550606089015191508082111562000bb257600080fd5b5062000bc189828a0162000a84565b9350506080870151915060a087015190509295509295509295565b634e487b7160e01b600052603260045260246000fd5b634e487b7160e01b600052601160045260246000fd5b60006001820162000c1d5762000c1d62000bf2565b5060010190565b60008262000c4257634e487b7160e01b600052601260045260246000fd5b500490565b8082018082111562000c5d5762000c5d62000bf2565b92915050565b61582a8062000c736000396000f3fe6080604052600436106104d85760003560e01c80637a1d48f411610281578063bd85b0391161015a578063da8ab071116100cc578063e67ff55211610085578063e67ff55214610e4b578063e985e9c514610e62578063f242432a14610eab578063f2fde38b14610ecb578063fd30116514610eeb578063fe47d7f214610efe57600080fd5b8063da8ab07114610db9578063db9a850914610dce578063defb1d4514610de4578063df8c6cd314610e03578063e33b7de314610e23578063e3b96cae14610e3857600080fd5b8063cd0b99cd1161011e578063cd0b99cd146107af578063ce7c2ac214610cf7578063cea8f9c014610d2d578063cffbd26f14610d4d578063d79779b214610d83578063d7abf186146106d357600080fd5b8063bd85b03914610c7d578063c45ac05014610caa578063c7a3b01314610cca578063c82190c414610ce0578063c9b4f6ef146107db57600080fd5b80639852595c116101f3578063a57674e7116101b7578063a57674e714610bee578063a882fea414610c03578063b0bd6fe114610c18578063b1feb18d14610c2e578063b247796414610c48578063b861639414610c6757600080fd5b80639852595c14610b4c5780639daf187214610b825780639e26975714610b97578063a22cb46514610bae578063a3f8eace14610bce57600080fd5b80638913fbe0116102455780638913fbe014610ab85780638b83209b14610ace5780638da5cb5b14610b0657806395d89b4114610b2457806395f7d64114610b3957806397c66270146107af57600080fd5b80637a1d48f414610a335780637d46d87014610a535780637de1c2be14610a6857806382a3169314610a825780638515c7ac14610a9857600080fd5b80632fef4579116103b357806351830227116103255780636bfcf578116102e95780636bfcf578146109a65780636c5959e3146109bb5780636e27b972146109d1578063715018a6146109e857806375d909ef146109fd5780637862ed6414610a1357600080fd5b806351830227146109205780635308ca781461093a5780635b8ad429146109505780635de701f9146109655780636797fdda1461098657600080fd5b8063438d4bc111610377578063438d4bc11461086157806344c3c7b91461087757806348b750441461088e5780634a098124146108ae5780634e1273f4146108c45780634f558e79146108f157600080fd5b80632fef4579146107c5578063380b5f75146107db578063395dcb64146107f05780633a98ef3914610806578063406072a91461081b57600080fd5b80631902aa4a1161044c5780632a37e4af116104105780632a37e4af1461072e5780632b2be7f5146107455780632d187ef7146107645780632d23bf5a146107795780632eb2c2d61461078f5780632fcf9d4b146107af57600080fd5b80631902aa4a1461067b57806319165587146106b357806319f32a50146106d357806320c6974e146106fa57806328b33aae1461071457600080fd5b806306fdde031161049e57806306fdde03146105d5578063070ccbde146105f75780630e89341c1461060d578063108241181461062d57806310dd92471461064f57806311e6fb631461066557600080fd5b806201d05b14610526578062fdd58e1461054f578063015532081461056f57806301ffc9a71461059f57806304bf41d8146105bf57600080fd5b36610521577f6ef95f06320e7a25a04a175ca677b7052bdd97131872c2192525a629f51be77033604080516001600160a01b0390921682523460208301520160405180910390a1005b600080fd5b34801561053257600080fd5b5061053c60205481565b6040519081526020015b60405180910390f35b34801561055b57600080fd5b5061053c61056a366004614a2b565b610f2e565b34801561057b57600080fd5b50602b5461058f9062010000900460ff1681565b6040519015158152602001610546565b3480156105ab57600080fd5b5061058f6105ba366004614a6d565b610fc9565b3480156105cb57600080fd5b5061053c614e2181565b3480156105e157600080fd5b506105ea611019565b6040516105469190614ada565b34801561060357600080fd5b5061053c602c5481565b34801561061957600080fd5b506105ea610628366004614aed565b6110a7565b34801561063957600080fd5b5061064d610648366004614b1c565b611173565b005b34801561065b57600080fd5b5061053c60145481565b34801561067157600080fd5b5061053c60135481565b34801561068757600080fd5b50601a5461069b906001600160401b031681565b6040516001600160401b039091168152602001610546565b3480156106bf57600080fd5b5061064d6106ce366004614b37565b6111cd565b3480156106df57600080fd5b506106e8600381565b60405160ff9091168152602001610546565b34801561070657600080fd5b506016546106e89060ff1681565b34801561072057600080fd5b50601e546106e89060ff1681565b34801561073a57600080fd5b5060185461053c9081565b34801561075157600080fd5b50601e546106e890610100900460ff1681565b34801561077057600080fd5b5061064d6112b4565b34801561078557600080fd5b5061053c60155481565b34801561079b57600080fd5b5061064d6107aa366004614c9d565b6112db565b3480156107bb57600080fd5b5061053c614e2081565b3480156107d157600080fd5b5061053c60215481565b3480156107e757600080fd5b506106e8606481565b3480156107fc57600080fd5b5061053c6103e881565b34801561081257600080fd5b5060005461053c565b34801561082757600080fd5b5061053c610836366004614d4a565b6001600160a01b03918216600090815260066020908152604080832093909416825291909152205490565b34801561086d57600080fd5b5061053c60275481565b34801561088357600080fd5b5061053c620222e081565b34801561089a57600080fd5b5061064d6108a9366004614d4a565b611327565b3480156108ba57600080fd5b5061053c60245481565b3480156108d057600080fd5b506108e46108df366004614d83565b611438565b6040516105469190614e8a565b3480156108fd57600080fd5b5061058f61090c366004614aed565b6000908152600a6020526040902054151590565b34801561092c57600080fd5b5060115461058f9060ff1681565b34801561094657600080fd5b5061053c61271081565b34801561095c57600080fd5b5061064d611561565b34801561097157600080fd5b50602b5461058f906301000000900460ff1681565b34801561099257600080fd5b5061064d6109a1366004614e9d565b61157d565b3480156109b257600080fd5b5061064d6115ab565b3480156109c757600080fd5b5061053c601f5481565b3480156109dd57600080fd5b5060175461053c9081565b3480156109f457600080fd5b5061064d6115d4565b348015610a0957600080fd5b5061053c60235481565b348015610a1f57600080fd5b5061064d610a2e366004614aed565b6115e8565b348015610a3f57600080fd5b5061064d610a4e366004614aed565b6115f5565b348015610a5f57600080fd5b5061064d611602565b348015610a7457600080fd5b50602b546106e89060ff1681565b348015610a8e57600080fd5b5061053c6122b881565b348015610aa457600080fd5b5061064d610ab3366004614ec9565b6119bb565b348015610ac457600080fd5b5061053c60295481565b348015610ada57600080fd5b50610aee610ae9366004614aed565b611a23565b6040516001600160a01b039091168152602001610546565b348015610b1257600080fd5b50600b546001600160a01b0316610aee565b348015610b3057600080fd5b506105ea611a53565b61064d610b47366004614ef3565b611a60565b348015610b5857600080fd5b5061053c610b67366004614b37565b6001600160a01b031660009081526003602052604090205490565b348015610b8e57600080fd5b506106e8602381565b348015610ba357600080fd5b5060195461053c9081565b348015610bba57600080fd5b5061064d610bc9366004614f1f565b611fe7565b348015610bda57600080fd5b5061053c610be9366004614b37565b611ff2565b348015610bfa57600080fd5b5061064d61203a565b348015610c0f57600080fd5b5061064d612368565b348015610c2457600080fd5b5061053c602d5481565b348015610c3a57600080fd5b5060325461058f9060ff1681565b348015610c5457600080fd5b5060325461058f90610100900460ff1681565b348015610c7357600080fd5b5061053c60255481565b348015610c8957600080fd5b5061053c610c98366004614aed565b6000908152600a602052604090205490565b348015610cb657600080fd5b5061053c610cc5366004614d4a565b612716565b348015610cd657600080fd5b5061053c61045781565b348015610cec57600080fd5b5061053c6202710181565b348015610d0357600080fd5b5061053c610d12366004614b37565b6001600160a01b031660009081526002602052604090205490565b348015610d3957600080fd5b5060325461058f9062010000900460ff1681565b348015610d5957600080fd5b50610aee610d68366004614aed565b601c602052600090815260409020546001600160a01b031681565b348015610d8f57600080fd5b5061053c610d9e366004614b37565b6001600160a01b031660009081526005602052604090205490565b348015610dc557600080fd5b5061064d6127e1565b348015610dda57600080fd5b5061053c60285481565b348015610df057600080fd5b50602b5461058f90610100900460ff1681565b348015610e0f57600080fd5b5061053c610e1e366004614aed565b612806565b348015610e2f57600080fd5b5060015461053c565b61064d610e46366004614f4d565b612827565b348015610e5757600080fd5b5061053c6202bf2181565b348015610e6e57600080fd5b5061058f610e7d366004614d4a565b6001600160a01b03918216600090815260086020908152604080832093909416825291909152205460ff1690565b348015610eb757600080fd5b5061064d610ec6366004614fdf565b612e28565b348015610ed757600080fd5b5061064d610ee6366004614b37565b612e6d565b61064d610ef9366004614f4d565b612ee6565b348015610f0a57600080fd5b506106e8610f19366004614b37565b601d6020526000908152604090205460ff1681565b60006001600160a01b038316610f9e5760405162461bcd60e51b815260206004820152602a60248201527f455243313135353a2061646472657373207a65726f206973206e6f742061207660448201526930b634b21037bbb732b960b11b60648201526084015b60405180910390fd5b5060008181526007602090815260408083206001600160a01b03861684529091529020545b92915050565b60006001600160e01b03198216636cdb3d1360e11b1480610ffa57506001600160e01b031982166303a24d0760e21b145b80610fc357506301ffc9a760e01b6001600160e01b0319831614610fc3565b600d805461102690615047565b80601f016020809104026020016040519081016040528092919081815260200182805461105290615047565b801561109f5780601f106110745761010080835404028352916020019161109f565b820191906000526020600020905b81548152906001019060200180831161108257829003601f168201915b505050505081565b60115460609060ff16151560000361114b57600f80546110c690615047565b80601f01602080910402602001604051908101604052809291908181526020018280546110f290615047565b801561113f5780601f106111145761010080835404028352916020019161113f565b820191906000526020600020905b81548152906001019060200180831161112257829003601f168201915b50505050509050919050565b601060405160200161115d9190615081565b6040516020818303038152906040529050919050565b61117b61347b565b60ff811660078111156111b65760405162461bcd60e51b815260206004820152600360248201526232991960e91b6044820152606401610f95565b50602b805460ff191660ff92909216919091179055565b6001600160a01b0381166000908152600260205260409020546112025760405162461bcd60e51b8152600401610f9590615140565b600061120d82611ff2565b90508060000361122f5760405162461bcd60e51b8152600401610f9590615186565b806001600082825461124191906151e7565b90915550506001600160a01b038216600090815260036020526040902080548201905561126e82826134d5565b604080516001600160a01b0384168152602081018390527fdf20fd1e76bc69d672e4814fafb2c449bba3a5369d8359adf9e05e6fde87b056910160405180910390a15050565b6112bc61347b565b602b805462ff0000198116620100009182900460ff1615909102179055565b6001600160a01b0385163314806112f757506112f78533610e7d565b6113135760405162461bcd60e51b8152600401610f95906151fa565b61132085858585856135ee565b5050505050565b6001600160a01b03811660009081526002602052604090205461135c5760405162461bcd60e51b8152600401610f9590615140565b60006113688383612716565b90508060000361138a5760405162461bcd60e51b8152600401610f9590615186565b6001600160a01b038316600090815260056020526040812080548392906113b29084906151e7565b90915550506001600160a01b0380841660009081526006602090815260408083209386168352929052208054820190556113ed83838361379b565b604080516001600160a01b038481168252602082018490528516917f3be5b7a71e84ed12875d241991c70855ac5817d847039e17a9d895c1ceb0f18a910160405180910390a2505050565b6060815183511461149d5760405162461bcd60e51b815260206004820152602960248201527f455243313135353a206163636f756e747320616e6420696473206c656e677468604482015268040dad2e6dac2e8c6d60bb1b6064820152608401610f95565b600083516001600160401b038111156114b8576114b8614b54565b6040519080825280602002602001820160405280156114e1578160200160208202803683370190505b50905060005b84518110156115595761152c85828151811061150557611505615248565b602002602001015185838151811061151f5761151f615248565b6020026020010151610f2e565b82828151811061153e5761153e615248565b60209081029190910101526115528161525e565b90506114e7565b509392505050565b61156961347b565b6011805460ff19811660ff90911615179055565b61158561347b565b8060ff1660020361159657602d8290555b8060ff166001036115a757602c8290555b5050565b6115b361347b565b602b805463ff00000019811663010000009182900460ff1615909102179055565b6115dc61347b565b6115e660006137ed565b565b6115f061347b565b602355565b6115fd61347b565b601f55565b3332146116215760405162461bcd60e51b8152600401610f9590615277565b61162961347b565b602b546301000000900460ff166116675760405162461bcd60e51b8152602060048201526002602482015261329b60f11b6044820152606401610f95565b60325460ff1615156001146116a45760405162461bcd60e51b815260206004820152600360248201526232989960e91b6044820152606401610f95565b603254610100900460ff16156116e25760405162461bcd60e51b815260206004820152600360248201526265313360e81b6044820152606401610f95565b6116f0601980546001019055565b60006116fb60195490565b9050600061170a60335461383f565b6035805460ff191660ff93909316929092179091556031549091505b611732836103e8615293565b8110156119a757603554600090819060ff1660010361182d5761271061175b84620293b8615293565b61176591906152c0565b60165462ffffff919091169060ff16614e2061178487620271006152d4565b62ffffff1661179391906151e7565b61179e9060016151e7565b6117a891906151e7565b6117b291906151e7565b90506127106117c484620293b8615293565b6117cf9060016151e7565b6117d991906152c0565b60165462ffffff919091169060ff16614e206117f887620271006152d4565b62ffffff1661180791906151e7565b6118129060016151e7565b61181c91906151e7565b61182691906151e7565b915061190b565b61271061183d84620293b8615293565b61184791906152c0565b60165462ffffff919091169060ff16614e2061186687620271006152f7565b62ffffff1661187591906151e7565b6118809060016151e7565b61188a91906151e7565b61189491906151e7565b90506127106118a684620293b8615293565b6118b19060016151e7565b6118bb91906152c0565b60165462ffffff919091169060ff16614e206118da87620271006152f7565b62ffffff166118e991906151e7565b6118f49060016151e7565b6118fe91906151e7565b61190891906151e7565b91505b60006122b8614e20611920620222e0826151e7565b61192a91906151e7565b61193491906151e7565b9050808362ffffff16118061194d5750808262ffffff16115b6032805461ff0019166101009215158302179081905560ff9190041615611976575050506119a7565b60165460155461198d918491849160ff16906138f2565b6015555082915061199f90508161525e565b915050611726565b506119b4826103e8615293565b6031555050565b6119c361347b565b8160ff168160ff1611156119ff5760405162461bcd60e51b815260206004820152600360248201526265323360e81b6044820152606401610f95565b601e805460ff9283166101000261ffff199091169290931691909117919091179055565b600060048281548110611a3857611a38615248565b6000918252602090912001546001600160a01b031692915050565b600e805461102690615047565b81336001600160a01b03821614611a895760405162461bcd60e51b8152600401610f9590615313565b333214611aa85760405162461bcd60e51b8152600401610f9590615277565b602b5460ff16600003611acd5760405162461bcd60e51b8152600401610f959061532f565b611ad5613972565b60008260ff1611611af85760405162461bcd60e51b8152600401610f959061534c565b33611b155760405162461bcd60e51b8152600401610f9590615369565b602b54600090600490811614611b3d5760405162461bcd60e51b8152600401610f9590615386565b336000908152601d6020526040902054606460ff9091161115611b725760405162461bcd60e51b8152600401610f95906153a3565b602360ff84161115611b965760405162461bcd60e51b8152600401610f95906153c0565b336000908152601d6020526040902054606490611bb790859060ff166153dd565b60ff161115611be557336000908152601d6020526040902054611bde9060ff1660646153f6565b9250600190505b600080600080611c5287614e21602154620222e06127106022805480602002602001604051908101604052809291908181526020018280548015611c4857602002820191906000526020600020905b815481526020019060010190808311611c34575b50505050506139cb565b93509350935093508660ff168360ff1614611c6c57600194505b601f54600560ff851610801590611c875750600a8460ff1611155b15611cae576005601f546004611c9d9190615293565b611ca791906152c0565b9050611cd8565b600a8460ff161115611cd8576005601f546003611ccb9190615293565b611cd591906152c0565b90505b34611ce660ff861683615293565b811015611d055760405162461bcd60e51b8152600401610f959061540f565b60008560ff166001600160401b03811115611d2257611d22614b54565b604051908082528060200260200182016040528015611d4b578160200160208202803683370190505b50905060008660ff166001600160401b03811115611d6b57611d6b614b54565b604051908082528060200260200182016040528015611d94578160200160208202803683370190505b50905060005b8760ff16811015611dfe57611daf818a6151e7565b838281518110611dc157611dc1615248565b6020026020010181815250506001828281518110611de157611de1615248565b602090810291909101015280611df68161525e565b915050611d9a565b50611e1a33838360405180602001604052806000815250613b66565b306108fc611e2b60ff8a1687615293565b6040518115909202916000818181858888f19350505050158015611e53573d6000803e3d6000fd5b5060005b8760ff16811015611ec65733601c6000858481518110611e7957611e79615248565b6020026020010151815260200190815260200160002060006101000a8154816001600160a01b0302191690836001600160a01b031602179055508080611ebe9061525e565b915050611e57565b508151336000908152601d6020526040902054611ee6919060ff166151e7565b336000908152601d60205260409020805460ff191660ff928316179055602187905560228054898316928816908110611f2157611f21615248565b9060005260206000200154611f3691906151e7565b60228660ff1681548110611f4c57611f4c615248565b90600052602060002001819055508660ff1660206000828254611f6f91906151e7565b9091555050602054620222e011611f9057602b805461ff0019166101001790555b8815611fcf5760405160ff8816815233907faf3c443bb05b163e7d42de9f4b11bdbfa307cad571a1ae5013e5e2ee92e66ed29060200160405180910390a25b505050505050505050611fe26001600c55565b505050565b6115a7338383613cc1565b600080611ffe60015490565b61200890476151e7565b9050612033838261202e866001600160a01b031660009081526003602052604090205490565b613da1565b9392505050565b3332146120595760405162461bcd60e51b8152600401610f9590615277565b61206161347b565b602b54610100900460ff1661209d5760405162461bcd60e51b8152602060048201526002602482015261653560f01b6044820152606401610f95565b60325460ff16156120d55760405162461bcd60e51b8152602060048201526002602482015261653960f01b6044820152606401610f95565b60165460ff16601203612101576120ec6011613ddc565b6016805460ff191660ff929092169190911790555b61210f601780546001019055565b600061211a60175490565b602f549091506000905b612130836103e8615293565b81101561235457600061271061214983620293b8615293565b61215391906152c0565b60165462ffffff919091169060ff1661216f614e2060016151e7565b61217991906151e7565b61218391906151e7565b90506000612196620222e0614e206151e7565b905060006127106121aa85620293b8615293565b6121b59060016151e7565b6121bf91906152c0565b60165462ffffff919091169060ff166121db614e2060016151e7565b6121e591906151e7565b6121ef91906151e7565b9050818162ffffff1611806122085750818362ffffff16115b6032805460ff1916911515918217905560ff16156123225762ffffff811660338190556000906122379061383f565b6035805460ff90931660ff199093168317905591506001036122b85761226361271063bf4380416152c0565b60165462ffffff919091169060ff16614e2061228284620222e06152d4565b62ffffff1661229191906151e7565b61229c9060016151e7565b6122a691906151e7565b6122b091906151e7565b603455612319565b6122c861271063bf4380416152c0565b60165462ffffff919091169060ff16614e206122e784620222e06152f7565b62ffffff166122f691906151e7565b6123019060016151e7565b61230b91906151e7565b61231591906151e7565b6034555b50505050612354565b601654601354612339918591859160ff16906138f2565b6013555090925081905061234c8161525e565b915050612124565b50612361826103e8615293565b602f555050565b3332146123875760405162461bcd60e51b8152600401610f9590615277565b61238f61347b565b602b5462010000900460ff166123cc5760405162461bcd60e51b8152602060048201526002602482015261653760f01b6044820152606401610f95565b60325460ff1615156001146124095760405162461bcd60e51b815260206004820152600360248201526206531360ec1b6044820152606401610f95565b60325462010000900460ff16156124485760405162461bcd60e51b815260206004820152600360248201526265313160e81b6044820152606401610f95565b612456601880546001019055565b600061246160185490565b9050600061247060335461383f565b6035805460ff191660ff93909316929092179091556030549091505b612498836103e8615293565b81101561270257603554600090819060ff16600103612593576127106124c184620293b8615293565b6124cb91906152c0565b60165462ffffff919091169060ff16614e206124ea87620222e06152d4565b62ffffff166124f991906151e7565b6125049060016151e7565b61250e91906151e7565b61251891906151e7565b915061271061252a84620293b8615293565b6125359060016151e7565b61253f91906152c0565b60165462ffffff919091169060ff16614e2061255e87620222e06152d4565b62ffffff1661256d91906151e7565b6125789060016151e7565b61258291906151e7565b61258c91906151e7565b9050612671565b6127106125a384620293b8615293565b6125ad91906152c0565b60165462ffffff919091169060ff16614e206125cc87620222e06152f7565b62ffffff166125db91906151e7565b6125e69060016151e7565b6125f091906151e7565b6125fa91906151e7565b915061271061260c84620293b8615293565b6126179060016151e7565b61262191906152c0565b60165462ffffff919091169060ff16614e2061264087620222e06152f7565b62ffffff1661264f91906151e7565b61265a9060016151e7565b61266491906151e7565b61266e91906151e7565b90505b6000614e20612683620222e0826151e7565b61268d91906151e7565b9050808262ffffff1611806126a65750808362ffffff16115b6032805462ff00001916620100009215158302179081905560ff91900416156126d157505050612702565b6016546014546126e8918591849160ff16906138f2565b601455508291506126fa90508161525e565b91505061248c565b5061270f826103e8615293565b6030555050565b6001600160a01b03821660009081526005602052604081205481906040516370a0823160e01b81523060048201526001600160a01b038616906370a0823190602401602060405180830381865afa158015612775573d6000803e3d6000fd5b505050506040513d601f19601f82011682018060405250810190612799919061542c565b6127a391906151e7565b6001600160a01b038086166000908152600660209081526040808320938816835292905220549091506127d99084908390613da1565b949350505050565b6127e961347b565b602b805461ff001981166101009182900460ff1615909102179055565b602a818154811061281657600080fd5b600091825260209091200154905081565b83336001600160a01b038216146128505760405162461bcd60e51b8152600401610f9590615313565b33321461286f5760405162461bcd60e51b8152600401610f9590615277565b602b5460ff166000036128945760405162461bcd60e51b8152600401610f959061532f565b61289c613972565b8282600261292683838080602002602001604051908101604052809392919081815260200183836020028082843760009201919091525050505060ff83166001146128e957602d546128ed565b602c545b6040516bffffffffffffffffffffffff193360601b16602082015260340160405160208183030381529060405280519060200120613df5565b151560011461295d5760405162461bcd60e51b8152602060048201526003602482015262194c8d60ea1b6044820152606401610f95565b60008760ff16116129805760405162461bcd60e51b8152600401610f959061534c565b3361299d5760405162461bcd60e51b8152600401610f9590615369565b602b546000906002908116146129c55760405162461bcd60e51b8152600401610f9590615386565b601e54336000908152601d602052604090205460ff918216911611156129fd5760405162461bcd60e51b8152600401610f95906153a3565b601e5460ff61010090910481169089161115612a2b5760405162461bcd60e51b8152600401610f95906153c0565b601e54336000908152601d602052604090205460ff91821691612a50918b91166153dd565b60ff161115612a8357336000908152601d6020526040902054601e54612a7c9160ff90811691166153f6565b9750600190505b600080600080612aee8c62027101602554614e206103e86026805480602002602001604051908101604052809291908181526020018280548015611c485760200282019190600052602060002090815481526020019060010190808311611c345750505050506139cb565b93509350935093508b60ff168360ff1614612b0857600194505b6023543490612b1b9060ff861690615293565b811015612b3a5760405162461bcd60e51b8152600401610f959061540f565b60008460ff166001600160401b03811115612b5757612b57614b54565b604051908082528060200260200182016040528015612b80578160200160208202803683370190505b50905060008560ff166001600160401b03811115612ba057612ba0614b54565b604051908082528060200260200182016040528015612bc9578160200160208202803683370190505b50905060005b8660ff16811015612c3357612be481896151e7565b838281518110612bf657612bf6615248565b6020026020010181815250506001828281518110612c1657612c16615248565b602090810291909101015280612c2b8161525e565b915050612bcf565b50612c4f33838360405180602001604052806000815250613b66565b306001600160a01b03166108fc8760ff16602354612c6d9190615293565b6040518115909202916000818181858888f19350505050158015612c95573d6000803e3d6000fd5b5060005b8660ff16811015612d085733601c6000858481518110612cbb57612cbb615248565b6020026020010151815260200190815260200160002060006101000a8154816001600160a01b0302191690836001600160a01b031602179055508080612d009061525e565b915050612c99565b508151336000908152601d6020526040902054612d28919060ff166151e7565b336000908152601d60205260409020805460ff191660ff928316179055602586905560268054888316928716908110612d6357612d63615248565b9060005260206000200154612d7891906151e7565b60268560ff1681548110612d8e57612d8e615248565b90600052602060002001819055508560ff1660246000828254612db191906151e7565b9091555050602454614e2011612dd357602b805462ff00001916620100001790555b8715612e135760405160ff8716815233907faf3c443bb05b163e7d42de9f4b11bdbfa307cad571a1ae5013e5e2ee92e66ed2906020015b60405180910390a25b50505050505050505050506113206001600c55565b6001600160a01b038516331480612e445750612e448533610e7d565b612e605760405162461bcd60e51b8152600401610f95906151fa565b6113208585858585613e0b565b612e7561347b565b6001600160a01b038116612eda5760405162461bcd60e51b815260206004820152602660248201527f4f776e61626c653a206e6577206f776e657220697320746865207a65726f206160448201526564647265737360d01b6064820152608401610f95565b612ee3816137ed565b50565b83336001600160a01b03821614612f0f5760405162461bcd60e51b8152600401610f9590615313565b333214612f2e5760405162461bcd60e51b8152600401610f9590615277565b602b5460ff16600003612f535760405162461bcd60e51b8152600401610f959061532f565b612f5b613972565b82826001612fa883838080602002602001604051908101604052809392919081815260200183836020028082843760009201919091525050505060ff83166001146128e957602d546128ed565b1515600114612fdf5760405162461bcd60e51b8152602060048201526003602482015262194c8d60ea1b6044820152606401610f95565b60008760ff16116130025760405162461bcd60e51b8152600401610f959061534c565b3361301f5760405162461bcd60e51b8152600401610f9590615369565b602b546000906001908116146130475760405162461bcd60e51b8152600401610f9590615386565b336000908152601d6020526040902054600360ff909116111561307c5760405162461bcd60e51b8152600401610f95906153a3565b600360ff891611156130a05760405162461bcd60e51b8152600401610f95906153c0565b336000908152601d60205260409020546003906130c1908a9060ff166153dd565b60ff1611156130ef57336000908152601d60205260409020546130e89060ff1660036153f6565b9750600190505b60008060008061315a8c6202bf216029546122b8610457602a805480602002602001604051908101604052809291908181526020018280548015611c485760200282019190600052602060002090815481526020019060010190808311611c345750505050506139cb565b93509350935093508b60ff168360ff161461317457600194505b60275434906131879060ff861690615293565b8110156131a65760405162461bcd60e51b8152600401610f959061540f565b60008460ff166001600160401b038111156131c3576131c3614b54565b6040519080825280602002602001820160405280156131ec578160200160208202803683370190505b50905060008560ff166001600160401b0381111561320c5761320c614b54565b604051908082528060200260200182016040528015613235578160200160208202803683370190505b50905060005b8660ff1681101561329f5761325081896151e7565b83828151811061326257613262615248565b602002602001018181525050600182828151811061328257613282615248565b6020908102919091010152806132978161525e565b91505061323b565b506132bb33838360405180602001604052806000815250613b66565b306001600160a01b03166108fc8760ff166027546132d99190615293565b6040518115909202916000818181858888f19350505050158015613301573d6000803e3d6000fd5b5060005b8660ff168110156133745733601c600085848151811061332757613327615248565b6020026020010151815260200190815260200160002060006101000a8154816001600160a01b0302191690836001600160a01b03160217905550808061336c9061525e565b915050613305565b508151336000908152601d6020526040902054613394919060ff166151e7565b336000908152601d60205260409020805460ff191660ff9283161790556029869055602a80548883169287169081106133cf576133cf615248565b90600052602060002001546133e491906151e7565b602a8560ff16815481106133fa576133fa615248565b90600052602060002001819055508560ff166028600082825461341d91906151e7565b90915550506028546122b811612dd357602b805463ff000000191663010000001790558715612e135760405160ff8716815233907faf3c443bb05b163e7d42de9f4b11bdbfa307cad571a1ae5013e5e2ee92e66ed290602001612e0a565b600b546001600160a01b031633146115e65760405162461bcd60e51b815260206004820181905260248201527f4f776e61626c653a2063616c6c6572206973206e6f7420746865206f776e65726044820152606401610f95565b804710156135255760405162461bcd60e51b815260206004820152601d60248201527f416464726573733a20696e73756666696369656e742062616c616e63650000006044820152606401610f95565b6000826001600160a01b03168260405160006040518083038185875af1925050503d8060008114613572576040519150601f19603f3d011682016040523d82523d6000602084013e613577565b606091505b5050905080611fe25760405162461bcd60e51b815260206004820152603a60248201527f416464726573733a20756e61626c6520746f2073656e642076616c75652c207260448201527f6563697069656e74206d617920686176652072657665727465640000000000006064820152608401610f95565b815183511461360f5760405162461bcd60e51b8152600401610f9590615445565b6001600160a01b0384166136355760405162461bcd60e51b8152600401610f959061548d565b33613644818787878787613f47565b60005b845181101561372d57600085828151811061366457613664615248565b60200260200101519050600085838151811061368257613682615248565b60209081029190910181015160008481526007835260408082206001600160a01b038e1683529093529190912054909150818110156136d35760405162461bcd60e51b8152600401610f95906154d2565b60008381526007602090815260408083206001600160a01b038e8116855292528083208585039055908b168252812080548492906137129084906151e7565b92505081905550505050806137269061525e565b9050613647565b50846001600160a01b0316866001600160a01b0316826001600160a01b03167f4a39dc06d4c0dbc64b70af90fd698a233a518aa5d07e595d983b8c0526c8f7fb878760405161377d92919061551c565b60405180910390a46137938187878787876140c9565b505050505050565b604080516001600160a01b038416602482015260448082018490528251808303909101815260649091019091526020810180516001600160e01b031663a9059cbb60e01b179052611fe2908490614224565b600b80546001600160a01b038381166001600160a01b0319831681179093556040519116919082907f8be0079c531659141344cd1fd0a4f28419497f9722a3daafe3b4186f6b6457e090600090a35050565b601654600090819060ff16613859614e20620222e06151e7565b6138649060016151e7565b61386e91906151e7565b62ffffff1683106138b95760165460019060ff16613891614e20620222e06151e7565b61389c9060016151e7565b6138a691906151e7565b6138b090856152f7565b91509150915091565b601654600090849060ff166138d3614e20620222e06151e7565b6138de9060016151e7565b6138e891906151e7565b6138b091906152f7565b6000806139038662ffffff166142f6565b90506001600160a01b0381161561396857600061391e61435b565b905061393c338260016040518060200160405280600081525061464f565b613959338383600160405180602001604052806000815250612e28565b6139646001856151e7565b9350505b5090949350505050565b6002600c54036139c45760405162461bcd60e51b815260206004820152601f60248201527f5265656e7472616e637947756172643a207265656e7472616e742063616c6c006044820152606401610f95565b6002600c55565b600080600080868810613a065760405162461bcd60e51b815260206004820152600360248201526206532360ec1b6044820152606401610f95565b6000613a1a613a15888a6152c0565b613ddc565b905060005b613a29888a6152c0565b8160ff1614613aa65787878360ff1681518110613a4857613a48615248565b602002602001015103613a8f576001613a61898b6152c0565b613a6b919061554a565b8260ff1603613a7d5760009150613a94565b81613a878161555d565b925050613a94565b613aa6565b80613a9e8161555d565b915050613a1f565b6000613ab58960ff8516615293565b888460ff1681518110613aca57613aca615248565b6020026020010151613adc91906151e7565b9050888d60ff16898560ff1681518110613af857613af8615248565b6020026020010151613b0a91906151e7565b1115613b3b57878360ff1681518110613b2557613b25615248565b602002602001015189613b38919061554a565b9c505b613b488b60ff8f166151e7565b9a50613b548c826151e7565b9d9a9b50919998505050505050505050565b6001600160a01b038416613b8c5760405162461bcd60e51b8152600401610f959061557c565b8151835114613bad5760405162461bcd60e51b8152600401610f9590615445565b33613bbd81600087878787613f47565b60005b8451811015613c5957838181518110613bdb57613bdb615248565b602002602001015160076000878481518110613bf957613bf9615248565b602002602001015181526020019081526020016000206000886001600160a01b03166001600160a01b031681526020019081526020016000206000828254613c4191906151e7565b90915550819050613c518161525e565b915050613bc0565b50846001600160a01b031660006001600160a01b0316826001600160a01b03167f4a39dc06d4c0dbc64b70af90fd698a233a518aa5d07e595d983b8c0526c8f7fb8787604051613caa92919061551c565b60405180910390a4611320816000878787876140c9565b816001600160a01b0316836001600160a01b031603613d345760405162461bcd60e51b815260206004820152602960248201527f455243313135353a2073657474696e6720617070726f76616c20737461747573604482015268103337b91039b2b63360b91b6064820152608401610f95565b6001600160a01b03838116600081815260086020908152604080832094871680845294825291829020805460ff191686151590811790915591519182527f17307eab39ab6107e8899845ad3d59bd9653f200f220920489ca2b5937696c31910160405180910390a3505050565b600080546001600160a01b038516825260026020526040822054839190613dc89086615293565b613dd291906152c0565b6127d9919061554a565b600081613dea60014361554a565b610fc39190406155bd565b600082613e028584614731565b14949350505050565b6001600160a01b038416613e315760405162461bcd60e51b8152600401610f959061548d565b336000613e3d85614776565b90506000613e4a85614776565b9050613e5a838989858589613f47565b60008681526007602090815260408083206001600160a01b038c16845290915290205485811015613e9d5760405162461bcd60e51b8152600401610f95906154d2565b60008781526007602090815260408083206001600160a01b038d8116855292528083208985039055908a16825281208054889290613edc9084906151e7565b909155505060408051888152602081018890526001600160a01b03808b16928c821692918816917fc3d58168c5ae7397731d063d5bbf3d657854427343f4c083240f7aacaa2d0f62910160405180910390a4613f3c848a8a8a8a8a6147c1565b505050505050505050565b6001600160a01b038516613fce5760005b8351811015613fcc57828181518110613f7357613f73615248565b6020026020010151600a6000868481518110613f9157613f91615248565b602002602001015181526020019081526020016000206000828254613fb691906151e7565b90915550613fc590508161525e565b9050613f58565b505b6001600160a01b0384166137935760005b83518110156140c0576000848281518110613ffc57613ffc615248565b60200260200101519050600084838151811061401a5761401a615248565b602002602001015190506000600a60008481526020019081526020016000205490508181101561409d5760405162461bcd60e51b815260206004820152602860248201527f455243313135353a206275726e20616d6f756e74206578636565647320746f74604482015267616c537570706c7960c01b6064820152608401610f95565b6000928352600a6020526040909220910390556140b98161525e565b9050613fdf565b50505050505050565b6001600160a01b0384163b156137935760405163bc197c8160e01b81526001600160a01b0385169063bc197c819061410d90899089908890889088906004016155d1565b6020604051808303816000875af1925050508015614148575060408051601f3d908101601f191682019092526141459181019061562f565b60015b6141f45761415461564c565b806308c379a00361418d5750614168615668565b80614173575061418f565b8060405162461bcd60e51b8152600401610f959190614ada565b505b60405162461bcd60e51b815260206004820152603460248201527f455243313135353a207472616e7366657220746f206e6f6e2d455243313135356044820152732932b1b2b4bb32b91034b6b83632b6b2b73a32b960611b6064820152608401610f95565b6001600160e01b0319811663bc197c8160e01b146140c05760405162461bcd60e51b8152600401610f95906156f1565b6000614279826040518060400160405280602081526020017f5361666545524332303a206c6f772d6c6576656c2063616c6c206661696c6564815250856001600160a01b031661487c9092919063ffffffff16565b805190915015611fe257808060200190518101906142979190615739565b611fe25760405162461bcd60e51b815260206004820152602a60248201527f5361666545524332303a204552433230206f7065726174696f6e20646964206e6044820152691bdd081cdd58d8d9595960b21b6064820152608401610f95565b6000818152600a60205260408120541515801561433257506000828152601c6020526040812054614330906001600160a01b031684610f2e565b115b1561435357506000908152601c60205260409020546001600160a01b031690565b506000919050565b601a54600090614e206001600160401b03909116106143a15760405162461bcd60e51b81526020600482015260026024820152610ca760f31b6044820152606401610f95565b601b546000906143b090613ddc565b905060005b601b5460ff908116908216101561444557601b546143d590614e206152c0565b601b8360ff16815481106143eb576143eb615248565b90600052602060002001540361442e57601b5461440a9060019061554a565b8260ff160361441c5760009150614433565b816144268161555d565b925050614433565b614445565b8061443d8161555d565b9150506143b5565b600061445360026064615756565b60ff16601b8460ff168154811061446c5761446c615248565b906000526020600020015410156144d45761448b606460ff8516615293565b601b8460ff16815481106144a1576144a1615248565b906000526020600020015460016144b891906151e7565b6144c3906002615293565b6144cd91906151e7565b90506145d2565b60ff831615801561451257506144ec60026064615756565b60ff16601b8460ff168154811061450557614505615248565b9060005260206000200154145b1561456757601b8360ff168154811061452d5761452d615248565b9060005260206000200154600261454491906151e7565b601b8460ff168154811061455a5761455a615248565b6000918252602090912001555b614575606460ff8516615293565b61458160026064615756565b60ff16601b8560ff168154811061459a5761459a615248565b90600052602060002001546145af919061554a565b6145ba906002615293565b6145c59060016151e7565b6145cf91906151e7565b90505b6001601b8460ff16815481106145ea576145ea615248565b90600052602060002001600082825461460391906151e7565b9091555050601a80546001600160401b031690600061462183615778565b91906101000a8154816001600160401b0302191690836001600160401b031602179055505080935050505090565b6001600160a01b0384166146755760405162461bcd60e51b8152600401610f959061557c565b33600061468185614776565b9050600061468e85614776565b905061469f83600089858589613f47565b60008681526007602090815260408083206001600160a01b038b168452909152812080548792906146d19084906151e7565b909155505060408051878152602081018790526001600160a01b03808a1692600092918716917fc3d58168c5ae7397731d063d5bbf3d657854427343f4c083240f7aacaa2d0f62910160405180910390a46140c0836000898989896147c1565b600081815b8451811015611559576147628286838151811061475557614755615248565b602002602001015161488b565b91508061476e8161525e565b915050614736565b604080516001808252818301909252606091600091906020808301908036833701905050905082816000815181106147b0576147b0615248565b602090810291909101015292915050565b6001600160a01b0384163b156137935760405163f23a6e6160e01b81526001600160a01b0385169063f23a6e6190614805908990899088908890889060040161579e565b6020604051808303816000875af1925050508015614840575060408051601f3d908101601f1916820190925261483d9181019061562f565b60015b61484c5761415461564c565b6001600160e01b0319811663f23a6e6160e01b146140c05760405162461bcd60e51b8152600401610f95906156f1565b60606127d984846000856148b7565b60008183106148a7576000828152602084905260409020612033565b5060009182526020526040902090565b6060824710156149185760405162461bcd60e51b815260206004820152602660248201527f416464726573733a20696e73756666696369656e742062616c616e636520666f6044820152651c8818d85b1b60d21b6064820152608401610f95565b600080866001600160a01b0316858760405161493491906157d8565b60006040518083038185875af1925050503d8060008114614971576040519150601f19603f3d011682016040523d82523d6000602084013e614976565b606091505b509150915061498787838387614992565b979650505050505050565b60608315614a015782516000036149fa576001600160a01b0385163b6149fa5760405162461bcd60e51b815260206004820152601d60248201527f416464726573733a2063616c6c20746f206e6f6e2d636f6e74726163740000006044820152606401610f95565b50816127d9565b6127d983838151156141735781518083602001fd5b6001600160a01b0381168114612ee357600080fd5b60008060408385031215614a3e57600080fd5b8235614a4981614a16565b946020939093013593505050565b6001600160e01b031981168114612ee357600080fd5b600060208284031215614a7f57600080fd5b813561203381614a57565b60005b83811015614aa5578181015183820152602001614a8d565b50506000910152565b60008151808452614ac6816020860160208601614a8a565b601f01601f19169290920160200192915050565b6020815260006120336020830184614aae565b600060208284031215614aff57600080fd5b5035919050565b803560ff81168114614b1757600080fd5b919050565b600060208284031215614b2e57600080fd5b61203382614b06565b600060208284031215614b4957600080fd5b813561203381614a16565b634e487b7160e01b600052604160045260246000fd5b601f8201601f191681016001600160401b0381118282101715614b8f57614b8f614b54565b6040525050565b60006001600160401b03821115614baf57614baf614b54565b5060051b60200190565b600082601f830112614bca57600080fd5b81356020614bd782614b96565b604051614be48282614b6a565b83815260059390931b8501820192828101915086841115614c0457600080fd5b8286015b84811015614c1f5780358352918301918301614c08565b509695505050505050565b600082601f830112614c3b57600080fd5b81356001600160401b03811115614c5457614c54614b54565b604051614c6b601f8301601f191660200182614b6a565b818152846020838601011115614c8057600080fd5b816020850160208301376000918101602001919091529392505050565b600080600080600060a08688031215614cb557600080fd5b8535614cc081614a16565b94506020860135614cd081614a16565b935060408601356001600160401b0380821115614cec57600080fd5b614cf889838a01614bb9565b94506060880135915080821115614d0e57600080fd5b614d1a89838a01614bb9565b93506080880135915080821115614d3057600080fd5b50614d3d88828901614c2a565b9150509295509295909350565b60008060408385031215614d5d57600080fd5b8235614d6881614a16565b91506020830135614d7881614a16565b809150509250929050565b60008060408385031215614d9657600080fd5b82356001600160401b0380821115614dad57600080fd5b818501915085601f830112614dc157600080fd5b81356020614dce82614b96565b604051614ddb8282614b6a565b83815260059390931b8501820192828101915089841115614dfb57600080fd5b948201945b83861015614e22578535614e1381614a16565b82529482019490820190614e00565b96505086013592505080821115614e3857600080fd5b50614e4585828601614bb9565b9150509250929050565b600081518084526020808501945080840160005b83811015614e7f57815187529582019590820190600101614e63565b509495945050505050565b6020815260006120336020830184614e4f565b60008060408385031215614eb057600080fd5b82359150614ec060208401614b06565b90509250929050565b60008060408385031215614edc57600080fd5b614ee583614b06565b9150614ec060208401614b06565b60008060408385031215614f0657600080fd5b8235614ee581614a16565b8015158114612ee357600080fd5b60008060408385031215614f3257600080fd5b8235614f3d81614a16565b91506020830135614d7881614f11565b60008060008060608587031215614f6357600080fd5b8435614f6e81614a16565b9350614f7c60208601614b06565b925060408501356001600160401b0380821115614f9857600080fd5b818701915087601f830112614fac57600080fd5b813581811115614fbb57600080fd5b8860208260051b8501011115614fd057600080fd5b95989497505060200194505050565b600080600080600060a08688031215614ff757600080fd5b853561500281614a16565b9450602086013561501281614a16565b9350604086013592506060860135915060808601356001600160401b0381111561503b57600080fd5b614d3d88828901614c2a565b600181811c9082168061505b57607f821691505b60208210810361507b57634e487b7160e01b600052602260045260246000fd5b50919050565b600080835481600182811c91508083168061509d57607f831692505b602080841082036150bc57634e487b7160e01b86526022600452602486fd5b8180156150d057600181146150e557615112565b60ff1986168952841515850289019650615112565b60008a81526020902060005b8681101561510a5781548b8201529085019083016150f1565b505084890196505b5050505050506127d961512f82637b69647d60e01b815260040190565b64173539b7b760d91b815260050190565b60208082526026908201527f5061796d656e7453706c69747465723a206163636f756e7420686173206e6f2060408201526573686172657360d01b606082015260800190565b6020808252602b908201527f5061796d656e7453706c69747465723a206163636f756e74206973206e6f742060408201526a191d59481c185e5b595b9d60aa1b606082015260800190565b634e487b7160e01b600052601160045260246000fd5b80820180821115610fc357610fc36151d1565b6020808252602e908201527f455243313135353a2063616c6c6572206973206e6f7420746f6b656e206f776e60408201526d195c881bdc88185c1c1c9bdd995960921b606082015260800190565b634e487b7160e01b600052603260045260246000fd5b600060018201615270576152706151d1565b5060010190565b602080825260029082015261653360f01b604082015260600190565b8082028115828204841417610fc357610fc36151d1565b634e487b7160e01b600052601260045260246000fd5b6000826152cf576152cf6152aa565b500490565b62ffffff8181168382160190808211156152f0576152f06151d1565b5092915050565b62ffffff8281168282160390808211156152f0576152f06151d1565b602080825260029082015261194d60f21b604082015260600190565b602080825260039082015262194c4d60ea1b604082015260600190565b60208082526003908201526265313560e81b604082015260600190565b60208082526003908201526232989b60e91b604082015260600190565b60208082526003908201526265323160e81b604082015260600190565b60208082526003908201526265313760e81b604082015260600190565b6020808252600390820152620ca62760eb1b604082015260600190565b60ff8181168382160190811115610fc357610fc36151d1565b60ff8281168282160390811115610fc357610fc36151d1565b60208082526003908201526265313960e81b604082015260600190565b60006020828403121561543e57600080fd5b5051919050565b60208082526028908201527f455243313135353a2069647320616e6420616d6f756e7473206c656e677468206040820152670dad2e6dac2e8c6d60c31b606082015260800190565b60208082526025908201527f455243313135353a207472616e7366657220746f20746865207a65726f206164604082015264647265737360d81b606082015260800190565b6020808252602a908201527f455243313135353a20696e73756666696369656e742062616c616e636520666f60408201526939103a3930b739b332b960b11b606082015260800190565b60408152600061552f6040830185614e4f565b82810360208401526155418185614e4f565b95945050505050565b81810381811115610fc357610fc36151d1565b600060ff821660ff8103615573576155736151d1565b60010192915050565b60208082526021908201527f455243313135353a206d696e7420746f20746865207a65726f206164647265736040820152607360f81b606082015260800190565b6000826155cc576155cc6152aa565b500690565b6001600160a01b0386811682528516602082015260a0604082018190526000906155fd90830186614e4f565b828103606084015261560f8186614e4f565b905082810360808401526156238185614aae565b98975050505050505050565b60006020828403121561564157600080fd5b815161203381614a57565b600060033d11156156655760046000803e5060005160e01c5b90565b600060443d10156156765790565b6040516003193d81016004833e81513d6001600160401b0381602484011181841117156156a557505050505090565b82850191508151818111156156bd5750505050505090565b843d87010160208285010111156156d75750505050505090565b6156e660208286010187614b6a565b509095945050505050565b60208082526028908201527f455243313135353a204552433131353552656365697665722072656a656374656040820152676420746f6b656e7360c01b606082015260800190565b60006020828403121561574b57600080fd5b815161203381614f11565b600060ff831680615769576157696152aa565b8060ff84160491505092915050565b60006001600160401b03808316818103615794576157946151d1565b6001019392505050565b6001600160a01b03868116825285166020820152604081018490526060810183905260a06080820181905260009061498790830184614aae565b600082516157ea818460208701614a8a565b919091019291505056fea2646970667358221220ea80220970c2956c84a1323f2a441d60566964e0af929178aa259030fc65c99a64736f6c63430008110033",
  "linkReferences": {},
  "deployedLinkReferences": {}
}