{
  "_format": "hh-sol-artifact-1",
  "contractName": "Vipsland",
  "sourceName": "contracts/Vipsland.sol",
  "abi": [
    {
      "inputs": [
        {
          "internalType": "address[]",
          "name": "_team",
          "type": "address[]"
        },
        {
          "internalType": "uint256[]",
          "name": "_teamShares",
          "type": "uint256[]"
        },
        {
          "internalType": "string",
          "name": "_notRevealedUri",
          "type": "string"
        },
        {
          "internalType": "string",
          "name": "_revealedUri",
          "type": "string"
        }
      ],
      "stateMutability": "nonpayable",
      "type": "constructor"
    },
    {
      "anonymous": false,
      "inputs": [
        {
          "indexed": true,
          "internalType": "address",
          "name": "account",
          "type": "address"
        },
        {
          "indexed": true,
          "internalType": "address",
          "name": "operator",
          "type": "address"
        },
        {
          "indexed": false,
          "internalType": "bool",
          "name": "approved",
          "type": "bool"
        }
      ],
      "name": "ApprovalForAll",
      "type": "event"
    },
    {
      "anonymous": false,
      "inputs": [
        {
          "indexed": false,
          "internalType": "uint256",
          "name": "tokenMPID",
          "type": "uint256"
        }
      ],
      "name": "DebugMP",
      "type": "event"
    },
    {
      "anonymous": false,
      "inputs": [
        {
          "indexed": true,
          "internalType": "address",
          "name": "acc",
          "type": "address"
        },
        {
          "indexed": false,
          "internalType": "uint256",
          "name": "minted_amount",
          "type": "uint256"
        },
        {
          "indexed": false,
          "internalType": "uint256",
          "name": "last_minted_NONMPID",
          "type": "uint256"
        }
      ],
      "name": "DitributePRTs",
      "type": "event"
    },
    {
      "anonymous": false,
      "inputs": [
        {
          "indexed": true,
          "internalType": "contract IERC20",
          "name": "token",
          "type": "address"
        },
        {
          "indexed": false,
          "internalType": "address",
          "name": "to",
          "type": "address"
        },
        {
          "indexed": false,
          "internalType": "uint256",
          "name": "amount",
          "type": "uint256"
        }
      ],
      "name": "ERC20PaymentReleased",
      "type": "event"
    },
    {
      "anonymous": false,
      "inputs": [
        {
          "indexed": false,
          "internalType": "bool",
          "name": "sendMPAllDone",
          "type": "bool"
        }
      ],
      "name": "MPAllDone",
      "type": "event"
    },
    {
      "anonymous": false,
      "inputs": [
        {
          "indexed": true,
          "internalType": "address",
          "name": "previousOwner",
          "type": "address"
        },
        {
          "indexed": true,
          "internalType": "address",
          "name": "newOwner",
          "type": "address"
        }
      ],
      "name": "OwnershipTransferred",
      "type": "event"
    },
    {
      "anonymous": false,
      "inputs": [
        {
          "indexed": false,
          "internalType": "address",
          "name": "account",
          "type": "address"
        },
        {
          "indexed": false,
          "internalType": "uint256",
          "name": "shares",
          "type": "uint256"
        }
      ],
      "name": "PayeeAdded",
      "type": "event"
    },
    {
      "anonymous": false,
      "inputs": [
        {
          "indexed": false,
          "internalType": "address",
          "name": "from",
          "type": "address"
        },
        {
          "indexed": false,
          "internalType": "uint256",
          "name": "amount",
          "type": "uint256"
        }
      ],
      "name": "PaymentReceived",
      "type": "event"
    },
    {
      "anonymous": false,
      "inputs": [
        {
          "indexed": false,
          "internalType": "address",
          "name": "to",
          "type": "address"
        },
        {
          "indexed": false,
          "internalType": "uint256",
          "name": "amount",
          "type": "uint256"
        }
      ],
      "name": "PaymentReleased",
      "type": "event"
    },
    {
      "anonymous": false,
      "inputs": [
        {
          "indexed": true,
          "internalType": "address",
          "name": "acc",
          "type": "address"
        },
        {
          "indexed": false,
          "internalType": "uint256",
          "name": "qnt",
          "type": "uint256"
        }
      ],
      "name": "RemainMessageNeeds",
      "type": "event"
    },
    {
      "anonymous": false,
      "inputs": [
        {
          "indexed": false,
          "internalType": "uint256",
          "name": "_winnerTokenNONMPID",
          "type": "uint256"
        },
        {
          "indexed": false,
          "internalType": "uint256",
          "name": "max_nonmpid_minus_xrand",
          "type": "uint256"
        }
      ],
      "name": "SelectedNONMPIDTokens",
      "type": "event"
    },
    {
      "anonymous": false,
      "inputs": [
        {
          "indexed": true,
          "internalType": "address",
          "name": "operator",
          "type": "address"
        },
        {
          "indexed": true,
          "internalType": "address",
          "name": "from",
          "type": "address"
        },
        {
          "indexed": true,
          "internalType": "address",
          "name": "to",
          "type": "address"
        },
        {
          "indexed": false,
          "internalType": "uint256[]",
          "name": "ids",
          "type": "uint256[]"
        },
        {
          "indexed": false,
          "internalType": "uint256[]",
          "name": "values",
          "type": "uint256[]"
        }
      ],
      "name": "TransferBatch",
      "type": "event"
    },
    {
      "anonymous": false,
      "inputs": [
        {
          "indexed": true,
          "internalType": "address",
          "name": "operator",
          "type": "address"
        },
        {
          "indexed": true,
          "internalType": "address",
          "name": "from",
          "type": "address"
        },
        {
          "indexed": true,
          "internalType": "address",
          "name": "to",
          "type": "address"
        },
        {
          "indexed": false,
          "internalType": "uint256",
          "name": "id",
          "type": "uint256"
        },
        {
          "indexed": false,
          "internalType": "uint256",
          "name": "value",
          "type": "uint256"
        }
      ],
      "name": "TransferSingle",
      "type": "event"
    },
    {
      "anonymous": false,
      "inputs": [
        {
          "indexed": false,
          "internalType": "string",
          "name": "value",
          "type": "string"
        },
        {
          "indexed": true,
          "internalType": "uint256",
          "name": "id",
          "type": "uint256"
        }
      ],
      "name": "URI",
      "type": "event"
    },
    {
      "anonymous": false,
      "inputs": [
        {
          "indexed": true,
          "internalType": "address",
          "name": "acc",
          "type": "address"
        },
        {
          "indexed": false,
          "internalType": "uint256",
          "name": "winnerTokenPRTID",
          "type": "uint256"
        }
      ],
      "name": "WinnersMP",
      "type": "event"
    },
    {
      "inputs": [],
      "name": "EACH_RAND_SLOT_NUM_TOTAL_FOR_AIRDROP",
      "outputs": [
        {
          "internalType": "uint256",
          "name": "",
          "type": "uint256"
        }
      ],
      "stateMutability": "view",
      "type": "function"
    },
    {
      "inputs": [],
      "name": "EACH_RAND_SLOT_NUM_TOTAL_FOR_INTERNALTEAM",
      "outputs": [
        {
          "internalType": "uint256",
          "name": "",
          "type": "uint256"
        }
      ],
      "stateMutability": "view",
      "type": "function"
    },
    {
      "inputs": [],
      "name": "EACH_RAND_SLOT_NUM_TOTAL_FOR_PRT",
      "outputs": [
        {
          "internalType": "uint256",
          "name": "",
          "type": "uint256"
        }
      ],
      "stateMutability": "view",
      "type": "function"
    },
    {
      "inputs": [],
      "name": "MAX_PRT_AMOUNT_PER_ACC",
      "outputs": [
        {
          "internalType": "uint8",
          "name": "",
          "type": "uint8"
        }
      ],
      "stateMutability": "view",
      "type": "function"
    },
    {
      "inputs": [],
      "name": "MAX_PRT_AMOUNT_PER_ACC_AIRDROP",
      "outputs": [
        {
          "internalType": "uint8",
          "name": "",
          "type": "uint8"
        }
      ],
      "stateMutability": "view",
      "type": "function"
    },
    {
      "inputs": [],
      "name": "MAX_PRT_AMOUNT_PER_ACC_INTERNAL",
      "outputs": [
        {
          "internalType": "uint8",
          "name": "",
          "type": "uint8"
        }
      ],
      "stateMutability": "view",
      "type": "function"
    },
    {
      "inputs": [],
      "name": "MAX_PRT_AMOUNT_PER_ACC_PER_TRANSACTION",
      "outputs": [
        {
          "internalType": "uint8",
          "name": "",
          "type": "uint8"
        }
      ],
      "stateMutability": "view",
      "type": "function"
    },
    {
      "inputs": [],
      "name": "MAX_PRT_AMOUNT_PER_ACC_PER_TRANSACTION_AIRDROP",
      "outputs": [
        {
          "internalType": "uint8",
          "name": "",
          "type": "uint8"
        }
      ],
      "stateMutability": "view",
      "type": "function"
    },
    {
      "inputs": [],
      "name": "MAX_PRT_AMOUNT_PER_ACC_PER_TRANSACTION_INTERNAL",
      "outputs": [
        {
          "internalType": "uint8",
          "name": "",
          "type": "uint8"
        }
      ],
      "stateMutability": "view",
      "type": "function"
    },
    {
      "inputs": [],
      "name": "MAX_SUPPLY_FOR_AIRDROP_TOKEN",
      "outputs": [
        {
          "internalType": "uint256",
          "name": "",
          "type": "uint256"
        }
      ],
      "stateMutability": "view",
      "type": "function"
    },
    {
      "inputs": [],
      "name": "MAX_SUPPLY_FOR_INTERNALTEAM_TOKEN",
      "outputs": [
        {
          "internalType": "uint256",
          "name": "",
          "type": "uint256"
        }
      ],
      "stateMutability": "view",
      "type": "function"
    },
    {
      "inputs": [],
      "name": "MAX_SUPPLY_FOR_PRT_TOKEN",
      "outputs": [
        {
          "internalType": "uint256",
          "name": "",
          "type": "uint256"
        }
      ],
      "stateMutability": "view",
      "type": "function"
    },
    {
      "inputs": [],
      "name": "MAX_SUPPLY_MP",
      "outputs": [
        {
          "internalType": "uint256",
          "name": "",
          "type": "uint256"
        }
      ],
      "stateMutability": "view",
      "type": "function"
    },
    {
      "inputs": [],
      "name": "NUM_TOTAL_FOR_MP",
      "outputs": [
        {
          "internalType": "uint8",
          "name": "",
          "type": "uint8"
        }
      ],
      "stateMutability": "view",
      "type": "function"
    },
    {
      "inputs": [],
      "name": "PRICE_PRT",
      "outputs": [
        {
          "internalType": "uint256",
          "name": "",
          "type": "uint256"
        }
      ],
      "stateMutability": "view",
      "type": "function"
    },
    {
      "inputs": [],
      "name": "PRICE_PRT_AIRDROP",
      "outputs": [
        {
          "internalType": "uint256",
          "name": "",
          "type": "uint256"
        }
      ],
      "stateMutability": "view",
      "type": "function"
    },
    {
      "inputs": [],
      "name": "PRICE_PRT_INTERNALTEAM",
      "outputs": [
        {
          "internalType": "uint256",
          "name": "",
          "type": "uint256"
        }
      ],
      "stateMutability": "view",
      "type": "function"
    },
    {
      "inputs": [],
      "name": "PRTID",
      "outputs": [
        {
          "internalType": "uint256",
          "name": "",
          "type": "uint256"
        }
      ],
      "stateMutability": "view",
      "type": "function"
    },
    {
      "inputs": [],
      "name": "STARTINGIDFORAIRDROP",
      "outputs": [
        {
          "internalType": "uint256",
          "name": "",
          "type": "uint256"
        }
      ],
      "stateMutability": "view",
      "type": "function"
    },
    {
      "inputs": [],
      "name": "STARTINGIDFORINTERNALTEAM",
      "outputs": [
        {
          "internalType": "uint256",
          "name": "",
          "type": "uint256"
        }
      ],
      "stateMutability": "view",
      "type": "function"
    },
    {
      "inputs": [],
      "name": "STARTINGIDFORPRT",
      "outputs": [
        {
          "internalType": "uint256",
          "name": "",
          "type": "uint256"
        }
      ],
      "stateMutability": "view",
      "type": "function"
    },
    {
      "inputs": [],
      "name": "_counter_for_generatelucky_mp",
      "outputs": [
        {
          "internalType": "uint256",
          "name": "_value",
          "type": "uint256"
        }
      ],
      "stateMutability": "view",
      "type": "function"
    },
    {
      "inputs": [],
      "name": "_counter_for_generatelucky_mp_airdrop",
      "outputs": [
        {
          "internalType": "uint256",
          "name": "_value",
          "type": "uint256"
        }
      ],
      "stateMutability": "view",
      "type": "function"
    },
    {
      "inputs": [],
      "name": "_counter_for_generatelucky_mp_internalteam",
      "outputs": [
        {
          "internalType": "uint256",
          "name": "_value",
          "type": "uint256"
        }
      ],
      "stateMutability": "view",
      "type": "function"
    },
    {
      "inputs": [
        {
          "internalType": "address",
          "name": "account",
          "type": "address"
        },
        {
          "internalType": "uint256",
          "name": "id",
          "type": "uint256"
        }
      ],
      "name": "balanceOf",
      "outputs": [
        {
          "internalType": "uint256",
          "name": "",
          "type": "uint256"
        }
      ],
      "stateMutability": "view",
      "type": "function"
    },
    {
      "inputs": [],
      "name": "balanceOfAccount",
      "outputs": [
        {
          "internalType": "uint256",
          "name": "",
          "type": "uint256"
        }
      ],
      "stateMutability": "payable",
      "type": "function"
    },
    {
      "inputs": [
        {
          "internalType": "address[]",
          "name": "accounts",
          "type": "address[]"
        },
        {
          "internalType": "uint256[]",
          "name": "ids",
          "type": "uint256[]"
        }
      ],
      "name": "balanceOfBatch",
      "outputs": [
        {
          "internalType": "uint256[]",
          "name": "",
          "type": "uint256[]"
        }
      ],
      "stateMutability": "view",
      "type": "function"
    },
    {
      "inputs": [
        {
          "internalType": "string",
          "name": "a",
          "type": "string"
        },
        {
          "internalType": "uint256",
          "name": "b",
          "type": "uint256"
        }
      ],
      "name": "concatenate",
      "outputs": [
        {
          "internalType": "string",
          "name": "",
          "type": "string"
        }
      ],
      "stateMutability": "pure",
      "type": "function"
    },
    {
      "inputs": [],
      "name": "contractBalance",
      "outputs": [
        {
          "internalType": "uint256",
          "name": "",
          "type": "uint256"
        }
      ],
      "stateMutability": "view",
      "type": "function"
    },
    {
      "inputs": [
        {
          "internalType": "uint256",
          "name": "id",
          "type": "uint256"
        }
      ],
      "name": "exists",
      "outputs": [
        {
          "internalType": "bool",
          "name": "",
          "type": "bool"
        }
      ],
      "stateMutability": "view",
      "type": "function"
    },
    {
      "inputs": [
        {
          "internalType": "uint256",
          "name": "",
          "type": "uint256"
        }
      ],
      "name": "intArrPRTAIRDROP",
      "outputs": [
        {
          "internalType": "uint256",
          "name": "",
          "type": "uint256"
        }
      ],
      "stateMutability": "view",
      "type": "function"
    },
    {
      "inputs": [
        {
          "internalType": "address",
          "name": "account",
          "type": "address"
        },
        {
          "internalType": "address",
          "name": "operator",
          "type": "address"
        }
      ],
      "name": "isApprovedForAll",
      "outputs": [
        {
          "internalType": "bool",
          "name": "",
          "type": "bool"
        }
      ],
      "stateMutability": "view",
      "type": "function"
    },
    {
      "inputs": [],
      "name": "mintAirdropMPIsOpen",
      "outputs": [
        {
          "internalType": "bool",
          "name": "",
          "type": "bool"
        }
      ],
      "stateMutability": "view",
      "type": "function"
    },
    {
      "inputs": [
        {
          "internalType": "uint256",
          "name": "tokenID",
          "type": "uint256"
        },
        {
          "internalType": "address",
          "name": "addr",
          "type": "address"
        }
      ],
      "name": "mintAndSafeTransferFromByOwner",
      "outputs": [],
      "stateMutability": "nonpayable",
      "type": "function"
    },
    {
      "inputs": [],
      "name": "mintInternalTeamMPIsOpen",
      "outputs": [
        {
          "internalType": "bool",
          "name": "",
          "type": "bool"
        }
      ],
      "stateMutability": "view",
      "type": "function"
    },
    {
      "inputs": [],
      "name": "mintMPIsOpen",
      "outputs": [
        {
          "internalType": "bool",
          "name": "",
          "type": "bool"
        }
      ],
      "stateMutability": "view",
      "type": "function"
    },
    {
      "inputs": [
        {
          "internalType": "address",
          "name": "account",
          "type": "address"
        },
        {
          "internalType": "uint8",
          "name": "_amount_wanted_able_to_get",
          "type": "uint8"
        },
        {
          "internalType": "uint8",
          "name": "stage",
          "type": "uint8"
        }
      ],
      "name": "mintNONMP",
      "outputs": [],
      "stateMutability": "payable",
      "type": "function"
    },
    {
      "inputs": [],
      "name": "name",
      "outputs": [
        {
          "internalType": "string",
          "name": "",
          "type": "string"
        }
      ],
      "stateMutability": "view",
      "type": "function"
    },
    {
      "inputs": [],
      "name": "numIssuedForAIRDROP",
      "outputs": [
        {
          "internalType": "uint256",
          "name": "",
          "type": "uint256"
        }
      ],
      "stateMutability": "view",
      "type": "function"
    },
    {
      "inputs": [],
      "name": "numIssuedForInternalTeamIDs",
      "outputs": [
        {
          "internalType": "uint256",
          "name": "",
          "type": "uint256"
        }
      ],
      "stateMutability": "view",
      "type": "function"
    },
    {
      "inputs": [],
      "name": "numIssuedForMP",
      "outputs": [
        {
          "internalType": "uint64",
          "name": "",
          "type": "uint64"
        }
      ],
      "stateMutability": "view",
      "type": "function"
    },
    {
      "inputs": [],
      "name": "numIssuedForNormalUser",
      "outputs": [
        {
          "internalType": "uint256",
          "name": "",
          "type": "uint256"
        }
      ],
      "stateMutability": "view",
      "type": "function"
    },
    {
      "inputs": [],
      "name": "owner",
      "outputs": [
        {
          "internalType": "address",
          "name": "",
          "type": "address"
        }
      ],
      "stateMutability": "view",
      "type": "function"
    },
    {
      "inputs": [
        {
          "internalType": "uint256",
          "name": "index",
          "type": "uint256"
        }
      ],
      "name": "payee",
      "outputs": [
        {
          "internalType": "address",
          "name": "",
          "type": "address"
        }
      ],
      "stateMutability": "view",
      "type": "function"
    },
    {
      "inputs": [
        {
          "internalType": "address",
          "name": "",
          "type": "address"
        }
      ],
      "name": "perAddressMPs",
      "outputs": [
        {
          "internalType": "string",
          "name": "",
          "type": "string"
        }
      ],
      "stateMutability": "view",
      "type": "function"
    },
    {
      "inputs": [],
      "name": "presalePRT",
      "outputs": [
        {
          "internalType": "uint8",
          "name": "",
          "type": "uint8"
        }
      ],
      "stateMutability": "view",
      "type": "function"
    },
    {
      "inputs": [
        {
          "internalType": "uint256",
          "name": "",
          "type": "uint256"
        }
      ],
      "name": "prtPerAddress",
      "outputs": [
        {
          "internalType": "address",
          "name": "",
          "type": "address"
        }
      ],
      "stateMutability": "view",
      "type": "function"
    },
    {
      "inputs": [],
      "name": "qntmintmpforairdrop",
      "outputs": [
        {
          "internalType": "uint256",
          "name": "",
          "type": "uint256"
        }
      ],
      "stateMutability": "view",
      "type": "function"
    },
    {
      "inputs": [],
      "name": "qntmintmpforinternalteam",
      "outputs": [
        {
          "internalType": "uint256",
          "name": "",
          "type": "uint256"
        }
      ],
      "stateMutability": "view",
      "type": "function"
    },
    {
      "inputs": [],
      "name": "qntmintmpfornormaluser",
      "outputs": [
        {
          "internalType": "uint256",
          "name": "",
          "type": "uint256"
        }
      ],
      "stateMutability": "view",
      "type": "function"
    },
    {
      "inputs": [],
      "name": "qntmintnonmpforairdrop",
      "outputs": [
        {
          "internalType": "uint256",
          "name": "",
          "type": "uint256"
        }
      ],
      "stateMutability": "view",
      "type": "function"
    },
    {
      "inputs": [],
      "name": "qntmintnonmpforinternalteam",
      "outputs": [
        {
          "internalType": "uint256",
          "name": "",
          "type": "uint256"
        }
      ],
      "stateMutability": "view",
      "type": "function"
    },
    {
      "inputs": [],
      "name": "qntmintnonmpfornormaluser",
      "outputs": [
        {
          "internalType": "uint256",
          "name": "",
          "type": "uint256"
        }
      ],
      "stateMutability": "view",
      "type": "function"
    },
    {
      "inputs": [
        {
          "internalType": "address",
          "name": "account",
          "type": "address"
        }
      ],
      "name": "releasable",
      "outputs": [
        {
          "internalType": "uint256",
          "name": "",
          "type": "uint256"
        }
      ],
      "stateMutability": "view",
      "type": "function"
    },
    {
      "inputs": [
        {
          "internalType": "contract IERC20",
          "name": "token",
          "type": "address"
        },
        {
          "internalType": "address",
          "name": "account",
          "type": "address"
        }
      ],
      "name": "releasable",
      "outputs": [
        {
          "internalType": "uint256",
          "name": "",
          "type": "uint256"
        }
      ],
      "stateMutability": "view",
      "type": "function"
    },
    {
      "inputs": [
        {
          "internalType": "address payable",
          "name": "account",
          "type": "address"
        }
      ],
      "name": "release",
      "outputs": [],
      "stateMutability": "nonpayable",
      "type": "function"
    },
    {
      "inputs": [
        {
          "internalType": "contract IERC20",
          "name": "token",
          "type": "address"
        },
        {
          "internalType": "address",
          "name": "account",
          "type": "address"
        }
      ],
      "name": "release",
      "outputs": [],
      "stateMutability": "nonpayable",
      "type": "function"
    },
    {
      "inputs": [
        {
          "internalType": "contract IERC20",
          "name": "token",
          "type": "address"
        },
        {
          "internalType": "address",
          "name": "account",
          "type": "address"
        }
      ],
      "name": "released",
      "outputs": [
        {
          "internalType": "uint256",
          "name": "",
          "type": "uint256"
        }
      ],
      "stateMutability": "view",
      "type": "function"
    },
    {
      "inputs": [
        {
          "internalType": "address",
          "name": "account",
          "type": "address"
        }
      ],
      "name": "released",
      "outputs": [
        {
          "internalType": "uint256",
          "name": "",
          "type": "uint256"
        }
      ],
      "stateMutability": "view",
      "type": "function"
    },
    {
      "inputs": [],
      "name": "renounceOwnership",
      "outputs": [],
      "stateMutability": "nonpayable",
      "type": "function"
    },
    {
      "inputs": [],
      "name": "revealed",
      "outputs": [
        {
          "internalType": "bool",
          "name": "",
          "type": "bool"
        }
      ],
      "stateMutability": "view",
      "type": "function"
    },
    {
      "inputs": [
        {
          "internalType": "address",
          "name": "from",
          "type": "address"
        },
        {
          "internalType": "address",
          "name": "to",
          "type": "address"
        },
        {
          "internalType": "uint256[]",
          "name": "ids",
          "type": "uint256[]"
        },
        {
          "internalType": "uint256[]",
          "name": "amounts",
          "type": "uint256[]"
        },
        {
          "internalType": "bytes",
          "name": "data",
          "type": "bytes"
        }
      ],
      "name": "safeBatchTransferFrom",
      "outputs": [],
      "stateMutability": "nonpayable",
      "type": "function"
    },
    {
      "inputs": [
        {
          "internalType": "address",
          "name": "from",
          "type": "address"
        },
        {
          "internalType": "address",
          "name": "to",
          "type": "address"
        },
        {
          "internalType": "uint256",
          "name": "id",
          "type": "uint256"
        },
        {
          "internalType": "uint256",
          "name": "amount",
          "type": "uint256"
        },
        {
          "internalType": "bytes",
          "name": "data",
          "type": "bytes"
        }
      ],
      "name": "safeTransferFrom",
      "outputs": [],
      "stateMutability": "nonpayable",
      "type": "function"
    },
    {
      "inputs": [],
      "name": "sendMPAirdrop",
      "outputs": [],
      "stateMutability": "nonpayable",
      "type": "function"
    },
    {
      "inputs": [],
      "name": "sendMPAllDoneForAirdrop",
      "outputs": [
        {
          "internalType": "bool",
          "name": "",
          "type": "bool"
        }
      ],
      "stateMutability": "view",
      "type": "function"
    },
    {
      "inputs": [],
      "name": "sendMPAllDoneForInternalTeam",
      "outputs": [
        {
          "internalType": "bool",
          "name": "",
          "type": "bool"
        }
      ],
      "stateMutability": "view",
      "type": "function"
    },
    {
      "inputs": [],
      "name": "sendMPAllDoneForNormalUsers",
      "outputs": [
        {
          "internalType": "bool",
          "name": "",
          "type": "bool"
        }
      ],
      "stateMutability": "view",
      "type": "function"
    },
    {
      "inputs": [],
      "name": "sendMPInternalTeam",
      "outputs": [],
      "stateMutability": "nonpayable",
      "type": "function"
    },
    {
      "inputs": [],
      "name": "sendMPNormalUsers",
      "outputs": [],
      "stateMutability": "nonpayable",
      "type": "function"
    },
    {
      "inputs": [
        {
          "internalType": "address",
          "name": "operator",
          "type": "address"
        },
        {
          "internalType": "bool",
          "name": "approved",
          "type": "bool"
        }
      ],
      "name": "setApprovalForAll",
      "outputs": [],
      "stateMutability": "nonpayable",
      "type": "function"
    },
    {
      "inputs": [
        {
          "internalType": "uint256",
          "name": "price",
          "type": "uint256"
        }
      ],
      "name": "setPRICE_PRT",
      "outputs": [],
      "stateMutability": "nonpayable",
      "type": "function"
    },
    {
      "inputs": [
        {
          "internalType": "uint256",
          "name": "price",
          "type": "uint256"
        }
      ],
      "name": "setPRICE_PRT_AIRDROP",
      "outputs": [],
      "stateMutability": "nonpayable",
      "type": "function"
    },
    {
      "inputs": [
        {
          "internalType": "uint256",
          "name": "price",
          "type": "uint256"
        }
      ],
      "name": "setPRICE_PRT_INTERNALTEAM",
      "outputs": [],
      "stateMutability": "nonpayable",
      "type": "function"
    },
    {
      "inputs": [
        {
          "internalType": "uint8",
          "name": "num",
          "type": "uint8"
        }
      ],
      "name": "setPreSalePRT",
      "outputs": [],
      "stateMutability": "nonpayable",
      "type": "function"
    },
    {
      "inputs": [
        {
          "internalType": "uint8",
          "name": "amount",
          "type": "uint8"
        },
        {
          "internalType": "uint8",
          "name": "amount_per_transaction",
          "type": "uint8"
        }
      ],
      "name": "set_MAX_PRT_AMOUNT_PER_ACC_AND_TRANSACTION_INTERNAL",
      "outputs": [],
      "stateMutability": "nonpayable",
      "type": "function"
    },
    {
      "inputs": [
        {
          "internalType": "address",
          "name": "account",
          "type": "address"
        }
      ],
      "name": "shares",
      "outputs": [
        {
          "internalType": "uint256",
          "name": "",
          "type": "uint256"
        }
      ],
      "stateMutability": "view",
      "type": "function"
    },
    {
      "inputs": [
        {
          "internalType": "bytes4",
          "name": "interfaceId",
          "type": "bytes4"
        }
      ],
      "name": "supportsInterface",
      "outputs": [
        {
          "internalType": "bool",
          "name": "",
          "type": "bool"
        }
      ],
      "stateMutability": "view",
      "type": "function"
    },
    {
      "inputs": [],
      "name": "symbol",
      "outputs": [
        {
          "internalType": "string",
          "name": "",
          "type": "string"
        }
      ],
      "stateMutability": "view",
      "type": "function"
    },
    {
      "inputs": [],
      "name": "toggleMintAirdropMPIsOpen",
      "outputs": [],
      "stateMutability": "nonpayable",
      "type": "function"
    },
    {
      "inputs": [],
      "name": "toggleMintInternalTeamMPIsOpen",
      "outputs": [],
      "stateMutability": "nonpayable",
      "type": "function"
    },
    {
      "inputs": [],
      "name": "toggleMintMPIsOpen",
      "outputs": [],
      "stateMutability": "nonpayable",
      "type": "function"
    },
    {
      "inputs": [],
      "name": "toggleReveal",
      "outputs": [],
      "stateMutability": "nonpayable",
      "type": "function"
    },
    {
      "inputs": [
        {
          "internalType": "contract IERC20",
          "name": "token",
          "type": "address"
        }
      ],
      "name": "totalReleased",
      "outputs": [
        {
          "internalType": "uint256",
          "name": "",
          "type": "uint256"
        }
      ],
      "stateMutability": "view",
      "type": "function"
    },
    {
      "inputs": [],
      "name": "totalReleased",
      "outputs": [
        {
          "internalType": "uint256",
          "name": "",
          "type": "uint256"
        }
      ],
      "stateMutability": "view",
      "type": "function"
    },
    {
      "inputs": [],
      "name": "totalShares",
      "outputs": [
        {
          "internalType": "uint256",
          "name": "",
          "type": "uint256"
        }
      ],
      "stateMutability": "view",
      "type": "function"
    },
    {
      "inputs": [
        {
          "internalType": "uint256",
          "name": "id",
          "type": "uint256"
        }
      ],
      "name": "totalSupply",
      "outputs": [
        {
          "internalType": "uint256",
          "name": "",
          "type": "uint256"
        }
      ],
      "stateMutability": "view",
      "type": "function"
    },
    {
      "inputs": [
        {
          "internalType": "address",
          "name": "newOwner",
          "type": "address"
        }
      ],
      "name": "transferOwnership",
      "outputs": [],
      "stateMutability": "nonpayable",
      "type": "function"
    },
    {
      "inputs": [
        {
          "internalType": "uint256",
          "name": "",
          "type": "uint256"
        }
      ],
      "name": "uri",
      "outputs": [
        {
          "internalType": "string",
          "name": "",
          "type": "string"
        }
      ],
      "stateMutability": "view",
      "type": "function"
    },
    {
      "inputs": [
        {
          "internalType": "address",
          "name": "",
          "type": "address"
        }
      ],
      "name": "userNONMPs",
      "outputs": [
        {
          "internalType": "uint8",
          "name": "",
          "type": "uint8"
        }
      ],
      "stateMutability": "view",
      "type": "function"
    },
    {
      "inputs": [],
      "name": "withdraw",
      "outputs": [],
      "stateMutability": "payable",
      "type": "function"
    },
    {
      "inputs": [],
      "name": "xrand",
      "outputs": [
        {
          "internalType": "uint8",
          "name": "",
          "type": "uint8"
        }
      ],
      "stateMutability": "view",
      "type": "function"
    },
    {
      "stateMutability": "payable",
      "type": "receive"
    }
  ],
  "bytecode": "0x60c0604052601060809081526f564950534c414e442047454e4553495360801b60a052600d90620000319082620007f5565b50604080518082019091526004815263159414d360e21b6020820152600e906200005c9082620007f5565b506011805460ff1990811690915560006013819055601481905560158190556016805483166012179055601a80546001600160401b0319166004179055601f805461191961ffff199091161790556701b4fbd92b5f80006020556021819055602281905560248190556025819055602681905560288190556029819055602a819055602c805463ffffffff19169055602d819055602e819055602f8190556030805462ffffff1916905560318190556032556033805490911690553480156200012457600080fd5b506040516200671c3803806200671c833981016040819052620001479162000a1a565b838383620001558162000497565b506200016133620004a9565b8051825114620001d35760405162461bcd60e51b815260206004820152603260248201527f5061796d656e7453706c69747465723a2070617965657320616e6420736861726044820152710cae640d8cadccee8d040dad2e6dac2e8c6d60731b60648201526084015b60405180910390fd5b6000825111620002265760405162461bcd60e51b815260206004820152601a60248201527f5061796d656e7453706c69747465723a206e6f207061796565730000000000006044820152606401620001ca565b60005b825181101562000292576200027d8382815181106200024c576200024c62000b47565b602002602001015183838151811062000269576200026962000b47565b6020026020010151620004fb60201b60201c565b80620002898162000b73565b91505062000229565b50506001600c5550600f620002a88382620007f5565b506010620002b78282620007f5565b50620002c76064614e2062000b8f565b6001600160401b03811115620002e157620002e162000750565b6040519080825280602002602001820160405280156200030b578160200160208202803683370190505b5080516200032291601b91602090910190620006e9565b506002601b6000815481106200033c576200033c62000b47565b60009182526020909120015562000359612710620222e062000b8f565b6001600160401b0381111562000373576200037362000750565b6040519080825280602002602001820160405280156200039d578160200160208202803683370190505b508051620003b491602391602090910190620006e9565b50620003c56103e8614e2062000b8f565b6001600160401b03811115620003df57620003df62000750565b60405190808252806020026020018201604052801562000409578160200160208202803683370190505b5080516200042091602791602090910190620006e9565b50620004316104576122b862000b8f565b6001600160401b038111156200044b576200044b62000750565b60405190808252806020026020018201604052801562000475578160200160208202803683370190505b5080516200048c91602b91602090910190620006e9565b505050505062000bce565b6002620004a58282620007f5565b5050565b600480546001600160a01b038381166001600160a01b0319831681179093556040519116919082907f8be0079c531659141344cd1fd0a4f28419497f9722a3daafe3b4186f6b6457e090600090a35050565b6001600160a01b038216620005685760405162461bcd60e51b815260206004820152602c60248201527f5061796d656e7453706c69747465723a206163636f756e74206973207468652060448201526b7a65726f206164647265737360a01b6064820152608401620001ca565b60008111620005ba5760405162461bcd60e51b815260206004820152601d60248201527f5061796d656e7453706c69747465723a207368617265732061726520300000006044820152606401620001ca565b6001600160a01b03821660009081526007602052604090205415620006365760405162461bcd60e51b815260206004820152602b60248201527f5061796d656e7453706c69747465723a206163636f756e7420616c726561647960448201526a206861732073686172657360a81b6064820152608401620001ca565b60098054600181019091557f6e1540171b6c0c960b71a7020d9f60077f6af931a8bbf590da0223dacf75c7af0180546001600160a01b0319166001600160a01b0384169081179091556000908152600760205260409020819055600554620006a090829062000bb2565b600555604080516001600160a01b0384168152602081018390527f40c340f65e17194d14ddddb073d3c9f888e3cb52b5aae0c6c7706b4fbc905fac910160405180910390a15050565b82805482825590600052602060002090810192821562000727579160200282015b82811115620007275782518255916020019190600101906200070a565b506200073592915062000739565b5090565b5b808211156200073557600081556001016200073a565b634e487b7160e01b600052604160045260246000fd5b600181811c908216806200077b57607f821691505b6020821081036200079c57634e487b7160e01b600052602260045260246000fd5b50919050565b601f821115620007f057600081815260208120601f850160051c81016020861015620007cb5750805b601f850160051c820191505b81811015620007ec57828155600101620007d7565b5050505b505050565b81516001600160401b0381111562000811576200081162000750565b620008298162000822845462000766565b84620007a2565b602080601f831160018114620008615760008415620008485750858301515b600019600386901b1c1916600185901b178555620007ec565b600085815260208120601f198616915b82811015620008925788860151825594840194600190910190840162000871565b5085821015620008b15787850151600019600388901b60f8161c191681555b5050505050600190811b01905550565b604051601f8201601f191681016001600160401b0381118282101715620008ec57620008ec62000750565b604052919050565b60006001600160401b0382111562000910576200091062000750565b5060051b60200190565b600082601f8301126200092c57600080fd5b81516020620009456200093f83620008f4565b620008c1565b82815260059290921b840181019181810190868411156200096557600080fd5b8286015b8481101562000982578051835291830191830162000969565b509695505050505050565b600082601f8301126200099f57600080fd5b81516001600160401b03811115620009bb57620009bb62000750565b6020620009d1601f8301601f19168201620008c1565b8281528582848701011115620009e657600080fd5b60005b8381101562000a06578581018301518282018401528201620009e9565b506000928101909101919091529392505050565b6000806000806080858703121562000a3157600080fd5b84516001600160401b038082111562000a4957600080fd5b818701915087601f83011262000a5e57600080fd5b8151602062000a716200093f83620008f4565b82815260059290921b8401810191818101908b84111562000a9157600080fd5b948201945b8386101562000ac85785516001600160a01b038116811462000ab85760008081fd5b8252948201949082019062000a96565b918a015191985090935050508082111562000ae257600080fd5b62000af0888389016200091a565b9450604087015191508082111562000b0757600080fd5b62000b15888389016200098d565b9350606087015191508082111562000b2c57600080fd5b5062000b3b878288016200098d565b91505092959194509250565b634e487b7160e01b600052603260045260246000fd5b634e487b7160e01b600052601160045260246000fd5b60006001820162000b885762000b8862000b5d565b5060010190565b60008262000bad57634e487b7160e01b600052601260045260246000fd5b500490565b8082018082111562000bc85762000bc862000b5d565b92915050565b615b3e8062000bde6000396000f3fe6080604052600436106104ee5760003560e01c80637a1d48f41161028c578063bd85b0391161015a578063d79779b2116100cc578063e33b7de311610085578063e33b7de314610e92578063e67ff55214610ea7578063e985e9c514610ebe578063f242432a14610f07578063f2fde38b14610f27578063fe47d7f214610f4757600080fd5b8063d79779b214610df2578063d7abf186146106f3578063da8ab07114610e28578063db9a850914610e3d578063defb1d4514610e53578063df8c6cd314610e7257600080fd5b8063c82190c41161011e578063c82190c414610d4f578063c9b4f6ef146107fb578063cd0b99cd146107cf578063ce7c2ac214610d66578063cea8f9c014610d9c578063cffbd26f14610dbc57600080fd5b8063bd85b03914610cac578063c03438ef14610cd9578063c45ac05014610cf9578063c6358ecd14610d19578063c7a3b01314610d3957600080fd5b806395d89b41116101fe578063a3f8eace116101b7578063a3f8eace14610c13578063a57674e714610c33578063a882fea414610c48578063b1feb18d14610c5d578063b247796414610c77578063b861639414610c9657600080fd5b806395d89b4114610b7c57806397c66270146107cf5780639852595c14610b915780639daf187214610bc75780639e26975714610bdc578063a22cb46514610bf357600080fd5b80638515c7ac116102505780638515c7ac14610ad35780638913fbe014610af35780638b7afe2e14610b095780638b83209b14610b1e5780638da5cb5b14610b5657806394a271fd14610b7457600080fd5b80637a1d48f414610a4e5780637d46d87014610a6e5780637de1c2be14610a8357806382a3169314610a9d578063833bc78814610ab357600080fd5b80632fef4579116103c95780634e1273f41161033b5780636bfcf578116102f45780636bfcf578146109c15780636c5959e3146109d65780636e27b972146109ec578063715018a614610a0357806375d909ef14610a185780637862ed6414610a2e57600080fd5b80634e1273f4146108ff5780634f558e791461092c578063518302271461095b5780635308ca78146109755780635b8ad4291461098b5780635de701f9146109a057600080fd5b80633ccfd60b1161038d5780633ccfd60b1461084e578063406072a914610856578063438d4bc11461089c57806344c3c7b9146108b257806348b75044146108c95780634a098124146108e957600080fd5b80632fef4579146107e5578063380b5f75146107fb5780633919e5ba14610810578063395dcb64146108235780633a98ef391461083957600080fd5b80631902aa4a116104625780632a37e4af116104265780632a37e4af1461074e5780632b2be7f5146107655780632d187ef7146107845780632d23bf5a146107995780632eb2c2d6146107af5780632fcf9d4b146107cf57600080fd5b80631902aa4a1461069b57806319165587146106d357806319f32a50146106f357806320c6974e1461071a57806328b33aae1461073457600080fd5b806306fdde03116104b457806306fdde03146105eb5780630e89341c1461060d578063108241181461062d57806310dd92471461064f57806311e6fb631461066557806312deb6031461067b57600080fd5b806201d05b1461053c578062fdd58e14610565578063015532081461058557806301ffc9a7146105b557806304bf41d8146105d557600080fd5b36610537577f6ef95f06320e7a25a04a175ca677b7052bdd97131872c2192525a629f51be77033604080516001600160a01b0390921682523460208301520160405180910390a1005b600080fd5b34801561054857600080fd5b5061055260215481565b6040519081526020015b60405180910390f35b34801561057157600080fd5b50610552610580366004614c97565b610f77565b34801561059157600080fd5b50602c546105a59062010000900460ff1681565b604051901515815260200161055c565b3480156105c157600080fd5b506105a56105d0366004614cd9565b611010565b3480156105e157600080fd5b50610552614e2181565b3480156105f757600080fd5b50610600611060565b60405161055c9190614d46565b34801561061957600080fd5b50610600610628366004614d59565b6110ee565b34801561063957600080fd5b5061064d610648366004614d88565b6111ba565b005b34801561065b57600080fd5b5061055260145481565b34801561067157600080fd5b5061055260135481565b34801561068757600080fd5b50610600610696366004614da3565b611214565b3480156106a757600080fd5b50601a546106bb906001600160401b031681565b6040516001600160401b03909116815260200161055c565b3480156106df57600080fd5b5061064d6106ee366004614da3565b61122d565b3480156106ff57600080fd5b50610708600381565b60405160ff909116815260200161055c565b34801561072657600080fd5b506016546107089060ff1681565b34801561074057600080fd5b50601f546107089060ff1681565b34801561075a57600080fd5b506018546105529081565b34801561077157600080fd5b50601f5461070890610100900460ff1681565b34801561079057600080fd5b5061064d611314565b3480156107a557600080fd5b5061055260155481565b3480156107bb57600080fd5b5061064d6107ca366004614f13565b61133b565b3480156107db57600080fd5b50610552614e2081565b3480156107f157600080fd5b5061055260225481565b34801561080757600080fd5b50610708606481565b61064d61081e366004614fc0565b611387565b34801561082f57600080fd5b506105526103e881565b34801561084557600080fd5b50600554610552565b61064d6114df565b34801561086257600080fd5b50610552610871366004615005565b6001600160a01b039182166000908152600b6020908152604080832093909416825291909152205490565b3480156108a857600080fd5b5061055260285481565b3480156108be57600080fd5b50610552620222e081565b3480156108d557600080fd5b5061064d6108e4366004615005565b611516565b3480156108f557600080fd5b5061055260255481565b34801561090b57600080fd5b5061091f61091a36600461503e565b611627565b60405161055c9190615145565b34801561093857600080fd5b506105a5610947366004614d59565b600090815260036020526040902054151590565b34801561096757600080fd5b506011546105a59060ff1681565b34801561098157600080fd5b5061055261271081565b34801561099757600080fd5b5061064d611750565b3480156109ac57600080fd5b50602c546105a5906301000000900460ff1681565b3480156109cd57600080fd5b5061064d61176c565b3480156109e257600080fd5b5061055260205481565b3480156109f857600080fd5b506017546105529081565b348015610a0f57600080fd5b5061064d611795565b348015610a2457600080fd5b5061055260245481565b348015610a3a57600080fd5b5061064d610a49366004614d59565b6117a9565b348015610a5a57600080fd5b5061064d610a69366004614d59565b6117b6565b348015610a7a57600080fd5b5061064d6117c3565b348015610a8f57600080fd5b50602c546107089060ff1681565b348015610aa957600080fd5b506105526122b881565b348015610abf57600080fd5b50610600610ace366004615158565b611bda565b348015610adf57600080fd5b5061064d610aee3660046151b0565b611c06565b348015610aff57600080fd5b50610552602a5481565b348015610b1557600080fd5b50610552611c6e565b348015610b2a57600080fd5b50610b3e610b39366004614d59565b611c7e565b6040516001600160a01b03909116815260200161055c565b348015610b6257600080fd5b506004546001600160a01b0316610b3e565b610552611cae565b348015610b8857600080fd5b50610600611cbd565b348015610b9d57600080fd5b50610552610bac366004614da3565b6001600160a01b031660009081526008602052604090205490565b348015610bd357600080fd5b50610708602381565b348015610be857600080fd5b506019546105529081565b348015610bff57600080fd5b5061064d610c0e3660046151f1565b611cca565b348015610c1f57600080fd5b50610552610c2e366004614da3565b611cd9565b348015610c3f57600080fd5b5061064d611d21565b348015610c5457600080fd5b5061064d6120a3565b348015610c6957600080fd5b506030546105a59060ff1681565b348015610c8357600080fd5b506030546105a590610100900460ff1681565b348015610ca257600080fd5b5061055260265481565b348015610cb857600080fd5b50610552610cc7366004614d59565b60009081526003602052604090205490565b348015610ce557600080fd5b5061064d610cf436600461521f565b6124b1565b348015610d0557600080fd5b50610552610d14366004615005565b612606565b348015610d2557600080fd5b5061064d610d34366004614d59565b6126d1565b348015610d4557600080fd5b5061055261045781565b348015610d5b57600080fd5b506105526202710181565b348015610d7257600080fd5b50610552610d81366004614da3565b6001600160a01b031660009081526007602052604090205490565b348015610da857600080fd5b506030546105a59062010000900460ff1681565b348015610dc857600080fd5b50610b3e610dd7366004614d59565b601d602052600090815260409020546001600160a01b031681565b348015610dfe57600080fd5b50610552610e0d366004614da3565b6001600160a01b03166000908152600a602052604090205490565b348015610e3457600080fd5b5061064d6126de565b348015610e4957600080fd5b5061055260295481565b348015610e5f57600080fd5b50602c546105a590610100900460ff1681565b348015610e7e57600080fd5b50610552610e8d366004614d59565b612703565b348015610e9e57600080fd5b50600654610552565b348015610eb357600080fd5b506105526202bf2181565b348015610eca57600080fd5b506105a5610ed9366004615005565b6001600160a01b03918216600090815260016020908152604080832093909416825291909152205460ff1690565b348015610f1357600080fd5b5061064d610f22366004615244565b612724565b348015610f3357600080fd5b5061064d610f42366004614da3565b612769565b348015610f5357600080fd5b50610708610f62366004614da3565b601e6020526000908152604090205460ff1681565b60006001600160a01b038316610fe75760405162461bcd60e51b815260206004820152602a60248201527f455243313135353a2061646472657373207a65726f206973206e6f742061207660448201526930b634b21037bbb732b960b11b60648201526084015b60405180910390fd5b506000818152602081815260408083206001600160a01b03861684529091529020545b92915050565b60006001600160e01b03198216636cdb3d1360e11b148061104157506001600160e01b031982166303a24d0760e21b145b8061100a57506301ffc9a760e01b6001600160e01b031983161461100a565b600d805461106d906152ac565b80601f0160208091040260200160405190810160405280929190818152602001828054611099906152ac565b80156110e65780601f106110bb576101008083540402835291602001916110e6565b820191906000526020600020905b8154815290600101906020018083116110c957829003601f168201915b505050505081565b60115460609060ff16151560000361119257600f805461110d906152ac565b80601f0160208091040260200160405190810160405280929190818152602001828054611139906152ac565b80156111865780601f1061115b57610100808354040283529160200191611186565b820191906000526020600020905b81548152906001019060200180831161116957829003601f168201915b50505050509050919050565b60106040516020016111a491906152e6565b6040516020818303038152906040529050919050565b6111c26127df565b60ff811660078111156111fd5760405162461bcd60e51b815260206004820152600360248201526232991960e91b6044820152606401610fde565b50602c805460ff191660ff92909216919091179055565b601c602052600090815260409020805461106d906152ac565b6001600160a01b0381166000908152600760205260409020546112625760405162461bcd60e51b8152600401610fde90615376565b600061126d82611cd9565b90508060000361128f5760405162461bcd60e51b8152600401610fde906153bc565b80600660008282546112a1919061541d565b90915550506001600160a01b03821660009081526008602052604090208054820190556112ce8282612839565b604080516001600160a01b0384168152602081018390527fdf20fd1e76bc69d672e4814fafb2c449bba3a5369d8359adf9e05e6fde87b056910160405180910390a15050565b61131c6127df565b602c805462ff0000198116620100009182900460ff1615909102179055565b6001600160a01b03851633148061135757506113578533610ed9565b6113735760405162461bcd60e51b8152600401610fde90615430565b6113808585858585612952565b5050505050565b82336001600160a01b038216146113c55760405162461bcd60e51b8152602060048201526002602482015261194d60f21b6044820152606401610fde565b3332146113e45760405162461bcd60e51b8152600401610fde9061547e565b602c5460ff1660000361141f5760405162461bcd60e51b8152602060048201526003602482015262194c4d60ea1b6044820152606401610fde565b611427612afc565b60008360ff16116114605760405162461bcd60e51b815260206004820152600360248201526265313560e81b6044820152606401610fde565b336114935760405162461bcd60e51b815260206004820152600360248201526232989b60e91b6044820152606401610fde565b8160ff166001036114a7576114a783612b55565b8160ff166002036114bb576114bb8361304e565b8160ff166004036114cf576114cf836134b9565b6114d96001600c55565b50505050565b6114e76127df565b60405133904780156108fc02916000818181858888f19350505050158015611513573d6000803e3d6000fd5b50565b6001600160a01b03811660009081526007602052604090205461154b5760405162461bcd60e51b8152600401610fde90615376565b60006115578383612606565b9050806000036115795760405162461bcd60e51b8152600401610fde906153bc565b6001600160a01b0383166000908152600a6020526040812080548392906115a190849061541d565b90915550506001600160a01b038084166000908152600b602090815260408083209386168352929052208054820190556115dc8383836139fa565b604080516001600160a01b038481168252602082018490528516917f3be5b7a71e84ed12875d241991c70855ac5817d847039e17a9d895c1ceb0f18a910160405180910390a2505050565b6060815183511461168c5760405162461bcd60e51b815260206004820152602960248201527f455243313135353a206163636f756e747320616e6420696473206c656e677468604482015268040dad2e6dac2e8c6d60bb1b6064820152608401610fde565b600083516001600160401b038111156116a7576116a7614dc0565b6040519080825280602002602001820160405280156116d0578160200160208202803683370190505b50905060005b84518110156117485761171b8582815181106116f4576116f461549a565b602002602001015185838151811061170e5761170e61549a565b6020026020010151610f77565b82828151811061172d5761172d61549a565b6020908102919091010152611741816154b0565b90506116d6565b509392505050565b6117586127df565b6011805460ff19811660ff90911615179055565b6117746127df565b602c805463ff00000019811663010000009182900460ff1615909102179055565b61179d6127df565b6117a76000613a4c565b565b6117b16127df565b602455565b6117be6127df565b602055565b3332146117e25760405162461bcd60e51b8152600401610fde9061547e565b6117ea6127df565b602c546301000000900460ff166118285760405162461bcd60e51b8152602060048201526002602482015261329b60f11b6044820152606401610fde565b60305460ff1615156001146118655760405162461bcd60e51b815260206004820152600360248201526232989960e91b6044820152606401610fde565b603054610100900460ff16156118a35760405162461bcd60e51b815260206004820152600360248201526265313360e81b6044820152606401610fde565b6118b1601980546001019055565b60006118bc60195490565b905060006118cb603154613a9e565b6033805460ff191660ff9390931692909217909155602f549091505b6118f3836103e86154c9565b811015611bc657603354600090819060ff166001036119ee5761271061191c84620293b86154c9565b61192691906154f6565b60165462ffffff919091169060ff16614e20611945876202710061550a565b62ffffff16611954919061541d565b61195f90600161541d565b611969919061541d565b611973919061541d565b905061271061198584620293b86154c9565b61199090600161541d565b61199a91906154f6565b60165462ffffff919091169060ff16614e206119b9876202710061550a565b62ffffff166119c8919061541d565b6119d390600161541d565b6119dd919061541d565b6119e7919061541d565b9150611acc565b6127106119fe84620293b86154c9565b611a0891906154f6565b60165462ffffff919091169060ff16614e20611a27876202710061552d565b62ffffff16611a36919061541d565b611a4190600161541d565b611a4b919061541d565b611a55919061541d565b9050612710611a6784620293b86154c9565b611a7290600161541d565b611a7c91906154f6565b60165462ffffff919091169060ff16614e20611a9b876202710061552d565b62ffffff16611aaa919061541d565b611ab590600161541d565b611abf919061541d565b611ac9919061541d565b91505b60006122b8614e20611ae1620222e08261541d565b611aeb919061541d565b611af5919061541d565b9050808362ffffff161180611b0e5750808262ffffff16115b6030805461ff0019166101009215158302179081905560405160ff929091049190911615158152600080516020615ae98339815191529060200160405180910390a1603054610100900460ff1615611b6857505050611bc6565b601654601554611b7f918491849160ff1690613b51565b60155560305460405161010090910460ff1615158152600080516020615ae98339815191529060200160405180910390a15050508080611bbe906154b0565b9150506118e7565b50611bd3826103e86154c9565b602f555050565b60608282604051602001611bef929190615549565b604051602081830303815290604052905092915050565b611c0e6127df565b8160ff168160ff161115611c4a5760405162461bcd60e51b815260206004820152600360248201526265323360e81b6044820152606401610fde565b601f805460ff9283166101000261ffff199091169290931691909117919091179055565b6000611c786127df565b50475b90565b600060098281548110611c9357611c9361549a565b6000918252602090912001546001600160a01b031692915050565b6000611cb86127df565b503490565b600e805461106d906152ac565b611cd5338383613d32565b5050565b600080611ce560065490565b611cef904761541d565b9050611d1a8382611d15866001600160a01b031660009081526008602052604090205490565b613e12565b9392505050565b333214611d405760405162461bcd60e51b8152600401610fde9061547e565b611d486127df565b602c54610100900460ff16611d845760405162461bcd60e51b8152602060048201526002602482015261653560f01b6044820152606401610fde565b60305460ff1615611dbc5760405162461bcd60e51b8152602060048201526002602482015261653960f01b6044820152606401610fde565b60165460ff16601203611de857611dd36011613e50565b6016805460ff191660ff929092169190911790555b611df6601780546001019055565b6000611e0160175490565b602d549091506000905b611e17836103e86154c9565b81101561208f576000612710611e3083620293b86154c9565b611e3a91906154f6565b60165462ffffff919091169060ff16611e56614e20600161541d565b611e60919061541d565b611e6a919061541d565b90506000611e7d620222e0614e2061541d565b90506000612710611e9185620293b86154c9565b611e9c90600161541d565b611ea691906154f6565b60165462ffffff919091169060ff16611ec2614e20600161541d565b611ecc919061541d565b611ed6919061541d565b9050818162ffffff161180611eef5750818362ffffff16115b6030805460ff1916911515918217905560405160ff90911615158152600080516020615ae98339815191529060200160405180910390a160305460ff16156120335762ffffff81166031819055600090611f4890613a9e565b6033805460ff90931660ff19909316831790559150600103611fc957611f7461271063bf4380416154f6565b60165462ffffff919091169060ff16614e20611f9384620222e061550a565b62ffffff16611fa2919061541d565b611fad90600161541d565b611fb7919061541d565b611fc1919061541d565b60325561202a565b611fd961271063bf4380416154f6565b60165462ffffff919091169060ff16614e20611ff884620222e061552d565b62ffffff16612007919061541d565b61201290600161541d565b61201c919061541d565b612026919061541d565b6032555b5050505061208f565b60165460135461204a918591859160ff1690613b51565b60135560305460405160ff90911615158152600080516020615ae98339815191529060200160405180910390a150909250819050612087816154b0565b915050611e0b565b5061209c826103e86154c9565b602d555050565b3332146120c25760405162461bcd60e51b8152600401610fde9061547e565b6120ca6127df565b602c5462010000900460ff166121075760405162461bcd60e51b8152602060048201526002602482015261653760f01b6044820152606401610fde565b60305460ff1615156001146121445760405162461bcd60e51b815260206004820152600360248201526206531360ec1b6044820152606401610fde565b60305462010000900460ff16156121835760405162461bcd60e51b815260206004820152600360248201526265313160e81b6044820152606401610fde565b612191601880546001019055565b600061219c60185490565b905060006121ab603154613a9e565b6033805460ff191660ff9390931692909217909155602e549091505b6121d3836103e86154c9565b81101561249d57603354600090819060ff166001036122ce576127106121fc84620293b86154c9565b61220691906154f6565b60165462ffffff919091169060ff16614e2061222587620222e061550a565b62ffffff16612234919061541d565b61223f90600161541d565b612249919061541d565b612253919061541d565b915061271061226584620293b86154c9565b61227090600161541d565b61227a91906154f6565b60165462ffffff919091169060ff16614e2061229987620222e061550a565b62ffffff166122a8919061541d565b6122b390600161541d565b6122bd919061541d565b6122c7919061541d565b90506123ac565b6127106122de84620293b86154c9565b6122e891906154f6565b60165462ffffff919091169060ff16614e2061230787620222e061552d565b62ffffff16612316919061541d565b61232190600161541d565b61232b919061541d565b612335919061541d565b915061271061234784620293b86154c9565b61235290600161541d565b61235c91906154f6565b60165462ffffff919091169060ff16614e2061237b87620222e061552d565b62ffffff1661238a919061541d565b61239590600161541d565b61239f919061541d565b6123a9919061541d565b90505b6000614e206123be620222e08261541d565b6123c8919061541d565b9050808262ffffff1611806123e15750808362ffffff16115b6030805462ff00001916620100009215158302179081905560405160ff929091049190911615158152600080516020615ae98339815191529060200160405180910390a160305462010000900460ff161561243e5750505061249d565b601654601454612455918591849160ff1690613b51565b6014556030546040516201000090910460ff1615158152600080516020615ae98339815191529060200160405180910390a15050508080612495906154b0565b9150506121c7565b506124aa826103e86154c9565b602e555050565b6124b96127df565b6000828152600360205260409020546124f95760405162461bcd60e51b8152602060048201526002602482015261329960f11b6044820152606401610fde565b6125153383600160405180602001604052806000815250613e69565b612532338284600160405180602001604052806000815250612724565b6001600160a01b0381166000908152601c6020526040902080546125de919061255a906152ac565b80601f0160208091040260200160405190810160405280929190818152602001828054612586906152ac565b80156125d35780601f106125a8576101008083540402835291602001916125d3565b820191906000526020600020905b8154815290600101906020018083116125b657829003601f168201915b505050505083611bda565b6001600160a01b0382166000908152601c602052604090209061260190826155bc565b505050565b6001600160a01b0382166000908152600a602052604081205481906040516370a0823160e01b81523060048201526001600160a01b038616906370a0823190602401602060405180830381865afa158015612665573d6000803e3d6000fd5b505050506040513d601f19601f82011682018060405250810190612689919061567b565b612693919061541d565b6001600160a01b038086166000908152600b60209081526040808320938816835292905220549091506126c99084908390613e12565b949350505050565b6126d96127df565b602855565b6126e66127df565b602c805461ff001981166101009182900460ff1615909102179055565b602b818154811061271357600080fd5b600091825260209091200154905081565b6001600160a01b03851633148061274057506127408533610ed9565b61275c5760405162461bcd60e51b8152600401610fde90615430565b6113808585858585613f52565b6127716127df565b6001600160a01b0381166127d65760405162461bcd60e51b815260206004820152602660248201527f4f776e61626c653a206e6577206f776e657220697320746865207a65726f206160448201526564647265737360d01b6064820152608401610fde565b61151381613a4c565b6004546001600160a01b031633146117a75760405162461bcd60e51b815260206004820181905260248201527f4f776e61626c653a2063616c6c6572206973206e6f7420746865206f776e65726044820152606401610fde565b804710156128895760405162461bcd60e51b815260206004820152601d60248201527f416464726573733a20696e73756666696369656e742062616c616e63650000006044820152606401610fde565b6000826001600160a01b03168260405160006040518083038185875af1925050503d80600081146128d6576040519150601f19603f3d011682016040523d82523d6000602084013e6128db565b606091505b50509050806126015760405162461bcd60e51b815260206004820152603a60248201527f416464726573733a20756e61626c6520746f2073656e642076616c75652c207260448201527f6563697069656e74206d617920686176652072657665727465640000000000006064820152608401610fde565b81518351146129735760405162461bcd60e51b8152600401610fde90615694565b6001600160a01b0384166129995760405162461bcd60e51b8152600401610fde906156dc565b336129a881878787878761407f565b60005b8451811015612a8e5760008582815181106129c8576129c861549a565b6020026020010151905060008583815181106129e6576129e661549a565b602090810291909101810151600084815280835260408082206001600160a01b038e168352909352919091205490915081811015612a365760405162461bcd60e51b8152600401610fde90615721565b6000838152602081815260408083206001600160a01b038e8116855292528083208585039055908b16825281208054849290612a7390849061541d565b9250508190555050505080612a87906154b0565b90506129ab565b50846001600160a01b0316866001600160a01b0316826001600160a01b03167f4a39dc06d4c0dbc64b70af90fd698a233a518aa5d07e595d983b8c0526c8f7fb8787604051612ade92919061576b565b60405180910390a4612af48187878787876141f8565b505050505050565b6002600c5403612b4e5760405162461bcd60e51b815260206004820152601f60248201527f5265656e7472616e637947756172643a207265656e7472616e742063616c6c006044820152606401610fde565b6002600c55565b602c54600090600190811614612b7d5760405162461bcd60e51b8152600401610fde90615799565b336000908152601e6020526040902054606460ff9091161115612bb25760405162461bcd60e51b8152600401610fde906157b6565b602360ff83161115612bd65760405162461bcd60e51b8152600401610fde906157d3565b336000908152601e6020526040902054606490612bf790849060ff166157f0565b60ff161115612c2557336000908152601e6020526040902054612c1e9060ff166064615809565b9150600190505b600080600080612c92866202bf21602a546122b8610457602b805480602002602001604051908101604052809291908181526020018280548015612c8857602002820191906000526020600020905b815481526020019060010190808311612c74575b5050505050614353565b93509350935093508560ff168360ff1614612cac57600194505b6028543490612cbf9060ff8616906154c9565b811015612cde5760405162461bcd60e51b8152600401610fde90615822565b6004546001600160a01b03166001600160a01b03166108fc8560ff16602854612d0791906154c9565b6040518115909202916000818181858888f19350505050158015612d2f573d6000803e3d6000fd5b5060008460ff166001600160401b03811115612d4d57612d4d614dc0565b604051908082528060200260200182016040528015612d76578160200160208202803683370190505b50905060008560ff166001600160401b03811115612d9657612d96614dc0565b604051908082528060200260200182016040528015612dbf578160200160208202803683370190505b50905060005b8660ff16811015612e2957612dda818961541d565b838281518110612dec57612dec61549a565b6020026020010181815250506001828281518110612e0c57612e0c61549a565b602090810291909101015280612e21816154b0565b915050612dc5565b50612e45338383604051806020016040528060008152506144ee565b60005b8660ff16811015612eb75733601d6000858481518110612e6a57612e6a61549a565b6020026020010151815260200190815260200160002060006101000a8154816001600160a01b0302191690836001600160a01b031602179055508080612eaf906154b0565b915050612e48565b508151336000908152601e6020526040902054612ed7919060ff1661541d565b336000908152601e60205260409020805460ff191660ff928316179055602a869055602b8054888316928716908110612f1257612f1261549a565b9060005260206000200154612f27919061541d565b602b8560ff1681548110612f3d57612f3d61549a565b90600052602060002001819055508560ff1660296000828254612f60919061541d565b90915550506029546122b811612f8457602c805463ff000000191663010000001790555b336000818152601e60205260409020547fdf6bd66365a8c4ede51660159bba6757ea60b0815714ebd8534054d929f3337f9060ff1684612fc560018b615809565b60ff1681518110612fd857612fd861549a565b6020026020010151604051612ffc92919060ff929092168252602082015260400190565b60405180910390a287156130435760405160ff8716815233907faf3c443bb05b163e7d42de9f4b11bdbfa307cad571a1ae5013e5e2ee92e66ed29060200160405180910390a25b505050505050505050565b602c546000906002908116146130765760405162461bcd60e51b8152600401610fde90615799565b336000908152601e6020526040902054606460ff90911611156130ab5760405162461bcd60e51b8152600401610fde906157b6565b602360ff831611156130cf5760405162461bcd60e51b8152600401610fde906157d3565b336000908152601e60205260409020546064906130f090849060ff166157f0565b60ff16111561311e57336000908152601e60205260409020546131179060ff166064615809565b9150600190505b6000806000806131898662027101602654614e206103e86027805480602002602001604051908101604052809291908181526020018280548015612c885760200282019190600052602060002090815481526020019060010190808311612c74575050505050614353565b93509350935093508560ff168360ff16146131a357600194505b60245434906131b69060ff8616906154c9565b8110156131d55760405162461bcd60e51b8152600401610fde90615822565b6004546001600160a01b03166001600160a01b03166108fc8560ff166024546131fe91906154c9565b6040518115909202916000818181858888f19350505050158015613226573d6000803e3d6000fd5b5060008460ff166001600160401b0381111561324457613244614dc0565b60405190808252806020026020018201604052801561326d578160200160208202803683370190505b50905060008560ff166001600160401b0381111561328d5761328d614dc0565b6040519080825280602002602001820160405280156132b6578160200160208202803683370190505b50905060005b8660ff16811015613320576132d1818961541d565b8382815181106132e3576132e361549a565b60200260200101818152505060018282815181106133035761330361549a565b602090810291909101015280613318816154b0565b9150506132bc565b5061333c338383604051806020016040528060008152506144ee565b60005b8660ff168110156133ae5733601d60008584815181106133615761336161549a565b6020026020010151815260200190815260200160002060006101000a8154816001600160a01b0302191690836001600160a01b0316021790555080806133a6906154b0565b91505061333f565b508151336000908152601e60205260409020546133ce919060ff1661541d565b336000908152601e60205260409020805460ff191660ff9283161790556026869055602780548883169287169081106134095761340961549a565b906000526020600020015461341e919061541d565b60278560ff16815481106134345761343461549a565b90600052602060002001819055508560ff1660256000828254613457919061541d565b9091555050602554614e2011612f8457602c805462ff0000191662010000179055336000818152601e60205260409020547fdf6bd66365a8c4ede51660159bba6757ea60b0815714ebd8534054d929f3337f9060ff1684612fc560018b615809565b602c546000906004908116146134e15760405162461bcd60e51b8152600401610fde90615799565b336000908152601e6020526040902054606460ff90911611156135165760405162461bcd60e51b8152600401610fde906157b6565b602360ff8316111561353a5760405162461bcd60e51b8152600401610fde906157d3565b336000908152601e602052604090205460649061355b90849060ff166157f0565b60ff16111561358957336000908152601e60205260409020546135829060ff166064615809565b9150600190505b6000806000806135f486614e21602254620222e06127106023805480602002602001604051908101604052809291908181526020018280548015612c885760200282019190600052602060002090815481526020019060010190808311612c74575050505050614353565b93509350935093508560ff168360ff161461360e57600194505b602054600560ff8516108015906136285750600a8460ff16105b1561364f576005602054600461363e91906154c9565b61364891906154f6565b905061366c565b600a8460ff161061366c57600260205461366991906154f6565b90505b3461367a60ff8616836154c9565b8110156136995760405162461bcd60e51b8152600401610fde90615822565b6004546001600160a01b03166108fc6136b560ff8816856154c9565b6040518115909202916000818181858888f193505050501580156136dd573d6000803e3d6000fd5b5060008560ff166001600160401b038111156136fb576136fb614dc0565b604051908082528060200260200182016040528015613724578160200160208202803683370190505b50905060008660ff166001600160401b0381111561374457613744614dc0565b60405190808252806020026020018201604052801561376d578160200160208202803683370190505b50905060005b8760ff168110156137d757613788818a61541d565b83828151811061379a5761379a61549a565b60200260200101818152505060018282815181106137ba576137ba61549a565b6020908102919091010152806137cf816154b0565b915050613773565b506137f3338383604051806020016040528060008152506144ee565b60005b8760ff168110156138655733601d60008584815181106138185761381861549a565b6020026020010151815260200190815260200160002060006101000a8154816001600160a01b0302191690836001600160a01b03160217905550808061385d906154b0565b9150506137f6565b508151336000908152601e6020526040902054613885919060ff1661541d565b336000908152601e60205260409020805460ff191660ff9283161790556022879055602380548983169288169081106138c0576138c061549a565b90600052602060002001546138d5919061541d565b60238660ff16815481106138eb576138eb61549a565b90600052602060002001819055508660ff166021600082825461390e919061541d565b9091555050602154620222e01161392f57602c805461ff0019166101001790555b336000818152601e60205260409020547fdf6bd66365a8c4ede51660159bba6757ea60b0815714ebd8534054d929f3337f9060ff168461397060018c615809565b60ff16815181106139835761398361549a565b60200260200101516040516139a792919060ff929092168252602082015260400190565b60405180910390a288156139ee5760405160ff8816815233907faf3c443bb05b163e7d42de9f4b11bdbfa307cad571a1ae5013e5e2ee92e66ed29060200160405180910390a25b50505050505050505050565b604080516001600160a01b038416602482015260448082018490528251808303909101815260649091019091526020810180516001600160e01b031663a9059cbb60e01b179052612601908490614648565b600480546001600160a01b038381166001600160a01b0319831681179093556040519116919082907f8be0079c531659141344cd1fd0a4f28419497f9722a3daafe3b4186f6b6457e090600090a35050565b601654600090819060ff16613ab8614e20620222e061541d565b613ac390600161541d565b613acd919061541d565b62ffffff168310613b185760165460019060ff16613af0614e20620222e061541d565b613afb90600161541d565b613b05919061541d565b613b0f908561552d565b91509150915091565b601654600090849060ff16613b32614e20620222e061541d565b613b3d90600161541d565b613b47919061541d565b613b0f919061552d565b60007f447b8744ce19b4ec182a865f10546affad5cb63bee7fbf1f4733554d3644a8d085613b8260ff86168761583f565b6040805162ffffff909316835260208301919091520160405180910390a16000613bb08662ffffff1661471a565b90506001600160a01b03811615613d28576000613bcb61477f565b9050613be93382600160405180602001604052806000815250613e69565b613c06338383600160405180602001604052806000815250612724565b613c1160018561541d565b6001600160a01b0383166000908152601c602052604090208054919550613cbf91613c3b906152ac565b80601f0160208091040260200160405190810160405280929190818152602001828054613c67906152ac565b8015613cb45780601f10613c8957610100808354040283529160200191613cb4565b820191906000526020600020905b815481529060010190602001808311613c9757829003601f168201915b505050505082611bda565b6001600160a01b0383166000908152601c6020526040902090613ce290826155bc565b50816001600160a01b03167ffbc825a9dbec6ba579c678650f97fd1adaab5d895472fb72d1be4a0982ed8c1982604051613d1e91815260200190565b60405180910390a2505b5090949350505050565b816001600160a01b0316836001600160a01b031603613da55760405162461bcd60e51b815260206004820152602960248201527f455243313135353a2073657474696e6720617070726f76616c20737461747573604482015268103337b91039b2b63360b91b6064820152608401610fde565b6001600160a01b03838116600081815260016020908152604080832094871680845294825291829020805460ff191686151590811790915591519182527f17307eab39ab6107e8899845ad3d59bd9653f200f220920489ca2b5937696c31910160405180910390a3505050565b6005546001600160a01b03841660009081526007602052604081205490918391613e3c90866154c9565b613e4691906154f6565b6126c9919061583f565b600081613e5e60014361583f565b61100a919040615852565b6001600160a01b038416613e8f5760405162461bcd60e51b8152600401610fde90615866565b336000613e9b85614a73565b90506000613ea885614a73565b9050613eb98360008985858961407f565b6000868152602081815260408083206001600160a01b038b16845290915281208054879290613ee990849061541d565b909155505060408051878152602081018790526001600160a01b03808a1692600092918716917fc3d58168c5ae7397731d063d5bbf3d657854427343f4c083240f7aacaa2d0f62910160405180910390a4613f4983600089898989614abe565b50505050505050565b6001600160a01b038416613f785760405162461bcd60e51b8152600401610fde906156dc565b336000613f8485614a73565b90506000613f9185614a73565b9050613fa183898985858961407f565b6000868152602081815260408083206001600160a01b038c16845290915290205485811015613fe25760405162461bcd60e51b8152600401610fde90615721565b6000878152602081815260408083206001600160a01b038d8116855292528083208985039055908a1682528120805488929061401f90849061541d565b909155505060408051888152602081018890526001600160a01b03808b16928c821692918816917fc3d58168c5ae7397731d063d5bbf3d657854427343f4c083240f7aacaa2d0f62910160405180910390a4613043848a8a8a8a8a614abe565b6001600160a01b0385166141065760005b8351811015614104578281815181106140ab576140ab61549a565b6020026020010151600360008684815181106140c9576140c961549a565b6020026020010151815260200190815260200160002060008282546140ee919061541d565b909155506140fd9050816154b0565b9050614090565b505b6001600160a01b038416612af45760005b8351811015613f495760008482815181106141345761413461549a565b6020026020010151905060008483815181106141525761415261549a565b60200260200101519050600060036000848152602001908152602001600020549050818110156141d55760405162461bcd60e51b815260206004820152602860248201527f455243313135353a206275726e20616d6f756e74206578636565647320746f74604482015267616c537570706c7960c01b6064820152608401610fde565b600092835260036020526040909220910390556141f1816154b0565b9050614117565b6001600160a01b0384163b15612af45760405163bc197c8160e01b81526001600160a01b0385169063bc197c819061423c90899089908890889088906004016158a7565b6020604051808303816000875af1925050508015614277575060408051601f3d908101601f1916820190925261427491810190615905565b60015b61432357614283615922565b806308c379a0036142bc575061429761593d565b806142a257506142be565b8060405162461bcd60e51b8152600401610fde9190614d46565b505b60405162461bcd60e51b815260206004820152603460248201527f455243313135353a207472616e7366657220746f206e6f6e2d455243313135356044820152732932b1b2b4bb32b91034b6b83632b6b2b73a32b960611b6064820152608401610fde565b6001600160e01b0319811663bc197c8160e01b14613f495760405162461bcd60e51b8152600401610fde906159c6565b60008060008086881061438e5760405162461bcd60e51b815260206004820152600360248201526206532360ec1b6044820152606401610fde565b60006143a261439d888a6154f6565b613e50565b905060005b6143b1888a6154f6565b8160ff161461442e5787878360ff16815181106143d0576143d061549a565b6020026020010151036144175760016143e9898b6154f6565b6143f3919061583f565b8260ff1603614405576000915061441c565b8161440f81615a0e565b92505061441c565b61442e565b8061442681615a0e565b9150506143a7565b600061443d8960ff85166154c9565b888460ff16815181106144525761445261549a565b6020026020010151614464919061541d565b9050888d60ff16898560ff16815181106144805761448061549a565b6020026020010151614492919061541d565b11156144c357878360ff16815181106144ad576144ad61549a565b6020026020010151896144c0919061583f565b9c505b6144d08b60ff8f1661541d565b9a506144dc8c8261541d565b9d9a9b50919998505050505050505050565b6001600160a01b0384166145145760405162461bcd60e51b8152600401610fde90615866565b81518351146145355760405162461bcd60e51b8152600401610fde90615694565b336145458160008787878761407f565b60005b84518110156145e0578381815181106145635761456361549a565b60200260200101516000808784815181106145805761458061549a565b602002602001015181526020019081526020016000206000886001600160a01b03166001600160a01b0316815260200190815260200160002060008282546145c8919061541d565b909155508190506145d8816154b0565b915050614548565b50846001600160a01b031660006001600160a01b0316826001600160a01b03167f4a39dc06d4c0dbc64b70af90fd698a233a518aa5d07e595d983b8c0526c8f7fb878760405161463192919061576b565b60405180910390a4611380816000878787876141f8565b600061469d826040518060400160405280602081526020017f5361666545524332303a206c6f772d6c6576656c2063616c6c206661696c6564815250856001600160a01b0316614b799092919063ffffffff16565b80519091501561260157808060200190518101906146bb9190615a2d565b6126015760405162461bcd60e51b815260206004820152602a60248201527f5361666545524332303a204552433230206f7065726174696f6e20646964206e6044820152691bdd081cdd58d8d9595960b21b6064820152608401610fde565b6000818152600360205260408120541515801561475657506000828152601d6020526040812054614754906001600160a01b031684610f77565b115b1561477757506000908152601d60205260409020546001600160a01b031690565b506000919050565b601a54600090614e206001600160401b03909116106147c55760405162461bcd60e51b81526020600482015260026024820152610ca760f31b6044820152606401610fde565b601b546000906147d490613e50565b905060005b601b5460ff908116908216101561486957601b546147f990614e206154f6565b601b8360ff168154811061480f5761480f61549a565b90600052602060002001540361485257601b5461482e9060019061583f565b8260ff16036148405760009150614857565b8161484a81615a0e565b925050614857565b614869565b8061486181615a0e565b9150506147d9565b600061487760026064615a4a565b60ff16601b8460ff16815481106148905761489061549a565b906000526020600020015410156148f8576148af606460ff85166154c9565b601b8460ff16815481106148c5576148c561549a565b906000526020600020015460016148dc919061541d565b6148e79060026154c9565b6148f1919061541d565b90506149f6565b60ff8316158015614936575061491060026064615a4a565b60ff16601b8460ff16815481106149295761492961549a565b9060005260206000200154145b1561498b57601b8360ff16815481106149515761495161549a565b90600052602060002001546002614968919061541d565b601b8460ff168154811061497e5761497e61549a565b6000918252602090912001555b614999606460ff85166154c9565b6149a560026064615a4a565b60ff16601b8560ff16815481106149be576149be61549a565b90600052602060002001546149d3919061583f565b6149de9060026154c9565b6149e990600161541d565b6149f3919061541d565b90505b6001601b8460ff1681548110614a0e57614a0e61549a565b906000526020600020016000828254614a27919061541d565b9091555050601a80546001600160401b0316906000614a4583615a6c565b91906101000a8154816001600160401b0302191690836001600160401b031602179055505080935050505090565b60408051600180825281830190925260609160009190602080830190803683370190505090508281600081518110614aad57614aad61549a565b602090810291909101015292915050565b6001600160a01b0384163b15612af45760405163f23a6e6160e01b81526001600160a01b0385169063f23a6e6190614b029089908990889088908890600401615a92565b6020604051808303816000875af1925050508015614b3d575060408051601f3d908101601f19168201909252614b3a91810190615905565b60015b614b4957614283615922565b6001600160e01b0319811663f23a6e6160e01b14613f495760405162461bcd60e51b8152600401610fde906159c6565b60606126c9848460008585600080866001600160a01b03168587604051614ba09190615acc565b60006040518083038185875af1925050503d8060008114614bdd576040519150601f19603f3d011682016040523d82523d6000602084013e614be2565b606091505b5091509150614bf387838387614bfe565b979650505050505050565b60608315614c6d578251600003614c66576001600160a01b0385163b614c665760405162461bcd60e51b815260206004820152601d60248201527f416464726573733a2063616c6c20746f206e6f6e2d636f6e74726163740000006044820152606401610fde565b50816126c9565b6126c983838151156142a25781518083602001fd5b6001600160a01b038116811461151357600080fd5b60008060408385031215614caa57600080fd5b8235614cb581614c82565b946020939093013593505050565b6001600160e01b03198116811461151357600080fd5b600060208284031215614ceb57600080fd5b8135611d1a81614cc3565b60005b83811015614d11578181015183820152602001614cf9565b50506000910152565b60008151808452614d32816020860160208601614cf6565b601f01601f19169290920160200192915050565b602081526000611d1a6020830184614d1a565b600060208284031215614d6b57600080fd5b5035919050565b803560ff81168114614d8357600080fd5b919050565b600060208284031215614d9a57600080fd5b611d1a82614d72565b600060208284031215614db557600080fd5b8135611d1a81614c82565b634e487b7160e01b600052604160045260246000fd5b601f8201601f191681016001600160401b0381118282101715614dfb57614dfb614dc0565b6040525050565b60006001600160401b03821115614e1b57614e1b614dc0565b5060051b60200190565b600082601f830112614e3657600080fd5b81356020614e4382614e02565b604051614e508282614dd6565b83815260059390931b8501820192828101915086841115614e7057600080fd5b8286015b84811015614e8b5780358352918301918301614e74565b509695505050505050565b60006001600160401b03831115614eaf57614eaf614dc0565b604051614ec6601f8501601f191660200182614dd6565b809150838152848484011115614edb57600080fd5b83836020830137600060208583010152509392505050565b600082601f830112614f0457600080fd5b611d1a83833560208501614e96565b600080600080600060a08688031215614f2b57600080fd5b8535614f3681614c82565b94506020860135614f4681614c82565b935060408601356001600160401b0380821115614f6257600080fd5b614f6e89838a01614e25565b94506060880135915080821115614f8457600080fd5b614f9089838a01614e25565b93506080880135915080821115614fa657600080fd5b50614fb388828901614ef3565b9150509295509295909350565b600080600060608486031215614fd557600080fd5b8335614fe081614c82565b9250614fee60208501614d72565b9150614ffc60408501614d72565b90509250925092565b6000806040838503121561501857600080fd5b823561502381614c82565b9150602083013561503381614c82565b809150509250929050565b6000806040838503121561505157600080fd5b82356001600160401b038082111561506857600080fd5b818501915085601f83011261507c57600080fd5b8135602061508982614e02565b6040516150968282614dd6565b83815260059390931b85018201928281019150898411156150b657600080fd5b948201945b838610156150dd5785356150ce81614c82565b825294820194908201906150bb565b965050860135925050808211156150f357600080fd5b5061510085828601614e25565b9150509250929050565b600081518084526020808501945080840160005b8381101561513a5781518752958201959082019060010161511e565b509495945050505050565b602081526000611d1a602083018461510a565b6000806040838503121561516b57600080fd5b82356001600160401b0381111561518157600080fd5b8301601f8101851361519257600080fd5b6151a185823560208401614e96565b95602094909401359450505050565b600080604083850312156151c357600080fd5b6151cc83614d72565b91506151da60208401614d72565b90509250929050565b801515811461151357600080fd5b6000806040838503121561520457600080fd5b823561520f81614c82565b91506020830135615033816151e3565b6000806040838503121561523257600080fd5b82359150602083013561503381614c82565b600080600080600060a0868803121561525c57600080fd5b853561526781614c82565b9450602086013561527781614c82565b9350604086013592506060860135915060808601356001600160401b038111156152a057600080fd5b614fb388828901614ef3565b600181811c908216806152c057607f821691505b6020821081036152e057634e487b7160e01b600052602260045260246000fd5b50919050565b60008083546152f4816152ac565b6001828116801561530c576001811461532157615350565b60ff1984168752821515830287019450615350565b8760005260208060002060005b858110156153475781548a82015290840190820161532e565b50505082870194505b5050637b69647d60e01b8352505064173539b7b760d91b60048201526009019392505050565b60208082526026908201527f5061796d656e7453706c69747465723a206163636f756e7420686173206e6f2060408201526573686172657360d01b606082015260800190565b6020808252602b908201527f5061796d656e7453706c69747465723a206163636f756e74206973206e6f742060408201526a191d59481c185e5b595b9d60aa1b606082015260800190565b634e487b7160e01b600052601160045260246000fd5b8082018082111561100a5761100a615407565b6020808252602e908201527f455243313135353a2063616c6c6572206973206e6f7420746f6b656e206f776e60408201526d195c881bdc88185c1c1c9bdd995960921b606082015260800190565b602080825260029082015261653360f01b604082015260600190565b634e487b7160e01b600052603260045260246000fd5b6000600182016154c2576154c2615407565b5060010190565b808202811582820484141761100a5761100a615407565b634e487b7160e01b600052601260045260246000fd5b600082615505576155056154e0565b500490565b62ffffff81811683821601908082111561552657615526615407565b5092915050565b62ffffff82811682821603908082111561552657615526615407565b6000835161555b818460208801614cf6565b600b60fa1b9201918252506001810191909152602101919050565b601f82111561260157600081815260208120601f850160051c8101602086101561559d5750805b601f850160051c820191505b81811015612af4578281556001016155a9565b81516001600160401b038111156155d5576155d5614dc0565b6155e9816155e384546152ac565b84615576565b602080601f83116001811461561e57600084156156065750858301515b600019600386901b1c1916600185901b178555612af4565b600085815260208120601f198616915b8281101561564d5788860151825594840194600190910190840161562e565b508582101561566b5787850151600019600388901b60f8161c191681555b5050505050600190811b01905550565b60006020828403121561568d57600080fd5b5051919050565b60208082526028908201527f455243313135353a2069647320616e6420616d6f756e7473206c656e677468206040820152670dad2e6dac2e8c6d60c31b606082015260800190565b60208082526025908201527f455243313135353a207472616e7366657220746f20746865207a65726f206164604082015264647265737360d81b606082015260800190565b6020808252602a908201527f455243313135353a20696e73756666696369656e742062616c616e636520666f60408201526939103a3930b739b332b960b11b606082015260800190565b60408152600061577e604083018561510a565b8281036020840152615790818561510a565b95945050505050565b60208082526003908201526265323160e81b604082015260600190565b60208082526003908201526265313760e81b604082015260600190565b6020808252600390820152620ca62760eb1b604082015260600190565b60ff818116838216019081111561100a5761100a615407565b60ff828116828216039081111561100a5761100a615407565b60208082526003908201526265313960e81b604082015260600190565b8181038181111561100a5761100a615407565b600082615861576158616154e0565b500690565b60208082526021908201527f455243313135353a206d696e7420746f20746865207a65726f206164647265736040820152607360f81b606082015260800190565b6001600160a01b0386811682528516602082015260a0604082018190526000906158d39083018661510a565b82810360608401526158e5818661510a565b905082810360808401526158f98185614d1a565b98975050505050505050565b60006020828403121561591757600080fd5b8151611d1a81614cc3565b600060033d1115611c7b5760046000803e5060005160e01c90565b600060443d101561594b5790565b6040516003193d81016004833e81513d6001600160401b03816024840111818411171561597a57505050505090565b82850191508151818111156159925750505050505090565b843d87010160208285010111156159ac5750505050505090565b6159bb60208286010187614dd6565b509095945050505050565b60208082526028908201527f455243313135353a204552433131353552656365697665722072656a656374656040820152676420746f6b656e7360c01b606082015260800190565b600060ff821660ff8103615a2457615a24615407565b60010192915050565b600060208284031215615a3f57600080fd5b8151611d1a816151e3565b600060ff831680615a5d57615a5d6154e0565b8060ff84160491505092915050565b60006001600160401b03808316818103615a8857615a88615407565b6001019392505050565b6001600160a01b03868116825285166020820152604081018490526060810183905260a060808201819052600090614bf390830184614d1a565b60008251615ade818460208701614cf6565b919091019291505056fe7b7d25f8a91d07d734c2f45d6dd20e28016c3648b97f80270c65a2a565e62025a264697066735822122087c74f61babb4725a1a4b4bf8933cd924220c3e300b26d6e9c7694409ab75a7f64736f6c63430008110033",
  "linkReferences": {},
  "deployedLinkReferences": {}
}