{
  "_format": "hh-sol-artifact-1",
  "contractName": "Vipsland",
  "sourceName": "contracts/Vipsland.sol",
  "abi": [
    {
      "inputs": [
        {
          "internalType": "address[]",
          "name": "_team",
          "type": "address[]"
        },
        {
          "internalType": "uint256[]",
          "name": "_teamShares",
          "type": "uint256[]"
        },
        {
          "internalType": "string",
          "name": "_notRevealedUri",
          "type": "string"
        },
        {
          "internalType": "string",
          "name": "_revealedUri",
          "type": "string"
        }
      ],
      "stateMutability": "nonpayable",
      "type": "constructor"
    },
    {
      "anonymous": false,
      "inputs": [
        {
          "indexed": true,
          "internalType": "address",
          "name": "account",
          "type": "address"
        },
        {
          "indexed": true,
          "internalType": "address",
          "name": "operator",
          "type": "address"
        },
        {
          "indexed": false,
          "internalType": "bool",
          "name": "approved",
          "type": "bool"
        }
      ],
      "name": "ApprovalForAll",
      "type": "event"
    },
    {
      "anonymous": false,
      "inputs": [
        {
          "indexed": false,
          "internalType": "uint256",
          "name": "tokenMPID",
          "type": "uint256"
        }
      ],
      "name": "DebugMP",
      "type": "event"
    },
    {
      "anonymous": false,
      "inputs": [
        {
          "indexed": true,
          "internalType": "address",
          "name": "acc",
          "type": "address"
        },
        {
          "indexed": false,
          "internalType": "uint256",
          "name": "minted_amount",
          "type": "uint256"
        },
        {
          "indexed": false,
          "internalType": "uint256",
          "name": "last_minted_NONMPID",
          "type": "uint256"
        }
      ],
      "name": "DitributePRTs",
      "type": "event"
    },
    {
      "anonymous": false,
      "inputs": [
        {
          "indexed": true,
          "internalType": "contract IERC20",
          "name": "token",
          "type": "address"
        },
        {
          "indexed": false,
          "internalType": "address",
          "name": "to",
          "type": "address"
        },
        {
          "indexed": false,
          "internalType": "uint256",
          "name": "amount",
          "type": "uint256"
        }
      ],
      "name": "ERC20PaymentReleased",
      "type": "event"
    },
    {
      "anonymous": false,
      "inputs": [
        {
          "indexed": false,
          "internalType": "bool",
          "name": "sendMPAllDone",
          "type": "bool"
        }
      ],
      "name": "MPAllDone",
      "type": "event"
    },
    {
      "anonymous": false,
      "inputs": [
        {
          "indexed": true,
          "internalType": "address",
          "name": "previousOwner",
          "type": "address"
        },
        {
          "indexed": true,
          "internalType": "address",
          "name": "newOwner",
          "type": "address"
        }
      ],
      "name": "OwnershipTransferred",
      "type": "event"
    },
    {
      "anonymous": false,
      "inputs": [
        {
          "indexed": false,
          "internalType": "address",
          "name": "account",
          "type": "address"
        },
        {
          "indexed": false,
          "internalType": "uint256",
          "name": "shares",
          "type": "uint256"
        }
      ],
      "name": "PayeeAdded",
      "type": "event"
    },
    {
      "anonymous": false,
      "inputs": [
        {
          "indexed": false,
          "internalType": "address",
          "name": "from",
          "type": "address"
        },
        {
          "indexed": false,
          "internalType": "uint256",
          "name": "amount",
          "type": "uint256"
        }
      ],
      "name": "PaymentReceived",
      "type": "event"
    },
    {
      "anonymous": false,
      "inputs": [
        {
          "indexed": false,
          "internalType": "address",
          "name": "to",
          "type": "address"
        },
        {
          "indexed": false,
          "internalType": "uint256",
          "name": "amount",
          "type": "uint256"
        }
      ],
      "name": "PaymentReleased",
      "type": "event"
    },
    {
      "anonymous": false,
      "inputs": [
        {
          "indexed": true,
          "internalType": "address",
          "name": "acc",
          "type": "address"
        },
        {
          "indexed": false,
          "internalType": "uint256",
          "name": "qnt",
          "type": "uint256"
        }
      ],
      "name": "RemainMessageNeeds",
      "type": "event"
    },
    {
      "anonymous": false,
      "inputs": [
        {
          "indexed": false,
          "internalType": "uint256",
          "name": "_winnerTokenNONMPID",
          "type": "uint256"
        },
        {
          "indexed": false,
          "internalType": "uint256",
          "name": "max_nonmpid_minus_xrand",
          "type": "uint256"
        }
      ],
      "name": "SelectedNONMPIDTokens",
      "type": "event"
    },
    {
      "anonymous": false,
      "inputs": [
        {
          "indexed": true,
          "internalType": "address",
          "name": "operator",
          "type": "address"
        },
        {
          "indexed": true,
          "internalType": "address",
          "name": "from",
          "type": "address"
        },
        {
          "indexed": true,
          "internalType": "address",
          "name": "to",
          "type": "address"
        },
        {
          "indexed": false,
          "internalType": "uint256[]",
          "name": "ids",
          "type": "uint256[]"
        },
        {
          "indexed": false,
          "internalType": "uint256[]",
          "name": "values",
          "type": "uint256[]"
        }
      ],
      "name": "TransferBatch",
      "type": "event"
    },
    {
      "anonymous": false,
      "inputs": [
        {
          "indexed": true,
          "internalType": "address",
          "name": "operator",
          "type": "address"
        },
        {
          "indexed": true,
          "internalType": "address",
          "name": "from",
          "type": "address"
        },
        {
          "indexed": true,
          "internalType": "address",
          "name": "to",
          "type": "address"
        },
        {
          "indexed": false,
          "internalType": "uint256",
          "name": "id",
          "type": "uint256"
        },
        {
          "indexed": false,
          "internalType": "uint256",
          "name": "value",
          "type": "uint256"
        }
      ],
      "name": "TransferSingle",
      "type": "event"
    },
    {
      "anonymous": false,
      "inputs": [
        {
          "indexed": false,
          "internalType": "string",
          "name": "value",
          "type": "string"
        },
        {
          "indexed": true,
          "internalType": "uint256",
          "name": "id",
          "type": "uint256"
        }
      ],
      "name": "URI",
      "type": "event"
    },
    {
      "anonymous": false,
      "inputs": [
        {
          "indexed": true,
          "internalType": "address",
          "name": "acc",
          "type": "address"
        },
        {
          "indexed": false,
          "internalType": "uint256",
          "name": "winnerTokenPRTID",
          "type": "uint256"
        }
      ],
      "name": "WinnersMP",
      "type": "event"
    },
    {
      "inputs": [],
      "name": "EACH_RAND_SLOT_NUM_TOTAL_FOR_AIRDROP",
      "outputs": [
        {
          "internalType": "uint256",
          "name": "",
          "type": "uint256"
        }
      ],
      "stateMutability": "view",
      "type": "function"
    },
    {
      "inputs": [],
      "name": "EACH_RAND_SLOT_NUM_TOTAL_FOR_INTERNALTEAM",
      "outputs": [
        {
          "internalType": "uint256",
          "name": "",
          "type": "uint256"
        }
      ],
      "stateMutability": "view",
      "type": "function"
    },
    {
      "inputs": [],
      "name": "EACH_RAND_SLOT_NUM_TOTAL_FOR_PRT",
      "outputs": [
        {
          "internalType": "uint256",
          "name": "",
          "type": "uint256"
        }
      ],
      "stateMutability": "view",
      "type": "function"
    },
    {
      "inputs": [],
      "name": "MAX_PRT_AMOUNT_PER_ACC",
      "outputs": [
        {
          "internalType": "uint8",
          "name": "",
          "type": "uint8"
        }
      ],
      "stateMutability": "view",
      "type": "function"
    },
    {
      "inputs": [],
      "name": "MAX_PRT_AMOUNT_PER_ACC_PER_TRANSACTION",
      "outputs": [
        {
          "internalType": "uint8",
          "name": "",
          "type": "uint8"
        }
      ],
      "stateMutability": "view",
      "type": "function"
    },
    {
      "inputs": [],
      "name": "MAX_SUPPLY_FOR_AIRDROP_TOKEN",
      "outputs": [
        {
          "internalType": "uint256",
          "name": "",
          "type": "uint256"
        }
      ],
      "stateMutability": "view",
      "type": "function"
    },
    {
      "inputs": [],
      "name": "MAX_SUPPLY_FOR_INTERNALTEAM_TOKEN",
      "outputs": [
        {
          "internalType": "uint256",
          "name": "",
          "type": "uint256"
        }
      ],
      "stateMutability": "view",
      "type": "function"
    },
    {
      "inputs": [],
      "name": "MAX_SUPPLY_FOR_PRT_TOKEN",
      "outputs": [
        {
          "internalType": "uint256",
          "name": "",
          "type": "uint256"
        }
      ],
      "stateMutability": "view",
      "type": "function"
    },
    {
      "inputs": [],
      "name": "MAX_SUPPLY_MP",
      "outputs": [
        {
          "internalType": "uint256",
          "name": "",
          "type": "uint256"
        }
      ],
      "stateMutability": "view",
      "type": "function"
    },
    {
      "inputs": [],
      "name": "NUM_TOTAL_FOR_MP",
      "outputs": [
        {
          "internalType": "uint8",
          "name": "",
          "type": "uint8"
        }
      ],
      "stateMutability": "view",
      "type": "function"
    },
    {
      "inputs": [],
      "name": "PRICE_PRT",
      "outputs": [
        {
          "internalType": "uint256",
          "name": "",
          "type": "uint256"
        }
      ],
      "stateMutability": "view",
      "type": "function"
    },
    {
      "inputs": [],
      "name": "PRICE_PRT_AIRDROP",
      "outputs": [
        {
          "internalType": "uint256",
          "name": "",
          "type": "uint256"
        }
      ],
      "stateMutability": "view",
      "type": "function"
    },
    {
      "inputs": [],
      "name": "PRICE_PRT_INTERNALTEAM",
      "outputs": [
        {
          "internalType": "uint256",
          "name": "",
          "type": "uint256"
        }
      ],
      "stateMutability": "view",
      "type": "function"
    },
    {
      "inputs": [],
      "name": "PRTID",
      "outputs": [
        {
          "internalType": "uint256",
          "name": "",
          "type": "uint256"
        }
      ],
      "stateMutability": "view",
      "type": "function"
    },
    {
      "inputs": [],
      "name": "STARTINGIDFORAIRDROP",
      "outputs": [
        {
          "internalType": "uint256",
          "name": "",
          "type": "uint256"
        }
      ],
      "stateMutability": "view",
      "type": "function"
    },
    {
      "inputs": [],
      "name": "STARTINGIDFORINTERNALTEAM",
      "outputs": [
        {
          "internalType": "uint256",
          "name": "",
          "type": "uint256"
        }
      ],
      "stateMutability": "view",
      "type": "function"
    },
    {
      "inputs": [],
      "name": "STARTINGIDFORPRT",
      "outputs": [
        {
          "internalType": "uint256",
          "name": "",
          "type": "uint256"
        }
      ],
      "stateMutability": "view",
      "type": "function"
    },
    {
      "inputs": [],
      "name": "_counter_for_generatelucky_mp",
      "outputs": [
        {
          "internalType": "uint256",
          "name": "_value",
          "type": "uint256"
        }
      ],
      "stateMutability": "view",
      "type": "function"
    },
    {
      "inputs": [],
      "name": "_counter_for_generatelucky_mp_airdrop",
      "outputs": [
        {
          "internalType": "uint256",
          "name": "_value",
          "type": "uint256"
        }
      ],
      "stateMutability": "view",
      "type": "function"
    },
    {
      "inputs": [],
      "name": "_counter_for_generatelucky_mp_internalteam",
      "outputs": [
        {
          "internalType": "uint256",
          "name": "_value",
          "type": "uint256"
        }
      ],
      "stateMutability": "view",
      "type": "function"
    },
    {
      "inputs": [
        {
          "internalType": "address",
          "name": "account",
          "type": "address"
        },
        {
          "internalType": "uint256",
          "name": "id",
          "type": "uint256"
        }
      ],
      "name": "balanceOf",
      "outputs": [
        {
          "internalType": "uint256",
          "name": "",
          "type": "uint256"
        }
      ],
      "stateMutability": "view",
      "type": "function"
    },
    {
      "inputs": [],
      "name": "balanceOfAccount",
      "outputs": [
        {
          "internalType": "uint256",
          "name": "",
          "type": "uint256"
        }
      ],
      "stateMutability": "payable",
      "type": "function"
    },
    {
      "inputs": [
        {
          "internalType": "address[]",
          "name": "accounts",
          "type": "address[]"
        },
        {
          "internalType": "uint256[]",
          "name": "ids",
          "type": "uint256[]"
        }
      ],
      "name": "balanceOfBatch",
      "outputs": [
        {
          "internalType": "uint256[]",
          "name": "",
          "type": "uint256[]"
        }
      ],
      "stateMutability": "view",
      "type": "function"
    },
    {
      "inputs": [],
      "name": "contractBalance",
      "outputs": [
        {
          "internalType": "uint256",
          "name": "",
          "type": "uint256"
        }
      ],
      "stateMutability": "view",
      "type": "function"
    },
    {
      "inputs": [
        {
          "internalType": "uint256",
          "name": "id",
          "type": "uint256"
        }
      ],
      "name": "exists",
      "outputs": [
        {
          "internalType": "bool",
          "name": "",
          "type": "bool"
        }
      ],
      "stateMutability": "view",
      "type": "function"
    },
    {
      "inputs": [
        {
          "internalType": "uint256",
          "name": "id",
          "type": "uint256"
        }
      ],
      "name": "existsCustom",
      "outputs": [
        {
          "internalType": "bool",
          "name": "",
          "type": "bool"
        }
      ],
      "stateMutability": "view",
      "type": "function"
    },
    {
      "inputs": [
        {
          "internalType": "uint8",
          "name": "qnt",
          "type": "uint8"
        },
        {
          "internalType": "uint256",
          "name": "initialNum",
          "type": "uint256"
        },
        {
          "internalType": "uint256",
          "name": "numIssued",
          "type": "uint256"
        },
        {
          "internalType": "uint256",
          "name": "max_supply_token",
          "type": "uint256"
        },
        {
          "internalType": "uint256",
          "name": "each_rand_slot_num_total",
          "type": "uint256"
        },
        {
          "internalType": "uint256[]",
          "name": "intArray",
          "type": "uint256[]"
        }
      ],
      "name": "getNextNONMPID",
      "outputs": [
        {
          "internalType": "uint256",
          "name": "",
          "type": "uint256"
        },
        {
          "internalType": "uint8",
          "name": "",
          "type": "uint8"
        },
        {
          "internalType": "uint256",
          "name": "",
          "type": "uint256"
        },
        {
          "internalType": "uint8",
          "name": "",
          "type": "uint8"
        }
      ],
      "stateMutability": "view",
      "type": "function"
    },
    {
      "inputs": [],
      "name": "idx",
      "outputs": [
        {
          "internalType": "uint256",
          "name": "",
          "type": "uint256"
        }
      ],
      "stateMutability": "view",
      "type": "function"
    },
    {
      "inputs": [],
      "name": "idxAirdrop",
      "outputs": [
        {
          "internalType": "uint256",
          "name": "",
          "type": "uint256"
        }
      ],
      "stateMutability": "view",
      "type": "function"
    },
    {
      "inputs": [],
      "name": "idxInternalTeam",
      "outputs": [
        {
          "internalType": "uint256",
          "name": "",
          "type": "uint256"
        }
      ],
      "stateMutability": "view",
      "type": "function"
    },
    {
      "inputs": [
        {
          "internalType": "uint256",
          "name": "",
          "type": "uint256"
        }
      ],
      "name": "intArr",
      "outputs": [
        {
          "internalType": "uint256",
          "name": "",
          "type": "uint256"
        }
      ],
      "stateMutability": "view",
      "type": "function"
    },
    {
      "inputs": [
        {
          "internalType": "uint256",
          "name": "",
          "type": "uint256"
        }
      ],
      "name": "intArrPRT",
      "outputs": [
        {
          "internalType": "uint256",
          "name": "",
          "type": "uint256"
        }
      ],
      "stateMutability": "view",
      "type": "function"
    },
    {
      "inputs": [
        {
          "internalType": "uint256",
          "name": "",
          "type": "uint256"
        }
      ],
      "name": "intArrPRTAIRDROP",
      "outputs": [
        {
          "internalType": "uint256",
          "name": "",
          "type": "uint256"
        }
      ],
      "stateMutability": "view",
      "type": "function"
    },
    {
      "inputs": [
        {
          "internalType": "uint256",
          "name": "",
          "type": "uint256"
        }
      ],
      "name": "intArrPRTInternalTeam",
      "outputs": [
        {
          "internalType": "uint256",
          "name": "",
          "type": "uint256"
        }
      ],
      "stateMutability": "view",
      "type": "function"
    },
    {
      "inputs": [
        {
          "internalType": "address",
          "name": "account",
          "type": "address"
        },
        {
          "internalType": "address",
          "name": "operator",
          "type": "address"
        }
      ],
      "name": "isApprovedForAll",
      "outputs": [
        {
          "internalType": "bool",
          "name": "",
          "type": "bool"
        }
      ],
      "stateMutability": "view",
      "type": "function"
    },
    {
      "inputs": [],
      "name": "mintAirdropMPIsOpen",
      "outputs": [
        {
          "internalType": "bool",
          "name": "",
          "type": "bool"
        }
      ],
      "stateMutability": "view",
      "type": "function"
    },
    {
      "inputs": [
        {
          "internalType": "uint256",
          "name": "tokenId",
          "type": "uint256"
        }
      ],
      "name": "mintByOwner",
      "outputs": [],
      "stateMutability": "nonpayable",
      "type": "function"
    },
    {
      "inputs": [],
      "name": "mintInternalTeamMPIsOpen",
      "outputs": [
        {
          "internalType": "bool",
          "name": "",
          "type": "bool"
        }
      ],
      "stateMutability": "view",
      "type": "function"
    },
    {
      "inputs": [],
      "name": "mintMPIsOpen",
      "outputs": [
        {
          "internalType": "bool",
          "name": "",
          "type": "bool"
        }
      ],
      "stateMutability": "view",
      "type": "function"
    },
    {
      "inputs": [
        {
          "internalType": "address",
          "name": "account",
          "type": "address"
        },
        {
          "internalType": "uint8",
          "name": "_amount_wanted_able_to_get",
          "type": "uint8"
        },
        {
          "internalType": "uint8",
          "name": "stage",
          "type": "uint8"
        }
      ],
      "name": "mintNONMP",
      "outputs": [],
      "stateMutability": "payable",
      "type": "function"
    },
    {
      "inputs": [],
      "name": "name",
      "outputs": [
        {
          "internalType": "string",
          "name": "",
          "type": "string"
        }
      ],
      "stateMutability": "view",
      "type": "function"
    },
    {
      "inputs": [],
      "name": "numIssuedForAIRDROP",
      "outputs": [
        {
          "internalType": "uint256",
          "name": "",
          "type": "uint256"
        }
      ],
      "stateMutability": "view",
      "type": "function"
    },
    {
      "inputs": [],
      "name": "numIssuedForInternalTeamIDs",
      "outputs": [
        {
          "internalType": "uint256",
          "name": "",
          "type": "uint256"
        }
      ],
      "stateMutability": "view",
      "type": "function"
    },
    {
      "inputs": [],
      "name": "numIssuedForMP",
      "outputs": [
        {
          "internalType": "uint64",
          "name": "",
          "type": "uint64"
        }
      ],
      "stateMutability": "view",
      "type": "function"
    },
    {
      "inputs": [],
      "name": "numIssuedForNormalUser",
      "outputs": [
        {
          "internalType": "uint256",
          "name": "",
          "type": "uint256"
        }
      ],
      "stateMutability": "view",
      "type": "function"
    },
    {
      "inputs": [],
      "name": "owner",
      "outputs": [
        {
          "internalType": "address",
          "name": "",
          "type": "address"
        }
      ],
      "stateMutability": "view",
      "type": "function"
    },
    {
      "inputs": [
        {
          "internalType": "uint256",
          "name": "index",
          "type": "uint256"
        }
      ],
      "name": "payee",
      "outputs": [
        {
          "internalType": "address",
          "name": "",
          "type": "address"
        }
      ],
      "stateMutability": "view",
      "type": "function"
    },
    {
      "inputs": [
        {
          "internalType": "address",
          "name": "",
          "type": "address"
        }
      ],
      "name": "perAddressMPs",
      "outputs": [
        {
          "internalType": "uint8",
          "name": "",
          "type": "uint8"
        }
      ],
      "stateMutability": "view",
      "type": "function"
    },
    {
      "inputs": [],
      "name": "presalePRT",
      "outputs": [
        {
          "internalType": "uint8",
          "name": "",
          "type": "uint8"
        }
      ],
      "stateMutability": "view",
      "type": "function"
    },
    {
      "inputs": [
        {
          "internalType": "uint256",
          "name": "",
          "type": "uint256"
        }
      ],
      "name": "prtPerAddress",
      "outputs": [
        {
          "internalType": "address",
          "name": "",
          "type": "address"
        }
      ],
      "stateMutability": "view",
      "type": "function"
    },
    {
      "inputs": [],
      "name": "qntmintmpforairdrop",
      "outputs": [
        {
          "internalType": "uint256",
          "name": "",
          "type": "uint256"
        }
      ],
      "stateMutability": "view",
      "type": "function"
    },
    {
      "inputs": [],
      "name": "qntmintmpforinternalteam",
      "outputs": [
        {
          "internalType": "uint256",
          "name": "",
          "type": "uint256"
        }
      ],
      "stateMutability": "view",
      "type": "function"
    },
    {
      "inputs": [],
      "name": "qntmintmpfornormaluser",
      "outputs": [
        {
          "internalType": "uint256",
          "name": "",
          "type": "uint256"
        }
      ],
      "stateMutability": "view",
      "type": "function"
    },
    {
      "inputs": [],
      "name": "qntmintnonmpforairdrop",
      "outputs": [
        {
          "internalType": "uint256",
          "name": "",
          "type": "uint256"
        }
      ],
      "stateMutability": "view",
      "type": "function"
    },
    {
      "inputs": [],
      "name": "qntmintnonmpforinternalteam",
      "outputs": [
        {
          "internalType": "uint256",
          "name": "",
          "type": "uint256"
        }
      ],
      "stateMutability": "view",
      "type": "function"
    },
    {
      "inputs": [],
      "name": "qntmintnonmpfornormaluser",
      "outputs": [
        {
          "internalType": "uint256",
          "name": "",
          "type": "uint256"
        }
      ],
      "stateMutability": "view",
      "type": "function"
    },
    {
      "inputs": [
        {
          "internalType": "uint256",
          "name": "number",
          "type": "uint256"
        }
      ],
      "name": "random",
      "outputs": [
        {
          "internalType": "uint256",
          "name": "",
          "type": "uint256"
        }
      ],
      "stateMutability": "view",
      "type": "function"
    },
    {
      "inputs": [
        {
          "internalType": "address",
          "name": "account",
          "type": "address"
        }
      ],
      "name": "releasable",
      "outputs": [
        {
          "internalType": "uint256",
          "name": "",
          "type": "uint256"
        }
      ],
      "stateMutability": "view",
      "type": "function"
    },
    {
      "inputs": [
        {
          "internalType": "contract IERC20",
          "name": "token",
          "type": "address"
        },
        {
          "internalType": "address",
          "name": "account",
          "type": "address"
        }
      ],
      "name": "releasable",
      "outputs": [
        {
          "internalType": "uint256",
          "name": "",
          "type": "uint256"
        }
      ],
      "stateMutability": "view",
      "type": "function"
    },
    {
      "inputs": [
        {
          "internalType": "address payable",
          "name": "account",
          "type": "address"
        }
      ],
      "name": "release",
      "outputs": [],
      "stateMutability": "nonpayable",
      "type": "function"
    },
    {
      "inputs": [
        {
          "internalType": "contract IERC20",
          "name": "token",
          "type": "address"
        },
        {
          "internalType": "address",
          "name": "account",
          "type": "address"
        }
      ],
      "name": "release",
      "outputs": [],
      "stateMutability": "nonpayable",
      "type": "function"
    },
    {
      "inputs": [
        {
          "internalType": "contract IERC20",
          "name": "token",
          "type": "address"
        },
        {
          "internalType": "address",
          "name": "account",
          "type": "address"
        }
      ],
      "name": "released",
      "outputs": [
        {
          "internalType": "uint256",
          "name": "",
          "type": "uint256"
        }
      ],
      "stateMutability": "view",
      "type": "function"
    },
    {
      "inputs": [
        {
          "internalType": "address",
          "name": "account",
          "type": "address"
        }
      ],
      "name": "released",
      "outputs": [
        {
          "internalType": "uint256",
          "name": "",
          "type": "uint256"
        }
      ],
      "stateMutability": "view",
      "type": "function"
    },
    {
      "inputs": [],
      "name": "renounceOwnership",
      "outputs": [],
      "stateMutability": "nonpayable",
      "type": "function"
    },
    {
      "inputs": [],
      "name": "revealed",
      "outputs": [
        {
          "internalType": "bool",
          "name": "",
          "type": "bool"
        }
      ],
      "stateMutability": "view",
      "type": "function"
    },
    {
      "inputs": [
        {
          "internalType": "address",
          "name": "from",
          "type": "address"
        },
        {
          "internalType": "address",
          "name": "to",
          "type": "address"
        },
        {
          "internalType": "uint256[]",
          "name": "ids",
          "type": "uint256[]"
        },
        {
          "internalType": "uint256[]",
          "name": "amounts",
          "type": "uint256[]"
        },
        {
          "internalType": "bytes",
          "name": "data",
          "type": "bytes"
        }
      ],
      "name": "safeBatchTransferFrom",
      "outputs": [],
      "stateMutability": "nonpayable",
      "type": "function"
    },
    {
      "inputs": [
        {
          "internalType": "address",
          "name": "from",
          "type": "address"
        },
        {
          "internalType": "address",
          "name": "to",
          "type": "address"
        },
        {
          "internalType": "uint256",
          "name": "id",
          "type": "uint256"
        },
        {
          "internalType": "uint256",
          "name": "amount",
          "type": "uint256"
        },
        {
          "internalType": "bytes",
          "name": "data",
          "type": "bytes"
        }
      ],
      "name": "safeTransferFrom",
      "outputs": [],
      "stateMutability": "nonpayable",
      "type": "function"
    },
    {
      "inputs": [
        {
          "internalType": "uint256",
          "name": "tokenId",
          "type": "uint256"
        },
        {
          "internalType": "address",
          "name": "addr",
          "type": "address"
        }
      ],
      "name": "safeTransferFromByOwner",
      "outputs": [],
      "stateMutability": "nonpayable",
      "type": "function"
    },
    {
      "inputs": [],
      "name": "sendMPAirdrop",
      "outputs": [],
      "stateMutability": "payable",
      "type": "function"
    },
    {
      "inputs": [],
      "name": "sendMPAllDoneForAirdrop",
      "outputs": [
        {
          "internalType": "bool",
          "name": "",
          "type": "bool"
        }
      ],
      "stateMutability": "view",
      "type": "function"
    },
    {
      "inputs": [],
      "name": "sendMPAllDoneForInternalTeam",
      "outputs": [
        {
          "internalType": "bool",
          "name": "",
          "type": "bool"
        }
      ],
      "stateMutability": "view",
      "type": "function"
    },
    {
      "inputs": [],
      "name": "sendMPAllDoneForNormalUsers",
      "outputs": [
        {
          "internalType": "bool",
          "name": "",
          "type": "bool"
        }
      ],
      "stateMutability": "view",
      "type": "function"
    },
    {
      "inputs": [],
      "name": "sendMPInternalTeam",
      "outputs": [],
      "stateMutability": "payable",
      "type": "function"
    },
    {
      "inputs": [],
      "name": "sendMPNormalUsers",
      "outputs": [],
      "stateMutability": "payable",
      "type": "function"
    },
    {
      "inputs": [
        {
          "internalType": "address",
          "name": "operator",
          "type": "address"
        },
        {
          "internalType": "bool",
          "name": "approved",
          "type": "bool"
        }
      ],
      "name": "setApprovalForAll",
      "outputs": [],
      "stateMutability": "nonpayable",
      "type": "function"
    },
    {
      "inputs": [
        {
          "internalType": "uint256",
          "name": "price",
          "type": "uint256"
        }
      ],
      "name": "setPRICE_PRT",
      "outputs": [],
      "stateMutability": "nonpayable",
      "type": "function"
    },
    {
      "inputs": [
        {
          "internalType": "uint256",
          "name": "price",
          "type": "uint256"
        }
      ],
      "name": "setPRICE_PRT_AIRDROP",
      "outputs": [],
      "stateMutability": "nonpayable",
      "type": "function"
    },
    {
      "inputs": [
        {
          "internalType": "uint256",
          "name": "price",
          "type": "uint256"
        }
      ],
      "name": "setPRICE_PRT_INTERNALTEAM",
      "outputs": [],
      "stateMutability": "nonpayable",
      "type": "function"
    },
    {
      "inputs": [
        {
          "internalType": "uint8",
          "name": "num",
          "type": "uint8"
        }
      ],
      "name": "setPreSalePRT",
      "outputs": [],
      "stateMutability": "nonpayable",
      "type": "function"
    },
    {
      "inputs": [
        {
          "internalType": "address",
          "name": "account",
          "type": "address"
        }
      ],
      "name": "shares",
      "outputs": [
        {
          "internalType": "uint256",
          "name": "",
          "type": "uint256"
        }
      ],
      "stateMutability": "view",
      "type": "function"
    },
    {
      "inputs": [
        {
          "internalType": "bytes4",
          "name": "interfaceId",
          "type": "bytes4"
        }
      ],
      "name": "supportsInterface",
      "outputs": [
        {
          "internalType": "bool",
          "name": "",
          "type": "bool"
        }
      ],
      "stateMutability": "view",
      "type": "function"
    },
    {
      "inputs": [],
      "name": "symbol",
      "outputs": [
        {
          "internalType": "string",
          "name": "",
          "type": "string"
        }
      ],
      "stateMutability": "view",
      "type": "function"
    },
    {
      "inputs": [],
      "name": "toggleMintAirdropMPIsOpen",
      "outputs": [],
      "stateMutability": "nonpayable",
      "type": "function"
    },
    {
      "inputs": [],
      "name": "toggleMintInternalTeamMPIsOpen",
      "outputs": [],
      "stateMutability": "nonpayable",
      "type": "function"
    },
    {
      "inputs": [],
      "name": "toggleMintMPIsOpen",
      "outputs": [],
      "stateMutability": "nonpayable",
      "type": "function"
    },
    {
      "inputs": [],
      "name": "toggleReveal",
      "outputs": [],
      "stateMutability": "nonpayable",
      "type": "function"
    },
    {
      "inputs": [
        {
          "internalType": "contract IERC20",
          "name": "token",
          "type": "address"
        }
      ],
      "name": "totalReleased",
      "outputs": [
        {
          "internalType": "uint256",
          "name": "",
          "type": "uint256"
        }
      ],
      "stateMutability": "view",
      "type": "function"
    },
    {
      "inputs": [],
      "name": "totalReleased",
      "outputs": [
        {
          "internalType": "uint256",
          "name": "",
          "type": "uint256"
        }
      ],
      "stateMutability": "view",
      "type": "function"
    },
    {
      "inputs": [],
      "name": "totalShares",
      "outputs": [
        {
          "internalType": "uint256",
          "name": "",
          "type": "uint256"
        }
      ],
      "stateMutability": "view",
      "type": "function"
    },
    {
      "inputs": [
        {
          "internalType": "uint256",
          "name": "id",
          "type": "uint256"
        }
      ],
      "name": "totalSupply",
      "outputs": [
        {
          "internalType": "uint256",
          "name": "",
          "type": "uint256"
        }
      ],
      "stateMutability": "view",
      "type": "function"
    },
    {
      "inputs": [
        {
          "internalType": "uint256",
          "name": "id",
          "type": "uint256"
        }
      ],
      "name": "totalSupplyCustom",
      "outputs": [
        {
          "internalType": "uint256",
          "name": "",
          "type": "uint256"
        }
      ],
      "stateMutability": "view",
      "type": "function"
    },
    {
      "inputs": [
        {
          "internalType": "address",
          "name": "newOwner",
          "type": "address"
        }
      ],
      "name": "transferOwnership",
      "outputs": [],
      "stateMutability": "nonpayable",
      "type": "function"
    },
    {
      "inputs": [
        {
          "internalType": "uint256",
          "name": "",
          "type": "uint256"
        }
      ],
      "name": "uri",
      "outputs": [
        {
          "internalType": "string",
          "name": "",
          "type": "string"
        }
      ],
      "stateMutability": "view",
      "type": "function"
    },
    {
      "inputs": [
        {
          "internalType": "address",
          "name": "",
          "type": "address"
        }
      ],
      "name": "userNONMPs",
      "outputs": [
        {
          "internalType": "uint8",
          "name": "",
          "type": "uint8"
        }
      ],
      "stateMutability": "view",
      "type": "function"
    },
    {
      "inputs": [],
      "name": "withdraw",
      "outputs": [],
      "stateMutability": "payable",
      "type": "function"
    },
    {
      "inputs": [],
      "name": "xrand",
      "outputs": [
        {
          "internalType": "uint8",
          "name": "",
          "type": "uint8"
        }
      ],
      "stateMutability": "view",
      "type": "function"
    },
    {
      "stateMutability": "payable",
      "type": "receive"
    }
  ],
  "bytecode": "0x60c0604052601060809081526f564950534c414e442047454e4553495360801b60a052600d90620000319082620007e4565b50604080518082019091526004815263159414d360e21b6020820152600e906200005c9082620007e4565b506011805460ff1990811690915560006013819055601481905560158190556016805483166012179055601a80546001600160401b03191660041790556701b4fbd92b5f8000601f5560208190556021819055602381905560248190556025819055602781905560288190556029819055602b805463ffffffff19169055602c819055602d819055602e819055602f805462ffffff1916905560308190556031556032805490911690553480156200011357600080fd5b506040516200683738038062006837833981016040819052620001369162000a09565b838383620001448162000486565b50620001503362000498565b8051825114620001c25760405162461bcd60e51b815260206004820152603260248201527f5061796d656e7453706c69747465723a2070617965657320616e6420736861726044820152710cae640d8cadccee8d040dad2e6dac2e8c6d60731b60648201526084015b60405180910390fd5b6000825111620002155760405162461bcd60e51b815260206004820152601a60248201527f5061796d656e7453706c69747465723a206e6f207061796565730000000000006044820152606401620001b9565b60005b825181101562000281576200026c8382815181106200023b576200023b62000b36565b602002602001015183838151811062000258576200025862000b36565b6020026020010151620004ea60201b60201c565b80620002788162000b62565b91505062000218565b50506001600c5550600f620002978382620007e4565b506010620002a68282620007e4565b50620002b66064614e2062000b7e565b6001600160401b03811115620002d057620002d06200073f565b604051908082528060200260200182016040528015620002fa578160200160208202803683370190505b5080516200031191601b91602090910190620006d8565b506002601b6000815481106200032b576200032b62000b36565b60009182526020909120015562000348612710620222e062000b7e565b6001600160401b038111156200036257620003626200073f565b6040519080825280602002602001820160405280156200038c578160200160208202803683370190505b508051620003a391602291602090910190620006d8565b50620003b46103e8614e2062000b7e565b6001600160401b03811115620003ce57620003ce6200073f565b604051908082528060200260200182016040528015620003f8578160200160208202803683370190505b5080516200040f91602691602090910190620006d8565b50620004206104576122b862000b7e565b6001600160401b038111156200043a576200043a6200073f565b60405190808252806020026020018201604052801562000464578160200160208202803683370190505b5080516200047b91602a91602090910190620006d8565b505050505062000bbd565b6002620004948282620007e4565b5050565b600480546001600160a01b038381166001600160a01b0319831681179093556040519116919082907f8be0079c531659141344cd1fd0a4f28419497f9722a3daafe3b4186f6b6457e090600090a35050565b6001600160a01b038216620005575760405162461bcd60e51b815260206004820152602c60248201527f5061796d656e7453706c69747465723a206163636f756e74206973207468652060448201526b7a65726f206164647265737360a01b6064820152608401620001b9565b60008111620005a95760405162461bcd60e51b815260206004820152601d60248201527f5061796d656e7453706c69747465723a207368617265732061726520300000006044820152606401620001b9565b6001600160a01b03821660009081526007602052604090205415620006255760405162461bcd60e51b815260206004820152602b60248201527f5061796d656e7453706c69747465723a206163636f756e7420616c726561647960448201526a206861732073686172657360a81b6064820152608401620001b9565b60098054600181019091557f6e1540171b6c0c960b71a7020d9f60077f6af931a8bbf590da0223dacf75c7af0180546001600160a01b0319166001600160a01b03841690811790915560009081526007602052604090208190556005546200068f90829062000ba1565b600555604080516001600160a01b0384168152602081018390527f40c340f65e17194d14ddddb073d3c9f888e3cb52b5aae0c6c7706b4fbc905fac910160405180910390a15050565b82805482825590600052602060002090810192821562000716579160200282015b8281111562000716578251825591602001919060010190620006f9565b506200072492915062000728565b5090565b5b8082111562000724576000815560010162000729565b634e487b7160e01b600052604160045260246000fd5b600181811c908216806200076a57607f821691505b6020821081036200078b57634e487b7160e01b600052602260045260246000fd5b50919050565b601f821115620007df57600081815260208120601f850160051c81016020861015620007ba5750805b601f850160051c820191505b81811015620007db57828155600101620007c6565b5050505b505050565b81516001600160401b038111156200080057620008006200073f565b620008188162000811845462000755565b8462000791565b602080601f831160018114620008505760008415620008375750858301515b600019600386901b1c1916600185901b178555620007db565b600085815260208120601f198616915b82811015620008815788860151825594840194600190910190840162000860565b5085821015620008a05787850151600019600388901b60f8161c191681555b5050505050600190811b01905550565b604051601f8201601f191681016001600160401b0381118282101715620008db57620008db6200073f565b604052919050565b60006001600160401b03821115620008ff57620008ff6200073f565b5060051b60200190565b600082601f8301126200091b57600080fd5b81516020620009346200092e83620008e3565b620008b0565b82815260059290921b840181019181810190868411156200095457600080fd5b8286015b8481101562000971578051835291830191830162000958565b509695505050505050565b600082601f8301126200098e57600080fd5b81516001600160401b03811115620009aa57620009aa6200073f565b6020620009c0601f8301601f19168201620008b0565b8281528582848701011115620009d557600080fd5b60005b83811015620009f5578581018301518282018401528201620009d8565b506000928101909101919091529392505050565b6000806000806080858703121562000a2057600080fd5b84516001600160401b038082111562000a3857600080fd5b818701915087601f83011262000a4d57600080fd5b8151602062000a606200092e83620008e3565b82815260059290921b8401810191818101908b84111562000a8057600080fd5b948201945b8386101562000ab75785516001600160a01b038116811462000aa75760008081fd5b8252948201949082019062000a85565b918a015191985090935050508082111562000ad157600080fd5b62000adf8883890162000909565b9450604087015191508082111562000af657600080fd5b62000b04888389016200097c565b9350606087015191508082111562000b1b57600080fd5b5062000b2a878288016200097c565b91505092959194509250565b634e487b7160e01b600052603260045260246000fd5b634e487b7160e01b600052601160045260246000fd5b60006001820162000b775762000b7762000b4c565b5060010190565b60008262000b9c57634e487b7160e01b600052601260045260246000fd5b500490565b8082018082111562000bb75762000bb762000b4c565b92915050565b615c6a8062000bcd6000396000f3fe6080604052600436106104355760003560e01c806201d05b1461047a578062fdd58e146104a357806301553208146104c3578063017303e5146104f357806301ffc9a71461050957806304bf41d81461052957806306a7983d1461053f57806306fdde031461055f578063091855cd146105815780630e89341c1461059757806310824118146105b757806310dd9247146105d957806311e6fb63146105ef57806312deb603146106055780631902aa4a14610647578063191655871461067f57806320c6974e1461069f5780632a37e4af146106b95780632a944b19146106d05780632d187ef7146106f05780632d23bf5a146107055780632eb2c2d61461071b5780632fcf9d4b1461073b5780632fef457914610751578063380b5f75146107675780633919e5ba1461077c578063395dcb641461078f5780633a98ef39146107a55780633ccfd60b146107ba578063406072a9146107c2578063438d4bc1146107e257806344c3c7b9146107f857806348b750441461080f5780634a0981241461082f5780634e1273f4146108455780634f558e79146108725780634fe04f281461089257806351830227146108b25780635308ca78146108cc5780635b8ad429146108e25780635de701f9146108f75780635dff0620146109185780636bfcf578146109385780636c5959e31461094d5780636e27b97214610963578063715018a61461097a57806371e1b7841461098f57806375d909ef146109d45780637862ed64146109ea5780637942ec3314610a0a578063795dbede14610a2a5780637a1d48f414610a405780637d46d87014610a605780637de1c2be14610a6857806382a3169314610a825780638913fbe014610a985780638b7afe2e14610aae5780638b83209b14610ac35780638da5cb5b14610af057806394a271fd14610b0557806395d89b4114610b0d57806397c662701461073b5780639852595c14610b225780639daf187214610b425780639e26975714610b57578063a22cb46514610b6e578063a3f8eace14610b8e578063a57674e714610bae578063a77ebad214610bb6578063a882fea414610bd6578063b1feb18d14610bde578063b247796414610bf8578063b24c4c9414610c17578063b861639414610c37578063b863bd3714610c4d578063bd85b03914610c6d578063c45ac05014610c8d578063c6358ecd14610cad578063c7a3b01314610ccd578063c82190c414610ce3578063c9b4f6ef14610767578063cd0b99cd1461073b578063ce7c2ac214610cfa578063cea8f9c014610d30578063cffbd26f14610d50578063d79779b214610d86578063da8ab07114610da6578063db9a850914610dbb578063defb1d4514610dd1578063df8c6cd314610df0578063e33b7de314610e10578063e67ff55214610e25578063e985e9c514610e3c578063f242432a14610e85578063f2fde38b14610ea5578063fe47d7f214610ec557600080fd5b36610475577f6ef95f06320e7a25a04a175ca677b7052bdd97131872c2192525a629f51be770333460405161046b929190614dbb565b60405180910390a1005b600080fd5b34801561048657600080fd5b5061049060205481565b6040519081526020015b60405180910390f35b3480156104af57600080fd5b506104906104be366004614de9565b610ef5565b3480156104cf57600080fd5b50602b546104e39062010000900460ff1681565b604051901515815260200161049a565b3480156104ff57600080fd5b50610490602e5481565b34801561051557600080fd5b506104e3610524366004614e2b565b610f8e565b34801561053557600080fd5b50610490614e2181565b34801561054b57600080fd5b5061049061055a366004614e48565b610fde565b34801561056b57600080fd5b50610574610fff565b60405161049a9190614eb1565b34801561058d57600080fd5b50610490602d5481565b3480156105a357600080fd5b506105746105b2366004614e48565b61108d565b3480156105c357600080fd5b506105d76105d2366004614eda565b611159565b005b3480156105e557600080fd5b5061049060145481565b3480156105fb57600080fd5b5061049060135481565b34801561061157600080fd5b50610635610620366004614ef5565b601c6020526000908152604090205460ff1681565b60405160ff909116815260200161049a565b34801561065357600080fd5b50601a54610667906001600160401b031681565b6040516001600160401b03909116815260200161049a565b34801561068b57600080fd5b506105d761069a366004614ef5565b6111b6565b3480156106ab57600080fd5b506016546106359060ff1681565b3480156106c557600080fd5b506018546104909081565b3480156106dc57600080fd5b506105d76106eb366004614e48565b611294565b3480156106fc57600080fd5b506105d76112fb565b34801561071157600080fd5b5061049060155481565b34801561072757600080fd5b506105d761073636600461505b565b611322565b34801561074757600080fd5b50610490614e2081565b34801561075d57600080fd5b5061049060215481565b34801561077357600080fd5b50610635606481565b6105d761078a366004615108565b61136e565b34801561079b57600080fd5b506104906103e881565b3480156107b157600080fd5b50600554610490565b6105d76114d2565b3480156107ce57600080fd5b506104906107dd36600461514d565b611509565b3480156107ee57600080fd5b5061049060275481565b34801561080457600080fd5b50610490620222e081565b34801561081b57600080fd5b506105d761082a36600461514d565b611534565b34801561083b57600080fd5b5061049060245481565b34801561085157600080fd5b50610865610860366004615186565b611642565b60405161049a919061528d565b34801561087e57600080fd5b506104e361088d366004614e48565b61176b565b34801561089e57600080fd5b506104906108ad366004614e48565b61177e565b3480156108be57600080fd5b506011546104e39060ff1681565b3480156108d857600080fd5b5061049061271081565b3480156108ee57600080fd5b506105d761178e565b34801561090357600080fd5b50602b546104e3906301000000900460ff1681565b34801561092457600080fd5b50610490610933366004614e48565b6117aa565b34801561094457600080fd5b506105d76117ba565b34801561095957600080fd5b50610490601f5481565b34801561096f57600080fd5b506017546104909081565b34801561098657600080fd5b506105d76117e3565b34801561099b57600080fd5b506109af6109aa3660046152a0565b6117f7565b6040805194855260ff938416602086015284019190915216606082015260800161049a565b3480156109e057600080fd5b5061049060235481565b3480156109f657600080fd5b506105d7610a05366004614e48565b611990565b348015610a1657600080fd5b50610490610a25366004614e48565b61199d565b348015610a3657600080fd5b50610490602c5481565b348015610a4c57600080fd5b506105d7610a5b366004614e48565b6119a8565b6105d76119b5565b348015610a7457600080fd5b50602b546106359060ff1681565b348015610a8e57600080fd5b506104906122b881565b348015610aa457600080fd5b5061049060295481565b348015610aba57600080fd5b50610490611fa2565b348015610acf57600080fd5b50610ae3610ade366004614e48565b611fb2565b60405161049a9190615312565b348015610afc57600080fd5b50610ae3611fe2565b610490611ff1565b348015610b1957600080fd5b50610574612000565b348015610b2e57600080fd5b50610490610b3d366004614ef5565b61200d565b348015610b4e57600080fd5b50610635602381565b348015610b6357600080fd5b506019546104909081565b348015610b7a57600080fd5b506105d7610b89366004615334565b612028565b348015610b9a57600080fd5b50610490610ba9366004614ef5565b612033565b6105d7612065565b348015610bc257600080fd5b506105d7610bd1366004615362565b6125b0565b6105d7612618565b348015610bea57600080fd5b50602f546104e39060ff1681565b348015610c0457600080fd5b50602f546104e390610100900460ff1681565b348015610c2357600080fd5b506104e3610c32366004614e48565b612bfd565b348015610c4357600080fd5b5061049060255481565b348015610c5957600080fd5b50610490610c68366004614e48565b612c08565b348015610c7957600080fd5b50610490610c88366004614e48565b612c21565b348015610c9957600080fd5b50610490610ca836600461514d565b612c33565b348015610cb957600080fd5b506105d7610cc8366004614e48565b612ccf565b348015610cd957600080fd5b5061049061045781565b348015610cef57600080fd5b506104906202710181565b348015610d0657600080fd5b50610490610d15366004614ef5565b6001600160a01b031660009081526007602052604090205490565b348015610d3c57600080fd5b50602f546104e39062010000900460ff1681565b348015610d5c57600080fd5b50610ae3610d6b366004614e48565b601d602052600090815260409020546001600160a01b031681565b348015610d9257600080fd5b50610490610da1366004614ef5565b612cdc565b348015610db257600080fd5b506105d7612cf7565b348015610dc757600080fd5b5061049060285481565b348015610ddd57600080fd5b50602b546104e390610100900460ff1681565b348015610dfc57600080fd5b50610490610e0b366004614e48565b612d1c565b348015610e1c57600080fd5b50600654610490565b348015610e3157600080fd5b506104906202bf2181565b348015610e4857600080fd5b506104e3610e5736600461514d565b6001600160a01b03918216600090815260016020908152604080832093909416825291909152205460ff1690565b348015610e9157600080fd5b506105d7610ea0366004615387565b612d2c565b348015610eb157600080fd5b506105d7610ec0366004614ef5565b612d71565b348015610ed157600080fd5b50610635610ee0366004614ef5565b601e6020526000908152604090205460ff1681565b60006001600160a01b038316610f655760405162461bcd60e51b815260206004820152602a60248201527f455243313135353a2061646472657373207a65726f206973206e6f742061207660448201526930b634b21037bbb732b960b11b60648201526084015b60405180910390fd5b506000818152602081815260408083206001600160a01b03861684529091529020545b92915050565b60006001600160e01b03198216636cdb3d1360e11b1480610fbf57506001600160e01b031982166303a24d0760e21b145b80610f8857506301ffc9a760e01b6001600160e01b0319831614610f88565b601b8181548110610fee57600080fd5b600091825260209091200154905081565b600d805461100c906153ef565b80601f0160208091040260200160405190810160405280929190818152602001828054611038906153ef565b80156110855780601f1061105a57610100808354040283529160200191611085565b820191906000526020600020905b81548152906001019060200180831161106857829003601f168201915b505050505081565b60115460609060ff16151560000361113157600f80546110ac906153ef565b80601f01602080910402602001604051908101604052809291908181526020018280546110d8906153ef565b80156111255780601f106110fa57610100808354040283529160200191611125565b820191906000526020600020905b81548152906001019060200180831161110857829003601f168201915b50505050509050919050565b60106040516020016111439190615429565b6040516020818303038152906040529050919050565b611161612de7565b60ff8116600781111561119f5760405162461bcd60e51b815260206004820152600660248201526532b9392f991960d11b6044820152606401610f5c565b50602b805460ff191660ff92909216919091179055565b6001600160a01b0381166000908152600760205260409020546111eb5760405162461bcd60e51b8152600401610f5c906154e8565b60006111f682612033565b9050806000036112185760405162461bcd60e51b8152600401610f5c9061552e565b806006600082825461122a919061558f565b90915550506001600160a01b03821660009081526008602052604090208054820190556112578282612e46565b7fdf20fd1e76bc69d672e4814fafb2c449bba3a5369d8359adf9e05e6fde87b0568282604051611288929190614dbb565b60405180910390a15050565b61129c612de7565b806112a681612c21565b156112db5760405162461bcd60e51b81526020600482015260056024820152646572725f3160d81b6044820152606401610f5c565b6112f73383600160405180602001604052806000815250612f5c565b5050565b611303612de7565b602b805462ff0000198116620100009182900460ff1615909102179055565b6001600160a01b03851633148061133e575061133e8533610e57565b61135a5760405162461bcd60e51b8152600401610f5c906155a2565b6113678585858585613033565b5050505050565b82336001600160a01b038216146113af5760405162461bcd60e51b8152602060048201526005602482015264195c9c97cd60da1b6044820152606401610f5c565b3332146113ce5760405162461bcd60e51b8152600401610f5c906155f0565b602b5460ff1660000361140c5760405162461bcd60e51b8152602060048201526006602482015265195c9c97cc4d60d21b6044820152606401610f5c565b6114146131cb565b60008360ff16116114505760405162461bcd60e51b81526020600482015260066024820152656572725f313560d01b6044820152606401610f5c565b336114865760405162461bcd60e51b815260206004820152600660248201526532b9392f989b60d11b6044820152606401610f5c565b8160ff1660010361149a5761149a83613224565b8160ff166002036114ae576114ae836136f5565b8160ff166004036114c2576114c283613b4a565b6114cc6001600c55565b50505050565b6114da612de7565b60405133904780156108fc02916000818181858888f19350505050158015611506573d6000803e3d6000fd5b50565b6001600160a01b039182166000908152600b6020908152604080832093909416825291909152205490565b6001600160a01b0381166000908152600760205260409020546115695760405162461bcd60e51b8152600401610f5c906154e8565b60006115758383612c33565b9050806000036115975760405162461bcd60e51b8152600401610f5c9061552e565b6001600160a01b0383166000908152600a6020526040812080548392906115bf90849061558f565b90915550506001600160a01b038084166000908152600b602090815260408083209386168352929052208054820190556115fa83838361406c565b826001600160a01b03167f3be5b7a71e84ed12875d241991c70855ac5817d847039e17a9d895c1ceb0f18a8383604051611635929190614dbb565b60405180910390a2505050565b606081518351146116a75760405162461bcd60e51b815260206004820152602960248201527f455243313135353a206163636f756e747320616e6420696473206c656e677468604482015268040dad2e6dac2e8c6d60bb1b6064820152608401610f5c565b600083516001600160401b038111156116c2576116c2614f12565b6040519080825280602002602001820160405280156116eb578160200160208202803683370190505b50905060005b84518110156117635761173685828151811061170f5761170f61560f565b60200260200101518583815181106117295761172961560f565b6020026020010151610ef5565b8282815181106117485761174861560f565b602090810291909101015261175c81615625565b90506116f1565b509392505050565b60008061177783612c21565b1192915050565b60268181548110610fee57600080fd5b611796612de7565b6011805460ff19811660ff90911615179055565b60228181548110610fee57600080fd5b6117c2612de7565b602b805463ff00000019811663010000009182900460ff1615909102179055565b6117eb612de7565b6117f560006140c2565b565b6000806000808688106118355760405162461bcd60e51b815260206004820152600660248201526506572725f32360d41b6044820152606401610f5c565b6000611844610c68888a615654565b905060005b611853888a615654565b8160ff16146118d05787878360ff16815181106118725761187261560f565b6020026020010151036118b957600161188b898b615654565b6118959190615668565b8260ff16036118a757600091506118be565b816118b18161567b565b9250506118be565b6118d0565b806118c88161567b565b915050611849565b60006118df8960ff851661569a565b888460ff16815181106118f4576118f461560f565b6020026020010151611906919061558f565b9050888d60ff16898560ff16815181106119225761192261560f565b6020026020010151611934919061558f565b111561196557878360ff168151811061194f5761194f61560f565b6020026020010151896119629190615668565b9c505b6119728b60ff8f1661558f565b9a5061197e8c8261558f565b9d9a9b50919998505050505050505050565b611998612de7565b602355565b6000610f8882612c21565b6119b0612de7565b601f55565b3332146119d45760405162461bcd60e51b8152600401610f5c906155f0565b6119dc612de7565b602b546301000000900460ff16611a1d5760405162461bcd60e51b815260206004820152600560248201526432b9392f9b60d91b6044820152606401610f5c565b602f5460ff161515600114611a5d5760405162461bcd60e51b815260206004820152600660248201526532b9392f989960d11b6044820152606401610f5c565b602f54610100900460ff1615611a9e5760405162461bcd60e51b81526020600482015260066024820152656572725f313360d01b6044820152606401610f5c565b611aac601980546001019055565b6000611ab760195490565b60165490915060009060ff16611ad2614e20620222e061558f565b611add90600161558f565b611ae7919061558f565b62ffffff1660305410611b3f5760165460ff16611b09614e20620222e061558f565b611b1490600161558f565b611b1e919061558f565b603054611b2b91906156b1565b6032805460ff191660011790559050611b83565b60305460165460ff16611b57614e20620222e061558f565b611b6290600161558f565b611b6c919061558f565b611b7691906156b1565b6032805460ff1916905590505b602e545b611b93836103e861569a565b811015611f8e57603254600090819060ff16600103611c1a57612710611bbc84620293b861569a565b611bc69190615654565b60165462ffffff919091169060ff16614e20611be587620271006156d4565b62ffffff16611bf4919061558f565b611bff90600161558f565b611c09919061558f565b611c13919061558f565b9050611c84565b612710611c2a84620293b861569a565b611c349190615654565b60165462ffffff919091169060ff16614e20611c5387620271006156b1565b62ffffff16611c62919061558f565b611c6d90600161558f565b611c77919061558f565b611c81919061558f565b90505b60006122b8614e20611c99620222e08261558f565b611ca3919061558f565b611cad919061558f565b60325490915060ff16600103611d3657612710611ccd85620293b861569a565b611cd890600161558f565b611ce29190615654565b60165462ffffff919091169060ff16614e20611d0188620271006156d4565b62ffffff16611d10919061558f565b611d1b90600161558f565b611d25919061558f565b611d2f919061558f565b9250611dab565b612710611d4685620293b861569a565b611d5190600161558f565b611d5b9190615654565b60165462ffffff919091169060ff16614e20611d7a88620271006156b1565b62ffffff16611d89919061558f565b611d9490600161558f565b611d9e919061558f565b611da8919061558f565b92505b808362ffffff161180611dc25750808262ffffff16115b602f805461ff0019166101009215158302179081905560405160ff929091049190911615158152600080516020615c158339815191529060200160405180910390a1602f54610100900460ff1615611e1c57505050611f8e565b601654600080516020615bb5833981519152908390611e3e9060ff1684615668565b604051611e4c9291906156f0565b60405180910390a16000611e648362ffffff16614114565b90506001600160a01b03811615611f49576000611e7f614173565b9050611e9d3382600160405180602001604052806000815250612f5c565b611eba338383600160405180602001604052806000815250612d2c565b600160156000828254611ecd919061558f565b90915550506001600160a01b0382166000908152601c60205260408120805460019290611efe90849060ff16615705565b92506101000a81548160ff021916908360ff160217905550816001600160a01b0316600080516020615b9583398151915282604051611f3f91815260200190565b60405180910390a2505b602f5460405161010090910460ff1615158152600080516020615c158339815191529060200160405180910390a1505050508080611f8690615625565b915050611b87565b50611f9b826103e861569a565b602e555050565b6000611fac612de7565b50475b90565b600060098281548110611fc757611fc761560f565b6000918252602090912001546001600160a01b031692915050565b6004546001600160a01b031690565b6000611ffb612de7565b503490565b600e805461100c906153ef565b6001600160a01b031660009081526008602052604090205490565b6112f733838361446a565b60008061203f60065490565b612049904761558f565b905061205e83826120598661200d565b61454a565b9392505050565b3332146120845760405162461bcd60e51b8152600401610f5c906155f0565b61208c612de7565b602b54610100900460ff166120cb5760405162461bcd60e51b81526020600482015260056024820152646572725f3560d81b6044820152606401610f5c565b602f5460ff16156121065760405162461bcd60e51b81526020600482015260056024820152646572725f3960d81b6044820152606401610f5c565b60165460ff166012036121325761211d6011612c08565b6016805460ff191660ff929092169190911790555b612140601780546001019055565b600061214b60175490565b602c549091506000905b612161836103e861569a565b81101561259c57600061271061217a83620293b861569a565b6121849190615654565b60165462ffffff919091169060ff166121a0614e20600161558f565b6121aa919061558f565b6121b4919061558f565b905060006121c7620222e0614e2061558f565b905060006127106121db85620293b861569a565b6121e690600161558f565b6121f09190615654565b60165462ffffff919091169060ff1661220c614e20600161558f565b612216919061558f565b612220919061558f565b9050818162ffffff1611806122395750818362ffffff16115b602f805460ff1916911515918217905560405160ff90911615158152600080516020615c158339815191529060200160405180910390a1602f5460ff16156124295762ffffff811660305560165460009060ff1661229c614e20620222e061558f565b6122a790600161558f565b6122b1919061558f565b62ffffff16603054106123095760165460ff166122d3614e20620222e061558f565b6122de90600161558f565b6122e8919061558f565b6030546122f591906156b1565b6032805460ff19166001179055905061234d565b60305460165460ff16612321614e20620222e061558f565b61232c90600161558f565b612336919061558f565b61234091906156b1565b6032805460ff1916905590505b60325460ff166001036123bf5761236a61271063bf438041615654565b60165462ffffff919091169060ff16614e2061238984620222e06156d4565b62ffffff16612398919061558f565b6123a390600161558f565b6123ad919061558f565b6123b7919061558f565b603155612420565b6123cf61271063bf438041615654565b60165462ffffff919091169060ff16614e206123ee84620222e06156b1565b62ffffff166123fd919061558f565b61240890600161558f565b612412919061558f565b61241c919061558f565b6031555b5050505061259c565b601654600080516020615bb583398151915290849061244b9060ff1685615668565b6040516124599291906156f0565b60405180910390a160006124718462ffffff16614114565b90506001600160a01b0381161561255657600061248c614173565b90506124aa3382600160405180602001604052806000815250612f5c565b6124c7338383600160405180602001604052806000815250612d2c565b6001601360008282546124da919061558f565b90915550506001600160a01b0382166000908152601c6020526040812080546001929061250b90849060ff16615705565b92506101000a81548160ff021916908360ff160217905550816001600160a01b0316600080516020615b958339815191528260405161254c91815260200190565b60405180910390a2505b602f5460405160ff909116151581529395508593600080516020615c158339815191529060200160405180910390a150505050808061259490615625565b915050612155565b506125a9826103e861569a565b602c555050565b6125b8612de7565b816125c28161176b565b6125f65760405162461bcd60e51b815260206004820152600560248201526432b9392f9960d91b6044820152606401610f5c565b612613338385600160405180602001604052806000815250612d2c565b505050565b3332146126375760405162461bcd60e51b8152600401610f5c906155f0565b61263f612de7565b602b5462010000900460ff1661267f5760405162461bcd60e51b81526020600482015260056024820152646572725f3760d81b6044820152606401610f5c565b602f5460ff1615156001146126bf5760405162461bcd60e51b815260206004820152600660248201526506572725f31360d41b6044820152606401610f5c565b602f5462010000900460ff16156127015760405162461bcd60e51b81526020600482015260066024820152656572725f313160d01b6044820152606401610f5c565b61270f601880546001019055565b600061271a60185490565b60165490915060009060ff16612735614e20620222e061558f565b61274090600161558f565b61274a919061558f565b62ffffff16603054106127a25760165460ff1661276c614e20620222e061558f565b61277790600161558f565b612781919061558f565b60305461278e91906156b1565b6032805460ff1916600117905590506127e6565b60305460165460ff166127ba614e20620222e061558f565b6127c590600161558f565b6127cf919061558f565b6127d991906156b1565b6032805460ff1916905590505b602d545b6127f6836103e861569a565b811015612be95760325460009060ff1660010361287b5761271061281d83620293b861569a565b6128279190615654565b60165462ffffff919091169060ff16614e2061284686620222e06156d4565b62ffffff16612855919061558f565b61286090600161558f565b61286a919061558f565b612874919061558f565b90506128e5565b61271061288b83620293b861569a565b6128959190615654565b60165462ffffff919091169060ff16614e206128b486620222e06156b1565b62ffffff166128c3919061558f565b6128ce90600161558f565b6128d8919061558f565b6128e2919061558f565b90505b6000614e206128f7620222e08261558f565b612901919061558f565b60325490915060009060ff1660010361298d5761271061292485620293b861569a565b61292f90600161558f565b6129399190615654565b60165462ffffff919091169060ff16614e2061295888620222e06156d4565b62ffffff16612967919061558f565b61297290600161558f565b61297c919061558f565b612986919061558f565b9050612a02565b61271061299d85620293b861569a565b6129a890600161558f565b6129b29190615654565b60165462ffffff919091169060ff16614e206129d188620222e06156b1565b62ffffff166129e0919061558f565b6129eb90600161558f565b6129f5919061558f565b6129ff919061558f565b90505b818162ffffff161180612a195750818362ffffff16115b602f805462ff00001916620100009215158302179081905560405160ff929091049190911615158152600080516020615c158339815191529060200160405180910390a1602f5462010000900460ff1615612a7657505050612be9565b601654600080516020615bb5833981519152908490612a989060ff1685615668565b604051612aa69291906156f0565b60405180910390a16000612abe8462ffffff16614114565b90506001600160a01b03811615612ba3576000612ad9614173565b9050612af73382600160405180602001604052806000815250612f5c565b612b14338383600160405180602001604052806000815250612d2c565b600160146000828254612b27919061558f565b90915550506001600160a01b0382166000908152601c60205260408120805460019290612b5890849060ff16615705565b92506101000a81548160ff021916908360ff160217905550816001600160a01b0316600080516020615b9583398151915282604051612b9991815260200190565b60405180910390a2505b602f546040516201000090910460ff1615158152600080516020615c158339815191529060200160405180910390a1505050508080612be190615625565b9150506127ea565b50612bf6826103e861569a565b602d555050565b6000610f888261176b565b600081612c16600143615668565b610f8891904061571e565b60009081526003602052604090205490565b600080612c3f84612cdc565b6040516370a0823160e01b81526001600160a01b038616906370a0823190612c6b903090600401615312565b602060405180830381865afa158015612c88573d6000803e3d6000fd5b505050506040513d601f19601f82011682018060405250810190612cac9190615732565b612cb6919061558f565b9050612cc783826120598787611509565b949350505050565b612cd7612de7565b602755565b6001600160a01b03166000908152600a602052604090205490565b612cff612de7565b602b805461ff001981166101009182900460ff1615909102179055565b602a8181548110610fee57600080fd5b6001600160a01b038516331480612d485750612d488533610e57565b612d645760405162461bcd60e51b8152600401610f5c906155a2565b6113678585858585614588565b612d79612de7565b6001600160a01b038116612dde5760405162461bcd60e51b815260206004820152602660248201527f4f776e61626c653a206e6577206f776e657220697320746865207a65726f206160448201526564647265737360d01b6064820152608401610f5c565b611506816140c2565b33612df0611fe2565b6001600160a01b0316146117f55760405162461bcd60e51b815260206004820181905260248201527f4f776e61626c653a2063616c6c6572206973206e6f7420746865206f776e65726044820152606401610f5c565b80471015612e965760405162461bcd60e51b815260206004820152601d60248201527f416464726573733a20696e73756666696369656e742062616c616e63650000006044820152606401610f5c565b6000826001600160a01b03168260405160006040518083038185875af1925050503d8060008114612ee3576040519150601f19603f3d011682016040523d82523d6000602084013e612ee8565b606091505b50509050806126135760405162461bcd60e51b815260206004820152603a60248201527f416464726573733a20756e61626c6520746f2073656e642076616c75652c20726044820152791958da5c1a595b9d081b585e481a185d99481c995d995c9d195960321b6064820152608401610f5c565b6001600160a01b038416612f825760405162461bcd60e51b8152600401610f5c9061574b565b336000612f8e856146a3565b90506000612f9b856146a3565b9050612fac836000898585896146ee565b6000868152602081815260408083206001600160a01b038b16845290915281208054879290612fdc90849061558f565b909155505060408051878152602081018790526001600160a01b03808a169260009291871691600080516020615b75833981519152910160405180910390a461302a83600089898989614867565b50505050505050565b81518351146130545760405162461bcd60e51b8152600401610f5c9061578c565b6001600160a01b03841661307a5760405162461bcd60e51b8152600401610f5c906157d4565b336130898187878787876146ee565b60005b845181101561316f5760008582815181106130a9576130a961560f565b6020026020010151905060008583815181106130c7576130c761560f565b602090810291909101810151600084815280835260408082206001600160a01b038e1683529093529190912054909150818110156131175760405162461bcd60e51b8152600401610f5c90615819565b6000838152602081815260408083206001600160a01b038e8116855292528083208585039055908b1682528120805484929061315490849061558f565b925050819055505050508061316890615625565b905061308c565b50846001600160a01b0316866001600160a01b0316826001600160a01b0316600080516020615b5583398151915287876040516131ad929190615863565b60405180910390a46131c38187878787876149c9565b505050505050565b6002600c540361321d5760405162461bcd60e51b815260206004820152601f60248201527f5265656e7472616e637947756172643a207265656e7472616e742063616c6c006044820152606401610f5c565b6002600c55565b602b5460009060019081161461324c5760405162461bcd60e51b8152600401610f5c90615891565b336000908152601e6020526040902054606460ff90911611156132815760405162461bcd60e51b8152600401610f5c906158b1565b602360ff831611156132a55760405162461bcd60e51b8152600401610f5c906158d1565b336000908152601e60205260409020546064906132c690849060ff16615705565b60ff1611156132f457336000908152601e60205260409020546132ed9060ff1660646158f1565b9150600190505b600080600080613361866202bf216029546122b8610457602a80548060200260200160405190810160405280929190818152602001828054801561335757602002820191906000526020600020905b815481526020019060010190808311613343575b50505050506117f7565b93509350935093508560ff168360ff161461337b57600194505b602754349061338e9060ff86169061569a565b8110156133ad5760405162461bcd60e51b8152600401610f5c9061590a565b6133b5611fe2565b6001600160a01b03166108fc8560ff166027546133d2919061569a565b6040518115909202916000818181858888f193505050501580156133fa573d6000803e3d6000fd5b5060008460ff166001600160401b0381111561341857613418614f12565b604051908082528060200260200182016040528015613441578160200160208202803683370190505b50905060008560ff166001600160401b0381111561346157613461614f12565b60405190808252806020026020018201604052801561348a578160200160208202803683370190505b50905060005b8660ff168110156134f4576134a5818961558f565b8382815181106134b7576134b761560f565b60200260200101818152505060018282815181106134d7576134d761560f565b6020908102919091010152806134ec81615625565b915050613490565b5061351033838360405180602001604052806000815250614a8b565b60005b8660ff168110156135825733601d60008584815181106135355761353561560f565b6020026020010151815260200190815260200160002060006101000a8154816001600160a01b0302191690836001600160a01b03160217905550808061357a90615625565b915050613513565b508151336000908152601e60205260409020546135a2919060ff1661558f565b336000908152601e60205260409020805460ff191660ff9283161790556029869055602a80548883169287169081106135dd576135dd61560f565b90600052602060002001546135f2919061558f565b602a8560ff16815481106136085761360861560f565b90600052602060002001819055508560ff166028600082825461362b919061558f565b90915550506028546122b81161364f57602b805463ff000000191663010000001790555b336000818152601e6020526040902054600080516020615bf58339815191529060ff168461367e60018b6158f1565b60ff16815181106136915761369161560f565b60200260200101516040516136b592919060ff929092168252602082015260400190565b60405180910390a287156136ea5760405160ff871681523390600080516020615bd58339815191529060200160405180910390a25b505050505050505050565b602b5460009060029081161461371d5760405162461bcd60e51b8152600401610f5c90615891565b336000908152601e6020526040902054606460ff90911611156137525760405162461bcd60e51b8152600401610f5c906158b1565b602360ff831611156137765760405162461bcd60e51b8152600401610f5c906158d1565b336000908152601e602052604090205460649061379790849060ff16615705565b60ff1611156137c557336000908152601e60205260409020546137be9060ff1660646158f1565b9150600190505b6000806000806138308662027101602554614e206103e8602680548060200260200160405190810160405280929190818152602001828054801561335757602002820191906000526020600020908154815260200190600101908083116133435750505050506117f7565b93509350935093508560ff168360ff161461384a57600194505b602354349061385d9060ff86169061569a565b81101561387c5760405162461bcd60e51b8152600401610f5c9061590a565b613884611fe2565b6001600160a01b03166108fc8560ff166023546138a1919061569a565b6040518115909202916000818181858888f193505050501580156138c9573d6000803e3d6000fd5b5060008460ff166001600160401b038111156138e7576138e7614f12565b604051908082528060200260200182016040528015613910578160200160208202803683370190505b50905060008560ff166001600160401b0381111561393057613930614f12565b604051908082528060200260200182016040528015613959578160200160208202803683370190505b50905060005b8660ff168110156139c357613974818961558f565b8382815181106139865761398661560f565b60200260200101818152505060018282815181106139a6576139a661560f565b6020908102919091010152806139bb81615625565b91505061395f565b506139df33838360405180602001604052806000815250614a8b565b60005b8660ff16811015613a515733601d6000858481518110613a0457613a0461560f565b6020026020010151815260200190815260200160002060006101000a8154816001600160a01b0302191690836001600160a01b031602179055508080613a4990615625565b9150506139e2565b508151336000908152601e6020526040902054613a71919060ff1661558f565b336000908152601e60205260409020805460ff191660ff928316179055602586905560268054888316928716908110613aac57613aac61560f565b9060005260206000200154613ac1919061558f565b60268560ff1681548110613ad757613ad761560f565b90600052602060002001819055508560ff1660246000828254613afa919061558f565b9091555050602454614e201161364f57602b805462ff0000191662010000179055336000818152601e6020526040902054600080516020615bf58339815191529060ff168461367e60018b6158f1565b602b54600090600490811614613b725760405162461bcd60e51b8152600401610f5c90615891565b336000908152601e6020526040902054606460ff9091161115613ba75760405162461bcd60e51b8152600401610f5c906158b1565b602360ff83161115613bcb5760405162461bcd60e51b8152600401610f5c906158d1565b336000908152601e6020526040902054606490613bec90849060ff16615705565b60ff161115613c1a57336000908152601e6020526040902054613c139060ff1660646158f1565b9150600190505b600080600080613c8586614e21602154620222e0612710602280548060200260200160405190810160405280929190818152602001828054801561335757602002820191906000526020600020908154815260200190600101908083116133435750505050506117f7565b93509350935093508560ff168360ff1614613c9f57600194505b601f54600560ff851610801590613cb95750600a8460ff16105b15613ce0576005601f546004613ccf919061569a565b613cd99190615654565b9050613cfd565b600a8460ff1610613cfd576002601f54613cfa9190615654565b90505b34613d0b60ff86168361569a565b811015613d2a5760405162461bcd60e51b8152600401610f5c9061590a565b613d32611fe2565b6001600160a01b03166108fc613d4b60ff88168561569a565b6040518115909202916000818181858888f19350505050158015613d73573d6000803e3d6000fd5b5060008560ff166001600160401b03811115613d9157613d91614f12565b604051908082528060200260200182016040528015613dba578160200160208202803683370190505b50905060008660ff166001600160401b03811115613dda57613dda614f12565b604051908082528060200260200182016040528015613e03578160200160208202803683370190505b50905060005b8760ff16811015613e6d57613e1e818a61558f565b838281518110613e3057613e3061560f565b6020026020010181815250506001828281518110613e5057613e5061560f565b602090810291909101015280613e6581615625565b915050613e09565b50613e8933838360405180602001604052806000815250614a8b565b60005b8760ff16811015613efb5733601d6000858481518110613eae57613eae61560f565b6020026020010151815260200190815260200160002060006101000a8154816001600160a01b0302191690836001600160a01b031602179055508080613ef390615625565b915050613e8c565b508151336000908152601e6020526040902054613f1b919060ff1661558f565b336000908152601e60205260409020805460ff191660ff928316179055602187905560228054898316928816908110613f5657613f5661560f565b9060005260206000200154613f6b919061558f565b60228660ff1681548110613f8157613f8161560f565b90600052602060002001819055508660ff1660206000828254613fa4919061558f565b9091555050602054620222e011613fc557602b805461ff0019166101001790555b336000818152601e6020526040902054600080516020615bf58339815191529060ff1684613ff460018c6158f1565b60ff16815181106140075761400761560f565b602002602001015160405161402b92919060ff929092168252602082015260400190565b60405180910390a288156140605760405160ff881681523390600080516020615bd58339815191529060200160405180910390a25b50505050505050505050565b6126138363a9059cbb60e01b848460405160240161408b929190614dbb565b60408051601f198184030181529190526020810180516001600160e01b03166001600160e01b031990931692909217909152614bd3565b600480546001600160a01b038381166001600160a01b0319831681179093556040519116919082907f8be0079c531659141344cd1fd0a4f28419497f9722a3daafe3b4186f6b6457e090600090a35050565b600061411f8261176b565b801561414a57506000828152601d6020526040812054614148906001600160a01b031684610ef5565b115b1561416b57506000908152601d60205260409020546001600160a01b031690565b506000919050565b601a54600090614e206001600160401b03909116106141bc5760405162461bcd60e51b81526020600482015260056024820152640cae4e4be760db1b6044820152606401610f5c565b601b546000906141cb90612c08565b905060005b601b5460ff908116908216101561426057601b546141f090614e20615654565b601b8360ff16815481106142065761420661560f565b90600052602060002001540361424957601b5461422590600190615668565b8260ff1603614237576000915061424e565b816142418161567b565b92505061424e565b614260565b806142588161567b565b9150506141d0565b600061426e6002606461592a565b60ff16601b8460ff16815481106142875761428761560f565b906000526020600020015410156142ef576142a6606460ff851661569a565b601b8460ff16815481106142bc576142bc61560f565b906000526020600020015460016142d3919061558f565b6142de90600261569a565b6142e8919061558f565b90506143ed565b60ff831615801561432d57506143076002606461592a565b60ff16601b8460ff16815481106143205761432061560f565b9060005260206000200154145b1561438257601b8360ff16815481106143485761434861560f565b9060005260206000200154600261435f919061558f565b601b8460ff16815481106143755761437561560f565b6000918252602090912001555b614390606460ff851661569a565b61439c6002606461592a565b60ff16601b8560ff16815481106143b5576143b561560f565b90600052602060002001546143ca9190615668565b6143d590600261569a565b6143e090600161558f565b6143ea919061558f565b90505b6001601b8460ff16815481106144055761440561560f565b90600052602060002001600082825461441e919061558f565b9091555050601a80546001600160401b031690600061443c8361594c565b91906101000a8154816001600160401b0302191690836001600160401b031602179055505080935050505090565b816001600160a01b0316836001600160a01b0316036144dd5760405162461bcd60e51b815260206004820152602960248201527f455243313135353a2073657474696e6720617070726f76616c20737461747573604482015268103337b91039b2b63360b91b6064820152608401610f5c565b6001600160a01b03838116600081815260016020908152604080832094871680845294825291829020805460ff191686151590811790915591519182527f17307eab39ab6107e8899845ad3d59bd9653f200f220920489ca2b5937696c31910160405180910390a3505050565b6005546001600160a01b03841660009081526007602052604081205490918391614574908661569a565b61457e9190615654565b612cc79190615668565b6001600160a01b0384166145ae5760405162461bcd60e51b8152600401610f5c906157d4565b3360006145ba856146a3565b905060006145c7856146a3565b90506145d78389898585896146ee565b6000868152602081815260408083206001600160a01b038c168452909152902054858110156146185760405162461bcd60e51b8152600401610f5c90615819565b6000878152602081815260408083206001600160a01b038d8116855292528083208985039055908a1682528120805488929061465590849061558f565b909155505060408051888152602081018890526001600160a01b03808b16928c82169291881691600080516020615b75833981519152910160405180910390a46136ea848a8a8a8a8a614867565b604080516001808252818301909252606091600091906020808301908036833701905050905082816000815181106146dd576146dd61560f565b602090810291909101015292915050565b6001600160a01b0385166147755760005b83518110156147735782818151811061471a5761471a61560f565b6020026020010151600360008684815181106147385761473861560f565b60200260200101518152602001908152602001600020600082825461475d919061558f565b9091555061476c905081615625565b90506146ff565b505b6001600160a01b0384166131c35760005b835181101561302a5760008482815181106147a3576147a361560f565b6020026020010151905060008483815181106147c1576147c161560f565b60200260200101519050600060036000848152602001908152602001600020549050818110156148445760405162461bcd60e51b815260206004820152602860248201527f455243313135353a206275726e20616d6f756e74206578636565647320746f74604482015267616c537570706c7960c01b6064820152608401610f5c565b6000928352600360205260409092209103905561486081615625565b9050614786565b614879846001600160a01b0316614ca5565b156131c35760405163f23a6e6160e01b81526001600160a01b0385169063f23a6e61906148b2908990899088908890889060040161597a565b6020604051808303816000875af19250505080156148ed575060408051601f3d908101601f191682019092526148ea918101906159b4565b60015b614999576148f96159d1565b806308c379a003614932575061490d6159ec565b806149185750614934565b8060405162461bcd60e51b8152600401610f5c9190614eb1565b505b60405162461bcd60e51b815260206004820152603460248201527f455243313135353a207472616e7366657220746f206e6f6e2d455243313135356044820152732932b1b2b4bb32b91034b6b83632b6b2b73a32b960611b6064820152608401610f5c565b6001600160e01b0319811663f23a6e6160e01b1461302a5760405162461bcd60e51b8152600401610f5c90615a75565b6149db846001600160a01b0316614ca5565b156131c35760405163bc197c8160e01b81526001600160a01b0385169063bc197c8190614a149089908990889088908890600401615abd565b6020604051808303816000875af1925050508015614a4f575060408051601f3d908101601f19168201909252614a4c918101906159b4565b60015b614a5b576148f96159d1565b6001600160e01b0319811663bc197c8160e01b1461302a5760405162461bcd60e51b8152600401610f5c90615a75565b6001600160a01b038416614ab15760405162461bcd60e51b8152600401610f5c9061574b565b8151835114614ad25760405162461bcd60e51b8152600401610f5c9061578c565b33614ae2816000878787876146ee565b60005b8451811015614b7d57838181518110614b0057614b0061560f565b6020026020010151600080878481518110614b1d57614b1d61560f565b602002602001015181526020019081526020016000206000886001600160a01b03166001600160a01b031681526020019081526020016000206000828254614b65919061558f565b90915550819050614b7581615625565b915050614ae5565b50846001600160a01b031660006001600160a01b0316826001600160a01b0316600080516020615b558339815191528787604051614bbc929190615863565b60405180910390a4611367816000878787876149c9565b6000614c28826040518060400160405280602081526020017f5361666545524332303a206c6f772d6c6576656c2063616c6c206661696c6564815250856001600160a01b0316614cb49092919063ffffffff16565b8051909150156126135780806020019051810190614c469190615b1b565b6126135760405162461bcd60e51b815260206004820152602a60248201527f5361666545524332303a204552433230206f7065726174696f6e20646964206e6044820152691bdd081cdd58d8d9595960b21b6064820152608401610f5c565b6001600160a01b03163b151590565b6060612cc7848460008585600080866001600160a01b03168587604051614cdb9190615b38565b60006040518083038185875af1925050503d8060008114614d18576040519150601f19603f3d011682016040523d82523d6000602084013e614d1d565b606091505b5091509150614d2e87838387614d39565b979650505050505050565b60608315614da6578251600003614d9f57614d5385614ca5565b614d9f5760405162461bcd60e51b815260206004820152601d60248201527f416464726573733a2063616c6c20746f206e6f6e2d636f6e74726163740000006044820152606401610f5c565b5081612cc7565b612cc783838151156149185781518083602001fd5b6001600160a01b03929092168252602082015260400190565b6001600160a01b038116811461150657600080fd5b60008060408385031215614dfc57600080fd5b8235614e0781614dd4565b946020939093013593505050565b6001600160e01b03198116811461150657600080fd5b600060208284031215614e3d57600080fd5b813561205e81614e15565b600060208284031215614e5a57600080fd5b5035919050565b60005b83811015614e7c578181015183820152602001614e64565b50506000910152565b60008151808452614e9d816020860160208601614e61565b601f01601f19169290920160200192915050565b60208152600061205e6020830184614e85565b803560ff81168114614ed557600080fd5b919050565b600060208284031215614eec57600080fd5b61205e82614ec4565b600060208284031215614f0757600080fd5b813561205e81614dd4565b634e487b7160e01b600052604160045260246000fd5b601f8201601f191681016001600160401b0381118282101715614f4d57614f4d614f12565b6040525050565b60006001600160401b03821115614f6d57614f6d614f12565b5060051b60200190565b600082601f830112614f8857600080fd5b81356020614f9582614f54565b604051614fa28282614f28565b83815260059390931b8501820192828101915086841115614fc257600080fd5b8286015b84811015614fdd5780358352918301918301614fc6565b509695505050505050565b600082601f830112614ff957600080fd5b81356001600160401b0381111561501257615012614f12565b604051615029601f8301601f191660200182614f28565b81815284602083860101111561503e57600080fd5b816020850160208301376000918101602001919091529392505050565b600080600080600060a0868803121561507357600080fd5b853561507e81614dd4565b9450602086013561508e81614dd4565b935060408601356001600160401b03808211156150aa57600080fd5b6150b689838a01614f77565b945060608801359150808211156150cc57600080fd5b6150d889838a01614f77565b935060808801359150808211156150ee57600080fd5b506150fb88828901614fe8565b9150509295509295909350565b60008060006060848603121561511d57600080fd5b833561512881614dd4565b925061513660208501614ec4565b915061514460408501614ec4565b90509250925092565b6000806040838503121561516057600080fd5b823561516b81614dd4565b9150602083013561517b81614dd4565b809150509250929050565b6000806040838503121561519957600080fd5b82356001600160401b03808211156151b057600080fd5b818501915085601f8301126151c457600080fd5b813560206151d182614f54565b6040516151de8282614f28565b83815260059390931b85018201928281019150898411156151fe57600080fd5b948201945b8386101561522557853561521681614dd4565b82529482019490820190615203565b9650508601359250508082111561523b57600080fd5b5061524885828601614f77565b9150509250929050565b600081518084526020808501945080840160005b8381101561528257815187529582019590820190600101615266565b509495945050505050565b60208152600061205e6020830184615252565b60008060008060008060c087890312156152b957600080fd5b6152c287614ec4565b95506020870135945060408701359350606087013592506080870135915060a08701356001600160401b038111156152f957600080fd5b61530589828a01614f77565b9150509295509295509295565b6001600160a01b0391909116815260200190565b801515811461150657600080fd5b6000806040838503121561534757600080fd5b823561535281614dd4565b9150602083013561517b81615326565b6000806040838503121561537557600080fd5b82359150602083013561517b81614dd4565b600080600080600060a0868803121561539f57600080fd5b85356153aa81614dd4565b945060208601356153ba81614dd4565b9350604086013592506060860135915060808601356001600160401b038111156153e357600080fd5b6150fb88828901614fe8565b600181811c9082168061540357607f821691505b60208210810361542357634e487b7160e01b600052602260045260246000fd5b50919050565b600080835481600182811c91508083168061544557607f831692505b6020808410820361546457634e487b7160e01b86526022600452602486fd5b818015615478576001811461548d576154ba565b60ff19861689528415158502890196506154ba565b60008a81526020902060005b868110156154b25781548b820152908501908301615499565b505084890196505b505050505050612cc76154d782637b69647d60e01b815260040190565b64173539b7b760d91b815260050190565b60208082526026908201527f5061796d656e7453706c69747465723a206163636f756e7420686173206e6f2060408201526573686172657360d01b606082015260800190565b6020808252602b908201527f5061796d656e7453706c69747465723a206163636f756e74206973206e6f742060408201526a191d59481c185e5b595b9d60aa1b606082015260800190565b634e487b7160e01b600052601160045260246000fd5b80820180821115610f8857610f88615579565b6020808252602e908201527f455243313135353a2063616c6c6572206973206e6f7420746f6b656e206f776e60408201526d195c881bdc88185c1c1c9bdd995960921b606082015260800190565b6020808252600590820152646572725f3360d81b604082015260600190565b634e487b7160e01b600052603260045260246000fd5b60006001820161563757615637615579565b5060010190565b634e487b7160e01b600052601260045260246000fd5b6000826156635761566361563e565b500490565b81810381811115610f8857610f88615579565b600060ff821660ff810361569157615691615579565b60010192915050565b8082028115828204841417610f8857610f88615579565b62ffffff8281168282160390808211156156cd576156cd615579565b5092915050565b62ffffff8181168382160190808211156156cd576156cd615579565b62ffffff929092168252602082015260400190565b60ff8181168382160190811115610f8857610f88615579565b60008261572d5761572d61563e565b500690565b60006020828403121561574457600080fd5b5051919050565b60208082526021908201527f455243313135353a206d696e7420746f20746865207a65726f206164647265736040820152607360f81b606082015260800190565b60208082526028908201527f455243313135353a2069647320616e6420616d6f756e7473206c656e677468206040820152670dad2e6dac2e8c6d60c31b606082015260800190565b60208082526025908201527f455243313135353a207472616e7366657220746f20746865207a65726f206164604082015264647265737360d81b606082015260800190565b6020808252602a908201527f455243313135353a20696e73756666696369656e742062616c616e636520666f60408201526939103a3930b739b332b960b11b606082015260800190565b6040815260006158766040830185615252565b82810360208401526158888185615252565b95945050505050565b6020808252600690820152656572725f323160d01b604082015260600190565b6020808252600690820152656572725f313760d01b604082015260600190565b6020808252600690820152650cae4e4be62760d31b604082015260600190565b60ff8281168282160390811115610f8857610f88615579565b6020808252600690820152656572725f313960d01b604082015260600190565b600060ff83168061593d5761593d61563e565b8060ff84160491505092915050565b60006001600160401b038281166002600160401b0319810161597057615970615579565b6001019392505050565b6001600160a01b03868116825285166020820152604081018490526060810183905260a060808201819052600090614d2e90830184614e85565b6000602082840312156159c657600080fd5b815161205e81614e15565b600060033d1115611faf5760046000803e5060005160e01c90565b600060443d10156159fa5790565b6040516003193d81016004833e81513d6001600160401b038083116024840183101715615a2957505050505090565b8285019150815181811115615a415750505050505090565b843d8701016020828501011115615a5b5750505050505090565b615a6a60208286010187614f28565b509095945050505050565b60208082526028908201527f455243313135353a204552433131353552656365697665722072656a656374656040820152676420746f6b656e7360c01b606082015260800190565b6001600160a01b0386811682528516602082015260a060408201819052600090615ae990830186615252565b8281036060840152615afb8186615252565b90508281036080840152615b0f8185614e85565b98975050505050505050565b600060208284031215615b2d57600080fd5b815161205e81615326565b60008251615b4a818460208701614e61565b919091019291505056fe4a39dc06d4c0dbc64b70af90fd698a233a518aa5d07e595d983b8c0526c8f7fbc3d58168c5ae7397731d063d5bbf3d657854427343f4c083240f7aacaa2d0f62fbc825a9dbec6ba579c678650f97fd1adaab5d895472fb72d1be4a0982ed8c19447b8744ce19b4ec182a865f10546affad5cb63bee7fbf1f4733554d3644a8d0af3c443bb05b163e7d42de9f4b11bdbfa307cad571a1ae5013e5e2ee92e66ed2df6bd66365a8c4ede51660159bba6757ea60b0815714ebd8534054d929f3337f7b7d25f8a91d07d734c2f45d6dd20e28016c3648b97f80270c65a2a565e62025a2646970667358221220f8d1940ef07057320ba22b8915a9f59407532e2eac404a339c05a37295ced46f64736f6c63430008110033",
  "linkReferences": {},
  "deployedLinkReferences": {}
}