{
  "_format": "hh-sol-artifact-1",
  "contractName": "Vipsland",
  "sourceName": "contracts/Vipsland.sol",
  "abi": [
    {
      "inputs": [
        {
          "internalType": "address[]",
          "name": "_team",
          "type": "address[]"
        },
        {
          "internalType": "uint256[]",
          "name": "_teamShares",
          "type": "uint256[]"
        },
        {
          "internalType": "string",
          "name": "_notRevealedUri",
          "type": "string"
        },
        {
          "internalType": "string",
          "name": "_revealedUri",
          "type": "string"
        },
        {
          "internalType": "bytes32",
          "name": "merklerootair",
          "type": "bytes32"
        },
        {
          "internalType": "bytes32",
          "name": "merklerootint",
          "type": "bytes32"
        }
      ],
      "stateMutability": "nonpayable",
      "type": "constructor"
    },
    {
      "anonymous": false,
      "inputs": [
        {
          "indexed": true,
          "internalType": "address",
          "name": "account",
          "type": "address"
        },
        {
          "indexed": true,
          "internalType": "address",
          "name": "operator",
          "type": "address"
        },
        {
          "indexed": false,
          "internalType": "bool",
          "name": "approved",
          "type": "bool"
        }
      ],
      "name": "ApprovalForAll",
      "type": "event"
    },
    {
      "anonymous": false,
      "inputs": [
        {
          "indexed": false,
          "internalType": "uint256",
          "name": "tokenMPID",
          "type": "uint256"
        }
      ],
      "name": "DebugMP",
      "type": "event"
    },
    {
      "anonymous": false,
      "inputs": [
        {
          "indexed": true,
          "internalType": "address",
          "name": "acc",
          "type": "address"
        },
        {
          "indexed": false,
          "internalType": "uint256",
          "name": "minted_amount",
          "type": "uint256"
        },
        {
          "indexed": false,
          "internalType": "uint256",
          "name": "last_minted_NONMPID",
          "type": "uint256"
        }
      ],
      "name": "DitributePRTs",
      "type": "event"
    },
    {
      "anonymous": false,
      "inputs": [
        {
          "indexed": true,
          "internalType": "contract IERC20",
          "name": "token",
          "type": "address"
        },
        {
          "indexed": false,
          "internalType": "address",
          "name": "to",
          "type": "address"
        },
        {
          "indexed": false,
          "internalType": "uint256",
          "name": "amount",
          "type": "uint256"
        }
      ],
      "name": "ERC20PaymentReleased",
      "type": "event"
    },
    {
      "anonymous": false,
      "inputs": [
        {
          "indexed": false,
          "internalType": "bool",
          "name": "sendMPAllDone",
          "type": "bool"
        }
      ],
      "name": "MPAllDone",
      "type": "event"
    },
    {
      "anonymous": false,
      "inputs": [
        {
          "indexed": true,
          "internalType": "address",
          "name": "previousOwner",
          "type": "address"
        },
        {
          "indexed": true,
          "internalType": "address",
          "name": "newOwner",
          "type": "address"
        }
      ],
      "name": "OwnershipTransferred",
      "type": "event"
    },
    {
      "anonymous": false,
      "inputs": [
        {
          "indexed": false,
          "internalType": "address",
          "name": "account",
          "type": "address"
        },
        {
          "indexed": false,
          "internalType": "uint256",
          "name": "shares",
          "type": "uint256"
        }
      ],
      "name": "PayeeAdded",
      "type": "event"
    },
    {
      "anonymous": false,
      "inputs": [
        {
          "indexed": false,
          "internalType": "address",
          "name": "from",
          "type": "address"
        },
        {
          "indexed": false,
          "internalType": "uint256",
          "name": "amount",
          "type": "uint256"
        }
      ],
      "name": "PaymentReceived",
      "type": "event"
    },
    {
      "anonymous": false,
      "inputs": [
        {
          "indexed": false,
          "internalType": "address",
          "name": "to",
          "type": "address"
        },
        {
          "indexed": false,
          "internalType": "uint256",
          "name": "amount",
          "type": "uint256"
        }
      ],
      "name": "PaymentReleased",
      "type": "event"
    },
    {
      "anonymous": false,
      "inputs": [
        {
          "indexed": true,
          "internalType": "address",
          "name": "acc",
          "type": "address"
        },
        {
          "indexed": false,
          "internalType": "uint256",
          "name": "qnt",
          "type": "uint256"
        }
      ],
      "name": "RemainMessageNeeds",
      "type": "event"
    },
    {
      "anonymous": false,
      "inputs": [
        {
          "indexed": false,
          "internalType": "uint256",
          "name": "_winnerTokenNONMPID",
          "type": "uint256"
        },
        {
          "indexed": false,
          "internalType": "uint256",
          "name": "max_nonmpid_minus_xrand",
          "type": "uint256"
        }
      ],
      "name": "SelectedNONMPIDTokens",
      "type": "event"
    },
    {
      "anonymous": false,
      "inputs": [
        {
          "indexed": true,
          "internalType": "address",
          "name": "operator",
          "type": "address"
        },
        {
          "indexed": true,
          "internalType": "address",
          "name": "from",
          "type": "address"
        },
        {
          "indexed": true,
          "internalType": "address",
          "name": "to",
          "type": "address"
        },
        {
          "indexed": false,
          "internalType": "uint256[]",
          "name": "ids",
          "type": "uint256[]"
        },
        {
          "indexed": false,
          "internalType": "uint256[]",
          "name": "values",
          "type": "uint256[]"
        }
      ],
      "name": "TransferBatch",
      "type": "event"
    },
    {
      "anonymous": false,
      "inputs": [
        {
          "indexed": true,
          "internalType": "address",
          "name": "operator",
          "type": "address"
        },
        {
          "indexed": true,
          "internalType": "address",
          "name": "from",
          "type": "address"
        },
        {
          "indexed": true,
          "internalType": "address",
          "name": "to",
          "type": "address"
        },
        {
          "indexed": false,
          "internalType": "uint256",
          "name": "id",
          "type": "uint256"
        },
        {
          "indexed": false,
          "internalType": "uint256",
          "name": "value",
          "type": "uint256"
        }
      ],
      "name": "TransferSingle",
      "type": "event"
    },
    {
      "anonymous": false,
      "inputs": [
        {
          "indexed": false,
          "internalType": "string",
          "name": "value",
          "type": "string"
        },
        {
          "indexed": true,
          "internalType": "uint256",
          "name": "id",
          "type": "uint256"
        }
      ],
      "name": "URI",
      "type": "event"
    },
    {
      "anonymous": false,
      "inputs": [
        {
          "indexed": true,
          "internalType": "address",
          "name": "acc",
          "type": "address"
        },
        {
          "indexed": false,
          "internalType": "uint256",
          "name": "winnerTokenPRTID",
          "type": "uint256"
        }
      ],
      "name": "WinnersMP",
      "type": "event"
    },
    {
      "inputs": [],
      "name": "EACH_RAND_SLOT_NUM_TOTAL_FOR_AIRDROP",
      "outputs": [
        {
          "internalType": "uint256",
          "name": "",
          "type": "uint256"
        }
      ],
      "stateMutability": "view",
      "type": "function"
    },
    {
      "inputs": [],
      "name": "EACH_RAND_SLOT_NUM_TOTAL_FOR_INTERNALTEAM",
      "outputs": [
        {
          "internalType": "uint256",
          "name": "",
          "type": "uint256"
        }
      ],
      "stateMutability": "view",
      "type": "function"
    },
    {
      "inputs": [],
      "name": "EACH_RAND_SLOT_NUM_TOTAL_FOR_PRT",
      "outputs": [
        {
          "internalType": "uint256",
          "name": "",
          "type": "uint256"
        }
      ],
      "stateMutability": "view",
      "type": "function"
    },
    {
      "inputs": [],
      "name": "MAX_PRT_AMOUNT_PER_ACC",
      "outputs": [
        {
          "internalType": "uint8",
          "name": "",
          "type": "uint8"
        }
      ],
      "stateMutability": "view",
      "type": "function"
    },
    {
      "inputs": [],
      "name": "MAX_PRT_AMOUNT_PER_ACC_AIRDROP",
      "outputs": [
        {
          "internalType": "uint8",
          "name": "",
          "type": "uint8"
        }
      ],
      "stateMutability": "view",
      "type": "function"
    },
    {
      "inputs": [],
      "name": "MAX_PRT_AMOUNT_PER_ACC_INTERNAL",
      "outputs": [
        {
          "internalType": "uint8",
          "name": "",
          "type": "uint8"
        }
      ],
      "stateMutability": "view",
      "type": "function"
    },
    {
      "inputs": [],
      "name": "MAX_PRT_AMOUNT_PER_ACC_PER_TRANSACTION",
      "outputs": [
        {
          "internalType": "uint8",
          "name": "",
          "type": "uint8"
        }
      ],
      "stateMutability": "view",
      "type": "function"
    },
    {
      "inputs": [],
      "name": "MAX_PRT_AMOUNT_PER_ACC_PER_TRANSACTION_AIRDROP",
      "outputs": [
        {
          "internalType": "uint8",
          "name": "",
          "type": "uint8"
        }
      ],
      "stateMutability": "view",
      "type": "function"
    },
    {
      "inputs": [],
      "name": "MAX_PRT_AMOUNT_PER_ACC_PER_TRANSACTION_INTERNAL",
      "outputs": [
        {
          "internalType": "uint8",
          "name": "",
          "type": "uint8"
        }
      ],
      "stateMutability": "view",
      "type": "function"
    },
    {
      "inputs": [],
      "name": "MAX_SUPPLY_FOR_AIRDROP_TOKEN",
      "outputs": [
        {
          "internalType": "uint256",
          "name": "",
          "type": "uint256"
        }
      ],
      "stateMutability": "view",
      "type": "function"
    },
    {
      "inputs": [],
      "name": "MAX_SUPPLY_FOR_INTERNALTEAM_TOKEN",
      "outputs": [
        {
          "internalType": "uint256",
          "name": "",
          "type": "uint256"
        }
      ],
      "stateMutability": "view",
      "type": "function"
    },
    {
      "inputs": [],
      "name": "MAX_SUPPLY_FOR_PRT_TOKEN",
      "outputs": [
        {
          "internalType": "uint256",
          "name": "",
          "type": "uint256"
        }
      ],
      "stateMutability": "view",
      "type": "function"
    },
    {
      "inputs": [],
      "name": "MAX_SUPPLY_MP",
      "outputs": [
        {
          "internalType": "uint256",
          "name": "",
          "type": "uint256"
        }
      ],
      "stateMutability": "view",
      "type": "function"
    },
    {
      "inputs": [],
      "name": "NUM_TOTAL_FOR_MP",
      "outputs": [
        {
          "internalType": "uint8",
          "name": "",
          "type": "uint8"
        }
      ],
      "stateMutability": "view",
      "type": "function"
    },
    {
      "inputs": [],
      "name": "PRICE_PRT",
      "outputs": [
        {
          "internalType": "uint256",
          "name": "",
          "type": "uint256"
        }
      ],
      "stateMutability": "view",
      "type": "function"
    },
    {
      "inputs": [],
      "name": "PRICE_PRT_AIRDROP",
      "outputs": [
        {
          "internalType": "uint256",
          "name": "",
          "type": "uint256"
        }
      ],
      "stateMutability": "view",
      "type": "function"
    },
    {
      "inputs": [],
      "name": "PRICE_PRT_INTERNALTEAM",
      "outputs": [
        {
          "internalType": "uint256",
          "name": "",
          "type": "uint256"
        }
      ],
      "stateMutability": "view",
      "type": "function"
    },
    {
      "inputs": [],
      "name": "PRTID",
      "outputs": [
        {
          "internalType": "uint256",
          "name": "",
          "type": "uint256"
        }
      ],
      "stateMutability": "view",
      "type": "function"
    },
    {
      "inputs": [],
      "name": "STARTINGIDFORAIRDROP",
      "outputs": [
        {
          "internalType": "uint256",
          "name": "",
          "type": "uint256"
        }
      ],
      "stateMutability": "view",
      "type": "function"
    },
    {
      "inputs": [],
      "name": "STARTINGIDFORINTERNALTEAM",
      "outputs": [
        {
          "internalType": "uint256",
          "name": "",
          "type": "uint256"
        }
      ],
      "stateMutability": "view",
      "type": "function"
    },
    {
      "inputs": [],
      "name": "STARTINGIDFORPRT",
      "outputs": [
        {
          "internalType": "uint256",
          "name": "",
          "type": "uint256"
        }
      ],
      "stateMutability": "view",
      "type": "function"
    },
    {
      "inputs": [],
      "name": "_counter_for_generatelucky_mp",
      "outputs": [
        {
          "internalType": "uint256",
          "name": "_value",
          "type": "uint256"
        }
      ],
      "stateMutability": "view",
      "type": "function"
    },
    {
      "inputs": [],
      "name": "_counter_for_generatelucky_mp_airdrop",
      "outputs": [
        {
          "internalType": "uint256",
          "name": "_value",
          "type": "uint256"
        }
      ],
      "stateMutability": "view",
      "type": "function"
    },
    {
      "inputs": [],
      "name": "_counter_for_generatelucky_mp_internalteam",
      "outputs": [
        {
          "internalType": "uint256",
          "name": "_value",
          "type": "uint256"
        }
      ],
      "stateMutability": "view",
      "type": "function"
    },
    {
      "inputs": [
        {
          "internalType": "address",
          "name": "account",
          "type": "address"
        },
        {
          "internalType": "uint256",
          "name": "id",
          "type": "uint256"
        }
      ],
      "name": "balanceOf",
      "outputs": [
        {
          "internalType": "uint256",
          "name": "",
          "type": "uint256"
        }
      ],
      "stateMutability": "view",
      "type": "function"
    },
    {
      "inputs": [],
      "name": "balanceOfAccount",
      "outputs": [
        {
          "internalType": "uint256",
          "name": "",
          "type": "uint256"
        }
      ],
      "stateMutability": "payable",
      "type": "function"
    },
    {
      "inputs": [
        {
          "internalType": "address[]",
          "name": "accounts",
          "type": "address[]"
        },
        {
          "internalType": "uint256[]",
          "name": "ids",
          "type": "uint256[]"
        }
      ],
      "name": "balanceOfBatch",
      "outputs": [
        {
          "internalType": "uint256[]",
          "name": "",
          "type": "uint256[]"
        }
      ],
      "stateMutability": "view",
      "type": "function"
    },
    {
      "inputs": [
        {
          "internalType": "string",
          "name": "a",
          "type": "string"
        },
        {
          "internalType": "uint256",
          "name": "b",
          "type": "uint256"
        }
      ],
      "name": "concatenate",
      "outputs": [
        {
          "internalType": "string",
          "name": "",
          "type": "string"
        }
      ],
      "stateMutability": "pure",
      "type": "function"
    },
    {
      "inputs": [],
      "name": "contractBalance",
      "outputs": [
        {
          "internalType": "uint256",
          "name": "",
          "type": "uint256"
        }
      ],
      "stateMutability": "view",
      "type": "function"
    },
    {
      "inputs": [
        {
          "internalType": "uint256",
          "name": "id",
          "type": "uint256"
        }
      ],
      "name": "exists",
      "outputs": [
        {
          "internalType": "bool",
          "name": "",
          "type": "bool"
        }
      ],
      "stateMutability": "view",
      "type": "function"
    },
    {
      "inputs": [
        {
          "internalType": "uint256",
          "name": "",
          "type": "uint256"
        }
      ],
      "name": "intArrPRTAIRDROP",
      "outputs": [
        {
          "internalType": "uint256",
          "name": "",
          "type": "uint256"
        }
      ],
      "stateMutability": "view",
      "type": "function"
    },
    {
      "inputs": [
        {
          "internalType": "address",
          "name": "account",
          "type": "address"
        },
        {
          "internalType": "address",
          "name": "operator",
          "type": "address"
        }
      ],
      "name": "isApprovedForAll",
      "outputs": [
        {
          "internalType": "bool",
          "name": "",
          "type": "bool"
        }
      ],
      "stateMutability": "view",
      "type": "function"
    },
    {
      "inputs": [],
      "name": "mintAirdropMPIsOpen",
      "outputs": [
        {
          "internalType": "bool",
          "name": "",
          "type": "bool"
        }
      ],
      "stateMutability": "view",
      "type": "function"
    },
    {
      "inputs": [
        {
          "internalType": "uint256",
          "name": "tokenID",
          "type": "uint256"
        }
      ],
      "name": "mintDebug",
      "outputs": [],
      "stateMutability": "nonpayable",
      "type": "function"
    },
    {
      "inputs": [],
      "name": "mintInternalTeamMPIsOpen",
      "outputs": [
        {
          "internalType": "bool",
          "name": "",
          "type": "bool"
        }
      ],
      "stateMutability": "view",
      "type": "function"
    },
    {
      "inputs": [],
      "name": "mintMPIsOpen",
      "outputs": [
        {
          "internalType": "bool",
          "name": "",
          "type": "bool"
        }
      ],
      "stateMutability": "view",
      "type": "function"
    },
    {
      "inputs": [
        {
          "internalType": "address",
          "name": "account",
          "type": "address"
        },
        {
          "internalType": "uint8",
          "name": "_amount_wanted_able_to_get",
          "type": "uint8"
        },
        {
          "internalType": "uint8",
          "name": "stage",
          "type": "uint8"
        },
        {
          "internalType": "bytes32[]",
          "name": "_proof",
          "type": "bytes32[]"
        }
      ],
      "name": "mintNONMPForAIRDROP",
      "outputs": [],
      "stateMutability": "payable",
      "type": "function"
    },
    {
      "inputs": [
        {
          "internalType": "address",
          "name": "account",
          "type": "address"
        },
        {
          "internalType": "uint8",
          "name": "_amount_wanted_able_to_get",
          "type": "uint8"
        },
        {
          "internalType": "uint8",
          "name": "stage",
          "type": "uint8"
        },
        {
          "internalType": "bytes32[]",
          "name": "_proof",
          "type": "bytes32[]"
        }
      ],
      "name": "mintNONMPForInternalTeam",
      "outputs": [],
      "stateMutability": "payable",
      "type": "function"
    },
    {
      "inputs": [
        {
          "internalType": "address",
          "name": "account",
          "type": "address"
        },
        {
          "internalType": "uint8",
          "name": "_amount_wanted_able_to_get",
          "type": "uint8"
        },
        {
          "internalType": "uint8",
          "name": "stage",
          "type": "uint8"
        }
      ],
      "name": "mintNONMPForNormalUser",
      "outputs": [],
      "stateMutability": "payable",
      "type": "function"
    },
    {
      "inputs": [],
      "name": "name",
      "outputs": [
        {
          "internalType": "string",
          "name": "",
          "type": "string"
        }
      ],
      "stateMutability": "view",
      "type": "function"
    },
    {
      "inputs": [],
      "name": "numIssuedForAIRDROP",
      "outputs": [
        {
          "internalType": "uint256",
          "name": "",
          "type": "uint256"
        }
      ],
      "stateMutability": "view",
      "type": "function"
    },
    {
      "inputs": [],
      "name": "numIssuedForInternalTeamIDs",
      "outputs": [
        {
          "internalType": "uint256",
          "name": "",
          "type": "uint256"
        }
      ],
      "stateMutability": "view",
      "type": "function"
    },
    {
      "inputs": [],
      "name": "numIssuedForMP",
      "outputs": [
        {
          "internalType": "uint64",
          "name": "",
          "type": "uint64"
        }
      ],
      "stateMutability": "view",
      "type": "function"
    },
    {
      "inputs": [],
      "name": "numIssuedForNormalUser",
      "outputs": [
        {
          "internalType": "uint256",
          "name": "",
          "type": "uint256"
        }
      ],
      "stateMutability": "view",
      "type": "function"
    },
    {
      "inputs": [],
      "name": "owner",
      "outputs": [
        {
          "internalType": "address",
          "name": "",
          "type": "address"
        }
      ],
      "stateMutability": "view",
      "type": "function"
    },
    {
      "inputs": [
        {
          "internalType": "uint256",
          "name": "index",
          "type": "uint256"
        }
      ],
      "name": "payee",
      "outputs": [
        {
          "internalType": "address",
          "name": "",
          "type": "address"
        }
      ],
      "stateMutability": "view",
      "type": "function"
    },
    {
      "inputs": [],
      "name": "presalePRT",
      "outputs": [
        {
          "internalType": "uint8",
          "name": "",
          "type": "uint8"
        }
      ],
      "stateMutability": "view",
      "type": "function"
    },
    {
      "inputs": [
        {
          "internalType": "uint256",
          "name": "",
          "type": "uint256"
        }
      ],
      "name": "prtPerAddress",
      "outputs": [
        {
          "internalType": "address",
          "name": "",
          "type": "address"
        }
      ],
      "stateMutability": "view",
      "type": "function"
    },
    {
      "inputs": [],
      "name": "qntmintmpforairdrop",
      "outputs": [
        {
          "internalType": "uint256",
          "name": "",
          "type": "uint256"
        }
      ],
      "stateMutability": "view",
      "type": "function"
    },
    {
      "inputs": [],
      "name": "qntmintmpforinternalteam",
      "outputs": [
        {
          "internalType": "uint256",
          "name": "",
          "type": "uint256"
        }
      ],
      "stateMutability": "view",
      "type": "function"
    },
    {
      "inputs": [],
      "name": "qntmintmpfornormaluser",
      "outputs": [
        {
          "internalType": "uint256",
          "name": "",
          "type": "uint256"
        }
      ],
      "stateMutability": "view",
      "type": "function"
    },
    {
      "inputs": [],
      "name": "qntmintnonmpforairdrop",
      "outputs": [
        {
          "internalType": "uint256",
          "name": "",
          "type": "uint256"
        }
      ],
      "stateMutability": "view",
      "type": "function"
    },
    {
      "inputs": [],
      "name": "qntmintnonmpforinternalteam",
      "outputs": [
        {
          "internalType": "uint256",
          "name": "",
          "type": "uint256"
        }
      ],
      "stateMutability": "view",
      "type": "function"
    },
    {
      "inputs": [],
      "name": "qntmintnonmpfornormaluser",
      "outputs": [
        {
          "internalType": "uint256",
          "name": "",
          "type": "uint256"
        }
      ],
      "stateMutability": "view",
      "type": "function"
    },
    {
      "inputs": [
        {
          "internalType": "address",
          "name": "account",
          "type": "address"
        }
      ],
      "name": "releasable",
      "outputs": [
        {
          "internalType": "uint256",
          "name": "",
          "type": "uint256"
        }
      ],
      "stateMutability": "view",
      "type": "function"
    },
    {
      "inputs": [
        {
          "internalType": "contract IERC20",
          "name": "token",
          "type": "address"
        },
        {
          "internalType": "address",
          "name": "account",
          "type": "address"
        }
      ],
      "name": "releasable",
      "outputs": [
        {
          "internalType": "uint256",
          "name": "",
          "type": "uint256"
        }
      ],
      "stateMutability": "view",
      "type": "function"
    },
    {
      "inputs": [
        {
          "internalType": "address payable",
          "name": "account",
          "type": "address"
        }
      ],
      "name": "release",
      "outputs": [],
      "stateMutability": "nonpayable",
      "type": "function"
    },
    {
      "inputs": [
        {
          "internalType": "contract IERC20",
          "name": "token",
          "type": "address"
        },
        {
          "internalType": "address",
          "name": "account",
          "type": "address"
        }
      ],
      "name": "release",
      "outputs": [],
      "stateMutability": "nonpayable",
      "type": "function"
    },
    {
      "inputs": [
        {
          "internalType": "contract IERC20",
          "name": "token",
          "type": "address"
        },
        {
          "internalType": "address",
          "name": "account",
          "type": "address"
        }
      ],
      "name": "released",
      "outputs": [
        {
          "internalType": "uint256",
          "name": "",
          "type": "uint256"
        }
      ],
      "stateMutability": "view",
      "type": "function"
    },
    {
      "inputs": [
        {
          "internalType": "address",
          "name": "account",
          "type": "address"
        }
      ],
      "name": "released",
      "outputs": [
        {
          "internalType": "uint256",
          "name": "",
          "type": "uint256"
        }
      ],
      "stateMutability": "view",
      "type": "function"
    },
    {
      "inputs": [],
      "name": "renounceOwnership",
      "outputs": [],
      "stateMutability": "nonpayable",
      "type": "function"
    },
    {
      "inputs": [],
      "name": "revealed",
      "outputs": [
        {
          "internalType": "bool",
          "name": "",
          "type": "bool"
        }
      ],
      "stateMutability": "view",
      "type": "function"
    },
    {
      "inputs": [],
      "name": "rootair",
      "outputs": [
        {
          "internalType": "bytes32",
          "name": "",
          "type": "bytes32"
        }
      ],
      "stateMutability": "view",
      "type": "function"
    },
    {
      "inputs": [],
      "name": "rootint",
      "outputs": [
        {
          "internalType": "bytes32",
          "name": "",
          "type": "bytes32"
        }
      ],
      "stateMutability": "view",
      "type": "function"
    },
    {
      "inputs": [
        {
          "internalType": "address",
          "name": "from",
          "type": "address"
        },
        {
          "internalType": "address",
          "name": "to",
          "type": "address"
        },
        {
          "internalType": "uint256[]",
          "name": "ids",
          "type": "uint256[]"
        },
        {
          "internalType": "uint256[]",
          "name": "amounts",
          "type": "uint256[]"
        },
        {
          "internalType": "bytes",
          "name": "data",
          "type": "bytes"
        }
      ],
      "name": "safeBatchTransferFrom",
      "outputs": [],
      "stateMutability": "nonpayable",
      "type": "function"
    },
    {
      "inputs": [
        {
          "internalType": "uint256",
          "name": "tokenID",
          "type": "uint256"
        },
        {
          "internalType": "address",
          "name": "addr",
          "type": "address"
        }
      ],
      "name": "safeTransferDebug",
      "outputs": [],
      "stateMutability": "nonpayable",
      "type": "function"
    },
    {
      "inputs": [
        {
          "internalType": "address",
          "name": "from",
          "type": "address"
        },
        {
          "internalType": "address",
          "name": "to",
          "type": "address"
        },
        {
          "internalType": "uint256",
          "name": "id",
          "type": "uint256"
        },
        {
          "internalType": "uint256",
          "name": "amount",
          "type": "uint256"
        },
        {
          "internalType": "bytes",
          "name": "data",
          "type": "bytes"
        }
      ],
      "name": "safeTransferFrom",
      "outputs": [],
      "stateMutability": "nonpayable",
      "type": "function"
    },
    {
      "inputs": [],
      "name": "sendMPAirdrop",
      "outputs": [],
      "stateMutability": "nonpayable",
      "type": "function"
    },
    {
      "inputs": [],
      "name": "sendMPAllDoneForAirdrop",
      "outputs": [
        {
          "internalType": "bool",
          "name": "",
          "type": "bool"
        }
      ],
      "stateMutability": "view",
      "type": "function"
    },
    {
      "inputs": [],
      "name": "sendMPAllDoneForInternalTeam",
      "outputs": [
        {
          "internalType": "bool",
          "name": "",
          "type": "bool"
        }
      ],
      "stateMutability": "view",
      "type": "function"
    },
    {
      "inputs": [],
      "name": "sendMPAllDoneForNormalUsers",
      "outputs": [
        {
          "internalType": "bool",
          "name": "",
          "type": "bool"
        }
      ],
      "stateMutability": "view",
      "type": "function"
    },
    {
      "inputs": [],
      "name": "sendMPInternalTeam",
      "outputs": [],
      "stateMutability": "nonpayable",
      "type": "function"
    },
    {
      "inputs": [],
      "name": "sendMPNormalUsers",
      "outputs": [],
      "stateMutability": "nonpayable",
      "type": "function"
    },
    {
      "inputs": [
        {
          "internalType": "address",
          "name": "operator",
          "type": "address"
        },
        {
          "internalType": "bool",
          "name": "approved",
          "type": "bool"
        }
      ],
      "name": "setApprovalForAll",
      "outputs": [],
      "stateMutability": "nonpayable",
      "type": "function"
    },
    {
      "inputs": [
        {
          "internalType": "bytes32",
          "name": "merkleroot",
          "type": "bytes32"
        },
        {
          "internalType": "uint8",
          "name": "stage",
          "type": "uint8"
        }
      ],
      "name": "setMerkleRoot",
      "outputs": [],
      "stateMutability": "nonpayable",
      "type": "function"
    },
    {
      "inputs": [
        {
          "internalType": "uint256",
          "name": "price",
          "type": "uint256"
        }
      ],
      "name": "setPRICE_PRT",
      "outputs": [],
      "stateMutability": "nonpayable",
      "type": "function"
    },
    {
      "inputs": [
        {
          "internalType": "uint256",
          "name": "price",
          "type": "uint256"
        }
      ],
      "name": "setPRICE_PRT_AIRDROP",
      "outputs": [],
      "stateMutability": "nonpayable",
      "type": "function"
    },
    {
      "inputs": [
        {
          "internalType": "uint256",
          "name": "price",
          "type": "uint256"
        }
      ],
      "name": "setPRICE_PRT_INTERNALTEAM",
      "outputs": [],
      "stateMutability": "nonpayable",
      "type": "function"
    },
    {
      "inputs": [
        {
          "internalType": "uint8",
          "name": "num",
          "type": "uint8"
        }
      ],
      "name": "setPreSalePRT",
      "outputs": [],
      "stateMutability": "nonpayable",
      "type": "function"
    },
    {
      "inputs": [
        {
          "internalType": "uint8",
          "name": "amount",
          "type": "uint8"
        },
        {
          "internalType": "uint8",
          "name": "amount_per_transaction",
          "type": "uint8"
        }
      ],
      "name": "set_MAX_PRT_AMOUNT_PER_ACC_AND_TRANSACTION_INTERNAL",
      "outputs": [],
      "stateMutability": "nonpayable",
      "type": "function"
    },
    {
      "inputs": [
        {
          "internalType": "address",
          "name": "account",
          "type": "address"
        }
      ],
      "name": "shares",
      "outputs": [
        {
          "internalType": "uint256",
          "name": "",
          "type": "uint256"
        }
      ],
      "stateMutability": "view",
      "type": "function"
    },
    {
      "inputs": [
        {
          "internalType": "bytes4",
          "name": "interfaceId",
          "type": "bytes4"
        }
      ],
      "name": "supportsInterface",
      "outputs": [
        {
          "internalType": "bool",
          "name": "",
          "type": "bool"
        }
      ],
      "stateMutability": "view",
      "type": "function"
    },
    {
      "inputs": [],
      "name": "symbol",
      "outputs": [
        {
          "internalType": "string",
          "name": "",
          "type": "string"
        }
      ],
      "stateMutability": "view",
      "type": "function"
    },
    {
      "inputs": [],
      "name": "toggleMintAirdropMPIsOpen",
      "outputs": [],
      "stateMutability": "nonpayable",
      "type": "function"
    },
    {
      "inputs": [],
      "name": "toggleMintInternalTeamMPIsOpen",
      "outputs": [],
      "stateMutability": "nonpayable",
      "type": "function"
    },
    {
      "inputs": [],
      "name": "toggleMintMPIsOpen",
      "outputs": [],
      "stateMutability": "nonpayable",
      "type": "function"
    },
    {
      "inputs": [],
      "name": "toggleReveal",
      "outputs": [],
      "stateMutability": "nonpayable",
      "type": "function"
    },
    {
      "inputs": [
        {
          "internalType": "contract IERC20",
          "name": "token",
          "type": "address"
        }
      ],
      "name": "totalReleased",
      "outputs": [
        {
          "internalType": "uint256",
          "name": "",
          "type": "uint256"
        }
      ],
      "stateMutability": "view",
      "type": "function"
    },
    {
      "inputs": [],
      "name": "totalReleased",
      "outputs": [
        {
          "internalType": "uint256",
          "name": "",
          "type": "uint256"
        }
      ],
      "stateMutability": "view",
      "type": "function"
    },
    {
      "inputs": [],
      "name": "totalShares",
      "outputs": [
        {
          "internalType": "uint256",
          "name": "",
          "type": "uint256"
        }
      ],
      "stateMutability": "view",
      "type": "function"
    },
    {
      "inputs": [
        {
          "internalType": "uint256",
          "name": "id",
          "type": "uint256"
        }
      ],
      "name": "totalSupply",
      "outputs": [
        {
          "internalType": "uint256",
          "name": "",
          "type": "uint256"
        }
      ],
      "stateMutability": "view",
      "type": "function"
    },
    {
      "inputs": [
        {
          "internalType": "address",
          "name": "newOwner",
          "type": "address"
        }
      ],
      "name": "transferOwnership",
      "outputs": [],
      "stateMutability": "nonpayable",
      "type": "function"
    },
    {
      "inputs": [
        {
          "internalType": "uint256",
          "name": "",
          "type": "uint256"
        }
      ],
      "name": "uri",
      "outputs": [
        {
          "internalType": "string",
          "name": "",
          "type": "string"
        }
      ],
      "stateMutability": "view",
      "type": "function"
    },
    {
      "inputs": [
        {
          "internalType": "address",
          "name": "",
          "type": "address"
        }
      ],
      "name": "userNONMPs",
      "outputs": [
        {
          "internalType": "uint8",
          "name": "",
          "type": "uint8"
        }
      ],
      "stateMutability": "view",
      "type": "function"
    },
    {
      "inputs": [],
      "name": "withdraw",
      "outputs": [],
      "stateMutability": "payable",
      "type": "function"
    },
    {
      "inputs": [],
      "name": "xrand",
      "outputs": [
        {
          "internalType": "uint8",
          "name": "",
          "type": "uint8"
        }
      ],
      "stateMutability": "view",
      "type": "function"
    },
    {
      "stateMutability": "payable",
      "type": "receive"
    }
  ],
  "bytecode": "0x60c0604052601060809081526f564950534c414e442047454e4553495360801b60a052600d9062000031908262000801565b50604080518082019091526004815263159414d360e21b6020820152600e906200005c908262000801565b506011805460ff1990811690915560006013819055601481905560158190556016805483166012179055601a80546001600160401b0319166004179055601e805461191961ffff199091161790556701b4fbd92b5f8000601f5560208190556021819055602381905560248190556025819055602781905560288190556029819055602b805463ffffffff19169055602e819055602f81905560308190556031805462ffffff1916905560328190556033556034805490911690553480156200012457600080fd5b5060405162006bbe38038062006bbe833981016040819052620001479162000a9f565b8585856200015581620004a3565b506200016133620004b5565b8051825114620001d35760405162461bcd60e51b815260206004820152603260248201527f5061796d656e7453706c69747465723a2070617965657320616e6420736861726044820152710cae640d8cadccee8d040dad2e6dac2e8c6d60731b60648201526084015b60405180910390fd5b6000825111620002265760405162461bcd60e51b815260206004820152601a60248201527f5061796d656e7453706c69747465723a206e6f207061796565730000000000006044820152606401620001ca565b60005b825181101562000292576200027d8382815181106200024c576200024c62000b6a565b602002602001015183838151811062000269576200026962000b6a565b60200260200101516200050760201b60201c565b80620002898162000b96565b91505062000229565b50506001600c5550602c829055602d819055600f620002b2858262000801565b506010620002c1848262000801565b50620002d16064614e2062000bb2565b6001600160401b03811115620002eb57620002eb6200075c565b60405190808252806020026020018201604052801562000315578160200160208202803683370190505b5080516200032c91601b91602090910190620006f5565b506002601b60008154811062000346576200034662000b6a565b60009182526020909120015562000363612710620222e062000bb2565b6001600160401b038111156200037d576200037d6200075c565b604051908082528060200260200182016040528015620003a7578160200160208202803683370190505b508051620003be91602291602090910190620006f5565b50620003cf6103e8614e2062000bb2565b6001600160401b03811115620003e957620003e96200075c565b60405190808252806020026020018201604052801562000413578160200160208202803683370190505b5080516200042a91602691602090910190620006f5565b506200043b6104576122b862000bb2565b6001600160401b038111156200045557620004556200075c565b6040519080825280602002602001820160405280156200047f578160200160208202803683370190505b5080516200049691602a91602090910190620006f5565b5050505050505062000bf1565b6002620004b1828262000801565b5050565b600480546001600160a01b038381166001600160a01b0319831681179093556040519116919082907f8be0079c531659141344cd1fd0a4f28419497f9722a3daafe3b4186f6b6457e090600090a35050565b6001600160a01b038216620005745760405162461bcd60e51b815260206004820152602c60248201527f5061796d656e7453706c69747465723a206163636f756e74206973207468652060448201526b7a65726f206164647265737360a01b6064820152608401620001ca565b60008111620005c65760405162461bcd60e51b815260206004820152601d60248201527f5061796d656e7453706c69747465723a207368617265732061726520300000006044820152606401620001ca565b6001600160a01b03821660009081526007602052604090205415620006425760405162461bcd60e51b815260206004820152602b60248201527f5061796d656e7453706c69747465723a206163636f756e7420616c726561647960448201526a206861732073686172657360a81b6064820152608401620001ca565b60098054600181019091557f6e1540171b6c0c960b71a7020d9f60077f6af931a8bbf590da0223dacf75c7af0180546001600160a01b0319166001600160a01b0384169081179091556000908152600760205260409020819055600554620006ac90829062000bd5565b600555604080516001600160a01b0384168152602081018390527f40c340f65e17194d14ddddb073d3c9f888e3cb52b5aae0c6c7706b4fbc905fac910160405180910390a15050565b82805482825590600052602060002090810192821562000733579160200282015b828111156200073357825182559160200191906001019062000716565b506200074192915062000745565b5090565b5b8082111562000741576000815560010162000746565b634e487b7160e01b600052604160045260246000fd5b600181811c908216806200078757607f821691505b602082108103620007a857634e487b7160e01b600052602260045260246000fd5b50919050565b601f821115620007fc57600081815260208120601f850160051c81016020861015620007d75750805b601f850160051c820191505b81811015620007f857828155600101620007e3565b5050505b505050565b81516001600160401b038111156200081d576200081d6200075c565b62000835816200082e845462000772565b84620007ae565b602080601f8311600181146200086d5760008415620008545750858301515b600019600386901b1c1916600185901b178555620007f8565b600085815260208120601f198616915b828110156200089e578886015182559484019460019091019084016200087d565b5085821015620008bd5787850151600019600388901b60f8161c191681555b5050505050600190811b01905550565b604051601f8201601f191681016001600160401b0381118282101715620008f857620008f86200075c565b604052919050565b60006001600160401b038211156200091c576200091c6200075c565b5060051b60200190565b600082601f8301126200093857600080fd5b81516020620009516200094b8362000900565b620008cd565b82815260059290921b840181019181810190868411156200097157600080fd5b8286015b84811015620009a55780516001600160a01b0381168114620009975760008081fd5b835291830191830162000975565b509695505050505050565b600082601f830112620009c257600080fd5b81516020620009d56200094b8362000900565b82815260059290921b84018101918181019086841115620009f557600080fd5b8286015b84811015620009a55780518352918301918301620009f9565b600082601f83011262000a2457600080fd5b81516001600160401b0381111562000a405762000a406200075c565b602062000a56601f8301601f19168201620008cd565b828152858284870101111562000a6b57600080fd5b60005b8381101562000a8b57858101830151828201840152820162000a6e565b506000928101909101919091529392505050565b60008060008060008060c0878903121562000ab957600080fd5b86516001600160401b038082111562000ad157600080fd5b62000adf8a838b0162000926565b9750602089015191508082111562000af657600080fd5b62000b048a838b01620009b0565b9650604089015191508082111562000b1b57600080fd5b62000b298a838b0162000a12565b9550606089015191508082111562000b4057600080fd5b5062000b4f89828a0162000a12565b9350506080870151915060a087015190509295509295509295565b634e487b7160e01b600052603260045260246000fd5b634e487b7160e01b600052601160045260246000fd5b60006001820162000bab5762000bab62000b80565b5060010190565b60008262000bd057634e487b7160e01b600052601260045260246000fd5b500490565b8082018082111562000beb5762000beb62000b80565b92915050565b615fbd8062000c016000396000f3fe6080604052600436106105255760003560e01c806382a31693116102a2578063c0fd97ff11610165578063da8ab071116100cc578063e67ff55211610085578063e67ff55214610f3d578063e985e9c514610f54578063f242432a14610f9d578063f2fde38b14610fbd578063fb891dc514610fdd578063fe47d7f214610ff057600080fd5b8063da8ab07114610eab578063db9a850914610ec0578063defb1d4514610ed6578063df81b1dc14610ef5578063df8c6cd314610f08578063e33b7de314610f2857600080fd5b8063cd0b99cd1161011e578063cd0b99cd146107fc578063ce7c2ac214610de9578063cea8f9c014610e1f578063cffbd26f14610e3f578063d79779b214610e75578063d7abf1861461072057600080fd5b8063c0fd97ff14610d5c578063c45ac05014610d7c578063c6358ecd14610d9c578063c7a3b01314610dbc578063c82190c414610dd2578063c9b4f6ef1461082857600080fd5b80639daf187211610209578063b0bd6fe1116101c2578063b0bd6fe114610caa578063b1feb18d14610cc0578063b247796414610cda578063b861639414610cf9578063bca66b8514610d0f578063bd85b03914610d2f57600080fd5b80639daf187214610c145780639e26975714610c29578063a22cb46514610c40578063a3f8eace14610c60578063a57674e714610c80578063a882fea414610c9557600080fd5b80638da5cb5b1161025b5780638da5cb5b14610b9057806394a271fd14610bae5780639554567e14610bb657806395d89b4114610bc957806397c66270146107fc5780639852595c14610bde57600080fd5b806382a3169314610ad7578063833bc78814610aed5780638515c7ac14610b0d5780638913fbe014610b2d5780638b7afe2e14610b435780638b83209b14610b5857600080fd5b8063395dcb64116103ea5780635b8ad42911610351578063715018a61161030a578063715018a614610a3d57806375d909ef14610a525780637862ed6414610a685780637a1d48f414610a885780637d46d87014610aa85780637de1c2be14610abd57600080fd5b80635b8ad429146109a55780635de701f9146109ba5780636797fdda146109db5780636bfcf578146109fb5780636c5959e314610a105780636e27b97214610a2657600080fd5b806348b75044116103a357806348b75044146108e35780634a098124146109035780634e1273f4146109195780634f558e791461094657806351830227146109755780635308ca781461098f57600080fd5b8063395dcb641461083d5780633a98ef39146108535780633ccfd60b14610868578063406072a914610870578063438d4bc1146108b657806344c3c7b9146108cc57600080fd5b8063191655871161048e5780632d187ef7116104475780632d187ef7146107b15780632d23bf5a146107c65780632eb2c2d6146107dc5780632fcf9d4b146107fc5780632fef457914610812578063380b5f751461082857600080fd5b8063191655871461070057806319f32a501461072057806320c6974e1461074757806328b33aae146107615780632a37e4af1461077b5780632b2be7f51461079257600080fd5b8063070ccbde116104e0578063070ccbde146106445780630e89341c1461065a578063108241181461067a57806310dd92471461069c57806311e6fb63146106b25780631902aa4a146106c857600080fd5b806201d05b14610573578062fdd58e1461059c57806301553208146105bc57806301ffc9a7146105ec57806304bf41d81461060c57806306fdde031461062257600080fd5b3661056e577f6ef95f06320e7a25a04a175ca677b7052bdd97131872c2192525a629f51be77033604080516001600160a01b0390921682523460208301520160405180910390a1005b600080fd5b34801561057f57600080fd5b5061058960205481565b6040519081526020015b60405180910390f35b3480156105a857600080fd5b506105896105b73660046150a1565b611020565b3480156105c857600080fd5b50602b546105dc9062010000900460ff1681565b6040519015158152602001610593565b3480156105f857600080fd5b506105dc6106073660046150e3565b6110b9565b34801561061857600080fd5b50610589614e2181565b34801561062e57600080fd5b50610637611109565b6040516105939190615150565b34801561065057600080fd5b50610589602c5481565b34801561066657600080fd5b50610637610675366004615163565b611197565b34801561068657600080fd5b5061069a610695366004615192565b611263565b005b3480156106a857600080fd5b5061058960145481565b3480156106be57600080fd5b5061058960135481565b3480156106d457600080fd5b50601a546106e8906001600160401b031681565b6040516001600160401b039091168152602001610593565b34801561070c57600080fd5b5061069a61071b3660046151ad565b6112bd565b34801561072c57600080fd5b50610735600381565b60405160ff9091168152602001610593565b34801561075357600080fd5b506016546107359060ff1681565b34801561076d57600080fd5b50601e546107359060ff1681565b34801561078757600080fd5b506018546105899081565b34801561079e57600080fd5b50601e5461073590610100900460ff1681565b3480156107bd57600080fd5b5061069a6113a4565b3480156107d257600080fd5b5061058960155481565b3480156107e857600080fd5b5061069a6107f736600461531d565b6113cb565b34801561080857600080fd5b50610589614e2081565b34801561081e57600080fd5b5061058960215481565b34801561083457600080fd5b50610735606481565b34801561084957600080fd5b506105896103e881565b34801561085f57600080fd5b50600554610589565b61069a611417565b34801561087c57600080fd5b5061058961088b3660046153ca565b6001600160a01b039182166000908152600b6020908152604080832093909416825291909152205490565b3480156108c257600080fd5b5061058960275481565b3480156108d857600080fd5b50610589620222e081565b3480156108ef57600080fd5b5061069a6108fe3660046153ca565b61144e565b34801561090f57600080fd5b5061058960245481565b34801561092557600080fd5b50610939610934366004615403565b61155f565b604051610593919061550a565b34801561095257600080fd5b506105dc610961366004615163565b600090815260036020526040902054151590565b34801561098157600080fd5b506011546105dc9060ff1681565b34801561099b57600080fd5b5061058961271081565b3480156109b157600080fd5b5061069a611688565b3480156109c657600080fd5b50602b546105dc906301000000900460ff1681565b3480156109e757600080fd5b5061069a6109f636600461551d565b6116a4565b348015610a0757600080fd5b5061069a6116d2565b348015610a1c57600080fd5b50610589601f5481565b348015610a3257600080fd5b506017546105899081565b348015610a4957600080fd5b5061069a6116fb565b348015610a5e57600080fd5b5061058960235481565b348015610a7457600080fd5b5061069a610a83366004615163565b61170f565b348015610a9457600080fd5b5061069a610aa3366004615163565b61171c565b348015610ab457600080fd5b5061069a611729565b348015610ac957600080fd5b50602b546107359060ff1681565b348015610ae357600080fd5b506105896122b881565b348015610af957600080fd5b50610637610b08366004615549565b611b40565b348015610b1957600080fd5b5061069a610b283660046155a1565b611b74565b348015610b3957600080fd5b5061058960295481565b348015610b4f57600080fd5b50610589611bdc565b348015610b6457600080fd5b50610b78610b73366004615163565b611bec565b6040516001600160a01b039091168152602001610593565b348015610b9c57600080fd5b506004546001600160a01b0316610b78565b610589611c1c565b61069a610bc43660046155cb565b611c2b565b348015610bd557600080fd5b50610637611dca565b348015610bea57600080fd5b50610589610bf93660046151ad565b6001600160a01b031660009081526008602052604090205490565b348015610c2057600080fd5b50610735602381565b348015610c3557600080fd5b506019546105899081565b348015610c4c57600080fd5b5061069a610c5b36600461567f565b611dd7565b348015610c6c57600080fd5b50610589610c7b3660046151ad565b611de2565b348015610c8c57600080fd5b5061069a611e2a565b348015610ca157600080fd5b5061069a6121ac565b348015610cb657600080fd5b50610589602d5481565b348015610ccc57600080fd5b506031546105dc9060ff1681565b348015610ce657600080fd5b506031546105dc90610100900460ff1681565b348015610d0557600080fd5b5061058960255481565b348015610d1b57600080fd5b5061069a610d2a3660046156ad565b6125ba565b348015610d3b57600080fd5b50610589610d4a366004615163565b60009081526003602052604090205490565b348015610d6857600080fd5b5061069a610d77366004615163565b61261f565b348015610d8857600080fd5b50610589610d973660046153ca565b612643565b348015610da857600080fd5b5061069a610db7366004615163565b61270e565b348015610dc857600080fd5b5061058961045781565b348015610dde57600080fd5b506105896202710181565b348015610df557600080fd5b50610589610e043660046151ad565b6001600160a01b031660009081526007602052604090205490565b348015610e2b57600080fd5b506031546105dc9062010000900460ff1681565b348015610e4b57600080fd5b50610b78610e5a366004615163565b601c602052600090815260409020546001600160a01b031681565b348015610e8157600080fd5b50610589610e903660046151ad565b6001600160a01b03166000908152600a602052604090205490565b348015610eb757600080fd5b5061069a61271b565b348015610ecc57600080fd5b5061058960285481565b348015610ee257600080fd5b50602b546105dc90610100900460ff1681565b61069a610f033660046156d2565b612740565b348015610f1457600080fd5b50610589610f23366004615163565b612819565b348015610f3457600080fd5b50600654610589565b348015610f4957600080fd5b506105896202bf2181565b348015610f6057600080fd5b506105dc610f6f3660046153ca565b6001600160a01b03918216600090815260016020908152604080832093909416825291909152205460ff1690565b348015610fa957600080fd5b5061069a610fb8366004615717565b61283a565b348015610fc957600080fd5b5061069a610fd83660046151ad565b61287f565b61069a610feb3660046155cb565b6128f5565b348015610ffc57600080fd5b5061073561100b3660046151ad565b601d6020526000908152604090205460ff1681565b60006001600160a01b0383166110905760405162461bcd60e51b815260206004820152602a60248201527f455243313135353a2061646472657373207a65726f206973206e6f742061207660448201526930b634b21037bbb732b960b11b60648201526084015b60405180910390fd5b506000818152602081815260408083206001600160a01b03861684529091529020545b92915050565b60006001600160e01b03198216636cdb3d1360e11b14806110ea57506001600160e01b031982166303a24d0760e21b145b806110b357506301ffc9a760e01b6001600160e01b03198316146110b3565b600d80546111169061577f565b80601f01602080910402602001604051908101604052809291908181526020018280546111429061577f565b801561118f5780601f106111645761010080835404028352916020019161118f565b820191906000526020600020905b81548152906001019060200180831161117257829003601f168201915b505050505081565b60115460609060ff16151560000361123b57600f80546111b69061577f565b80601f01602080910402602001604051908101604052809291908181526020018280546111e29061577f565b801561122f5780601f106112045761010080835404028352916020019161122f565b820191906000526020600020905b81548152906001019060200180831161121257829003601f168201915b50505050509050919050565b601060405160200161124d91906157b9565b6040516020818303038152906040529050919050565b61126b612a42565b60ff811660078111156112a65760405162461bcd60e51b815260206004820152600360248201526232991960e91b6044820152606401611087565b50602b805460ff191660ff92909216919091179055565b6001600160a01b0381166000908152600760205260409020546112f25760405162461bcd60e51b815260040161108790615878565b60006112fd82611de2565b90508060000361131f5760405162461bcd60e51b8152600401611087906158be565b8060066000828254611331919061591f565b90915550506001600160a01b038216600090815260086020526040902080548201905561135e8282612a9c565b604080516001600160a01b0384168152602081018390527fdf20fd1e76bc69d672e4814fafb2c449bba3a5369d8359adf9e05e6fde87b056910160405180910390a15050565b6113ac612a42565b602b805462ff0000198116620100009182900460ff1615909102179055565b6001600160a01b0385163314806113e757506113e78533610f6f565b6114035760405162461bcd60e51b815260040161108790615932565b6114108585858585612bba565b5050505050565b61141f612a42565b60405133904780156108fc02916000818181858888f1935050505015801561144b573d6000803e3d6000fd5b50565b6001600160a01b0381166000908152600760205260409020546114835760405162461bcd60e51b815260040161108790615878565b600061148f8383612643565b9050806000036114b15760405162461bcd60e51b8152600401611087906158be565b6001600160a01b0383166000908152600a6020526040812080548392906114d990849061591f565b90915550506001600160a01b038084166000908152600b60209081526040808320938616835292905220805482019055611514838383612d5c565b604080516001600160a01b038481168252602082018490528516917f3be5b7a71e84ed12875d241991c70855ac5817d847039e17a9d895c1ceb0f18a910160405180910390a2505050565b606081518351146115c45760405162461bcd60e51b815260206004820152602960248201527f455243313135353a206163636f756e747320616e6420696473206c656e677468604482015268040dad2e6dac2e8c6d60bb1b6064820152608401611087565b600083516001600160401b038111156115df576115df6151ca565b604051908082528060200260200182016040528015611608578160200160208202803683370190505b50905060005b84518110156116805761165385828151811061162c5761162c615980565b602002602001015185838151811061164657611646615980565b6020026020010151611020565b82828151811061166557611665615980565b602090810291909101015261167981615996565b905061160e565b509392505050565b611690612a42565b6011805460ff19811660ff90911615179055565b6116ac612a42565b8060ff166002036116bd57602d8290555b8060ff166001036116ce57602c8290555b5050565b6116da612a42565b602b805463ff00000019811663010000009182900460ff1615909102179055565b611703612a42565b61170d6000612dae565b565b611717612a42565b602355565b611724612a42565b601f55565b3332146117485760405162461bcd60e51b8152600401611087906159af565b611750612a42565b602b546301000000900460ff1661178e5760405162461bcd60e51b8152602060048201526002602482015261329b60f11b6044820152606401611087565b60315460ff1615156001146117cb5760405162461bcd60e51b815260206004820152600360248201526232989960e91b6044820152606401611087565b603154610100900460ff16156118095760405162461bcd60e51b815260206004820152600360248201526265313360e81b6044820152606401611087565b611817601980546001019055565b600061182260195490565b90506000611831603254612e00565b6034805460ff191660ff93909316929092179091556030549091505b611859836103e86159cb565b811015611b2c57603454600090819060ff166001036119545761271061188284620293b86159cb565b61188c91906159f8565b60165462ffffff919091169060ff16614e206118ab8762027100615a0c565b62ffffff166118ba919061591f565b6118c590600161591f565b6118cf919061591f565b6118d9919061591f565b90506127106118eb84620293b86159cb565b6118f690600161591f565b61190091906159f8565b60165462ffffff919091169060ff16614e2061191f8762027100615a0c565b62ffffff1661192e919061591f565b61193990600161591f565b611943919061591f565b61194d919061591f565b9150611a32565b61271061196484620293b86159cb565b61196e91906159f8565b60165462ffffff919091169060ff16614e2061198d8762027100615a2f565b62ffffff1661199c919061591f565b6119a790600161591f565b6119b1919061591f565b6119bb919061591f565b90506127106119cd84620293b86159cb565b6119d890600161591f565b6119e291906159f8565b60165462ffffff919091169060ff16614e20611a018762027100615a2f565b62ffffff16611a10919061591f565b611a1b90600161591f565b611a25919061591f565b611a2f919061591f565b91505b60006122b8614e20611a47620222e08261591f565b611a51919061591f565b611a5b919061591f565b9050808362ffffff161180611a745750808262ffffff16115b6031805461ff0019166101009215158302179081905560405160ff929091049190911615158152600080516020615f688339815191529060200160405180910390a1603154610100900460ff1615611ace57505050611b2c565b601654601554611ae5918491849160ff1690612eb3565b60155560315460405161010090910460ff1615158152600080516020615f688339815191529060200160405180910390a15050508080611b2490615996565b91505061184d565b50611b39826103e86159cb565b6030555050565b606082611b4c83612fc4565b604051602001611b5d929190615a4b565b604051602081830303815290604052905092915050565b611b7c612a42565b8160ff168160ff161115611bb85760405162461bcd60e51b815260206004820152600360248201526265323360e81b6044820152606401611087565b601e805460ff9283166101000261ffff199091169290931691909117919091179055565b6000611be6612a42565b50475b90565b600060098281548110611c0157611c01615980565b6000918252602090912001546001600160a01b031692915050565b6000611c26612a42565b503490565b84336001600160a01b03821614611c545760405162461bcd60e51b815260040161108790615a87565b333214611c735760405162461bcd60e51b8152600401611087906159af565b602b5460ff16600003611c985760405162461bcd60e51b815260040161108790615aa3565b611ca0613056565b82826001611d2a83838080602002602001604051908101604052809392919081815260200183836020028082843760009201919091525050505060ff8316600114611ced57602d54611cf1565b602c545b6040516bffffffffffffffffffffffff193360601b166020820152603401604051602081830303815290604052805190602001206130af565b1515600114611d615760405162461bcd60e51b8152602060048201526003602482015262194c8d60ea1b6044820152606401611087565b60008860ff1611611d845760405162461bcd60e51b815260040161108790615ac0565b33611da15760405162461bcd60e51b815260040161108790615add565b8660ff16600103611db557611db5886130c5565b505050611dc26001600c55565b505050505050565b600e80546111169061577f565b6116ce3383836135be565b600080611dee60065490565b611df8904761591f565b9050611e238382611e1e866001600160a01b031660009081526008602052604090205490565b61369e565b9392505050565b333214611e495760405162461bcd60e51b8152600401611087906159af565b611e51612a42565b602b54610100900460ff16611e8d5760405162461bcd60e51b8152602060048201526002602482015261653560f01b6044820152606401611087565b60315460ff1615611ec55760405162461bcd60e51b8152602060048201526002602482015261653960f01b6044820152606401611087565b60165460ff16601203611ef157611edc60116136dc565b6016805460ff191660ff929092169190911790555b611eff601780546001019055565b6000611f0a60175490565b602e549091506000905b611f20836103e86159cb565b811015612198576000612710611f3983620293b86159cb565b611f4391906159f8565b60165462ffffff919091169060ff16611f5f614e20600161591f565b611f69919061591f565b611f73919061591f565b90506000611f86620222e0614e2061591f565b90506000612710611f9a85620293b86159cb565b611fa590600161591f565b611faf91906159f8565b60165462ffffff919091169060ff16611fcb614e20600161591f565b611fd5919061591f565b611fdf919061591f565b9050818162ffffff161180611ff85750818362ffffff16115b6031805460ff1916911515918217905560405160ff90911615158152600080516020615f688339815191529060200160405180910390a160315460ff161561213c5762ffffff8116603281905560009061205190612e00565b6034805460ff90931660ff199093168317905591506001036120d25761207d61271063bf4380416159f8565b60165462ffffff919091169060ff16614e2061209c84620222e0615a0c565b62ffffff166120ab919061591f565b6120b690600161591f565b6120c0919061591f565b6120ca919061591f565b603355612133565b6120e261271063bf4380416159f8565b60165462ffffff919091169060ff16614e2061210184620222e0615a2f565b62ffffff16612110919061591f565b61211b90600161591f565b612125919061591f565b61212f919061591f565b6033555b50505050612198565b601654601354612153918591859160ff1690612eb3565b60135560315460405160ff90911615158152600080516020615f688339815191529060200160405180910390a15090925081905061219081615996565b915050611f14565b506121a5826103e86159cb565b602e555050565b3332146121cb5760405162461bcd60e51b8152600401611087906159af565b6121d3612a42565b602b5462010000900460ff166122105760405162461bcd60e51b8152602060048201526002602482015261653760f01b6044820152606401611087565b60315460ff16151560011461224d5760405162461bcd60e51b815260206004820152600360248201526206531360ec1b6044820152606401611087565b60315462010000900460ff161561228c5760405162461bcd60e51b815260206004820152600360248201526265313160e81b6044820152606401611087565b61229a601880546001019055565b60006122a560185490565b905060006122b4603254612e00565b6034805460ff191660ff9390931692909217909155602f549091505b6122dc836103e86159cb565b8110156125a657603454600090819060ff166001036123d75761271061230584620293b86159cb565b61230f91906159f8565b60165462ffffff919091169060ff16614e2061232e87620222e0615a0c565b62ffffff1661233d919061591f565b61234890600161591f565b612352919061591f565b61235c919061591f565b915061271061236e84620293b86159cb565b61237990600161591f565b61238391906159f8565b60165462ffffff919091169060ff16614e206123a287620222e0615a0c565b62ffffff166123b1919061591f565b6123bc90600161591f565b6123c6919061591f565b6123d0919061591f565b90506124b5565b6127106123e784620293b86159cb565b6123f191906159f8565b60165462ffffff919091169060ff16614e2061241087620222e0615a2f565b62ffffff1661241f919061591f565b61242a90600161591f565b612434919061591f565b61243e919061591f565b915061271061245084620293b86159cb565b61245b90600161591f565b61246591906159f8565b60165462ffffff919091169060ff16614e2061248487620222e0615a2f565b62ffffff16612493919061591f565b61249e90600161591f565b6124a8919061591f565b6124b2919061591f565b90505b6000614e206124c7620222e08261591f565b6124d1919061591f565b9050808262ffffff1611806124ea5750808362ffffff16115b6031805462ff00001916620100009215158302179081905560405160ff929091049190911615158152600080516020615f688339815191529060200160405180910390a160315462010000900460ff1615612547575050506125a6565b60165460145461255e918591849160ff1690612eb3565b6014556031546040516201000090910460ff1615158152600080516020615f688339815191529060200160405180910390a1505050808061259e90615996565b9150506122d0565b506125b3826103e86159cb565b602f555050565b6125c2612a42565b6000828152600360205260409020546126025760405162461bcd60e51b8152602060048201526002602482015261329960f11b6044820152606401611087565b6116ce33828460016040518060200160405280600081525061283a565b612627612a42565b61144b33826001604051806020016040528060008152506136f5565b6001600160a01b0382166000908152600a602052604081205481906040516370a0823160e01b81523060048201526001600160a01b038616906370a0823190602401602060405180830381865afa1580156126a2573d6000803e3d6000fd5b505050506040513d601f19601f820116820180604052508101906126c69190615afa565b6126d0919061591f565b6001600160a01b038086166000908152600b6020908152604080832093881683529290522054909150612706908490839061369e565b949350505050565b612716612a42565b602755565b612723612a42565b602b805461ff001981166101009182900460ff1615909102179055565b82336001600160a01b038216146127695760405162461bcd60e51b815260040161108790615a87565b3332146127885760405162461bcd60e51b8152600401611087906159af565b602b5460ff166000036127ad5760405162461bcd60e51b815260040161108790615aa3565b6127b5613056565b60008360ff16116127d85760405162461bcd60e51b815260040161108790615ac0565b336127f55760405162461bcd60e51b815260040161108790615add565b8160ff1660040361280957612809836137de565b6128136001600c55565b50505050565b602a818154811061282957600080fd5b600091825260209091200154905081565b6001600160a01b03851633148061285657506128568533610f6f565b6128725760405162461bcd60e51b815260040161108790615932565b6114108585858585613d2d565b612887612a42565b6001600160a01b0381166128ec5760405162461bcd60e51b815260206004820152602660248201527f4f776e61626c653a206e6577206f776e657220697320746865207a65726f206160448201526564647265737360d01b6064820152608401611087565b61144b81612dae565b84336001600160a01b0382161461291e5760405162461bcd60e51b815260040161108790615a87565b33321461293d5760405162461bcd60e51b8152600401611087906159af565b602b5460ff166000036129625760405162461bcd60e51b815260040161108790615aa3565b61296a613056565b828260026129b783838080602002602001604051908101604052809392919081815260200183836020028082843760009201919091525050505060ff8316600114611ced57602d54611cf1565b15156001146129ee5760405162461bcd60e51b8152602060048201526003602482015262194c8d60ea1b6044820152606401611087565b60008860ff1611612a115760405162461bcd60e51b815260040161108790615ac0565b33612a2e5760405162461bcd60e51b815260040161108790615add565b8660ff16600203611db557611db588613e5a565b6004546001600160a01b0316331461170d5760405162461bcd60e51b815260206004820181905260248201527f4f776e61626c653a2063616c6c6572206973206e6f7420746865206f776e65726044820152606401611087565b80471015612aec5760405162461bcd60e51b815260206004820152601d60248201527f416464726573733a20696e73756666696369656e742062616c616e63650000006044820152606401611087565b6000826001600160a01b03168260405160006040518083038185875af1925050503d8060008114612b39576040519150601f19603f3d011682016040523d82523d6000602084013e612b3e565b606091505b5050905080612bb55760405162461bcd60e51b815260206004820152603a60248201527f416464726573733a20756e61626c6520746f2073656e642076616c75652c207260448201527f6563697069656e74206d617920686176652072657665727465640000000000006064820152608401611087565b505050565b8151835114612bdb5760405162461bcd60e51b815260040161108790615b13565b6001600160a01b038416612c015760405162461bcd60e51b815260040161108790615b5b565b33612c108187878787876142db565b60005b8451811015612cf6576000858281518110612c3057612c30615980565b602002602001015190506000858381518110612c4e57612c4e615980565b602090810291909101810151600084815280835260408082206001600160a01b038e168352909352919091205490915081811015612c9e5760405162461bcd60e51b815260040161108790615ba0565b6000838152602081815260408083206001600160a01b038e8116855292528083208585039055908b16825281208054849290612cdb90849061591f565b9250508190555050505080612cef90615996565b9050612c13565b50846001600160a01b0316866001600160a01b0316826001600160a01b03167f4a39dc06d4c0dbc64b70af90fd698a233a518aa5d07e595d983b8c0526c8f7fb8787604051612d46929190615bea565b60405180910390a4611dc2818787878787614454565b604080516001600160a01b038416602482015260448082018490528251808303909101815260649091019091526020810180516001600160e01b031663a9059cbb60e01b179052612bb59084906145af565b600480546001600160a01b038381166001600160a01b0319831681179093556040519116919082907f8be0079c531659141344cd1fd0a4f28419497f9722a3daafe3b4186f6b6457e090600090a35050565b601654600090819060ff16612e1a614e20620222e061591f565b612e2590600161591f565b612e2f919061591f565b62ffffff168310612e7a5760165460019060ff16612e52614e20620222e061591f565b612e5d90600161591f565b612e67919061591f565b612e719085615a2f565b91509150915091565b601654600090849060ff16612e94614e20620222e061591f565b612e9f90600161591f565b612ea9919061591f565b612e719190615a2f565b60007f447b8744ce19b4ec182a865f10546affad5cb63bee7fbf1f4733554d3644a8d085612ee460ff861687615c18565b6040805162ffffff909316835260208301919091520160405180910390a16000612f128662ffffff16614681565b90506001600160a01b03811615612fba576000612f2d6146e6565b9050612f4b33826001604051806020016040528060008152506136f5565b612f6833838360016040518060200160405280600081525061283a565b612f7360018561591f565b9350816001600160a01b03167ffbc825a9dbec6ba579c678650f97fd1adaab5d895472fb72d1be4a0982ed8c1982604051612fb091815260200190565b60405180910390a2505b5090949350505050565b60606000612fd1836149da565b60010190506000816001600160401b03811115612ff057612ff06151ca565b6040519080825280601f01601f19166020018201604052801561301a576020820181803683370190505b5090508181016020015b600019016f181899199a1a9b1b9c1cb0b131b232b360811b600a86061a8153600a850494508461302457509392505050565b6002600c54036130a85760405162461bcd60e51b815260206004820152601f60248201527f5265656e7472616e637947756172643a207265656e7472616e742063616c6c006044820152606401611087565b6002600c55565b6000826130bc8584614ab2565b14949350505050565b602b546000906001908116146130ed5760405162461bcd60e51b815260040161108790615c2b565b336000908152601d6020526040902054600360ff90911611156131225760405162461bcd60e51b815260040161108790615c48565b600360ff831611156131465760405162461bcd60e51b815260040161108790615c65565b336000908152601d602052604090205460039061316790849060ff16615c82565b60ff16111561319557336000908152601d602052604090205461318e9060ff166003615c9b565b9150600190505b600080600080613202866202bf216029546122b8610457602a8054806020026020016040519081016040528092919081815260200182805480156131f857602002820191906000526020600020905b8154815260200190600101908083116131e4575b5050505050614af7565b93509350935093508560ff168360ff161461321c57600194505b602754349061322f9060ff8616906159cb565b81101561324e5760405162461bcd60e51b815260040161108790615cb4565b6004546001600160a01b03166001600160a01b03166108fc8560ff1660275461327791906159cb565b6040518115909202916000818181858888f1935050505015801561329f573d6000803e3d6000fd5b5060008460ff166001600160401b038111156132bd576132bd6151ca565b6040519080825280602002602001820160405280156132e6578160200160208202803683370190505b50905060008560ff166001600160401b03811115613306576133066151ca565b60405190808252806020026020018201604052801561332f578160200160208202803683370190505b50905060005b8660ff168110156133995761334a818961591f565b83828151811061335c5761335c615980565b602002602001018181525050600182828151811061337c5761337c615980565b60209081029190910101528061339181615996565b915050613335565b506133b533838360405180602001604052806000815250614c92565b60005b8660ff168110156134275733601c60008584815181106133da576133da615980565b6020026020010151815260200190815260200160002060006101000a8154816001600160a01b0302191690836001600160a01b03160217905550808061341f90615996565b9150506133b8565b508151336000908152601d6020526040902054613447919060ff1661591f565b336000908152601d60205260409020805460ff191660ff9283161790556029869055602a805488831692871690811061348257613482615980565b9060005260206000200154613497919061591f565b602a8560ff16815481106134ad576134ad615980565b90600052602060002001819055508560ff16602860008282546134d0919061591f565b90915550506028546122b8116134f457602b805463ff000000191663010000001790555b336000818152601d60205260409020547fdf6bd66365a8c4ede51660159bba6757ea60b0815714ebd8534054d929f3337f9060ff168461353560018b615c9b565b60ff168151811061354857613548615980565b602002602001015160405161356c92919060ff929092168252602082015260400190565b60405180910390a287156135b35760405160ff8716815233907faf3c443bb05b163e7d42de9f4b11bdbfa307cad571a1ae5013e5e2ee92e66ed29060200160405180910390a25b505050505050505050565b816001600160a01b0316836001600160a01b0316036136315760405162461bcd60e51b815260206004820152602960248201527f455243313135353a2073657474696e6720617070726f76616c20737461747573604482015268103337b91039b2b63360b91b6064820152608401611087565b6001600160a01b03838116600081815260016020908152604080832094871680845294825291829020805460ff191686151590811790915591519182527f17307eab39ab6107e8899845ad3d59bd9653f200f220920489ca2b5937696c31910160405180910390a3505050565b6005546001600160a01b038416600090815260076020526040812054909183916136c890866159cb565b6136d291906159f8565b6127069190615c18565b6000816136ea600143615c18565b6110b3919040615cd1565b6001600160a01b03841661371b5760405162461bcd60e51b815260040161108790615ce5565b33600061372785614dec565b9050600061373485614dec565b9050613745836000898585896142db565b6000868152602081815260408083206001600160a01b038b1684529091528120805487929061377590849061591f565b909155505060408051878152602081018790526001600160a01b03808a1692600092918716917fc3d58168c5ae7397731d063d5bbf3d657854427343f4c083240f7aacaa2d0f62910160405180910390a46137d583600089898989614e37565b50505050505050565b602b546000906004908116146138065760405162461bcd60e51b815260040161108790615c2b565b336000908152601d6020526040902054606460ff909116111561383b5760405162461bcd60e51b815260040161108790615c48565b602360ff8316111561385f5760405162461bcd60e51b815260040161108790615c65565b336000908152601d602052604090205460649061388090849060ff16615c82565b60ff1611156138ae57336000908152601d60205260409020546138a79060ff166064615c9b565b9150600190505b60008060008061391986614e21602154620222e061271060228054806020026020016040519081016040528092919081815260200182805480156131f857602002820191906000526020600020908154815260200190600101908083116131e4575050505050614af7565b93509350935093508560ff168360ff161461393357600194505b601f54600560ff85161080159061394e5750600a8460ff1611155b15613975576005601f54600461396491906159cb565b61396e91906159f8565b905061399f565b600a8460ff16111561399f576005601f54600361399291906159cb565b61399c91906159f8565b90505b346139ad60ff8616836159cb565b8110156139cc5760405162461bcd60e51b815260040161108790615cb4565b6004546001600160a01b03166108fc6139e860ff8816856159cb565b6040518115909202916000818181858888f19350505050158015613a10573d6000803e3d6000fd5b5060008560ff166001600160401b03811115613a2e57613a2e6151ca565b604051908082528060200260200182016040528015613a57578160200160208202803683370190505b50905060008660ff166001600160401b03811115613a7757613a776151ca565b604051908082528060200260200182016040528015613aa0578160200160208202803683370190505b50905060005b8760ff16811015613b0a57613abb818a61591f565b838281518110613acd57613acd615980565b6020026020010181815250506001828281518110613aed57613aed615980565b602090810291909101015280613b0281615996565b915050613aa6565b50613b2633838360405180602001604052806000815250614c92565b60005b8760ff16811015613b985733601c6000858481518110613b4b57613b4b615980565b6020026020010151815260200190815260200160002060006101000a8154816001600160a01b0302191690836001600160a01b031602179055508080613b9090615996565b915050613b29565b508151336000908152601d6020526040902054613bb8919060ff1661591f565b336000908152601d60205260409020805460ff191660ff928316179055602187905560228054898316928816908110613bf357613bf3615980565b9060005260206000200154613c08919061591f565b60228660ff1681548110613c1e57613c1e615980565b90600052602060002001819055508660ff1660206000828254613c41919061591f565b9091555050602054620222e011613c6257602b805461ff0019166101001790555b336000818152601d60205260409020547fdf6bd66365a8c4ede51660159bba6757ea60b0815714ebd8534054d929f3337f9060ff1684613ca360018c615c9b565b60ff1681518110613cb657613cb6615980565b6020026020010151604051613cda92919060ff929092168252602082015260400190565b60405180910390a28815613d215760405160ff8816815233907faf3c443bb05b163e7d42de9f4b11bdbfa307cad571a1ae5013e5e2ee92e66ed29060200160405180910390a25b50505050505050505050565b6001600160a01b038416613d535760405162461bcd60e51b815260040161108790615b5b565b336000613d5f85614dec565b90506000613d6c85614dec565b9050613d7c8389898585896142db565b6000868152602081815260408083206001600160a01b038c16845290915290205485811015613dbd5760405162461bcd60e51b815260040161108790615ba0565b6000878152602081815260408083206001600160a01b038d8116855292528083208985039055908a16825281208054889290613dfa90849061591f565b909155505060408051888152602081018890526001600160a01b03808b16928c821692918816917fc3d58168c5ae7397731d063d5bbf3d657854427343f4c083240f7aacaa2d0f62910160405180910390a46135b3848a8a8a8a8a614e37565b602b54600090600290811614613e825760405162461bcd60e51b815260040161108790615c2b565b601e54336000908152601d602052604090205460ff91821691161115613eba5760405162461bcd60e51b815260040161108790615c48565b601e5460ff61010090910481169083161115613ee85760405162461bcd60e51b815260040161108790615c65565b601e54336000908152601d602052604090205460ff91821691613f0d91859116615c82565b60ff161115613f4057336000908152601d6020526040902054601e54613f399160ff9081169116615c9b565b9150600190505b600080600080613fab8662027101602554614e206103e860268054806020026020016040519081016040528092919081815260200182805480156131f857602002820191906000526020600020908154815260200190600101908083116131e4575050505050614af7565b93509350935093508560ff168360ff1614613fc557600194505b6023543490613fd89060ff8616906159cb565b811015613ff75760405162461bcd60e51b815260040161108790615cb4565b6004546001600160a01b03166001600160a01b03166108fc8560ff1660235461402091906159cb565b6040518115909202916000818181858888f19350505050158015614048573d6000803e3d6000fd5b5060008460ff166001600160401b03811115614066576140666151ca565b60405190808252806020026020018201604052801561408f578160200160208202803683370190505b50905060008560ff166001600160401b038111156140af576140af6151ca565b6040519080825280602002602001820160405280156140d8578160200160208202803683370190505b50905060005b8660ff16811015614142576140f3818961591f565b83828151811061410557614105615980565b602002602001018181525050600182828151811061412557614125615980565b60209081029190910101528061413a81615996565b9150506140de565b5061415e33838360405180602001604052806000815250614c92565b60005b8660ff168110156141d05733601c600085848151811061418357614183615980565b6020026020010151815260200190815260200160002060006101000a8154816001600160a01b0302191690836001600160a01b0316021790555080806141c890615996565b915050614161565b508151336000908152601d60205260409020546141f0919060ff1661591f565b336000908152601d60205260409020805460ff191660ff92831617905560258690556026805488831692871690811061422b5761422b615980565b9060005260206000200154614240919061591f565b60268560ff168154811061425657614256615980565b90600052602060002001819055508560ff1660246000828254614279919061591f565b9091555050602454614e20116134f457602b805462ff0000191662010000179055336000818152601d60205260409020547fdf6bd66365a8c4ede51660159bba6757ea60b0815714ebd8534054d929f3337f9060ff168461353560018b615c9b565b6001600160a01b0385166143625760005b83518110156143605782818151811061430757614307615980565b60200260200101516003600086848151811061432557614325615980565b60200260200101518152602001908152602001600020600082825461434a919061591f565b90915550614359905081615996565b90506142ec565b505b6001600160a01b038416611dc25760005b83518110156137d557600084828151811061439057614390615980565b6020026020010151905060008483815181106143ae576143ae615980565b60200260200101519050600060036000848152602001908152602001600020549050818110156144315760405162461bcd60e51b815260206004820152602860248201527f455243313135353a206275726e20616d6f756e74206578636565647320746f74604482015267616c537570706c7960c01b6064820152608401611087565b6000928352600360205260409092209103905561444d81615996565b9050614373565b6001600160a01b0384163b15611dc25760405163bc197c8160e01b81526001600160a01b0385169063bc197c81906144989089908990889088908890600401615d26565b6020604051808303816000875af19250505080156144d3575060408051601f3d908101601f191682019092526144d091810190615d84565b60015b61457f576144df615da1565b806308c379a00361451857506144f3615dbc565b806144fe575061451a565b8060405162461bcd60e51b81526004016110879190615150565b505b60405162461bcd60e51b815260206004820152603460248201527f455243313135353a207472616e7366657220746f206e6f6e2d455243313135356044820152732932b1b2b4bb32b91034b6b83632b6b2b73a32b960611b6064820152608401611087565b6001600160e01b0319811663bc197c8160e01b146137d55760405162461bcd60e51b815260040161108790615e45565b6000614604826040518060400160405280602081526020017f5361666545524332303a206c6f772d6c6576656c2063616c6c206661696c6564815250856001600160a01b0316614ef29092919063ffffffff16565b805190915015612bb557808060200190518101906146229190615e8d565b612bb55760405162461bcd60e51b815260206004820152602a60248201527f5361666545524332303a204552433230206f7065726174696f6e20646964206e6044820152691bdd081cdd58d8d9595960b21b6064820152608401611087565b600081815260036020526040812054151580156146bd57506000828152601c60205260408120546146bb906001600160a01b031684611020565b115b156146de57506000908152601c60205260409020546001600160a01b031690565b506000919050565b601a54600090614e206001600160401b039091161061472c5760405162461bcd60e51b81526020600482015260026024820152610ca760f31b6044820152606401611087565b601b5460009061473b906136dc565b905060005b601b5460ff90811690821610156147d057601b5461476090614e206159f8565b601b8360ff168154811061477657614776615980565b9060005260206000200154036147b957601b5461479590600190615c18565b8260ff16036147a757600091506147be565b816147b181615eaa565b9250506147be565b6147d0565b806147c881615eaa565b915050614740565b60006147de60026064615ec9565b60ff16601b8460ff16815481106147f7576147f7615980565b9060005260206000200154101561485f57614816606460ff85166159cb565b601b8460ff168154811061482c5761482c615980565b90600052602060002001546001614843919061591f565b61484e9060026159cb565b614858919061591f565b905061495d565b60ff831615801561489d575061487760026064615ec9565b60ff16601b8460ff168154811061489057614890615980565b9060005260206000200154145b156148f257601b8360ff16815481106148b8576148b8615980565b906000526020600020015460026148cf919061591f565b601b8460ff16815481106148e5576148e5615980565b6000918252602090912001555b614900606460ff85166159cb565b61490c60026064615ec9565b60ff16601b8560ff168154811061492557614925615980565b906000526020600020015461493a9190615c18565b6149459060026159cb565b61495090600161591f565b61495a919061591f565b90505b6001601b8460ff168154811061497557614975615980565b90600052602060002001600082825461498e919061591f565b9091555050601a80546001600160401b03169060006149ac83615eeb565b91906101000a8154816001600160401b0302191690836001600160401b031602179055505080935050505090565b60008072184f03e93ff9f4daa797ed6e38ed64bf6a1f0160401b8310614a195772184f03e93ff9f4daa797ed6e38ed64bf6a1f0160401b830492506040015b6d04ee2d6d415b85acef81000000008310614a45576d04ee2d6d415b85acef8100000000830492506020015b662386f26fc100008310614a6357662386f26fc10000830492506010015b6305f5e1008310614a7b576305f5e100830492506008015b6127108310614a8f57612710830492506004015b60648310614aa1576064830492506002015b600a83106110b35760010192915050565b600081815b845181101561168057614ae382868381518110614ad657614ad6615980565b6020026020010151614f01565b915080614aef81615996565b915050614ab7565b600080600080868810614b325760405162461bcd60e51b815260206004820152600360248201526206532360ec1b6044820152606401611087565b6000614b46614b41888a6159f8565b6136dc565b905060005b614b55888a6159f8565b8160ff1614614bd25787878360ff1681518110614b7457614b74615980565b602002602001015103614bbb576001614b8d898b6159f8565b614b979190615c18565b8260ff1603614ba95760009150614bc0565b81614bb381615eaa565b925050614bc0565b614bd2565b80614bca81615eaa565b915050614b4b565b6000614be18960ff85166159cb565b888460ff1681518110614bf657614bf6615980565b6020026020010151614c08919061591f565b9050888d60ff16898560ff1681518110614c2457614c24615980565b6020026020010151614c36919061591f565b1115614c6757878360ff1681518110614c5157614c51615980565b602002602001015189614c649190615c18565b9c505b614c748b60ff8f1661591f565b9a50614c808c8261591f565b9d9a9b50919998505050505050505050565b6001600160a01b038416614cb85760405162461bcd60e51b815260040161108790615ce5565b8151835114614cd95760405162461bcd60e51b815260040161108790615b13565b33614ce9816000878787876142db565b60005b8451811015614d8457838181518110614d0757614d07615980565b6020026020010151600080878481518110614d2457614d24615980565b602002602001015181526020019081526020016000206000886001600160a01b03166001600160a01b031681526020019081526020016000206000828254614d6c919061591f565b90915550819050614d7c81615996565b915050614cec565b50846001600160a01b031660006001600160a01b0316826001600160a01b03167f4a39dc06d4c0dbc64b70af90fd698a233a518aa5d07e595d983b8c0526c8f7fb8787604051614dd5929190615bea565b60405180910390a461141081600087878787614454565b60408051600180825281830190925260609160009190602080830190803683370190505090508281600081518110614e2657614e26615980565b602090810291909101015292915050565b6001600160a01b0384163b15611dc25760405163f23a6e6160e01b81526001600160a01b0385169063f23a6e6190614e7b9089908990889088908890600401615f11565b6020604051808303816000875af1925050508015614eb6575060408051601f3d908101601f19168201909252614eb391810190615d84565b60015b614ec2576144df615da1565b6001600160e01b0319811663f23a6e6160e01b146137d55760405162461bcd60e51b815260040161108790615e45565b60606127068484600085614f2d565b6000818310614f1d576000828152602084905260409020611e23565b5060009182526020526040902090565b606082471015614f8e5760405162461bcd60e51b815260206004820152602660248201527f416464726573733a20696e73756666696369656e742062616c616e636520666f6044820152651c8818d85b1b60d21b6064820152608401611087565b600080866001600160a01b03168587604051614faa9190615f4b565b60006040518083038185875af1925050503d8060008114614fe7576040519150601f19603f3d011682016040523d82523d6000602084013e614fec565b606091505b5091509150614ffd87838387615008565b979650505050505050565b60608315615077578251600003615070576001600160a01b0385163b6150705760405162461bcd60e51b815260206004820152601d60248201527f416464726573733a2063616c6c20746f206e6f6e2d636f6e74726163740000006044820152606401611087565b5081612706565b61270683838151156144fe5781518083602001fd5b6001600160a01b038116811461144b57600080fd5b600080604083850312156150b457600080fd5b82356150bf8161508c565b946020939093013593505050565b6001600160e01b03198116811461144b57600080fd5b6000602082840312156150f557600080fd5b8135611e23816150cd565b60005b8381101561511b578181015183820152602001615103565b50506000910152565b6000815180845261513c816020860160208601615100565b601f01601f19169290920160200192915050565b602081526000611e236020830184615124565b60006020828403121561517557600080fd5b5035919050565b803560ff8116811461518d57600080fd5b919050565b6000602082840312156151a457600080fd5b611e238261517c565b6000602082840312156151bf57600080fd5b8135611e238161508c565b634e487b7160e01b600052604160045260246000fd5b601f8201601f191681016001600160401b0381118282101715615205576152056151ca565b6040525050565b60006001600160401b03821115615225576152256151ca565b5060051b60200190565b600082601f83011261524057600080fd5b8135602061524d8261520c565b60405161525a82826151e0565b83815260059390931b850182019282810191508684111561527a57600080fd5b8286015b84811015615295578035835291830191830161527e565b509695505050505050565b60006001600160401b038311156152b9576152b96151ca565b6040516152d0601f8501601f1916602001826151e0565b8091508381528484840111156152e557600080fd5b83836020830137600060208583010152509392505050565b600082601f83011261530e57600080fd5b611e23838335602085016152a0565b600080600080600060a0868803121561533557600080fd5b85356153408161508c565b945060208601356153508161508c565b935060408601356001600160401b038082111561536c57600080fd5b61537889838a0161522f565b9450606088013591508082111561538e57600080fd5b61539a89838a0161522f565b935060808801359150808211156153b057600080fd5b506153bd888289016152fd565b9150509295509295909350565b600080604083850312156153dd57600080fd5b82356153e88161508c565b915060208301356153f88161508c565b809150509250929050565b6000806040838503121561541657600080fd5b82356001600160401b038082111561542d57600080fd5b818501915085601f83011261544157600080fd5b8135602061544e8261520c565b60405161545b82826151e0565b83815260059390931b850182019282810191508984111561547b57600080fd5b948201945b838610156154a25785356154938161508c565b82529482019490820190615480565b965050860135925050808211156154b857600080fd5b506154c58582860161522f565b9150509250929050565b600081518084526020808501945080840160005b838110156154ff578151875295820195908201906001016154e3565b509495945050505050565b602081526000611e2360208301846154cf565b6000806040838503121561553057600080fd5b823591506155406020840161517c565b90509250929050565b6000806040838503121561555c57600080fd5b82356001600160401b0381111561557257600080fd5b8301601f8101851361558357600080fd5b615592858235602084016152a0565b95602094909401359450505050565b600080604083850312156155b457600080fd5b6155bd8361517c565b91506155406020840161517c565b6000806000806000608086880312156155e357600080fd5b85356155ee8161508c565b94506155fc6020870161517c565b935061560a6040870161517c565b925060608601356001600160401b038082111561562657600080fd5b818801915088601f83011261563a57600080fd5b81358181111561564957600080fd5b8960208260051b850101111561565e57600080fd5b9699959850939650602001949392505050565b801515811461144b57600080fd5b6000806040838503121561569257600080fd5b823561569d8161508c565b915060208301356153f881615671565b600080604083850312156156c057600080fd5b8235915060208301356153f88161508c565b6000806000606084860312156156e757600080fd5b83356156f28161508c565b92506157006020850161517c565b915061570e6040850161517c565b90509250925092565b600080600080600060a0868803121561572f57600080fd5b853561573a8161508c565b9450602086013561574a8161508c565b9350604086013592506060860135915060808601356001600160401b0381111561577357600080fd5b6153bd888289016152fd565b600181811c9082168061579357607f821691505b6020821081036157b357634e487b7160e01b600052602260045260246000fd5b50919050565b600080835481600182811c9150808316806157d557607f831692505b602080841082036157f457634e487b7160e01b86526022600452602486fd5b818015615808576001811461581d5761584a565b60ff198616895284151585028901965061584a565b60008a81526020902060005b868110156158425781548b820152908501908301615829565b505084890196505b50505050505061270661586782637b69647d60e01b815260040190565b64173539b7b760d91b815260050190565b60208082526026908201527f5061796d656e7453706c69747465723a206163636f756e7420686173206e6f2060408201526573686172657360d01b606082015260800190565b6020808252602b908201527f5061796d656e7453706c69747465723a206163636f756e74206973206e6f742060408201526a191d59481c185e5b595b9d60aa1b606082015260800190565b634e487b7160e01b600052601160045260246000fd5b808201808211156110b3576110b3615909565b6020808252602e908201527f455243313135353a2063616c6c6572206973206e6f7420746f6b656e206f776e60408201526d195c881bdc88185c1c1c9bdd995960921b606082015260800190565b634e487b7160e01b600052603260045260246000fd5b6000600182016159a8576159a8615909565b5060010190565b602080825260029082015261653360f01b604082015260600190565b80820281158282048414176110b3576110b3615909565b634e487b7160e01b600052601260045260246000fd5b600082615a0757615a076159e2565b500490565b62ffffff818116838216019080821115615a2857615a28615909565b5092915050565b62ffffff828116828216039080821115615a2857615a28615909565b60008351615a5d818460208801615100565b600b60fa1b9083019081528351615a7b816001840160208801615100565b01600101949350505050565b602080825260029082015261194d60f21b604082015260600190565b602080825260039082015262194c4d60ea1b604082015260600190565b60208082526003908201526265313560e81b604082015260600190565b60208082526003908201526232989b60e91b604082015260600190565b600060208284031215615b0c57600080fd5b5051919050565b60208082526028908201527f455243313135353a2069647320616e6420616d6f756e7473206c656e677468206040820152670dad2e6dac2e8c6d60c31b606082015260800190565b60208082526025908201527f455243313135353a207472616e7366657220746f20746865207a65726f206164604082015264647265737360d81b606082015260800190565b6020808252602a908201527f455243313135353a20696e73756666696369656e742062616c616e636520666f60408201526939103a3930b739b332b960b11b606082015260800190565b604081526000615bfd60408301856154cf565b8281036020840152615c0f81856154cf565b95945050505050565b818103818111156110b3576110b3615909565b60208082526003908201526265323160e81b604082015260600190565b60208082526003908201526265313760e81b604082015260600190565b6020808252600390820152620ca62760eb1b604082015260600190565b60ff81811683821601908111156110b3576110b3615909565b60ff82811682821603908111156110b3576110b3615909565b60208082526003908201526265313960e81b604082015260600190565b600082615ce057615ce06159e2565b500690565b60208082526021908201527f455243313135353a206d696e7420746f20746865207a65726f206164647265736040820152607360f81b606082015260800190565b6001600160a01b0386811682528516602082015260a060408201819052600090615d52908301866154cf565b8281036060840152615d6481866154cf565b90508281036080840152615d788185615124565b98975050505050505050565b600060208284031215615d9657600080fd5b8151611e23816150cd565b600060033d1115611be95760046000803e5060005160e01c90565b600060443d1015615dca5790565b6040516003193d81016004833e81513d6001600160401b038160248401118184111715615df957505050505090565b8285019150815181811115615e115750505050505090565b843d8701016020828501011115615e2b5750505050505090565b615e3a602082860101876151e0565b509095945050505050565b60208082526028908201527f455243313135353a204552433131353552656365697665722072656a656374656040820152676420746f6b656e7360c01b606082015260800190565b600060208284031215615e9f57600080fd5b8151611e2381615671565b600060ff821660ff8103615ec057615ec0615909565b60010192915050565b600060ff831680615edc57615edc6159e2565b8060ff84160491505092915050565b60006001600160401b03808316818103615f0757615f07615909565b6001019392505050565b6001600160a01b03868116825285166020820152604081018490526060810183905260a060808201819052600090614ffd90830184615124565b60008251615f5d818460208701615100565b919091019291505056fe7b7d25f8a91d07d734c2f45d6dd20e28016c3648b97f80270c65a2a565e62025a2646970667358221220d617ea5794ae5147b7e8e818fca21556ed7026d099cd72f5c396811bf3286f9164736f6c63430008110033",
  "linkReferences": {},
  "deployedLinkReferences": {}
}