{
  "_format": "hh-sol-artifact-1",
  "contractName": "Vipsland",
  "sourceName": "contracts/Vipsland.sol",
  "abi": [
    {
      "inputs": [
        {
          "internalType": "address[]",
          "name": "_team",
          "type": "address[]"
        },
        {
          "internalType": "uint256[]",
          "name": "_teamShares",
          "type": "uint256[]"
        },
        {
          "internalType": "string",
          "name": "_notRevealedUri",
          "type": "string"
        },
        {
          "internalType": "string",
          "name": "_revealedUri",
          "type": "string"
        },
        {
          "internalType": "bytes32",
          "name": "merklerootair",
          "type": "bytes32"
        },
        {
          "internalType": "bytes32",
          "name": "merklerootint",
          "type": "bytes32"
        }
      ],
      "stateMutability": "nonpayable",
      "type": "constructor"
    },
    {
      "anonymous": false,
      "inputs": [
        {
          "indexed": true,
          "internalType": "address",
          "name": "account",
          "type": "address"
        },
        {
          "indexed": true,
          "internalType": "address",
          "name": "operator",
          "type": "address"
        },
        {
          "indexed": false,
          "internalType": "bool",
          "name": "approved",
          "type": "bool"
        }
      ],
      "name": "ApprovalForAll",
      "type": "event"
    },
    {
      "anonymous": false,
      "inputs": [
        {
          "indexed": true,
          "internalType": "contract IERC20",
          "name": "token",
          "type": "address"
        },
        {
          "indexed": false,
          "internalType": "address",
          "name": "to",
          "type": "address"
        },
        {
          "indexed": false,
          "internalType": "uint256",
          "name": "amount",
          "type": "uint256"
        }
      ],
      "name": "ERC20PaymentReleased",
      "type": "event"
    },
    {
      "anonymous": false,
      "inputs": [
        {
          "indexed": true,
          "internalType": "address",
          "name": "previousOwner",
          "type": "address"
        },
        {
          "indexed": true,
          "internalType": "address",
          "name": "newOwner",
          "type": "address"
        }
      ],
      "name": "OwnershipTransferred",
      "type": "event"
    },
    {
      "anonymous": false,
      "inputs": [
        {
          "indexed": false,
          "internalType": "address",
          "name": "account",
          "type": "address"
        },
        {
          "indexed": false,
          "internalType": "uint256",
          "name": "shares",
          "type": "uint256"
        }
      ],
      "name": "PayeeAdded",
      "type": "event"
    },
    {
      "anonymous": false,
      "inputs": [
        {
          "indexed": false,
          "internalType": "address",
          "name": "from",
          "type": "address"
        },
        {
          "indexed": false,
          "internalType": "uint256",
          "name": "amount",
          "type": "uint256"
        }
      ],
      "name": "PaymentReceived",
      "type": "event"
    },
    {
      "anonymous": false,
      "inputs": [
        {
          "indexed": false,
          "internalType": "address",
          "name": "to",
          "type": "address"
        },
        {
          "indexed": false,
          "internalType": "uint256",
          "name": "amount",
          "type": "uint256"
        }
      ],
      "name": "PaymentReleased",
      "type": "event"
    },
    {
      "anonymous": false,
      "inputs": [
        {
          "indexed": true,
          "internalType": "address",
          "name": "acc",
          "type": "address"
        },
        {
          "indexed": false,
          "internalType": "uint256",
          "name": "qnt",
          "type": "uint256"
        }
      ],
      "name": "RemainMessageNeeds",
      "type": "event"
    },
    {
      "anonymous": false,
      "inputs": [
        {
          "indexed": true,
          "internalType": "address",
          "name": "operator",
          "type": "address"
        },
        {
          "indexed": true,
          "internalType": "address",
          "name": "from",
          "type": "address"
        },
        {
          "indexed": true,
          "internalType": "address",
          "name": "to",
          "type": "address"
        },
        {
          "indexed": false,
          "internalType": "uint256[]",
          "name": "ids",
          "type": "uint256[]"
        },
        {
          "indexed": false,
          "internalType": "uint256[]",
          "name": "values",
          "type": "uint256[]"
        }
      ],
      "name": "TransferBatch",
      "type": "event"
    },
    {
      "anonymous": false,
      "inputs": [
        {
          "indexed": true,
          "internalType": "address",
          "name": "operator",
          "type": "address"
        },
        {
          "indexed": true,
          "internalType": "address",
          "name": "from",
          "type": "address"
        },
        {
          "indexed": true,
          "internalType": "address",
          "name": "to",
          "type": "address"
        },
        {
          "indexed": false,
          "internalType": "uint256",
          "name": "id",
          "type": "uint256"
        },
        {
          "indexed": false,
          "internalType": "uint256",
          "name": "value",
          "type": "uint256"
        }
      ],
      "name": "TransferSingle",
      "type": "event"
    },
    {
      "anonymous": false,
      "inputs": [
        {
          "indexed": false,
          "internalType": "string",
          "name": "value",
          "type": "string"
        },
        {
          "indexed": true,
          "internalType": "uint256",
          "name": "id",
          "type": "uint256"
        }
      ],
      "name": "URI",
      "type": "event"
    },
    {
      "inputs": [
        {
          "internalType": "address",
          "name": "account",
          "type": "address"
        },
        {
          "internalType": "uint256",
          "name": "id",
          "type": "uint256"
        }
      ],
      "name": "balanceOf",
      "outputs": [
        {
          "internalType": "uint256",
          "name": "",
          "type": "uint256"
        }
      ],
      "stateMutability": "view",
      "type": "function"
    },
    {
      "inputs": [
        {
          "internalType": "address[]",
          "name": "accounts",
          "type": "address[]"
        },
        {
          "internalType": "uint256[]",
          "name": "ids",
          "type": "uint256[]"
        }
      ],
      "name": "balanceOfBatch",
      "outputs": [
        {
          "internalType": "uint256[]",
          "name": "",
          "type": "uint256[]"
        }
      ],
      "stateMutability": "view",
      "type": "function"
    },
    {
      "inputs": [
        {
          "internalType": "uint256",
          "name": "id",
          "type": "uint256"
        }
      ],
      "name": "exists",
      "outputs": [
        {
          "internalType": "bool",
          "name": "",
          "type": "bool"
        }
      ],
      "stateMutability": "view",
      "type": "function"
    },
    {
      "inputs": [
        {
          "internalType": "address",
          "name": "account",
          "type": "address"
        },
        {
          "internalType": "address",
          "name": "operator",
          "type": "address"
        }
      ],
      "name": "isApprovedForAll",
      "outputs": [
        {
          "internalType": "bool",
          "name": "",
          "type": "bool"
        }
      ],
      "stateMutability": "view",
      "type": "function"
    },
    {
      "inputs": [
        {
          "internalType": "uint256",
          "name": "tokenID",
          "type": "uint256"
        },
        {
          "internalType": "address",
          "name": "addr",
          "type": "address"
        }
      ],
      "name": "mintAndsafeTransferByContractOwner",
      "outputs": [],
      "stateMutability": "nonpayable",
      "type": "function"
    },
    {
      "inputs": [
        {
          "internalType": "address",
          "name": "account",
          "type": "address"
        },
        {
          "internalType": "uint8",
          "name": "qnt",
          "type": "uint8"
        },
        {
          "internalType": "bytes32[]",
          "name": "_proof",
          "type": "bytes32[]"
        }
      ],
      "name": "mintNONMPForAIRDROP",
      "outputs": [],
      "stateMutability": "payable",
      "type": "function"
    },
    {
      "inputs": [
        {
          "internalType": "address",
          "name": "account",
          "type": "address"
        },
        {
          "internalType": "uint8",
          "name": "qnt",
          "type": "uint8"
        },
        {
          "internalType": "bytes32[]",
          "name": "_proof",
          "type": "bytes32[]"
        }
      ],
      "name": "mintNONMPForInternalTeam",
      "outputs": [],
      "stateMutability": "payable",
      "type": "function"
    },
    {
      "inputs": [
        {
          "internalType": "address",
          "name": "account",
          "type": "address"
        },
        {
          "internalType": "uint8",
          "name": "qnt",
          "type": "uint8"
        }
      ],
      "name": "mintNONMPForNormalUser",
      "outputs": [],
      "stateMutability": "payable",
      "type": "function"
    },
    {
      "inputs": [],
      "name": "name",
      "outputs": [
        {
          "internalType": "string",
          "name": "",
          "type": "string"
        }
      ],
      "stateMutability": "view",
      "type": "function"
    },
    {
      "inputs": [],
      "name": "owner",
      "outputs": [
        {
          "internalType": "address",
          "name": "",
          "type": "address"
        }
      ],
      "stateMutability": "view",
      "type": "function"
    },
    {
      "inputs": [
        {
          "internalType": "uint256",
          "name": "index",
          "type": "uint256"
        }
      ],
      "name": "payee",
      "outputs": [
        {
          "internalType": "address",
          "name": "",
          "type": "address"
        }
      ],
      "stateMutability": "view",
      "type": "function"
    },
    {
      "inputs": [],
      "name": "presalePRT",
      "outputs": [
        {
          "internalType": "uint8",
          "name": "",
          "type": "uint8"
        }
      ],
      "stateMutability": "view",
      "type": "function"
    },
    {
      "inputs": [
        {
          "internalType": "uint256",
          "name": "",
          "type": "uint256"
        }
      ],
      "name": "prtPerAddress",
      "outputs": [
        {
          "internalType": "address",
          "name": "",
          "type": "address"
        }
      ],
      "stateMutability": "view",
      "type": "function"
    },
    {
      "inputs": [],
      "name": "prtSettings",
      "outputs": [
        {
          "internalType": "uint256",
          "name": "PRTID",
          "type": "uint256"
        },
        {
          "internalType": "uint256",
          "name": "MAX_SUPPLY_MP",
          "type": "uint256"
        },
        {
          "internalType": "uint8",
          "name": "NUM_TOTAL_FOR_MP",
          "type": "uint8"
        },
        {
          "components": [
            {
              "internalType": "uint256",
              "name": "normaluser",
              "type": "uint256"
            },
            {
              "internalType": "uint256",
              "name": "internalteam",
              "type": "uint256"
            },
            {
              "internalType": "uint256",
              "name": "airdrop",
              "type": "uint256"
            }
          ],
          "internalType": "struct Vipsland.QntUint",
          "name": "MAX_SUPPLY_FOR_PRT",
          "type": "tuple"
        },
        {
          "components": [
            {
              "internalType": "uint256",
              "name": "normaluser",
              "type": "uint256"
            },
            {
              "internalType": "uint256",
              "name": "internalteam",
              "type": "uint256"
            },
            {
              "internalType": "uint256",
              "name": "airdrop",
              "type": "uint256"
            }
          ],
          "internalType": "struct Vipsland.QntUint",
          "name": "EACH_RAND_SLOT",
          "type": "tuple"
        },
        {
          "components": [
            {
              "internalType": "uint256",
              "name": "normaluser",
              "type": "uint256"
            },
            {
              "internalType": "uint256",
              "name": "internalteam",
              "type": "uint256"
            },
            {
              "internalType": "uint256",
              "name": "airdrop",
              "type": "uint256"
            }
          ],
          "internalType": "struct Vipsland.QntUint",
          "name": "STARTINGID",
          "type": "tuple"
        },
        {
          "components": [
            {
              "internalType": "uint256",
              "name": "normaluser",
              "type": "uint256"
            },
            {
              "internalType": "uint256",
              "name": "internalteam",
              "type": "uint256"
            },
            {
              "internalType": "uint256",
              "name": "airdrop",
              "type": "uint256"
            }
          ],
          "internalType": "struct Vipsland.QntUint",
          "name": "limitsmint",
          "type": "tuple"
        },
        {
          "components": [
            {
              "internalType": "uint256",
              "name": "normaluser",
              "type": "uint256"
            },
            {
              "internalType": "uint256",
              "name": "internalteam",
              "type": "uint256"
            },
            {
              "internalType": "uint256",
              "name": "airdrop",
              "type": "uint256"
            }
          ],
          "internalType": "struct Vipsland.QntUint",
          "name": "limitspertx",
          "type": "tuple"
        },
        {
          "components": [
            {
              "internalType": "uint256",
              "name": "normaluser",
              "type": "uint256"
            },
            {
              "internalType": "uint256",
              "name": "internalteam",
              "type": "uint256"
            },
            {
              "internalType": "uint256",
              "name": "airdrop",
              "type": "uint256"
            }
          ],
          "internalType": "struct Vipsland.QntUint",
          "name": "PRICE",
          "type": "tuple"
        }
      ],
      "stateMutability": "view",
      "type": "function"
    },
    {
      "inputs": [
        {
          "internalType": "address",
          "name": "account",
          "type": "address"
        }
      ],
      "name": "releasable",
      "outputs": [
        {
          "internalType": "uint256",
          "name": "",
          "type": "uint256"
        }
      ],
      "stateMutability": "view",
      "type": "function"
    },
    {
      "inputs": [
        {
          "internalType": "contract IERC20",
          "name": "token",
          "type": "address"
        },
        {
          "internalType": "address",
          "name": "account",
          "type": "address"
        }
      ],
      "name": "releasable",
      "outputs": [
        {
          "internalType": "uint256",
          "name": "",
          "type": "uint256"
        }
      ],
      "stateMutability": "view",
      "type": "function"
    },
    {
      "inputs": [
        {
          "internalType": "address payable",
          "name": "account",
          "type": "address"
        }
      ],
      "name": "release",
      "outputs": [],
      "stateMutability": "nonpayable",
      "type": "function"
    },
    {
      "inputs": [
        {
          "internalType": "contract IERC20",
          "name": "token",
          "type": "address"
        },
        {
          "internalType": "address",
          "name": "account",
          "type": "address"
        }
      ],
      "name": "release",
      "outputs": [],
      "stateMutability": "nonpayable",
      "type": "function"
    },
    {
      "inputs": [
        {
          "internalType": "contract IERC20",
          "name": "token",
          "type": "address"
        },
        {
          "internalType": "address",
          "name": "account",
          "type": "address"
        }
      ],
      "name": "released",
      "outputs": [
        {
          "internalType": "uint256",
          "name": "",
          "type": "uint256"
        }
      ],
      "stateMutability": "view",
      "type": "function"
    },
    {
      "inputs": [
        {
          "internalType": "address",
          "name": "account",
          "type": "address"
        }
      ],
      "name": "released",
      "outputs": [
        {
          "internalType": "uint256",
          "name": "",
          "type": "uint256"
        }
      ],
      "stateMutability": "view",
      "type": "function"
    },
    {
      "inputs": [],
      "name": "renounceOwnership",
      "outputs": [],
      "stateMutability": "nonpayable",
      "type": "function"
    },
    {
      "inputs": [],
      "name": "reveal_state",
      "outputs": [
        {
          "internalType": "string",
          "name": "notRevealedUri",
          "type": "string"
        },
        {
          "internalType": "string",
          "name": "revealedUri",
          "type": "string"
        },
        {
          "internalType": "bool",
          "name": "revealed",
          "type": "bool"
        }
      ],
      "stateMutability": "view",
      "type": "function"
    },
    {
      "inputs": [],
      "name": "rootair",
      "outputs": [
        {
          "internalType": "bytes32",
          "name": "",
          "type": "bytes32"
        }
      ],
      "stateMutability": "view",
      "type": "function"
    },
    {
      "inputs": [],
      "name": "rootint",
      "outputs": [
        {
          "internalType": "bytes32",
          "name": "",
          "type": "bytes32"
        }
      ],
      "stateMutability": "view",
      "type": "function"
    },
    {
      "inputs": [
        {
          "internalType": "address",
          "name": "from",
          "type": "address"
        },
        {
          "internalType": "address",
          "name": "to",
          "type": "address"
        },
        {
          "internalType": "uint256[]",
          "name": "ids",
          "type": "uint256[]"
        },
        {
          "internalType": "uint256[]",
          "name": "amounts",
          "type": "uint256[]"
        },
        {
          "internalType": "bytes",
          "name": "data",
          "type": "bytes"
        }
      ],
      "name": "safeBatchTransferFrom",
      "outputs": [],
      "stateMutability": "nonpayable",
      "type": "function"
    },
    {
      "inputs": [
        {
          "internalType": "address",
          "name": "from",
          "type": "address"
        },
        {
          "internalType": "address",
          "name": "to",
          "type": "address"
        },
        {
          "internalType": "uint256",
          "name": "id",
          "type": "uint256"
        },
        {
          "internalType": "uint256",
          "name": "amount",
          "type": "uint256"
        },
        {
          "internalType": "bytes",
          "name": "data",
          "type": "bytes"
        }
      ],
      "name": "safeTransferFrom",
      "outputs": [],
      "stateMutability": "nonpayable",
      "type": "function"
    },
    {
      "inputs": [],
      "name": "sendMPAirdrop",
      "outputs": [],
      "stateMutability": "nonpayable",
      "type": "function"
    },
    {
      "inputs": [],
      "name": "sendMPInternalTeam",
      "outputs": [],
      "stateMutability": "nonpayable",
      "type": "function"
    },
    {
      "inputs": [],
      "name": "sendMPNormalUsers",
      "outputs": [],
      "stateMutability": "nonpayable",
      "type": "function"
    },
    {
      "inputs": [
        {
          "internalType": "address",
          "name": "operator",
          "type": "address"
        },
        {
          "internalType": "bool",
          "name": "approved",
          "type": "bool"
        }
      ],
      "name": "setApprovalForAll",
      "outputs": [],
      "stateMutability": "nonpayable",
      "type": "function"
    },
    {
      "inputs": [
        {
          "internalType": "bytes32",
          "name": "merkleroot",
          "type": "bytes32"
        },
        {
          "internalType": "uint8",
          "name": "stage",
          "type": "uint8"
        }
      ],
      "name": "setMerkleRoot",
      "outputs": [],
      "stateMutability": "nonpayable",
      "type": "function"
    },
    {
      "inputs": [
        {
          "internalType": "uint256",
          "name": "price",
          "type": "uint256"
        },
        {
          "internalType": "uint8",
          "name": "stage",
          "type": "uint8"
        }
      ],
      "name": "setPRICE_PRT",
      "outputs": [],
      "stateMutability": "nonpayable",
      "type": "function"
    },
    {
      "inputs": [
        {
          "internalType": "uint8",
          "name": "num",
          "type": "uint8"
        }
      ],
      "name": "setPreSalePRT",
      "outputs": [],
      "stateMutability": "nonpayable",
      "type": "function"
    },
    {
      "inputs": [
        {
          "internalType": "uint8",
          "name": "amount",
          "type": "uint8"
        },
        {
          "internalType": "uint8",
          "name": "amount_per_transaction",
          "type": "uint8"
        }
      ],
      "name": "set_limits_for_AIRDROP",
      "outputs": [],
      "stateMutability": "nonpayable",
      "type": "function"
    },
    {
      "inputs": [
        {
          "internalType": "uint8",
          "name": "amount",
          "type": "uint8"
        },
        {
          "internalType": "uint8",
          "name": "amount_per_transaction",
          "type": "uint8"
        }
      ],
      "name": "set_limits_for_INTERNAL",
      "outputs": [],
      "stateMutability": "nonpayable",
      "type": "function"
    },
    {
      "inputs": [
        {
          "internalType": "address",
          "name": "account",
          "type": "address"
        }
      ],
      "name": "shares",
      "outputs": [
        {
          "internalType": "uint256",
          "name": "",
          "type": "uint256"
        }
      ],
      "stateMutability": "view",
      "type": "function"
    },
    {
      "inputs": [],
      "name": "statetoken",
      "outputs": [
        {
          "components": [
            {
              "internalType": "uint256",
              "name": "normaluser",
              "type": "uint256"
            },
            {
              "internalType": "uint256",
              "name": "internalteam",
              "type": "uint256"
            },
            {
              "internalType": "uint256",
              "name": "airdrop",
              "type": "uint256"
            }
          ],
          "internalType": "struct Vipsland.QntUint",
          "name": "idx",
          "type": "tuple"
        },
        {
          "components": [
            {
              "internalType": "uint256",
              "name": "normaluser",
              "type": "uint256"
            },
            {
              "internalType": "uint256",
              "name": "internalteam",
              "type": "uint256"
            },
            {
              "internalType": "uint256",
              "name": "airdrop",
              "type": "uint256"
            }
          ],
          "internalType": "struct Vipsland.QntUint",
          "name": "qntmintmp",
          "type": "tuple"
        },
        {
          "components": [
            {
              "internalType": "uint256",
              "name": "normaluser",
              "type": "uint256"
            },
            {
              "internalType": "uint256",
              "name": "internalteam",
              "type": "uint256"
            },
            {
              "internalType": "uint256",
              "name": "airdrop",
              "type": "uint256"
            }
          ],
          "internalType": "struct Vipsland.QntUint",
          "name": "qntmintnonmp",
          "type": "tuple"
        },
        {
          "components": [
            {
              "internalType": "uint256",
              "name": "normaluser",
              "type": "uint256"
            },
            {
              "internalType": "uint256",
              "name": "internalteam",
              "type": "uint256"
            },
            {
              "internalType": "uint256",
              "name": "airdrop",
              "type": "uint256"
            }
          ],
          "internalType": "struct Vipsland.QntUint",
          "name": "numIssued",
          "type": "tuple"
        },
        {
          "components": [
            {
              "internalType": "uint256",
              "name": "normaluser",
              "type": "uint256"
            },
            {
              "internalType": "uint256",
              "name": "internalteam",
              "type": "uint256"
            },
            {
              "internalType": "uint256",
              "name": "airdrop",
              "type": "uint256"
            }
          ],
          "internalType": "struct Vipsland.QntUint",
          "name": "lastWinnerTokenIDDiff",
          "type": "tuple"
        },
        {
          "components": [
            {
              "internalType": "bool",
              "name": "normaluser",
              "type": "bool"
            },
            {
              "internalType": "bool",
              "name": "internalteam",
              "type": "bool"
            },
            {
              "internalType": "bool",
              "name": "airdrop",
              "type": "bool"
            }
          ],
          "internalType": "struct Vipsland.StateBool",
          "name": "mintMPIsOpen",
          "type": "tuple"
        },
        {
          "components": [
            {
              "internalType": "bool",
              "name": "normaluser",
              "type": "bool"
            },
            {
              "internalType": "bool",
              "name": "internalteam",
              "type": "bool"
            },
            {
              "internalType": "bool",
              "name": "airdrop",
              "type": "bool"
            }
          ],
          "internalType": "struct Vipsland.StateBool",
          "name": "sendMPAllDone",
          "type": "tuple"
        },
        {
          "components": [
            {
              "components": [
                {
                  "internalType": "uint256",
                  "name": "_value",
                  "type": "uint256"
                }
              ],
              "internalType": "struct Counters.Counter",
              "name": "normaluser",
              "type": "tuple"
            },
            {
              "components": [
                {
                  "internalType": "uint256",
                  "name": "_value",
                  "type": "uint256"
                }
              ],
              "internalType": "struct Counters.Counter",
              "name": "internalteam",
              "type": "tuple"
            },
            {
              "components": [
                {
                  "internalType": "uint256",
                  "name": "_value",
                  "type": "uint256"
                }
              ],
              "internalType": "struct Counters.Counter",
              "name": "airdrop",
              "type": "tuple"
            }
          ],
          "internalType": "struct Vipsland.CounterForGenerateLuckyMP",
          "name": "counter_for_generatelucky",
          "type": "tuple"
        }
      ],
      "stateMutability": "view",
      "type": "function"
    },
    {
      "inputs": [
        {
          "internalType": "bytes4",
          "name": "interfaceId",
          "type": "bytes4"
        }
      ],
      "name": "supportsInterface",
      "outputs": [
        {
          "internalType": "bool",
          "name": "",
          "type": "bool"
        }
      ],
      "stateMutability": "view",
      "type": "function"
    },
    {
      "inputs": [],
      "name": "symbol",
      "outputs": [
        {
          "internalType": "string",
          "name": "",
          "type": "string"
        }
      ],
      "stateMutability": "view",
      "type": "function"
    },
    {
      "inputs": [],
      "name": "toggleMintAirdropMPIsOpen",
      "outputs": [],
      "stateMutability": "nonpayable",
      "type": "function"
    },
    {
      "inputs": [],
      "name": "toggleMintInternalTeamMPIsOpen",
      "outputs": [],
      "stateMutability": "nonpayable",
      "type": "function"
    },
    {
      "inputs": [],
      "name": "toggleMintMPIsOpen",
      "outputs": [],
      "stateMutability": "nonpayable",
      "type": "function"
    },
    {
      "inputs": [],
      "name": "toggleReveal",
      "outputs": [],
      "stateMutability": "nonpayable",
      "type": "function"
    },
    {
      "inputs": [
        {
          "internalType": "contract IERC20",
          "name": "token",
          "type": "address"
        }
      ],
      "name": "totalReleased",
      "outputs": [
        {
          "internalType": "uint256",
          "name": "",
          "type": "uint256"
        }
      ],
      "stateMutability": "view",
      "type": "function"
    },
    {
      "inputs": [],
      "name": "totalReleased",
      "outputs": [
        {
          "internalType": "uint256",
          "name": "",
          "type": "uint256"
        }
      ],
      "stateMutability": "view",
      "type": "function"
    },
    {
      "inputs": [],
      "name": "totalShares",
      "outputs": [
        {
          "internalType": "uint256",
          "name": "",
          "type": "uint256"
        }
      ],
      "stateMutability": "view",
      "type": "function"
    },
    {
      "inputs": [
        {
          "internalType": "uint256",
          "name": "id",
          "type": "uint256"
        }
      ],
      "name": "totalSupply",
      "outputs": [
        {
          "internalType": "uint256",
          "name": "",
          "type": "uint256"
        }
      ],
      "stateMutability": "view",
      "type": "function"
    },
    {
      "inputs": [
        {
          "internalType": "address",
          "name": "newOwner",
          "type": "address"
        }
      ],
      "name": "transferOwnership",
      "outputs": [],
      "stateMutability": "nonpayable",
      "type": "function"
    },
    {
      "inputs": [
        {
          "internalType": "uint256",
          "name": "",
          "type": "uint256"
        }
      ],
      "name": "uri",
      "outputs": [
        {
          "internalType": "string",
          "name": "",
          "type": "string"
        }
      ],
      "stateMutability": "view",
      "type": "function"
    },
    {
      "inputs": [
        {
          "internalType": "address",
          "name": "",
          "type": "address"
        }
      ],
      "name": "userNONMPs",
      "outputs": [
        {
          "internalType": "uint8",
          "name": "",
          "type": "uint8"
        }
      ],
      "stateMutability": "view",
      "type": "function"
    },
    {
      "inputs": [],
      "name": "withdraw",
      "outputs": [],
      "stateMutability": "nonpayable",
      "type": "function"
    },
    {
      "stateMutability": "payable",
      "type": "receive"
    }
  ],
  "bytecode": "0x60c0604052601060809081526f564950534c414e442047454e4553495360801b60a052600d90620000319082620008fc565b50604080518082019091526004815263159414d360e21b6020820152600e906200005c9082620008fc565b506013805460ff19908116909155602c80546001600160481b0319166104121790556040805161012081018252614e2080825260208083018281526064848601818152865160608082018952620222e08252818601969096526122b8818901528587019081528751808701895261271081526103e881870152610457818a01526080880190815288518088018a52614e21815262027101818801526202bf21818b015260a0890190815289518089018b5294855260198588018190526003868c0181905260c08b019687528b51808b018d5260238152808a0192909252818c015260e08a019081528a519889018b526701b4fbd92b5f8000895260008989018181528a8d019182526101008c018b90529a51602f5596516030559351603180548d1660ff90921691909117905591518051603255808701516033558901516034555180516035558086015160365588015160375551805160385580850151603955870151603a5590518051603b5580840151603c55860151603d55518051603e5591820151603f55908401519093555160415551604255516043556046805490911690553480156200020d57600080fd5b506040516200660338038062006603833981016040819052620002309162000b9a565b8386868051825114620002a55760405162461bcd60e51b815260206004820152603260248201527f5061796d656e7453706c69747465723a2070617965657320616e6420736861726044820152710cae640d8cadccee8d040dad2e6dac2e8c6d60731b60648201526084015b60405180910390fd5b6000825111620002f85760405162461bcd60e51b815260206004820152601a60248201527f5061796d656e7453706c69747465723a206e6f2070617965657300000000000060448201526064016200029c565b60005b825181101562000364576200034f8382815181106200031e576200031e62000c65565b60200260200101518383815181106200033b576200033b62000c65565b6020026020010151620005a060201b60201c565b806200035b8162000c91565b915050620002fb565b50505062000378816200078c60201b60201c565b5062000384336200079e565b6001600c5560448290556045819055600f620003a18582620008fc565b506010620003b08482620008fc565b50603154603054620003c69160ff169062000cad565b6001600160401b03811115620003e057620003e062000857565b6040519080825280602002602001820160405280156200040a578160200160208202803683370190505b5080516200042191602891602090910190620007f0565b50600260286000016000815481106200043e576200043e62000c65565b6000918252602090912001556035546032546200045c919062000cad565b6001600160401b0381111562000476576200047662000857565b604051908082528060200260200182016040528015620004a0578160200160208202803683370190505b508051620004b791602991602090910190620007f0565b50603654603354620004ca919062000cad565b6001600160401b03811115620004e457620004e462000857565b6040519080825280602002602001820160405280156200050e578160200160208202803683370190505b5080516200052591602a91602090910190620007f0565b5060375460345462000538919062000cad565b6001600160401b0381111562000552576200055262000857565b6040519080825280602002602001820160405280156200057c578160200160208202803683370190505b5080516200059391602b91602090910190620007f0565b5050505050505062000cec565b6001600160a01b0382166200060d5760405162461bcd60e51b815260206004820152602c60248201527f5061796d656e7453706c69747465723a206163636f756e74206973207468652060448201526b7a65726f206164647265737360a01b60648201526084016200029c565b600081116200065f5760405162461bcd60e51b815260206004820152601d60248201527f5061796d656e7453706c69747465723a2073686172657320617265203000000060448201526064016200029c565b6001600160a01b03821660009081526002602052604090205415620006db5760405162461bcd60e51b815260206004820152602b60248201527f5061796d656e7453706c69747465723a206163636f756e7420616c726561647960448201526a206861732073686172657360a81b60648201526084016200029c565b60048054600181019091557f8a35acfbc15ff81a39ae7d344fd709f28e8600b4aa8c65c6b64bfe7fe36bd19b0180546001600160a01b0319166001600160a01b0384169081179091556000908152600260205260408120829055546200074390829062000cd0565b600055604080516001600160a01b0384168152602081018390527f40c340f65e17194d14ddddb073d3c9f888e3cb52b5aae0c6c7706b4fbc905fac910160405180910390a15050565b60096200079a8282620008fc565b5050565b600b80546001600160a01b038381166001600160a01b0319831681179093556040519116919082907f8be0079c531659141344cd1fd0a4f28419497f9722a3daafe3b4186f6b6457e090600090a35050565b8280548282559060005260206000209081019282156200082e579160200282015b828111156200082e57825182559160200191906001019062000811565b506200083c92915062000840565b5090565b5b808211156200083c576000815560010162000841565b634e487b7160e01b600052604160045260246000fd5b600181811c908216806200088257607f821691505b602082108103620008a357634e487b7160e01b600052602260045260246000fd5b50919050565b601f821115620008f757600081815260208120601f850160051c81016020861015620008d25750805b601f850160051c820191505b81811015620008f357828155600101620008de565b5050505b505050565b81516001600160401b0381111562000918576200091862000857565b62000930816200092984546200086d565b84620008a9565b602080601f8311600181146200096857600084156200094f5750858301515b600019600386901b1c1916600185901b178555620008f3565b600085815260208120601f198616915b82811015620009995788860151825594840194600190910190840162000978565b5085821015620009b85787850151600019600388901b60f8161c191681555b5050505050600190811b01905550565b604051601f8201601f191681016001600160401b0381118282101715620009f357620009f362000857565b604052919050565b60006001600160401b0382111562000a175762000a1762000857565b5060051b60200190565b600082601f83011262000a3357600080fd5b8151602062000a4c62000a4683620009fb565b620009c8565b82815260059290921b8401810191818101908684111562000a6c57600080fd5b8286015b8481101562000aa05780516001600160a01b038116811462000a925760008081fd5b835291830191830162000a70565b509695505050505050565b600082601f83011262000abd57600080fd5b8151602062000ad062000a4683620009fb565b82815260059290921b8401810191818101908684111562000af057600080fd5b8286015b8481101562000aa0578051835291830191830162000af4565b600082601f83011262000b1f57600080fd5b81516001600160401b0381111562000b3b5762000b3b62000857565b602062000b51601f8301601f19168201620009c8565b828152858284870101111562000b6657600080fd5b60005b8381101562000b8657858101830151828201840152820162000b69565b506000928101909101919091529392505050565b60008060008060008060c0878903121562000bb457600080fd5b86516001600160401b038082111562000bcc57600080fd5b62000bda8a838b0162000a21565b9750602089015191508082111562000bf157600080fd5b62000bff8a838b0162000aab565b9650604089015191508082111562000c1657600080fd5b62000c248a838b0162000b0d565b9550606089015191508082111562000c3b57600080fd5b5062000c4a89828a0162000b0d565b9350506080870151915060a087015190509295509295509295565b634e487b7160e01b600052603260045260246000fd5b634e487b7160e01b600052601160045260246000fd5b60006001820162000ca65762000ca662000c7b565b5060010190565b60008262000ccb57634e487b7160e01b600052601260045260246000fd5b500490565b8082018082111562000ce65762000ce662000c7b565b92915050565b6159078062000cfc6000396000f3fe6080604052600436106102e75760003560e01c80637de1c2be11610190578063c45ac050116100dc578063e3b96cae11610095578063f2fde38b1161006f578063f2fde38b14610c4b578063f857528b14610c6b578063fd30116514610c8b578063fe47d7f214610c9e57600080fd5b8063e3b96cae14610bcf578063e985e9c514610be2578063f242432a14610c2b57600080fd5b8063c45ac05014610ae3578063ce7c2ac214610b03578063cffbd26f14610b39578063d79779b214610b6f578063da8ab07114610ba5578063e33b7de314610bba57600080fd5b8063a22cb46511610149578063a57674e711610123578063a57674e714610a76578063a882fea414610a8b578063b0bd6fe114610aa0578063bd85b03914610ab657600080fd5b8063a22cb46514610a16578063a3f8eace14610a36578063a414f39b14610a5657600080fd5b80637de1c2be146109365780638b83209b146109625780638da5cb5b1461099a57806395d89b41146109b857806395f7d641146109cd5780639852595c146109e057600080fd5b80633ccfd60b1161024f5780634f558e79116102085780636bd774b6116101e25780636bd774b6146108105780636bfcf578146108f7578063715018a61461090c5780637d46d8701461092157600080fd5b80634f558e79146107ac5780635b8ad429146107db5780636797fdda146107f057600080fd5b80633ccfd60b146104c05780633fa60926146104d5578063406072a9146106f9578063472c5dc01461073f57806348b750441461075f5780634e1273f41461077f57600080fd5b806319165587116102a157806319165587146104125780632c83546e146104325780632d187ef7146104525780632eb2c2d6146104675780633a98ef39146104875780633c9648651461049c57600080fd5b8062fdd58e1461033557806301ffc9a71461036857806306fdde0314610398578063070ccbde146103ba5780630e89341c146103d057806310824118146103f057600080fd5b36610330577f6ef95f06320e7a25a04a175ca677b7052bdd97131872c2192525a629f51be77033604080516001600160a01b0390921682523460208301520160405180910390a1005b600080fd5b34801561034157600080fd5b506103556103503660046149f3565b610cce565b6040519081526020015b60405180910390f35b34801561037457600080fd5b50610388610383366004614a35565b610d69565b604051901515815260200161035f565b3480156103a457600080fd5b506103ad610db9565b60405161035f9190614aa2565b3480156103c657600080fd5b5061035560445481565b3480156103dc57600080fd5b506103ad6103eb366004614ab5565b610e47565b3480156103fc57600080fd5b5061041061040b366004614ae4565b610f13565b005b34801561041e57600080fd5b5061041061042d366004614aff565b610f6d565b34801561043e57600080fd5b5061041061044d366004614b1c565b611054565b34801561045e57600080fd5b50610410611093565b34801561047357600080fd5b50610410610482366004614c91565b6110b8565b34801561049357600080fd5b50600054610355565b3480156104a857600080fd5b506104b1611104565b60405161035f93929190614d3e565b3480156104cc57600080fd5b5061041061122d565b3480156104e157600080fd5b506040805160608082018352601454825260155460208084019190915260165483850152835180830185526017548152601854818301526019548186015284518084018652601a548152601b5481840152601c548187015285518085018752601d548152601e5481850152601f5481880152865180860188528454815260215481860152602254818901528751808701895260235460ff8082161515835261010080830482161515848a0152620100009283900482161515848d01528b51808b018d526024548084161515825291820483161515818b0152929004161515818b01528951608081018b5260255498810198895297885289518088018b5260265481528888015289519687018a5260275487529887019590955261060997939592949193909288565b60408051895181526020808b0151818301529982015181830152885160608201528989015160808201529781015160a0890152865160c08901528887015160e089015295860151610100880152845161012088015287850151610140880152938501516101608701528251610180870152868301516101a0870152918401516101c0860152805115156101e086015285810151151561020086015283015115156102208501528051151561024085015284810151151561026085015282015115156102808401528051516102a084015292830151516102c08301529190910151516102e08201526103000161035f565b34801561070557600080fd5b50610355610714366004614d76565b6001600160a01b03918216600090815260066020908152604080832093909416825291909152205490565b34801561074b57600080fd5b5061041061075a366004614daf565b611271565b34801561076b57600080fd5b5061041061077a366004614d76565b6112f2565b34801561078b57600080fd5b5061079f61079a366004614dd4565b611403565b60405161035f9190614edb565b3480156107b857600080fd5b506103886107c7366004614ab5565b6000908152600a6020526040902054151590565b3480156107e757600080fd5b5061041061152c565b3480156107fc57600080fd5b5061041061080b366004614b1c565b611548565b34801561081c57600080fd5b50602f546030546031546040805160608082018352603254825260335460208084019190915260345483850152835180830185526035548152603654818301526037548186015284518084018652603854815260395481840152603a548187015285518085018752603b548152603c5481850152603d548188015286518086018852603e548152603f548186015287548189015287519586018852604154865260425494860194909452604354968501969096526108e298979660ff1695919390929089565b60405161035f99989796959493929190614eee565b34801561090357600080fd5b50610410611572565b34801561091857600080fd5b50610410611599565b34801561092d57600080fd5b506104106115ad565b34801561094257600080fd5b506013546109509060ff1681565b60405160ff909116815260200161035f565b34801561096e57600080fd5b5061098261097d366004614ab5565b611973565b6040516001600160a01b03909116815260200161035f565b3480156109a657600080fd5b50600b546001600160a01b0316610982565b3480156109c457600080fd5b506103ad6119a3565b6104106109db366004614fbf565b6119b0565b3480156109ec57600080fd5b506103556109fb366004614aff565b6001600160a01b031660009081526003602052604090205490565b348015610a2257600080fd5b50610410610a31366004614ff9565b611f40565b348015610a4257600080fd5b50610355610a51366004614aff565b611f4b565b348015610a6257600080fd5b50610410610a71366004615027565b611f93565b348015610a8257600080fd5b50610410611fe5565b348015610a9757600080fd5b50610410612316565b348015610aac57600080fd5b5061035560455481565b348015610ac257600080fd5b50610355610ad1366004614ab5565b6000908152600a602052604090205490565b348015610aef57600080fd5b50610355610afe366004614d76565b6126ca565b348015610b0f57600080fd5b50610355610b1e366004614aff565b6001600160a01b031660009081526002602052604090205490565b348015610b4557600080fd5b50610982610b54366004614ab5565b602d602052600090815260409020546001600160a01b031681565b348015610b7b57600080fd5b50610355610b8a366004614aff565b6001600160a01b031660009081526005602052604090205490565b348015610bb157600080fd5b50610410612795565b348015610bc657600080fd5b50600154610355565b610410610bdd366004615043565b6127b1565b348015610bee57600080fd5b50610388610bfd366004614d76565b6001600160a01b03918216600090815260086020908152604080832093909416825291909152205460ff1690565b348015610c3757600080fd5b50610410610c463660046150d5565b612daf565b348015610c5757600080fd5b50610410610c66366004614aff565b612df4565b348015610c7757600080fd5b50610410610c86366004615027565b612e6a565b610410610c99366004615043565b612ebc565b348015610caa57600080fd5b50610950610cb9366004614aff565b602e6020526000908152604090205460ff1681565b60006001600160a01b038316610d3e5760405162461bcd60e51b815260206004820152602a60248201527f455243313135353a2061646472657373207a65726f206973206e6f742061207660448201526930b634b21037bbb732b960b11b60648201526084015b60405180910390fd5b5060008181526007602090815260408083206001600160a01b03861684529091529020545b92915050565b60006001600160e01b03198216636cdb3d1360e11b1480610d9a57506001600160e01b031982166303a24d0760e21b145b80610d6357506301ffc9a760e01b6001600160e01b0319831614610d63565b600d8054610dc69061513d565b80601f0160208091040260200160405190810160405280929190818152602001828054610df29061513d565b8015610e3f5780601f10610e1457610100808354040283529160200191610e3f565b820191906000526020600020905b815481529060010190602001808311610e2257829003601f168201915b505050505081565b60115460609060ff161515600003610eeb57600f8054610e669061513d565b80601f0160208091040260200160405190810160405280929190818152602001828054610e929061513d565b8015610edf5780601f10610eb457610100808354040283529160200191610edf565b820191906000526020600020905b815481529060010190602001808311610ec257829003601f168201915b50505050509050919050565b604051610efd90601090602001615177565b6040516020818303038152906040529050919050565b610f1b613402565b60ff81166007811115610f565760405162461bcd60e51b815260206004820152600360248201526232991960e91b6044820152606401610d35565b506013805460ff191660ff92909216919091179055565b6001600160a01b038116600090815260026020526040902054610fa25760405162461bcd60e51b8152600401610d3590615236565b6000610fad82611f4b565b905080600003610fcf5760405162461bcd60e51b8152600401610d359061527c565b8060016000828254610fe191906152dd565b90915550506001600160a01b038216600090815260036020526040902080548201905561100e828261345c565b604080516001600160a01b0384168152602081018390527fdf20fd1e76bc69d672e4814fafb2c449bba3a5369d8359adf9e05e6fde87b056910160405180910390a15050565b61105c613402565b8060ff1660020361106d5760428290555b8060ff1660010361107e5760438290555b8060ff1660040361108f5760418290555b5050565b61109b613402565b6023805461ff001981166101009182900460ff1615909102179055565b6001600160a01b0385163314806110d457506110d48533610bfd565b6110f05760405162461bcd60e51b8152600401610d35906152f0565b6110fd8585858585613575565b5050505050565b600f805481906111139061513d565b80601f016020809104026020016040519081016040528092919081815260200182805461113f9061513d565b801561118c5780601f106111615761010080835404028352916020019161118c565b820191906000526020600020905b81548152906001019060200180831161116f57829003601f168201915b5050505050908060010180546111a19061513d565b80601f01602080910402602001604051908101604052809291908181526020018280546111cd9061513d565b801561121a5780601f106111ef5761010080835404028352916020019161121a565b820191906000526020600020905b8154815290600101906020018083116111fd57829003601f168201915b5050506002909301549192505060ff1683565b611235613402565b600b546040516001600160a01b03909116904780156108fc02916000818181858888f1935050505015801561126e573d6000803e3d6000fd5b50565b611279613402565b6112953383600160405180602001604052806000815250613722565b6000828152600a60205260409020546112d55760405162461bcd60e51b8152602060048201526002602482015261329960f11b6044820152606401610d35565b61108f338284600160405180602001604052806000815250612daf565b6001600160a01b0381166000908152600260205260409020546113275760405162461bcd60e51b8152600401610d3590615236565b600061133383836126ca565b9050806000036113555760405162461bcd60e51b8152600401610d359061527c565b6001600160a01b0383166000908152600560205260408120805483929061137d9084906152dd565b90915550506001600160a01b0380841660009081526006602090815260408083209386168352929052208054820190556113b883838361380d565b604080516001600160a01b038481168252602082018490528516917f3be5b7a71e84ed12875d241991c70855ac5817d847039e17a9d895c1ceb0f18a910160405180910390a2505050565b606081518351146114685760405162461bcd60e51b815260206004820152602960248201527f455243313135353a206163636f756e747320616e6420696473206c656e677468604482015268040dad2e6dac2e8c6d60bb1b6064820152608401610d35565b600083516001600160401b0381111561148357611483614b48565b6040519080825280602002602001820160405280156114ac578160200160208202803683370190505b50905060005b8451811015611524576114f78582815181106114d0576114d061533e565b60200260200101518583815181106114ea576114ea61533e565b6020026020010151610cce565b8282815181106115095761150961533e565b602090810291909101015261151d81615354565b90506114b2565b509392505050565b611534613402565b6011805460ff19811660ff90911615179055565b611550613402565b8060ff166002036115615760458290555b8060ff1660010361108f5750604455565b61157a613402565b6023805462ff0000198116620100009182900460ff1615909102179055565b6115a1613402565b6115ab600061385f565b565b3332146115cc5760405162461bcd60e51b8152600401610d359061536d565b6115d4613402565b60235462010000900460ff166116115760405162461bcd60e51b8152602060048201526002602482015261329b60f11b6044820152606401610d35565b60245460ff16151560011461164e5760405162461bcd60e51b815260206004820152600360248201526232989960e91b6044820152606401610d35565b60245462010000900460ff161561168d5760405162461bcd60e51b815260206004820152600360248201526265313360e81b6044820152606401610d35565b61169b602780546001019055565b60006116a660275490565b6020549091506000906116b8906138b1565b6046805460ff191660ff93909316929092179091556016549091505b6116e0836103e8615389565b81101561195f57604654600090819060ff166001036117e15761271061170984620293b8615389565b61171391906153b6565b602c54602f5462ffffff929092169160ff9091169061173587620271006153ca565b62ffffff1661174491906152dd565b61174f9060016152dd565b61175991906152dd565b61176391906152dd565b905061271061177584620293b8615389565b6117809060016152dd565b61178a91906153b6565b602c54602f5462ffffff929092169160ff909116906117ac87620271006153ca565b62ffffff166117bb91906152dd565b6117c69060016152dd565b6117d091906152dd565b6117da91906152dd565b91506118c5565b6127106117f184620293b8615389565b6117fb91906153b6565b602c54602f5462ffffff929092169160ff9091169061181d87620271006153ed565b62ffffff1661182c91906152dd565b6118379060016152dd565b61184191906152dd565b61184b91906152dd565b905061271061185d84620293b8615389565b6118689060016152dd565b61187291906153b6565b602c54602f5462ffffff929092169160ff9091169061189487620271006153ed565b62ffffff166118a391906152dd565b6118ae9060016152dd565b6118b891906152dd565b6118c291906152dd565b91505b603454603354603254602f5460009392916118df916152dd565b6118e991906152dd565b6118f391906152dd565b9050808362ffffff16118061190c5750808262ffffff16115b6024805462ff00001916620100009215158302179081905560ff91900416156119375750505061195f565b60195461194590839061396e565b60195550829150611957905081615354565b9150506116d4565b5061196c826103e8615389565b6016555050565b6000600482815481106119885761198861533e565b6000918252602090912001546001600160a01b031692915050565b600e8054610dc69061513d565b81336001600160a01b038216146119d95760405162461bcd60e51b8152600401610d3590615409565b3332146119f85760405162461bcd60e51b8152600401610d359061536d565b60135460ff16600003611a1d5760405162461bcd60e51b8152600401610d3590615425565b611a256139ec565b60008260ff1611611a485760405162461bcd60e51b8152600401610d3590615442565b33611a655760405162461bcd60e51b8152600401610d359061545f565b601354600090600490811614611a8d5760405162461bcd60e51b8152600401610d359061547c565b603b54336000908152602e602052604090205460ff161115611ac15760405162461bcd60e51b8152600401610d3590615499565b603e5460ff84161115611ae65760405162461bcd60e51b8152600401610d35906154b6565b603b54336000908152602e6020526040902054611b0790859060ff166154d3565b60ff161115611b3757336000908152602e6020526040902054603b54611b309160ff16906154ec565b9250600190505b603854601d546032546035546029805460408051602080840282018101909252828152600097889788978897611bad978f979496939592949193909190830182828015611ba357602002820191906000526020600020905b815481526020019060010190808311611b8f575b5050505050613a45565b93509350935093508660ff168360ff1614611bc757600194505b604154600560ff851610801590611be25750600a8460ff1611155b15611c0957604154600590611bf8906004615389565b611c0291906153b6565b9050611c33565b600a8460ff161115611c3357604154600590611c26906003615389565b611c3091906153b6565b90505b34611c4160ff861683615389565b811015611c605760405162461bcd60e51b8152600401610d35906154ff565b60008560ff166001600160401b03811115611c7d57611c7d614b48565b604051908082528060200260200182016040528015611ca6578160200160208202803683370190505b50905060008660ff166001600160401b03811115611cc657611cc6614b48565b604051908082528060200260200182016040528015611cef578160200160208202803683370190505b50905060005b8760ff16811015611d5957611d0a818a6152dd565b838281518110611d1c57611d1c61533e565b6020026020010181815250506001828281518110611d3c57611d3c61533e565b602090810291909101015280611d5181615354565b915050611cf5565b50611d7533838360405180602001604052806000815250613be0565b60005b8760ff16811015611de75733602d6000858481518110611d9a57611d9a61533e565b6020026020010151815260200190815260200160002060006101000a8154816001600160a01b0302191690836001600160a01b031602179055508080611ddf90615354565b915050611d78565b508151336000908152602e6020526040902054611e07919060ff166152dd565b336000908152602e60205260409020805460ff191660ff928316179055601d87905560298054898316928816908110611e4257611e4261533e565b9060005260206000200154611e5791906152dd565b6029805460ff8816908110611e6e57611e6e61533e565b6000918252602082200191909155601a805460ff8a169290611e919084906152dd565b9091555050603254601a5410611eaf576023805460ff191660011790555b306108fc611ec060ff8a1687615389565b6040518115909202916000818181858888f19350505050158015611ee8573d6000803e3d6000fd5b508815611f285760405160ff8816815233907faf3c443bb05b163e7d42de9f4b11bdbfa307cad571a1ae5013e5e2ee92e66ed29060200160405180910390a25b505050505050505050611f3b6001600c55565b505050565b61108f338383613d3b565b600080611f5760015490565b611f6190476152dd565b9050611f8c8382611f87866001600160a01b031660009081526003602052604090205490565b613e1b565b9392505050565b611f9b613402565b8160ff168160ff161115611fd75760405162461bcd60e51b815260206004820152600360248201526265323360e81b6044820152606401610d35565b60ff918216603d5516604055565b3332146120045760405162461bcd60e51b8152600401610d359061536d565b61200c613402565b60235460ff166120435760405162461bcd60e51b8152602060048201526002602482015261653560f01b6044820152606401610d35565b60245460ff161561207b5760405162461bcd60e51b8152602060048201526002602482015261653960f01b6044820152606401610d35565b602c5460ff166012036120a7576120926011613e56565b602c805460ff191660ff929092169190911790555b6120b5602580546001019055565b60006120c060255490565b6014549091506000905b6120d6836103e8615389565b8110156123025760006127106120ef83620293b8615389565b6120f991906153b6565b602c54602f5462ffffff929092169160ff909116906121199060016152dd565b61212391906152dd565b61212d91906152dd565b603254602f5491925060009161214391906152dd565b9050600061271061215785620293b8615389565b6121629060016152dd565b61216c91906153b6565b602c54602f5462ffffff929092169160ff9091169061218c9060016152dd565b61219691906152dd565b6121a091906152dd565b9050818162ffffff1611806121b95750818362ffffff16115b6024805460ff1916911515918217905560ff16156122d95762ffffff811660208190556000906121e8906138b1565b6046805460ff90931660ff1990931683179055915060010361226c5761221461271063bf4380416153b6565b602c54602f5462ffffff929092169160ff9091169061223684620222e06153ca565b62ffffff1661224591906152dd565b6122509060016152dd565b61225a91906152dd565b61226491906152dd565b6022556122d0565b61227c61271063bf4380416153b6565b602c54602f5462ffffff929092169160ff9091169061229e84620222e06153ed565b62ffffff166122ad91906152dd565b6122b89060016152dd565b6122c291906152dd565b6122cc91906152dd565b6022555b50505050612302565b6017546122e790849061396e565b601755509092508190506122fa81615354565b9150506120ca565b5061230f826103e8615389565b6014555050565b3332146123355760405162461bcd60e51b8152600401610d359061536d565b61233d613402565b602354610100900460ff166123795760405162461bcd60e51b8152602060048201526002602482015261653760f01b6044820152606401610d35565b60245460ff1615156001146123b65760405162461bcd60e51b815260206004820152600360248201526206531360ec1b6044820152606401610d35565b602454610100900460ff16156123f45760405162461bcd60e51b815260206004820152600360248201526265313160e81b6044820152606401610d35565b612402602680546001019055565b600061240d60265490565b60205490915060009061241f906138b1565b6046805460ff191660ff93909316929092179091556015549091505b612447836103e8615389565b8110156126b657604654600090819060ff166001036125485761271061247084620293b8615389565b61247a91906153b6565b602c54602f5462ffffff929092169160ff9091169061249c87620222e06153ca565b62ffffff166124ab91906152dd565b6124b69060016152dd565b6124c091906152dd565b6124ca91906152dd565b91506127106124dc84620293b8615389565b6124e79060016152dd565b6124f191906153b6565b602c54602f5462ffffff929092169160ff9091169061251387620222e06153ca565b62ffffff1661252291906152dd565b61252d9060016152dd565b61253791906152dd565b61254191906152dd565b905061262c565b61271061255884620293b8615389565b61256291906153b6565b602c54602f5462ffffff929092169160ff9091169061258487620222e06153ed565b62ffffff1661259391906152dd565b61259e9060016152dd565b6125a891906152dd565b6125b291906152dd565b91506127106125c484620293b8615389565b6125cf9060016152dd565b6125d991906153b6565b602c54602f5462ffffff929092169160ff909116906125fb87620222e06153ed565b62ffffff1661260a91906152dd565b6126159060016152dd565b61261f91906152dd565b61262991906152dd565b90505b603354603254602f5460009291612642916152dd565b61264c91906152dd565b9050808262ffffff1611806126655750808362ffffff16115b6024805461ff0019166101009215158302179081905560ff919004161561268e575050506126b6565b60185461269c90849061396e565b601855508291506126ae905081615354565b91505061243b565b506126c3826103e8615389565b6015555050565b6001600160a01b03821660009081526005602052604081205481906040516370a0823160e01b81523060048201526001600160a01b038616906370a0823190602401602060405180830381865afa158015612729573d6000803e3d6000fd5b505050506040513d601f19601f8201168201806040525081019061274d919061551c565b61275791906152dd565b6001600160a01b0380861660009081526006602090815260408083209388168352929052205490915061278d9084908390613e1b565b949350505050565b61279d613402565b6023805460ff19811660ff90911615179055565b83336001600160a01b038216146127da5760405162461bcd60e51b8152600401610d3590615409565b3332146127f95760405162461bcd60e51b8152600401610d359061536d565b60135460ff1660000361281e5760405162461bcd60e51b8152600401610d3590615425565b6128266139ec565b828260026128b083838080602002602001604051908101604052809392919081815260200183836020028082843760009201919091525050505060ff831660011461287357604554612877565b6044545b6040516bffffffffffffffffffffffff193360601b16602082015260340160405160208183030381529060405280519060200120613e6f565b15156001146128e75760405162461bcd60e51b8152602060048201526003602482015262194c8d60ea1b6044820152606401610d35565b60008760ff161161290a5760405162461bcd60e51b8152600401610d3590615442565b336129275760405162461bcd60e51b8152600401610d359061545f565b60135460009060029081161461294f5760405162461bcd60e51b8152600401610d359061547c565b603c54336000908152602e602052604090205460ff1611156129835760405162461bcd60e51b8152600401610d3590615499565b603f5460ff891611156129a85760405162461bcd60e51b8152600401610d35906154b6565b603c54336000908152602e60205260409020546129c9908a9060ff166154d3565b60ff1611156129f957336000908152602e6020526040902054603c546129f29160ff16906154ec565b9750600190505b600080600080612a7e8c602f60090160010154601460090160010154602f60030160010154602f600601600101546028600201805480602002602001604051908101604052809291908181526020018280548015611ba35760200282019190600052602060002090815481526020019060010190808311611b8f575050505050613a45565b93509350935093508b60ff168360ff1614612a9857600194505b6042543490612aab9060ff861690615389565b811015612aca5760405162461bcd60e51b8152600401610d35906154ff565b60008460ff166001600160401b03811115612ae757612ae7614b48565b604051908082528060200260200182016040528015612b10578160200160208202803683370190505b50905060008560ff166001600160401b03811115612b3057612b30614b48565b604051908082528060200260200182016040528015612b59578160200160208202803683370190505b50905060005b8660ff16811015612bc357612b7481896152dd565b838281518110612b8657612b8661533e565b6020026020010181815250506001828281518110612ba657612ba661533e565b602090810291909101015280612bbb81615354565b915050612b5f565b50612bdf33838360405180602001604052806000815250613be0565b60005b8660ff16811015612c515733602d6000858481518110612c0457612c0461533e565b6020026020010151815260200190815260200160002060006101000a8154816001600160a01b0302191690836001600160a01b031602179055508080612c4990615354565b915050612be2565b508151336000908152602e6020526040902054612c71919060ff166152dd565b336000908152602e60205260409020805460ff191660ff928316179055601e869055602a8054888316928716908110612cac57612cac61533e565b9060005260206000200154612cc191906152dd565b602a805460ff8716908110612cd857612cd861533e565b6000918252602082200191909155601b805460ff89169290612cfb9084906152dd565b9091555050603354601b5410612d1b576023805461ff0019166101001790555b60425430906108fc90612d329060ff8a1690615389565b6040518115909202916000818181858888f19350505050158015612d5a573d6000803e3d6000fd5b508715612d9a5760405160ff8716815233907faf3c443bb05b163e7d42de9f4b11bdbfa307cad571a1ae5013e5e2ee92e66ed29060200160405180910390a25b50505050505050505050506110fd6001600c55565b6001600160a01b038516331480612dcb5750612dcb8533610bfd565b612de75760405162461bcd60e51b8152600401610d35906152f0565b6110fd8585858585613e85565b612dfc613402565b6001600160a01b038116612e615760405162461bcd60e51b815260206004820152602660248201527f4f776e61626c653a206e6577206f776e657220697320746865207a65726f206160448201526564647265737360d01b6064820152608401610d35565b61126e8161385f565b612e72613402565b8160ff168160ff161115612eae5760405162461bcd60e51b815260206004820152600360248201526265323360e81b6044820152606401610d35565b60ff918216603c5516603f55565b83336001600160a01b03821614612ee55760405162461bcd60e51b8152600401610d3590615409565b333214612f045760405162461bcd60e51b8152600401610d359061536d565b60135460ff16600003612f295760405162461bcd60e51b8152600401610d3590615425565b612f316139ec565b82826001612f7e83838080602002602001604051908101604052809392919081815260200183836020028082843760009201919091525050505060ff831660011461287357604554612877565b1515600114612fb55760405162461bcd60e51b8152602060048201526003602482015262194c8d60ea1b6044820152606401610d35565b60008760ff1611612fd85760405162461bcd60e51b8152600401610d3590615442565b33612ff55760405162461bcd60e51b8152600401610d359061545f565b60135460009060019081161461301d5760405162461bcd60e51b8152600401610d359061547c565b603d54336000908152602e602052604090205460ff1611156130515760405162461bcd60e51b8152600401610d3590615499565b60405460ff891611156130765760405162461bcd60e51b8152600401610d35906154b6565b603d54336000908152602e6020526040902054613097908a9060ff166154d3565b60ff1611156130c757336000908152602e6020526040902054603d546130c09160ff16906154ec565b9750600190505b60008060008061314c8c602f60090160020154601460090160020154602f60030160020154602f600601600201546028600301805480602002602001604051908101604052809291908181526020018280548015611ba35760200282019190600052602060002090815481526020019060010190808311611b8f575050505050613a45565b93509350935093508b60ff168360ff161461316657600194505b60435434906131799060ff861690615389565b8110156131985760405162461bcd60e51b8152600401610d35906154ff565b60008460ff166001600160401b038111156131b5576131b5614b48565b6040519080825280602002602001820160405280156131de578160200160208202803683370190505b50905060008560ff166001600160401b038111156131fe576131fe614b48565b604051908082528060200260200182016040528015613227578160200160208202803683370190505b50905060005b8660ff168110156132915761324281896152dd565b8382815181106132545761325461533e565b60200260200101818152505060018282815181106132745761327461533e565b60209081029190910101528061328981615354565b91505061322d565b506132ad33838360405180602001604052806000815250613be0565b60005b8660ff1681101561331f5733602d60008584815181106132d2576132d261533e565b6020026020010151815260200190815260200160002060006101000a8154816001600160a01b0302191690836001600160a01b03160217905550808061331790615354565b9150506132b0565b508151336000908152602e602052604090205461333f919060ff166152dd565b336000908152602e60205260409020805460ff191660ff928316179055601f869055602b805488831692871690811061337a5761337a61533e565b906000526020600020015461338f91906152dd565b602b805460ff87169081106133a6576133a661533e565b6000918252602082200191909155601c805460ff891692906133c99084906152dd565b9091555050603454601c54106133eb576023805462ff00001916620100001790555b60435430906108fc90612d329060ff8a1690615389565b600b546001600160a01b031633146115ab5760405162461bcd60e51b815260206004820181905260248201527f4f776e61626c653a2063616c6c6572206973206e6f7420746865206f776e65726044820152606401610d35565b804710156134ac5760405162461bcd60e51b815260206004820152601d60248201527f416464726573733a20696e73756666696369656e742062616c616e63650000006044820152606401610d35565b6000826001600160a01b03168260405160006040518083038185875af1925050503d80600081146134f9576040519150601f19603f3d011682016040523d82523d6000602084013e6134fe565b606091505b5050905080611f3b5760405162461bcd60e51b815260206004820152603a60248201527f416464726573733a20756e61626c6520746f2073656e642076616c75652c207260448201527f6563697069656e74206d617920686176652072657665727465640000000000006064820152608401610d35565b81518351146135965760405162461bcd60e51b8152600401610d3590615535565b6001600160a01b0384166135bc5760405162461bcd60e51b8152600401610d359061557d565b336135cb818787878787613fc1565b60005b84518110156136b45760008582815181106135eb576135eb61533e565b6020026020010151905060008583815181106136095761360961533e565b60209081029190910181015160008481526007835260408082206001600160a01b038e16835290935291909120549091508181101561365a5760405162461bcd60e51b8152600401610d35906155c2565b60008381526007602090815260408083206001600160a01b038e8116855292528083208585039055908b168252812080548492906136999084906152dd565b92505081905550505050806136ad90615354565b90506135ce565b50846001600160a01b0316866001600160a01b0316826001600160a01b03167f4a39dc06d4c0dbc64b70af90fd698a233a518aa5d07e595d983b8c0526c8f7fb878760405161370492919061560c565b60405180910390a461371a81878787878761413a565b505050505050565b6001600160a01b0384166137485760405162461bcd60e51b8152600401610d359061563a565b33600061375485614295565b9050600061376185614295565b905061377283600089858589613fc1565b60008681526007602090815260408083206001600160a01b038b168452909152812080548792906137a49084906152dd565b909155505060408051878152602081018790526001600160a01b03808a1692600092918716917fc3d58168c5ae7397731d063d5bbf3d657854427343f4c083240f7aacaa2d0f62910160405180910390a4613804836000898989896142e0565b50505050505050565b604080516001600160a01b038416602482015260448082018490528251808303909101815260649091019091526020810180516001600160e01b031663a9059cbb60e01b179052611f3b90849061439b565b600b80546001600160a01b038381166001600160a01b0319831681179093556040519116919082907f8be0079c531659141344cd1fd0a4f28419497f9722a3daafe3b4186f6b6457e090600090a35050565b602c54602f54600091829160ff909116906138cf90620222e06152dd565b6138da9060016152dd565b6138e491906152dd565b62ffffff16831061393157602c54602f5460019160ff169061390990620222e06152dd565b6139149060016152dd565b61391e91906152dd565b61392890856153ed565b91509150915091565b602c54602f54600091859160ff9091169061394f90620222e06152dd565b61395a9060016152dd565b61396491906152dd565b61392891906153ed565b60008061397f8462ffffff1661446d565b90506001600160a01b038116156139e457600061399a6144d2565b90506139b83382600160405180602001604052806000815250613722565b6139d5338383600160405180602001604052806000815250612daf565b6139e06001856152dd565b9350505b509092915050565b6002600c5403613a3e5760405162461bcd60e51b815260206004820152601f60248201527f5265656e7472616e637947756172643a207265656e7472616e742063616c6c006044820152606401610d35565b6002600c55565b600080600080868810613a805760405162461bcd60e51b815260206004820152600360248201526206532360ec1b6044820152606401610d35565b6000613a94613a8f888a6153b6565b613e56565b905060005b613aa3888a6153b6565b8160ff1614613b205787878360ff1681518110613ac257613ac261533e565b602002602001015103613b09576001613adb898b6153b6565b613ae591906154ec565b8260ff1603613af75760009150613b0e565b81613b018161567b565b925050613b0e565b613b20565b80613b188161567b565b915050613a99565b6000613b2f8960ff8516615389565b888460ff1681518110613b4457613b4461533e565b6020026020010151613b5691906152dd565b9050888d60ff16898560ff1681518110613b7257613b7261533e565b6020026020010151613b8491906152dd565b1115613bb557878360ff1681518110613b9f57613b9f61533e565b602002602001015189613bb291906154ec565b9c505b613bc28b60ff8f166152dd565b9a50613bce8c826152dd565b9d9a9b50919998505050505050505050565b6001600160a01b038416613c065760405162461bcd60e51b8152600401610d359061563a565b8151835114613c275760405162461bcd60e51b8152600401610d3590615535565b33613c3781600087878787613fc1565b60005b8451811015613cd357838181518110613c5557613c5561533e565b602002602001015160076000878481518110613c7357613c7361533e565b602002602001015181526020019081526020016000206000886001600160a01b03166001600160a01b031681526020019081526020016000206000828254613cbb91906152dd565b90915550819050613ccb81615354565b915050613c3a565b50846001600160a01b031660006001600160a01b0316826001600160a01b03167f4a39dc06d4c0dbc64b70af90fd698a233a518aa5d07e595d983b8c0526c8f7fb8787604051613d2492919061560c565b60405180910390a46110fd8160008787878761413a565b816001600160a01b0316836001600160a01b031603613dae5760405162461bcd60e51b815260206004820152602960248201527f455243313135353a2073657474696e6720617070726f76616c20737461747573604482015268103337b91039b2b63360b91b6064820152608401610d35565b6001600160a01b03838116600081815260086020908152604080832094871680845294825291829020805460ff191686151590811790915591519182527f17307eab39ab6107e8899845ad3d59bd9653f200f220920489ca2b5937696c31910160405180910390a3505050565b600080546001600160a01b038516825260026020526040822054839190613e429086615389565b613e4c91906153b6565b61278d91906154ec565b600081613e646001436154ec565b610d6391904061569a565b600082613e7c85846147ff565b14949350505050565b6001600160a01b038416613eab5760405162461bcd60e51b8152600401610d359061557d565b336000613eb785614295565b90506000613ec485614295565b9050613ed4838989858589613fc1565b60008681526007602090815260408083206001600160a01b038c16845290915290205485811015613f175760405162461bcd60e51b8152600401610d35906155c2565b60008781526007602090815260408083206001600160a01b038d8116855292528083208985039055908a16825281208054889290613f569084906152dd565b909155505060408051888152602081018890526001600160a01b03808b16928c821692918816917fc3d58168c5ae7397731d063d5bbf3d657854427343f4c083240f7aacaa2d0f62910160405180910390a4613fb6848a8a8a8a8a6142e0565b505050505050505050565b6001600160a01b0385166140485760005b835181101561404657828181518110613fed57613fed61533e565b6020026020010151600a600086848151811061400b5761400b61533e565b60200260200101518152602001908152602001600020600082825461403091906152dd565b9091555061403f905081615354565b9050613fd2565b505b6001600160a01b03841661371a5760005b83518110156138045760008482815181106140765761407661533e565b6020026020010151905060008483815181106140945761409461533e565b602002602001015190506000600a6000848152602001908152602001600020549050818110156141175760405162461bcd60e51b815260206004820152602860248201527f455243313135353a206275726e20616d6f756e74206578636565647320746f74604482015267616c537570706c7960c01b6064820152608401610d35565b6000928352600a60205260409092209103905561413381615354565b9050614059565b6001600160a01b0384163b1561371a5760405163bc197c8160e01b81526001600160a01b0385169063bc197c819061417e90899089908890889088906004016156ae565b6020604051808303816000875af19250505080156141b9575060408051601f3d908101601f191682019092526141b69181019061570c565b60015b614265576141c5615729565b806308c379a0036141fe57506141d9615745565b806141e45750614200565b8060405162461bcd60e51b8152600401610d359190614aa2565b505b60405162461bcd60e51b815260206004820152603460248201527f455243313135353a207472616e7366657220746f206e6f6e2d455243313135356044820152732932b1b2b4bb32b91034b6b83632b6b2b73a32b960611b6064820152608401610d35565b6001600160e01b0319811663bc197c8160e01b146138045760405162461bcd60e51b8152600401610d35906157ce565b604080516001808252818301909252606091600091906020808301908036833701905050905082816000815181106142cf576142cf61533e565b602090810291909101015292915050565b6001600160a01b0384163b1561371a5760405163f23a6e6160e01b81526001600160a01b0385169063f23a6e61906143249089908990889088908890600401615816565b6020604051808303816000875af192505050801561435f575060408051601f3d908101601f1916820190925261435c9181019061570c565b60015b61436b576141c5615729565b6001600160e01b0319811663f23a6e6160e01b146138045760405162461bcd60e51b8152600401610d35906157ce565b60006143f0826040518060400160405280602081526020017f5361666545524332303a206c6f772d6c6576656c2063616c6c206661696c6564815250856001600160a01b03166148449092919063ffffffff16565b805190915015611f3b578080602001905181019061440e9190615850565b611f3b5760405162461bcd60e51b815260206004820152602a60248201527f5361666545524332303a204552433230206f7065726174696f6e20646964206e6044820152691bdd081cdd58d8d9595960b21b6064820152608401610d35565b6000818152600a6020526040812054151580156144a957506000828152602d60205260408120546144a7906001600160a01b031684610cce565b115b156144ca57506000908152602d60205260409020546001600160a01b031690565b506000919050565b603054602c546000916101009091046001600160401b03161061451c5760405162461bcd60e51b81526020600482015260026024820152610ca760f31b6044820152606401610d35565b60285460009061452b90613e56565b905060005b60285460ff90811690821610156145c25760285460305461455191906153b6565b6028805460ff85169081106145685761456861533e565b9060005260206000200154036145ab57602854614587906001906154ec565b8260ff160361459957600091506145b0565b816145a38161567b565b9250506145b0565b6145c2565b806145ba8161567b565b915050614530565b6031546000906145d79060029060ff1661586d565b60ff1660286000018460ff16815481106145f3576145f361533e565b90600052602060002001541015614662576031546146189060ff908116908516615389565b6028805460ff861690811061462f5761462f61533e565b9060005260206000200154600161464691906152dd565b614651906002615389565b61465b91906152dd565b905061477a565b60ff83161580156146a957506031546146809060029060ff1661586d565b60ff1660286000018460ff168154811061469c5761469c61533e565b9060005260206000200154145b15614700576028805460ff85169081106146c5576146c561533e565b906000526020600020015460026146dc91906152dd565b6028805460ff86169081106146f3576146f361533e565b6000918252602090912001555b6031546147149060ff908116908516615389565b6031546147269060029060ff1661586d565b60ff1660286000018560ff16815481106147425761474261533e565b906000526020600020015461475791906154ec565b614762906002615389565b61476d9060016152dd565b61477791906152dd565b90505b600160286000018460ff16815481106147955761479561533e565b9060005260206000200160008282546147ae91906152dd565b9091555050602c805461010090046001600160401b03169060016147d18361588f565b91906101000a8154816001600160401b0302191690836001600160401b031602179055505080935050505090565b600081815b845181101561152457614830828683815181106148235761482361533e565b6020026020010151614853565b91508061483c81615354565b915050614804565b606061278d848460008561487f565b600081831061486f576000828152602084905260409020611f8c565b5060009182526020526040902090565b6060824710156148e05760405162461bcd60e51b815260206004820152602660248201527f416464726573733a20696e73756666696369656e742062616c616e636520666f6044820152651c8818d85b1b60d21b6064820152608401610d35565b600080866001600160a01b031685876040516148fc91906158b5565b60006040518083038185875af1925050503d8060008114614939576040519150601f19603f3d011682016040523d82523d6000602084013e61493e565b606091505b509150915061494f8783838761495a565b979650505050505050565b606083156149c95782516000036149c2576001600160a01b0385163b6149c25760405162461bcd60e51b815260206004820152601d60248201527f416464726573733a2063616c6c20746f206e6f6e2d636f6e74726163740000006044820152606401610d35565b508161278d565b61278d83838151156141e45781518083602001fd5b6001600160a01b038116811461126e57600080fd5b60008060408385031215614a0657600080fd5b8235614a11816149de565b946020939093013593505050565b6001600160e01b03198116811461126e57600080fd5b600060208284031215614a4757600080fd5b8135611f8c81614a1f565b60005b83811015614a6d578181015183820152602001614a55565b50506000910152565b60008151808452614a8e816020860160208601614a52565b601f01601f19169290920160200192915050565b602081526000611f8c6020830184614a76565b600060208284031215614ac757600080fd5b5035919050565b803560ff81168114614adf57600080fd5b919050565b600060208284031215614af657600080fd5b611f8c82614ace565b600060208284031215614b1157600080fd5b8135611f8c816149de565b60008060408385031215614b2f57600080fd5b82359150614b3f60208401614ace565b90509250929050565b634e487b7160e01b600052604160045260246000fd5b601f8201601f191681016001600160401b0381118282101715614b8357614b83614b48565b6040525050565b60006001600160401b03821115614ba357614ba3614b48565b5060051b60200190565b600082601f830112614bbe57600080fd5b81356020614bcb82614b8a565b604051614bd88282614b5e565b83815260059390931b8501820192828101915086841115614bf857600080fd5b8286015b84811015614c135780358352918301918301614bfc565b509695505050505050565b600082601f830112614c2f57600080fd5b81356001600160401b03811115614c4857614c48614b48565b604051614c5f601f8301601f191660200182614b5e565b818152846020838601011115614c7457600080fd5b816020850160208301376000918101602001919091529392505050565b600080600080600060a08688031215614ca957600080fd5b8535614cb4816149de565b94506020860135614cc4816149de565b935060408601356001600160401b0380821115614ce057600080fd5b614cec89838a01614bad565b94506060880135915080821115614d0257600080fd5b614d0e89838a01614bad565b93506080880135915080821115614d2457600080fd5b50614d3188828901614c1e565b9150509295509295909350565b606081526000614d516060830186614a76565b8281036020840152614d638186614a76565b9150508215156040830152949350505050565b60008060408385031215614d8957600080fd5b8235614d94816149de565b91506020830135614da4816149de565b809150509250929050565b60008060408385031215614dc257600080fd5b823591506020830135614da4816149de565b60008060408385031215614de757600080fd5b82356001600160401b0380821115614dfe57600080fd5b818501915085601f830112614e1257600080fd5b81356020614e1f82614b8a565b604051614e2c8282614b5e565b83815260059390931b8501820192828101915089841115614e4c57600080fd5b948201945b83861015614e73578535614e64816149de565b82529482019490820190614e51565b96505086013592505080821115614e8957600080fd5b50614e9685828601614bad565b9150509250929050565b600081518084526020808501945080840160005b83811015614ed057815187529582019590820190600101614eb4565b509495945050505050565b602081526000611f8c6020830184614ea0565b8981526020810189905260ff881660408201526102a08101614f2760608301898051825260208082015190830152604090810151910152565b865160c083015260208088015160e0840152604097880151610100840152865161012084015286810151610140840152958701516101608301528451610180830152848601516101a0830152938601516101c082015282516101e08201528285015161020082015291850151610220830152805161024083015292830151610260820152919092015161028090910152949350505050565b60008060408385031215614fd257600080fd5b8235614fdd816149de565b9150614b3f60208401614ace565b801515811461126e57600080fd5b6000806040838503121561500c57600080fd5b8235615017816149de565b91506020830135614da481614feb565b6000806040838503121561503a57600080fd5b614fdd83614ace565b6000806000806060858703121561505957600080fd5b8435615064816149de565b935061507260208601614ace565b925060408501356001600160401b038082111561508e57600080fd5b818701915087601f8301126150a257600080fd5b8135818111156150b157600080fd5b8860208260051b85010111156150c657600080fd5b95989497505060200194505050565b600080600080600060a086880312156150ed57600080fd5b85356150f8816149de565b94506020860135615108816149de565b9350604086013592506060860135915060808601356001600160401b0381111561513157600080fd5b614d3188828901614c1e565b600181811c9082168061515157607f821691505b60208210810361517157634e487b7160e01b600052602260045260246000fd5b50919050565b600080835481600182811c91508083168061519357607f831692505b602080841082036151b257634e487b7160e01b86526022600452602486fd5b8180156151c657600181146151db57615208565b60ff1986168952841515850289019650615208565b60008a81526020902060005b868110156152005781548b8201529085019083016151e7565b505084890196505b50505050505061278d61522582637b69647d60e01b815260040190565b64173539b7b760d91b815260050190565b60208082526026908201527f5061796d656e7453706c69747465723a206163636f756e7420686173206e6f2060408201526573686172657360d01b606082015260800190565b6020808252602b908201527f5061796d656e7453706c69747465723a206163636f756e74206973206e6f742060408201526a191d59481c185e5b595b9d60aa1b606082015260800190565b634e487b7160e01b600052601160045260246000fd5b80820180821115610d6357610d636152c7565b6020808252602e908201527f455243313135353a2063616c6c6572206973206e6f7420746f6b656e206f776e60408201526d195c881bdc88185c1c1c9bdd995960921b606082015260800190565b634e487b7160e01b600052603260045260246000fd5b600060018201615366576153666152c7565b5060010190565b602080825260029082015261653360f01b604082015260600190565b8082028115828204841417610d6357610d636152c7565b634e487b7160e01b600052601260045260246000fd5b6000826153c5576153c56153a0565b500490565b62ffffff8181168382160190808211156153e6576153e66152c7565b5092915050565b62ffffff8281168282160390808211156153e6576153e66152c7565b602080825260029082015261194d60f21b604082015260600190565b602080825260039082015262194c4d60ea1b604082015260600190565b60208082526003908201526265313560e81b604082015260600190565b60208082526003908201526232989b60e91b604082015260600190565b60208082526003908201526265323160e81b604082015260600190565b60208082526003908201526265313760e81b604082015260600190565b6020808252600390820152620ca62760eb1b604082015260600190565b60ff8181168382160190811115610d6357610d636152c7565b81810381811115610d6357610d636152c7565b60208082526003908201526265313960e81b604082015260600190565b60006020828403121561552e57600080fd5b5051919050565b60208082526028908201527f455243313135353a2069647320616e6420616d6f756e7473206c656e677468206040820152670dad2e6dac2e8c6d60c31b606082015260800190565b60208082526025908201527f455243313135353a207472616e7366657220746f20746865207a65726f206164604082015264647265737360d81b606082015260800190565b6020808252602a908201527f455243313135353a20696e73756666696369656e742062616c616e636520666f60408201526939103a3930b739b332b960b11b606082015260800190565b60408152600061561f6040830185614ea0565b82810360208401526156318185614ea0565b95945050505050565b60208082526021908201527f455243313135353a206d696e7420746f20746865207a65726f206164647265736040820152607360f81b606082015260800190565b600060ff821660ff8103615691576156916152c7565b60010192915050565b6000826156a9576156a96153a0565b500690565b6001600160a01b0386811682528516602082015260a0604082018190526000906156da90830186614ea0565b82810360608401526156ec8186614ea0565b905082810360808401526157008185614a76565b98975050505050505050565b60006020828403121561571e57600080fd5b8151611f8c81614a1f565b600060033d11156157425760046000803e5060005160e01c5b90565b600060443d10156157535790565b6040516003193d81016004833e81513d6001600160401b03816024840111818411171561578257505050505090565b828501915081518181111561579a5750505050505090565b843d87010160208285010111156157b45750505050505090565b6157c360208286010187614b5e565b509095945050505050565b60208082526028908201527f455243313135353a204552433131353552656365697665722072656a656374656040820152676420746f6b656e7360c01b606082015260800190565b6001600160a01b03868116825285166020820152604081018490526060810183905260a06080820181905260009061494f90830184614a76565b60006020828403121561586257600080fd5b8151611f8c81614feb565b600060ff831680615880576158806153a0565b8060ff84160491505092915050565b60006001600160401b038083168181036158ab576158ab6152c7565b6001019392505050565b600082516158c7818460208701614a52565b919091019291505056fea26469706673582212204ca67bdb1c1a4952a5a82494ae7df8b1416ed87f9c1bc0fc9bbe2412289b709d64736f6c63430008110033",
  "linkReferences": {},
  "deployedLinkReferences": {}
}